:100000000C94EF290C942F2A0C942F2A0C942F2A4D
:100010000C942F2A0C942F2A0C942F2A0C942F2AFC
:100020000C942F2A0C942F2A0C942F2A0C942F2AEC
:100030000C942F2A0C942F2A0C942F2A0C942F2ADC
:100040000C942F2A0D9468090C942F2A0C942F2AB3
:100050000C942F2A0D949D010C942F2A0D948F7FC0
:100060000C942F2A0C94885A0C94525A0C942F2AD0
:100070000C942F2A0C942F2A0C942F2A0C942F2A9C
:100080000C942F2A0C942F2A0C942F2A0C942F2A8C
:100090000C942F2A0C942F2A0C942F2A0C942F2A7C
:1000A0000C942F2A0C942F2A0C942F2A0C942F2A6C
:1000B0000C942F2A0C942F2A0C942F2A0C942F2A5C
:1000C0000C942F2A0C942F2A0C942F2A0C942F2A4C
:1000D0000C942F2A0C942F2A0C942F2A0C942F2A3C
:1000E0000C942F2A084AD73B3BCE016E84BCBFFD3F
:1000F000C12F3D6C74319ABD56833DDA3D00C77FF8
:1001000011BED9E4BB4C3E916BAAAABE0000008090
:100110003F07634236B79BD8A71A39685618AEBA5C
:10012000AB558C1D3CB7CC5763BD6DEDFD753EF6F0
:10013000177231BF000000803F05A84CCDB2D44EED
:10014000B93836A9020C50B9918688083CA6AAAAEB
:100150002ABE000000803F08000000BE9224491221
:100160003EABAAAA2ABECDCCCC4C3E00000080BE3D
:10017000ABAAAAAA3E00000000BF000000803F001A
:1001800000000000084178D3BB4387D1133D190E0E
:100190003CC3BD4282AD2B3E68EC8276BED98FE176
:1001A000A93E4C80EFFFBE01C4FF7F3F000000006E
:1001B00000000D94411C0C9474A50C9438A50C946B
:1001C00005DD0D94021C0D94871D0C94B6DE0D9474
:1001D000A01D0C94199B0C94D6A20D94781D0D941F
:1001E0003F1C0C94435B0D94F41A0C94B5D80C94FA
:1001F000DEA60C944BA10D944C230C941C9B0D94E7
:10020000197E0D947D1D0D94357E0D94F1420D9453
:100210000F7E0C94FD430C94F6A70D94157E0C9460
:100220003E5B0C94C4A60D94A24B0C942C5B0C94D6
:10023000195B0C94F85A0D94BE4B0C9440A60C9488
:10024000312A0C94C5E80C94229B0C94A3A00D9425
:1002500056230C94075B0C9444C70C9429E80C9427
:10026000D6A60C9413A10C94F99A0D94A84B0C9457
:10027000565B0D94721F0C94D8C70D94944B0C943C
:10028000245B0C9411A00C943CA60C9471B90D94B1
:100290002D7E0C94D3A20D948F460C9462A10D94E4
:1002A000E97D0C94F7B50C94ABD10C94ADDC0C94B7
:1002B000D1A40C9460EB0C94A3AB0C94395B0D941B
:1002C000087E0C947BD10C945E5B0C945DD10C94F5
:1002D0008DA00D94C8400C9499D10C9443440D9476
:1002E000E91B0C94C4E80D94AE4B0D94D81D0D94ED
:1002F0001B1C0D94303C0C94DF430C94EEEB0C94DF
:1003000043A50C949DAB0C948AA10C942E9B0C9449
:10031000299B0D94277E0C9459A50D94007E0C9476
:1003200019E80C94D8A60C9483B50D9451450C94FF
:10033000205B0C942DA10C9454AD0C94DCA20D9474
:10034000BD4A0C94E0A60D94F71A0C94339B0D94BF
:10035000251B0D94AE900C9481D10D94A91F0C9483
:1003600042E80C94F4A50C9437EC0D94A51F0C9462
:1003700088A20D94511C0D943F7E0D947C1F0C940B
:10038000169B0C9493D10C9447440D94B51F0D9477
:10039000561C0D94A91B0D949A3E0C946CA30D94BD
:1003A0005B1E0C94AFED0D941F7E0C94E0BA0C9480
:1003B000D4A60D94D01B0C947DEB0C94A5D10C9479
:1003C0005FA40C94FF430D949D1F0C94D9A20D942F
:1003D000A54B0C942EA50D94731D0D94084A0D94F5
:1003E000341C0D94AD1F0D9458370C943BFE0C94A7
:1003F000B3A50C9487D10D94821D0C9469440C9480
:1004000057A00C9445440C9469D10D94317E0D9401
:100410002D1A0D944B1E0C94BADE0C94D8CE0D946C
:10042000BF1D0C94BDA50C94DCC50C9479A10C9453
:10043000C95A0C9434C10C9471A00C941AD20C9427
:1004400046C90C941FA80D940C7E0D94237E0C9429
:10045000CFA20C94D3AE0D94B91F0C947BEC0C94EA
:100460006B440C941F440C946FA40C94C5A00C9482
:100470006FD10C9480A40C9425B50C9431A10C94EC
:1004800021440C9496EC0C944B5B0C94FC9F0C94C4
:100490001EA50C944EA50C94822B0C947C2B0D94D1
:1004A000F11A0C94285B0C9463D10C94E2C20C9466
:1004B00009DD0C947FA00C9410D60D94AB4B0D94D9
:1004C000EE7D0D949F4B0C949FD10C9467440C943B
:1004D00022A00D941A1B0C94B7A00C94DAA60C94CD
:1004E000D8A70C94D3430D94BD1F0C943DA00C943D
:1004F00023440D942A3C0D94B14B0D94BB4B0C94AA
:10050000ECE70D9453890C9482A60C9475D10C944D
:10051000DFA00C944FBC0D94A14E0C94305B0C9456
:100520008DD10C943CE10C94F8DC0D94B11F0C942B
:10053000F7B40C94A92B0C94E5EC0C9453B70D94E0
:10054000A11F0C94B1D10D94047E0C9411BF0C9496
:10055000F9A00C94345B0C94DCA60D94B44B0D9470
:100560002D3C0D94C11F0C94B8EC0C9496A40C94E3
:100570009EEB0D943B7E0C9462BE0C9481A80C946F
:100580001AE80C9457D10C94342A0C942BE10C9457
:100590005CD30C94F9D10C941F9B4E414E494E49AB
:1005A0005459494E46CDCCCC3D0AD7233C17B7D140
:1005B0003877CC2B329595E6241FB14F0A000020E6
:1005C000410000C84200401C4620BCBE4CCA1B0E65
:1005D0005AAEC59D7400407A10F35A00A0724E18AE
:1005E000090010A5D4E80000E87648170000E40BE5
:1005F00054020000CA9A3B000000E1F505000080AB
:10060000969800000040420F000000A08601000004
:1006100000102700000000E8030000000064000054
:100620000000000A00000000000100000000002C93
:1006300076D888DC674F0823DFC1DFAE59E1B1B758
:1006400096E5E3E453C63AE651997696E8E6C28425
:1006500026EB898C9B62ED407C6FFCEFBC9C9F403D
:10066000F2BAA56FA5F490055A2AF75C936B6CF962
:10067000676DC11BFCE0E40D47FEF520E6B500D038
:10068000ED902E0300943577050080841E0800004D
:10069000204E0A000000C80C333333330F986E121B
:1006A000831141EF8D2114893BE65516CFFEE6DB21
:1006B00018D1844B381BF77C1D901DA4BBE424206B
:1006C0003284725E228100C9F124ECA1E53D274409
:1006D000455441494C00434F4D4D554E49434154BB
:1006E000494F4E0044525952554E004552524F52B6
:1006F0005300494E464F004543484F004572726FC4
:10070000722077726974696E6720746F2045455056
:10071000524F4D210A0053544F505045442E200053
:100720005072696E7465722073746F7070656420A6
:1007300064756520746F206572726F72732E204627
:10074000697820746865206572726F7220616E64CA
:1007500020757365204D39393920746F20726573A7
:10076000746172742E202854656D706572617475A1
:1007700072652069732072657365742E20536574E9
:100780002069742061667465722072657374617289
:1007900074696E67290A004E6F20436865636B7346
:1007A000756D2077697468206C696E65206E756D53
:1007B0006265722C204C617374204C696E653A201E
:1007C000004E6F20436865636B73756D20776974A5
:1007D00068206C696E65206E756D6265722C204CA8
:1007E000617374204C696E653A2000636865636BC1
:1007F00073756D206D69736D617463682C204C6135
:100800007374204C696E653A20004C696E65204E09
:10081000756D626572206973206E6F74204C617310
:1008200074204C696E65204E756D6265722B312C9B
:10083000204C617374204C696E653A20004D313153
:10084000300053657269616C207374617475732034
:100850006D69736D617463680A0053442072656149
:1008600064206572726F720A00486F74656E64204E
:1008700049646C652054696D656F757400486F74C8
:10088000656E642049646C652054696D656F75748C
:100890000A004265642049646C652054696D656F87
:1008A0007574004265642049646C652054696D6507
:1008B0006F75740A004B494C4C20627574746F6EEE
:1008C0002F70696E0A002121204B494C4C20636136
:1008D000757365642062792000746F6F206D756395
:1008E0006820696E6163746976652074696D65203E
:1008F0002D2063757272656E7420636F6D6D616E0D
:10090000643A20002121204B494C4C2063617573CF
:10091000656420627920007061757365004D313225
:1009200035002066696C616D656E745F72756E6FFF
:100930007574200066696C616D656E745F72756EAA
:100940006F757420540046696C616D656E745275E4
:100950006E6F75742054004D656469612052656D39
:100960006F766564004D6564696120496E736572D8
:1009700074656400627573793A207061757365649B
:1009800020666F7220696E7075740A0062757379E3
:100990003A2070617573656420666F7220757365A7
:1009A000720A00627573793A2070726F63657373AF
:1009B000696E670A00506C656173652052657365E6
:1009C00074005052494E5445522048414C544544BD
:1009D0000025533A20255300706F7765726F666665
:1009E000004B494C4C45442E20005072696E746592
:1009F000722068616C7465642E206B696C6C2829A8
:100A00002063616C6C6564210A006563686F3A005D
:100A10004572726F723A00202864697361626C6576
:100A200064290A0041424C2041646A7573746D6503
:100A30006E74205A002028656E61626C6564290A14
:100A40000041626F76650053616D65205A206173C5
:100A50000042656C6F77004175746F2042656420B9
:100A60004C6576656C696E673A2042494C494E4543
:100A7000415200204E6F7A7A6C65290A00202800C6
:100A800050726F6265204F6666736574205830201F
:100A90005930205A0050726F62653A204E4F5A5AB0
:100AA0004C455F41535F50524F42450A004D6163D0
:100AB00068696E6520547970653A20436172746587
:100AC0007369616E0A0042696C696E656172204CDF
:100AD0006576656C696E6720477269643A0A003E04
:100AE0003E3E003C3C3C007365745F6265645F6C35
:100AF0006576656C696E675F656E61626C656400E2
:100B000072657365745F6265645F6C6576656C0AB7
:100B100000203A204C6576656C696E67204F4E0A5E
:100B200000202063757272656E745F706F736974F4
:100B3000696F6E3D00203A204C6576656C696E6782
:100B4000204F46460A00202063757272656E745FFE
:100B5000706F736974696F6E3D005072696E74696D
:100B60006E67204F626A656374002046002057005C
:100B700020204D32303720530020460020570020DF
:100B8000204D32303820530020204D323039205350
:100B9000006E6F74696669636174696F6E20006EC0
:100BA0006F74696669636174696F6E2000656E6455
:100BB0000073686F7700627574746F6E0053656EB2
:100BC00064204D31303820746F20726573756D6507
:100BD0000A00496E736572742066696C616D656E9A
:100BE0007420616E642073656E64204D3130380A64
:100BF0000052656865617420446F6E6500526568D7
:100C0000656174696E672E2E2E0052656865617489
:100C1000004865617465722054696D656F75740074
:100C200053656E64204D31303820746F20686561E3
:100C300074206E6F7A7A6C650A00486F74656E6412
:100C400020746F6F20636F6C640A00706175736548
:100C50006400486561642063616E6E6F7420626534
:100C6000207061726B656400506175736500426548
:100C700064204C6576656C696E6720004661696C1E
:100C8000656420746F20656E61626C6520426564E6
:100C9000204C6576656C696E670A00496E76616CFA
:100CA0006964206D6573682E0A006D6F76655F7AE2
:100CB0005F61667465725F70726F62696E67002053
:100CC0003A203E2070726F62696E6720636F6D70AC
:100CD0006C6574650A00202063757272656E745FBE
:100CE000706F736974696F6E3D0050726F62696EE8
:100CF0006720506F696E740025532025692F256980
:100D0000002E0A002F0050726F62696E67206D65B9
:100D1000736820706F696E74200020284452595205
:100D2000554E2900473239204175746F2042656461
:100D3000204C6576656C696E67003F20284C2C520C
:100D40002C462C4229206F7574206F6620626F75C7
:100D50006E64732E0A002042002046002052004795
:100D60003239204C003F2856296572626F73652026
:100D70006C6576656C20696D706C61757369626C09
:100D8000652028302D34292E0A00426164205A2023
:100D900076616C75650A004E6F2062696C696E65DC
:100DA000617220677269640A004732384C30003E35
:100DB000204175746F2D6C6576656C206E6F7420A4
:100DC0006E65656465642C20736B69700A00473238
:100DD00039005261697365205A206265666F7265D9
:100DE00020686F6D696E673A0A005230203D204ED0
:100DF0006F205A2072616973650A003E20686F6D2A
:100E0000696E67206E6F74206E65656465642C2062
:100E1000736B69700A004732380020284E6F7420C7
:100E2000796574206D656173757265642900202091
:100E300041766572616765206D6561737572656481
:100E4000206261636B6C61736820286D6D293A00C4
:100E50002020536D6F6F7468696E6720286D6D294F
:100E60003A20202020202020202020202020202068
:100E700020205300B2335D535A5357532020426110
:100E8000636B6C6173682044697374616E63652081
:100E9000286D6D293A2020202020202020002028A5
:100EA00046312E30203D2066756C6C2C2046302E4D
:100EB00030203D206E6F6E65290A002020436F723E
:100EC00072656374696F6E20416D6F756E742F4625
:100ED0006164652D6F75743A2020202020460061E2
:100EE00063746976653A0A00696E004261636B6CEF
:100EF00061736820436F7272656374696F6E20005E
:100F000020440020204D32303020530020284469F6
:100F10007361626C6564293A0046696C616D656E47
:100F2000742073657474696E67730020204D3230CD
:100F3000312058004D617820416363656C657261B2
:100F400074696F6E2028756E6974732F733229006F
:100F500020204D3230332058004D61782066656581
:100F60006472617465732028756E6974732F7329B8
:100F70000020520020204D32303420500041636365
:100F8000656C65726174696F6E2028756E69747323
:100F90002F7332292028503C7072696E742D616362
:100FA00063656C3E20523C726574726163742D619E
:100FB0006363656C3E20543C74726176656C2D6190
:100FC0006363656C3E290020540020530020204DAF
:100FD000323035204200416476616E6365642028BA
:100FE000423C6D696E5F7365676D656E745F7469B1
:100FF0006D655F75733E20533C6D696E5F66656518
:1010000064726174653E20543C6D696E5F747261F8
:1010100076656C5F66656564726174653E20583CF8
:101020006D61785F6A65726B3E20593C6D61785FD7
:101030006A65726B3E205A3C6D61785F6A65726BBF
:101040003E20453C6D61785F6A65726B3E290020E9
:10105000440020490020204D3330342050004265A8
:101060006420504944002E0A002028302D313029B8
:10107000002076616C7565206F7574206F66207234
:10108000616E676500416476616E6365204B3D006B
:101090005761726E696E673A20436C65616E2043DA
:1010A0006972636C65207265717569726573205829
:1010B000590A005761726E696E673A20526164691D
:1010C0007573204F7574206F662052616E67650AD4
:1010D000004E6F7A7A6C6520746F6F20636F6C645A
:1010E000202D20536B697070696E67207769706579
:1010F0000A004732384F0A4D31313720576970693D
:101100006E67206E6F7A7A6C650A54300A47312018
:10111000582D313720593235205A3130204634305D
:1011200030300A4731205A310A4D3131340A4731C3
:1011300020582D3137205932350A473120582D316A
:1011400037205939350A473120582D313720593247
:10115000350A473120582D3137205939350A473162
:1011600020582D3137205932350A473120582D313A
:1011700037205939350A473120582D313720593217
:10118000350A473120582D3137205939350A473132
:1011900020582D3137205932350A473120582D310A
:1011A00037205939350A473120582D3137205932E7
:1011B000350A473120582D3137205939350A473102
:1011C000205A31350A4D3430300A4D3131372057ED
:1011D00069706520436F6D706C6574650025290A20
:1011E00000252000203B2028002044002041002032
:1011F000490020204D373130205300436F6E747208
:101200006F6C6C65722046616E0020204D3930375E
:101210000053746570706572206D6F746F72206317
:10122000757272656E7473004E6F7A7A6C65207495
:101230006F6F20436F6C640A00556E6B6E6F776E34
:101240002046696C616D656E74205075726765200B
:101250005061747465726E0A00556E6B6E6F776EB6
:101260002046696C616D656E7420507572676520EB
:101270005061747465726E0A00556E6B6E6F776E96
:101280002046696C616D656E7420507572676520CB
:101290005061747465726E0A00556E6B6E6F776E76
:1012A0002046696C616D656E7420507572676520AB
:1012B0005061747465726E0A004D3131372050757B
:1012C0007267696E6720504C412E2E2E0A473931C5
:1012D0000A4D38330A4731205931302045302E38F5
:1012E000350A4731205831302045302E38350A47ED
:1012F00031205931302045302E38350A47312058B9
:101300002D31302045302E38350A473120593130C3
:101310002045302E38350A473120583130204530AD
:101320002E38350A4731205931302045302E383596
:101330000A473120582D31302045302E38350A47A4
:1013400031205931302045302E38350A4731205868
:1013500031302045302E38350A4731205931302080
:1013600045302E38350A473120582D313020453050
:101370002E38350A4731205931302045302E383546
:101380000A4731205831302045302E38350A473150
:10139000205931302045302E38350A473120582D1C
:1013A00031302045302E38350A4731205931302030
:1013B00045302E38350A4731205831302045302EFF
:1013C00038350A4731205931302045302E38350A1A
:1013D0004739300A4D3832004D313137205075725F
:1013E00067696E6720504554672E2E2E0A473931A3
:1013F0000A4D38330A4731205931302045312E31DA
:101400000A473120593230205831302045322E32AF
:101410000A4731582D31302045312E310A473120CD
:10142000593230205831302045322E320A47315857
:101430002D31302045312E310A47312059323020AC
:101440005831302045322E320A4731582D31302064
:1014500045312E310A473120593230205831302061
:1014600045322E320A4739300A4D3832004D31317B
:10147000372050757267696E67205450552E2E2E96
:101480000A4739310A4D38330A4731205831302064
:101490005931302045312E370A473120582D31300F
:1014A000205931302045312E370A4731205831300C
:1014B000205931302045312E370A473120582D31FF
:1014C00030205931302045312E370A4731205831EC
:1014D00030205931302045312E370A473120582DE0
:1014E0003130205931302045312E370A47312058CC
:1014F0003130205931302045312E370A47312058BC
:101500002D3130205931302045312E370A473120D6
:10151000583130205931302045312E370A47393083
:101520000A4D3832004D3131372050757267696E7F
:1015300067204142532E2E2E0A4739310A4D383347
:101540000A4731205931302045312E370A473120A2
:10155000593130205831302045312E370A4731205B
:101560005931302045312E370A473120593130204A
:10157000582D31302045312E370A4731205931302E
:101580002045312E370A473120593130205831302B
:101590002045312E370A4731205931302045312E30
:1015A000370A47312059313020582D31302045310C
:1015B0002E370A4731205931302045312E370A471E
:1015C0003120593130205831302045312E370A47EB
:1015D00039300A4D3832004D31313720507572673D
:1015E000696E672E2E2E0A4739310A4D38330A4765
:1015F000312059313030204531320A4739300A4DD7
:10160000383200203B0020550020204D363033205A
:101610004C0046696C616D656E74206C6F61642F5F
:10162000756E6C6F6164003B2000536C6565702EB5
:101630002E2E0070726F62655F726577697065004B
:101640004D31303420533137300A473238205A3048
:101650000A4732380A4731320A4D31303920523187
:1016600036300A4D3430300A4D3131372050726FE8
:1016700062696E6720626564004732392052657482
:101680007279696E670070726F62655F6661696C1E
:1016900065640050726F62696E67204661696C65AF
:1016A00064004D31313720426564206C6576656C8D
:1016B000696E67206661696C65642E0A4730205A3E
:1016C00031300A47302045300A4D33303020503217
:1016D0003520533838300A4D3330302050353020E3
:1016E00053300A4D333030205032352053383830A3
:1016F0000A4D333030205035302053300A4D3330CE
:10170000302050323520533838300A473420533196
:1017100000004D65736820706F696E74206F75747A
:10172000206F662072616E67650A004E6F204D6FF4
:1017300076652E00456E642066696C65206C697361
:10174000740A00426567696E2066696C65206C6981
:1017500073740A004E6F206D656469610A005265FA
:1017600073756D696E6720534400286E6F2066693B
:101770006C65290043757272656E742066696C65CC
:101780003A20002E0A0044656C6574696F6E20660D
:1017900061696C65642C2046696C653A2000466975
:1017A0006C652064656C657465643A0043616E6EB7
:1017B0006F74206F70656E207375626469722000AB
:1017C0005072696E742074696D653A20006F6B0009
:1017D0004C696E653A20006F666600F706F206EB0C
:1017E00006E406D606CF0644454255473A004D3139
:1017F00031332053004C756C7A426F7420576F72EE
:101800006B686F727365204F46462E0020732E0A58
:1018100000496E61637469766974792074696D65D5
:101820006F75742000432E0A003F49646C65205494
:10183000696D656F75742028542920747269676713
:1018400065722074656D7065726174757265207360
:10185000686F756C64206265206F76657220002F5A
:101860002F004D31343520533C696E6465783E203D
:101870006F7574206F662072616E67652028302D49
:1018800031290A00416363656C65726174696F6E2A
:10189000004665656472617465005741524E494E59
:1018A0004721204C6F77205A204A65726B206D616A
:1018B00079206C65616420746F20756E77616E7439
:1018C0006564207061757365732E0A0020204D6178
:1018D000783A2000200020204D696E3A2000203BFD
:1018E000200020204D323131205300536F66742088
:1018F000656E6473746F707300250A0046523A0077
:1019000020466C6F773A200050726F6265204F66F8
:1019100066736574205A0050726F6265204F666668
:10192000736574205A0064697300656E0043290072
:1019300061626C656420286D696E2074656D70202D
:1019400000436F6C64206578747275646573206100
:10195000726520004F4646004F4E00203B20486FE6
:1019600073742068616E646C696E67200046696CF0
:10197000616D656E742072756E6F757420004D34E4
:10198000323120696E636F727265637420706172A8
:10199000616D657465722075736167650A004D65D8
:1019A000736820706F696E74206F7574206F662085
:1019B00072616E67650A00454550524F4D204F4B8E
:1019C0000A00290A0020746F20003F5A206F7574A6
:1019D000206F662072616E67652028003F59206D78
:1019E000757374206265203020284E4F5A5A4C453A
:1019F0005F41535F50524F4245292E0A003F582005
:101A00006D757374206265203020284E4F5A5A4CF1
:101A1000455F41535F50524F4245292E0A00446FA3
:101A20006E65207072696E74696E672066696C6598
:101A30000A004D3737004D33310020204D3230360B
:101A4000205800486F6D65206F6666736574004F9F
:101A5000666673657473204170706C696564004DCF
:101A6000494E2F4D415820546F6F204661720054EB
:101A70006F6F206661722066726F6D204D494E2F28
:101A80004D41580A00446966663A2020200046729B
:101A90006F6D5374703A00537465707065723A00DC
:101AA000556E4C6576656C3A004C6576656C656480
:101AB0003A005261773A20202020000A4C6F676973
:101AC00063616C3A00436F756E7420453A00436160
:101AD000703A00434F4E4649475F4558504F525465
:101AE000004D4541545041434B00434F4F4C4552EC
:101AF0005F54454D5045524154555245004348416D
:101B00004D4245525F54454D504552415455524502
:101B10000045505F424142595354455000424142B2
:101B2000595354455050494E470041524353004D7C
:101B30004F54494F4E5F4D4F444553005448455212
:101B40004D414C5F50524F54454354494F4E004510
:101B50005854454E4445445F4D323000435553542C
:101B60004F4D5F4649524D574152455F55504C4F7E
:101B70004144004C464E5F5752495445004C4F4E2D
:101B8000475F46494C454E414D45004155544F52E3
:101B900045504F52545F53445F5354415455530082
:101BA00053445F57524954450052455045415400F3
:101BB0004D554C54495F564F4C554D450053444389
:101BC0004152440050524F4D50545F535550504F66
:101BD000525400484F53545F414354494F4E5F4362
:101BE0004F4D4D414E445300454D455247454E43A0
:101BF000595F50415253455200434153455F4C4950
:101C00004748545F4252494748544E455353005445
:101C10004F47474C455F4C494748545300534F4644
:101C200054574152455F504F574552004255494C19
:101C3000445F50455243454E54004C4556454C492F
:101C40004E475F44415441005A5F50524F42450055
:101C500052554E4F5554004155544F4C4556454CE6
:101C6000005052494E545F4A4F420050524F475223
:101C7000455353004155544F5245504F52545F54B1
:101C8000454D50004155544F5245504F52545F50AE
:101C90004F5300564F4C554D45545249430045450E
:101CA00050524F4D0042494E4152595F46494C45B2
:101CB0005F5452414E534645520053455249414CA0
:101CC0005F584F4E5F584F4646004649524D574168
:101CD00052455F4E414D453A4D61726C696E202010
:101CE0004649524D574152455F56455253494F4E12
:101CF0003A322E312E332E302E343720455854525E
:101D0000554445525F545950453A47616C61787962
:101D1000205365726965732050524F42455F545994
:101D200050453A436F6E64756374697665205761F8
:101D300073686572734245445F545950453A205365
:101D400054414E4441524420284A756E203330207D
:101D5000323032352031313A30313A30392920535E
:101D60004F555243455F434F44455F55524C3A6788
:101D700069746875622E636F6D2F4D61726C696E48
:101D80004669726D776172652F4D61726C696E2064
:101D900050524F544F434F4C5F56455253494F4E4C
:101DA0003A312E30204D414348494E455F545950F9
:101DB000453A4C756C7A426F7420576F726B686F3E
:101DC000727365204B494E454D41544943533A4344
:101DD000617274657369616E20455854525544456B
:101DE000525F434F554E543A3120555549443A3588
:101DF000656537393866622D343036322D346433B8
:101E0000352D383232342D356538343666666234D5
:101E100035613500626567696E004D302053746F1F
:101E200070004D312053746F7000436C69636B20F8
:101E3000746F20526573756D652E2E2E0047322FFC
:101E400047332062616420706172616D65746572F0
:101E5000730A005A2050726F6265205061737420BB
:101E600042656400205A3A0020593A0042656420D5
:101E7000583A00203B0020204D3835312058302082
:101E80005930205A005A2D50726F6265204F666695
:101E9000736574002569730025696D2025697300D9
:101EA0002569682025696D202569730025696420EE
:101EB0002569682025696D202569730025697920C9
:101EC000256964202569682025696D2025697300CE
:101ED0000A53746174733A2046696C616D656E745F
:101EE00020757365643A20002C204C6F6E67657313
:101EF00074206A6F623A2000546F74616C207469B8
:101F00006D653A200053746174733A20002C2046AA
:101F100061696C65643A20002C2046696E697368BB
:101F200065643A20005072696E74733A20005374ED
:101F30006174733A200045312025530020573A0040
:101F400042656420436F6F6C696E672E2E2E0042CF
:101F500065642048656174696E672E2E2E002066C8
:101F600061696C6564212042616420686561746503
:101F7000722069640A00504944204175746F747579
:101F80006E650023646566696E652044454641556B
:101F90004C545F0000626564004B6420004B692074
:101FA000004B7020005049442074756E696E6720A4
:101FB000646F6E65002066696E69736865642120D0
:101FC00050757420746865206C617374204B702C9C
:101FD000204B6920616E64204B6420636F6E7374C4
:101FE000616E74732066726F6D2062656C6F77200E
:101FF000696E746F20436F6E66696775726174698C
:102000006F6E2E680A00504944204175746F7475D4
:102010006E6500206661696C6564212074696D6578
:102020006F75740A00504944204175746F74756E61
:1020300065004175746F74756E65206661696C65C5
:1020400064212054696D656F75742E002066616986
:102050006C6564212054656D70657261747572657C
:1020600020746F6F20686967680A005049442041F6
:1020700075746F74756E6500504944204379636CC4
:1020800065730025532025692F256900204B643A8C
:102090002000204B693A2000204B703A2000204E4F
:1020A0006F206F76657273686F6F740A00205475C5
:1020B0003A2000204B753A2000206D61783A2000CC
:1020C000206D696E3A200020643A20002062696128
:1020D000733A200048656174696E672E2E2E0020C9
:1020E00073746172740A00504944204175746F74AE
:1020F000756E65004175746F74756E6520666169F3
:102100006C6564212054656D7065726174757265CB
:1021100020746F6F20686967682E00206661696CA3
:102120006564212054656D706572617475726520F7
:10213000746F6F20686967680A00504944204175D0
:10214000746F74756E6500504944204175746F74E6
:10215000756E6500706F7765725F66616E323535DA
:102160002000706F7765725F66616E3020003D3DC4
:102170003D3D3D0A004D50435F6175746F74756E4F
:1021800065723A3A6D6561737572655F7472616EFE
:1021900073666572282920436F6D706C6574656481
:1021A0000A0054656D7065726174757265206572A0
:1021B000726F720A00207433200020743220007481
:1021C000312000203A200073616D706C652000732F
:1021D000616D706C655F64697374616E6365200026
:1021E00073616D706C655F636F756E742000743120
:1021F0005F74696D6520003D3D3D3D3D0A004D50D9
:10220000435F6175746F74756E65723A3A6D65619E
:10221000737572655F686561747570282920436FF6
:102220006D706C657465640A00616D6269656E74D9
:102230005F74656D7020003D3D3D3D3D0A004D5091
:10224000435F6175746F74756E65723A3A6D65615E
:10225000737572655F616D6269656E745F74656DDB
:1022600070282920436F6D706C657465640A004D99
:1022700050435F414D4249454E545F584645525F79
:10228000434F4546465F46414E32353520004D505E
:10229000435F414D4249454E545F584645525F4366
:1022A0004F45464620004D50435F53454E534F52D5
:1022B0005F524553504F4E534956454E4553532058
:1022C000004D50435F424C4F434B5F484541545F84
:1022D000434150414349545920004D5043204175DA
:1022E000746F74756E652066696E697368656421C4
:1022F000205075742074686520636F6E7374616E0E
:1023000074732062656C6F7720696E746F20436F01
:102310006E66696775726174696F6E2E680A006215
:102320006C6F636B5F726573706F6E736976656EE9
:1023300065737320006173796D705F74656D7020D3
:1023400000526566696E696E6720657374696D61B8
:1023500074657320666F723A0A0054657374696E0F
:10236000672068656174206C6F7373004D656173DD
:102370007572696E6720616D6269656E742068654B
:1023800061746C6F73732061742000626C6F636B97
:102390005F726573706F6E736976656E65737320B7
:1023A000006173796D705F74656D702000486561C0
:1023B00074696E6720746F203E3230304300486588
:1023C0006174696E6720746F206F76657220323099
:1023D00030430A00436F6F6C696E672E2E2E0043E8
:1023E0006F6F6C696E6720746F20616D6269656ED6
:1023F000740A004D5043204175746F74756E6520EA
:10240000737461727420666F722045004D504320D2
:102410004175746F74756E65002048002046002079
:10242000410020520020430020500020204D333036
:10243000362045004D6F64656C2070726564696379
:102440007469766520636F6E74726F6C002054003F
:1024500020530020450020204D3836204200486F90
:1024600074656E642049646C652054696D656F7590
:1024700074004572723A207574663820666F6E7407
:10248000206E6F7420696E697469616C697A656425
:102490002E004572723A207574663820666F6E742D
:1024A000206E6F7420696E697469616C697A656405
:1024B0002E004572723A207574663820666F6E740D
:1024C000206E6F7420696E697469616C697A6564E5
:1024D0002E006D61726C696E66772E6F72670032C6
:1024E0002E312E332E302E3437001FFFFFFFFFFF1B
:1024F000FF600000000001FF400000000000FF80BE
:1025000000000000007F83CF00000C303F87FF8079
:10251000000C301F867980000C000F8C30C7838C34
:1025200030E78C30CFC7CC31F38C30DCECEC33B9F6
:102530008C30D86C6C33198C30D06C0C33198C30D7
:10254000D86C0C33198C30DC6C0E3B198C30CF7C82
:10255000079F198C30C77C038F19400000000000D2
:1025600002600000000000061FFFFFFFFFFFF820D1
:102570000020003A00200020003A003A00000C0F32
:1025800000FE07022503BB017FFE08FE08FE0508CA
:102590000806000040F0C8888898781005080806EA
:1025A0000000C0F88888888888F8050505060001BD
:1025B0002030F830200508080600002070F82020A0
:1025C0002020E00509090600FF2070A8A8B8888827
:1025D0007020070505070001D86C366CD80509097D
:1025E0000600FFF8A88888888888A8F8050A0A06DF
:1025F00000FE205050505088A8A88870030303069E
:10260000000340A040FFFFFFFFFFFFFFFFFFFFFFB2
:10261000FFFFFFFFFFFFFFFFFFFFFF0000000605BA
:10262000FF0107070602008080808080008003038E
:1026300003060105A0A0A005060606000050F850FC
:1026400050F8500509090600FF2070A8A07028A8BE
:102650007020050707060000C8C81020409898059C
:10266000070706000040A0A040A8906801030306E9
:1026700002058080800309090601FF204040808018
:10268000804040200309090601FF804040202020AF
:1026900040408005070706000020A8702070A82091
:1026A0000505050600012020F8202002030306018D
:1026B000FFC04080050101060003F8020202060186
:1026C00000C0C00507070600000810102040408029
:1026D000050707060000708898A8C88870030707D8
:1026E00006010040C040404040E0050707060000EA
:1026F000708808102040F8050707060000F8081049
:102700003008887005070706000010305090F81058
:1027100010050707060000F880F008088870050714
:1027200007060000304080F0888870050707060023
:1027300000F8081010202020050707060000708808
:1027400088708888700507070600007088887808F8
:102750001060020505060100C0C000C0C0020606E8
:102760000601FFC0C000C04080030505060101202E
:1027700040804020050303060002F800F803050529
:102780000601018040204080050707060000708890
:1027900010202000200507070600007088B8A8B8A0
:1027A0008070050707060000708888F8888888050B
:1027B0000707060000F04848704848F0050707067C
:1027C000000070888080808870050707060000F090
:1027D0004848484848F0050707060000F88080F0A0
:1027E0008080F8050707060000F88080F080808070
:1027F0000507070600007088808098887005070725
:10280000060000888888F888888803070706010082
:10281000E04040404040E005070706000038101047
:10282000101090600507070600008890A0C0A090D7
:1028300088050707060000808080808080F80507F3
:102840000706000088D8A88888888805070706003A
:10285000008888C8A898888805070706000070883F
:102860008888888870050707060000F08888F0804F
:10287000808005070706000070888888A890680592
:102880000707060000F08888F0A090880507070673
:10289000000070888070088870050707060000F83F
:1028A000202020202020050707060000888888882F
:1028B000888870050707060000888888885050209F
:1028C00005070706000088888888A8A8500507071C
:1028D00006000088885020508888050707060000F9
:1028E00088885020202020050707060000F80810DF
:1028F000204080F80309090601FFE0808080808085
:102900008080E00507070600008040402010100886
:102910000309090601FFE020202020202020E005F7
:1029200003030600052050880501010600FEF80398
:102930000303060105804020050505060000700818
:102940007888780507070600008080F0888888F07E
:1029500005050506000070808088700507070600E1
:1029600000080878888888780505050600007088C2
:10297000F08070050707060000304840E040404006
:102980000507070600FE7088888878087005070725
:102990000600008080F08888888803070706010009
:1029A0004000C0404040E00409090601FE1000302C
:1029B00010101010906005070706000080808890B6
:1029C000E09088030707060100C04040404040E017
:1029D000050505060000D0A8A8A8A805050506005D
:1029E00000B0C888888805050506000070888888BA
:1029F000700507070600FEF0888888F080800507CC
:102A0000070600FE7888888878080805050506000E
:102A100000B0C88080800505050600007880700839
:102A2000F00507070600002020F8202020180505E3
:102A30000506000088888898680505050600008856
:102A4000888850200505050600008888A8A850053C
:102A5000050506000088502050880507070600FE7F
:102A600088888850204080050505060000F8102061
:102A700040F80309090601FF2040404080404040E3
:102A8000200109090602FF8080808080808080808C
:102A90000309090601FF8040404020404040800576
:102AA000030306000248A890FF554E4C4F414420B6
:102AB00046494C414D454E54004C4F4144204649F7
:102AC0004C414D454E540046494C414D454E5420D5
:102AD0004348414E47450042656400456E636C6F54
:102AE0007375726500200020002000200020002562
:102AF00000657272001FE0201020102010102010BE
:102B0000202010201030300840048003001FE03FD8
:102B1000F03FF03FF01FE01FE03FF03FF03FF00FCD
:102B2000C0078003003FFFF83E00F839F03831E07D
:102B30001831E01821E1E820F3E8207FE82077E869
:102B400028EE282FDC082FFC082F9E082F0F0830B6
:102B50000F18300F18381F383E00F83FFFF83FFFBE
:102B6000F83E00F8383F38307E18307C18287C0852
:102B70002C38082F39C82FFFE82FC7E82FFFE82788
:102B800039E8203868207C28307C1830FC1839F867
:102B9000383E00F83FFFF83FFFF83E00F8380F38A6
:102BA000341FD8361F982F1F082F9E082FFC082F80
:102BB000DC0827EFC82077E8207FE820F3E821F140
:102BC000E833F0D837F05839E0383E00F83FFFF8E6
:102BD0003FFFF83E80F83980383781D837C3D8278F
:102BE000C7E823C7F821FF88206C08206C08206CF8
:102BF0000823FF083FC7882FC7C83787D83703D8AF
:102C00003803383E02F83FFFF80222000444000473
:102C10004400022200011100FFFFCE40A8A42111B0
:102C2000101FFFF808040424020273FFFFFFFFCE09
:102C30004020242010101FFFF8080404240202730F
:102C4000FFFFFFFFC0400020200010100008080018
:102C50000404000203FFFF022200044400044400B5
:102C6000022200011100FFFFC04088A021111012B4
:102C7000220808000404000203FFFF63616E63651D
:102C80006C005072696E742041626F7274656400EA
:102C900055492041626F72746564004D3235205091
:102CA0000A4D323400526573756D650055492050E8
:102CB000617573650050617573696E672E2E2E0005
:102CC000726573756D65005072696E74205265731C
:102CD000756D6564004D3234006F6F6F0000004702
:102CE000414D45204F56455200107CFEFEFE4440AB
:102CF00024800000318000002480444004000E0045
:102D00000E007FC0FFE0FFE0FFE0FFE01FC07FF0AC
:102D1000DDD8FFF87FF006000F001F8036C03FC0EF
:102D200009001680294006000F001F8036C03FC0F2
:102D3000168020401080104008801FC037607FF050
:102D40005FD050500D80104048905FD077707FF07A
:102D50001FC0104020200F007FE0FFF0E670FFF062
:102D6000198036C0C0300F007FE0FFF0E670FFF042
:102D7000198036C0198000FE0003FF8007C7C00716
:102D800001E00000E00000F00000700400700E00A0
:102D9000701F00703F80F00E00E00F01E007C7C019
:102DA00003FF8000FE0000FE0003FF8007C7C00F86
:102DB00001E00E00E03F80F01F00700E0070040084
:102DC000700000700000F00000E00701E007C7C0DD
:102DD00003FF8000FE000E000E000E000E000E002D
:102DE0000E000E000E007FC03F801F000E0004008A
:102DF00004000E001F003F807FC00E000E000E007A
:102E00000E000E000E000E000E00FFFFFF7F80FF81
:102E1000C0FFC0FFC07F807F80FFC0FFC0FFC03FFA
:102E2000001E000C0050726F6265205A204F6666CB
:102E3000736574004D3530300A4D313137205A20DA
:102E40004F6666736574205361766564004C6F61EC
:102E500064206D6D00556E6C6F6164206D6D004671
:102E6000696C2E204469612E004F6666004F6E002B
:102E70004520696E206D6D5E3300416476616E633E
:102E800065204B004D3330332055312045256920D6
:102E9000532569004D3330362054004175746F74EA
:102EA000756E65202A20504944005049442D442025
:102EB0002A005049442D49202A005049442D5020D1
:102EC0002A004D5043204175746F74756E6500463D
:102ED000616E20636F6566662E202A00416D62690F
:102EE000656E7420436F2E202A0053656E736F72D7
:102EF00020526573702E202A00486561742043615A
:102F0000702E202A00506F776572202A002008203A
:102F100046616374002008204D6178002008204D30
:102F2000696E004D696E2054726176656C20537035
:102F3000656564004D696E2056656C6F63697479D0
:102F4000004D61782040205370656564004D6178C4
:102F5000204520416363656C004D6178204020412D
:102F60006363656C0054726176656C2041636365D0
:102F70006C005265747261637420416363656C0018
:102F8000416363656C004D61782040204A65726B37
:102F9000004D3530300A4D313137205A204F6666AA
:102FA0007365742053617665640050726F626520AA
:102FB0005A204F66667365740040207374657073A1
:102FC0002F6D6D00416476616E6365642053657496
:102FD00074696E6773003F0043616E63656C0049FE
:102FE0006E6974004D34323800496E697469616CE1
:102FF000697A6520454550524F4D0046696C616DB8
:10300000656E740054656D706572617475726500EB
:103010004261636B6C6173680053746570732F6DEC
:103020006D0050726F6265204F6666736574730041
:103030004A65726B00416363656C65726174696FA8
:103040006E004D617820537065656420286D6D2F8A
:1030500073290053657420486F6D65204F66667351
:1030600065747300436F6E66696775726174696F2A
:103070006E00536D6F6F7468696E67004000436F38
:103080007272656374696F6E004D61696E204D6583
:103090006E75003F0043616E63656C204F626A6528
:1030A0006374004E4F005945530043616E63656C75
:1030B000204F626A656374207B004D61696E204D0C
:1030C000656E75004265642049646C652054656DC9
:1030D00070004E6F7A7A6C652049646C6520546587
:1030E0006D700054656D7065726174757265005421
:1030F000696D656F75740044697361626C65205415
:10310000696D656F7574004D3837004261636B00FF
:1031100049646C6520506572696F6400416374692D
:103120007665205370656564004175746F204D6F3E
:1031300064650049646C6520537065656400556E74
:1031400072657472616374205600556E7265747294
:103150002E206D6D00486F70206D6D005265747289
:1031600061637420560052657472616374206D6DE2
:10317000004175746F2D526574726163740042650D
:1031800064004E6F7A7A6C650046616E20537065FC
:10319000656400436F6E66696775726174696F6E0E
:1031A00000526573746F72652044656661756C7456
:1031B00073004C6F61642053657474696E677300AB
:1031C00053746F72652053657474696E6773005031
:1031D000726568656174202420436F6E66004F66D7
:1031E00066004F6E0052756E6F75742053656E7376
:1031F0006F72005265747261637400486F74656E1B
:10320000642049646C652054696D656F7574004372
:103210006F6E74726F6C6C65722046616E005072D6
:103220006F6265205A204F6666736574004164764C
:10323000616E6365642053657474696E6773004DD5
:1032400061696E204D656E75004D37303220542512
:1032500064004D36303020423020542564004D3714
:103260003032203B2564004D373031205425640036
:103270004D373032004D373031004D36303020423E
:1032800030004D61696E204D656E7500436F6E7440
:10329000696E7565004F6666004F6E0052756E6F01
:1032A00075742053656E736F720050757267652078
:1032B0006D6F726500524553554D45204F5054492E
:1032C0004F4E533A005052494E54205041555345A9
:1032D00044002F00200020204E6F7A7A6C653A203F
:1032E0000020286D6D2900203B204C6576656C69B7
:1032F0006E67200020204D34323020530041757419
:103300006F20426564204C6576656C696E670020AD
:10331000460020480020204D3134352053004D61B7
:1033200074657269616C2068656174757020706184
:1033300072616D6574657273005265747261637455
:103340002028533C6C656E6774683E20463C666579
:103350006564726174653E205A3C6C6966743E29EE
:10336000005265636F7665722028533C6C656E670A
:1033700074683E20463C66656564726174653E29EA
:10338000004175746F2D5265747261637420285307
:103390003C656E61626C653E290020204D393030FD
:1033A000204B004C696E65617220416476616E63EA
:1033B000650020580020530020204D34323520462F
:1033C000004261636B6C61736820636F6D70656E42
:1033D000736174696F6E00203B2053656E736F726A
:1033E000200020204D34313220530046696C616D3D
:1033F000656E742072756E6F75742073656E736F71
:103400007200204A002020473239205720490020EE
:10341000204D3134392043203B20556E6974732090
:10342000696E2043656C736975730A0054656D702D
:103430006572617475726520556E69747300202021
:10344000473231203B004C696E65617220556E69D0
:10345000747300454550524F4D2064617461736927
:103460007A65206572726F722E0A004572723A2078
:10347000454550524F4D2043524300202863616C14
:1034800063756C6174656429210A0020213D200068
:10349000454550524F4D20435243206D69736D6135
:1034A000746368202D202873746F7265642920006E
:1034B000454550524F4D20436F72727570740A002B
:1034C0002053697A653A2000496E6465783A200095
:1034D00053746F7265642073657474696E677320CA
:1034E00072657472696576656400290A00206279E4
:1034F0007465733B2063726320002073746F726580
:10350000642073657474696E677320726574726980
:103510006576656420280044494749504F5453203C
:103520004C6F616465640A0044494749504F5453E5
:10353000204C6F6164696E670A000000FA43000066
:10354000FA430000C841000020420000C8420000C9
:10355000C8420000FA430080DB43A00F0000A00F28
:1035600000006400000028230000204D61726C6997
:103570006E3D563931290A00454550524F4D20764F
:10358000657273696F6E206D69736D617463682015
:1035900028454550524F4D3D0024F4D43050C38D42
:1035A00020C3A24117828B7011127A900D826CDABF
:1035B0000AA861E108C7586607615142061F4B5EC1
:1035C00005C145A6041B411204093D970372393118
:1035D000034136DB0266339202D4305302812E1D42
:1035E00002642CEE01762AC501B128A101102781C1
:1035F000018F2564012B244A01E1223401AD2120F1
:10360000018D200C01811FFC00851EED00981DDF3F
:1036100000B91CD200E71BC700201BBB00651AB213
:1036200000B319A9000A19A0006A189800D21792CD
:103630000040178A00B616840032167E00B4157951
:10364000003B157400C7146F0058146A00EE13662F
:10365000008813620026135E00C8125B006D1257CB
:103660000016125500C111510070114E0022114C6C
:1036700000D61049008D1046004710450002104248
:1036800000C00F4000800F3E00420F3C00060F3A82
:1036900000CC0E3900930E37005C0E3500270E3437
:1036A00000F30D3200C10D3100900D2F00610D2F80
:1036B00000320D2D00050D2C00D90C2A00AF0C2A6C
:1036C00000850C28005D0C2800350C27000E0C2509
:1036D00000E90B2500C40B2400A00B23007D0B2266
:1036E000005B0B21003A0B2100190B2000F90A1F87
:1036F00000DA0A1F00BB0A1E009D0A1D00800A1C7A
:1037000000640A1C00480A1C002C0A1B00110A1A3B
:1037100000F7091A00DD091900C4091900AB0918DE
:1037200000930918007B091700640917004D091759
:103730000036091600200915000B091500F60815BA
:1037400000E1081500CC081400B8081400A4081300
:1037500000910813007E0813006B0812005908122C
:103760000047081200350812002308110012081142
:103770000001081000F1071100E0071000D0071049
:1037800000C0070F00B1071000A1070F0092070F3C
:103790000083070F0074070E0066070E0058070E1F
:1037A000004A070E003C070E002E070D0021070DF2
:1037B0000014070D0007070D00FA060D00ED060CBA
:1037C00000E1060D00D4060C00C8060C00BC060C77
:1037D00000B0060B00A5060C0099060B008E060B28
:1037E0000083060B0078060B006D060B0062060BCB
:1037F0000057060A004D060A0043060B0038060A69
:10380000002E060A00240609001B060A0011060AFB
:103810000007060900FE050A00F4050900EB05098A
:1038200000E2050900D9050900D0050900C705080F
:1038300000BF050900B6050900AD050800A505088B
:10384000009D050800950509008C05080084050801
:10385000007C050700750508006D05080065050773
:10386000005E050800560507004F050800470507DC
:10387000004005070039050700320507002B050742
:1038800000240507001D050700160507000F0506A3
:10389000000905070002050600FC040700F5040600
:1038A00000EF040700E8040600E2040600DC04065A
:1038B00000D6040600D0040700C9040500C40406AD
:1038C00000BE040600B8040600B2040600AC0406FC
:1038D00000A6040500A10406009B0405009604064A
:1038E00000900405008B0406008504050080040593
:1038F000007B04050076040600700405006B0405D7
:103900000066040500610405005C04050057040519
:1039100000520405004D0405004804040044040559
:10392000003F0405003A0404003604050031040594
:10393000002C04040028040500230404001F0405CF
:10394000001A04040016040400120405000D040407
:1039500000090404000504040001040500FC03043C
:1039600000F8030400F4030400F0030400EC030473
:1039700000E8030400E4030400E0030400DC0304A3
:1039800000D8030400D4030300D1030400CD0304D2
:1039900000C9030400C5030400000000000000008B
:1039A0000000000000000000000000000000000017
:1039B00000D1036D6403570D0347C6023B8B0232EF
:1039C00059022B2E0225090221E8011CCC011AB252
:1039D00001179B011487011374011163010F540136
:1039E0000E46010D39010D2C010B21010A17010AA8
:1039F0000D0109040108FC0008F40007ED0007E6CA
:103A00000007DF0006D90006D30005CE0006C80077
:103A100005C30004BF0005BA0004B60004B20004E8
:103A2000AE0004AA0004A60003A300049F00039CA8
:103A300000039900039600039300029100038E0097
:103A4000028C0003890002870003840002820002C6
:103A50008000027E00027C00027A0002780002767A
:103A600000017500027300027100017000026E0017
:103A7000016D00026B00016A00026800016700022C
:103A80006500016400016300016200026000015FE3
:103A900000015E00015D00015C00015B00015A0055
:103AA000015900015800015700015600015500015D
:103AB0005400015300015200015100005100015017
:103AC00000014F00014E00014D00004D00014C006F
:103AD000014B00014A00004A000149000148000072
:103AE000480001470001460000460001450000452E
:103AF0000001440001430000430001420000420075
:103B0000014100004100014000004000013F000071
:103B10003F00013E00003E00013D00003D00013C31
:103B200000003C00013B00003B00013A00003A006D
:103B30000139000039000039000138000038000167
:103B4000370000370000370001360000360000362D
:103B5000000135000035000134000034000034005D
:103B60000133000033000033000132000032000056
:103B7000320001310000310000310000310001301D
:103B800000003000003000012F00002F00002F0047
:103B9000002F00012E00002E00002E00012D00003D
:103BA0002D00002D00002D00012C00002C00002C09
:103BB00000002C00012B00002B00002B00002B002C
:103BC000012A00002A00002A00002A00002A000121
:103BD00029000029000029000029000128000028F0
:103BE000000028000028000028000127000027000E
:103BF0000027000027000027000126000026000003
:103C000026000026000026000026000125000025D1
:103C100000002500002500002500002500012400EB
:103C200000240000240000240000240000240001DF
:103C300023000023000023000023000023000023B2
:103C400000012200002200002200002200002200C9
:103C500000220000220001210000210000210000BC
:103C6000210000210000210000210001200000208F
:103C700000002000002000002000002000002000A4
:103C8000002000011F00001F00001F00001F000097
:103C90001F00001F00001F000020436F756E74207E
:103CA000583A004D6963726F737465707320756E56
:103CB000617661696C61626C650A002045303A008A
:103CC000205A3A0020593A0020583A004D53317C8E
:103CD000327C332050696E73004D5043204175741F
:103CE0006F74756E6520696E746572727570746537
:103CF00064210A0042656400453100626564002C5D
:103D00002073797374656D2073746F7070656421AE
:103D1000204865617465725F49443A2000457272BB
:103D20003A204D415854454D50004D415854454D51
:103D300050207472696767657265640048656174D4
:103D4000696E67204661696C6564004865617469E5
:103D50006E67206661696C6564004D353234004DD4
:103D60003131322053687574646F776E001000AD86
:103D70000330016A0150022B0170030A019004F51F
:103D800000B005E500D006D800F007CE001009C548
:103D900000300ABE00500BB700700CB100900DABA4
:103DA00000B00EA600D00FA200F0109D00101299D6
:103DB00000301395005014920070158E0090168BF1
:103DC00000B0178700D0188400F0198100101B7E06
:103DD00000301C7B00501D7900701E7600901F7310
:103DE00000B0207000D0216E00F0226B001024691A
:103DF0000030256600502663007027610090285E21
:103E000000B0295C00D02A5900F02B5600102D5428
:103E100000302E5100502F4E0070304B0090314832
:103E200000B0324500D0334200F0343E0010363B43
:103E300000303737005038330070392E00903A295F
:103E400000B03B2300D03C1B00F03D1100103F01AF
:103E500000F03F00004572723A204D494E54454DE6
:103E600050004D494E54454D502074726967676546
:103E700072656400544845524D414C2052554E41A4
:103E800057415900546865726D616C2052756E61BE
:103E900077617900202F0020403A0020573A007CBB
:103EA0003C3E5E2B3D3F2F5B5D3B2C2A225C00435A
:103EB000616E6E6F74206F70656E207375626469D9
:103EC0007220005761726E696E673A004D656469D1
:103ED0006120496E6974204661696C005344206317
:103EE000617264206F6B0A006F70656E526F6F7441
:103EF000206661696C65640A00766F6C756D652E6D
:103F0000696E6974206661696C65640A004E6F2091
:103F1000534420636172640A0053442063617264F5
:103F20002072656C65617365640A000A4D32340065
:103F30004D3233202573002E0A006F70656E2066A7
:103F400061696C65642C2046696C653A200046699D
:103F50006C652073656C65637465640A0020536941
:103F60007A653A200046696C65206F70656E6564FD
:103F70003A2000454E4420535542524F5554494E25
:103F8000450A002220706F73002220706172656EF6
:103F9000743A2200535542524F5554494E452043DE
:103FA000414C4C207461726765743A22005375620B
:103FB00063616C6C204F766572666C6F7700457834
:103FC000636565646564206D617820535542524F86
:103FD0005554494E452064657074683A00577269BB
:103FE00074696E6720746F2066696C653A20004EB4
:103FF0006F74205344207072696E74696E670A0092
:104000005344207072696E74696E672062797465BA
:104010002000667265736800646F696E67002066D1
:10402000696C653A20004E6F7720002F6175746FC0
:1040300025632E6700000000000000000000000063
:104040000000000000000000000000000000000070
:10405000000000000000000400000000000000005C
:10406000000E0000000000000000000E0000000034
:1040700000000000001F0000000000000000003BE6
:10408000000000000000000000318000000000007F
:1040900000000071C0000000000000000060C000CF
:1040A00000000000000000E0E00000000000000050
:1040B00000C0700000000000000001C0700000009F
:1040C0000000000003803800000000000000030032
:1040D000180000000000000007FFFC0000000000C6
:1040E00000000FFFFC000000000000000FFFFE00BA
:1040F0000000000000001C0007000000000000009D
:1041000038000700000000000000380303800000B2
:1041100000000000300F8180000000000000660CED
:1041200081C0000000000000EF0D8CC00000000006
:104130000000E9871EE0000000000001CF839270BC
:1041400000000000000387819E7000000000000353
:1041500081B9B83800000000000301FFB01800006A
:104160000000000600FFF01C00000000000E30FF01
:10417000E00C00000000000E78FFFC0E00000000C4
:10418000001CCCFFFFC70000000000387CFFF76771
:104190000000000000383FFFE323800000000070B3
:1041A00007FFF3E1800000000070007FF181C00094
:1041B000000000F01FFFF003E000000000F83FDC0B
:1041C0003003E000000001DC6418380770000000D4
:1041D000039C6C183C0F30000000038E381C360E18
:1041E000380000000707000E360C18000000060714
:1041F000001E1C1C1C0000000E03001208380E00DC
:1042000000000C03801E0038060000001801C00CDE
:104210000070070000003800C00000F0030000003C
:104220003FFFFFFFFFFFFF8000007FFFFFFFFFFF5B
:10423000FFC00000000000000000000000000000BF
:1042400000000000000000006066607E7E1F1F808E
:1042500000006066607E7F3F9F8000006066600EA9
:104260006331860000006066601C7F3186000000BC
:10427000606660387F318600000060666070633180
:10428000860000007E7E7E7E7F3F860000007E3CB2
:104290007E7E7E1F0600000000000000000000007F
:1042A000000000000000000000000000000000000E
:1042B00000000000002020506C616E6E6572427537
:1042C0006666657242797465733A200020467265AD
:1042D00065204D656D6F72793A200020436F6D70D7
:1042E000696C65643A204A756E2033302032303272
:1042F000350A00204C6173742055706461746564E4
:104300003A20323032342D30372D3032207C20416B
:104310007574686F723A204C756C7A426F740A003B
:104320004D61726C696E20322E312E332E302E3458
:10433000370A0020536F6674776172652052657387
:1043400065740A00205761746368646F6720526562
:104350007365740A002042726F776E206F75742047
:1043600052657365740A002045787465726E616CDD
:104370002052657365740A00506F77657255700A34
:104380000073746172740A0047302059333038204A
:104390005A3239372046323530300A004D3130300C
:1043A00031006572726F722077726974696E67206E
:1043B000746F2066696C650A00446F6E65207361D6
:1043C00076696E672066696C652E0A004D32390089
:1043D000456E6473746F7073002553202563202528
:1043E0006320256320256300205A3A0020593A00B3
:1043F00020583A00656E6473746F70732068697436
:104400003A20005061726B696E672E2E2E000000FC
:104410005761697420666F720066696C616D656EC4
:1044200074206368616E676500746F2073746172D5
:1044300074005761697420666F720066696C616D03
:10444000656E7420756E6C6F616400004E6F7A7AD1
:104450006C652068656174696E6700506C65617396
:104460006520776169742E2E2E000050726573737B
:1044700020627574746F6E00746F206865617420BB
:104480006E6F7A7A6C650000496E7365727420668F
:10449000696C616D656E7400616E64207072657325
:1044A0007320627574746F6E00746F20636F6E7426
:1044B000696E7565005761697420666F7200666980
:1044C0006C616D656E74206C6F6164000050726584
:1044D000737320427574746F6E00746F207265730D
:1044E000756D65207072696E740000576169742083
:1044F000666F72207072696E7400746F20726573DB
:10450000756D652E2E2E00005761697420666F72DE
:104510000066696C616D656E742070757267650008
:1045200000536E346B3300496E76616465727300BC
:10453000427269636B6F75740041626F75742050CD
:1045400072696E74657200256C642E25696D004574
:104550007874727564656420546F74616C004C6F7C
:104560006E67657374204A6F622054696D650050F0
:1045700072696E742054696D6500436F6D706C656F
:10458000746564003A20005072696E7420436F7540
:104590006E74003A200047616D6573005374617456
:1045A00073005072696E74657220496E666F004DBB
:1045B00061696E204D656E75004732384F0A47308D
:1045C00020583130302059323833205A32303000C0
:1045D0004D3839312054380A4D3932453431300A9A
:1045E0004D3330362041302E303632322043313593
:1045F0002E34342046302E3138343420503530209B
:1046000052302E313132380A4D393037204531336E
:10461000350A4D393030204B302E30350A4D35308B
:10462000300A4D313137204D45543137357C4E4BB2
:104630004C2D504C204252415353004D38393120BB
:1046400054390A4D3932453433390A4D3330362026
:1046500041302E30363232204331352E343420462C
:10466000302E31383434205035302052302E313114
:1046700032380A4D39303720453135350A4D393019
:1046800030204B302E30350A4D3530300A4D313127
:1046900037204D45543238357C4E4B4C2D504C20F4
:1046A0004252415353004D383931205431300A4D74
:1046B0003932453433390A4D3330362041302E30CB
:1046C000393336204333362E323932352046302EB8
:1046D0003137343420503130302052302E313134A3
:1046E000330A4D39303720453135350A4D393030B0
:1046F000204B302E30330A4D3530300A4D313137B2
:10470000204153543238357C474D20535445454C55
:10471000004153543238357C474D20535445454C65
:10472000004D45543238357C4E4B4C2D504C204278
:1047300052415353004D45543137357C4E4B4C2D2F
:10474000504C204252415353005061726B20666FAF
:10475000722054482053776170004D61696E204D7E
:10476000656E75003F004261636B0053746F7000AB
:104770004E6F204D656469610053656C65637420FC
:1047800066726F6D204D65646961004368616E6794
:1047900065204D65646961004D32310041626F757D
:1047A00074205072696E74657200546F6F6C20488B
:1047B00065616473202854482900436F6E666967F9
:1047C00075726174696F6E0054656D7065726174A5
:1047D000757265004368616E67652046696C616D3E
:1047E000656E74004D6F74696F6E0050726573650D
:1047F0006E742042656400473238204F0A473020EB
:1048000059333031204631303030300A473020596A
:10481000333036204631303030300A4D3131372098
:104820005072696E746572205265616479005265D8
:1048300073756D65205072696E740043616E6365B7
:104840006C204F626A6563740054756E6500537422
:104850006F70205072696E740050617573652050DE
:1048600072696E7400496E666F2053637265656E7F
:10487000003F005374617274205072696E7400437B
:10488000616E63656C005072696E740043616E6E98
:104890006F7420656E746572207375626469723A14
:1048A000200002202E2E004D61696E204D656E7530
:1048B000002100486F74656E6420746F6F20636F11
:1048C0006C64004261636B0050726F6365656400E5
:1048D0004D6F7665204578747275646572004D6F12
:1048E00074696F6E0044697361626C65205374650E
:1048F0007070657273004D3834004175746F2043D9
:10490000616C696272617465004D31313720537496
:10491000617274696E67204175746F2D43616C69B3
:1049200062726174696F6E0A4D31303420533137D1
:10493000300A4732380A4D31303920523137300A87
:104940004731320A4D3131372043616C69627261FF
:1049500074696E672E2E2E0A473432350A4D353073
:10496000300A4D37370A4D3131372043616C696267
:10497000726174696F6E2064617461207361766521
:1049800064004175746F205A2D416C69676E004751
:104990003238205A0A4D3138205A0A4734205033D1
:1049A00030300A473238205A004F6666004F6E009A
:1049B000426564204C6576656C696E67004C65766F
:1049C000656C20426564004732394E004175746F52
:1049D0002D5061726B00473238204F0A4732370042
:1049E0004732385A004732385900486F6D652040C9
:1049F0000047323858004175746F20486F6D65006C
:104A0000473238004D61696E204D656E75005072F9
:104A10006568656174202420426564005072656891
:104A2000656174202420456E640054656D70657264
:104A3000617475726500436F6F6C646F776E0050C0
:104A400072656865617420240046616E205370654C
:104A50006564207E00426564004E6F7A7A6C650062
:104A60004D61696E204D656E750050726F626520F4
:104A70005A204F666673657400416476616E6365A3
:104A8000204B00466C6F77726174650046616E2042
:104A90005370656564207E00426564004E6F7A7ACB
:104AA0006C65005370656564004D61696E204D65ED
:104AB0006E7500486F6D696E67204661696C65644C
:104AC000006F70656E005452494747455245440097
:104AD0003A200066696C616D656E74005A204D6104
:104AE00078005A204D696E0059204D696E0058209B
:104AF0004D696E005265706F7274696E6720656EE5
:104B00006473746F70207374617475730A00203A53
:104B10002073796E635F706C616E5F706F73697420
:104B2000696F6E0A00202063757272656E745F7023
:104B30006F736974696F6E3D003E2000646F5F6241
:104B40006C6F636B696E675F6D6F76655F746F0026
:104B5000290A002C20002C2000646F5F626C6F63B8
:104B60006B696E675F6D6F76655F746F5F787928CC
:104B700000290A002C2000646F5F626C6F636B6910
:104B80006E675F6D6F76655F746F5F7A2800250AC8
:104B900000200072656D656D6265725F66656564B3
:104BA000726174655F7363616C696E675F6F66667F
:104BB0003A2066723D00250A002000726573746F0A
:104BC00072655F66656564726174655F616E645F7E
:104BD0007363616C696E673A2066723D0020746F82
:104BE0006F206C6F6E6720657874727573696F6E75
:104BF0002070726576656E7465640A0020636F6C60
:104C00006420657874727573696F6E207072657652
:104C1000656E7465640A005761726E696E673A204A
:104C2000486F6D696E672042756D702044697669C2
:104C3000736F72203C20310A00010204290A003CF3
:104C40003C3C207365745F617869735F69735F6171
:104C5000745F686F6D652800203A200A0020206389
:104C6000757272656E745F706F736974696F6E3D93
:104C7000005D203D20003E20686F6D655F6F6666B9
:104C80007365745B00000048C2000088C100809416
:104C900043290A003E3E3E207365745F6178697364
:104CA0005F69735F61745F686F6D652800290A0032
:104CB0003C3C3C20686F6D65617869732800203A40
:104CC000203E204146544552207365745F617869E7
:104CD000735F69735F61745F686F6D650A002020A0
:104CE00063757272656E745F706F736974696F6EED
:104CF0003D006D6D0A0052652D62756D703A2000A1
:104D0000486F6D696E67204661696C656400204577
:104D10006E6473746F703F0A0042616420006D6DB1
:104D20000A004D6F766520417761793A20006D6DFC
:104D30000A00486F6D6520466173743A20000000D8
:104D4000A0400000A04000000040290A003E3E3E76
:104D500020686F6D65617869732800206C696D69E2
:104D600074656420746F2000204D617820005072BB
:104D70006F62653A3A70726F62655F7370656369FE
:104D80006669635F616374696F6E00526169736520
:104D9000205A20746F2000206E6F5F7265747572E8
:104DA0006E3D006465706C6F793D00203A20507252
:104DB0006F62653A3A7365745F6465706C6F7965AC
:104DC000640A00202063757272656E745F706F7381
:104DD0006974696F6E3D00206D61783A00206D69DD
:104DE0006E3A004178697320000040914300009AB8
:104DF0004300809443000048C2000088C1000000C6
:104E0000C053657474696E6773205361766564215D
:104E100000290A002062797465733B206372632065
:104E20000053657474696E67732053746F726564A0
:104E300020280045525200454550524F4D20496EA2
:104E4000697469616C697A65640A004861726463B7
:104E50006F6465642044656661756C742053657485
:104E600074696E6773204C6F6164656400446967A0
:104E700069706F74205772697474656E0A00577296
:104E80006974696E672044696769706F740A0043CA
:104E90006F6C642050756C6C005450550041425347
:104EA00000504C410020583A001000C90210012C5B
:104EB000014001220170011801B0010E01F001044E
:104EC000015002FA00B002F0003003E600D003DC2B
:104ED000009004D2007005C800A006BE000008B40F
:104EE00000B009AA00D00BA000600E960060118CE3
:104EF000000015820020197800C01D6E00A02264F9
:104F000000B0275A00902C500000314600E0343C9D
:104F10000010383200903A2800603C1E00A03D147A
:104F200000803E0A00203F000000000A0B02090C2E
:104F30000D0E08070304010000000000000000003F
:104F40000000000000000000000000000000000061
:104F5000000000000012111000000000000000001E
:104F60000000000000000000000000000000003011
:104F70002E30323500302E3100312E30004D6F761C
:104F80006520246D6D003130000040AA430080A2EE
:104F900043008095434D6F76652041786973004DDD
:104FA0006F7665202A004D6F7665204000A14E9DEA
:104FB0004E994E8F4E4368616E67652046696C61FD
:104FC0006D656E7400556E6C6F61642046696C612E
:104FD0006D656E74004C6F61642046696C616D652F
:104FE0006E74005072656865617420437573746FE8
:104FF0006D00507265686561742024004261636BC6
:1050000000200053656C6563742066726F6D204DDF
:10501000656469610020002000000022002500284E
:10502000002B002E003100340002010000050108B1
:10503000010B0100002100240027002A002D003070
:1050400000330001010000040107010A0105050504
:1050500005070508080808020202020A0A080804EF
:10506000040404010101010101010103030303031D
:10507000030303040707070C0C0C0C0C0C0C0C02AC
:1050800002020206060606060606060B0B0B0B0BB3
:105090000B0B0B01021020200808102040102040AC
:1050A00080020102010804020101020408102040EC
:1050B000808040201008040201800402018040200A
:1050C0001008040201080402010102040810204033
:1050D00080010204081020408020746F6F206C6FE4
:1050E0006E6720657874727573696F6E2070726573
:1050F00076656E7465640A0020636F6C6420657861
:1051000074727573696F6E2070726576656E746502
:10511000640A0070726F6D70745F00626567696E1B
:105120000044697361626C6552756E6F75740050EE
:10513000757267654D6F72650050617573656400C7
:10514000436F6E74696E7565004C6F6164204669CB
:105150006C616D656E74205400496E7365727420C5
:1051600066696C616D656E7420616E642073656E36
:1051700064204D3130380A002F2F616374696F6EDF
:105180003A00726573756D6564004469736D697387
:105190007300526573756D696E6700290A005D2C96
:1051A000200020746F2000205B00646F5F7A5F63D3
:1051B0006C656172616E6365280020446973637277
:1051C0006570616E63793A00326E642050726F626E
:1051D00065205A3A00534C4F5700536C6F7720505C
:1051E000726F62653A0A003173742050726F6265A3
:1051F000205A3A00464153540050726F6265204C69
:105200006F7720506F696E743A200050726F62653C
:105210003A3A72756E5F7A5F70726F626500205AFB
:105220003A200020593A200042656420583A200074
:1052300050726F62696E67204661696C6564002018
:10524000706F696E740A002D72656C6174697665A1
:10525000004D6F766520746F2070726F6265004E2E
:105260006F7420526561636861626C650A00203A60
:10527000200A00202063757272656E745F706F7310
:105280006974696F6E3D005F72656C617469766503
:10529000290A002C20002C20002C20002C20002E7D
:1052A0002E2E280050726F62653A3A70726F6265F6
:1052B0005F61745F706F696E740050726F62653AFF
:1052C0003A70726F62655F646F776E5F746F5F7A5A
:1052D000006D6D290A005472696767657265642004
:1052E0006561726C79202861626F766520004E6F6F
:1052F00020747269676765722E0A002050726F62AF
:1053000065206661696C21202D20002C202E2E2E18
:10531000290A002C20003E207472795F746F5F7040
:10532000726F6265282E2E2E2C2000FFFF01290AA5
:10533000005D005B002C20002C20002E2E2E28006B
:10534000646F5F686F6D696E675F6D6F766500A5EE
:105350004EAC53A853A453204500205A00205900B6
:1053600020204D39322058005374657073207065C9
:105370007220756E697400220A00556E6B6E6F772D
:105380006E20636F6D6D616E643A202200204200D2
:105390002050006F6B00486F6D65202573204669B3
:1053A0007273740020453A00205A3A0020593A009E
:1053B000583A006F6B0A00526573656E643A2000BC
:1053C0005072696E74696E672E2E2E005072696E6F
:1053D00074205061757365640000A9018102112475
:1053E0001FBECFEFD1E2DEBFCDBF00E00CBF84B760
:1053F0008093BC1A14BE0FB6F894A89580916000F3
:10540000886180936000109260000FBE14E0A0E0FD
:10541000B2E0E4E1F7E403E00BBF02C007900D92B5
:10542000A838B107D9F72AE1A8E8B4E001C01D9275
:10543000AC3BB207E1F719E2CEEED9E200E006C0DC
:1054400021970109802FFE010F946F9ECD3ED10759
:1054500080E00807A9F70F946D890D9478A30C9448
:10546000000090E080E00895CF93DF93C091481250
:10547000D091491281E0CE31D105E4F020E030E056
:1054800040E05FE3609144127091451280914612B2
:10549000909147120F948B9E0F9431A06C1B7D0B43
:1054A00077FF03C071956195710981E063307105E3
:1054B0000CF080E0DF91CF910895CF93DF93DB0173
:1054C000F9019C919130C1F0943080F094509C93FC
:1054D0008830D1F480819181009771F00197918398
:1054E0008083480F591FEA01188206C08C3539F4B1
:1054F0009C5F9C93943041F4DF91CF9108958B335E
:1055000039F781E08C93F8CF20813181B9016F5F49
:105510007F4F71836083420F531FEA01888380812C
:1055200091818F3591056CF7E7CF0F931F9381E041
:105530000091311A1091321A2091331A3091341A95
:1055400040912D1A50912E1A60912F1A7091301A95
:10555000041715072607370708F480E01F910F91FD
:10556000089590E080E0089520911919833021F486
:1055700025FD0CC024FD0CC030E0A90102C05595EA
:1055800047958A95E2F7CA018170089581E00895F0
:1055900080E008958091940684FD0BC0809196066A
:1055A00087FD07C090919706937081E019F480E021
:1055B000089581E008950F931F93CF93DF93C82F31
:1055C000D0E0FE01EE0FFF1FE45BFD4F71836083AF
:1055D000CC0FDD1FCC0FDD1F8E0105581D4F072E90
:1055E000000C880B990B0F9499972AE037ED43E252
:1055F0005CE30F94F897C25ED64F288139814A81C7
:105600005B810F94F897F8016083718382839383A1
:10561000DF91CF911F910F9108959C018CE0E5E2FD
:10562000F3E0D90101900D928A95E1F798E0EDE160
:10563000F3E0D901A05CBF4F01900D929A95E1F77C
:1056400008952FEB280F2A3108F047C0E22FF0E031
:105650008091940690919506A0919606B091970638
:1056600004C0B695A795979587952A95D2F780FDA2
:1056700002C081700895E25DF94FE081EE2341F1AF
:105680008091D40A9091D50AE80FF92FF11D8081FD
:1056900090ED980F9A3030F08E3251F48181805322
:1056A0008A3098F4F0931D06E0931C0681E008957B
:1056B0008D3211F08B3249F4818190ED980F9A3040
:1056C00088F38E3211F48281EACFF0E0E0E0EACF95
:1056D00010921D0610921C06E9CF80E008950E94EA
:1056E000212B882341F081E020911C0630911D067A
:1056F000232B09F480E0089510924D0A85E08093F1
:10570000D3050895DF92EF92FF920F931F93CF93EB
:10571000DF93EC01D62E1CAD0BAD7C0184E0E80ECE
:10572000F11CE98DFA8DC7011995412F480F2D2DD8
:10573000602FC7010E9418F09BAD890F8BAF81E0ED
:1057400090E0DF91CF911F910F91FF90EF90DF904C
:105750000895CF93DF93C0914812D09149122097BA
:1057600029F16091441270914512809146129091F6
:1057700047120F9431A06E5F7F4F24976C177D07FF
:10578000ACF47093A5076093A4070F94267F605A2A
:1057900075418F4F9F4F6093A6077093A707809323
:1057A000A8079093A907DF91CF9108951092A607BB
:1057B0001092A7071092A8071092A907F4CFEF92B2
:1057C000FF920F931F93CF93DF93CDB7DEB764970C
:1057D0000FB6F894DEBF0FBECDBF7C01FB01608128
:1057E0007181828193818E010F5F1F4F248141E07F
:1057F0000F940992F70101900020E9F79F012150D1
:1058000031092E193F092E31310550F44FE150E096
:10581000421B530BBC01C701820F931F0F94D896F4
:10582000C70164960FB6F894DEBF0FBECDBFDF91FF
:10583000CF911F910F91FF90EF900895EF92FF92FB
:105840000F931F93CF93DF93CDB7DEB7A4970FB617
:10585000F894DEBF0FBECDBFF82E80931E028FE1FD
:105860008F1508F488C08091A606F81624F081E010
:105870008F0D8093A60681E090E00F2C02C0880F68
:10588000991F0A94E2F7092E000CAA0BBB0B40915A
:10589000A2065091A3066091A4067091A5068423E8
:1058A0009523A623B72321E0892B8A2B8B2B09F480
:1058B00020E020934C0AF7FC61C04FE150E06AE51C
:1058C0007BE08E010F5F1F4FC8010F948996F8018E
:1058D00001900020E9F7CF010197801B910B8E31D9
:1058E000910560F420E2F801E80FF91F20838D3163
:1058F000910521F08C0F9D1FFC0112828F2D0F2C22
:10590000000C990B9F93FF9285E594E09F938F93F2
:105910007E01F0E2EF0EF11CFF92EF920F9448A38C
:10592000F80101900020E9F7CF010197801B910B4E
:105930000F900F900F900F900F900F908E31910558
:1059400048F44FE150E0481B590BB701800F911FFD
:105950000F94D89660E0C8010F94C167A4960FB663
:10596000F894DEBF0FBECDBFDF91CF911F910F9195
:10597000FF90EF90089510924C0A9DCF0F94066708
:10598000EDCF63E00D9473700F931F93CF93DF936C
:1059900000D01F92CDB7DEB79C0107E81AE090E176
:1059A000E6E8F2E0D80101900D929A95E1F7F9014D
:1059B0002081318142815381F80160857185828522
:1059C00093850F948B9EF8016087718782879387F8
:1059D00080E090E0A8ECB1E489839A83AB83BC8338
:1059E000CE0101960F949F2D0F900F900F900F9066
:1059F000DF91CF911F910F9108958F929F92AF9257
:105A0000BF92CF92DF92EF92FF92CF93DF9300D0BD
:105A10001F92CDB7DEB79091740A981709F4B7C0FA
:105A20004091540A5091550A6091560A7091570A54
:105A300090E1E6E8F2E0A7E8BAE001900D929A95CD
:105A4000E1F7C090020BD090030BE090040BF090B4
:105A5000050BC982DA82EB82FC82882309F445C0F7
:105A600040932609509327096093280970932909C8
:105A700088E59AE00F949F2DC0902209D0902309C9
:105A8000E0902409F090250920E030E0A901C70149
:105A9000B6010F949297811124C080905C0A909077
:105AA0005D0AA0905E0AB0905F0A2AE037ED43E2FB
:105AB0005CE3C501B4010F9425A1181694F4A50167
:105AC0009401C701B6010F948B9E609322097093D5
:105AD00023098093240990932509CE0101960F9400
