:100000000C94B72B0C94F72B0C94F72B0C94F72B28
:100010000C94F72B0C94F72B0C94F72B0C94F72BD8
:100020000C94F72B0D940D8D0D940D8D0D940D8D5D
:100030000C94F72B0C94F72B0C94F72B0C94F72BB8
:100040000C94F72B0C94B07C0C94F72B0C94F72B9E
:100050000C94F72B0D947A5F0C94F72B0D941E8F54
:100060000C94F72B0D9411290D94DB280C94F72B8D
:100070000C94F72B0C94F72B0C94F72B0C94F72B78
:100080000D94681E0C94F72B0C94F72B0C94F72B03
:100090000C94F72B0C94F72B0C94F72B0C94F72B58
:1000A0000C94F72B0C94F72B0D943A1E0C94F72B11
:1000B0000C94F72B0C94F72B0C94F72B0C94F72B38
:1000C0000C94F72B0C94F72B0C94F72B0C94F72B28
:1000D0000C94F72B0C94F72B0C94F72B0C94F72B18
:1000E0000C94F72B084AD73B3BCE016E84BCBFFD76
:1000F000C12F3D6C74319ABD56833DDA3D00C77FF8
:1001000011BED9E4BB4C3E916BAAAABE0000008090
:100110003F05A84CCDB2D44EB93836A9020C50B91F
:10012000918688083CA6AAAA2ABE000000803F0744
:10013000634236B79BD8A71A39685618AEBAAB5582
:100140008C1D3CB7CC5763BD6DEDFD753EF6177247
:1001500031BF000000803F08000000BE9224491219
:100160003EABAAAA2ABECDCCCC4C3E00000080BE3D
:10017000ABAAAAAA3E00000000BF000000803F001A
:1001800000000000084178D3BB4387D1133D190E0E
:100190003CC3BD4282AD2B3E68EC8276BED98FE176
:1001A000A93E4C80EFFFBE01C4FF7F3F000000006E
:1001B00000000C94F1780D949D8D0D946B400C947F
:1001C0009BC20C94C5D60D941D050D94B5410C949D
:1001D00094C80C946C750D94621B0C9445C60C94D9
:1001E000CDD80C947EFC0D941A400C9496FC0C9483
:1001F000F7750C94CEC70C944BE40D9481290C94A4
:10020000FFC60C9445A30C9469F50C945ED70C942E
:10021000FAFC0C9478FC0C9482C30C94782C0D940A
:1002200052290C9401D90D94C0450C94A9CF0C947B
:100230004D9C0C9484FC0D94B5290D94CC400C94E9
:1002400062FE0D9425010D94778D0C943B780C94EF
:100250006D780C94F0C80C94CCC80D94B9290C940A
:10026000E0C20C94ADCF0C9425DD0C944CC80C94DA
:10027000009A0C94D9FC0C9448FC0C9456C60D942E
:10028000A2290C94F4C90D94628D0C94267C0D94D3
:1002900032410C94B4780C9440D00C94F4C80D9472
:1002A0001E210C94FAC80D94821B0C9456D80C9401
:1002B00057AC0D94EE1A0D94841B0C943FD80C94FB
:1002C000C6C20C946CD80C945AC30D9410460C946E
:1002D0004AD80D947D8D0D94AD290C94D9CC0C94F5
:1002E000DADD0C94BBC00D94861B0C9414C30C94E3
:1002F00093760C94B9CF0D94B9400C9455D70D94C6
:1003000007470D94818D0D94533F0C94127C0C94EF
:100310005E7C0C94F6C80C9474C60D948B8D0D9471
:10032000668D0C9459D80D9481440D94938D0D9441
:10033000C7290C94A5EB0C9460FC0C9401C70C9499
:10034000FDF30C9430C30C94217C0C94AFC40C943A
:10035000F92B0C9435C60C9432C70C94C4C70D9479
:10036000B1290C94CD780C94A9C40C946CFC0D9418
:10037000DF290D9415440D94903F0C9475760D94DF
:100380005E1B0C949B760C944F2C0D94998D0C94C1
:1003900053D80C9442C50D949D460D941F430D9463
:1003A00032400C94117F0C9435980C9446C30C94F5
:1003B000BDDB0C946A9F0D944C8D0C9417A10C948A
:1003C00078C60C94A3F90D94B4410C94A3760C94C4
:1003D000FAA30C9485C70C940FD90C944EFC0C9482
:1003E000F4750C949CFC0C9469D80C945FD80C9414
:1003F000DCC80D9459460C9472FC0C947F7A0C94D2
:1004000093C60D943E1B0C9466D80D94BD290D9493
:10041000D2470C9454780C94CF770C941D760C949E
:100420008AFC0C94847A0C94AB760C942EF20D9486
:100430003A1B0D94C2400D94CC290C946F760D9408
:10044000A9290D94DA460C949AC40D94813F0C941A
:100450001C7C0C94D2A80C9463CD0C94F1F00C94F9
:10046000CAD80D943C1B0C9436DF0C9479770C940D
:1004700050D80C94B2C40C94DFCC0D945E8D0C94C7
:100480004DD80C942DE80C9454FC0C94F2C80C94A8
:1004900070C60C9468C30C94777C0C945DC70D9463
:1004A000440E0D942AA50C9408DB0C9495CF0C9463
:1004B000FA750C9480C20C94F7780C94ACC20D942D
:1004C00039210C94177C0D94478D0C94B5CF0D9465
:1004D000803F0C94FB770D94C2290C9490FC0C94F3
:1004E0006F7A0D9482450C944A7A0C94709F0D9407
:1004F000EF110D946D8D0C946D9F0C94BEE60C94D1
:10050000FEED0C9407C80C94FC2B0D94EBA20C94FC
:100510005AFC0C94B1CF0C94DA2C0C9430C70C9488
:100520005BC70C9409A10D948F8D0C943F7C0C94A7
:100530009DCF0D94FA1A0C946CC60C94ACC40D9417
:100540006A8D0C94F8E90C94E6780C945EA10C94F6
:10055000A1D60D946F210C94A5CF0C94F8C80C94DF
:100560005CD80C9422C30C9480FE0C94FAC20D94B7
:10057000738D0D949F450C942A760D94D4290C9478
:1005800086C30C946BC20C949B780C94A17B0C9446
:10059000CEC60C94FCC80D943E0E0D948D400D9467
:1005A000601B0D9448400D9412400C9422780C94DA
:1005B00099CF0C94BCA50C9421760C9404FD0C945A
:1005C0007CE50C940ECA0C94E0C80C9438980D94F9
:1005D00054210C94A1CF0C9494A70D94B4400D9485
:1005E000AF400C9454EC0C9464D70D94858D0D940D
:1005F000B8460D94181B0C9461D00C94679F0C9412
:100600002DE20D94E7290D9490290C9466FC0D942D
:100610001A1B4E414E494E495459494E46CDCCCCF9
:100620003D0AD7233C17B7D13877CC2B329595E6C6
:10063000241FB14F0A000020410000C84200401CA6
:100640004620BCBE4CCA1B0E5AAEC59D7400407AF3
:1006500010F35A00A0724E18090010A5D4E800004B
:10066000E87648170000E40B54020000CA9A3B00E9
:100670000000E1F505000080969800000040420F60
:10068000000000A08601000000102700000000E824
:1006900003000000006400000000000A00000000E9
:1006A000000100000000002C76D888DC674F08238A
:1006B000DFC1DFAE59E1B1B796E5E3E453C63AE6F0
:1006C00051997696E8E6C28426EB898C9B62ED40D0
:1006D0007C6FFCEFBC9C9F40F2BAA56FA5F490051F
:1006E0005A2AF75C936B6CF9676DC11BFCE0E40D53
:1006F00047FEF520E6B500D0ED902E030094357747
:10070000050080841E080000204E0A000000C80C6E
:10071000333333330F986E12831141EF8D211489D7
:100720003BE65516CFFEE6DB18D1844B381BF77C31
:100730001D901DA4BBE424203284725E228100C976
:10074000F124ECA1E53D2744455441494C00434F79
:100750004D4D554E49434154494F4E004452595214
:10076000554E004552524F525300494E464F004598
:1007700043484F005A2050726F6265205061737475
:10078000204265640A005A2050726F6265205061F1
:1007900073742042656400203A20686F6D655F7A4B
:1007A0005F736166656C790A002020646573746903
:1007B0006E6174696F6E3D00686F6D655F7A5F731F
:1007C0006166656C7900646F5F6D6F76655F616609
:1007D0007465725F7A5F686F6D696E6700526169F8
:1007E0007365205A206265666F726520686F6D6957
:1007F0006E673A0A005230203D204E6F205A207218
:10080000616973650A003E20686F6D696E67206ECE
:100810006F74206E65656465642C20736B69700A63
:100820000047323800446576696174696F6E00254F
:10083000533A2025730046696E6973686564210A1E
:10084000003A207A3A2000206F662000476F696ED8
:100850006720746F3A20580043570A002064697279
:100860003A0020616E676C653A00537461727420BF
:100870007261646975733A004D343820506F696E47
:10088000740025533A2025642F256400506F736946
:1008900074696F6E696E67207468652070726F622C
:1008A000652E2E2E0A003F4C656773206F66206D03
:1008B0006F76656D656E7420696D706C61757369B6
:1008C000626C652028302D3135292E0A003F202802
:1008D000582C5929206F7574206F6620626F756ED1
:1008E00064732E0A0050726F6265206F7574206FFA
:1008F0006620626F756E6473003F53616D706C6546
:100900002073697A65206E6F7420706C61757369ED
:10091000626C652028342D3530292E0A004D34387C
:10092000205A2D50726F6265205265706561746146
:1009300062696C69747920546573740A003F2856A3
:10094000296572626F7365206C6576656C20696DD0
:10095000706C61757369626C652028302D34292EA6
:100960000A005374616E6461726420446576696143
:1009700074696F6E3A20002052616E67653A2000FC
:10098000204D61783A2000204D696E3A20002053B6
:1009900069676D613A20004D65616E3A2000204420
:1009A0000020204D323030205300202844697361EC
:1009B000626C6564293A0046696C616D656E7420ED
:1009C00073657474696E67730020204D3230312076
:1009D00058004D617820416363656C65726174698C
:1009E0006F6E2028756E6974732F73322900202072
:1009F0004D3230332058004D617820666565647251
:100A0000617465732028756E6974732F73290020D3
:100A1000520020204D323034205000416363656C19
:100A200065726174696F6E2028756E6974732F73B7
:100A300032292028503C7072696E742D61636365A1
:100A40006C3E20523C726574726163742D61636305
:100A5000656C3E20543C74726176656C2D616363F5
:100A6000656C3E29005741524E494E4721204C6F3C
:100A700077205A204A65726B206D6179206C656120
:100A80006420746F20756E77616E74656420706188
:100A9000757365732E0A0020540020530020204DEA
:100AA000323035204200416476616E6365642028EF
:100AB000423C6D696E5F7365676D656E745F7469E6
:100AC0006D655F75733E20533C6D696E5F6665654D
:100AD00064726174653E20543C6D696E5F7472612E
:100AE00076656C5F66656564726174653E20583C2E
:100AF0006D61785F6A65726B3E20593C6D61785F0D
:100B00006A65726B3E205A3C6D61785F6A65726BF4
:100B10003E20453C6D61785F6A65726B3E2900201E
:100B2000440020490020204D333031205000486FD0
:100B300074656E6420504944002044002049002020
:100B4000204D333034205000426564205049440029
:100B50003A200020536572766F2000206F75742054
:100B60006F662072616E67650A00536572766F204A
:100B70000025290A00252000203B202800204400D1
:100B800020410020490020204D37313020530043C0
:100B90006F6E74726F6C6C65722046616E00203BE4
:100BA0000020550020204D363033204C0046696C23
:100BB000616D656E74206C6F61642F756E6C6F6112
:100BC000640020204D343133205300506F7765721C
:100BD0002D6C6F7373207265636F76657279007325
:100BE00070726561644379636C6500737465616CF0
:100BF000746843686F700020647269766572206D56
:100C00006F64653A09007370726561644379636C5F
:100C10006500737465616C746843686F700020646C
:100C20007269766572206D6F64653A09007370723F
:100C30006561644379636C6500737465616C7468A5
:100C400043686F700020647269766572206D6F640E
:100C5000653A09007370726561644379636C65007D
:100C6000737465616C746843686F700020647269A6
:100C7000766572206D6F64653A0900202E68737482
:100C800072743A2000202E68656E643A200020635A
:100C9000686F70706572202E746F66663A2000204F
:100CA0002E68737472743A2000202E68656E643A60
:100CB00020002063686F70706572202E746F666606
:100CC0003A2000202E68737472743A2000202E6837
:100CD000656E643A20002063686F70706572202E24
:100CE000746F66663A2000202E68737472743A201E
:100CF00000202E68656E643A20002063686F707073
:100D00006572202E746F66663A20003F53206F751F
:100D100074206F662072616E67652028312E2E3830
:100D2000290A003F50206F7574206F662072616E33
:100D3000676520282D332E2E3132290A003F4F209F
:100D40006F7574206F662072616E67652028312E82
:100D50002E3135290A003B2000536C6565702E2E1C
:100D60002E004732380052756E6E696E6720506FE4
:100D7000737420436F6D6D616E64730A005A204274
:100D800061636B6F66660A00526573746F726520EB
:100D900043757272656E740A0046696E616C205A02
:100DA000204D6F76650A005265647563696E672031
:100DB00043757272656E740A0053657474696E6768
:100DC000205A20506F756E63650A005061726B691E
:100DD0006E672058590A004D65736820706F696E00
:100DE00074206F7574206F662072616E67650A00EB
:100DF0004E6F204D6F76652E00456E642066696CDF
:100E000065206C6973740A00426567696E206669C3
:100E10006C65206C6973740A004E6F206D6564699F
:100E2000610A00286E6F2066696C6529004375723F
:100E300072656E742066696C653A20005072696E46
:100E4000742074696D653A20006F6B006F666600F0
:100E50006F076A0763075C074E074707444542551B
:100E6000473A004D31313320530054617A205369A1
:100E700064654B69636B20373437204F46462E003C
:100E8000432E0A003F49646C652054696D656F7597
:100E9000742028542920747269676765722074650C
:100EA0006D70657261747572652073686F756C64BE
:100EB000206265206F76657220002F2F004D31343F
:100EC0003520533C696E6465783E206F7574206FE1
:100ED000662072616E67652028302D31290A004135
:100EE0006363656C65726174696F6E004665656405
:100EF000726174650020204D61783A200020002046
:100F0000204D696E3A2000203B200020204D3231D8
:100F100031205300536F667420656E6473746F7074
:100F20007300250A0046523A0020466C6F773A203B
:100F30000050726F6265204F6666736574205A00B8
:100F400050726F6265204F6666736574205A006444
:100F5000697300656E0043290061626C6564202836
:100F60006D696E2074656D702000436F6C64206540
:100F7000787472756465732061726520004F46460F
:100F8000004F4E00203B20486F73742068616E64F0
:100F90006C696E67200046696C616D656E742072C5
:100FA000756E6F757420004D34323120696E636F39
:100FB000727265637420706172616D657465722010
:100FC00075736167650A004D65736820706F696E9F
:100FD00074206F7574206F662072616E67650A00F9
:100FE000454550524F4D204F4B0A00290A002074AE
:100FF0006F20003F5A206F7574206F662072616EFB
:101000006765202800290A0020746F20003F5920BE
:101010006F7574206F662072616E676520280029E5
:101020000A0020746F20003F58206F7574206F668F
:101030002072616E67652028002E0A002028302D5E
:10104000313029002076616C7565206F7574206FD2
:10105000662072616E676500416476616E6365202B
:101060004B3D00206472697665722063757272650B
:101070006E743A200020647269766572206375721E
:1010800072656E743A20002064726976657220631E
:10109000757272656E743A200020647269766572AA
:1010A0002063757272656E743A20002074656D70ED
:1010B00065726174757265207072657761726E20F9
:1010C0007472696767657265643A20002074656DA3
:1010D0007065726174757265207072657761726E89
:1010E000207472696767657265643A2000207465D0
:1010F0006D7065726174757265207072657761726A
:101100006E207472696767657265643A20002074A6
:10111000656D706572617475726520707265776156
:10112000726E207472696767657265643A20002088
:101130007072657761726E20666C616720636C65A2
:10114000617265640A00207072657761726E206654
:101150006C616720636C65617265640A002070725F
:10116000657761726E20666C616720636C65617281
:1011700065640A00207072657761726E20666C612A
:101180006720636C65617265640A0020686F6D6931
:101190006E672073656E73697469766974793A2035
:1011A0000020686F6D696E672073656E736974697E
:1011B000766974793A2000446F6E65207072696EAA
:1011C00074696E672066696C650A004D3737004D9B
:1011D00033310020204D323036205800486F6D6585
:1011E000206F6666736574004F666673657473205E
:1011F0004170706C696564004D494E2F4D41582017
:10120000546F6F2046617200546F6F2066617220C8
:1012100066726F6D204D494E2F4D41580A0044694A
:1012200066663A2020200046726F6D5374703A0053
:10123000537465707065723A00556E4C6576656CD6
:101240003A004C6576656C65643A005261773A20E5
:10125000202020000A4C6F676963616C3A00436F7D
:10126000756E7420453A004361703A00434F4E4614
:1012700049475F4558504F5254004D4541545041E5
:10128000434B00434F4F4C45525F54454D504552E0
:101290004154555245004348414D4245525F5445E3
:1012A0004D50455241545552450045505F424142D0
:1012B00059535445500042414259535445505049A6
:1012C0004E470041524353004D4F54494F4E5F4DDE
:1012D0004F44455300544845524D414C5F50524F86
:1012E00054454354494F4E00455854454E44454497
:1012F0005F4D323000435553544F4D5F4649524D78
:10130000574152455F55504C4F4144004C464E5F4B
:101310005752495445004C4F4E475F46494C454E45
:10132000414D45004155544F5245504F52545F5323
:10133000445F5354415455530053445F57524954EA
:101340004500524550454154004D554C54495F5657
:101350004F4C554D45005344434152440050524F69
:101360004D50545F535550504F525400484F5354B2
:101370005F414354494F4E5F434F4D4D414E44539F
:1013800000454D455247454E43595F5041525345E4
:101390005200434153455F4C494748545F425249CC
:1013A0004748544E45535300544F47474C455F4CB4
:1013B000494748545300534F4654574152455F5094
:1013C0004F574552004255494C445F5045524345A2
:1013D0004E54004C4556454C494E475F444154419C
:1013E000005A5F50524F42450052554E4F555400DF
:1013F0004155544F4C4556454C005052494E545F50
:101400004A4F420050524F475245535300415554A2
:101410004F5245504F52545F54454D500041555422
:101420004F5245504F52545F504F5300564F4C55FA
:101430004D455452494300454550524F4D00424995
:101440004E4152595F46494C455F5452414E5346B6
:1014500045520053455249414C5F584F4E5F584FDB
:101460004646004649524D574152455F4E414D4513
:101470003A4D61726C696E20204649524D57415277
:10148000455F56455253494F4E3A322E312E332E38
:10149000302E32372045585452554445525F5459E6
:1014A00050453A4C656761637920556E697665727F
:1014B00073616C2050524F42455F545950453A4237
:1014C0004C546F7563684245445F545950453A2007
:1014D0005354414E444152442028417072202034DC
:1014E00020323032342031313A32373A3537292000
:1014F000534F555243455F434F44455F55524C3A15
:101500006769746875622E636F6D2F4D61726C69C7
:101510006E4669726D776172652F4D61726C696E8E
:101520002050524F544F434F4C5F56455253494FF2
:101530004E3A312E30204D414348494E455F545973
:1015400050453A54617A20536964654B69636B2056
:101550003734372045585452554445525F434F5510
:101560004E543A3120555549443A35623364363148
:1015700064362D383066382D343165642D62643818
:10158000612D39633736356638643532336400701F
:10159000726F6D70745F00626567696E004D302018
:1015A00053746F70004D312053746F7000436C6939
:1015B000636B20746F20526573756D652E2E2E003F
:1015C0005A2050726F6265205061737420426564C6
:1015D00000205A3A0020593A0042656420583A00E7
:1015E000203B0020204D3835312058005A2D5072B4
:1015F0006F6265204F666673657400526573756D22
:10160000696E672053440043616E6E6F74206F7083
:10161000656E207375626469722000256973002508
:10162000696D20256973002569682025696D20256D
:10163000697300256964202569682025696D202566
:10164000697300256979202569642025696820254A
:10165000696D20256973000A53746174733A2046DA
:10166000696C616D656E7420757365643A20002C39
:10167000204C6F6E67657374206A6F623A20005465
:101680006F74616C2074696D653A200053746174E5
:10169000733A20002C204661696C65643A20002C66
:1016A0002046696E69736865643A20005072696EFD
:1016B00074733A200053746174733A2000436F6F5F
:1016C0006C696E672E2E2E00453120255300205761
:1016D0003A0042656420436F6F6C696E672E2E2E50
:1016E000004265642048656174696E672E2E2E0085
:1016F00023646566696E652044454641554C545FD8
:101700000000626564004B6420004B6920004B7050
:1017100020005049442074756E696E6720646F6EB6
:1017200065002066696E6973686564212050757470
:1017300020746865206C617374204B702C204B6999
:1017400020616E64204B6420636F6E7374616E74ED
:10175000732066726F6D2062656C6F7720696E749E
:101760006F20436F6E66696775726174696F6E2E64
:10177000680A00504944204175746F74756E6500A5
:10178000206661696C6564212074696D656F75748C
:101790000A00504944204175746F74756E650041AC
:1017A00075746F74756E65206661696C656421205F
:1017B00054696D656F75742E00206661696C65648F
:1017C000212054656D706572617475726520746F47
:1017D0006F20686967680A00504944204175746F3A
:1017E00074756E6500504944204379636C657300DD
:1017F00025532025692F256900204B643A200020BD
:101800004B693A2000204B703A200020436C6173F2
:1018100073696320504944200A00204E6F206F7680
:10182000657273686F6F740A002054753A20002047
:101830004B753A2000206D61783A2000206D696E6A
:101840003A200020643A200020626961733A200047
:1018500048656174696E672E2E2E00207374617264
:10186000740A00504944204175746F74756E6500A8
:101870004175746F74756E65206661696C6564216D
:101880002054656D706572617475726520746F6F38
:1018900020686967682E00206661696C6564212094
:1018A00054656D706572617475726520746F6F2018
:1018B000686967680A00504944204175746F7475FF
:1018C0006E6500504944204175746F74756E6500F3
:1018D000206661696C6564212042616420686561ED
:1018E0007465722069640A00504944204175746F20
:1018F00074756E65002054002053002045002020A0
:101900004D3836204200486F74656E642049646C1F
:10191000652054696D656F7574004572723A207563
:1019200074663820666F6E74206E6F7420696E69FD
:101930007469616C697A65642E004572723A20752B
:1019400074663820666F6E74206E6F7420696E69DD
:101950007469616C697A65642E004572723A20750B
:1019600074663820666F6E74206E6F7420696E69BD
:101970007469616C697A65642E006D61726C696E60
:1019800066772E6F726700322E312E332E302E3254
:1019900037001FFFFFFFFFFFFF600000000001FF97
:1019A000400000000000FF8000000000007F83CFA7
:1019B00000000C303F87FF80000C301F86798000CC
:1019C0000C000F8C30C7838C30E78C30CFC7CC3104
:1019D000F38C30DCECEC33B98C30D86C6C33198C74
:1019E00030D06C0C33198C30D86C0C33198C30DC43
:1019F0006C0E3B198C30CF7C079F198C30C77C0351
:101A00008F19400000000000026000000000000686
:101A10001FFFFFFFFFFFF8200020003A00200020FA
:101A2000003A003A00000C0F00FE07022503BB013C
:101A30007FFE08FE08FE05080806000040F0C88882
:101A400088987810050808060000C0F888888888FB
:101A500088F80505050600012030F8302005080843
:101A60000600002070F820202020E005090906006B
:101A7000FF2070A8A8B88888702007050507000116
:101A8000D86C366CD80509090600FFF8A888888844
:101A90008888A8F8050A0A0600FE20505050508891
:101AA000A8A8887003030306000340A040FFFFFFBF
:101AB000FFFFFFFFFFFFFFFFFFFFFFFFFFFFFFFF36
:101AC000FFFFFF0000000605FF0107070602008078
:101AD000808080800080030303060105A0A0A0058C
:101AE000060606000050F85050F850050909060097
:101AF000FF2070A8A07028A8702005070706000026
:101B0000C8C8102040989805070706000040A0A00C
:101B100040A890680103030602058080800309093C
:101B20000601FF20404080808040402003090906D4
:101B300001FF80404020202040408005070706002C
:101B40000020A8702070A8200505050600012020AF
:101B5000F820200203030601FFC0408005010106B2
:101B60000003F8020202060100C0C00507070600D4
:101B7000000810102040408005070706000070880C
:101B800098A8C8887003070706010040C04040407D
:101B900040E0050707060000708808102040F8059F
:101BA0000707060000F808103008887005070706C8
:101BB000000010305090F81010050707060000F8DC
:101BC00080F008088870050707060000304080F0A4
:101BD000888870050707060000F8081010202020EC
:101BE0000507070600007088887088887005070759
:101BF000060000708888780810600205050601005C
:101C0000C0C000C0C00206060601FFC0C000C04040
:101C100080030505060101204080402005030306DE
:101C20000002F800F803050506010180402040800D
:101C30000507070600007088102020002005070710
:101C40000600007088B8A8B8807005070706000075
:101C5000708888F8888888050707060000F04848DB
:101C6000704848F00507070600007088808080886B
:101C700070050707060000F04848484848F0050787
:101C800007060000F88080F08080F805070706004E
:101C900000F88080F08080800507070600007088CB
:101CA0008080988870050707060000888888F88873
:101CB0008888030707060100E04040404040E005F7
:101CC000070706000038101010109060050707067F
:101CD00000008890A0C0A09088050707060000803B
:101CE0008080808080F805070706000088D8A888D3
:101CF0008888880507070600008888C8A89888880B
:101D0000050707060000708888888888700507071F
:101D1000060000F08888F080808005070706000034
:101D200070888888A89068050707060000F08888F2
:101D3000F0A090880507070600007088807008886A
:101D400070050707060000F8202020202020050746
:101D500007060000888888888888700507070600BD
:101D6000008888888850502005070706000088886A
:101D70008888A8A8500507070600008888502050CA
:101D80008888050707060000888850202020200545
:101D90000707060000F80810204080F8030909062C
:101DA00001FFE080808080808080E00507070600DA
:101DB00000804040201010080309090601FFE020C0
:101DC000202020202020E005030306000520508865
:101DD0000501010600FEF80303030601058040200B
:101DE00005050506000070087888780507070600D5
:101DF000008080F0888888F0050505060000708066
:101E000080887005070706000008087888888878A9
:101E10000505050600007088F080700507070600BC
:101E200000304840E04040400507070600FE70884B
:101E300088887808700507070600008080F0888889
:101E400088880307070601004000C0404040E004C6
:101E500009090601FE1000301010101090600507EF
:101E60000706000080808890E0908803070706013D
:101E700000C04040404040E0050505060000D0A8F5
:101E8000A8A8A8050505060000B0C888888805052B
:101E90000506000070888888700507070600FEF0B8
:101EA000888888F080800507070600FE7888888883
:101EB000780808050505060000B0C8808080050583
:101EC0000506000078807008F0050707060000206E
:101ED00020F820202018050505060000888888982D
:101EE0006805050506000088888850200505050658
:101EF00000008888A8A85005050506000088502025
:101F000050880507070600FE888888502040800515
:101F10000505060000F8102040F80309090601FF36
:101F20002040404080404040200109090602FF80D7
:101F300080808080808080800309090601FF8040C6
:101F40004040204040408005030306000248A8901E
:101F5000FF3F004261636B0053746F70004E6F204F
:101F60004D656469610053656C6563742066726FCA
:101F70006D204D65646961004368616E6765204D41
:101F800065646961004D32310041626F75742050A3
:101F900072696E746572004368616E676520466998
:101FA0006C616D656E7400546F6F6C204865616480
:101FB00073202854482900436F6E66696775726103
:101FC00074696F6E0054656D7065726174757265C9
:101FD000004D6F74696F6E0050726573656E74208A
:101FE00042656400473238204F0A47302059323367
:101FF00031204631303030300A47302059323333C7
:10200000204631303030300A4D313137205072693E
:102010006E74657220526561647900526573756DE6
:1020200065205072696E740043616E63656C204F69
:10203000626A6563740054756E650053746F702036
:102040005072696E74005061757365205072696ECC
:102050007400496E666F2053637265656E003F00C1
:102060005374617274205072696E740043616E63C0
:10207000656C005072696E740043616E6E6F7420FF
:10208000656E746572207375626469723A2000022D
:10209000202E2E004D61696E204D656E7500210069
:1020A000486F74656E6420746F6F20636F6C64009A
:1020B0004261636B0050726F63656564004D6F76BB
:1020C00065204578747275646572004D6F74696F30
:1020D0006E0044697361626C65205374657070654D
:1020E0007273004D3834004D34382050726F626581
:1020F0002054657374004732384F0A4D34382050ED
:102100003130004175746F205A2D416C69676E0043
:102110004733340046616465204865696768740028
:102120004F6666004F6E00426564204C6576656CB4
:10213000696E67004C6576656C20426564004732C5
:10214000394E005A2050726F62652057697A617269
:1021500064004175746F2D5061726B0047323820F6
:102160004F0A473237004732385A00473238590051
:10217000486F6D6520400047323858004175746FD4
:1021800020486F6D65004D61696E204D656E75006C
:1021900043616E63656C00446F6E6500302E3032B3
:1021A0003500302E31004D6F766520246D6D003185
:1021B0002E300050726F6265205A204F666673653C
:1021C00074005A004D6F7665204E6F7A7A6C6520E8
:1021D000746F20426564004D6F76696E6720746F7E
:1021E0002050726F62696E6720506F7300486F6D88
:1021F000696E672058595A00473238005072656836
:1022000065617420242042656400507265686561D0
:1022100074202420456E640054656D70657261748D
:1022200075726500436F6F6C646F776E00507265F6
:102230006865617420240046616E20537065656492
:1022400000426564004E6F7A7A6C65004D61696E7C
:10225000204D656E75004531005A005900580059EF
:102260000058004531005A0059004F6666004F6E15
:10227000005800544D4320447269766572730053D0
:102280007465616C746843686F7020456E61626C40
:102290006564005374657070696E67204D6F646586
:1022A0000053656E736F726C65737320486F6D6950
:1022B0006E67004472697665722043757272656E4E
:1022C0007400416476616E6365642053657474695B
:1022D0006E67730050726F6265205A204F66667396
:1022E000657400416476616E6365204B00466C6FD7
:1022F00077726174650046616E2053706565640095
:10230000426564004E6F7A7A6C650053706565644F
:10231000004D61696E204D656E75006F70656E00D1
:10232000545249474745524544003A200066696C7B
:10233000616D656E74007A5F6D696E00795F6D69BD
:102340006E00785F6D696E005265706F7274696EB1
:102350006720656E6473746F702073746174757335
:102360000A00203A2073796E635F706C616E5F7053
:102370006F736974696F6E0A0020206375727265ED
:102380006E745F706F736974696F6E3D003E2000FC
:10239000646F5F626C6F636B696E675F6D6F7665AC
:1023A0005F746F00290A002C2000646F5F626C6FFD
:1023B000636B696E675F6D6F76655F746F5F7A28B8
:1023C00000290A002C20002C2000646F5F626C6FD3
:1023D000636B696E675F6D6F76655F746F5F787949
:1023E0002800250A00200072656D656D6265725FC8
:1023F00066656564726174655F7363616C696E675D
:102400005F6F66663A2066723D00250A0020007202
:102410006573746F72655F66656564726174655F2C
:10242000616E645F7363616C696E673A2066723DCA
:102430000020746F6F206C6F6E6720657874727502
:1024400073696F6E2070726576656E7465640A00DC
:1024500020636F6C6420657874727573696F6E2089
:1024600070726576656E7465640A00486F6D6520EC
:102470002573204669727374005761726E696E67C6
:102480003A20486F6D696E672042756D702044690F
:102490007669736F72203C20310A00010204290A18
:1024A000003C3C3C207365745F617869735F6973BD
:1024B0005F61745F686F6D652800203A200A002014
:1024C0002063757272656E745F706F736974696F83
:1024D0006E3D005D203D20003E20686F6D655F6FA2
:1024E00066667365745B00290A002A2A2A205A202E
:1024F000686F6D656420776974682050524F42455B
:1025000020285A5F4D494E5F50524F42455F555308
:1025100045535F5A5F4D494E5F454E4453544F50AB
:102520005F50494E29202A2A2A0A3E20284D383554
:1025300031205A000000C0BF0000B8C100000000F8
:10254000290A003E3E3E207365745F617869735FBF
:1025500069735F61745F686F6D652800290A003CCC
:102560003C3C20686F6D65617869732800203A20D3
:102570003E204146544552207365745F617869730B
:102580005F69735F61745F686F6D650A0020206327
:10259000757272656E745F706F736974696F6E3D8A
:1025A000006D6D0A0052652D62756D703A20006DE8
:1025B0006D0A004D6F766520417761793A20006D94
:1025C0006D0A00486F6D6520466173743A20000003
:1025D00000A0400000A040000000406D6D0A0053C4
:1025E000656E736F726C657373206261636B6F6687
:1025F000663A2000290A003E3E3E20686F6D656104
:102600007869732800206C696D6974656420746F43
:102610002000204D6178200053544F505045442EE7
:1026200020005072696E7465722073746F707065EB
:10263000642064756520746F206572726F72732EEA
:102640002046697820746865206572726F72206117
:102650006E6420757365204D39393920746F20728E
:102660006573746172742E202854656D7065726193
:10267000747572652069732072657365742E2053BA
:102680006574206974206166746572207265737464
:10269000617274696E67290A00206572726F722018
:1026A0002D20726573746172742077697468204D8F
:1026B0003939390A00424C546F7563680021212072
:1026C00053544F502063616C6C6564206265636194
:1026D000757365206F662000507265686561746966
:1026E0006E67200050726568656174696E672E2E92
:1026F0002E0050726F62653A3A70726F62655F7356
:10270000706563696669635F616374696F6E0052C7
:1027100061697365205A20746F2000206E6F5F72AC
:10272000657475726E3D006465706C6F793D002054
:102730003A2050726F62653A3A7365745F646570EF
:102740006C6F7965640A00202063757272656E741F
:102750005F706F736974696F6E3D0050726F626570
:102760003A3A70726F62655F646F776E5F746F5F25
:102770007A00206D61783A00206D696E3A004178E8
:1027800069732000000066430000694300807443C1
:102790000000C0BF0000B8C10000000053657474A1
:1027A000696E67732053617665642100290A0020F1
:1027B00062797465733B206372632000536574749F
:1027C000696E67732053746F7265642028004552E8
:1027D0005200454550524F4D20496E697469616CF5
:1027E000697A65640A0048617264636F6465642095
:1027F00044656661756C742053657474696E6773A3
:10280000204C6F616465640020286D6D2900203BB9
:10281000204C6576656C696E67200020204D34324F
:10282000302053004175746F20426564204C6576FA
:10283000656C696E670020460020480020204D31FD
:1028400034352053004D6174657269616C20686590
:102850006174757020706172616D6574657273006A
:10286000526574726163742028533C6C656E6774A2
:10287000683E20463C66656564726174653E205A18
:102880003C6C6966743E29005265636F7665722000
:1028900028533C6C656E6774683E20463C666565EF
:1028A00064726174653E29004175746F2D526574C0
:1028B000726163742028533C656E61626C653E29C9
:1028C0000020204D3930360020543020450053740C
:1028D00065707065722064726976657220637572C6
:1028E00072656E740020204D393134005374616C70
:1028F0006C4775617264207468726573686F6C648C
:102900000020204D35363920533100543020450009
:10291000205800447269766572207374657070691E
:102920006E67206D6F64650020204D393030204B7C
:10293000004C696E65617220416476616E6365006A
:10294000203B2053656E736F72200020204D343180
:102950003220530046696C616D656E742072756E2D
:102960006F75742073656E736F7200204A002020AB
:10297000473239205720490020204D313439204337
:10298000203B20556E69747320696E2043656C731B
:102990006975730A0054656D70657261747572654E
:1029A00020556E697473002020473231203B004C63
:1029B000696E65617220556E6974730045455052A9
:1029C0004F4D206461746173697A65206572726F1E
:1029D000722E0A004572723A20454550524F4D20E2
:1029E00043524300202863616C63756C61746564B5
:1029F00029210A0020213D2000454550524F4D20FD
:102A0000435243206D69736D61746368202D2028E3
:102A100073746F726564292000454550524F4D20F4
:102A2000436F72727570740A002053697A653A2098
:102A300000496E6465783A200053746F72656420B3
:102A400073657474696E67732072657472696576F4
:102A5000656400290A002062797465733B20637203
:102A60006320002073746F726564207365747469E9
:102A70006E677320726574726965766564202800DC
:102A80000000FA430000FA43000096430000204291
:102A90000000C8420000C842000048430000D24382
:102AA0008E1200008E120000640000002823000037
:102AB000204D61726C696E3D563931290A004545D9
:102AC00050524F4D2076657273696F6E206D697339
:102AD0006D617463682028454550524F4D3D002478
:102AE000F4D43050C38D20C3A24117828B701112D1
:102AF0007A900D826CDA0AA861E108C7586607610E
:102B00005142061F4B5E05C145A6041B4112040934
:102B10003D9703723931034136DB0266339202D4AA
:102B2000305302812E1D02642CEE01762AC501B1BC
:102B300028A101102781018F2564012B244A01E17E
:102B4000223401AD2120018D200C01811FFC008564
:102B50001EED00981DDF00B91CD200E71BC7002046
:102B60001BBB00651AB200B319A9000A19A0006ABC
:102B7000189800D217920040178A00B616840032C7
:102B8000167E00B41579003B157400C7146F005809
:102B9000146A00EE1366008813620026135E00C8F4
:102BA000125B006D12570016125500C111510070D2
:102BB000114E0022114C00D61049008D10460047DE
:102BC00010450002104200C00F4000800F3E00423E
:102BD0000F3C00060F3A00CC0E3900930E37005C14
:102BE0000E3500270E3400F30D3200C10D31009078
:102BF0000D2F00610D2F00320D2D00050D2C00D979
:102C00000C2A00AF0C2A00850C28005D0C2800352A
:102C10000C27000E0C2500E90B2500C40B2400A096
:102C20000B23007D0B22005B0B21003A0B210019C6
:102C30000B2000F90A1F00DA0A1F00BB0A1E009DC4
:102C40000A1D00800A1C00640A1C00480A1C002C93
:102C50000A1B00110A1A00F7091A00DD091900C43D
:102C6000091900AB091800930918007B09170064C3
:102C70000917004D09170036091600200915000B29
:102C8000091500F6081500E1081500CC081400B875
:102C9000081400A4081300910813007E0813006BA9
:102CA00008120059081200470812003508120023C4
:102CB0000811001208110001081000F1071100E0CE
:102CC000071000D0071000C0070F00B1071000A1C7
:102CD000070F0092070F0083070F0074070E0066AE
:102CE000070E0058070E004A070E003C070E002E84
:102CF000070D0021070D0014070D0007070D00FA4E
:102D0000060D00ED060C00E1060D00D4060C00C80F
:102D1000060C00BC060C00B0060B00A5060C0099C2
:102D2000060B008E060B0083060B0078060B006D69
:102D3000060B0062060B0057060A004D060A004308
:102D4000060B0038060A002E060A00240609001B9E
:102D5000060A0011060A0007060900FE050A00F42B
:102D6000050900EB050900E2050900D9050900D0B5
:102D7000050900C7050800BF050900B6050900AD33
:102D8000050800A50508009D050800950509008CAB
:102D9000050800840508007C050700750508006D1E
:102DA000050800650507005E050800560507004F89
:102DB00005080047050700400507003905070032F0
:102DC0000507002B050700240507001D0507001651
:102DD0000507000F0506000905070002050600FCAF
:102DE000040700F5040600EF040700E8040600E20B
:102DF000040600DC040600D6040600D0040700C95F
:102E0000040500C4040600BE040600B8040600B2AF
:102E1000040600AC040600A6040500A10406009BFD
:102E200004050096040600900405008B0406008546
:102E3000040500800405007B04050076040600708C
:102E40000405006B04050066040500610405005CD0
:102E500004050057040500520405004D0405004810
:102E6000040400440405003F0405003A040400364D
:102E7000040500310405002C040400280405002387
:102E80000404001F0405001A0404001604040012C0
:102E90000405000D040400090404000504040001F5
:102EA000040500FC030400F8030400F4030400F02C
:102EB000030400EC030400E8030400E4030400E05E
:102EC000030400DC030400D8030400D4030300D18E
:102ED000030400CD030400C9030400C5030400007B
:102EE00000000000000000000000000000000000E2
:102EF00000000000000000D1036D6403570D03477C
:102F0000C6023B8B023259022B2E0225090221E810
:102F1000011CCC011AB201179B0114870113740123
:102F20001163010F54010E46010D39010D2C010BE7
:102F300021010A17010A0D0109040108FC0008F427
:102F40000007ED0007E60007DF0006D90006D30002
:102F500005CE0006C80005C30004BF0005BA000482
:102F6000B60004B20004AE0004AA0004A60003A345
:102F700000049F00039C0003990003960003930044
:102F8000029100038E00028C000389000287000377
:102F90008400028200028000027E00027C00027A2D
:102FA00000027800027600017500027300027100D1
:102FB000017000026E00016D00026B00016A0002E8
:102FC000680001670002650001640001630001629E
:102FD00000026000015F00015E00015D00015C0015
:102FE000015B00015A00015900015800015700011E
:102FF00056000155000154000153000152000151D7
:1030000000005100015000014F00014E00014D0031
:10301000004D00014C00014B00014A00004A000134
:1030200049000148000048000147000146000046F1
:103030000001450000450001440001430000430039
:103040000142000042000141000041000140000037
:103050004000013F00003F00013E00003E00013DF6
:1030600000003D00013C00003C00013B00003B0033
:10307000013A00003A00013900003900003900012E
:1030800038000038000137000037000037000136F3
:103090000000360000360001350000350001340024
:1030A000003400003400013300003300003300011D
:1030B00032000032000032000131000031000031E6
:1030C00000003100013000003000003000012F000E
:1030D000002F00002F00002F00012E00002E000006
:1030E0002E00012D00002D00002D00002D00012CD0
:1030F00000002C00002C00002C00012B00002B00F5
:10310000002B00002B00012A00002A00002A0000EA
:103110002A00002A000129000029000029000029B6
:1031200000012800002800002800002800002800D6
:1031300001270000270000270000270000270001CA
:10314000260000260000260000260000260000269B
:1031500000012500002500002500002500002500B5
:1031600000250001240000240000240000240000A9
:10317000240000240001230000230000230000237A
:103180000000230000230001220000220000220092
:103190000022000022000022000022000121000085
:1031A0002100002100002100002100002100002159
:1031B000000120000020000020000020000020006E
:1031C000002000002000002000011F00001F000060
:1031D0001F00001F00001F00001F00001F00002034
:1031E000436F756E7420583A00554E4C4F41442041
:1031F00046494C414D454E54004C4F4144204649B0
:103200004C414D454E540046494C414D454E54208D
:103210004348414E47450042656400456E636C6F0C
:10322000737572650020002000200020002000251A
:1032300000657272001FE020102010201010201076
:10324000202010201030300840048003001FE03F91
:10325000F03FF03FF01FE01FE03FF03FF03FF00F86
:10326000C0078003003FFFF83E00F839F03831E036
:103270001831E01821E1E820F3E8207FE82077E822
:1032800028EE282FDC082FFC082F9E082F0F08306F
:103290000F18300F18381F383E00F83FFFF83FFF77
:1032A000F83E00F8383F38307E18307C18287C080B
:1032B0002C38082F39C82FFFE82FC7E82FFFE82741
:1032C00039E8203868207C28307C1830FC1839F820
:1032D000383E00F83FFFF83FFFF83E00F8380F385F
:1032E000341FD8361F982F1F082F9E082FFC082F39
:1032F000DC0827EFC82077E8207FE820F3E821F1F9
:10330000E833F0D837F05839E0383E00F83FFFF89E
:103310003FFFF83E80F83980383781D837C3D82747
:10332000C7E823C7F821FF88206C08206C08206CB0
:103330000823FF083FC7882FC7C83787D83703D867
:103340003803383E02F83FFFF8022200044400042C
:103350004400022200011100FFFFCE40A8A4211169
:10336000101FFFF808040424020273FFFFFFFFCEC2
:103370004020242010101FFFF808040424020273C8
:10338000FFFFFFFFC04000202000101000080800D1
:103390000404000203FFFF0222000444000444006E
:1033A000022200011100FFFFC04088A0211110126D
:1033B000220808000404000203FFFF63616E6365D6
:1033C0006C005072696E742041626F7274656400A3
:1033D00055492041626F72746564004D323520504A
:1033E0000A4D323400526573756D650055492050A1
:1033F000617573650050617573696E672E2E2E00BE
:10340000726573756D65004D3234006F6F6F00002B
:103410000047414D45204F56455200107CFEFEFEB0
:103420004440248000003180000024804440040097
:103430000E000E007FC0FFE0FFE0FFE0FFE01FC0D6
:103440007FF0DDD8FFF87FF006000F001F8036C048
:103450003FC009001680294006000F001F8036C0BB
:103460003FC0168020401080104008801FC0376089
:103470007FF05FD050500D80104048905FD0777043
:103480007FF01FC0104020200F007FE0FFF0E670AB
:10349000FFF0198036C0C0300F007FE0FFF0E6700B
:1034A000FFF0198036C0198000FE0003FF8007C7B7
:1034B000C00701E00000E00000F0000070040070B0
:1034C0000E00701F00703F80F00E00E00F01E0075B
:1034D000C7C003FF8000FE0000FE0003FF8007C797
:1034E000C00F01E00E00E03F80F01F00700E007082
:1034F0000400700000700000F00000E00701E00729
:10350000C7C003FF8000FE000E000E000E000E007C
:103510000E000E000E000E007FC03F801F000E0048
:10352000040004000E001F003F807FC00E000E004C
:103530000E000E000E000E000E000E00FFFFFF7FBB
:1035400080FFC0FFC0FFC07F807F80FFC0FFC0FF43
:10355000C03F001E000C0050726F6265205A204F61
:103560006666736574004D3530300A4D3131372051
:103570005A204F6666736574205361766564004C0B
:103580006F6164206D6D00556E6C6F6164206D6DB0
:103590000046696C2E204469612E004F6666004F1C
:1035A0006E004520696E206D6D5E3300416476616A
:1035B0006E6365204B004D33303320553120452557
:1035C0006920532569004175746F74756E65202AF2
:1035D00020504944005049442D44202A0050494479
:1035E0002D49202A005049442D50202A002008202F
:1035F00046616374002008204D6178002008204D4A
:10360000696E004D696E2054726176656C2053704E
:10361000656564004D696E2056656C6F63697479E9
:10362000004D61782040205370656564004D6178DD
:10363000204520416363656C004D61782040204146
:103640006363656C0054726176656C2041636365E9
:103650006C005265747261637420416363656C0031
:10366000416363656C004D61782040204A65726B50
:10367000004D3530300A4D313137205A204F6666C3
:10368000736574205361766564005A2050726F62CE
:10369000652057697A6172640050726F6265205AC2
:1036A000204F66667365740050726F626520592002
:1036B0004F66667365740050726F62652058204FC4
:1036C000666673657400402073746570732F6D6D4A
:1036D00000416476616E6365642053657474696E3D
:1036E0006773003F0043616E63656C00496E6974E7
:1036F000004D34323800496E697469616C697A65CD
:1037000020454550524F4D0046696C616D656E74A1
:103710000054656D706572617475726500544D4337
:1037200020447269766572730053746570732F6DEF
:103730006D0050726F6265204F666673657473002A
:103740004A65726B00416363656C65726174696F91
:103750006E004D617820537065656420286D6D2F73
:1037600073290053657420486F6D65204F6666733A
:1037700065747300436F6E66696775726174696F13
:103780006E003F0043616E63656C204F626A656343
:1037900074004E4F005945530043616E63656C20C1
:1037A0004F626A656374207B004D61696E204D65D0
:1037B0006E75004265642049646C652054656D70C7
:1037C000004E6F7A7A6C652049646C652054656D93
:1037D000700054656D70657261747572650054692E
:1037E0006D656F75740044697361626C652054691E
:1037F0006D656F7574004D3837004261636B00531F
:10380000572D4D6F64650053746F77004465706C7D
:103810006F790053656C662D54657374005265733F
:1038200065740049646C6520506572696F6400417D
:103830006374697665205370656564004175746FC3
:10384000204D6F64650049646C6520537065656444
:1038500000556E72657472616374205600556E7205
:103860006574722E206D6D00486F70206D6D005272
:10387000657472616374205600526574726163747A
:10388000206D6D004175746F2D52657472616374A3
:1038900000426564004E6F7A7A6C650046616E2066
:1038A000537065656400436F6E6669677572617415
:1038B000696F6E00526573746F726520446566614E
:1038C000756C7473004C6F61642053657474696E19
:1038D00067730053746F72652053657474696E6703
:1038E000730050726568656174202420436F6E66B2
:1038F00000506F776572204F7574616765004F6681
:1039000066004F6E0052756E6F75742053656E734E
:103910006F72005265747261637400486F74656EF3
:10392000642049646C652054696D656F757400424C
:103930004C546F75636800436F6E74726F6C6C6586
:10394000722046616E0050726F6265205A204F6689
:103950006673657400416476616E636564205365C7
:103960007474696E6773004D61696E204D656E7584
:10397000004D37303220542564004D36303020421F
:103980003020542564004D373032203B2564004DF3
:1039900037303120542564004D373032004D3730F8
:1039A00031004D363030204230004D61696E204D7F
:1039B000656E7500436F6E74696E7565004F66665F
:1039C000004F6E0052756E6F75742053656E736F85
:1039D00072005075726765206D6F726500524553B5
:1039E000554D45204F5054494F4E533A005052497F
:1039F0004E5420504155534544002F0020002020B4
:103A00004E6F7A7A6C653A20005061726B696E670E
:103A10002E2E2E0000005761697420666F720066BA
:103A2000696C616D656E74206368616E67650074B2
:103A30006F207374617274005761697420666F72CD
:103A40000066696C616D656E7420756E6C6F616483
:103A500000004E6F7A7A6C652068656174696E67E4
:103A600000506C6561736520776169742E2E2E009D
:103A700000507265737320627574746F6E00746F9A
:103A80002068656174206E6F7A7A6C650000496EFB
:103A9000736572742066696C616D656E7400616E29
:103AA0006420707265737320627574746F6E007435
:103AB0006F20636F6E74696E75650057616974205D
:103AC000666F720066696C616D656E74206C6F6103
:103AD000640000507265737320427574746F6E00D9
:103AE000746F20726573756D65207072696E7400F5
:103AF000005761697420666F72207072696E74007D
:103B0000746F20726573756D652E2E2E00005761DF
:103B1000697420666F720066696C616D656E7420F1
:103B200070757267650000536E346B3300496E76B2
:103B3000616465727300427269636B6F75740041F2
:103B4000626F7574205072696E74657200256C64C2
:103B50002E25696D00457874727564656420546F14
:103B600074616C004C6F6E67657374204A6F6220DD
:103B700054696D65005072696E742054696D6500FA
:103B8000436F6D706C65746564003A200050726913
:103B90006E7420436F756E74003A200047616D6546
:103BA00073005374617473005072696E746572208F
:103BB000496E666F004D61696E204D656E75004DF2
:103BC000313030300053746F70205072696E740061
:103BD000526573756D65205072696E7400506F7711
:103BE0006572204F7574616765004732384F0A4728
:103BF0003020583130302059323833205A3230306A
:103C0000004D3932453432300A4D3330315032367E
:103C10002E343749322E33324437352E35360A4D5D
:103C200039303620453936300A4D393030204B3066
:103C30002E30350A4D3530300A4D31313720534B57
:103C40003137357C302E35306D6D7C4252415353C7
:103C5000004D3932453432300A4D3330315032362E
:103C60002E393049322E34314437352E31390A4D10
:103C700039303620453936300A4D393030204B3016
:103C80002E30350A4D3530300A4D31313720534B07
:103C90003238357C302E35306D6D7C425241535375
:103CA000004D3839312054310A4D393245343135DF
:103CB0000A4D3330315032322E313249312E3934BF
:103CC0004436332E35390A4D3930362045393630B1
:103CD0000A4D393030204B302E30350A4D353030DA
:103CE0000A4D313137204D31373576327C302E3523
:103CF000306D6D7C435242204355004D38393120A0
:103D000054320A4D3932453432300A4D3330315055
:103D100032312E3049312E37384436312E39330A7C
:103D20004D39303620453936300A4D393030204B48
:103D3000302E30350A4D3530300A4D313137205371
:103D40004C7C302E32356D6D7C4E4B4C2D504C20C2
:103D50004355004D3839312054330A4D39324534FA
:103D600032300A4D3330315032312E3049312E3716
:103D7000384436312E39330A4D39303620453936FC
:103D8000300A4D393030204B302E30350A4D353029
:103D9000300A4D3131372053457C302E35306D6D32
:103DA0007C4E4B4C2D504C204355004D3839312022
:103DB00054340A4D3932453432300A4D33303150A3
:103DC00032312E3049312E37384436312E39330ACC
:103DD0004D39303620453936300A4D393030204B98
:103DE000302E30350A4D3530300A4D3131372048CC
:103DF000457C302E35306D6D7C48524420535445FF
:103E0000454C004D3839312054350A4D393245344E
:103E100032300A4D3330315033372E353549352E57
:103E200033394436352E33360A4D3930362045394C
:103E300036300A4D393030204B302E30340A4D3573
:103E400030300A4D3131372048537C302E38306DB8
:103E50006D7C48524420535445454C004D3839310F
:103E60002054360A4D3932453432300A4D33303120
:103E70005033372E353549352E33394436352E33C8
:103E8000360A4D39303620453936300A4D39303012
:103E9000204B302E30330A4D3530300A4D3131371A
:103EA0002048532B7C312E32306D6D7C485244209B
:103EB000535445454C004D3839312054370A4D395B
:103EC00032453430390A4D3330315032372E35389F
:103ED00049332E32324436352E36360A4D39303695
:103EE00020453936300A4D393030204B302E3035B0
:103EF0000A4D3530300A4D31313720483137357C65
:103F0000302E35306D6D7C4E4B4C2D504C20435532
:103F100000483137357C302E35306D6D7C4E4B4C42
:103F20002D504C2043550048532B7C312E32306DA0
:103F30006D7C48524420535445454C0048537C30D6
:103F40002E38306D6D7C48524420535445454C000A
:103F500048457C302E35306D6D7C4852442053549A
:103F600045454C0053457C302E35306D6D7C4E4BB5
:103F70004C2D504C20435500534C7C302E32356D27
:103F80006D7C4E4B4C2D504C204355004D313735F8
:103F900076327C302E35306D6D7C43524220435555
:103FA00000534B3238357C302E35306D6D7C4252AB
:103FB00041535300534B3137357C302E35306D6DC6
:103FC0007C4252415353005061726B20666F7220E5
:103FD00054482053776170004D61696E204D656EC5
:103FE00075004572726F722077726974696E67200E
:103FF000746F20454550524F4D210A0053544F5085
:104000005045442E20005072696E7465722073749E
:104010006F707065642064756520746F20657272BE
:104020006F72732E204669782074686520657272FD
:104030006F7220616E6420757365204D39393920A7
:10404000746F20726573746172742E202854656DCC
:10405000706572617475726520697320726573652D
:10406000742E205365742069742061667465722013
:1040700072657374617274696E67290A004E6F20ED
:10408000436865636B73756D2077697468206C692C
:104090006E65206E756D6265722C204C61737420A4
:1040A0004C696E653A20004E6F20436865636B7300
:1040B000756D2077697468206C696E65206E756D0A
:1040C0006265722C204C617374204C696E653A20D5
:1040D00000636865636B73756D206D69736D6174E2
:1040E00063682C204C617374204C696E653A200023
:1040F0004C696E65204E756D626572206973206E25
:104100006F74204C617374204C696E65204E756D20
:104110006265722B312C204C617374204C696E6582
:104120003A20004D3131300053657269616C207363
:104130007461747573206D69736D617463680A00CE
:1041400053442072656164206572726F720A004880
:104150006F74656E642049646C652054696D656F89
:10416000757400486F74656E642049646C652054F2
:10417000696D656F75740A004265642049646C65F9
:104180002054696D656F7574004265642049646CE4
:10419000652054696D656F75740A006D41290020B2
:1041A000647269766572206F76657274656D70658C
:1041B000726174757265207761726E696E67212015
:1041C00028003A20002063757272656E7420646561
:1041D0006372656173656420746F20006D4129000E
:1041E00020647269766572206F76657274656D7091
:1041F00065726174757265207761726E696E672190
:104200002028003A20002063757272656E74206465
:10421000656372656173656420746F20006D412968
:104220000020647269766572206F76657274656DC0
:104230007065726174757265207761726E696E6700
:10424000212028003A20002063757272656E742068
:1042500064656372656173656420746F20006D41ED
:10426000290020647269766572206F7665727465C4
:104270006D7065726174757265207761726E696EBA
:1042800067212028003A20004B494C4C206275746D
:10429000746F6E2F70696E0A002121204B494C4CBF
:1042A000206361757365642062792000746F6F20EC
:1042B0006D75636820696E616374697665207469E1
:1042C0006D65202D2063757272656E7420636F6D4D
:1042D0006D616E643A20002121204B494C4C2063D3
:1042E0006175736564206279200070617573650083
:1042F0004D363030204530205530204C300020667F
:10430000696C616D656E745F72756E6F7574200097
:1043100066696C616D656E745F72756E6F75742021
:10432000540046696C616D656E7452756E6F75747C
:104330002054004D656469612052656D6F76656437
:10434000004D6564696120496E736572746564002F
:104350004D313030305300627573793A2070617599
:1043600073656420666F7220696E7075740A0062EE
:104370007573793A2070617573656420666F722079
:10438000757365720A00627573793A2070726F6393
:10439000657373696E670A00506C656173652052BE
:1043A00065736574005052494E5445522048414C43
:1043B0005445440025533A20255300706F776572A9
:1043C0006F6666004B494C4C45442E200050726984
:1043D0006E7465722068616C7465642E206B696C04
:1043E0006C28292063616C6C6564210A0065636830
:1043F0006F3A004572726F723A0066616C736500C5
:104400007472756500202864697361626C65642943
:104410000A0020280041424C2041646A7573746D83
:10442000656E74205A005A20466164653A20002067
:1044300028656E61626C6564290A0041626F766569
:104440000053616D65205A2061730042656C6F777F
:10445000004175746F20426564204C6576656C6917
:104460006E673A2042494C494E45415200204E6FFA
:104470007A7A6C65290A00202620002D43656E7427
:104480006572002D46726F6E74002D4261636B0081
:104490002028416C69676E65642057697468002044
:1044A000284D6964646C650020284C6566740020A2
:1044B0002852696768740050726F6265204F6666A3
:1044C00073657420580050726F62653A20424C54F4
:1044D0004F5543480A004D616368696E6520547901
:1044E00070653A2043617274657369616E0A0042B7
:1044F000696C696E656172204C6576656C696E6782
:1045000020477269643A0A003E3E3E003C3C3C0053
:104510007365745F6265645F6C6576656C696E6710
:104520005F656E61626C65640072657365745F627D
:1045300065645F6C6576656C0A00203A204C657690
:10454000656C696E67204F4E0A0020206375727299
:10455000656E745F706F736974696F6E3D00203AA9
:10456000204C6576656C696E67204F46460A0020D0
:104570002063757272656E745F706F736974696FB2
:104580006E3D0020746F2000424C546F75636820AC
:1045900066726F6D2000424C546F756368204465ED
:1045A000706C6F79204661696C65640A00626C7496
:1045B0006F7563682E6465706C6F795F70726F637E
:1045C000282920656E640A00424C546F7563682088
:1045D000414C41524D206F72205452494747455239
:1045E000206166746572204445504C4F592C2072EE
:1045F00065636F766572696E670A00424C546F7529
:104600006368204445504C4F59207265717565733D
:104610007465640A00424C546F7563682053746F6C
:1046200077204661696C65640A00626C746F75631B
:10463000682E73746F775F70726F63282920656EC0
:10464000640A00424C546F75636820414C41524DDE
:10465000206F722054524947474552206166746565
:10466000722053544F572C207265636F76657269C0
:104670006E670A00424C546F7563682053544F575D
:10468000207265717565737465640A005072696E95
:1046900074696E67204F626A65637400204600206B
:1046A000570020204D32303720530020460020573D
:1046B0000020204D32303820530020204D32303938
:1046C0002053006E6F74696669636174696F6E2050
:1046D000006E6F74696669636174696F6E20006251
:1046E0006567696E00656E640073686F7700627558
:1046F00074746F6E00486F74656E6420746F6F2001
:10470000636F6C640A0053656E64204D313038204D
:10471000746F20726573756D650A00496E736572FA
:10472000742066696C616D656E7420616E642073BF
:10473000656E64204D3130380A00526568656174D9
:1047400020446F6E6500526568656174696E672EFE
:104750002E2E00526568656174004865617465724B
:104760002054696D656F75740053656E64204D311A
:10477000303820746F2068656174206E6F7A7A6CAF
:10478000650A004E6F7A7A6C65205061726B6564C1
:104790000070617573656400486561642063616ED3
:1047A0006E6F74206265207061726B656400506189
:1047B000757365004D323453004D32332000473954
:1047C000322E394500473146004731463630305A9F
:1047D000004731463330303058004D3130365000CC
:1047E0004D31303953004D32303044004739322E8C
:1047F000395A004D3432305300473238523058590C
:10480000004731463630305A004739322E395A0087
:104810004739322E394530004D31303953004D3152
:10482000393053004D3432305330002568753A2505
:10483000303268750025303268753A253032687537
:104840000025303268752725303268750025687577
:10485000642025303268753A25303268750044721C
:1048600069766572206572726F7200636F696C2081
:1048700073686F727420636972637569740A006F7C
:1048800076657274656D70657261747572650A0023
:1048900020647269766572206572726F7220646539
:1048A0007465637465643A203078004C4F57004853
:1048B000494748004F4B004572726F723A20416C75
:1048C0006C200020636F6E6E656374696F6E2E2EB0
:1048D0002E200054657374696E6720004C4F57009A
:1048E00048494748004F4B004572726F723A204169
:1048F0006C6C200020636F6E6E656374696F6E2E42
:104900002E2E200054657374696E6720004C4F573B
:104910000048494748004F4B004572726F723A2079
:10492000416C6C200020636F6E6E656374696F6EFE
:104930002E2E2E200054657374696E6720004C4F34
:10494000570048494748004F4B004572726F723A12
:1049500020416C6C200020636F6E6E656374696F1C
:104960006E2E2E2E200054657374696E67200054DD
:104970004D4320434F4E4E454354494F4E204552E0
:10498000524F52004F46460A004661646520486512
:10499000696768742000426564204C6576656C69BF
:1049A0006E6720004661696C656420746F20656ED7
:1049B00061626C6520426564204C6576656C696E49
:1049C000670A00496E76616C6964206D6573682EB4
:1049D0000A006D6F76655F7A5F61667465725F70FD
:1049E000726F62696E6700203A203E2070726F62BB
:1049F000696E6720636F6D706C6574650A002020B6
:104A000063757272656E745F706F736974696F6ECF
:104A10003D0050726F62696E6720506F696E74005E
:104A200025532025692F2569002E0A002F0050727A
:104A30006F62696E67206D65736820706F696E7450
:104A40002000202844525952554E2900473239201F
:104A50004175746F20426564204C6576656C696EA3
:104A600067003F20284C2C522C462C4229206F7581
:104A700074206F6620626F756E64732E0A00204288
:104A800000204600205200473239204C003F285673
:104A9000296572626F7365206C6576656C20696D3F
:104AA000706C61757369626C652028302D34292E15
:104AB0000A00426164205A2076616C75650A004ED6
:104AC0006F2062696C696E65617220677269640A41
:104AD000004732384C30003E204175746F2D6C65B4
:104AE00076656C206E6F74206E65656465642C203D
:104AF000736B69700A0047323900426564004531C2
:104B000000626564002C2073797374656D20737482
:104B10006F7070656421204865617465725F4944F7
:104B20003A20004572723A204D415854454D50008C
:104B30004D415854454D50207472696767657265E0
:104B4000640048656174696E67204661696C6564DC
:104B50000048656174696E67206661696C65640010
:104B60004D353234004D3131322053687574646FE5
:104B7000776E001000AD0330016A0150022B017006
:104B8000030A019004F500B005E500D006D800F056
:104B900007CE001009C500300ABE00500BB70070E8
:104BA0000CB100900DAB00B00EA600D00FA200F02B
:104BB000109D00101299003013950050149200704F
:104BC000158E0090168B00B0178700D0188400F067
:104BD000198100101B7E00301C7B00501D79007075
:104BE0001E7600901F7300B0207000D0216E00F080
:104BF000226B001024690030256600502663007087
:104C000027610090285E00B0295C00D02A5900F08E
:104C10002B5600102D5400302E5100502F4E007096
:104C2000304B0090314800B0324500D0334200F0A4
:104C3000343E0010363B00303737005038330070B8
:104C4000392E00903A2900B03B2300D03C1B00F0E5
:104C50003D1100103F0100F03F00004572723A2004
:104C60004D494E54454D50004D494E54454D5020F0
:104C700074726967676572656400544845524D41B6
:104C80004C2052554E4157415900546865726D6130
:104C90006C2052756E6177617900202F0020403AB8
:104CA0000020573A007C3C3E5E2B3D3F2F5B5D3B36
:104CB0002C2A225C0043616E6E6F74206F70656EEB
:104CC0002073756264697220005761726E696E6745
:104CD0003A004D6564696120496E697420466169D6
:104CE0006C0053442063617264206F6B0A006F7024
:104CF000656E526F6F74206661696C65640A007638
:104D00006F6C756D652E696E6974206661696C657E
:104D1000640A004E6F20534420636172640A00539A
:104D20004420636172642072656C65617365640A16
:104D3000000A4D3234004D3233202573002E0A0014
:104D40006F70656E206661696C65642C2046696CC5
:104D5000653A200046696C652073656C656374650F
:104D6000640A002053697A653A200046696C652020
:104D70006F70656E65643A2000454E44205355427D
:104D8000524F5554494E450A002220706F7300223D
:104D900020706172656E743A2200535542524F552D
:104DA00054494E452043414C4C20746172676574F0
:104DB0003A220053756263616C6C204F76657266AF
:104DC0006C6F77004578636565646564206D617814
:104DD00020535542524F5554494E452064657074D6
:104DE000683A002E0A0044656C6574696F6E20662F
:104DF00061696C65642C2046696C653A20004669DF
:104E00006C652064656C657465643A004E6F74204F
:104E10005344207072696E74696E670A00534420AF
:104E20007072696E74696E672062797465200057CC
:104E3000726974696E6720746F2066696C653A20C8
:104E400000667265736800646F696E67002066694A
:104E50006C653A20004E6F7720002F6175746F25C6
:104E6000632E6700000020002300260029002C008C
:104E70002F003200000100000301060109010000BB
:104E80000000000000000000000000000000000022
:104E90000000000000000000000000000000000012
:104EA000000C000000000000000C000000000000EA
:104EB00000120000000000000023000000000000BD
:104EC0000021000000000000004C800000000000F5
:104ED000005E800000000000009240000000000022
:104EE00000A140000000000001212000000000009F
:104EF000027F90000000000002001000000000008F
:104F000007FFF80000000000040008000000000097
:104F10000800040000000000080006000000000077
:104F20001000020000000000301E01000000000020
:104F3000207F81000000000041FFE08000000000B1
:104F400043FCF08000000000873B78400000000137
:104F50008EDBFC60000000010FEBCC2000000002A3
:104F60001FEDB610000000021FDEB61000000004A6
:104F700039CD7F080000000436E0FF08000000087B
:104F80007EC0BB84000000187F005D86000000101A
:104F90007FC0ED82000000203CC0730100000020B3
:104FA0003B337F01000000701BE77E03800000C8D8
:104FB0001DEEDE04C00000880FDEDC04400001248A
:104FC0000FDF3C092000012607DBF81920000272E0
:104FD00003E7F0139000025101FFE02290000489E2
:104FE000007F802448000904801E004824000BFE36
:104FF000400000DFF40010004000008002001FFFAE
:10500000FFFFFFFFFE0000000000000000000000A6
:10501000000000000000000000000000000010225E
:10502000103C3C0E1F00102210042211040010221C
:10503000100822110400102210083C110400102254
:1050400010102211040010221020221104001E1C36
:105050001E3C3C0E040000000000000000000000A8
:105060000000000000000000000000000000000040
:105070000000000000000000000000000000000030
:105080000000000000000000000000000000000020
:105090000000000000000000000000000000000010
:1050A0000000000000000000000000000000000000
:1050B000000000000000000000000000424C546F9F
:1050C00075636820536574204D6F6465202D200042
:1050D0004D3137205A0A4D31313720536964654BC1
:1050E00069636B205265616479002020506C616EA9
:1050F0006E657242756666657242797465733A20B0
:10510000002046726565204D656D6F72793A20000A
:1051100020436F6D70696C65643A20417072202085
:105120003420323032340A00204C617374205570C0
:1051300064617465643A20323032342D30312D315F
:1051400037207C20417574686F723A204C756C7AF8
:10515000626F740A004D61726C696E20322E312EBE
:10516000332E302E32370A0020536F667477617207
:10517000652052657365740A002057617463686422
:105180006F672052657365740A002042726F776EF4
:10519000206F75742052657365740A002045787419
:1051A00065726E616C2052657365740A00506F778A
:1051B000657255700A0073746172740A004730207A
:1051C0005A283234342E35202B20302946323530BF
:1051D000300A4732370A4D3532340A4D31303420E7
:1051E0005330004D31303031006572726F7220776C
:1051F000726974696E6720746F2066696C650A0055
:10520000446F6E6520736176696E672066696C65B0
:105210002E0A004D323900456E6473746F7073004E
:105220002553202563202563202563202563002046
:105230005A3A0020593A0020583A00656E64737457
:105240006F7073206869743A2000436F6C6420505B
:10525000756C6C005450550041425300504C410055
:1052600020583A001000C90210012C01400122010F
:1052700070011801B0010E01F00104015002FA00A2
:10528000B002F0003003E600D003DC009004D2004E
:105290007005C800A006BE000008B400B009AA004E
:1052A000D00BA000600E960060118C0000158200EB
:1052B00020197800C01D6E00A0226400B0275A009B
:1052C000902C500000314600E0343C001038320091
:1052D000903A2800603C1E00A03D1400803E0A0069
:1052E000203F000000002100240027002A002D009C
:1052F0003000330001010000040107010A01000031
:105300002200250028002B002E003100340002016D
:105310000000050108010B01050505050705080842
:105320000808020202020A0A08080404040401012F
:105330000101010101010303030303030303040744
:1053400007070C0C0C0C0C0C0C0C020202020606DB
:105350000606060606060B0B0B0B0B0B0B0B0102CE
:105360001020200808102040102040800201020177
:10537000080402010102040810204080804020102F
:105380000804020180040201804020100804020188
:1053900008040201010204081020408001020408F0
:1053A0001020408000000A0B02090C0D0E080703B4
:1053B00004010000000000000000000000000000E8
:1053C00000000000000000000000000000000000DD
:1053D000121110000000000000000000000000009A
:1053E00000000000000000000000302E30323500C8
:1053F000302E3100312E30004D6F766520246D6DDA
:105400000031300000806743000080430080744317
:105410004D6F76652041786973004D6F7665202A5F
:10542000004D6F76652040005C52585254524A52EB
:105430004368616E67652046696C616D656E7400D6
:10544000556E6C6F61642046696C616D656E7400A9
:105450004C6F61642046696C616D656E74005072BA
:10546000656865617420437573746F6D0050726573
:10547000686561742024004261636B0020005365FD
:105480006C6563742066726F6D204D6564696100A0
:105490002000200020746F6F206C6F6E672065788D
:1054A00074727573696F6E2070726576656E74655F
:1054B000640A0020636F6C64206578747275736988
:1054C0006F6E2070726576656E7465640A0044695B
:1054D0007361626C6552756E6F757400507572679A
:1054E000654D6F72650050617573656400436F6E42
:1054F00074696E7565004C6F61642046696C616DFE
:10550000656E74205400496E736572742066696C10
:10551000616D656E7420616E642073656E64204DEC
:105520003130380A002F2F616374696F6E3A007250
:105530006573756D6564004469736D6973730052BA
:105540006573756D696E6700290A005D2C20002067
:10555000746F2000205B00646F5F7A5F636C65612D
:1055600072616E636528006D6D290A005472696767
:105570006765726564206561726C79202861626F6D
:10558000766520004E6F20747269676765722E0A17
:10559000002050726F6265206661696C21202D20A9
:1055A000002C202E2E2E290A002C20003E20747262
:1055B000795F746F5F70726F6265282E2E2E2C20BB
:1055C00000534C4F5700536C6F772050726F6265D9
:1055D0003A0A0050726F6265204C6F7720506F69F5
:1055E0006E743A200050726F62653A3A72756E5F5F
:1055F0007A5F70726F626500205A3A200020593A33
:10560000200042656420583A200050726F62696E33
:1056100067204661696C65640A0050726F62696E4A
:1056200067204661696C65640020706F696E740A5A
:10563000002D72656C6174697665004D6F7665202A
:10564000746F2070726F6265004E6F7420526561D6
:10565000636861626C650A00203A200A00202063BA
:10566000757272656E745F706F736974696F6E3D89
:10567000005F72656C6174697665290A002C2000F0
:105680002C20002C20002C20002E2E2E28005072C2
:105690006F62653A3A70726F62655F61745F706FD6
:1056A000696E7400486F6D696E67204661696C654C
:1056B0006400FFFFFF290A005D005B002C20002C26
:1056C00020002E2E2E2800646F5F686F6D696E6754
:1056D0005F6D6F7665006052255721571D57204535
:1056E00000205A0020590020204D39322058005304
:1056F000746570732070657220756E697400220A7B
:1057000000556E6B6E6F776E20636F6D6D616E64AA
:105710003A2022002042002050006F6B0020453AC2
:1057200000205A3A0020593A00583A006F6B0A009C
:10573000526573656E643A200054617A205369643F
:10574000654B69636B203734372052656164792E6D
:10575000005072696E74696E672E2E2E0050726949
:105760006E742050617573656400850251021124C6
:105770001FBECFEFD1E2DEBFCDBF00E00CBF84B7CC
:105780008093211D14BE0FB6F894A89580916000F7
:10579000886180936000109260000FBE14E0A0E06A
:1057A000B2E0ECE9FDE603E00BBF02C007900D920A
:1057B000AA34B107D9F72DE1AAE4B4E001C01D92E3
:1057C000A132B207E1F71BE2C6EBDBE200E006C064
:1057D00021970109802FFE010F94BAB1C53BD10773
:1057E00080E00807A9F70F944A9C0D94BCB60C946E
:1057F000000090E080E00895CF93DF93C091F61110
:10580000D091F71181E0CE31D105E4F020E030E015
:1058100040E05FE36091F2117091F3118091F41117
:105820009091F5110F94CAB10F9436B36C1B7D0B98
:1058300077FF03C071956195710981E0633071054F
:105840000CF080E0DF91CF91089590E080E0089522
:105850002091F61A833021F425FD0CC024FD0CC0E4
:1058600030E0A90102C0559547958A95E2F7CA0133
:105870008170089581E0089580E0089580917A0410
:1058800084FD0BC080917C0487FD07C090917D044E
:10589000937081E019F480E0089581E00895EF921B
:1058A000FF920F931F93CF93DF93EC018B017A014B
:1058B0008A859B858617970731F0888199810F9497
:1058C000E0481B870A87B701888199810F94778602
:1058D0002E813F81820F932F911D9F838E8390E0B5
:1058E00080E0DF91CF911F910F91FF90EF9008958D
:1058F0009F92AF92BF92CF92DF92EF92FF920F935F
:105900001F93CF93DF93EC018B01942EA52E8A85F4
:105910009B858617970731F0888199810F94E0481D
:105920001B870A8788859985019649F5BC800A817D
:105930008E81080FC880D980D6015596ED91FC91D3
:10594000C6011995B80EE92CFA2C10E0F701219147
:105950007F01211127C08E819F81810F911D9F831F
:105960008E8390E080E0DF91CF911F910F91FF90A7
:10597000EF90DF90CF90BF90AF909F9008950E81F1
:105980001F81692D7A2D888199810F947786800FE8
:10599000912F911D288539852817390738F681E020
:1059A00090E0E1CF4B2D602FC6010F943B4A080FCA
:1059B000180FCCCFDF92EF92FF920F931F93CF93EC
:1059C000DF93EC01D62E1CAD0BAD7C0184E0E80E1C
:1059D000F11CE98DFA8DC7011995412F480F2D2D26
:1059E000602FC7010F943B4A9BAD890F8BAF81E0BD
:1059F00090E0DF91CF911F910F91FF90EF90DF909A
:105A00000895CF93DF93EB010F94B814882319F016
:105A10000F940014EB01CE01DF91CF910895CF9345
:105A2000C62FBC0187E692E10F94681F8AE30F94AA
:105A3000961E80E38C0F0F94961ECF910D946620D6
:105A400083E694E10F945A1F0F94662060E083E58B
:105A500094E10E940F2D60E08EE394E10E940F2DEF
:105A600061E087E394E10E940F2D61E08CE294E114
:105A70000E940F2D60E08DE194E10E940F2D61E006
:105A80008DE094E10E940F2D60E084E094E10E949B
:105A90000F2D61E08AEF93E10E940F2D61E080EF0E
:105AA00093E10E940F2D61E089EE93E10E940F2D9A
:105AB00061E081EE93E10E940F2D61E083ED93E1BF
:105AC0000E940F2D61E085EC93E10E940F2D60E0B4
:105AD00086EB93E10E940F2D60E088EA93E10E943B
