:100000000C94D12B0C94D62E0C94012F0C942C2FE5
:100010000C94572F0C94822F0C94AD2F0C94D82F46
:100020000C9403300C94022C0C94022C0C94022C93
:100030000C94022C0C94022C0C94022C0C94022C88
:100040000C94022C0C9497C00C94022C0C94022C4F
:100050000C94022C0C94022C0C94F7B30C94042CEA
:100060000C94022C0C94AC9F0C9458A00C94022C71
:100070000C94022C0C94022C0C94022C0C94022C48
:100080000C94022C0C94022C0C94022C0C94022C38
:100090000C94022C0C94022C0C94022C0C94022C28
:1000A0000C94022C0C94022C0C94022C0C94022C18
:1000B0000C94022C0C94022C0C94022C0C94022C08
:1000C0000C94022C0C94022C0C94022C0C94022CF8
:1000D0000C94022C0C94022C0C94022C0C94022CE8
:1000E0000C94022C4C2D512D562D602D6A2DE32D94
:1000F000742D7C2D842D8E2D982DA22DB12DBB2DF0
:10010000E32DC52DCF2DD92D072E0A2EF92DFD2D2E
:10011000032E412E0E2E122E182E1C2E202E262E91
:100120002A2E2E2E412E342E382E3C2EAC628C627E
:1001300092628F62956298629B62A7629E62B962C8
:10014000A162A462E79CE59C099D069D049D3B9DE0
:10015000389D369D949D629D5F9D5D9DDF9FE59FCF
:10016000F69F01A009A01EA00DA01EA011A015A021
:100170001EA01BA0084AD73B3BCE016E84BCBFFD2E
:10018000C12F3D6C74319ABD56833DDA3D00C77F67
:1001900011BED9E4BB4C3E916BAAAABE0000008000
:1001A0003F05A84CCDB2D44EB93836A9020C50B98F
:1001B000918688083CA6AAAA2ABE000000803F00BB
:1001C0000D9423370D9433460D94E7220D94274B5D
:1001D0004E414E494E495459494E46CDCCCC3D0A2C
:1001E000D7233C17B7D13877CC2B329595E6241F0F
:1001F000B14F0A000020410000C84200401C4620C8
:10020000BCBE4CCA1B0E5AAEC59D7400000A0B0240
:10021000090C0D0E08070304010000000000000097
:1002200000000000000000000000000000000000CE
:10023000000000000000001211100000000000008B
:1002400000000000000000000000000000000000AE
:1002500000010210202008081020401020408002D9
:1002600001020108040201010204081020408080FC
:100270004020100804020180040201804020100880
:100280000402010804020101020408102040800158
:100290000204081020408005050505070508080828
:1002A00008020202020A0A08080404040401010107
:1002B000010101010103030303030303030407070F
:1002C000070C0C0C0C0C0C0C0C02020202060606AD
:1002D00006060606060B0B0B0B0B0B0B0B00002088
:1002E000002300260029002C002F0032000001000E
:1002F0000003010601090100002200250028002B4F
:10030000002E003100340002010000050108010B3D
:100310000100002100240027002A002D00300033B6
:100320000001010000040107010A0101060D00FEA1
:1003300009016602D620FFFE0BFE0AFE0D006022B8
:100340001969808080808080800080183363A0A03D
:10035000A00357675050F850F85050025969207860
:10036000A0A0702828F02002596948A85010204009
:1003700050A89002586840A0A040A0989068281308
:1003800063808080113B6B20404080808080804073
:100390004020113B6B8040402020202020404080A6
:1003A00006556520A870A8200455652020F8202057
:1003B000113363604080065161F811336340E040BF
:1003C00002596908081010204040808002596920B5
:1003D00050888888888850200259692060A0202091
:1003E000202020F80259697088880810204080F881
:1003F000025969F8081020700808887002596910BD
:100400001030505090F81010025969F88080B0C830
:100410000808887002596970888080F08888887020
:10042000025969F8081010202040404002596970B4
:100430008888887088888870025969708888887868
:100440000808887011386840E040000040E0401122
:10045000386840E040000060408002596908102080
:10046000408040201008045464F80000F8025969E4
:100470008040201008102040800259697088880848
:10048000102020002002596970888898A8A8B080A0
:10049000780259692050888888F8888888025969C4
:1004A000F048484870484848F00259697088808090
:1004B0008080808870025969F04848484848484818
:1004C000F0025969F8808080F0808080F8025969D4
:1004D000F8808080F08080808002596970888080F8
:1004E000809888887002596988888888F888888800
:1004F00088123969E040404040404040E00259697C
:10050000381010101010109060025969888890A05F
:10051000C0A0908888025969808080808080808017
:10052000F80259698888D8A8A888888888025969F3
:1005300088C8C8A8A8989888880259697088888847
:100540008888888870025969F0888888F08080805F
:1005500080015A6A70888888888888A8700802593B
:1005600069F0888888F0A09088880259697088802E
:10057000807008088870025969F820202020202007
:10058000202002596988888888888888887002595C
:100590006988888888505050202002596988888846
:1005A00088A8A8A8A850025969888850502050509F
:1005B00088880259698888505020202020200259BC
:1005C00069F808101020404080F8113B6BE08080F3
:1005D00080808080808080E0025969808040402057
:1005E00010100808113B6BE0202020202020202044
:1005F00020E0085363205088015161F82A2262806C
:100600004002566670087888986802596980808030
:10061000F088888888F0025666708880808870022A
:10062000596908080878888888887802566670882A
:10063000F880887002596930484040F0404040409E
:1006400000586870888888780888700259698080A6
:1006500080B0C8888888881238684000C040404010
:1006600040E0004A6A1000301010101090906002B4
:10067000596980808090A0C0A09088123969C040DC
:10068000404040404040E0025666D0A8A8A8A88854
:10069000025666B0C888888888025666708888883E
:1006A0008870005868F0888888F0808080005868DA
:1006B0007888888878080808025666B0C8808080E4
:1006C000800256667088601088700258684040F05A
:1006D00040404048300256668888888898680256AC
:1006E000668888885050200256668888A8A8A85036
:1006F000025666885020205088005868888888985C
:1007000068088870025666F810204080F8015B6B1C
:100710001820202020C02020202018221969808045
:1007200080808080808080015B6BC020202020182A
:1007300020202020C008536348A890FFFFFFFFFF40
:10074000FFFFFFFFFFFFFFFFFFFFFFFFFFFFFFFFB9
:10075000FFFFFFFFFFFFFFFFFFFFFFFF0D00602216
:1007600019698000808080808080800358682070B4
:10077000A8A0A0A8702002596930484040E040403D
:1007800048B003566688705050708802596988884E
:100790005050F820F8202022196980808080008045
:1007A000808080124A6A60908060909060109060B3
:1007B0001A3262A0A00359697088A8D8C8D8A8883E
:1007C00070045767700878887800F80356662850D8
:1007D000A0A05028045363F80808163161E00359BB
:1007E000697088E8D8D8E8D888700A5161F8174449
:1007F00064609090600357672020F8202000F8077D
:10080000356540A02040E007356540A04020C02A63
:10081000226240800058688888888898E880800232
:10082000596978E8E8E8E868282828262161C02086
:100830002262408007356540C04040E00457677041
:100840008888887000F8035666A050282850A002B7
:100850005A6A40C04040E00818283808025A6A40E6
:10086000C04040E01028081038025A6A40A04020DA
:10087000A0481828380802596920002020408088A4
:100880008870025A6A40200020508888F8888802C0
:100890005A6A10200020508888F88888025A6A30E6
:1008A000480020508888F88888025A6A285000201A
:1008B000508888F88888025A6A50500020508888EA
:1008C000F88888025A6A20502020508888F8888842
:1008D00002596958A0A0A0B0E0A0A0B8005B6B705E
:1008E00088808080808088702040025A6A40200082
:1008F000F88080F08080F8025A6A102000F880802A
:10090000F08080F8025A6A304800F88080F08080D9
:10091000F8025A6A505000F88080F08080F8123A4D
:100920006A804000E04040404040E0123A6A204087
:1009300000E04040404040E0124A6A609000E040E1
:1009400040404040E0123A6AA0A000E040404040F1
:1009500040E0025969F0484848E8484848F0025ADF
:100960006A2850008888C8A8988888025A6A402057
:100970000070888888888870025A6A102000708801
:100980008888888870025A6A304800708888888809
:100990008870025A6A285000708888888888700297
:1009A0005A6A505000708888888888700355658816
:1009B00050205088015B6B08709898A8A8A8C8C8F8
:1009C0007080025A6A40200088888888888870026F
:1009D0005A6A10200088888888888870025A6A308D
:1009E000480088888888888870025A6A5050008831
:1009F000888888888870025A6A1020008888502069
:100A000020202002596980F0888888F08080800248
:100A10005969609090A0A0908888B00259694020E0
:100A2000007008788898680259691020007008786A
:100A30008898680259693048007008788898680278
:100A40005969285000700878889868025969505090
:100A500000700878889868025A6A30483000700838
:100A600078889868025666702870A0A85000586868
:100A7000708880808870204002596940200070880A
:100A8000F88088700259691020007088F88088709A
:100A90000259693048007088F8808870025969509E
:100AA00050007088F8808870123969804000C0401A
:100AB000404040E0123969204000C040404040E0E2
:100AC000124969609000C040404040E0123969A07E
:100AD000A000C040404040E0025A6A5020601070C0
:100AE0008888888870025969285000B0C88888882A
:100AF0008802596940200070888888887002596986
:100B00001020007088888888700259693048007009
:100B10008888888870025969285000708888888879
:100B20007002596950500070888888887003576730
:100B3000202000F8002020015868087098A8A8C854
:100B40007080025969402000888888889868025916
:100B500069102000888888889868025969304800A0
:100B600088888888986802596950500088888888E1
:100B70009868005B6B1020008888889868088870E7
:100B8000005A6A8080B0C88888C8B08080005B6BDB
:100B9000505000888888986808887001050700FE12
:100BA0000500FB01F220FFFE05FE05FE02004002EB
:100BB00015258080800080053242A0A00255655036
:100BC000F850F8500146562070C030E020025565BC
:100BD0009010204048025565608068906805122298
:100BE000808002253540808080400225358040404D
:100BF0004080043343A040A003334340E04001223F
:100C0000324080043141E002112180025565081014
:100C10002040800245556090909060022535C0408C
:100C2000404040024555E0106080F0024555E0101C
:100C30006010E00245552060A0F020024555F0808C
:100C4000E010E00245556080E09060024555F010EC
:100C5000204040024555609060906002455560908C
:100C600070106003132380008002142480008080B1
:100C70000235452040804020033343E000E0023548
:100C8000458040204080024555E0106000400255FC
:100C9000657088B8A870024555609090F090024544
:100CA00055E090E090E0023545608080806002452C
:100CB00055E0909090E0023545E080E080E002351C
:100CC00045E080E080800245557080B0907002451C
:100CD000559090F09090023545E0404040E002454C
:100CE00055301010906002455590A0C0A09002357C
:100CF0004580808080E002556588D8A888880245B4
:100D00005590D0B09090024555609090906002450B
:100D100055E09090E08001465660909090601002FF
:100D20004555E09090E09002455570806010E002DB
:100D30003545E0404040400245559090909060021B
:100D400045559090A0A04002556588A8A8A85002DB
:100D500045559090609090024555909070106002BB
:100D60003545E0204080E0022535C0808080C0020B
:100D700055658040201008022535C0404040C00520
:100D8000324240A0024151F00522328040024454D8
:100D90007090907002455580E09090E0023444607D
:100DA000808060024555107090907002445460B08D
:100DB000C0600235452040E04040004656709090AB
:100DC00070106002455580E09090900215258000DB
:100DD00080808000273740004040404080024555D9
:100DE0008090A0E09002152580808080800254646D
:100DF000F0A8A8A8024454E0909090024454609057
:100E00009060004656E09090E080800046567090DA
:100E100090701010023444A0C0808002445470C00E
:100E200030E002354540E04040200244549090902C
:100E3000700244549090A040025464A8A8505002FC
:100E40003444A04040A0004656909090701060023C
:100E50004454F02040F00235456040804060021567
:100E6000258080808080023545C0402040C00542FA
:100E70005250A0FFFFFFFFFFFFFFFFFFFFFFFFFF3D
:100E8000FFFFFFFFFFFFFFFFFFFFFFFFFFFFFFFF72
:100E9000FFFFFFFF020040FFFFFFFFFFFFFFFFFF1D
:100EA000FFFFFFFFFFFFFFFFFFFFFFFFFFFFFFFF52
:100EB000FFFFFFFFFFFFFFFFFFFFFFFFFFFFFFFF42
:100EC000FFFFFFFFFFFFFFFFFFFFFFFFFFFFFFFF32
:100ED000FFFFFFFFFFFFFFFFFFFFFFFFFFFFFFFF22
:100EE000FFFFFFFFFFFFFFFFFFFFFFFFFFFFFFFF12
:100EF000FFFFFFFFFFFF01050800FF06012102358C
:100F000020FFFF07FF06FF09005022165680808051
:100F1000800080153353A0A0A00257575050F850BE
:100F2000F850500257572070A07028702013355584
:100F300080A040A02002475740A0A040A0A050257C
:100F40001353808080122656408080808040122675
:100F5000568040404040800245559060F0609002CD
:100F600055552020F8202011335360408004415112
:100F7000F011335340E0400246561010204080806C
:100F800012365640A0A0A0A04012365640C04040A5
:100F900040E00246566090106080F0024656F02015
:100FA000601090600246562060A0F0202002465655
:100FB000F080E01090600246566080E09090600201
:100FC0004656F010202040400246566090609090B7
:100FD00060024656609090701060122555C0C000A7
:100FE000C0C0113656606000604080123656204006
:100FF00080804020034353F000F01236568040209A
:1010000020408012365640A0204000400158583001
:101010004898A8A8904030024656609090F0909072
:10102000024656E090E09090E00246566090808044
:101030009060024656E090909090E0024656F08014
:10104000E08080F0024656F080E0808080024656C4
:10105000609080B090600246569090F09090901210
:101060003656E040404040E002465670202020A026
:101070004002465690A0C0A0A090024656808080B4
:101080008080F002465690F0F09090900246569084
:10109000D0F0B0B0900246566090909090600246BA
:1010A00056E09090E08080014757609090D0B0600B
:1010B00010024656E09090E09090024656609040B4
:1010C000209060123656E040404040400246569024
:1010D000909090906002465690909090606002468A
:1010E00056909090F0F090024656909060609090EC
:1010F000025656888850202020024656F010204084
:1011000080F0123656E080808080E0024656808073
:1011100040201010123656E020202020E0163252D7
:1011200040A0014151F01622528040024454709078
:1011300090700246568080E09090E01234546080B7
:10114000806002465610107090907002445460B057
:10115000C060024656205040E04040014555609036
:101160007010600246568080E09090901236564093
:1011700000C04040E01137572000202020A040024E
:101180004656808090E09090123656C040404040D5
:10119000E0025454D0A8A8A8024454E090909002D1
:1011A000445460909060014555E090E08080014596
:1011B000557090701010024454A0D08080123454A6
:1011C00060C020C00246564040E0405020024454D7
:1011D00090909070123454A0A0A04002545488A85B
:1011E000A8500244549060609001455590907090D2
:1011F00060024454F02040F0024757304020C020A5
:101200004030221656808080808080024757C02060
:1012100040304020C006425250A0FFFFFFFFFFFFBA
:10122000FFFFFFFFFFFFFFFFFFFFFFFFFFFFFFFFCE
:10123000FFFFFFFFFFFFFFFFFFFFFF090050221628
:10124000568000808080800146562070A0A07020CB
:101250000246562050E04050A0025555887050700C
:10126000880256568850F820F82022175780808030
:10127000008080800247577080E0907010E0173146
:1012800051A002565670A8C8C8A87014355560A061
:101290006000E003435350A050123353E020201469
:1012A0003151E002565670E8D8E8D870173151E055
:1012B00015335340A04012355540E04000E014354E
:1012C0005540A02040E0143555C020C020C0162253
:1012D000524080014555909090E08002565678E843
:1012E000E868282824115180112252408014355575
:1012F00040C04040E014355540A04000E003435357
:10130000A050A0024757808080A060F0200247577D
:101310008080A0D010207002475780408060A0F0ED
:101320002012365640004080A040024757402060BF
:1013300090F0909002475720406090F090900247C4
:101340005760906090F0909002475750A06090F0E6
:10135000909002475790006090F09090024757603D
:10136000906090F0909002465670A0A0F0A0B0015E
:101370004757609080809060400247574020F0803F
:10138000E080F00247572040F080E080F0024757AD
:101390006090F080E080F00247579000F080E0809D
:1013A000F01237578040E0404040E012375720406D
:1013B000E0404040E012375740A0E0404040E0129B
:1013C0003757A000E0404040E00256567048E848D9
:1013D000487002475750A090D0B0909002475740B5
:1013E00020609090906002475720406090909060FD
:1013F0000247576090609090906002475750A060FD
:1014000090909060024757900060909090601233E7
:1014100053A040A002465670B0B0D0D0E00247576B
:10142000402090909090600247572040909090907C
:1014300060024757609090909090600247579000EC
:1014400090909090600257571020885020202002E2
:10145000465680E09090E0800246566090A0A090B2
:10146000A0024757402000709090700247572040DC
:10147000007090907002475720500070909070025A
:10148000475750A0007090907002465650007090E0
:10149000907002475760906070909070025454F0C2
:1014A00068B0781135556080806040024757402011
:1014B0000060B0C06002475720400060B0C06002CA
:1014C000475760900060B0C060024656500060B060
:1014D000C060123757804000C04040E012375720AC
:1014E0004000C04040E012375740A000C04040E0FC
:1014F000123656A000C04040E0024757A040A0105E
:1015000070906002475750A000E0909090024757BB
:10151000402000609090600247572040006090900B
:10152000600247576090006090906002475750A05B
:101530000060909060024656900060909060123576
:10154000554000E0004002445470B0D0E0024757DC
:10155000402000909090700247572040009090905B
:10156000700247576090009090907002465690002D
:1015700090909070014858204000909070906001C9
:1015800047578080E090E08080014757900090901E
:10159000709060202020200020202020202020008B
:1015A00025753A2530327500253032753A253032AE
:1015B000750025756420253032753A253032750066
:1015C0003FFFF03800703186302387102787902F37
:1015D00087D02F03D02030102078102078102030B2
:1015E000102F03D02F87D027879023871031863084
:1015F0003800703FFFF03FFFF038007030FC3020C3
:10160000FC102078102030102C00D02E31D02F7BF1
:10161000D02F7BD02E31D02C00D02030102078104D
:1016200020FC1030FC303800703FFFF00410400206
:1016300008200208200410400820801041001041BA
:10164000000820800410400000001FFFF81FFFF872
:101650001FFFF81FFFF81FE020102010201010209F
:1016600010202010201030300840048003001FE0BC
:101670003FF03FF03FF01FE01FE03FF03FF03FF052
:101680000FC0078003004572723A207574663820D7
:10169000666F6E74206E6F7420696E697469616C18
:1016A000697A65642E004572723A20757466382036
:1016B000666F6E74206E6F7420696E697469616CF8
:1016C000697A65642E004572723A20757466382016
:1016D000666F6E74206E6F7420696E697469616CD8
:1016E000697A65642E00506C65617365207265735C
:1016F0006574005052494E5445522048414C54455F
:1017000044007F80FFC0FFC0FFC07F807F80FFC09C
:10171000FFC0FFC03F001E000C00FFFFFF0E000EC9
:10172000000E000E000E000E000E000E007FC03FE7
:10173000801F000E00040004000E001F003F807F89
:10174000C00E000E000E000E000E000E000E000E69
:101750000000FE0003FF800783C00E01C00E00E002
:101760001C00E07F00E03E00E01C00E00800E0001C
:1017700000E00001C00E01C00F078007FF0001FC60
:101780000001FC0007FF000F07800E01C00001C030
:101790000000E00800E01C00E03E00E07F00E01CEC
:1017A00000E00E00E00E01C00783C003FF8000FED2
:1017B0000000060C00FE07022603BC017FFE08FEA7
:1017C00008FE05080806000040F0C88888987810D0
:1017D000050808060000C0F88888888888F805058C
:1017E000050600012030F83020050808060000201A
:1017F00070F820202020E00509090600FF2070A8CD
:10180000A8B888887020050606060001E08CEA8CDE
:101810008A0A0509090600FFF8A88888888888A828
:10182000F8050A0A0600FE205050505088A8A888E3
:101830007003030306000340A040FFFFFFFFFFFF0C
:10184000FFFFFFFFFFFFFFFFFFFFFFFFFFFFFFFFA8
:101850000000000605FF0107070602008080808067
:10186000800080030303060105A0A0A0050606066C
:10187000000050F85050F8500509090600FF20708C
:10188000A8A07028A87020050707060000C8C81087
:101890002040989805070706000040A0A040A890A7
:1018A000680103030602058080800309090601FF21
:1018B0002040408080804040200309090601FF80CD
:1018C000404020202040408005070706000020A857
:1018D000702070A8200505050600012020F82020B2
:1018E0000203030601FFC04080050101060003F862
:1018F000020202060100C0C005070706000008102A
:101900001020404080050707060000708898A8C88E
:10191000887003070706010040C040404040E005D2
:101920000707060000708808102040F80507070622
:101930000000F8081030088870050707060000103E
:10194000305090F81010050707060000F880F008E6
:10195000088870050707060000304080F08888700E
:10196000050707060000F8081010202020050707CB
:1019700006000070888870888870050707060000D8
:1019800070888878081060020505060100C0C00054
:10199000C0C00206060601FFC0C000C040800305AB
:1019A000050601012040804020050303060002F8DF
:1019B00000F8030505060101804020408005070767
:1019C0000600007088102020002005070706000090
:1019D0007088B8A8B880700507070600007088886E
:1019E000F8888888050707060000F04848704848CE
:1019F000F005070706000070888080808870050762
:101A000007060000F04848484848F0050707060068
:101A100000F88080F08080F8050707060000F88055
:101A200080F080808005070706000070888080981D
:101A30008870050707060000888888F8888888036A
:101A40000707060100E04040404040E00507070668
:101A5000000038101010109060050707060000887D
:101A600090A0C0A0908805070706000080808080B5
:101A70008080F805070706000088D8A8888888882D
:101A80000507070600008888C8A898888805070702
:101A9000060000708888888888700507070600009F
:101AA000F08888F08080800507070600007088882D
:101AB00088A89068050707060000F08888F0A090C5
:101AC0008805070706000070888070088870050781
:101AD00007060000F8202020202020050707060028
:101AE000008888888888887005070706000088882D
:101AF000888850502005070706000088888888A835
:101B0000A8500507070600008888502050888805DF
:101B100007070600008888502020202005070706B8
:101B20000000F80810204080F80309090601FFE0D2
:101B300080808080808080E005070706000080406C
:101B400040201010080309090601FFE02020202092
:101B5000202020E005030306000520508805010130
:101B60000600FEF803030306010580402005050575
:101B70000600007008788878050707060000808056
:101B8000F0888888F0050505060000708080887060
:101B90000507070600000808788888887805050585
:101BA0000600007088F080700507070600003048C6
:101BB00040E04040400507070600FE7088888878AE
:101BC00008700507070600008080F0888888880371
:101BD00007070601004000C0404040E00409090634
:101BE00001FE10003010101010906005070706006D
:101BF0000080808890E09088030707060100C040BD
:101C000040404040E0050505060000D0A8A8A8A86F
:101C1000050505060000B0C888888805050506008A
:101C20000070888888700507070600FEF08888889D
:101C3000F080800507070600FE7888888878080805
:101C4000050505060000B0C8808080050505060072
:101C50000078807008F00507070600002020F820B3
:101C60002020180505050600008888889868050565
:101C700005060000888888502005050506000088B4
:101C800088A8A85005050506000088502050880542
:101C900007070600FE888888502040800505050655
:101CA0000000F8102040F80309090601FF20404019
:101CB0004080404040200109090602FF808080806A
:101CC00080808080800309090601FF804040402019
:101CD0004040408005030306000248A890FF1FFF14
:101CE000FFFFFFFFFF600000000001FF4000000059
:101CF0000000FF8000000000007F83CF00000C3058
:101D00003F87FF80000C301F867980000C000F8C0D
:101D100030C7838C30E78C30CFC7CC31F38C30DCCC
:101D2000ECEC33B98C30D86C6C33198C30D06C0C33
:101D300033198C30D86C0C33198C30DC6C0E3B1999
:101D40008C30CF7C079F198C30C77C038F194000E3
:101D50000000000002600000000000061FFFFFFFFF
:101D6000FFFFF8000000000000000000000000007D
:101D70000000000000000000000000000000000063
:101D80000000000000000C000000000000000C003B
:101D9000000000000000120000000000000023000E
:101DA00000000000000021000000000000004C8046
:101DB0000000000000005E80000000000000924073
:101DC000000000000000A1400000000000012120F0
:101DD0000000000000027F900000000000020010E0
:101DE000000000000007FFF80000000000040008E9
:101DF00000000000000800040000000000080006C9
:101E000000000000001000020000000000301E0171
:101E10000000000000207F81000000000041FFE082
:101E2000800000000043FCF08000000000873B7849
:101E300040000000018EDBFC60000000010FEBCCD5
:101E400020000000021FEDB610000000021FDEB6E9
:101E5000100000000439CD7F080000000436E0FFC8
:101E600008000000087EC0BB84000000187F005DF1
:101E700086000000107FC0ED82000000203CC0738F
:101E800001000000203B337F01000000701BE77E53
:101E900003800000C81DEEDE04C00000880FDEDCF9
:101EA00004400001240FDF3C092000012607DBF875
:101EB000192000027203E7F0139000025101FFE0C5
:101EC0002290000489007F802448000904801E00BD
:101ED0004824000BFE400000DFF40010004000002A
:101EE0008002001FFFFFFFFFFFFE00000000000058
:101EF00000000000000000000000000000000000E2
:101F00000000001022103C3C0E1F00102210042282
:101F10001104001022100822110400102210083CA5
:101F2000110400102210102211040010221020228F
:101F30001104001E1C1E3C3C0E04000000000000AA
:101F40000000000000000000000000000000000091
:101F50000000000000000000000000000000000081
:101F60000000000000000000000000000000000071
:101F70000000000000000000000000000000000061
:101F80000000000000000000000000000000000051
:101F90000000000000000000000000000000000041
:101FA0000000060900FE06018902FE20FFFE07FE72
:101FB00006FE0000000600070106060602008080FB
:101FC00080800080030303060103A0A0A00507078B
:101FD0000600FF5050F850F850500509090600FE61
:101FE0002070A8A07028A870200608080600FF40EE
:101FF000A84810204854080507070600FF60909085
:10200000609890680103030602038080800207073E
:102010000602FF408080808080400207070602FFA2
:10202000804040404040800505050600008850F88B
:1020300050880505050600002020F8202002040431
:102040000602FEC0404080050101060002F80202BF
:1020500002060200C0C0040606060100101020405F
:102060008080040606060100609090909060030650
:102070000606010040C0404040E00406060601009C
:102080006090102040F0040606060100F020601069
:1020900010E005060606000010305090F810040607
:1020A00006060100F080E01010E0040606060100BC
:1020B0006080E0909060040606060100F010102099
:1020C000404004060606010060906090906004069F
:1020D000060601006090907010600205050602007F
:1020E000C0C000C0C00207070602FEC0C000C0405A
:1020F0004080050505060000186080601805030390
:10210000060001F800F8050505060000C03008309B
:10211000C0040707060100609010604000400506FB
:10212000060600007090A8B0807005060606000044
:10213000205088F88888050606060000F088F08898
:1021400088F0040606060100609080809060040616
:1021500006060100E090909090E00406060601005B
:10216000F080E08080F0040606060100F080E08048
:102170008080040606060100609080B0906004062E
:10218000060601009090F09090900306060601006C
:10219000E040404040E00506060600003810101000
:1021A000906004060606010090A0C0A0909004066E
:1021B000060601008080808080F00506060600008B
:1021C00088D8A8A8888804060606010090D0B09098
:1021D00090900506060600007088888888700406BE
:1021E00006060100E09090E080800407070601FFEA
:1021F000609090D0B06010040606060100E0909058
:10220000E090900406060601006090402090600572
:102210000606060000F820202020200406060601FD
:1022200000909090909060040606060100909090B7
:10223000F060600506060600008888A8A8D8880512
:102240000606060000885020205088050606060075
:1022500000888850202020040606060100F0102087
:102260004080F0030606060100E080808080E004E4
:1022700006060601008080402010100306060601B5
:1022800000E020202020E005030306000320508802
:102290000501010600FEF802020206020480400465
:1022A0000404060100709090700406060601008088
:1022B00080E09090E00404040601007080807004C7
:1022C00006060601001010709090700404040601C8
:1022D0000060B0C070040606060100205040E040D7
:1022E000400406060601FE60909070106004060629
:1022F0000601008080E090909003060606010040F1
:1023000000C04040E00308080601FE2000602020D5
:1023100020A0400406060601008080A0C0A0900313
:102320000606060100C040404040E00504040600E7
:1023300000D0A8A888040404060100E0909090044E
:102340000404060100609090600406060601FEE0A9
:102350009090E080800406060601FE709090701058
:1023600010040404060100A0D080800404040601C7
:102370000070C030E00406060601004040E0405016
:1023800020040404060100909090700404040601E7
:10239000009090606005040406000088A8A850041E
:1023A0000404060100906060900406060601FE9099
:1023B0009090709060040404060100F02040F00347
:1023C0000707060100204040804040200107070623
:1023D00002FF8080808080808003070706010080E4
:1023E00040402040408004020206010350A0FFFF4D
:1023F000FFFFFFFFFFFFFFFFFFFFFFFFFFFFFFFFED
:10240000FFFFFFFFFFFFFFFFFFFFFFFFFFFFFF00DB
:10241000000006000701060606020080008080809A
:10242000800406060601FF2070A0A07020050707A3
:102430000600FF304840F04040F805050506000062
:10244000A8508850A80506060600008850F820F815
:10245000200107070602FF8080800080808004073B
:10246000070601FF708060906010E0030101060123
:1024700005A0060707060000788494A494847803D6
:10248000050506010160A06000E0050505060000E5
:102490002850A05028040303060100F01010040186
:1024A00001060102F00607070600007884B4A4A420
:1024B0008478040101060105F004030306010260AB
:1024C00090600507070600FF2020F8202000F80391
:1024D000050506010140A02040E0030505060101B5
:1024E000C0204020C002020206020440800405050C
:1024F0000601FF9090B0D08005060606000078E83F
:10250000E868282801010106020280020202060290
:10251000FE408003050506010140C04040E0030580
:102520000506010140A04000E0050505060000A0E9
:10253000502850A00508080600FF40C040507030E9
:1025400078100508080600FF40C0405068081038A1
:102550000508080600FFC0204030F030781004075E
:102560000706010020002060809060050707060034
:1025700000402020507088880507070600001020C2
:1025800020507088880507070600002050205070F2
:1025900088880507070600002850205070888805A5
:1025A00007070600005000205070888805070706BE
:1025B000000020502050708888050606060000782C
:1025C000A0F0A0A0B80408080601FE6090808090EA
:1025D0006020400407070601004020F080E080F002
:1025E0000407070601002040F080E080F0040707A0
:1025F0000601002050F080E080F00407070601008B
:102600005000F080E080F00307070601008040E002
:10261000404040E00307070601002040E040404002
:10262000E003070706010040A0E0404040E0030748
:1026300007060100A000E0404040E0050606060055
:10264000007048E848487004070706010050A09051
:10265000D0B0909004070706010040206090909051
:102660006004070706010020406090909060040716
:102670000706010020506090909060040707060153
:102680000050A06090909060040707060100500081
:1026900060909090600505050600008850205088E5
:1026A0000408080601FF1070B0B0D0D0E080040725
:1026B00007060100402090909090600407070601F3
:1026C0000020409090909060040707060100205081
:1026D0009090909060040707060100500090909041
:1026E0009060050707060000102088502020200475
:1026F000060606010080E09090E0800406060601D0
:10270000006090A0A090A0040707060100402000F0
:1027100070909070040707060100204000709090B0
:1027200070040707060100205000709090700407A5
:102730000706010050A00070909070040606060184
:102740000050007090907004070706010020502090
:102750007090907005040406000070A8B07804061C
:10276000060601FE70808070204004070706010005
:1027700040200060B0C07004070706010020400040
:1027800060B0C07004070706010020500060B0C0B0
:1027900070040606060100500060B0C07003070711
:1027A000060100804000C04040E00307070601002A
:1027B000204000C04040E003070706010040A000A1
:1027C000C04040E0030606060100A000C04040E013
:1027D000040707060100306010709090600407073E
:1027E00006010050A000E090909004070706010049
:1027F0004020006090906004070706010020400020
:1028000060909060040707060100205000609090DF
:102810006004070706010050A00060909060040665
:102820000606010050006090906005050506000056
:102830002000F8002004040406010070B0D0E00479
:1028400007070601004020009090907004070706DB
:1028500001002040009090907004070706010020BE
:102860005000909090700406060601005000909071
:1028700090700409090601FE20400090909070902D
:10288000600408080601FE8080E09090E0808004EB
:1028900008080601FE5000909090709060536E34CE
:1028A0006B3300496E7661646572730042726963CE
:1028B0006B6F7574004D61696E005072696E7420A3
:1028C00066726F6D205344005072696E7420667298
:1028D0006F6D20534400022E2E004D61696E005032
:1028E00072696E740043616E63656C00537461724B
:1028F00074207072696E7420003F00536D6F6F74A6
:1029000068696E6700536D6F6F7468696E67005A0F
:10291000005A005900590058005800436F72726500
:102920006374696F6E00436F7272656374696F6E72
:10293000004D61696E0046696C616D656E7400449E
:102940007269766520537472656E677468004261BF
:10295000636B6C6173680053746570732F6D6D00E9
:102960004A65726B00416363656C65726174696F7F
:102970006E0056656C6F6369747900436F6E6669AB
:102980006775726174696F6E004573746570732F3B
:102990006D6D004573746570732F6D6D005A73749F
:1029A0006570732F6D6D005A73746570732F6D6D44
:1029B000005973746570732F6D6D00597374657071
:1029C000732F6D6D005873746570732F6D6D0058A3
:1029D00073746570732F6D6D00416476616E63650D
:1029E000642053657474696E67730056652D6A655B
:1029F000726B0056652D6A65726B00567A2D6A659A
:102A0000726B00567A2D6A65726B0056792D6A6575
:102A1000726B0056792D6A65726B0056782D6A6567
:102A2000726B0056782D6A65726B00416476616E38
:102A30006365642053657474696E677300416D61EA
:102A400078204500416D6178204500416D61782016
:102A50005A00416D6178205A00416D61782059001B
:102A6000416D6178205900416D6178205800416DB9
:102A70006178205800412D74726176656C00412D9B
:102A800074726176656C00412D7265747261637455
:102A900000412D7265747261637400416363656CFB
:102AA00000416363656C00416476616E6365642018
:102AB00053657474696E6773005654726176206D45
:102AC000696E005654726176206D696E00566D69AC
:102AD0006E00566D696E00566D6178204500566D2A
:102AE0006178204500566D6178205A00566D6178F6
:102AF000205A00566D6178205900566D6178205932
:102B000000566D6178205800566D6178205800415C
:102B10006476616E6365642053657474696E67736F
:102B2000004C6F6164206D6D004C6F6164206D6DB1
:102B300000556E6C6F6164206D6D00556E6C6F6139
:102B400064206D6D00416476616E6365204B0041C9
:102B50006476616E6365204B00416476616E6365E7
:102B6000642053657474696E677300450045005AAC
:102B7000005A00585900585900416476616E6365E7
:102B8000642053657474696E67730044697361628D
:102B90006C65207374657070657273004D38340015
:102BA0004175746F2063616C696272617465004D78
:102BB000313137205374617274696E6720417574C6
:102BC0006F2D43616C6962726174696F6E0A543073
:102BD0000A4D3231382054312058343320593020B6
:102BE0005A300A4732380A4731320A4D31313720DC
:102BF00043616C6962726174696E672E2E2E0A479A
:102C00003432350A4D3530300A4D31313720436189
:102C10006C6962726174696F6E20646174612073A3
:102C200061766564004175746F20686F6D6500475B
:102C30003238004C6576656C2058206178697300E5
:102C4000004D6F76652061786973004D61696E0093
:102C5000457874727564657220004175746F2068E0
:102C60006F6D6500473238004D6F7665205A004D14
:102C70006F76652059004D6F76652058004D6F7650
:102C8000656D656E740045787472756465722000B8
:102C90004D6F766520302E3032356D6D004D6F767C
:102CA0006520302E316D6D004D6F766520316D6D74
:102CB000004D6F76652031306D6D004D6F7665206B
:102CC0006178697300486F74656E6420746F6F205B
:102CD000636F6C6400457874727564657220004D92
:102CE0006F7665205A004D6F76652059004D6F76DE
:102CF000652058004D6F7665205A004D6F7665202F
:102D000059004D6F76652058005761697420666FD1
:102D1000720066696C616D656E74207075726765AE
:102D20000000506C6561736520776169742E0050F6
:102D30007265737320627574746F6E00746F2072A5
:102D40006573756D65207072696E74005761697482
:102D500020666F720066696C616D656E74206C6FC1
:102D6000616400496E736572742066696C616D659B
:102D70006E7400616E642070726573732062757486
:102D8000746F6E00746F20636F6E74696E7565008A
:102D9000507265737320627574746F6E00746F2067
:102DA00068656174206E6F7A7A6C65004E6F7A7A0E
:102DB0006C652068656174696E6700506C6561734D
:102DC0006520776169742E2E2E0057616974206624
:102DD0006F720066696C616D656E7420756E6C6FE4
:102DE0006164005761697420666F720066696C6186
:102DF0006D656E74206368616E676500746F207323
:102E000074617274005061726B696E672E2E2E00B1
:102E10004368616E67696E672046696C616D656EB7
:102E20007400554E4C4F41442046494C414D454E4F
:102E300054004C4F41442046494C414D454E5400AE
:102E400020204E6F7A7A6C653A20002000456E642F
:102E50002066696C616D656E74206368616E67657C
:102E6000005075726765206D6F7265000043686180
:102E70006E67652066696C616D656E7400556E6C79
:102E80006F61642066696C616D656E74004C6F6182
:102E9000642066696C616D656E74004D363030205B
:102EA000423020542564004D373032203B256400E9
:102EB0004D37303220542564004D373031205425B1
:102EC00064005072656865617420437573746F6D3A
:102ED000005072656865617420437573746F6D008E
:102EE0005072656865617420414253005072656894
:102EF00065617420504C41004261636B004E6F204D
:102F000053442063617264005072696E742066726B
:102F10006F6D205344004368616E67652053442001
:102F200063617264004D32310041626F75742050EC
:102F300072696E746572004368616E6765206669C8
:102F40006C616D656E74004368616E6765206669CB
:102F50006C616D656E74004D363030204230004338
:102F60006F6E66696775726174696F6E0054656D26
:102F70007065726174757265004D6F76656D656E12
:102F80007400526573756D65207072696E740054BB
:102F9000756E650053746F70207072696E740050A6
:102FA00061757365207072696E7400496E666F207A
:102FB00073637265656E0053746F70004261636B7A
:102FC0000053746F70207072696E74003F0050720D
:102FD0006F6265205A204F666673657400426162B5
:102FE00079737465702059004261627973746570F9
:102FF000205800466C6F7700466C6F770046616E14
:103000002073706565640046616E20737065656449
:103010000042656400426564004E6F7A7A6C650018
:103020004E6F7A7A6C650053706565640053706505
:103030006564004D61696E00426162797374657008
:1030400020590042616279737465702058004761AD
:103050006D6573004669726D7761726520566572A1
:1030600073696F6E004D61696E00436F6F6C646FC2
:10307000776E0046616E2073706565640046616E10
:103080002073706565640042656400426564004EAB
:103090006F7A7A6C65004E6F7A7A6C65004D616963
:1030A0006E006F6F6F0000001FC07FF0DDD8FFF86B
:1030B0007FF04440248000003180000024804440A0
:1030C000107CFEFEFE04000E000E007FC0FFE0FF3D
:1030D000E0FFE0FFE006000F001F8036C03FC009A0
:1030E000001680294006000F001F8036C03FC01622
:1030F0008020401080104008801FC037607FF05F44
:10310000D050500D80104048905FD077707FF01FF6
:10311000C0104020200F007FE0FFF0E670FFF019A4
:103120008036C0C0300F007FE0FFF0E670FFF0197E
:103130008036C0198047414D45204F5645520052B8
:103140006573746F7265206661696C736166650092
:103150004C6F61642073657474696E677300537497
:103160006F72652073657474696E67730050726F57
:103170006265205A204F666673657400416476610B
:103180006E6365642053657474696E6773004D6186
:10319000696E0050726F6265205A204F66667365D3
:1031A00074004D6F76696E672E2E2E004D323400FE
:1031B0004D323520500A4D3234005072696E742001
:1031C0007061757365640050617573652070726914
:1031D0006E74005072696E742061626F72746564FF
:1031E000004C756C7A426F74204D696E692072656F
:1031F0006164792E005072696E74696E672E2E2E8E
:10320000005072696E74207061757365640043616B
:1032100072642072656D6F7665640043617264202C
:10322000696E736572746564004D33310043616E7D
:103230006E6F7420656E7465722073756264697256
:103240003A20002E0A006F70656E206661696C6519
:10325000642C2046696C653A20006175746F2563A3
:103260002E67006572726F722077726974696E677B
:1032700020746F2066696C650A004E6F7420534499
:10328000207072696E74696E670A00534420707210
:10329000696E74696E67206279746520002E0A0079
:1032A00044656C6574696F6E206661696C65642C39
:1032B0002046696C653A200046696C652064656C3F
:1032C000657465643A0057726974696E6720746F3B
:1032D0002066696C653A20002E0A006F70656E20CA
:1032E0006661696C65642C2046696C653A20002E25
:1032F0000A006F70656E206661696C65642C2046FB
:10330000696C653A200046696C652073656C65637D
:103310007465640A002053697A653A200046696C36
:1033200065206F70656E65643A20002066696C6583
:103330003A2000667265736800646F696E67004EBC
:103340006F772000454E4420535542524F55544903
:103350004E450A002220706F730022207061726552
:103360006E743A2200535542524F5554494E4520EF
:1033700043414C4C207461726765743A2200747248
:1033800079696E6720746F2063616C6C207375625D
:103390002D67636F64652066696C65732077697457
:1033A0006820746F6F206D616E79206C6576656C36
:1033B000732E204D4158206C6576656C2069733AF8
:1033C000310A004D3234004D32332025730053440E
:1033D0002063617264206F6B0A006F70656E526FBC
:1033E0006F74206661696C65640A00766F6C756D38
:1033F000652E696E6974206661696C65640A0053A4
:103400004420696E6974206661696C0A00286E6FD9
:103410002066696C65290043616E6E6F74206F7061
:10342000656E2073756264697220007C3C3E5E2B81
:103430003D3F2F5B5D3B2C2A225C004F4646004FF0
:103440004E006563686F3A004572726F723A0045CC
:1034500072726F722077726974696E6720746F2060
:10346000454550524F4D210A0050726573732062DA
:103470007574746F6E20286F72204D31303829209A
:10348000746F2068656174206E6F7A7A6C650A00CB
:10349000507265737320627574746F6E20286F723A
:1034A000204D3130382920746F20726573756D6539
:1034B0000A00496E736572742066696C616D656E91
:1034C0007420616E64207072657373206275747409
:1034D0006F6E20286F72204D313038290A004D362A
:1034E00030303A20546F6F20636F6C6400486F7403
:1034F000656E6420746F6F20636F6C640A00486FA0
:1035000074656E6420746F6F20636F6C640A004989
:103510006E736572742066696C616D656E7420618E
:103520006E6420707265737320627574746F6E20A0
:10353000286F72204D313038290A0063616E63654F
:103540006C00726573756D656400726573756D6589
:103550000070617573656400706F7765726F666681
:10356000002F2F616374696F6E3A0020573A002074
:10357000573A00486F74656E6420436F6F6C696ED4
:10358000672E2E2E00486F74656E64204865617446
:10359000696E672E2E2E00202F002042403A002018
:1035A000403A004D383420582059205A20450054C4
:1035B0006865726D616C2052756E61776179004843
:1035C0006F74656E6420544845524D414C205255ED
:1035D0004E415741590042454420544845524D41BF
:1035E0004C2052554E4157415900202D20496E76AE
:1035F000616C6964206578747275646572206E759B
:103600006D62657220210A0048656174696E6720E9
:103610006661696C6564004265642068656174690F
:103620006E67206661696C656400546865726D61DF
:103630006C2052756E617761790042454420544890
:1036400045524D414C2052554E4157415900486515
:103650006174696E67206661696C656400486F74A7
:10366000656E642048656174696E67206661696C87
:10367000656400546865726D616C2052756E617787
:10368000617900486F74656E6420544845524D411D
:103690004C2052554E41574159004D494E54454DCD
:1036A000502074726967676572656400486F74655D
:1036B0006E64204572723A204D494E54454D50007B
:1036C0004572723A204D494E54454D502042454472
:1036D000004D415854454D502074726967676572BA
:1036E000656400486F74656E64204572723A204DBF
:1036F000415854454D50004572723A204D4158543E
:10370000454D502042454400626564002C20737989
:103710007374656D2073746F7070656421204865E3
:10372000617465725F49443A200023646566696E7E
:10373000652044454641554C545F004B6420004B86
:103740006920004B702000006265640050494420ED
:103750004175746F74756E652066696E697368650E
:1037600064212050757420746865206C6173742026
:103770004B702C204B6920616E64204B6420636F7A
:103780006E7374616E74732066726F6D2062656C07
:103790006F7720696E746F20436F6E66696775720C
:1037A0006174696F6E2E680A005049442041757437
:1037B0006F74756E65206661696C6564212074693B
:1037C0006D656F75740A00546865726D616C205286
:1037D000756E6177617900486F74656E6420544836
:1037E00045524D414C2052554E415741590042459A
:1037F0004420544845524D414C2052554E4157416A
:10380000590048656174696E67206661696C65641A
:1038100000486F74656E642048656174696E672046
:103820006661696C656400426564206865617469FD
:103830006E67206661696C6564005049442041757B
:10384000746F74756E65206661696C6564212054BF
:10385000656D706572617475726520746F6F206834
:103860006967680A00204B643A2000204B693A20BF
:1038700000204B703A20000A20436C617373696327
:1038800020504944200A002054753A2000204B75EE
:103890003A2000206D61783A2000206D696E3A2050
:1038A0000020643A200020626961733A2000504988
:1038B00044204175746F74756E6520737461727401
:1038C0000A00504944204175746F74756E65206616
:1038D00061696C6564212054656D706572617475F1
:1038E000726520746F6F20686967680A001000AD08
:1038F0000330016A0150022B0170030A019004F5A4
:1039000000B005E500D006D800F007CE001009C5CC
:1039100000300ABE00500BB700700CB100900DAB28
:1039200000B00EA600D00FA200F0109D001012995A
:1039300000301395005014920070158E0090168B75
:1039400000B0178700D0188400F0198100101B7E8A
:1039500000301C7B00501D7900701E7600901F7394
:1039600000B0207000D0216E00F0226B001024699E
:103970000030256600502663007027610090285EA5
:1039800000B0295C00D02A5900F02B5600102D54AD
:1039900000302E5100502F4E0070304B00903148B7
:1039A00000B0324500D0334200F0343E0010363BC8
:1039B00000303737005038330070392E00903A29E4
:1039C00000B03B2300D03C1B00F03D1100103F0134
:1039D00000F03F00001000C90210012C014001223C
:1039E0000170011801B0010E01F00104015002FA4A
:1039F00000B002F0003003E600D003DC009004D2F7
:103A0000007005C800A006BE000008B400B009AAF6
:103A100000D00BA000600E960060118C0000158293
:103A20000020197800C01D6E00A0226400B0275A43
:103A300000902C500000314600E0343C0010383239
:103A400000903A2800603C1E00A03D1400803E0A11
:103A500000203F00006F70656E0054524947474593
:103A6000524544003A20007A5F6D6178007A5F6DBC
:103A7000696E00795F6D617800795F6D696E0078BD
:103A80005F6D617800785F6D696E005265706F726E
:103A900074696E6720656E6473746F7020737461EF
:103AA0007475730A00456E6473746F7073202563B8
:103AB00020256320256320256300205A3A002059E1
:103AC0003A0020583A00656E6473746F7073206812
:103AD00069743A2000486F6D696E67206661696C91
:103AE000656400496E76616C6964206578747275EE
:103AF0006465720A0045303A20005A3A2000593A6B
:103B000020004D53312C4D53322C4D5333205069EE
:103B10006E730A583A20004D6963726F7374657052
:103B20007320756E617661696C61626C650A002054
:103B30005A3A0020593A0020436F756E7420583A63
:103B400000C23100001C260000F4190000D80F004C
:103B500000EB080000C004000075020000400100F6
:103B60000024F4D43050C38E20C2A24017828B7040
:103B700011127A910D816CD90AA861E108C75866C3
:103B800007615143061E4B5D05C145A7041A41114B
:103B900004093D9803713931034036DB02653391E6
:103BA00002D4305402802E1D02632CEE01752AC50A
:103BB00001B028A001102781018F2564012B244B1F
:103BC00001E0223401AC211F018D200D01801FFC7A
:103BD00000841EED00971DDF00B81CD200E61BC656
:103BE00000201BBC00641AB200B219A8000A19A078
:103BF000006A189900D117910040178B00B5168400
:103C00000031167E00B31579003A157300C7146FA2
:103C10000058146A00EE1366008813630025135ED3
:103C200000C7125B006C12570015125400C11151ED
:103C30000070114F0021114B00D61049008D104724
:103C4000004610440002104200C00F4000800F3EAA
:103C500000420F3C00060F3B00CB0E3800930E379E
:103C6000005C0E3500270E3400F30D3200C10D311B
:103C700000900D3000600D2E00320D2D00050D2C32
:103C800000D90C2B00AE0C2900850C29005C0C27F8
:103C900000350C27000E0C2600E80B2400C40B2472
:103CA00000A00B23007D0B23005A0B2100390B21B0
:103CB00000180B2000F80A1F00D90A1E00BB0A1EBC
:103CC000009D0A1D00800A1D00630A1C00470A1B94
:103CD000002C0A1B00110A1A00F7091A00DD091945
:103CE00000C4091900AB091900920917007B0918D3
:103CF00000630917004C0916003609160020091642
:103D0000000A091500F5081500E0081400CC081495
:103D100000B8081400A4081400900813007D0812CD
:103D2000006B0813005808120046081200340811EE
:103D300000230811001208110001081100F00710FB
:103D400000E0071000D0071000C0071000B0070FF8
:103D500000A107100091070E0083070F0074070FE2
:103D60000065070E0057070E0049070E003B070DC0
:103D7000002E070E0020070D0013070D0006070D8B
:103D800000F9060C00ED060D00E0060C00D4060C50
:103D900000C8060C00BC060C00B0060C00A4060B04
:103DA0000099060C008D060B0082060B0077060BAF
:103DB000006C060B0061060A0057060B004C060A51
:103DC0000042060A0038060A002E060A0024060AE7
:103DD000001A060A001006090007060A00FD050978
:103DE00000F4050900EB050900E2050900D9050901
:103DF00000D0050900C7050900BE050900B5050882
:103E000000AD050800A50509009C050800940508FB
:103E1000008C050800840508007C0508007405086E
:103E2000006C050700650508005D050700560508DC
:103E3000004E050700470507004005080038050744
:103E400000310507002A050700230507001C0506A9
:103E500000160507000F0507000805060002050704
:103E600000FB040600F5040700EE040600E8040663
:103E700000E2040700DB040600D5040600CF0406B8
:103E800000C9040600C3040600BD040600B704060A
:103E900000B1040500AC040600A6040600A0040559
:103EA000009B04060095040500900406008A0405A2
:103EB0000085040500800406007A040500750405E9
:103EC00000700405006B040500660405006104052C
:103ED000005C04050057040500520405004D04056C
:103EE0000048040500430405003E0404003A0405AC
:103EF0000035040500300404002C040500270404E8
:103F000000230405001E0404001A0404001604051E
:103F100000110404000D0404000904050004040455
:103F20000000040400FC030400F8030400F403048C
:103F300000F0030400EC030400E8030400E40304BD
:103F400000E0030400DC030400D8030400D40304ED
:103F500000D0030400CC030400C8030300C503031E
:103F60000024F404D9201BC40C5C0E9804C4095F1F
:103F70000265077101F405F900FB04B300480487EA
:103F800000C10369005803550003034500BE023A0F
:103F9000008402310053022A002902250004022075
:103FA00000E4011C00C8011900AF011700980114BA
:103FB0000084011300710110006101100051010E15
:103FC0000043010D0036010B002B010B0020010BFB
:103FD00000150109000C01090003010800FB00089D
:103FE00000F3000800EB000700E4000600DE000616
:103FF00000D8000600D2000600CC000500C700056E
:1040000000C2000500BD000400B9000400B50004B2
:1040100000B1000400AD000400A9000400A50003E5
:1040200000A20003009F0004009B0003009800030F
:10403000009500020093000300900003008D000231
:10404000008B000300880002008600020084000349
:1040500000810002007F0002007D0002007B000260
:10406000007900020077000100760002007400026F
:104070000072000100710002006F0002006D00017B
:10408000006C0002006A0001006900020067000184
:10409000006600010065000100640002006200018A
:1040A0000061000100600001005F0002005D00018E
:1040B000005C0001005B0001005A00010059000192
:1040C0000058000100570001005600010055000192
:1040D0000054000100530000005300010052000191
:1040E0000051000100500001004F0001004E00008F
:1040F000004E0001004D0001004C0001004B00008B
:10410000004B0001004A0001004900010048000086
:104110000048000100470001004600000046000181
:10412000004500000045000100440001004300007C
:104130000043000100420000004200010041000075
:104140000041000100400001003F0000003F00016D
:10415000003E0000003E0001003D0000003D000167
:10416000003C0000003C0000003C0001003B00005F
:10417000003B0001003A0000003A00010039000055
:10418000003900010038000000380000003800014C
:104190000037000000370001003600000036000044
:1041A0000036000100350000003500000035000138
:1041B000003400000034000000340001003300002F
:1041C0000033000000330001003200000032000024
:1041D0000032000100310000003100000031000118
:1041E000003000000030000000300001002F00000F
:1041F000002F0000002F0000002F0001002E000003
:10420000002E0000002E0001002D0000002D0000F7
:10421000002D0000002D0001002C0000002C0000EB
:10422000002C0000002C0001002B0000002B0000DF
:10423000002B0000002B0001002A0000002A0000D3
:10424000002A0000002A00010029000000290000C7
:1042500000290000002900000029000100280000BA
:1042600000280000002800000028000000280001AD
:1042700000270000002700000027000000270000A2
:104280000027000100260000002600000026000094
:104290000026000000260001002500000025000087
:1042A0000025000000250000002500000025000179
:1042B000002400000024000000240000002400006E
:1042C0000024000100230000002300000023000060
:1042D0000023000000230000002300000023000151
:1042E0000022000000220000002200000022000046
:1042F0000022000000220001002100000021000037
:104300000021000000210000002100000021000029
:10431000002100010020000000200000002000001B
:10432000002000000020000000200000002000000D
:1043300000200001001F0000001F0000001F0000FF
:10434000001F0000001F0000001F0000001F0001F0
:10435000001E0000001E0000001E0000001E0000E5
:104360000020204D36303320003A0A0020286D6DA1
:104370002900205300205A002059002058002020F6
:104380004D3432352046004261636B6C61736820A6
:10439000636F6D70656E736174696F6E3A0A0020A9
:1043A00055004C0046696C616D656E74206C6F61E0
:1043B000642F756E6C6F6164206C656E67746873D2
:1043C0003A0A00204500205A0020204D393037207D
:1043D000580053746570706572206D6F746F722031
:1043E00063757272656E74733A0A0020204D39301D
:1043F00030204B004C696E65617220416476616EBD
:1044000063653A0A0020204D383531205A005A2D74
:1044100050726F6265204F666673657400204400B9
:1044200020490020204D333034205000204400200B
:10443000490020204D333031205000504944207332
:10444000657474696E67733A0A0020460020420062
:1044500020480020204D3134352053004D617465D3
:104460007269616C20686561747570207061726139
:104470006D65746572733A0A0020204D3432302025
:1044800053004175746F20426564204C6576656CFD
:10449000696E673A0A00204500205A002059002022
:1044A000580020540020530020204D323035204247
:1044B0000020453C6D61785F655F6A65726B3E0008
:1044C00020583C6D61785F785F6A65726B3E205959
:1044D0003C6D61785F795F6A65726B3E205A3C6D16
:1044E00061785F7A5F6A65726B3E00416476616EE7
:1044F0006365643A20423C6D696E5F7365676D6504
:104500006E745F74696D655F75733E20533C6D69B1
:104510006E5F66656564726174653E20543C6D69CA
:104520006E5F74726176656C5F66656564726174F6
:10453000653E0020540020520020204D32303420AF
:104540005000416363656C65726174696F6E202809
:10455000756E6974732F7332293A20503C707269FA
:104560006E745F616363656C3E20523C7265747269
:104570006163745F616363656C3E20543C74726177
:1045800076656C5F616363656C3E0A0020450020C0
:104590005A0020590020204D3230312058004D6102
:1045A00078696D756D20416363656C6572617469CE
:1045B0006F6E2028756E6974732F7332293A0A0062
:1045C000204500205A0020590020204D3230332051
:1045D00058004D6178696D756D206665656472611E
:1045E0007465732028756E6974732F73293A0A00F5
:1045F00053746570732070657220756E69743A0A21
:104600000020204D3134392043203B20556E697401
:104610007320696E2043656C736975730A002020EE
:10462000473231202020203B20556E697473206969
:104630006E206D6D0048617264636F646564204430
:10464000656661756C742053657474696E67732058
:104650004C6F616465640A00282300002823000071
:1046600064000000E8030000000096430000964349
:1046700000000041000020420000C9420000C94281
:104680000000C8440000D243454550524F4D2049D8
:104690006E697469616C697A65640A00290A002090
:1046A00062797465733B2063726320002073746FBA
:1046B0007265642073657474696E677320726574C3
:1046C000726965766564202800202863616C6375D3
:1046D0006C6174656429210A0020213D2000454554
:1046E00050524F4D20435243206D69736D61746386
:1046F00068202D202873746F726564292000205370
:10470000697A653A2000496E6465783A2000204D48
:1047100061726C696E3D563637290A004545505224
:104720004F4D2076657273696F6E206D69736D6190
:104730007463682028454550524F4D3D00290A00BA
:104740002062797465733B20637263200053657443
:1047500074696E67732053746F7265642028000A51
:10476000003B20454550524F4D20496E6465783AD4
:1047700020005570646174696E67207A6F66667395
:10478000657420696E20454550524F4D3A200045D2
:104790004550524F4D206461746173697A6520659C
:1047A00072726F722E0A004175746F6C6576656C5B
:1047B000206661696C65640A004175746F6C65768A
:1047C000656C206661696C6564005761726E696E24
:1047D000673A20486F6D696E672042756D7020449E
:1047E000697669736F72203C20310A000202044826
:1047F0006F6D652025732573257320666972737448
:10480000002066697273740A00486F6D652000208D
:10481000746F6F206C6F6E67206578747275736942
:104820006F6E2070726576656E7465640A00206331
:104830006F6C6420657874727573696F6E20707226
:104840006576656E7465640A0020453A00205A3A20
:104850000020593A00583A000000F0410000F041B1
:1048600000000041FF01010000A0400000A0400046
:1048700000004000002543000045430000214300A4
:104880000040C0CDCC364300001F4300002243CD82
:10489000CC364300001F43000040C0333363C100E7
:1048A0000000C020746F6F206C6F6E672065787495
:1048B000727573696F6E2070726576656E7465646B
:1048C0000A0020636F6C6420657874727573696F79
:1048D0006E2070726576656E7465640A0062757329
:1048E000793A2070617573656420666F7220696E15
:1048F0007075740A00627573793A2070617573651A
:104900006420666F7220757365720A006275737930
:104910003A2070726F63657373696E670A004D3178
:1049200031372050726F62652073756363657373EE
:1049300066756C0A0020496E76616C696420657842
:104940007472756465722000205A3A200020593A2A
:10495000200042656420583A200050726F62652042
:104960005A204F66667365743A20003F5A206F756F
:1049700074206F662072616E676520282D32207466
:104980006F2035290A004D31343520533C696E645F
:1049900065783E206F7574206F662072616E676562
:1049A0002028302D31290A00436C69636B20746F15
:1049B00020726573756D652E2E2E00220A00556ECD
:1049C0006B6E6F776E20636F6D6D616E643A20223F
:1049D00000454550524F4D204F4B0A004E6F206D01
:1049E0006F76652E004543484F00494E464F0045BF
:1049F00052524F52530044525952554E00434F4D5C
:104A00004D554E49434154494F4E006F666600E58F
:104A100049EA49EF49F649FD4944454255473A00BC
:104A20004C756C7A426F74204D696E69204C43441A
:104A3000204F46462E00205A0020590058002020C2
:104A40004D61783A2000205A00205900580020205B
:104A50004D696E3A2000536F667420656E647374FE
:104A60006F70733A20002569730025696D202569F0
:104A700073002569682025696D2025697300256903
:104A800064202569682025696D20256973002569E2
:104A90007920256964202569682025696D202569AC
:104AA00073005072696E742074696D653A20004D10
:104AB0003131332053002F2F20004361703A0043DF
:104AC00048414D4245525F54454D50455241545521
:104AD0005245004D4F54494F4E5F4D4F4445530092
:104AE000544845524D414C5F50524F5445435449F0
:104AF0004F4E004155544F5245504F52545F53440E
:104B00005F5354415455530050524F4D50545F53CE
:104B10005550504F525400454D455247454E43590C
:104B20005F50415253455200434153455F4C494702
:104B300048545F4252494748544E45535300544FDE
:104B400047474C455F4C494748545300534F4654E0
:104B5000574152455F504F574552004255494C44CA
:104B60005F50455243454E54004C4556454C494EC6
:104B7000475F44415441005A5F50524F4245004103
:104B800055544F4C4556454C005052494E545F4A7F
:104B90004F420050524F4752455353004155544FD6
:104BA0005245504F52545F54454D5000564F4C554E
:104BB0004D455452494300454550524F4D004249DE
:104BC0004E4152595F46494C455F5452414E5346FF
:104BD00045520053455249414C5F584F4E5F584F24
:104BE0004646004649524D574152455F4E414D455C
:104BF0003A4D61726C696E20204649524D574152C0
:104C0000455F56455253494F4E3A322E302E302E84
:104C10003134342045585452554445525F5459500C
:104C2000453A48617264656E6564537465656C20CD
:104C3000534F555243455F434F44455F55524C3A9D
:104C400068747470733A2F2F636F64652E616C659E
:104C500070686F626A656374732E636F6D2F646929
:104C600066667573696F6E2F4D41524C494E2050E8
:104C7000524F544F434F4C5F56455253494F4E3A53
:104C8000312E30204D414348494E455F54595045DF
:104C90003A4C756C7A426F74204D696E69204C43B2
:104CA000442045585452554445525F434F554E5445
:104CB0003A3120555549443A3038336636386631F2
:104CC0002D303238652D343934632D393865312D26
:104CD0006632653064666165653961350A00202891
:104CE0004E6F7420796574206D65617375726564AB
:104CF0002900202041766572616765206D656173CA
:104D000075726564206261636B6C61736820286DE5
:104D10006D293A002020536D6F6F7468696E6720AB
:104D2000286D6D293A2020202020202020202020BE
:104D3000202020202020530020204261636B6C61E2
:104D400073682044697374616E636520286D6D29F2
:104D50003A202020202020202000202846312E30FC
:104D6000203D2066756C6C2C2046302E30203D2076
:104D70006E6F6E65290A002020436F72726563743E
:104D8000696F6E20416D6F756E742F466164652D7D
:104D90006F75743A20202020204600616374697684
:104DA000653A0A00696E004261636B6C617368204A
:104DB000436F7272656374696F6E2000205A002021
:104DC000506F736974696F6E616C204572726F7297
:104DD0003A0A004E6F7A7A6C6520546970204F75DC
:104DE0007465722044696D656E73696F6E733A0AFB
:104DF000002020546F703A2000202046726F6E749D
:104E00003A200020204C6566743A20004261636BB2
:104E10006C6173683A0A00205A0043656E746572CB
:104E20003A0A00202046726F6E743A200020204C0F
:104E30006566743A20002020546F703A2000536950
:104E40006465733A0A00426564204C6576656C6956
:104E50006E6720004661696C656420746F20656E22
:104E600061626C6520426564204C6576656C696E94
:104E7000670A00426564204C6576656C20436F725A
:104E800072656374696F6E204D61747269783A005F
:104E90000A0A426564204C6576656C20436F727225
:104EA000656374696F6E204D61747269783A002091
:104EB0002B000A436F7272656374656420426564F7
:104EC000204865696768742076732E2042656420E7
:104ED000546F706F6C6F67793A0A00202B000A429A
:104EE00065642048656967687420546F706F6772E5
:104EF000617068793A0A2020202B2D2D2D20424107
:104F0000434B202D2D2B0A2020207C2020202020E8
:104F10002020202020207C0A204C207C20202020C3
:104F2000282B29202020207C20520A2045207C206C
:104F3000202020202020202020207C20490A2046DC
:104F4000207C20282D29204E20282B29207C20471A
:104F50000A2054207C2020202020202020202020D7
:104F60007C20480A2020207C20202020282D292059
:104F70002020207C20540A2020207C20202020205B
:104F80002020202020207C0A2020204F2D2D20466C
:104F9000524F4E54202D2D2B0A2028302C30290A18
:104FA000003474682070726F626520706F696E746F
:104FB0002C2064697374616E63652066726F6D2066
:104FC000706C616E653A2000202844525952554E4B
:104FD0002900473239204175746F20426564204CA6
:104FE0006576656C696E67003F20284C2C522C4614
:104FF0002C4229206F7574206F6620626F756E6475
:10500000732E0A003F50726F626520706F696E7474
:10501000732028592920697320696D706C6175733C
:1050200069626C652028322D32292E0A003F5072A9
:105030006F626520706F696E74732028582920692B
:105040007320696D706C61757369626C65202832BC
:105050002D32292E0A003F2856296572626F73652A
:10506000206C6576656C20697320696D706C617564
:105070007369626C652028302D34292E0A0043752F
:105080007272656E742066696C653A2000456E64C4
:105090002066696C65206C6973740A0042656769F3
:1050A0006E2066696C65206C6973740A00416476D1
:1050B000616E6365204B3D003F4B2076616C7565EA
:1050C000206F7574206F662072616E6765202830CE
:1050D0002D3130292E0A004D31313720486F742090
:1050E000456E642048656174696E672E2E2E0A4DE8
:1050F00031303420533137302054300A4732382091
:105100004F310A473120593235205A313020463547
:105110003030300A4D313137205265776970696E11
:1051200067206E6F7A7A6C650A54300A47312058CE
:1051300031313520593137322046353030300A4D43
:1051400031303920523137302054300A4731205A1B
:10515000310A473120583131352059313732204614
:10516000343030300A473120583435205931373205
:105170002046343030300A473120583131352059FB
:105180003137322046343030300A473120583435F8
:1051900020593137322046343030300A47312058D8
:1051A00031313520593137322046343030300A47DA
:1051B00031205834352059313732204634303030A0
:1051C0000A473120583131352059313732204634A1
:1051D0003030300A473120583435205931373220A9
:1051E00046343030300A473120583131352059317A
:1051F00037322046343030300A4731205834352099
:10520000593137322046343030300A473120583156
:10521000313520593137322046343030300A473169
:105220002058343520593137322046343030300A56
:105230004731205A31350A4D313036205332353519
:10524000200A47302058302059300A4D313039205B
:10525000523136302054300A4D3130370A0047324F
:10526000380020466C6F773A200020643A002069AD
:105270003A0020703A00204500205A0020590020B2
:105280004D393220580043290A0061626C65642060
:10529000286D696E2074656D702000646973006507
:1052A0006E00436F6C64206578747275646573205A
:1052B0006172652000205400205200416363656CD8
:1052C00065726174696F6E3A205000496E76616C48
:1052D00069642065787472756465720A0020643AA6
:1052E0000020693A0020703A00536C6565702E2EDC
:1052F0002E0047322F473320626164207061726153
:105300006D65746572730A0050726F6265205A2071
:105310004F66667365743A2000446F6E6520736152
:1053200076696E672066696C652E0A0053442072A8
:10533000656164206572726F720A00446F6E652049
:105340007072696E74696E672066696C650A004DDB
:1053500032390053544F505045442E20005072694A
:105360006E7465722073746F707065642064756507
:1053700020746F206572726F72732E2046697820D8
:10538000746865206572726F7220616E6420757337
:1053900065204D39393920746F20726573746172DC
:1053A000742E202854656D70657261747572652065
:1053B00069732072657365742E2053657420697457
:1053C0002061667465722072657374617274696EAF
:1053D00067290A004E6F20436865636B73756D2003
:1053E00077697468206C696E65206E756D62657290
:1053F0002C204C617374204C696E653A20004E6F0E
:1054000020436865636B73756D2077697468206CE1
:10541000696E65206E756D6265722C204C617374C7
:10542000204C696E653A2000636865636B73756D27
:10543000206D69736D617463682C204C61737420F6
:105440004C696E653A20004C696E65204E756D6240
:105450006572206973206E6F74204C617374204CE8
:10546000696E65204E756D6265722B312C204C6122
:105470007374204C696E653A20004D313130005212
:105480006573656E643A20002042002050006F6B07
:1054900000220A00656E7175657565696E67202268
:1054A00000504944204175746F74756E65206661C3
:1054B000696C65642120426164206578747275644A
:1054C0006572206E756D6265720A004265642063C4
:1054D0006F6F6C696E672E2E2E00426564206865C2
:1054E0006174696E672E2E2E006F6B004732382074
:1054F0005A0A473020583830205931393020463345
:105500003030300A4D313137205072696E7420616D
:10551000626F727465642E002020506C616E6E653F
:105520007242756666657242797465733A2000202E
:1055300046726565204D656D6F72793A2000436F44
:105540006D70696C65643A204A756C203132203286
:105550003031390A00207C20417574686F723A201E
:1055600028416C657068204F626A656374732049D6
:105570006E632E2C204C756C7A426F7420476974D0
:10558000205265706F7369746F7279290A00002068
:105590004C61737420557064617465643A20003204
:1055A0002E302E302E3134340A004D61726C696E0B
:1055B0000020536F6674776172652052657365745D
:1055C0000A00205761746368646F672052657365D1
:1055D000740A002042726F776E206F7574205265D6
:1055E0007365740A002045787465726E616C205290
:1055F000657365740A00506F77657255700A0073A1
:10560000746172740A004B494C4C45442E20005082
:1056100072696E7465722068616C7465642E206BAB
:10562000696C6C28292063616C6C6564210A004BED
:10563000494C4C20636175736564206279204B4945
:105640004C4C20627574746F6E2F70696E0A004B3B
:10565000494C4C2063617573656420627920746FD6
:105660006F206D75636820696E616374697665206B
:1056700074696D65202D2063757272656E74206388
:105680006F6D6D616E643A20004D3132310A4730E2
:10569000205A31300A4732382058302059300A47D2
:1056A00031320A4D31303920523136300A4D3131E4
:1056B000372050726F62696E672062656400707295
:1056C0006F62655F726577697065004175746F6CB4
:1056D0006576656C206661696C6564004D313137B3
:1056E00020426564206C6576656C696E6720666132
:1056F000696C65642E0A4730205A31300A473020E1
:1057000045300A4D33303020503235205338383050
:105710000A4D333030205035302053300A4D33306D
:10572000302050323520533838300A4D3330302055
:105730005035302053300A4D333030205032352030
:10574000533838300A47342053310070726F626525
:105750005F6661696C65640050726F74656374653F
:10576000642050696E0A0025301D0C1E2829243142
:105770001C0B184527232F1B0A174443222B1A41C1
:1057800042043803FF360408060600015A448483A5
:10579000A48D3AA3E9BD21FBE400E000E200E600AD
:1057A000C48D11241FBECFEFD1E2DEBFCDBF00E01C
:1057B0000CBF14E0A0E0B2E0E2EBFFEA02E00BBFB6
:1057C00002C007900D92AC32B107D9F727E1ACE2E5
:1057D000B4E001C01D92A437B207E1F71BE2C0EDAF
:1057E000DBE200E006C021970109802FFE010F9443
:1057F0008D4FC63CD10780E00807A9F70E943D38CD
:105800000D94C7570C9400001F920F920FB60F9281
:1058100011242F933F938F939F93AF93BF938091C6
:105820002D0490912E04A0912F04B091300430915A
:105830002C0423E0230F2D3720F40196A11DB11D68
:1058400005C026E8230F0296A11DB11D20932C044C
:1058500080932D0490932E04A0932F04B0933004D2
:105860008091310490913204A0913304B0913404BA
:105870000196A11DB11D8093310490933204A09331
:105880003304B0933404BF91AF919F918F913F91B6
:105890002F910F900FBE0F901F9018952FB7F8946F
:1058A00060912D0470912E0480912F04909130040A
:1058B0002FBF08953FB7F89480913104909132043E
:1058C000A0913304B091340426B5A89B05C02F3FA6
:1058D00019F00196A11DB11D3FBFBA2FA92F982F16
:1058E0008827820F911DA11DB11DBC01CD0142E091
:1058F000660F771F881F991F4A95D1F708958F92D9
:105900009F92AF92BF92CF92DF92EF92FF926B0184
:105910007C01D0DF4B015C01C114D104E104F1042E
:10592000F1F09CD3C7DFDC01CB0188199909AA09E2
:10593000BB09883E9340A105B10570F321E0C21A6E
:10594000D108E108F10888EE880E83E0981EA11CBA
:10595000B11CC114D104E104F10421F7DDCFFF90A3
:10596000EF90DF90CF90BF90AF909F908F90089571
:105970008230910538F0880F991F880F991F05977D
:105980000197F1F70895789484B5826084BD84B559
:10599000816084BD85B5826085BD85B5816085BD2A
:1059A000EEE6F0E0808181608083E1E8F0E0108243
:1059B000808182608083808181608083E0E8F0E084
:1059C000808181608083E1EBF0E08081846080836E
:1059D000E0EBF0E0808181608083E1E9F0E08081AC
:1059E00082608083808181608083E0E9F0E0808153
:1059F00081608083E1EAF0E0808182608083808141
:105A000081608083E0EAF0E0808181608083E1E270
:105A1000F1E0808182608083808181608083E0E228
:105A2000F1E0808181608083EAE7F0E0808184603A
:105A30008083808182608083808181608083808197
:105A4000806880831092C10008951F93CF93DF93E5
:105A5000182FEB0161E016D1209711F460E004C02B
:105A6000CF3FD10531F461E0812FDF91CF911F91BC
:105A700045C1E12FF0E0E55FFD4FE4914E2F50E08E
:105A8000FA013197E231F10508F09DC08827EE5800
:105A9000FF4F8F4F0D948D4F84B5806884BDC7BD77
:105AA00097C084B5806284BDC8BD92C080918000DB
:105AB000806880938000D0938900C093880088C05C
:105AC00080918000806280938000D0938B00C0938F
:105AD0008A007EC080918000886080938000D0938F
