:100000000C94AC270C943DB30C9412B30C94E7B24F
:100010000C94BCB20C9491B20C9466B20C943BB2AA
:100020000C9410B20C94DD270C94DD270C94DD2782
:100030000C94DD270C94C39C0C94DD270C94DD27D5
:100040000C94DD270C94CC5B0C94DD270C94DD27FD
:100050000C94DD270C94DD270C94154D0C94CAB438
:100060000C94DD270D943D020D94E1020C94DD27E4
:100070000C94DD270C94DD270C94DD270C94DD27F0
:100080000C94DD270C94DD270C94DD270C94DD27E0
:100090000C94DD270C94DD270C94DD270C94DD27D0
:1000A0000C94DD270C94DD270C94DD270C94DD27C0
:1000B0000C94DD270C94DD270C94DD270C94DD27B0
:1000C0000C94DD270C94DD270C94DD270C94DD27A0
:1000D0000C94DD270C94DD270C94DD270C94DD2790
:1000E0000C94DD27F87DDE7DE17DE47DE77DF37D09
:1000F000EA7D017EED7DF07D77AE7AAE69AE6DAEC4
:1001000073AEB1AE7EAE82AE88AE8CAE90AE96AE21
:100110009AAE9EAEB1AEA4AEA8AEACAEE6B3EBB3B3
:10012000F0B3FAB304B47DB40EB416B41EB428B45C
:1001300032B43CB44BB455B47DB45FB469B473B459
:10014000F600E800E200F000EE00DE00EA00DE006B
:10015000F400E400DE00E600FA00FA00E000E0004F
:10016000E000F800F800F800F200EC00EC00EC0011
:10017000084AD73B3BCE016E84BCBFFDC12F3D6C0E
:1001800074319ABD56833DDA3D00C77F11BED9E474
:10019000BB4C3E916BAAAABE000000803F05A84C54
:1001A000CDB2D44EB93836A9020C50B99186880820
:1001B0003CA6AAAA2ABE000000803F000D94AB0214
:1001C0000D940A060D9483020D94A2020D94A802C8
:1001D0000D9472020D949A020D9418060D949602D5
:1001E0000D948E020D941E060D949E020D946C02C9
:1001F0000D9411060D9403064E414E494E49545933
:10020000494E46CDCCCC3D0AD7233C17B7D13877E1
:10021000CC2B329595E6241FB14F0A0000204100F7
:1002200000C84200401C4620BCBE4CCA1B0E5AAE41
:10023000C59D74434F4D4D554E49434154494F4E12
:100240000044525952554E004552524F52530049A4
:100250004E464F004543484F0047322F47332062F8
:10026000616420706172616D65746572730A005318
:100270006C6565702E2E2E00456E642066696C6577
:10028000206C6973740A00426567696E2066696C48
:1002900065206C6973740A004D3132350050726903
:1002A0006E742074696D653A200050726F746563D6
:1002B0007465642050696E0A00000125301D0CFF32
:1002C0002829FF24311C0BFF4527FF232F1B0AFF82
:1002D0004443FFFFFF040308060202222B1A414297
:1002E000FF033809FF3646696C616D656E742075D1
:1002F0007365643A200053746174733A20002C20B3
:100300004C6F6E67657374206A6F623A2000546F99
:1003100074616C2074696D653A2000537461747364
:100320003A20002C204661696C65643A20002C203C
:1003300046696E69736865643A20005072696E742C
:10034000733A200053746174733A200054024F02D0
:100350004802410233026F66660044454255473AFF
:10036000004D31313320530020573A00426564205C
:10037000636F6F6C696E672E2E2E00426564206875
:10038000656174696E672E2E2E007A5F6D696E3A14
:100390002000795F6D696E3A2000785F6D696E3A72
:1003A00020005265706F7274696E6720656E6473A9
:1003B000746F70207374617475730A004F6666738E
:1003C000657473206170706C696564004572723A7F
:1003D00020546F6F206661722100546F6F20666138
:1003E000722066726F6D207265666572656E6365F8
:1003F00020706F696E740A00205A0020590058005E
:1004000020204D61783A2000205A002059005800E1
:1004100020204D696E3A20004F6E20004F66660026
:10042000536F667420656E6473746F70733A200046
:1004300020466C6F773A200020643A0020693A0029
:1004400020703A00496E76616C6964206578747238
:10045000756465720A0043290A0061626C65642054
:10046000286D696E2074656D702000436F6C642088
:1004700065787472756465732061726520004B64E1
:10048000200023646566696E652044454641554CED
:10049000545F004B69200023646566696E652044E3
:1004A000454641554C545F004B70200023646566FF
:1004B000696E652044454641554C545F005049449F
:1004C000204175746F74756E652066696E69736816
:1004D0006564212050757420746865206C617374A4
:1004E000204B702C204B6920616E64204B6420638C
:1004F0006F6E7374616E74732066726F6D206265C7
:100500006C6F7720696E746F20436F6E66696775D4
:10051000726174696F6E2E680A00504944204175FB
:10052000746F74756E65206661696C6564212074F2
:10053000696D656F75740A00453120544845524D08
:10054000414C2052554E4157415900424544205498
:100550004845524D414C2052554E41574159005447
:100560006865726D616C2052756E617761790045C6
:10057000312048656174696E67206661696C6564E5
:10058000004265642068656174696E672066616910
:100590006C65640048656174696E67206661696CAA
:1005A000656400504944204175746F74756E652010
:1005B0006661696C6564212054656D706572617453
:1005C00075726520746F6F20686967680A00204B38
:1005D000643A2000204B693A2000204B703A2000FA
:1005E0000A20436C617373696320504944200A00F8
:1005F0002054753A2000204B753A2000206D617818
:100600003A2000206D696E3A200020643A200020D4
:10061000626961733A2000504944204175746F74D7
:10062000756E65206661696C656421204261642095
:100630006578747275646572206E756D6265720A94
:1006400000504944204175746F74756E6520737451
:100650006172740A0020643A0020693A0020703AFE
:10066000004E6F2063617365206C696768740A00CF
:1006700020202020202846312E30203D2066756C19
:100680006C20636F7272656374696F6E2C204630E4
:100690002E30203D206E6F20636F72726563746927
:1006A0006F6E290A002020466164653A20202020D0
:1006B0002020202020202020202020202046002034
:1006C00020536D6F6F7468696E6720286D6D293ACD
:1006D00020202020202020530020204469737461B2
:1006E0006E636520286D6D293A202020202020206F
:1006F000205A004261636B6C61736820636F727291
:10070000656374696F6E20697320616374697665CF
:100710003A0A004261636B6C61736820636F7272A6
:10072000656374696F6E20697320696E61637469B3
:1007300076653A0A004261636B6C617368206D658F
:1007400061737572656D656E7420286D6D293A2030
:100750002000496E736572742066696C616D656E08
:100760007420616E64207072657373206275747496
:100770006F6E20286F72204D313038290A00507278
:1007800065737320627574746F6E20286F72204DCC
:100790003130382920746F2068656174206E6F7A5B
:1007A0007A6C650A00496E736572742066696C61C3
:1007B0006D656E7420616E64207072657373206263
:1007C0007574746F6E20286F72204D313038290A8D
:1007D000003F4B2076616C7565206F7574206F66E5
:1007E0002072616E67652028302D3130292E0A0075
:1007F000416476616E6365204B3D004163746976A8
:10080000652045787472756465723A2000496E7689
:10081000616C69642065787472756465720A001091
:1008200000C90210012C014001220170011801B021
:10083000010E01F00104015002FA00B002F0003094
:1008400003E600D003DC009004D2007005C800A0CD
:1008500006BE000008B400B009AA00D00BA00060DA
:100860000E960060118C000015820020197800C0DF
:100870001D6E00A0226400B0275A00902C5000008A
:10088000314600E0343C0010383200903A280060D5
:100890003C1E00A03D1400803E0A00203F00006284
:1008A00065640A002C2073797374656D2073746F0E
:1008B0007070656421204865617465725F49443ACF
:1008C00020004265642068656174696E6720666116
:1008D000696C65640048656174696E67206661696A
:1008E0006C65640045312048656174696E672066F7
:1008F00061696C65640048656174696E6720666152
:10090000696C6564004B494C4C45442E2000100036
:10091000AD0330016A0150022B0170030A019004FB
:10092000F500B005E500D006D800F007CE001009AC
:10093000C500300ABE00500BB700700CB100900D1E
:10094000AB00B00EA600D00FA200F0109D00101258
:100950009900301395005014920070158E00901677
:100960008B00B0178700D0188400F0198100101B8D
:100970007E00301C7B00501D7900701E7600901F99
:100980007300B0207000D0216E00F0226B001024A4
:1009900069003025660050266300702761009028AA
:1009A0005E00B0295C00D02A5900F02B5600102DB3
:1009B0005400302E5100502F4E0070304B009031BB
:1009C0004800B0324500D0334200F0343E001036CB
:1009D0003B00303737005038330070392E00903AE2
:1009E0002900B03B2300D03C1B00F03D1100103F1C
:1009F0000100F03F00004531204572723A204D4120
:100A00005854454D50004572723A204D4158544556
:100A10004D5020424544004D415854454D5020749E
:100A20007269676765726564004531204572723A84
:100A3000204D494E54454D50004572723A204D4963
:100A40004E54454D5020424544004D494E54454D6D
:100A50005020747269676765726564004D38342090
:100A6000582059205A204500202F002042403A00AB
:100A700020403A00436172642072656D6F76656450
:100A8000004361726420696E73657274656400006E
:100A9000060900FE06018902FE20FFFE07FE06FE93
:100AA0000000000600070106060602008080808024
:100AB0000080030303060103A0A0A00507070600AA
:100AC000FF5050F850F850500509090600FE2070FC
:100AD000A8A07028A870200608080600FF40A848B3
:100AE00010204854080507070600FF6090906098A2
:100AF0009068010303060203808080020707060254
:100B0000FF408080808080400207070602FF80400F
:100B100040404040800505050600008850F8508898
:100B20000505050600002020F82020020404060226
:100B3000FEC0404080050101060002F802020206E4
:100B40000200C0C00406060601001010204080808C
:100B50000406060601006090909090600306060669
:100B6000010040C0404040E00406060601006090DD
:100B7000102040F0040606060100F020601010E08E
:100B800005060606000010305090F8100406060610
:100B90000100F080E01010E004060606010060800D
:100BA000E0909060040606060100F010102040401E
:100BB0000406060601006090609090600406060638
:100BC0000100609090701060020505060200C0C030
:100BD00000C0C00207070602FEC0C000C04040803F
:100BE000050505060000186080601805030306006F
:100BF00001F800F8050505060000C0300830C00403
:100C000007070601006090106040004005060606D8
:100C100000007090A8B08070050606060000205005
:100C200088F88888050606060000F088F08888F0B5
:100C300004060606010060908080906004060606A7
:100C40000100E090909090E0040606060100F0801C
:100C5000E08080F0040606060100F080E0808080DD
:100C6000040606060100609080B090600406060647
:100C700001009090F0909090030606060100E0407D
:100C8000404040E005060606000038101010906055
:100C900004060606010090A0C0A090900406060677
:100CA00001008080808080F005060606000088D85C
:100CB000A8A8888804060606010090D0B0909090FD
:100CC00005060606000070888888887004060606F7
:100CD0000100E09090E080800407070601FF60902B
:100CE00090D0B06010040606060100E09090E090FD
:100CF00090040606060100609040209060050606FC
:100D0000060000F82020202020040606060100909E
:100D10009090909060040606060100909090F0601C
:100D2000600506060600008888A8A8D8880506067B
:100D3000060000885020205088050606060000881E
:100D40008850202020040606060100F01020408074
:100D5000F0030606060100E080808080E0040606BD
:100D6000060100808040201010030606060100E006
:100D700020202020E0050303060003205088050101
:100D8000010600FEF8020202060204804004040488
:100D9000060100709090700406060601008080E055
:100DA0009090E00404040601007080807004060640
:100DB0000601001010709090700404040601006099
:100DC000B0C070040606060100205040E040400418
:100DD00006060601FE60909070106004060606018B
:100DE000008080E09090900306060601004000C05D
:100DF0004040E00308080601FE200060202020A0FB
:100E0000400406060601008080A0C0A090030606EC
:100E1000060100C040404040E0050404060000D048
:100E2000A8A888040404060100E09090900404043B
:100E3000060100609090600406060601FEE09090B6
:100E4000E080800406060601FE7090907010100489
:100E50000404060100A0D080800404040601007090
:100E6000C030E00406060601004040E04050200487
:100E700004040601009090907004040406010090A0
:100E800090606005040406000088A8A850040404CB
:100E9000060100906060900406060601FE909090A6
:100EA000709060040404060100F02040F00307077E
:100EB000060100204040804040200107070602FF55
:100EC000808080808080800307070601008040408A
:100ED0002040408004020206010350A0FFFFFFFFF4
:100EE000FFFFFFFFFFFFFFFFFFFFFFFFFFFFFFFF12
:100EF000FFFFFFFFFFFFFFFFFFFFFFFFFF000000FF
:100F0000060007010606060200800080808080043B
:100F100006060601FF2070A0A07020050707060046
:100F2000FF304840F04040F8050505060000A85095
:100F30008850A80506060600008850F820F8200111
:100F400007070602FF808080008080800407070674
:100F500001FF708060906010E0030101060105A0B0
:100F6000060707060000788494A494847803050596
:100F700006010160A06000E005050506000028509C
:100F8000A05028040303060100F01010040101061C
:100F90000102F00607070600007884B4A4A4847850
:100FA000040101060105F0040303060102609060DC
:100FB0000507070600FF2020F8202000F80305059C
:100FC00006010140A02040E0030505060101C02004
:100FD0004020C0020202060204408004050506010A
:100FE000FF9090B0D08005060606000078E8E8681B
:100FF0002828010101060202800202020602FE40C8
:101000008003050506010140C04040E003050506D8
:10101000010140A04000E0050505060000A05028A1
:1010200050A00508080600FF40C0405070307810FE
:101030000508080600FF40C0405068081038050841
:10104000080600FFC0204030F03078100407070683
:101050000100200020608090600507070600004026
:1010600020205070888805070706000010202050B7
:101070007088880507070600002050205070888877
:1010800005070706000028502050708888050707CC
:1010900006000050002050708888050707060000F1
:1010A0002050205070888805060606000078A0F0C1
:1010B000A0A0B80408080601FE609080809060201F
:1010C000400407070601004020F080E080F004079C
:1010D000070601002040F080E080F00407070601C9
:1010E000002050F080E080F0040707060100500067
:1010F000F080E080F00307070601008040E04040F8
:1011000040E00307070601002040E0404040E003C4
:10111000070706010040A0E0404040E00307070643
:101120000100A000E0404040E00506060600007017
:1011300048E848487004070706010050A090D0B066
:101140009090040707060100402060909090600492
:101150000707060100204060909090600407070692
:101160000100205060909090600407070601005035
:10117000A060909090600407070601005000609006
:1011800090906005050506000088502050880408EE
:10119000080601FF1070B0B0D0D0E0800407070649
:1011A0000100402090909090600407070601002005
:1011B00040909090906004070706010020509090A6
:1011C0009090600407070601005000909090906096
:1011D000050707060000102088502020200406067E
:1011E00006010080E09090E08004060606010060A1
:1011F00090A0A090A0040707060100402000709076
:101200009070040707060100204000709090700461
:101210000707060100205000709090700407070631
:10122000010050A000709090700406060601005066
:101230000070909070040707060100205020709005
:10124000907005040406000070A8B0780406060635
:1012500001FE7080807020400407070601004020D6
:101260000060B0C07004070706010020400060B0B5
:10127000C07004070706010020500060B0C0700471
:101280000606060100500060B0C0700307070601A3
:1012900000804000C04040E00307070601002040F6
:1012A00000C04040E003070706010040A000C04026
:1012B00040E0030606060100A000C04040E004072D
:1012C0000706010030601070909060040707060167
:1012D0000050A000E0909090040707060100402015
:1012E00000609090600407070601002040006090B5
:1012F0009060040707060100205000609090600491
:10130000070706010050A0006090906004060606E2
:101310000100500060909060050505060000200067
:10132000F8002004040406010070B0D0E0040707B0
:10133000060100402000909090700407070601000D
:101340002040009090907004070706010020500094
:1013500090909070040606060100500090909070E6
:101360000409090601FE20400090909070906004EE
:1013700008080601FE8080E09090E0808004080864
:101380000601FE50009090907090604E6F20436870
:1013900065636B73756D2077697468206C696E6521
:1013A000206E756D6265722C204C617374204C69DF
:1013B0006E653A200053544F505045442E20005043
:1013C00072696E7465722073746F707065642064E6
:1013D000756520746F206572726F72732E20466976
:1013E0007820746865206572726F7220616E642067
:1013F000757365204D39393920746F2072657374A7
:101400006172742E202854656D70657261747572F6
:10141000652069732072657365742E20536574208E
:101420006974206166746572207265737461727488
:10143000696E67290A004E6F20436865636B737598
:101440006D2077697468206C696E65206E756D62B9
:1014500065722C204C617374204C696E653A2000D3
:10146000636865636B73756D206D69736D6174631B
:10147000682C204C617374204C696E653A20004CD6
:10148000696E65204E756D626572206973206E6F9E
:1014900074204C617374204C696E65204E756D62CA
:1014A00065722B312C204C617374204C696E653A47
:1014B00020004D313130004D3331005344207265EE
:1014C0006164206572726F720A00446F6E652070ED
:1014D00072696E74696E672066696C650A0024F42F
:1014E000D43050C38E20C2A24017828B7011127A62
:1014F000910D816CD90AA861E108C758660761514E
:1015000043061E4B5D05C145A7041A411104093D60
:101510009803713931034036DB0265339102D430D0
:101520005402802E1D02632CEE01752AC501B028DD
:10153000A001102781018F2564012B244B01E0229B
:101540003401AC211F018D200D01801FFC00841E81
:10155000ED00971DDF00B81CD200E61BC600201B63
:10156000BC00641AB200B219A8000A19A0006A18D7
:101570009900D117910040178B00B51684003116E1
:101580007E00B31579003A157300C7146F00581424
:101590006A00EE1366008813630025135E00C7120D
:1015A0005B006C12570015125400C11151007011EC
:1015B0004F0021114B00D61049008D1047004610F6
:1015C000440002104200C00F4000800F3E00420F56
:1015D0003C00060F3B00CB0E3800930E37005C0E2C
:1015E0003500270E3400F30D3200C10D3100900D8F
:1015F0003000600D2E00320D2D00050D2C00D90C91
:101600002B00AE0C2900850C29005C0C2700350C42
:1016100027000E0C2600E80B2400C40B2400A00BAE
:1016200023007D0B23005A0B2100390B2100180BDE
:101630002000F80A1F00D90A1E00BB0A1E009D0ADE
:101640001D00800A1D00630A1C00470A1B002C0AAB
:101650001B00110A1A00F7091A00DD091900C40954
:101660001900AB091900920917007B0918006309DA
:1016700017004C09160036091600200916000A0941
:101680001500F5081500E0081400CC081400B8088F
:101690001400A4081400900813007D0812006B08C1
:1016A00013005808120046081200340811002308DD
:1016B00011001208110001081100F0071000E007E6
:1016C0001000D0071000C0071000B0070F00A107DE
:1016D000100091070E0083070F0074070F006507C5
:1016E0000E0057070E0049070E003B070D002E079E
:1016F0000E0020070D0013070D0006070D00F90668
:101700000C00ED060D00E0060C00D4060C00C80627
:101710000C00BC060C00B0060C00A4060B009906D9
:101720000C008D060B0082060B0077060B006C0682
:101730000B0061060A0057060B004C060A00420621
:101740000A0038060A002E060A0024060A001A06B5
:101750000A001006090007060A00FD050900F40545
:101760000900EB050900E2050900D9050900D005CB
:101770000900C7050900BE050900B5050800AD054B
:101780000800A50509009C050800940508008C05C3
:101790000800840508007C050800740508006C0535
:1017A0000700650508005D050700560508004E05A1
:1017B0000700470507004005080038050700310508
:1017C00007002A050700230507001C05060016056B
:1017D00007000F0507000805060002050700FB04C7
:1017E0000600F5040700EE040600E8040600E20423
:1017F0000700DB040600D5040600CF040600C90478
:101800000600C3040600BD040600B7040600B104C8
:101810000500AC040600A6040600A00405009B0415
:10182000060095040500900406008A04050085045E
:101830000500800406007A040500750405007004A4
:1018400005006B04050066040500610405005C04E6
:10185000050057040500520405004D040500480426
:101860000500430405003E0404003A040500350465
:101870000500300404002C040500270404002304A0
:1018800005001E0404001A040400160405001104D7
:1018900004000D040400090405000404040000040D
:1018A0000400FC030400F8030400F4030400F00344
:1018B0000400EC030400E8030400E4030400E00374
:1018C0000400DC030400D8030400D4030400D003A4
:1018D0000400CC030400C8030300C503030024F480
:1018E00004D9201BC40C5C0E9804C4095F02650770
:1018F0007101F405F900FB04B30048048700C1033B
:1019000069005803550003034500BE023A008402F3
:10191000310053022A002902250004022000E401BC
:101920001C00C8011900AF011700980114008401C0
:101930001300710110006101100051010E004301FC
:101940000D0036010B002B010B0020010B001501CF
:1019500009000C01090003010800FB000800F30066
:101960000800EB000700E4000600DE000600D800D7
:101970000600D2000600CC000500C7000500C2002A
:101980000500BD000400B9000400B5000400B1006A
:101990000400AD000400A9000400A5000300A2009B
:1019A00003009F0004009B000300980003009500C3
:1019B000020093000300900003008D0002008B00E2
:1019C00003008800020086000200840003008100FA
:1019D00002007F0002007D0002007B00020079000F
:1019E000020077000100760002007400020072001D
:1019F0000100710002006F0002006D0001006C0028
:101A000002006A0001006900020067000100660030
:101A10000100650001006400020062000100610035
:101A20000100600001005F0002005D0001005C0039
:101A300001005B0001005A0001005900010058003C
:101A4000010057000100560001005500010054003C
:101A5000010053000000530001005200010051003A
:101A60000100500001004F0001004E0000004E0038
:101A700001004D0001004C0001004B0000004B0034
:101A800001004A0001004900010048000000480030
:101A9000010047000100460000004600010045002B
:101AA0000000450001004400010043000000430025
:101AB000010042000000420001004100000041001E
:101AC0000100400001003F0000003F0001003E0017
:101AD00000003E0001003D0000003D0001003C0010
:101AE00000003C0000003C0001003B0000003B0007
:101AF00001003A0000003A000100390000003900FE
:101B000001003800000038000000380001003700F4
:101B100000003700010036000000360000003600EB
:101B200001003500000035000000350001003400E0
:101B300000003400000034000100330000003300D6
:101B400000003300010032000000320000003200CB
:101B500001003100000031000000310001003000C0
:101B6000000030000000300001002F0000002F00B6
:101B700000002F0000002F0001002E0000002E00AA
:101B800000002E0001002D0000002D0000002D009F
:101B900000002D0001002C0000002C0000002C0093
:101BA00000002C0001002B0000002B0000002B0087
:101BB00000002B0001002A0000002A0000002A007B
:101BC00000002A000100290000002900000029006F
:101BD0000000290000002900010028000000280062
:101BE0000000280000002800000028000100270055
:101BF0000000270000002700000027000000270049
:101C0000010026000000260000002600000026003B
:101C1000000026000100250000002500000025002E
:101C20000000250000002500000025000100240020
:101C30000000240000002400000024000000240014
:101C40000100230000002300000023000000230007
:101C500000002300000023000000230001002200F8
:101C600000002200000022000000220000002200EC
:101C700000002200010021000000210000002100DE
:101C800000002100000021000000210000002100D0
:101C900001002000000020000000200000002000C3
:101CA00000002000000020000000200000002000B4
:101CB00001001F0000001F0000001F0000001F00A7
:101CC00000001F0000001F0000001F0001001E0098
:101CD00000001E0000001E0000001E000000C231B7
:101CE00000001C260000F4190000D80F0000EB08CB
:101CF0000000C004000075020000400100002575CE
:101D00003A2530327500253032753A25303275006B
:101D100025756420253032753A253032750000066D
:101D20000900FE000000000001090008FE00000597
:101D3000080806000040F0C8888898781005080850
:101D4000060000C0F88888888888F8050505060020
:101D5000012030F830200508080600002070F82027
:101D6000202020E00509090600FF2070A8A8B888F7
:101D70008870200509090600FFE080C0B0A828305F
:101D800028280509090600FFF8A88888888888A8F7
:101D9000F8050A0A0600FE205050505088A8A8886E
:101DA0007003030306000340A04000060900FE077D
:101DB00001920321207FFF07FF07FF0000000600BC
:101DC00000010707060200808080808000800302F7
:101DD00002060105A0A00507070600005050F850B4
:101DE000F850500507070600002078A07028F02062
:101DF000050707060000C0C810204098180507070F
:101E00000600006090A040A8906802030306010449
:101E1000C0408003070706010020408080804020EA
:101E200003070706010080402020204080050505AB
:101E300006000120A870A820050505060001202045
:101E4000F820200203030602FFC0408005010106BE
:101E50000003F8020202060200C0C00505050600E4
:101E60000108102040800507070600007088888858
:101E700088887003070706010040C040404040E0EA
:101E8000050707060000708808708080F8050707BE
:101E9000060000F81020100808F0050707060000EB
:101EA00010305090F81010050707060000F880F079
:101EB00008088870050707060000708080F0888891
:101EC00070050707060000F80810202020200507ED
:101ED000070600007088887088887005070706006C
:101EE0000070888878080870020505060200C0C0E6
:101EF00000C0C00206060602FFC0C000C040800449
:101F0000070706000010204080402010050303064C
:101F10000002F800F80407070601008040201020A6
:101F20004080050707060000708808102000200583
:101F3000070706000070880868A8A870050707064C
:101F40000000708888F8888888050707060000F078
:101F50008888F08888F00507070600007088808070
:101F6000808870050707060000F08888888888F058
:101F7000050707060000F88080F08080F805070755
:101F8000060000F88080F0808080050707060000CA
:101F9000708880B8888870050707060000888888E0
:101FA000F88888880107070602008080808080808A
:101FB0008005070706000038101010109060050714
:101FC000070600008890A0C0A090880507070600BB
:101FD00000808080808080F805070706000088D890
:101FE000A8888888880507070600008888C8A898F8
:101FF000888805070706000070888888888870052B
:102000000707060000F08888F08080800507070633
:10201000000070888888A89068050707060000F00F
:102020008888F0A0908805070706000078808070F7
:102030000808F0050707060000F8202020202020CF
:1020400005070706000088888888888870050707C4
:102050000600008888888888502005070706000049
:102060008888888888A85005070706000088885057
:10207000205088880507070600008888885020209F
:1020800020050707060000F80810204080F8030725
:1020900007060100E08080808080E00505050600DD
:1020A000018040201008030707060100E0202020DF
:1020B0002020E005030306000420508805010106E6
:1020C0000000F80202020602058040050505060030
:1020D0000070087888780507070600008080B0C87F
:1020E0008888F00505050600007080808870050767
:1020F0000706000008086898888878050505060026
:10210000007088F880700507070600003048E0403E
:102110004040400506060600FF7088887808700574
:1021200007070600008080B0C88888880107070676
:102130000200800080808080800308080601FF2064
:102140000020202020A04004070706000080809087
:10215000A0C0A090030707060100C04040404040D7
:10216000E0050505060000D0A8A8A8A805050506F5
:102170000000B0C8888888050505060000708888BA
:1021800088700506060600FFF08888F08080050646
:10219000060600FF7888887808080505050600000F
:1021A000B0C880808005050506000070807008F0CA
:1021B0000407070600004040E040404030050505A8
:1021C000060000888888986805050506000088884C
:1021D0008850200505050600008888A8A850050538
:1021E0000506000088502050880506060600FF8876
:1021F0008888780870050505060000F8102040F86A
:1022000003070706010020404080404020010707E7
:10221000060200808080808080800307070601001E
:102220008040402040408005020206000268900085
:1022300000000600005A0059005800092000000064
:10224000000000000000000000003FFFF000000060
:1022500000000000000000000038007000000000D6
:10226000000000000000000030FC30000000000012
:102270000000000000000020FC1000000000000032
:1022800000000000000020781000000000000000A6
:1022900000000000002030100000000000000000DE
:1022A000000000002C00D03FC00000000000000033
:1022B0002082002E31D07FE00000000000000010DE
:1022C00041002F7BD07FE0000000000000001041A3
:1022D000002F7BD07FE00000000000000020820083
:1022E0002E31D03FC0000000000000004104002C4F
:1022F00000D03FC000000000000000820800203035
:10230000107FE0000000000000008208002078102C
:102310007FE00000000000000041040020FC107F6E
:10232000E00000000000000020820030FC301F8030
:10233000000000000000000000003800700F0000E6
:10234000000000000000FFFFC03FFFF0060000009B
:102350000000000000FFFFC00000000000000000BF
:10236000000000000000003FFFF00000000000003F
:1023700000000000000038007000000000000000B5
:102380000000000000318630000000000000000066
:102390000000000023871000000000000000000083
:1023A00000000027879000000000000000000000EF
:1023B00000002F87D0000000000000000000000097
:1023C000002F03D03FC0000000000000002082006A
:1023D0002030107FE00000000000000010410020CD
:1023E00078107FE00000000000000010410020781D
:1023F000107FE0000000000000002082002030106C
:102400003FC0000000000000004104002F03D03F47
:10241000C0000000000000008208002F87D07FE08D
:10242000000000000000008208002787907FE00085
:102430000000000000004104002387107FE000003E
:1024400000000000002082003186301F8000000064
:10245000000000000000003800700F0000000000C5
:10246000000000FFFFC03FFFF0060000000000007A
:102470000000FFFFC000000020746F6F206C6F6EC3
:102480006720657874727573696F6E2070726576F7
:10249000656E7465640A0020636F6C6420657874EF
:1024A000727573696F6E2070726576656E7465649F
:1024B0000A004D6963726F737465707320756E6185
:1024C0007661696C61626C650A0045313A200045AD
:1024D000303A20005A3A2000593A2000583A200059
:1024E0004D53312C4D53322050696E730A004572A2
:1024F000726F722077726974696E6720746F2045FD
:102500004550524F4D210A001FFFFFFFFFFFFF60A4
:102510000000000001FF400000000000FF800000FC
:102520000000007F83CF00000C303F87FF80000C4D
:10253000301F867980000C000F8C30C7838C30E709
:102540008C30CFC7CC31F38C30DCECEC33B98C3031
:10255000D86C6C33198C30D06C0C33198C30D86C2F
:102560000C33198C30DC6C0E3B198C30CF7C079F00
:10257000198C30C77C038F194000000000000260F6
:102580000000000000061FFFFFFFFFFFF8202050A3
:102590006C616E6E657242756666657242797465CD
:1025A000733A20002046726565204D656D6F727923
:1025B0003A2000436F6D70696C65643A204A616E21
:1025C00020313020323031390A00207C20417574AE
:1025D000686F723A2028416C657068204F626A65A6
:1025E00063747320496E632E2C204C756C7A426F95
:1025F0007420476974205265706F7369746F7279C3
:10260000290A004A616E20313020323031393133AD
:102610003A34363A323400204C6173742055706479
:10262000617465643A2000312E312E390A004D6103
:10263000726C696E0020536F667477617265205208
:10264000657365740A00205761746368646F67205E
:1026500052657365740A002042726F776E206F7541
:10266000742052657365740A002045787465726E33
:10267000616C2052657365740A00506F77657255FE
:10268000700A0073746172740A006175746F256951
:102690002E67006572726F722077726974696E6757
:1026A00020746F2066696C650A00456E6473746FF0
:1026B0007073202563202563202563202563002077
:1026C0005A3A0020593A0020583A00656E647374F3
:1026D0006F7073206869743A2000446F6E652073D0
:1026E0006176696E672066696C652E0A004D323925
:1026F00000473020583137302059323930204633A6
:102700003030300A4D313137205072696E7420619B
:10271000626F727465642E00627573793A2070611D
:102720007573656420666F7220696E7075740A0037
:10273000627573793A2070617573656420666F7293
:1027400020757365720A00627573793A2070726F32
:1027500063657373696E670A004B494C4C45442EA0
:1027600020004B494C4C206361757365642062798D
:1027700020746F6F206D75636820696E6163746982
:1027800076652074696D65202D2063757272656EA3
:102790007420636F6D6D616E643A2000506C6561EA
:1027A0007365207265736574005052494E544552EA
:1027B0002048414C544544005072696E7465722043
:1027C00068616C7465642E206B696C6C28292063C9
:1027D000616C6C6564210A00656E7175657565696B
:1027E0006E6720220000000000000000C000000012
:1027F0000000004842000048420000404000000045
:10280000005761726E696E673A20486F6D696E6736
:102810002042756D702044697669736F72203C2088
:10282000310A000202040000A0400000A0400000A5
:1028300000400000954300008B4300007A43FFFFF7
:10284000FF496E736572742066696C616D656E74A4
:1028500020616E6420707265737320627574746F8A
:102860006E20286F72204D313038290A002F2F61D9
:102870006374696F6E3A726573756D650A004D36E3
:1028800030303A20546F6F20636F6C6400486F746F
:10289000656E6420746F6F20636F6C640A002F2F65
:1028A000616374696F6E3A70617573650A00022521
:1028B00069730025696D20256973002569682025E5
:1028C000696D2025697300256964202569682025C4
:1028D000696D2025697300256979202569642025A3
:1028E00069682025696D2025697300486F6D696EE0
:1028F00067206661696C65640001050800FF0601D8
:1029000021023520FFFF07FF06FF0900502216565F
:10291000808080800080153353A0A0A002575750BC
:1029200050F850F850500257572070A0702870206F
:1029300013355580A040A02002475740A0A040A0DA
:10294000A0502513538080801226564080808080BE
:10295000401226568040404040800245559060F02D
:1029600060900255552020F820201133536040809C
:10297000044151F011335340E040024656101020FC
:1029800040808012365640A0A0A0A040123656408B
:10299000C0404040E00246566090106080F0024621
:1029A00056F020601090600246562060A0F0202073
:1029B000024656F080E01090600246566080E0903B
:1029C0009060024656F0102020404002465660902B
:1029D000609090600246566090907010601225558D
:1029E000C0C000C0C0113656606000604080123622
:1029F00056204080804020034353F000F0123656AA
:102A000080402020408012365640A02040004001E7
:102A10005858304898A8A890403002465660909088
:102A2000F09090024656E090E09090E002465660AA
:102A30009080809060024656E090909090E0024630
:102A400056F080E08080F0024656F080E080808082
:102A5000024656609080B090600246569090F0908A
:102A60009090123656E040404040E00246567020BA
:102A70002020A04002465690A0C0A0A0900246563A
:102A80008080808080F002465690F0F09090900216
:102A9000465690D0F0B0B09002465660909090901C
:102AA00060024656E09090E0808001475760909029
:102AB000D0B06010024656E09090E09090024656EA
:102AC000609040209060123656E040404040400206
:102AD00046569090909090600246569090909060EC
:102AE00060024656909090F0F090024656909060AA
:102AF000609090025656888850202020024656F05A
:102B000010204080F0123656E080808080E002463F
:102B100056808040201010123656E020202020E001
:102B200016325240A0014151F01622528040024418
:102B300054709090700246568080E09090E012347D
:102B4000546080806002465610107090907002446D
:102B50005460B0C060024656205040E040400145FD
:102B60005560907010600246568080E09090901200
:102B700036564000C04040E011375720002020204A
:102B8000A040024656808090E09090123656C04099
:102B9000404040E0025454D0A8A8A8024454E09019
:102BA000909002445460909060014555E090E08020
:102BB000800145557090701010024454A0D0808060
:102BC00012345460C020C00246564040E0405020BD
:102BD00002445490909070123454A0A0A04002542B
:102BE0005488A8A8500244549060609001455590C4
:102BF00090709060024454F02040F00247573040FB
:102C000020C020403022165680808080808002477D
:102C100057C02040304020C006425250A0FFFFFF66
:102C2000FFFFFFFFFFFFFFFFFFFFFFFFFFFFFFFFB4
:102C3000FFFFFFFFFFFFFFFFFFFFFFFFFFFF090099
:102C4000502216568000808080800146562070A059
:102C5000A070200246562050E04050A002555588F2
:102C6000705070880256568850F820F82022175766
:102C7000808080008080800247577080E0907010D4
:102C8000E0173151A002565670A8C8C8A870143574
:102C90005560A06000E003435350A050123353E04E
:102CA0002020143151E002565670E8D8E8D8701749
:102CB0003151E015335340A04012355540E04000FB
:102CC000E014355540A02040E0143555C020C02008
:102CD000C01622524080014555909090E0800256E7
:102CE0005678E8E868282824115180112252408043
:102CF00014355540C04040E014355540A04000E038
:102D0000034353A050A0024757808080A060F0206A
:102D10000247578080A0D010207002475780408023
:102D200060A0F02012365640004080A04002475775
:102D300040206090F0909002475720406090F090C3
:102D40009002475760906090F0909002475750A0D3
:102D50006090F0909002475790006090F090900241
:102D6000475760906090F0909002465670A0A0F097
:102D7000A0B0014757609080809060400247574064
:102D800020F080E080F00247572040F080E080F0A3
:102D90000247576090F080E080F00247579000F0C3
:102DA00080E080F01237578040E0404040E012372A
:102DB000572040E0404040E012375740A0E04040FC
:102DC00040E0123757A000E0404040E00256567005
:102DD00048E848487002475750A090D0B090900201
:102DE0004757402060909090600247572040609085
:102DF00090906002475760906090909060024757B3
:102E000050A0609090906002475790006090909022
:102E100060123353A040A002465670B0B0D0D0E04C
:102E20000247574020909090906002475720409072
:102E30009090906002475760909090909060024709
:102E40005790009090909060025757102088502023
:102E5000202002465680E09090E080024656609026
:102E6000A0A090A0024757402000709090700247A9
:102E7000572040007090907002475720500070908B
:102E8000907002475750A0007090907002465650C4
:102E90000070909070024757609060709090700240
:102EA0005454F068B0781135556080806040024716
:102EB0005740200060B0C06002475720400060B01B
:102EC000C06002475760900060B0C0600246565034
:102ED0000060B0C060123757804000C04040E01230
:102EE0003757204000C04040E012375740A000C094
:102EF0004040E0123656A000C04040E0024757A0D4
:102F000040A01070906002475750A000E090909051
:102F100002475740200060909060024757204000D1
:102F20006090906002475760900060909060024708
:102F30005750A000609090600246569000609090BC
:102F4000601235554000E0004002445470B0D0E0BB
:102F50000247574020009090907002475720400051
:102F60009090907002475760900090909070024649
:102F700056900090909070014858204000909070BA
:102F800090600147578080E090E080800147579033
:102F900000909070906001050700FE0500FB01F2B3
:102FA00020FFFE05FE05FE02004002152580808000
:102FB0000080053242A0A002556550F850F850013B
:102FC00046562070C030E0200255659010204048E1
:102FD0000255656080689068051222808002253560
:102FE000408080804002253580404040800433434B
:102FF000A040A003334340E040012232408004312E
:1030000041E00211218002556508102040800245F0
:10301000556090909060022535C040404040024588
:1030200055E0106080F0024555E0106010E0024568
:10303000552060A0F020024555F080E010E00245E8
:10304000556080E09060024555F0102040400245F8
:103050005560906090600245556090701060031359
:1030600023800080021424800080800235452040A7
:10307000804020033343E000E0023545804020409B
:1030800080024555E0106000400255657088B8A880
:1030900070024555609090F090024555E090E090A8
:1030A000E00235456080808060024555E090909058
:1030B000E0023545E080E080E0023545E080E080D8
:1030C000800245557080B090700245559090F09008
:1030D00090023545E0404040E002455530101090E8
:1030E0006002455590A0C0A0900235458080808048
:1030F000E002556588D8A8888802455590D0B090E0
:10310000900245556090909060024555E09090E0A7
:1031100080014656609090906010024555E0909076
:10312000E09002455570806010E0023545E0404077
:10313000404002455590909090600245559090A077
:10314000A04002556588A8A8A850024555909060F7
:1031500090900245559090701060023545E02040F7
:1031600080E0022535C0808080C002556580402007
:103170001008022535C0404040C005324240A00240
:103180004151F00522328040024454709090700208
:10319000455580E09090E0023444608080600245B4
:1031A00055107090907002445460B0C06002354574
:1031B0002040E040400046567090907010600245FC
:1031C0005580E09090900215258000808080002737
:1031D00037400040404040800245558090A0E0903C
:1031E0000215258080808080025464F0A8A8A8027F
:1031F0004454E09090900244546090906000465691
:10320000E09090E080800046567090907010100220
:103210003444A0C0808002445470C030E002354580
:1032200040E04040200244549090907002445490FA
:1032300090A040025464A8A85050023444A04040DA
:10324000A0004656909090701060024454F02040C8
:10325000F002354560408040600215258080808006
:1032600080023545C0402040C005425250A0FFFFBB
:10327000FFFFFFFFFFFFFFFFFFFFFFFFFFFFFFFF5E
:10328000FFFFFFFFFFFFFFFFFFFFFFFFFFFFFF024B
:103290000040FFFFFFFFFFFFFFFFFFFFFFFFFFFFFC
:1032A000FFFFFFFFFFFFFFFFFFFFFFFFFFFFFFFF2E
:1032B000FFFFFFFFFFFFFFFFFFFFFFFFFFFFFFFF1E
:1032C000FFFFFFFFFFFFFFFFFFFFFFFFFFFFFFFF0E
:1032D000FFFFFFFFFFFFFFFFFFFFFFFFFFFFFFFFFE
:1032E000FFFFFFFFFFFFFFFFFFFFFFFFFFFFFFFFEE
:1032F000FF01060D00FE09016602D620FFFE0BFE4F
:103300000AFE0D0060221969808080808080800024
:1033100080183363A0A0A00357675050F850F850AE
:10332000500259692078A0A0702828F0200259691D
:1033300048A85010204050A89002586840A0A040D3
:10334000A0989068281363808080113B6B204040D8
:103350008080808080404020113B6B804040202056
:1033600020202040408006556520A870A8200455E4
:10337000652020F82020113363604080065161F8F9
:1033800011336340E04002596908081010204040A2
:103390008080025969205088888888885020025986
:1033A000692060A02020202020F8025969708888B8
:1033B0000810204080F8025969F8081020700808A9
:1033C0008870025969101030505090F8101002594E
:1033D00069F88080B0C808088870025969708880D0
:1033E00080F088888870025969F808101020204001
:1033F00040400259697088888870888888700259AE
:103400006970888888780808887011386840E040BA
:10341000000040E04011386840E04000006040801B
:10342000025969081020408040201008045464F8B4
:103430000000F802596980402010081020408002E6
:103440005969708888081020200020025969708806
:103450008898A8A8B080780259692050888888F890
:10346000888888025969F048484870484848F002FE
:103470005969708880808080808870025969F0481E
:10348000484848484848F0025969F8808080F080F0
:103490008080F8025969F8808080F0808080800206
:1034A00059697088808080988888700259698888F6
:1034B0008888F888888888123969E0404040404010
:1034C0004040E0025969381010101010109060024E
:1034D0005969888890A0C0A0908888025969808026
:1034E000808080808080F80259698888D8A8A88860
:1034F00088888802596988C8C8A8A89898888802C6
:103500005969708888888888888870025969F08825
:103510008888F080808080015A6A708888888888CE
:1035200088A87008025969F0888888F0A090888877
:10353000025969708880807008088870025969F89B
:10354000202020202020202002596988888888880F
:10355000888888700259698888888850505020204F
:1035600002596988888888A8A8A8A850025969883B
:1035700088505020505088880259698888505020BF
:1035800020202020025969F808101020404080F8BF
:10359000113B6BE0808080808080808080E00259D9
:1035A00069808040402010100808113B6BE020200B
:1035B00020202020202020E0085363205088015143
:1035C00061F82A22628040025666700878889868FE
:1035D000025969808080F088888888F00256667079
:1035E00088808088700259690808087888888888E7
:1035F000780256667088F8808870025969304840B1
:1036000040F04040404000586870888888780888BA
:1036100070025969808080B0C888888888123868AC
:103620004000C040404040E0004A6A1000301010A6
:10363000101090906002596980808090A0C0A09086
:1036400088123969C040404040404040E002566620
:10365000D0A8A8A8A888025666B0C888888888021A
:103660005666708888888870005868F0888888F066
:103670008080800058687888888878080808025612
:1036800066B0C8808080800256667088601088703E
:103690000258684040F040404048300256668888F2
:1036A0008888986802566688888850502002566636
:1036B0008888A8A8A8500256668850202050880004
:1036C00058688888889868088870025666F81020BC
:1036D0004080F8015B6B1820202020C02020202093
:1036E00018221969808080808080808080015B6BD7
:1036F000C0202020201820202020C008536348A884
:1037000090FFFFFFFFFFFFFFFFFFFFFFFFFFFFFF38
:10371000FFFFFFFFFFFFFFFFFFFFFFFFFFFFFFFFB9
:10372000FFFF0D006022196980008080808080800A
:10373000800358682070A8A0A0A8702002596930A2
:10374000484040E0404048B0035666887050507092
:103750008802596988885050F820F8202022196979
:10376000808080800080808080124A6A60908060C3
:103770009090601090601A3262A0A003596970881E
:10378000A8D8C8D8A88870045767700878887800C7
:10379000F80356662850A0A05028045363F8080880
:1037A000163161E00359697088E8D8D8E8D8887084
:1037B0000A5161F8174464609090600357672020B5
:1037C000F8202000F807356540A02040E007356567
:1037D00040A04020C02A2262408000586888888823
:1037E0008898E8808002596978E8E8E8E86828283D
:1037F00028262161C0202262408007356540C040F4
:1038000040E0045767708888887000F8035666A007
:1038100050282850A0025A6A40C04040E0081828AA
:103820003808025A6A40C04040E0102808103802A8
:103830005A6A40A04020A048182838080259692038
:103840000020204080888870025A6A402000205062
:103850008888F88888025A6A10200020508888F8E2
:103860008888025A6A30480020508888F888880280
:103870005A6A28500020508888F88888025A6A506E
:10388000500020508888F88888025A6A20502020EA
:10389000508888F8888802596958A0A0A0B0E0A094
:1038A000A0B8005B6B70888080808080887020402A
:1038B000025A6A402000F88080F08080F8025A6A3C
:1038C000102000F88080F08080F8025A6A304800AA
:1038D000F88080F08080F8025A6A505000F88080AA
:1038E000F08080F8123A6A804000E040404040405A
:1038F000E0123A6A204000E04040404040E0124A76
:103900006A609000E04040404040E0123A6AA0A067
:1039100000E04040404040E0025969F0484848E833
:10392000484848F0025A6A2850008888C8A89888F1
:1039300088025A6A40200070888888888870025AF5
:103940006A10200070888888888870025A6A304817
:103950000070888888888870025A6A2850007088A9
:103960008888888870025A6A5050007088888888D1
:1039700088700355658850205088015B6B087098EB
:1039800098A8A8A8C8C87080025A6A4020008888F1
:103990008888888870025A6A1020008888888888F9
:1039A0008870025A6A30480088888888888870023F
:1039B0005A6A50500088888888888870025A6A102D
:1039C00020008888502020202002596980F08888B3
:1039D00088F0808080025969609090A0A0908888CB
:1039E000B0025969402000700878889868025969C7
:1039F0001020007008788898680259693048007073
:103A00000878889868025969285000700878889862
:103A100068025969505000700878889868025A6A9C
:103A200030483000700878889868025666702870B0
:103A3000A0A8500058687088808088702040025983
:103A4000694020007088F880887002596910200051
:103A50007088F88088700259693048007088F88052
:103A600088700259695050007088F8808870123947
:103A700069804000C040404040E012396920400069
:103A8000C040404040E0124969609000C040404062
:103A900040E0123969A0A000C040404040E0025A16
:103AA0006A50206010708888888870025969285090
:103AB00000B0C888888888025969402000708888CA
:103AC0008888700259691020007088888888700280
:103AD0005969304800708888888870025969285070
:103AE00000708888888870025969505000708888F2
:103AF000888870035767202000F80020200158684C
:103B0000087098A8A8C87080025969402000888869
:103B10008888986802596910200088888888986881
:103B20000259693048008888888898680259695025
:103B30005000888888889868005B6B10200088880F
:103B4000889868088870005A6A8080B0C88888C8D9
:103B5000B08080005B6B5050008888889868088827
:103B600070000000000000000000000000000000E5
:103B70000000000000000000000000000000000045
:103B8000000000000C000000000000000C0000001D
:103B900000000000120000000000000023000000F0
:103BA0000000000021000000000000004C80000028
:103BB000000000005E800000000000009240000055
:103BC00000000000A14000000000000121200000D2
:103BD000000000027F9000000000000200100000C2
:103BE00000000007FFF800000000000400080000CB
:103BF00000000008000400000000000800060000AB
:103C00000000001000020000000000301E01000053
:103C1000000000207F81000000000041FFE08000E4
:103C200000000043FCF08000000000873B7840006B
:103C30000000018EDBFC60000000010FEBCC2000D7
:103C40000000021FEDB610000000021FDEB61000DB
:103C500000000439CD7F080000000436E0FF0800B2
:103C60000000087EC0BB84000000187F005D860055
:103C70000000107FC0ED82000000203CC0730100F6
:103C80000000203B337F01000000701BE77E0380B3
:103C90000000C81DEEDE04C00000880FDEDC04401A
:103CA0000001240FDF3C092000012607DBF8192062
:103CB00000027203E7F0139000025101FFE022902E
:103CC000000489007F802448000904801E004824E5
:103CD000000BFE400000DFF40010004000008002F6
:103CE000001FFFFFFFFFFFFE0000000000000000BC
:103CF00000000000000000000000000000000000C4
:103D0000001022103C3C0E1F00102210042211044F
:103D1000001022100822110400102210083C110487
:103D20000010221010221104001022102022110471
:103D3000001E1C1E3C3C0E040000000000000000A1
:103D40000000000000000000000000000000000073
:103D50000000000000000000000000000000000063
:103D60000000000000000000000000000000000053
:103D70000000000000000000000000000000000043
:103D80000000000000000000000000000000000033
:103D90000000000000000000000000000000006FB4
:103DA0006B0020573A004578747275646572204341
:103DB0006F6F6C696E672E2E2E0045787472756475
:103DC00065722048656174696E672E2E2E004D3134
:103DD000343520533C696E6465783E206F757420DD
:103DE0006F662072616E67652028302D31290A00C8
:103DF0004C756C7A426F742054415A2035204F66BE
:103E0000662E00205A3A0020593A0020436F756E02
:103E10007420583A0020453A00205A3A0020593A76
:103E200000583A003A004361703A00544845524DF8
:103E3000414C5F50524F54454354494F4E004155F9
:103E4000544F5245504F52545F53445F5354415462
:103E5000555300454D455247454E43595F504152D9
:103E600053455200434153455F4C494748545F42D4
:103E700052494748544E45535300544F47474C45C9
:103E80005F4C494748545300534F4654574152459D
:103E90005F504F574552004255494C445F50455280
:103EA00043454E54004C4556454C494E475F4441AE
:103EB0005441005A5F50524F4245004155544F4CB7
:103EC0004556454C005052494E545F4A4F420050AF
:103ED000524F4752455353004155544F5245504F4E
:103EE00052545F54454D5000564F4C554D45545219
:103EF000494300454550524F4D0053455249414CAE
:103F00005F584F4E5F584F4646004649524D574105
:103F100052455F4E414D453A4D61726C696E2020AD
:103F20004649524D574152455F56455253494F4EAF
:103F30003A312E312E392E333420455854525544BF
:103F400045525F545950453A48617264656E6564E4
:103F5000537465656C20534F555243455F434F443E
:103F6000455F55524C3A68747470733A2F2F636FE3
:103F700064652E616C6570686F626A656374732E28
:103F8000636F6D2F646966667573696F6E2F4D413F
:103F9000524C494E2050524F544F434F4C5F564560
:103FA0005253494F4E3A312E30204D414348494EED
:103FB000455F545950453A4C756C7A426F742054A1
:103FC000415A20352045585452554445525F434F7D
:103FD000554E543A3120555549443A6333323535BC
:103FE0006339362D343039372D343838342D38652F
:103FF00064302D6465643266663962616536310A03
:10400000002F2F2000205400205200416363656C74
:1040100065726174696F6E3A205000454550524F89
:104020004D204F4B0A004D3530320A4D35303000AF
:104030004C6F61642073657474696E6773005265B8
:1040400073746F7265206661696C73616665005395
:10405000746F72652073657474696E677300416470
:1040600076616E6365642053657474696E6773006E
:104070004D61696E005072696E746572205374618F
:104080007473004669726D7761726520566572734C
:10409000696F6E004D61696E00466C6F7700466C0B
:1040A0006F770046616E207370656564203100464D
:1040B000616E207370656564203100426564004262
:1040C0006564004E6F7A7A6C65004E6F7A7A6C6523
:1040D000005370656564005370656564004D6169E7
:1040E0006E004D6F76652058004D6F766520590043
:1040F0004D6F7665205A004578747275646572203C
:10410000004D6F766520302E316D6D004D6F7665F8
:1041100020316D6D004D6F76652031306D6D004D35
:104120006F7665206178697300457874727564658F
:104130007220004D6F7665205A004D6F76652059CC
:10414000004D6F766520580045787472756465720D
:1041500020004175746F20686F6D6500473238002C
:104160004D6F7665205A004D6F76652059004D6F72
:1041700076652058004D6F76656D656E74000000A1
:1041800020002300260029002C002F00320000010F
:104190000000030106010901436F6F6C646F776EC5
:1041A0000046616E20737065656420310046616E63
:1041B0002073706565642031004265640042656467
:1041C000004E6F7A7A6C65004E6F7A7A6C65004D9E
:1041D00061696E005654726176206D696E005654A6
:1041E000726176206D696E005654726176206D6939
:1041F0006E00566D696E00566D696E00566D696E83
:1042000000566D6178204500566D61782045005656
:104210006D6178204500566D6178205A00566D61B9
:1042200078205A00566D6178205A00566D617820CA
:104230005900566D6178205900566D6178205900FB
:10424000566D6178205800566D6178205800566D83
:1042500061782058004D6F74696F6E00416D617810
:10426000204500416D6178204500416D6178205AFC
:1042700000416D6178205A00416D617820590041FC
:104280006D6178205900416D6178205800416D6161
:1042900078205800412D74726176656C00412D7450
:1042A000726176656C00412D726574726163740091
:1042B000412D7265747261637400416363656C00C3
:1042C000416363656C004D6F74696F6E0056652DB8
:1042D0006A65726B0056652D6A65726B0056652DB6
:1042E0006A65726B00567A2D6A65726B00567A2D7C
:1042F0006A65726B0056792D6A65726B0056792D6E
:104300006A65726B0056792D6A65726B0056782D5E
:104310006A65726B0056782D6A65726B0056782D4F
:104320006A65726B004D6F74696F6E0020496E761E
:10433000616C696420657874727564657220000030
:10434000000000000000C0000000000000954300D5
:10435000008A4300007A43486F6D652025732573FA
:104360002573206669727374002066697273740A1B
:10437000005A0059005800486F6D652000486F6D65
:10438000652058592066697273740A00486F6D651C
:1043900020585920666972737400436C69636B20FE
:1043A000746F20726573756D652E2E2E004E6F2012
:1043B0006D6F76652E00286E6F2066696C6529002A
:1043C0005344207072696E74696E672062797465F7
:1043D00020004E6F74205344207072696E74696EB1
:1043E000670A0043757272656E742066696C653A7F
:1043F000200046696C652064656C657465643A00EC
:1044000044656C6574696F6E206661696C65642CC7
:104410002046696C653A20006F70656E20666169A0
:104420006C65642C2046696C653A200043616E6EB1
:104430006F74206F70656E207375626469722000FE
:104440006563686F3A00453120544845524D414CF0
:104450002052554E41574159004245442054484549
:10446000524D414C2052554E4157415900546865B8
:10447000726D616C2052756E617761790000002267
:1044800000250028002B002E00310034000201001E
:1044900000050108010B0100002100240027002A6B
:1044A000002D003000330001010000040107010A63
:1044B0000105050505070508080808020202020AA9
:1044C0000A080804040404010101010101010103B7
:1044D00003030303030303040707070C0C0C0C0C72
:1044E0000C0C0C0202020206060606060606060B65
:1044F0000B0B0B0B0B0B0B010210202008081020DC
:10450000401020408002010201080402010102045F
:10451000081020408080402010080402018004021E
:104520000180402010080402010804020101020475
:1045300008102040800102040810204080454550AA
:10454000524F4D206461746173697A65206572729F
:104550006F722E0A00290A002062797465733B206D
:10456000637263200053657474696E6773205374BB
:104570006F726564202800290A00206279746573CF
:104580003B2063726320002073746F726564207334
:10459000657474696E677320726574726965766597
:1045A00064202800202863616C63756C6174656405
:1045B00029210A0020213D2000454550524F4D2021
:1045C000435243206D69736D61746368202D202808
:1045D00073746F7265642920002053697A653A20EC
:1045E00000496E6465783A2000204D61726C696EF6
:1045F0003D563535290A0028454550524F4D3D005E
:10460000454550524F4D2076657273696F6E206D2F
:1046100069736D6174636820007C3C3E5E2B3D3F96
:104620002F5B5D3B2C2A225C005075726765206D04
:104630006F726500456E642066696C616D656E74AD
:10464000206368616E6765000020204E6F7A7A6C87
:10465000653A20006368616E6765006F6620746864
:10466000652066696C616D656E74005761697420C0
:10467000666F722073746172740020204E6F7A7AB4
:104680006C653A2000200066696C616D656E74206F
:10469000756E6C6F6164005761697420666F72009B
:1046A00020204E6F7A7A6C653A20002000506C65AD
:1046B00061736520776169742E2E2E0048656174E0
:1046C000696E67206E6F7A7A6C650020204E6F7A73
:1046D0007A6C653A2000200068656174206E6F7AFC
:1046E0007A6C652E00507265737320627574746FF6
:1046F0006E20746F0020204E6F7A7A6C653A20002D
:10470000746F20636F6E74696E75652E2E2E006156
:104710006E6420707265737320627574746F6E00BE
:10472000496E736572742066696C616D656E7400A4
:1047300020204E6F7A7A6C653A2000200066696C02
:10474000616D656E74206C6F6164005761697420DF
:10475000666F720020204E6F7A7A6C653A200020D6
:104760000066696C616D656E7420707572676500B6
:104770005761697420666F7200506C6561736520C3
:10478000776169742E00004573746570732F6D6DC9
:10479000004573746570732F6D6D005A7374657086
:1047A000732F6D6D005A73746570732F6D6D0059A2
:1047B00073746570732F6D6D005973746570732F0A
:1047C0006D6D005873746570732F6D6D0058737440
:1047D0006570732F6D6D004D6F74696F6E004F665D
:1047E00066004F6E2000456E6473746F70206162C6
:1047F0006F72740053746570732F6D6D004A65722B
:104800006B00416363656C65726174696F6E00561D
:10481000656C6F6369747900416476616E63656489
:104820002053657474696E67730043616E6E6F74B4
:1048300020656E746572207375626469723A200037
:10484000022E2E004D61696E000045787472756409
:10485000656420746F74616C3A2000256C642E25A9
:10486000696D00004C6F6E67657374206A6F62201B
:1048700074696D653A200000546F74616C20707229
:10488000696E742074696D653A2000436F6D706CB9
:10489000657465643A20005072696E7420436F75C8
:1048A0006E743A20004D363030204230205425645A
:1048B000004D37303120542564004D373032203BD5
:1048C0002564004D37303220542564004368616E02
:1048D00067652066696C616D656E7400507265680D
:1048E00065617420437573746F6D005072656865FF
:1048F000617420437573746F6D00507265686561F3
:104900007420414253005072656865617420504CB8
:1049100041004D61696E005052494E54205041553E
:1049200053454400554E4C4F41442046494C414D5F
:10493000454E54004C4F41442046494C414D454E54
:10494000540048617264636F646564204465666105
:10495000756C742053657474696E6773204C6F6155
:104960006465640A00282300002823000064000016
:10497000001027000000009643000096430000400E
:10498000400000C8410000C9420000C9420000C800
:10499000440000D24320286D6D290020204D363080
:1049A0003320002055004C0046696C616D656E74C3
:1049B000206C6F61642F756E6C6F6164206C656E26
:1049C000677468733A0A0020204D393030204B005C
:1049D0004C696E65617220416476616E63653A0A66
:1049E0000020440020490020204D33303420500066
:1049F00020440020490020204D3330312050005009
:104A000049442073657474696E67733A0A002046DE
:104A10000020420020480020204D31343520530032
:104A20004D6174657269616C206865617475702090
:104A3000706172616D65746572733A0A00205A0084
:104A400020590020204D323036205800486F6D65C7
:104A5000206F66667365743A0A00204500205A008C
:104A600020590020580020540020530020204D32AF
:104A7000303520420020453C6D61785F655F6A6596
:104A8000726B3E0020583C6D61785F785F6A65729A
:104A90006B3E20593C6D61785F795F6A65726B3E51
:104AA000205A3C6D61785F7A5F6A65726B3E0041A7
:104AB0006476616E6365643A20423C6D696E5F7333
:104AC00065676D656E745F74696D655F75733E20B3
:104AD000533C6D696E5F66656564726174653E2006
:104AE000543C6D696E5F74726176656C5F66656576
:104AF00064726174653E0020540020520020204DF5
:104B0000323034205000416363656C6572617469B2
:104B10006F6E2028756E6974732F7332293A205096
:104B20003C7072696E745F616363656C3E20523CD9
:104B3000726574726163745F616363656C3E205477
:104B40003C74726176656C5F616363656C3E0A00FC
:104B5000204500205A0020590020204D32303120BD
:104B600058004D6178696D756D20416363656C65B2
:104B7000726174696F6E2028756E6974732F733259
:104B8000293A0A00204500205A0020590020204DD3
:104B90003230332058004D6178696D756D2066653F
:104BA000656472617465732028756E6974732F7300
:104BB000293A0A00204500205A0020590020204DA3
:104BC00039322058005374657073207065722075F7
:104BD0006E69743A0A0020204D3230302044300A89
:104BE0000020204D3230302044002044697361623F
:104BF0006C65640A0046696C616D656E742073654E
:104C00007474696E67733A0020204D313439204343
:104C1000203B20556E69747320696E2043656C7368
:104C20006975730A002020473231202020203B0084
:104C300053442063617264206F6B0A006F70656E6D
:104C4000526F6F74206661696C65640A00766F6CE0
:104C5000756D652E696E6974206661696C65640A9C
:104C600000534420696E6974206661696C0A0057BC
:104C7000726974696E6720746F2066696C653A208A
:104C8000006F70656E206661696C65642C204669F2
:104C90006C653A20006F70656E206661696C6564B2
:104CA0002C2046696C653A200046696C6520736566
:104CB0006C65637465640A002053697A653A200064
:104CC00046696C65206F70656E65643A20002066E9
:104CD000696C653A2000646F696E6700667265737F
:104CE00068004E6F772000454E4420535542524F86
:104CF0005554494E450A002220706F7300222070DF
:104D00006172656E743A2200535542524F555449B0
:104D10004E452043414C4C207461726765743A22C1
:104D2000004B494C4C45442E2000747279696E67E3
:104D300020746F2063616C6C207375622D67636FE4
:104D400064652066696C6573207769746820746F88
:104D50006F206D616E79206C6576656C732E204DC9
:104D60004158206C6576656C2069733A0045727213
:104D70006F723A004C756C7A426F742054415A201D
:104D8000352072656164792E005072696E74696EA7
:104D9000672E2E2E005072696E74207061757365D7
:104DA00064004D313235004D3234005072696E74FA
:104DB0002061626F72746564005072696E7420665F
:104DC000726F6D2053440053746F70207072696E5F
:104DD0007400526573756D65207072696E74004E53
:104DE0006F205344206361726400506175736520C5
:104DF0007072696E740041626F7574205072696ED2
:104E0000746572004368616E67652066696C616DE8
:104E1000656E74004368616E67652066696C616DDC
:104E2000656E74004D36303020423000436F6E6640
:104E3000696775726174696F6E0054656D70657233
:104E40006174757265004D6F76656D656E740054A2
:104E5000756E6500496E666F2073637265656E00DE
:104E60004D6F766520617869730044697361626C87
:104E700065207374657070657273004D383400413D
:104E800075746F20686F6D6500473238004D616939
:104E90006E00526573656E643A2000204200205017
:104EA000006F6B0020746F6F206C6F6E67206578E9
:104EB00074727573696F6E2070726576656E746555
:104EC000640A0020636F6C6420657874727573697E
:104ED0006F6E2070726576656E7465640A00556E3B
:104EE0006B6E6F776E20636F6D6D616E643A20221A
:104EF00000486F74656E6420746F6F20636F6C641C
:104F00000A0000000A0B02090C0D0E080703040139
:104F10000000000000000000000000000000000091
:104F2000000000000000000000000000000012115E
:104F30001000000000000000000000000000000061
:104F400000000000000000004D3234004D323320DC
:104F5000257300003FC78C9111241FBECFEFD1E213
:104F6000DEBFCDBF00E00CBF13E0A0E0B2E0E2E4A2
:104F7000F6E202E00BBF02C007900D92AE38B10717
:104F8000D9F726E1AEE8B3E001C01D92AE30B2071A
:104F9000E1F717E2CBEAD7E200E006C0219701096A
:104FA000802FFE010F949212CA3AD10780E00807C1
:104FB000A9F70E9477880D9410130C9400002F928B
:104FC0003F924F925F926F927F928F929F92AF9299
:104FD000BF92CF92DF92EF92FF920F931F93CF93E6
:104FE000DF93CDB7DEB7CB5AD1090FB6F894DEBF49
:104FF0000FBECDBFCF55DF4F8883C15AD04021E0CF
:1050000020932D0E8091A70B8D3409F456C684355C
:1050100011F40C94C941873411F00C940C42E090C7
:10502000A50BF090A60B0AE1E016F10409F400C606
:1050300094F424E0E216F10444F432E0E316F104BF
:105040000CF058C0F7FE2AC034C644E0E416F10460
:1050500009F4BFC52EC65AE5E516F10409F421C6C8
:105060007CF49BE1E916F10409F4E8C5ACE1EA1629
:10507000F10409F01EC680E00E9472C40C940E4236
:10508000BBE5EB16F10409F410C6ECE5EE16F104ED
:1050900009F00FC60E9497C10C940E428091040241
:1050A000882311F40C940E428AE50E942B53482F5A
:1050B00089E5C555DF4F4883CB5AD0400E942B531A
:1050C000682F88E5C655DF4F6883CA5AD0400E94D2
:1050D0002B53C555DF4F4881CB5AD040C655DF4FC3
:1050E0006881CA5AD0400E9481C381110C940E423B
:1050F0000C941B4241E061E081E00E9481C3811178
:105100000C940E4280910402882311F40C940E42F8
:1051100011E0F2E0EF16F10409F010E00E9439C24C
:1051200082E50E947253882309F442C10E94F4521E
:105130006B017C014090E50B5090E60B6090E70B13
:105140007090E80B2091E90B3091EA0B4091EB0B4A
:105150005091EC0B2CAB3DAB4EAB5FAB80912E0E68
:1051600090912F0EA091300EB091310E88AF99AF73
:10517000AAAFBBAF2091320E3091330E4091340E66
:105180005091350E2CAF3DAF4EAF5FAF20E030E019
:10519000A901C701B6010F943D0B882309F4FFC490
:1051A000A301920168AD79AD8AAD9BAD0F943D0B23
:1051B00081110DC02CA93DA94EA95FA96CAD7DAD93
:1051C0008EAD9FAD0F943D0B882309F4E8C420E019
:1051D00030E0A901C701B6010F943D0B881F882755
:1051E000881F18130BC080E090E0A0E8BFE3609632
:1051F0008CAF9DAFAEAFBFAF60970AC020E030E08C
:1052000040E85FEB60962CAF3DAF4EAF5FAF60976D
:10521000A301920168AD79AD8AAD9BAD0F94A60F45
:1052200028966CAF7DAF8EAF9FAF28972CA93DA974
:105230004EA95FA96CAD7DAD8EAD9FAD0F94A60F4D
:105240002C966CAF7DAF8EAF9FAF2C9728962CAD70
:105250003DAD4EAD5FAD2897CA01B9010F94A20BC9
:105260004B015C012C962CAD3DAD4EAD5FAD2C9746
:10527000CA01B9010F94A20B9B01AC01C501B40195
:105280000F94A70F0F94121224966CAF7DAF8EAFC0
:105290009FAF249720E030E040E05FE30F94A20B43
:1052A0004B015C01A7019601C701B6010F94A20B47
:1052B0006B017C01A5019401C501B4010F94A20BFF
:1052C0009B01AC01C701B6010F94A60F0F941212F7
:1052D0009B01AC0160966CAD7DAD8EAD9FAD6097CE
:1052E0000F94A20B4B015C0128AD39AD4AAD5BAD0B
:1052F000C301B2010F94A70F20E030E040E05FE36C
:105300000F94A20B6B017C012C966CAD7DAD8EAD24
:105310009FAD2C97905824962CAD3DAD4EAD5FAD12
:1053200024970F9483109B01AC01C501B4010F9425
:10533000A20B9B01AC01C701B6010F94A70FA301FB
:1053400092010F94A60F6B017C012CAD3DAD4EADCB
:105350005FAD6CA97DA98EA99FA90F94A70F20E02E
:1053600030E040E05FE30F94A20B2B013C01249658
:105370002CAD3DAD4EAD5FAD249728966CAD7DADA7
:105380008EAD9FAD28970F9483109B01AC01C50192
:10539000B4010F94A20B9B01AC01C301B2010F94A5
:1053A000A70F2CA93DA94EA95FA90F94A60F14C061
:1053B00089E40E947253882329F00E94F4526B0101
:1053C0007C0103C0C12CD12C76018AE40E94725367
:1053D0008823D9F00E94F4526CAF7DAF8EAF9FAF9F
:1053E00020E030E0A901C701B6010F943D0B811107
:1053F0001AC020E030E0A9016CAD7DAD8EAD9FAD4F
:105400000F943D0B81110FC0CAC320E030E0A90109
:10541000C701B6010F943D0B882309F4C0C31CAE2D
:105420001DAE1EAE1FAED701C601B0588CAB9DABF2
:10543000AEABBFAB2CAD3DAD4EAD5FAD505828AF60
:1054400039AF4AAF5BAF9C01AD01BC01CD010F94F8
:10545000A20B4B015C0128AD39AD4AAD5BADCA0171
:10546000B9010F94A20B9B01AC01C501B4010F94CB
:10547000A70F0F941212A0966CAF7DAF8EAF9FAFA7
:10548000A0978091E50B9091E60BA091E70BB0916E
:10549000E80B24968CAF9DAFAEAFBFAF2497A701AA
:1054A0009601BC01CD010F94A70F60966CAF7DAF44
:1054B0008EAF9FAF60972091E90B3091EA0B40913E
:1054C000EB0B5091EC0B28962CAF3DAF4EAF5FAF7E
:1054D00028972CAD3DAD4EAD5FAD28966CAD7DAD42
:1054E0008EAD9FAD28970F94A70F6C966CAF7DAFD4
:1054F0008EAF9FAF6C9780912E0E90912F0EA09142
:10550000300EB091310E2C968CAF9DAFAEAFBFAFC9
:105510002C9760962CAD3DAD4EAD5FAD6097BC0154
:10552000CD010F94A60F6B017C012091320E3091BA
:10553000330E4091340E5091350E64962CAF3DAF32
:105540004EAF5FAF64976C962CAD3DAD4EAD5FAD89
:105550006C9764966CAD7DAD8EAD9FAD64970F94E6
:10556000A60F4B015C018091ED0B9091EE0BA09189
:10557000EF0BB091F00B68968CAF9DAFAEAFBFAFA5
:1055800068979C01AD016091360E7091370E809145
:10559000380E9091390E0F94A60F2B013C012091EB
:1055A0003A0E30913B0E40913C0E50913D0EA89624
:1055B0002CAF3DAF4EAF5FAFA8978091F10B9091AC
:1055C000F20BA091F30BB091F40BA4968CAF9DAFAE
:1055D000AEAFBFAFA497A70196016CA97DA98EA914
:1055E0009FA90F94A20BAC966CAF7DAF8EAF9FAF0F
:1055F000AC97A501940168AD79AD8AAD9BAD0F94D0
:10560000A20B9B01AC01AC966CAD7DAD8EAD9FAD98
:10561000AC970F94A70FAC966CAF7DAF8EAF9FAFDA
:10562000AC97A50194016CA97DA98EA99FA90F949F
:10563000A20B4B015C01A701960168AD79AD8AAD63
:105640009BAD0F94A20B9B01AC01C501B4010F945B
:10565000A60FAC962CAD3DAD4EAD5FADAC970F94A3
:105660001A106B017C0120E030E0A9010F943D0B82
:1056700087FF0AC02BED3FE049EC50E4C701B601BB
:105680000F94A70F6B017C01112351F02BED3FE02C
:1056900049EC50E4C701B6010F94A60F6B017C01E1
:1056A00020E030E0A901C701B6010F943D0B811144
:1056B00028C02C962CAD3DAD4EAD5FAD2C972496F9
:1056C0006CAD7DAD8EAD9FAD24970F943D0B8111D8
:1056D00018C064962CAD3DAD4EAD5FAD6497289675
:1056E0006CAD7DAD8EAD9FAD28970F943D0B8111B4
:1056F00008C09BEDC92E9FE0D92E99ECE92E90E4CD
:10570000F92EA7019601A0966CAD7DAD8EAD9FAD33
:10571000A0970F94A20B4B015C0120E030E0A9019F
:10572000C301B2010F943D0B8823C9F0A501940178
:10573000C501B4010F94A20B4B015C01A3019201BE
:10574000C301B2010F94A20B9B01AC01C501B401CE
:105750000F94A70F0F9412124B015C010DC020E0B3
:1057600030E0A901C501B4010F94CD1187FF04C039
:10577000B7FAB094B7F8B0942FE632E143E85AE3B1
:10578000C501B4010F943D0B87FF02C00C940E427B
:10579000C501B4010F941C110F94F0101B01672B6D
:1057A00019F422242394312CB10180E090E00F946D
:1057B000410B4B015C019B01AC01C701B6010F9489
:1057C000831024966CAF7DAF8EAF9FAF2497A50159
:1057D0009401C301B2010F948310A0966CAF7DAF0A
:1057E0008EAF9FAFA097A4962CAD3DAD4EAD5FADF3
:1057F000A497A8966CAD7DAD8EAD9FADA8970F9484
:10580000A60FA50194010F948310A8966CAF7DAFED
:105810008EAF9FAFA89724962CAD3DAD4EAD5FAD3A
:105820002497CA01B9010F94A20B20E030E040E0B8
:105830005FE30F94A20B9B01AC0160E070E080E895
:105840009FE30F94A60F64966CAF7DAF8EAF9FAFB2
:10585000649768960CAD1DAD2EAD3FAD6897098776
:105860001A872B873C87A4962CAD3DAD4EAD5FAD1E
:10587000A4972D873E874F87588B60915B0270916C
:105880005C02072E000C880B990B0F94430B2091A0
:105890005D0230915E0240915F02509160020F9470
:1058A000A20B2AE037ED43E25CE30F94A20B68A75A
:1058B00079A78AA79BA70E94BEB48B019C010853BD
:1058C0001F4F2F4F3F4F68960CAF1DAF2EAF3FAF0E
:1058D00068974CA85DA86EA87FA821E030E02A96C2
:1058E0003FAF2EAF2A9739E125963FAF25972A96ED
:1058F0000EAD1FAD2A970215130509F425C10E94AC
:1059000080500E94BEB4DC01CB0168960CAD1DAD89
:105910002EAD3FAD6897801B910BA20BB30BB7FD6B
:1059200011C00E94BEB49B01AC0128533F4F4F4FA2
:105930005F4F68962CAF3DAF4EAF5FAF689780E08A
:105940000E94249225963FAD2597315025963FAF72
:105950002597332309F445C064962CAD3DAD4EAD7B
:105960005FAD649768AD79AD8AAD9BAD0F94A20B26
:105970006B017C0124962CAD3DAD4EAD5FAD2497FF
:10598000B201C3010F94A20BA70196010F94A70FB8
:105990007B018C0164962CAD3DAD4EAD5FAD64973F
:1059A000B201C3010F94A20B4B015C0124962CADF4
:1059B0003DAD4EAD5FAD249768AD79AD8AAD9BAD81
:1059C0000F94A20B9B01AC01C501B4010F94A60F6B
:1059D0002B013C01C701D80188AF99AFAAAFBBAF7B
:1059E00057C02A964EAD5FAD2A97BA0180E090E08D
:1059F0000F94410B24962CAD3DAD4EAD5FAD249779
:105A00000F94A20B4B015C010F9480106B017C0181
:105A1000C501B4010F9408124B015C01A701960166
:105A20006CA97DA98EA99FA90F94A20B2B013C0103
:105A3000A50194016CAD7DAD8EAD9FAD0F94A20B11
:105A40009B01AC01C301B2010F94A70F2B013C01D4
:105A5000A50194016CA97DA98EA99FA90F94A20B01
:105A60004B015C01A70196016CAD7DAD8EAD9FAD84
:105A70000F94A20B9B01AC01C501B4010F94A60FBA
:105A800068AF79AF8AAF9BAF59E125965FAF259795
:105A90009201A30160966CAD7DAD8EAD9FAD609718
:105AA0000F94A70F69837A838B839C8328AD39ADCC
:105AB0004AAD5BAD6C966CAD7DAD8EAD9FAD6C9718
:105AC0000F94A70F6D837E838F839887A0962CAD4C
:105AD0003DAD4EAD5FADA09769857A858B859C8580
