:100000000C94802A0C94077E0C94DC7D0C94B17DBA
:100010000C94867D0C945B7D0C94307D0C94057D56
:100020000C94DA7C0C94B12A0C94B12A0C94B12A69
:100030000C94B12A0C94897E0C94B12A0C94B12AA8
:100040000C94B12A0C94B7610C94B12A0C94B12A87
:100050000C94B12A0C94B12A0C942F730C94328016
:100060000C94B12A0D9480280D9424290C94B12A63
:100070000C94B12A0C94B12A0C94B12A0C94B12A94
:100080000C94B12A0C94B12A0C94B12A0C94B12A84
:100090000C94B12A0C94B12A0C94B12A0C94B12A74
:1000A0000C94B12A0C94B12A0C94B12A0C94B12A64
:1000B0000C94B12A0C94B12A0C94B12A0C94B12A54
:1000C0000C94B12A0C94B12A0C94B12A0C94B12A44
:1000D0000C94B12A0C94B12A0C94B12A0C94B12A34
:1000E0000C94B12A41794479337937793D797B7918
:1000F00048794C79527956795A7960796479687976
:100100007B796E79727976794E7F537F587F627FE3
:100110006C7FE57F767F7E7F867F907F9A7FA47F4E
:10012000B37FBD7FE57FC77FD17FDB7FDECEC4CECF
:10013000C7CECACECDCED9CED0CEE7CED3CED6CEB8
:10014000E0000A010801E200F000F200E600F2001F
:100150000601F400F200E400DE00DE00FA00FA001E
:10016000FA00EA00EA00EA00FC00E800E800E80023
:10017000084AD73B3BCE016E84BCBFFDC12F3D6C0E
:1001800074319ABD56833DDA3D00C77F11BED9E474
:10019000BB4C3E916BAAAABE000000803F05A84C54
:1001A000CDB2D44EB93836A9020C50B99186880820
:1001B0003CA6AAAA2ABE000000803F000D94C32BD3
:1001C0000D94AF280D94D1280D94EB280D94DD28C3
:1001D0000D94D82B0D94D12B0D94B3120D94DE13E6
:1001E0000D94D9280D94EE280D94E5280D942E1524
:1001F0000D94F30F0D94CA2B0D94DE2B0D941D233B
:100200000D942C220D947B250D94DE100D94E12885
:100210000D94C6280D94B5284E414E494E49545967
:10022000494E46CDCCCC3D0AD7233C17B7D13877C1
:10023000CC2B329595E6241FB14F0A0000204100D7
:1002400000C84200401C4620BCBE4CCA1B0E5AAE21
:10025000C59D7420746F6F206C6F6E672065787415
:10026000727573696F6E2070726576656E74656401
:100270000A0020636F6C6420657874727573696F0F
:100280006E2070726576656E7465640A0047322F61
:1002900047332062616420706172616D65746572BC
:1002A000730A00536C6565702E2E2E0050726F62BB
:1002B000696E67206661696C6564004D3131372075
:1002C000426564206C6576656C696E67206661695D
:1002D0006C65642E0A4730205A31300A4730204579
:1002E000300A4D3330302050323520533838300A00
:1002F0004D333030205035302053300A4D333030BC
:100300002050323520533838300A4D3330302050A9
:1003100035302053300A4D333030205032352053A1
:100320003838300A4734205331004D3131372050AE
:10033000726F6265207375636365737366756C0AAB
:100340000050524F4245204641494C20434C4541C4
:100350004E204E4F5A5A4C450A004D3130392052EA
:100360003137300A4D313137205265776970696E07
:1003700067206E6F7A7A6C650A4730205A31300AEE
:100380004D31303920523137300A4D31313720521A
:1003900065776970696E67206E6F7A7A6C650A4757
:1003A0003132205030205331322054300A4D313018
:1003B0003420533136300A4D3131372050726F625C
:1003C000696E672062656400436C69636B20746FBB
:1003D00020726573756D652E2E2E00456E64206645
:1003E000696C65206C6973740A00426567696E20E8
:1003F00066696C65206C6973740A004D3132350092
:1004000020573A0042656420636F6F6C696E672EF7
:100410002E2E004265642068656174696E672E2E19
:100420002E004C756C7A426F742054415A2036204D
:100430004F66662E00544845524D414C5F50524F16
:1004400054454354494F4E004155544F5245504F27
:1004500052545F53445F53544154555300454D45E6
:100460005247454E43595F50415253455200434114
:1004700053455F4C494748545F4252494748544EA0
:1004800045535300544F47474C455F4C49474854E8
:100490005300534F4654574152455F504F574552B2
:1004A000004255494C445F50455243454E54004C20
:1004B0004556454C494E475F44415441005A5F50B0
:1004C000524F4245004155544F4C4556454C005003
:1004D00052494E545F4A4F420050524F4752455383
:1004E00053004155544F5245504F52545F54454D5F
:1004F0005000564F4C554D455452494300454550C8
:10050000524F4D0053455249414C5F584F4E5F5832
:100510004F4646004649524D574152455F4E414D68
:10052000453A4D61726C696E20204649524D5741E3
:1005300052455F56455253494F4E3A312E312E396E
:100540002E33342045585452554445525F54595027
:10055000453A4D4F41527374727564657220534F22
:10056000555243455F434F44455F55524C3A68747A
:100570007470733A2F2F636F64652E616C657068B9
:100580006F626A656374732E636F6D2F646966664C
:100590007573696F6E2F4D41524C494E2050524F2A
:1005A000544F434F4C5F56455253494F4E3A312EAC
:1005B00030204D414348494E455F545950453A4CCF
:1005C000756C7A426F742054415A20362045585435
:1005D00052554445525F434F554E543A312055557C
:1005E00049443A38343566303033632D616562648E
:1005F0002D346535332D613662392D376430393805
:10060000346664653630390A002F2F20007A5F7017
:10061000726F62653A20007A5F6D61783A20007AE5
:100620005F6D696E3A2000795F6D61783A200079DC
:100630005F6D696E3A2000785F6D61783A200078CE
:100640005F6D696E3A20005265706F7274696E67F3
:1006500020656E6473746F70207374617475730AAF
:1006600000205400205200416363656C6572617420
:10067000696F6E3A2050004F66667365747320612F
:1006800070706C696564004572723A20546F6F2017
:100690006661722100546F6F206661722066726F0E
:1006A0006D207265666572656E636520706F696E38
:1006B000740A00205A00205900580020204D61780B
:1006C0003A2000205A00205900580020204D696E21
:1006D0003A20004F6E20004F666600536F6674200C
:1006E000656E6473746F70733A200020466C6F7788
:1006F0003A2000496E76616C696420657874727581
:100700006465720A004E6F2063617365206C6967CF
:1007100068740A00426564204C6576656C696E6792
:1007200020004661696C656420746F20656E6162AB
:100730006C6520426564204C6576656C696E670A5D
:1007400000426564204C6576656C20436F7272656B
:100750006374696F6E204D61747269783A0020206D
:100760002020202846312E30203D2066756C6C20DC
:10077000636F7272656374696F6E2C2046302E3021
:10078000203D206E6F20636F7272656374696F6EB7
:10079000290A002020466164653A2020202020207C
:1007A0002020202020202020202020460020205310
:1007B0006D6F6F7468696E6720286D6D293A20200F
:1007C00020202020205300202044697374616E6330
:1007D0006520286D6D293A20202020202020205AD5
:1007E000004261636B6C61736820636F7272656352
:1007F00074696F6E206973206163746976653A0A63
:10080000004261636B6C61736820636F7272656331
:1008100074696F6E20697320696E616374697665AF
:100820003A0A004261636B6C617368206D656173A5
:100830007572656D656E7420286D6D293A202000F3
:10084000454550524F4D204F4B0A00496E7365721B
:10085000742066696C616D656E7420616E642070D1
:100860007265737320627574746F6E20286F7220C6
:100870004D313038290A00507265737320627574E7
:10088000746F6E20286F72204D3130382920746FBC
:100890002068656174206E6F7A7A6C650A00496E13
:1008A000736572742066696C616D656E7420616E2B
:1008B0006420707265737320627574746F6E202883
:1008C0006F72204D313038290A003A200050726F83
:1008D0006265205A204F6666736574003F5A206F28
:1008E0007574206F662072616E676520282D322036
:1008F000746F2035290A003F4B2076616C756520A6
:100900006F7574206F662072616E67652028302DC8
:100910003130292E0A00416476616E6365204B3DBB
:1009200000416374697665204578747275646572F8
:100930003A2000496E76616C69642065787472753E
:100940006465720A0025753A25303275002530320B
:10095000753A253032750025756420253032753A98
:10096000253032750000060900FE0000000000017D
:10097000090008FE000005080806000040F0C888CD
:1009800088987810050808060000C0F888888888CC
:1009900088F80505050600012030F8302005080814
:1009A0000600002070F820202020E005090906003C
:1009B000FF2070A8A8B8888870200509090600FFE4
:1009C000E080C0B0A8283028280509090600FFF8F3
:1009D000A88888888888A8F8050A0A0600FE20509A
:1009E00050505088A8A8887003030306000340A055
:1009F0004000060900FE0701920321207FFF07FF48
:100A000007FF0000000600000107070602008080C3
:100A10008080800080030202060105A0A005070770
:100A20000600005050F850F8505005070706000027
:100A30002078A07028F020050707060000C0C81025
:100A4000204098180507070600006090A040A89075
:100A500068020303060104C0408003070706010083
:100A6000204080808040200307070601008040204E
:100A70002020408005050506000120A870A820055B
:100A800005050600012020F820200203030602FFCE
:100A9000C04080050101060003F8020202060200C0
:100AA000C0C00505050600010810204080050707A5
:100AB0000600007088888888887003070706010090
:100AC00040C040404040E00507070600007088082D
:100AD000708080F8050707060000F810201008084D
:100AE000F005070706000010305090F810100507B9
:100AF00007060000F880F008088870050707060060
:100B000000708080F0888870050707060000F808EC
:100B100010202020200507070600007088887088B4
:100B2000887005070706000070888878080870023A
:100B30000505060200C0C000C0C00206060602FF8E
:100B4000C0C000C04080040707060000102040809D
:100B5000402010050303060002F800F8040707060A
:100B6000010080402010204080050707060000702B
:100B70008808102000200507070600007088086814
:100B8000A8A870050707060000708888F88888887C
:100B9000050707060000F08888F08888F005070739
:100BA00006000070888080808870050707060000B6
:100BB000F08888888888F0050707060000F880809C
:100BC000F08080F8050707060000F88080F080803C
:100BD00080050707060000708880B88888700507C0
:100BE00007060000888888F88888880107070602B9
:100BF0000080808080808080050707060000381014
:100C000010101090600507070600008890A0C0A093
:100C10009088050707060000808080808080F805A6
:100C2000070706000088D8A888888888050707066F
:100C300000008888C8A89888880507070600007003
:100C4000888888888870050707060000F08888F083
:100C500080808005070706000070888888A8906853
:100C6000050707060000F08888F0A09088050707B0
:100C7000060000788080700808F00507070600006D
:100C8000F8202020202020050707060000888888FB
:100C9000888888700507070600008888888888503B
:100CA000200507070600008888888888A85005075F
:100CB000070600008888502050888805070706002E
:100CC0000088888850202020050707060000F808C3
:100CD00010204080F8030707060100E08080808034
:100CE00080E0050505060001804020100803070785
:100CF000060100E02020202020E005030306000478
:100D0000205088050101060000F8020202060205D3
:100D100080400505050600007008788878050707FB
:100D20000600008080B0C88888F005050506000030
:100D3000708080887005070706000008086898889A
:100D400088780505050600007088F880700507079B
:100D50000600003048E0404040400506060600FF1F
:100D60007088887808700507070600008080B0C882
:100D700088888801070706020080008080808080C4
:100D80000308080601FF200020202020A0400407BF
:100D900007060000808090A0C0A09003070706010E
:100DA00000C04040404040E0050505060000D0A8D6
:100DB000A8A8A8050505060000B0C888888805050C
:100DC0000506000070888888700506060600FFF09A
:100DD0008888F080800506060600FF7888887808F5
:100DE00008050505060000B0C880808005050506D9
:100DF000000070807008F00407070600004040E023
:100E00004040403005050506000088888898680540
:100E100005050600008888885020050505060000A5
:100E20008888A8A85005050506000088502050882D
:100E30000506060600FF88888878087005050506FF
:100E40000000F8102040F80307070601002040408A
:100E5000804040200107070602008080808080805B
:100E600080030707060100804040204040800502C3
:100E700002060002689000000006000020202020EA
:100E80002020005A0059002020202000580009206E
:100E9000000000000000000000000000003FFFF024
:100EA000000000000000000000000000380070009A
:100EB000000000000000000000000030FC300000D6
:100EC0000000000000000000000020FC10000000F6
:100ED000000000000000000000207810000000006A
:100EE00000000000000000002030100000000000A2
:100EF000000000000000002C00D03FC000000000F7
:100F00000000002082002E31D07FE00000000000B1
:100F100000001041002F7BD07FE0000000000000A7
:100F2000001041002F7BD07FE00000000000000097
:100F30002082002E31D03FC00000000000000041A0
:100F400004002C00D03FC000000000000000820818
:100F5000002030107FE00000000000000082080048
:100F60002078107FE0000000000000004104002015
:100F7000FC107FE00000000000000020820030FC38
:100F8000301F8000000000000000000000380070EA
:100F90000F0000000000000000FFFFC03FFFF00650
:100FA0000000000000000000FFFFC0000000000083
:100FB000000000000000000000003FFFF000000003
:100FC0000000000000000000003800700000000079
:100FD000000000000000000031863000000000002A
:100FE0000000000000000023871000000000000047
:100FF00000000000000027879000000000000000B3
:1010000000000000002F87D000000000000000005A
:10101000000000002F03D03FC000000000000000CF
:101020002082002030107FE000000000000000104F
:1010300041002078107FE000000000000000104117
:10104000002078107FE000000000000000208200F7
:101050002030103FC0000000000000004104002FBD
:1010600003D03FC0000000000000008208002F876E
:10107000D07FE00000000000000082080027879079
:101080007FE0000000000000004104002387107F83
:10109000E0000000000000002082003186301F8048
:1010A000000000000000000000003800700F000089
:1010B000000000000000FFFFC03FFFF0060000003E
:1010C0000000000000FFFFC000000020746F6F20D0
:1010D0006C6F6E6720657874727573696F6E2070BF
:1010E000726576656E7465640A0020636F6C6420B7
:1010F000657874727573696F6E2070726576656E4F
:101100007465640A0024F4D43050C38E20C2A24017
:1011100017828B7011127A910D816CD90AA861E146
:1011200008C7586607615143061E4B5D05C145A7B8
:10113000041A411104093D9803713931034036DB2B
:101140000265339102D4305402802E1D02632CEECE
:1011500001752AC501B028A001102781018F2564DF
:10116000012B244B01E0223401AC211F018D200D05
:1011700001801FFC00841EED00971DDF00B81CD20B
:1011800000E61BC600201BBC00641AB200B219A8FE
:10119000000A19A0006A189900D117910040178B16
:1011A00000B516840031167E00B31579003A157328
:1011B00000C7146F0058146A00EE136600881363AA
:1011C0000025135E00C7125B006C12570015125405
:1011D00000C111510070114F0021114B00D6104970
:1011E000008D1047004610440002104200C00F401E
:1011F00000800F3E00420F3C00060F3B00CB0E3834
:1012000000930E37005C0E3500270E3400F30D32CC
:1012100000C10D3100900D3000600D2E00320D2DFB
:1012200000050D2C00D90C2B00AE0C2900850C29D3
:10123000005C0C2700350C27000E0C2600E80B2460
:1012400000C40B2400A00B23007D0B23005A0B21AC
:1012500000390B2100180B2000F80A1F00D90A1EC4
:1012600000BB0A1E009D0A1D00800A1D00630A1CA7
:1012700000470A1B002C0A1B00110A1A00F7091A62
:1012800000DD091900C4091900AB091900920917FA
:10129000007B091800630917004C0916003609166F
:1012A00000200916000A091500F5081500E00814C9
:1012B00000CC081400B8081400A408140090081307
:1012C000007D0812006B081300580812004608122F
:1012D0000034081100230811001208110001081140
:1012E00000F0071000E0071000D0071000C0071042
:1012F00000B0070F00A107100091070E0083070F31
:101300000074070F0065070E0057070E0049070E0F
:10131000003B070D002E070E0020070D0013070DE0
:101320000006070D00F9060C00ED060D00E0060CA6
:1013300000D4060C00C8060C00BC060C00B0060C5D
:1013400000A4060B0099060C008D060B0082060B0C
:101350000077060B006C060B0061060A0057060BAF
:10136000004C060A0042060A0038060A002E060A49
:101370000024060A001A060A001006090007060AD9
:1013800000FD050900F4050900EB050900E2050967
:1013900000D9050900D0050900C7050900BE0509E7
:1013A00000B5050800AD050800A50509009C050865
:1013B00000940508008C050800840508007C0508D9
:1013C00000740508006C050700650508005D050749
:1013D00000560508004E05070047050700400508B0
:1013E0000038050700310507002A05070023050717
:1013F000001C050600160507000F05070008050676
:101400000002050700FB040600F5040700EE0406D1
:1014100000E8040600E2040700DB040600D5040629
:1014200000CF040600C9040600C3040600BD04067C
:1014300000B7040600B1040500AC040600A60406CB
:1014400000A00405009B0406009504050090040616
:10145000008A04050085040500800406007A04055E
:101460000075040500700405006B040500660405A2
:1014700000610405005C04050057040500520405E2
:10148000004D04050048040500430405003E040423
:10149000003A04050035040500300404002C04055E
:1014A0000027040400230405001E0404001A040499
:1014B0000016040500110404000D040400090405CD
:1014C000000404040000040400FC030400F8030406
:1014D00000F4030400F0030400EC030400E8030438
:1014E00000E4030400E0030400DC030400D8030468
:1014F00000D4030400D0030400CC030400C8030399
:1015000000C503030024F404D9201BC40C5C0E980E
:1015100004C4095F0265077101F405F900FB04B317
:101520000048048700C103690058035500030345C0
:1015300000BE023A008402310053022A002902252B
:101540000004022000E4011C00C8011900AF0117CB
:101550000098011400840113007101100061011052
:101560000051010E0043010D0036010B002B010B51
:101570000020010B00150109000C010900030108FE
:1015800000FB000800F3000800EB000700E4000681
:1015900000DE000600D8000600D2000600CC0005E0
:1015A00000C7000500C2000500BD000400B900042A
:1015B00000B5000400B1000400AD000400A900045F
:1015C00000A5000300A20003009F0004009B00038D
:1015D00000980003009500020093000300900003B0
:1015E000008D0002008B00030088000200860002CC
:1015F0000084000300810002007F0002007D0002E1
:10160000007B0002007900020077000100760002F2
:10161000007400020072000100710002006F0002FD
:10162000006D0001006C0002006A00010069000208
:10163000006700010066000100650001006400020F
:10164000006200010061000100600001005F000213
:10165000005D0001005C0001005B0001005A000118
:101660000059000100580001005700010056000118
:101670000055000100540001005300000053000118
:10168000005200010051000100500001004F000114
:10169000004E0000004E0001004D0001004C000112
:1016A000004B0000004B0001004A0001004900010E
:1016B000004800000048000100470001004600000B
:1016C0000046000100450000004500010044000103
:1016D00000430000004300010042000000420001FE
:1016E000004100000041000100400001003F0000F7
:1016F000003F0001003E0000003E0001003D0000F0
:10170000003D0001003C0000003C0000003C0001E6
:10171000003B0000003B0001003A0000003A0001DD
:1017200000390000003900010038000000380000D6
:1017300000380001003700000037000100360000CB
:1017400000360000003600010035000000350000C2
:1017500000350001003400000034000000340001B6
:1017600000330000003300000033000100320000AD
:1017700000320000003200010031000000310000A2
:101780000031000100300000003000000030000196
:10179000002F0000002F0000002F0000002F00018C
:1017A000002E0000002E0000002E0001002D000081
:1017B000002D0000002D0000002D0001002C000075
:1017C000002C0000002C0000002C0001002B000069
:1017D000002B0000002B0000002B0001002A00005D
:1017E000002A0000002A0000002A00010029000051
:1017F0000029000000290000002900000029000144
:101800000028000000280000002800000028000038
:10181000002800010027000000270000002700002A
:10182000002700000027000100260000002600001D
:101830000026000000260000002600010025000010
:101840000025000000250000002500000025000004
:1018500000250001002400000024000000240000F6
:1018600000240000002400010023000000230000E9
:1018700000230000002300000023000000230000DC
:1018800000230001002200000022000000220000CE
:1018900000220000002200000022000100210000C0
:1018A00000210000002100000021000000210000B4
:1018B00000210000002100010020000000200000A5
:1018C0000020000000200000002000000020000098
:1018D0000020000000200001001F0000001F000089
:1018E000001F0000001F0000001F0000001F00007C
:1018F000001F0001001E0000001E0000001E00006E
:10190000001E000000C23100001C260000F4190077
:1019100000D80F0000EB080000C0040000750200B2
:1019200000400100001000C90210012C01400122FA
:101930000170011801B0010E01F00104015002FA1A
:1019400000B002F0003003E600D003DC009004D2C7
:10195000007005C800A006BE000008B400B009AAC7
:1019600000D00BA000600E960060118C0000158264
:101970000020197800C01D6E00A0226400B0275A14
:1019800000902C500000314600E0343C001038320A
:1019900000903A2800603C1E00A03D1400803E0AE2
:1019A00000203F00006265640A002C207379737484
:1019B000656D2073746F7070656421204865617473
:1019C00065725F49443A200042656420686561742D
:1019D000696E67206661696C656400486561746959
:1019E0006E67206661696C656400453120486561F9
:1019F00074696E67206661696C656400486561742E
:101A0000696E67206661696C6564004B494C4C45A2
:101A1000442E20001000AD0330016A0150022B015A
:101A200070030A019004F500B005E500D006D80067
:101A3000F007CE001009C500300ABE00500BB700F9
:101A4000700CB100900DAB00B00EA600D00FA2003C
:101A5000F0109D0010129900301395005014920060
:101A600070158E0090168B00B0178700D018840078
:101A7000F0198100101B7E00301C7B00501D790086
:101A8000701E7600901F7300B0207000D0216E0091
:101A9000F0226B0010246900302566005026630098
:101AA0007027610090285E00B0295C00D02A5900A0
:101AB000F02B5600102D5400302E5100502F4E00A8
:101AC00070304B0090314800B0324500D0334200B6
:101AD000F0343E0010363B003037370050383300CA
:101AE00070392E00903A2900B03B2300D03C1B00F7
:101AF000F03D1100103F0100F03F0000453120454E
:101B000072723A204D415854454D50004572723A18
:101B1000204D415854454D5020424544004D4158B8
:101B200054454D502074726967676572656400455D
:101B300031204572723A204D494E54454D50004572
:101B400072723A204D494E54454D50204245440052
:101B50004D494E54454D50207472696767657265F2
:101B600064004D383420582059205A204500202F39
:101B7000002042403A0020403A00000020002300AC
:101B8000260029002C002F00320000010000030174
:101B900006010901024D6963726F737465707320E9
:101BA000756E617661696C61626C650A0045313AF7
:101BB000200045303A20005A3A2000593A20005877
:101BC0003A20004D53312C4D53322050696E730A28
:101BD000004572726F722077726974696E67207443
:101BE0006F20454550524F4D210A004D3131332071
:101BF00053004D31343520533C696E6465783E2086
:101C00006F7574206F662072616E67652028302DB5
:101C100031290A00205A3A0020593A0020436F75B2
:101C20006E7420583A0020453A00205A3A00205954
:101C30003A00583A003A004361703A0050726F62BD
:101C400065205A204F66667365743A200020643A16
:101C50000020693A0020703A0043290A0061626C52
:101C6000656420286D696E2074656D702000436F77
:101C70006C64206578747275646573206172652088
:101C8000004B64200023646566696E652044454608
:101C900041554C545F004B69200023646566696EB2
:101CA000652044454641554C545F004B702000234D
:101CB000646566696E652044454641554C545F0035
:101CC000504944204175746F74756E652066696E65
:101CD0006973686564212050757420746865206C90
:101CE000617374204B702C204B6920616E64204B13
:101CF0006420636F6E7374616E74732066726F6DAF
:101D00002062656C6F7720696E746F20436F6E661A
:101D1000696775726174696F6E2E680A0050494474
:101D2000204175746F74756E65206661696C6564B9
:101D3000212074696D656F75740A0045312054481F
:101D400045524D414C2052554E4157415900424554
:101D50004420544845524D414C2052554E41574124
:101D60005900546865726D616C2052756E617761BF
:101D7000790045312048656174696E672066616944
:101D80006C6564004265642068656174696E6720F3
:101D90006661696C65640048656174696E67206698
:101DA00061696C656400504944204175746F7475B5
:101DB0006E65206661696C6564212054656D70658F
:101DC00072617475726520746F6F20686967680A44
:101DD00000204B643A2000204B693A2000204B70D1
:101DE0003A20000A20436C617373696320504944B0
:101DF000200A002054753A2000204B753A2000201C
:101E00006D61783A2000206D696E3A200020643AB6
:101E1000200020626961733A2000504944204175D6
:101E2000746F74756E65206661696C65642120420B
:101E30006164206578747275646572206E756D6278
:101E400065720A00504944204175746F74756E655F
:101E50002073746172740A001FFFFFFFFFFFFF60B1
:101E60000000000001FF400000000000FF800000B3
:101E70000000007F83CF00000C303F87FF80000C04
:101E8000301F867980000C000F8C30C7838C30E7C0
:101E90008C30CFC7CC31F38C30DCECEC33B98C30E8
:101EA000D86C6C33198C30D06C0C33198C30D86CE6
:101EB0000C33198C30DC6C0E3B198C30CF7C079FB7
:101EC000198C30C77C038F194000000000000260AD
:101ED0000000000000061FFFFFFFFFFFF82020505A
:101EE0006C616E6E65724275666665724279746584
:101EF000733A20002046726565204D656D6F7279DA
:101F00003A2000436F6D70696C65643A204A616ED7
:101F100020313020323031390A00207C2041757464
:101F2000686F723A2028416C657068204F626A655C
:101F300063747320496E632E2C204C756C7A426F4B
:101F40007420476974205265706F7369746F727979
:101F5000290A004A616E2031302032303139313364
:101F60003A34373A343600204C617374205570642B
:101F7000617465643A2000312E312E390A004D61BA
:101F8000726C696E0020536F6674776172652052BF
:101F9000657365740A00205761746368646F672015
:101FA00052657365740A002042726F776E206F75F8
:101FB000742052657365740A002045787465726EEA
:101FC000616C2052657365740A00506F77657255B5
:101FD000700A0073746172740A006175746F256908
:101FE0002E67006572726F722077726974696E670E
:101FF00020746F2066696C650A00456E6473746FA7
:10200000707320256320256320256320256300202D
:10201000503A00205A3A0020593A0020583A0065B8
:102020006E6473746F7073206869743A2000446F33
:102030006E6520736176696E672066696C652E0A2D
:10204000004D3239004739310A4730205A313520A6
:10205000463630300A4739300A4730205831373059
:1020600020593239302046333030300A4D31313743
:10207000205072696E742061626F727465642E0004
:102080002569730025696D2025697300256968201D
:1020900025696D20256973002569642025696820FC
:1020A00025696D20256973002569792025696420DB
:1020B0002569682025696D2025697300486F6D6961
:1020C0006E67206661696C65640001050800FF06A3
:1020D0000121023520FFFF07FF06FF0900502216ED
:1020E00056808080800080153353A0A0A0025757EF
:1020F0005050F850F850500257572070A070287078
:102100002013355580A040A02002475740A0A04092
:10211000A0A05025135380808012265640808080D6
:1021200080401226568040404040800245559060D5
:10213000F060900255552020F82020113353604064
:1021400080044151F011335340E0400246561010D4
:102150002040808012365640A0A0A0A040123656E3
:1021600040C0404040E00246566090106080F0025F
:102170004656F020601090600246562060A0F02085
:1021800020024656F080E01090600246566080E0E3
:10219000909060024656F010202040400246566063
:1021A000906090906002465660909070106012258A
:1021B00055C0C000C0C0113656606000604080123B
:1021C0003656204080804020034353F000F0123602
:1021D0005680402020408012365640A020400040CB
:1021E000015858304898A8A8904030024656609050
:1021F00090F09090024656E090E09090E0024656B3
:10220000609080809060024656E090909090E0024E
:102210004656F080E08080F0024656F080E08080F4
:1022200080024656609080B090600246569090F0D2
:10223000909090123656E040404040E00246567082
:10224000202020A04002465690A0C0A0A0900246A8
:10225000568080808080F002465690F0F0909090FA
:1022600002465690D0F0B0B09002465660909090E2
:102270009060024656E09090E08080014757609061
:1022800090D0B06010024656E09090E090900246E8
:1022900056609040209060123656E04040404040EA
:1022A0000246569090909090600246569090909082
:1022B0006060024656909090F0F0900246569090E2
:1022C0006060909002565688885020202002465622
:1022D000F010204080F0123656E080808080E002CE
:1022E0004656808040201010123656E020202020D4
:1022F000E016325240A0014151F0162252804002B5
:102300004454709090700246568080E09090E012A5
:1023100034546080806002465610107090907002B5
:10232000445460B0C060024656205040E040400136
:10233000455560907010600246568080E090909005
:102340001236564000C04040E01137572000202090
:1023500020A040024656808090E09090123656C0F1
:1023600040404040E0025454D0A8A8A8024454E0A1
:1023700090909002445460909060014555E090E048
:1023800080800145557090701010024454A0D08098
:102390008012345460C020C00246564040E0405095
:1023A0002002445490909070123454A0A0A0400297
:1023B000545488A8A8500244549060609001455538
:1023C0009090709060024454F02040F002475730E3
:1023D0004020C020403022165680808080808002BD
:1023E0004757C02040304020C006425250A0FFFF57
:1023F000FFFFFFFFFFFFFFFFFFFFFFFFFFFFFFFFED
:10240000FFFFFFFFFFFFFFFFFFFFFFFFFFFFFF09D2
:102410000050221656800080808080014656207031
:10242000A0A070200246562050E04050A002555512
:1024300088705070880256568850F820F82022176D
:1024400057808080008080800247577080E09070C5
:1024500010E0173151A002565670A8C8C8A87014D1
:10246000355560A06000E003435350A05012335331
:10247000E02020143151E002565670E8D8E8D870B8
:10248000173151E015335340A04012355540E0401C
:1024900000E014355540A02040E0143555C020C060
:1024A00020C01622524080014555909090E0800255
:1024B000565678E8E86828282411518011225240A5
:1024C0008014355540C04040E014355540A04000D0
:1024D000E0034353A050A0024757808080A060F0E3
:1024E000200247578080A0D01020700247578040BC
:1024F0008060A0F02012365640004080A040024785
:102500005740206090F0909002475720406090F034
:10251000909002475760906090F09090024757501B
:10252000A06090F0909002475790006090F09090DB
:1025300002475760906090F0909002465670A0A0BD
:10254000F0A0B001475760908080906040024757EC
:102550004020F080E080F00247572040F080E0808B
:10256000F00247576090F080E080F00247579000FB
:10257000F080E080F01237578040E0404040E012A9
:1025800037572040E0404040E012375740A0E0403D
:102590004040E0123757A000E0404040E00256566D
:1025A0007048E848487002475750A090D0B09090CB
:1025B000024757402060909090600247572040604B
:1025C00090909060024757609060909090600247B2
:1025D0005750A06090909060024757900060909094
:1025E0009060123353A040A002465670B0B0D0D0D5
:1025F000E00247574020909090906002475720405B
:1026000090909090600247576090909090906002F8
:102610004757900090909090600257571020885034
:1026200020202002465680E09090E08002465660CE
:1026300090A0A090A0024757402000709090700298
:10264000475720400070909070024757205000700C
:1026500090907002475750A00070909070024656BC
:10266000500070909070024757609060709090702A
:10267000025454F068B07811355560808060400293
:10268000475740200060B0C06002475720400060BC
:10269000B0C06002475760900060B0C0600246560C
:1026A000500060B0C060123757804000C04040E02A
:1026B000123757204000C04040E012375740A0007A
:1026C000C04040E0123656A000C04040E0024757EC
:1026D000A040A01070906002475750A000E090907A
:1026E000900247574020006090906002475720407A
:1026F0000060909060024757609000609090600288
:10270000475750A00060909060024656900060903D
:1027100090601235554000E0004002445470B0D043
:10272000E0024757402000909090700247572040A9
:1027300000909090700247576090009090907002C7
:10274000465690009090907001485820400090901C
:102750007090600147578080E090E080800147578B
:102760009000909070906001050700FE0500FB014D
:10277000F220FFFE05FE05FE0200400215258080C6
:10278000800080053242A0A002556550F850F850F4
:102790000146562070C030E0200255659010204060
:1027A0004802556560806890680512228080022585
:1027B0003540808080400225358040404080043391
:1027C00043A040A003334340E04001223240800454
:1027D0003141E0021121800255650810204080023D
:1027E00045556090909060022535C04040404002C1
:1027F0004555E0106080F0024555E0106010E002A1
:1028000045552060A0F020024555F080E010E00220
:1028100045556080E09060024555F0102040400230
:10282000455560906090600245556090701060035F
:10283000132380008002142480008080023545200C
:1028400040804020033343E000E0023545804020D3
:102850004080024555E0106000400255657088B820
:10286000A870024555609090F090024555E090E0C8
:1028700090E00235456080808060024555E0909090
:1028800090E0023545E080E080E0023545E080E000
:1028900080800245557080B090700245559090F050
:1028A0009090023545E0404040E002455530101020
:1028B000906002455590A0C0A09002354580808070
:1028C00080E002556588D8A8888802455590D0B028
:1028D00090900245556090909060024555E0909030
:1028E000E080014656609090906010024555E0905F
:1028F00090E09002455570806010E0023545E04060
:10290000404040024555909090906002455590900F
:10291000A0A04002556588A8A8A8500245559090EF
:102920006090900245559090701060023545E0200F
:102930004080E0022535C0808080C002556580401F
:10294000201008022535C0404040C005324240A05A
:10295000024151F005223280400244547090907040
:1029600002455580E09090E002344460808060022F
:102970004555107090907002445460B0C0600235AC
:10298000452040E040400046567090907010600234
:10299000455580E090909002152580008080800051
:1029A0002737400040404040800245558090A0E0DD
:1029B000900215258080808080025464F0A8A8A829
:1029C000024454E09090900244546090906000461D
:1029D00056E09090E0808000465670909070101005
:1029E000023444A0C0808002445470C030E00235FC
:1029F0004540E0404020024454909090700244547E
:102A00009090A040025464A8A85050023444A040C2
:102A100040A0004656909090701060024454F02000
:102A200040F002354560408040600215258080807E
:102A30008080023545C0402040C005425250A0FF72
:102A4000FFFFFFFFFFFFFFFFFFFFFFFFFFFFFFFF96
:102A5000FFFFFFFFFFFFFFFFFFFFFFFFFFFFFFFF86
:102A6000020040FFFFFFFFFFFFFFFFFFFFFFFFFF31
:102A7000FFFFFFFFFFFFFFFFFFFFFFFFFFFFFFFF66
:102A8000FFFFFFFFFFFFFFFFFFFFFFFFFFFFFFFF56
:102A9000FFFFFFFFFFFFFFFFFFFFFFFFFFFFFFFF46
:102AA000FFFFFFFFFFFFFFFFFFFFFFFFFFFFFFFF36
:102AB000FFFFFFFFFFFFFFFFFFFFFFFFFFFFFFFF26
:102AC000FFFF01060D00FE09016602D620FFFE0B86
:102AD000FE0AFE0D0060221969808080808080805F
:102AE0000080183363A0A0A00357675050F850F837
:102AF00050500259692078A0A0702828F02002596F
:102B00006948A85010204050A89002586840A0A0E2
:102B100040A0989068281363808080113B6B204010
:102B2000408080808080404020113B6B804040206E
:102B30002020202040408006556520A870A8200451
:102B400055652020F82020113363604080065161D4
:102B5000F811336340E04002596908081010204022
:102B600040808002596920508888888888502002D7
:102B700059692060A02020202020F802596970881F
:102B8000880810204080F8025969F8081020700861
:102B9000088870025969101030505090F8101002D7
:102BA0005969F88080B0C80808887002596970882F
:102BB0008080F088888870025969F80810102020F9
:102BC00040404002596970888888708888887002FF
:102BD000596970888888780808887011386840E0DA
:102BE00040000040E04011386840E0400000604094
:102BF0008002596908102040804020100804546465
:102C0000F80000F802596980402010081020408028
:102C100002596970888808102020002002596970C4
:102C2000888898A8A8B08078025969205088888838
:102C3000F8888888025969F048484870484848F040
:102C4000025969708880808080808870025969F09C
:102C500048484848484848F0025969F8808080F060
:102C6000808080F8025969F8808080F080808080C0
:102C700002596970888080809888887002596988B4
:102C8000888888F888888888123969E04040404000
:102C9000404040E002596938101010101010906048
:102CA000025969888890A0C0A090888802596980DC
:102CB00080808080808080F80259698888D8A8A8A0
:102CC0008888888802596988C8C8A8A89898888878
:102CD000025969708888888888888870025969F0E4
:102CE000888888F080808080015A6A708888888807
:102CF0008888A87008025969F0888888F0A09088B0
:102D00008802596970888080700808887002596943
:102D1000F8202020202020202002596988888888D7
:102D2000888888887002596988888888505050201F
:102D30002002596988888888A8A8A8A850025969DB
:102D4000888850502050508888025969888850508F
:102D50002020202020025969F808101020404080CF
:102D6000F8113B6BE0808080808080808080E00272
:102D70005969808040402010100808113B6BE0200A
:102D80002020202020202020E008536320508801AC
:102D90005161F82A2262804002566670087888984D
:102DA00068025969808080F088888888F0025666B9
:102DB0007088808088700259690808087888888837
:102DC00088780256667088F88088700259693048A1
:102DD0004040F0404040400058687088888878083B
:102DE0008870025969808080B0C8888888881238C5
:102DF000684000C040404040E0004A6A1000301087
:102E000010101090906002596980808090A0C0A03E
:102E10009088123969C040404040404040E002562E
:102E200066D0A8A8A8A888025666B0C888888888EE
:102E3000025666708888888870005868F08888888C
:102E4000F0808080005868788888887808080802B0
:102E50005666B0C880808080025666708860108890
:102E6000700258684040F040404048300256668842
:102E7000888888986802566688888850502002564C
:102E8000668888A8A8A850025666885020205088D6
:102E90000058688888889868088870025666F81014
:102EA000204080F8015B6B1820202020C0202020CB
:102EB0002018221969808080808080808080015B5A
:102EC0006BC0202020201820202020C008536348F9
:102ED000A890FFFFFFFFFFFFFFFFFFFFFFFFFFFFC8
:102EE000FFFFFFFFFFFFFFFFFFFFFFFFFFFFFFFFF2
:102EF000FFFFFF0D006022196980008080808080C4
:102F000080800358682070A8A0A0A870200259698A
:102F100030484040E0404048B0035666887050500A
:102F2000708802596988885050F820F820202219AA
:102F300069808080800080808080124A6A609080F2
:102F4000609090601090601A3262A0A0035969707E
:102F500088A8D8C8D8A88870045767700878887877
:102F600000F80356662850A0A05028045363F808C0
:102F700008163161E00359697088E8D8D8E8D88824
:102F8000700A5161F817446460909060035767209D
:102F900020F8202000F807356540A02040E00735E4
:102FA0006540A04020C02A2262408000586888887E
:102FB000888898E8808002596978E8E8E8E8682815
:102FC0002828262161C0202262408007356540C044
:102FD0004040E0045767708888887000F8035666A0
:102FE000A050282850A0025A6A40C04040E008186B
:102FF000283808025A6A40C04040E01028081038BB
:10300000025A6A40A04020A048182838080259698E
:10301000200020204080888870025A6A40200020CA
:10302000508888F88888025A6A10200020508888C2
:10303000F88888025A6A30480020508888F88888C2
:10304000025A6A28500020508888F88888025A6AF4
:1030500050500020508888F88888025A6A205020F2
:1030600020508888F8888802596958A0A0A0B0E04C
:10307000A0A0B8005B6B7088808080808088702002
:1030800040025A6A402000F88080F08080F8025A9E
:103090006A102000F88080F08080F8025A6A304878
:1030A00000F88080F08080F8025A6A505000F88062
:1030B00080F08080F8123A6A804000E04040404052
:1030C00040E0123A6A204000E04040404040E012B8
:1030D0004A6A609000E04040404040E0123A6AA0F6
:1030E000A000E04040404040E0025969F0484848B4
:1030F000E8484848F0025A6A2850008888C8A898CA
:103100008888025A6A4020007088888888887002FF
:103110005A6A10200070888888888870025A6A303D
:10312000480070888888888870025A6A2850007021
:10313000888888888870025A6A5050007088888809
:103140008888700355658850205088015B6B087033
:103150009898A8A8A8C8C87080025A6A4020008819
:10316000888888888870025A6A1020008888888831
:10317000888870025A6A30480088888888888870F1
:10318000025A6A50500088888888888870025A6A73
:103190001020008888502020202002596980F08863
:1031A0008888F0808080025969609090A0A0908803
:1031B00088B00259694020007008788898680259E0
:1031C00069102000700878889868025969304800B2
:1031D00070087888986802596928500070087888C3
:1031E0009868025969505000700878889868025AA7
:1031F0006A304830007008788898680256667028EF
:1032000070A0A850005868708880808870204002A4
:1032100059694020007088F8808870025969102030
:10322000007088F88088700259693048007088F80A
:103230008088700259695050007088F88088701238
:103240003969804000C040404040E0123969204068
:1032500000C040404040E0124969609000C04040DA
:103260004040E0123969A0A000C040404040E00268
:103270005A6A5020601070888888887002596928BE
:103280005000B0C88888888802596940200070883A
:103290008888887002596910200070888888887032
:1032A00002596930480070888888887002596928F6
:1032B0005000708888888870025969505000708862
:1032C00088888870035767202000F8002020015864
:1032D00068087098A8A8C8708002596940200088C2
:1032E000888888986802596910200088888888989A
:1032F0006802596930480088888888986802596946
:10330000505000888888889868005B6B102000887F
:1033100088889868088870005A6A8080B0C8888851
:10332000C8B08080005B6B5050008888889868081F
:103330008870000000000000000000000000000095
:10334000000000000000000000000000000000007D
:1033500000000000000C000000000000000C000055
:103360000000000000120000000000000023000028
:10337000000000000021000000000000004C800060
:1033800000000000005E800000000000009240008D
:103390000000000000A1400000000000012120000A
:1033A00000000000027F90000000000002001000FA
:1033B0000000000007FFF800000000000400080003
:1033C00000000000080004000000000008000600E3
:1033D000000000001000020000000000301E01008C
:1033E00000000000207F81000000000041FFE0801D
:1033F0000000000043FCF08000000000873B7840A4
:10340000000000018EDBFC60000000010FEBCC200F
:10341000000000021FEDB610000000021FDEB61013
:103420000000000439CD7F080000000436E0FF08EA
:10343000000000087EC0BB84000000187F005D868D
:10344000000000107FC0ED82000000203CC073012E
:10345000000000203B337F01000000701BE77E036B
:10346000800000C81DEEDE04C00000880FDEDC0412
:10347000400001240FDF3C092000012607DBF8197A
:103480002000027203E7F0139000025101FFE022D6
:1034900090000489007F802448000904801E0048B1
:1034A00024000BFE400000DFF4001000400000800C
:1034B00002001FFFFFFFFFFFFE00000000000000F2
:1034C00000000000000000000000000000000000FC
:1034D00000001022103C3C0E1F001022100422118C
:1034E00004001022100822110400102210083C11C0
:1034F00004001022101022110400102210202211AA
:1035000004001E1C1E3C3C0E0400000000000000D5
:1035100000000000000000000000000000000000AB
:10352000000000000000000000000000000000009B
:10353000000000000000000000000000000000008B
:10354000000000000000000000000000000000007B
:10355000000000000000000000000000000000006B
:10356000000000000000000000000000000000005B
:10357000436172642072656D6F76656400436172A9
:103580006420696E7365727465640000060900FE4C
:1035900006018902FE20FFFE07FE06FE000000066F
:1035A0000007010606060200808080800080030379
:1035B00003060103A0A0A00507070600FF5050F86E
:1035C00050F850500509090600FE2070A8A0702888
:1035D000A870200608080600FF40A848102048549C
:1035E000080507070600FF60909060989068010347
:1035F000030602038080800207070602FF408080E6
:10360000808080400207070602FF80404040404023
:10361000800505050600008850F850880505050658
:1036200000002020F820200204040602FEC04040D2
:1036300080050101060002F8020202060200C0C075
:1036400004060606010010102040808004060606CD
:10365000010060909090906003060606010040C053
:10366000404040E00406060601006090102040F053
:10367000040606060100F020601010E005060606AC
:10368000000010305090F810040606060100F0808B
:10369000E01010E00406060601006080E0909060F3
:1036A000040606060100F01010204040040606063D
:1036B0000100609060909060040606060100609032
:1036C00090701060020505060200C0C000C0C00274
:1036D00007070602FEC0C000C04040800505050681
:1036E00000001860806018050303060001F800F868
:1036F000050505060000C0300830C00407070601B4
:1037000000609010604000400506060600007090C2
:10371000A8B08070050606060000205088F888884A
:10372000050606060000F088F08888F00406060604
:103730000100609080809060040606060100E09021
:10374000909090E0040606060100F080E08080F092
:10375000040606060100F080E0808080040606066C
:103760000100609080B09060040606060100909011
:10377000F0909090030606060100E040404040E0D3
:1037800005060606000038101010906004060606B4
:10379000010090A0C0A09090040606060100808061
:1037A000808080F005060606000088D8A8A88888D2
:1037B00004060606010090D0B0909090050606061B
:1037C0000000708888888870040606060100E09072
:1037D00090E080800407070601FF609090D0B06001
:1037E00010040606060100E09090E09090040606A2
:1037F000060100609040209060050606060000F873
:103800002020202020040606060100909090909031
:1038100060040606060100909090F06060050606C0
:103820000600008888A8A8D8880506060600008833
:103830005020205088050606060000888850202069
:1038400020040606060100F010204080F003060662
:10385000060100E080808080E0040606060100800A
:103860008040201010030606060100E020202020E2
:10387000E00503030600032050880501010600FE51
:10388000F8020202060204804004040406010070EB
:103890009090700406060601008080E09090E0049D
:1038A0000404060100708080700406060601001002
:1038B000107090907004040406010060B0C07004A1
:1038C0000606060100205040E040400406060601BE
:1038D000FE6090907010600406060601008080E093
:1038E0009090900306060601004000C04040E003AF
:1038F00008080601FE200060202020A040040606E3
:103900000601008080A0C0A090030606060100C04A
:1039100040404040E0050404060000D0A8A8880408
:103920000404060100E09090900404040601006085
:103930009090600406060601FEE09090E08080040E
:1039400006060601FE709090701010040404060133
:1039500000A0D0808004040406010070C030E004A0
:1039600006060601004040E0405020040404060121
:10397000009090907004040406010090906060052F
:10398000040406000088A8A850040404060100905E
:103990006060900406060601FE90909070906004AE
:1039A0000404060100F02040F00307070601002090
:1039B0004040804040200107070602FF8080808051
:1039C000808080030707060100804040204040803F
:1039D00004020206010350A0FFFFFFFFFFFFFFFFED
:1039E000FFFFFFFFFFFFFFFFFFFFFFFFFFFFFFFFE7
:1039F000FFFFFFFFFFFFFFFFFF00000006000701C2
:103A0000060606020080008080808004060606010B
:103A1000FF2070A0A070200507070600FF30484077
:103A2000F04040F8050505060000A8508850A8059C
:103A300006060600008850F820F820010707060255
:103A4000FF808080008080800407070601FF70806F
:103A500060906010E0030101060105A0060707065B
:103A60000000788494A4948478030505060101601D
:103A7000A06000E00505050600002850A0502804BD
:103A80000303060100F01010040101060102F00614
:103A900007070600007884B4A4A484780401010612
:103AA0000105F004030306010260906005070706A4
:103AB00000FF2020F8202000F80305050601014042
:103AC000A02040E0030505060101C0204020C002FF
:103AD000020206020440800405050601FF9090B032
:103AE000D08005060606000078E8E868282801016D
:103AF00001060202800202020602FE408003050562
:103B000006010140C04040E003050506010140A058
:103B10004000E0050505060000A0502850A005085B
:103B2000080600FF40C040507030781005080806B5
:103B300000FF40C04050680810380508080600FF24
:103B4000C0204030F0307810040707060100200044
:103B5000206080906005070706000040202050701C
:103B60008888050707060000102020507088880507
:103B700007070600002050205070888805070706B8
:103B80000000285020507088880507070600005064
:103B9000002050708888050707060000205020503C
:103BA00070888805060606000078A0F0A0A0B8047A
:103BB00008080601FE60908080906020400407079E
:103BC0000601004020F080E080F0040707060100B5
:103BD0002040F080E080F00407070601002050F04C
:103BE00080E080F00407070601005000F080E080CC
:103BF000F00307070601008040E0404040E0030773
:103C0000070601002040E0404040E00307070601AE
:103C10000040A0E0404040E0030707060100A0008C
:103C2000E0404040E00506060600007048E84848CD
:103C30007004070706010050A090D0B090900407D0
:103C4000070601004020609090906004070706017D
:103C5000002040609090906004070706010020500B
:103C6000609090906004070706010050A06090905B
:103C70009060040707060100500060909090600576
:103C8000050506000088502050880408080601FF3A
:103C90001070B0B0D0D0E0800407070601004020CB
:103CA000909090906004070706010020409090904B
:103CB00090600407070601002050909090906004E7
:103CC00007070601005000909090906005070706D6
:103CD00000001020885020202004060606010080E5
:103CE000E09090E0800406060601006090A0A0909D
:103CF000A0040707060100402000709090700407A0
:103D0000070601002040007090907004070706012C
:103D1000002050007090907004070706010050A02A
:103D2000007090907004060606010050007090909C
:103D30007004070706010020502070909070050461
:103D40000406000070A8B0780406060601FE708024
:103D50008070204004070706010040200060B0C0CA
:103D60007004070706010020400060B0C07004071F
:103D70000706010020500060B0C07004060606016E
:103D800000500060B0C070030707060100804000CB
:103D9000C04040E0030707060100204000C040404B
:103DA000E003070706010040A000C04040E0030612
:103DB00006060100A000C04040E00407070601001D
:103DC0003060107090906004070706010050A0005A
:103DD000E09090900407070601004020006090905A
:103DE000600407070601002040006090906004070F
:103DF000070601002050006090906004070706014C
:103E00000050A0006090906004060606010050007B
:103E1000609090600505050600002000F800200471
:103E2000040406010070B0D0E0040707060100405A
:103E30002000909090700407070601002040009039
:103E40009090700407070601002050009090907039
:103E500004060606010050009090907004090906BF
:103E600001FE2040009090907090600408080601C8
:103E7000FE8080E09090E080800408080601FE50FB
:103E8000009090907090604D3530320A4D35303052
:103E9000004C6F61642073657474696E67730052BF
:103EA0006573746F7265206661696C736166650025
:103EB00053746F72652073657474696E6773004123
:103EC0006476616E6365642053657474696E6773AC
:103ED000004D61696E005072696E74657220537492
:103EE000617473004669726D776172652056657200
:103EF00073696F6E004D61696E000A003B20454595
:103F000050524F4D20496E6465783A2000557064D8
:103F10006174696E67207A6F666673657420696E76
:103F200020454550524F4D3A20000E000E000E0025
:103F30000E000E000E000E000E007FC03F801F001E
:103F40000E00040004000E001F003F807FC00E0022
:103F50000E000E000E000E000E000E000E0003F804
:103F6000000FFE001E0F003807003803807003802A
:103F7000700FE07007C0700380700100700000389F
:103F800000003807001E0F000FFE0003F80000FEBF
:103F90000003FF800783C00E01C00E00E01C00E09C
:103FA0007F00E03E00E01C00E00800E00000E000D0
:103FB00001C00E01C00F078007FF0001FC00FFFFDA
:103FC000FF7F80FFC0FFC0FFC07F807F80FFC0FFFA
:103FD000C0FFC03F001E000C0050726F6265205A87
:103FE000204F66667365740050726F6265205A20B8
:103FF0004F666673657400466C6F7700466C6F772A
:104000000046616E20737065656420310046616E04
:104010002073706565642031004265640042656408
:10402000004E6F7A7A6C65004E6F7A7A6C65005339
:1040300070656564005370656564004D61696E006C
:104040004D6F76652058004D6F76652059004D6F95
:104050007665205A00457874727564657220004D4B
:104060006F766520302E316D6D004D6F7665203195
:104070006D6D004D6F76652031306D6D004D6F7642
:104080006520617869730045787472756465722083
:10409000004D6F7665205A004D6F76652059004DB2
:1040A0006F7665205800434F4D4D554E494341545E
:1040B000494F4E0044525952554E004552524F52AC
:1040C0005300494E464F004543484F004E6F206D08
:1040D0006F76652E00286E6F2066696C6529005327
:1040E00044207072696E74696E672062797465200D
:1040F000004E6F74205344207072696E74696E674D
:104100000A0043757272656E742066696C653A20A8
:104110000046696C652064656C657465643A0044AA
:10412000656C6574696F6E206661696C65642C20CE
:1041300046696C653A20005072696E742074696D2E
:10414000653A2000000125301D0C182829FF243174
:104150001C0B174527FF232F1B0A1E4443FFFF1686
:10416000040308060202222B1A4142FF033809FF0A
:104170003650726F7465637465642050696E0A000E
:1041800046696C616D656E7420757365643A2000D4
:1041900053746174733A20002C204C6F6E67657302
:1041A00074206A6F623A2000546F74616C207469E5
:1041B0006D653A200053746174733A20002C2046D8
:1041C00061696C65643A20002C2046696E697368E9
:1041D00065643A20005072696E74733A200053741B
:1041E0006174733A20006F6B0020573A0045787471
:1041F000727564657220436F6F6C696E672E2E2E28
:104200000045787472756465722048656174696EE2
:10421000672E2E2E00C740C240BB40B440A6406F60
:1042200066660044454255473A0000457874727509
:1042300064656420746F74616C3A2000256C642E90
:1042400025696D00004C6F6E67657374206A6F623C
:104250002074696D653A200000546F74616C2070A1
:1042600072696E742074696D653A2000436F6D70D9
:104270006C657465643A20005072696E7420436FF7
:10428000756E743A20004D3630302042302054256F
:1042900064004D37303120542564004D37303220D2
:1042A0003B2564004D37303220542564004368615B
:1042B0006E67652066696C616D656E74005072652D
:1042C0006865617420437573746F6D005072656822
:1042D00065617420437573746F6D00507265686515
:1042E00061742041425300507265686561742050CA
:1042F0004C41004D61696E005052494E542050416E
:104300005553454400554E4C4F41442046494C417D
:104310004D454E54004C4F41442046494C414D457B
:104320004E54005075726765206D6F726500456E62
:10433000642066696C616D656E74206368616E6788
:1043400065000020204E6F7A7A6C653A2000636821
:10435000616E6765006F66207468652066696C61D0
:104360006D656E74005761697420666F7220737496
:104370006172740020204E6F7A7A6C653A200020BA
:104380000066696C616D656E7420756E6C6F61643A
:10439000005761697420666F720020204E6F7A7A30
:1043A0006C653A20002000506C6561736520776170
:1043B00069742E2E2E0048656174696E67206E6FD9
:1043C0007A7A6C650020204E6F7A7A6C653A20000C
:1043D000200068656174206E6F7A7A6C652E0050DB
:1043E0007265737320627574746F6E20746F002031
:1043F000204E6F7A7A6C653A2000746F20636F6E7E
:1044000074696E75652E2E2E00616E642070726563
:10441000737320627574746F6E00496E7365727485
:104420002066696C616D656E740020204E6F7A7A2B
:104430006C653A2000200066696C616D656E7420C1
:104440006C6F6164005761697420666F7200202090
:104450004E6F7A7A6C653A2000200066696C616D57
:10446000656E7420707572676500576169742066A7
:104470006F7200506C6561736520776169742E00FE
:10448000006F70656E206661696C65642C204669FA
:104490006C653A200043616E6E6F74206F70656EBC
:1044A0002073756264697220006563686F3A004525
:1044B0003120544845524D414C2052554E415741B0
:1044C000590042454420544845524D414C205255D4
:1044D0004E4157415900546865726D616C205275A8
:1044E0006E617761790000002200250028002B0012
:1044F0002E003100340002010000050108010B010B
:1045000000002100240027002A002D003000330085
:1045100001010000040107010A0105050505070561
:1045200008080808020202020A0A0808040404042F
:10453000010101010101010103030303030303035B
:10454000040707070C0C0C0C0C0C0C0C02020202EA
:1045500006060606060606060B0B0B0B0B0B0B0BD3
:104560000102102020080810204010204080020185
:10457000020108040201010204081020408080406A
:104580002010080402018004020180402010080469
:104590000201080402010102040810204080010207
:1045A000040810204080486F6D6520257325732511
:1045B00073206669727374002066697273740A00EE
:1045C0005A0059005800486F6D6520004D32340084
:1045D0004D32332025730053442063617264206F91
:1045E0006B0A006F70656E526F6F74206661696C44
:1045F00065640A00766F6C756D652E696E6974204E
:104600006661696C65640A00534420696E697420B0
:104610006661696C0A0057726974696E6720746F0D
:104620002066696C653A20006F70656E206661696E
:104630006C65642C2046696C653A20006F70656E6D
:10464000206661696C65642C2046696C653A2000BF
:1046500046696C652073656C65637465640A002047
:1046600053697A653A200046696C65206F70656E03
:1046700065643A20002066696C653A2000646F69C1
:104680006E67006672657368004E6F772000454E56
:104690004420535542524F5554494E450A0022205A
:1046A000706F73002220706172656E743A2200533D
:1046B0005542524F5554494E452043414C4C20746D
:1046C00061726765743A22004B494C4C45442E2078
:1046D00000747279696E6720746F2063616C6C205E
:1046E0007375622D67636F64652066696C657320FE
:1046F0007769746820746F6F206D616E79206C65C6
:1047000076656C732E204D4158206C6576656C2063
:1047100069733A004572726F723A00454550524FC4
:104720004D206461746173697A65206572726F727D
:104730002E0A00290A002062797465733B20637297
:1047400063200053657474696E67732053746F72CD
:104750006564202800290A002062797465733B2073
:1047600063726320002073746F72656420736574D4
:1047700074696E677320726574726965766564200A
:104780002800202863616C63756C6174656429215D
:104790000A0020213D2000454550524F4D204352F4
:1047A00043206D69736D61746368202D20287374D4
:1047B0006F7265642920002053697A653A200049A8
:1047C0006E6465783A2000204D61726C696E3D56CA
:1047D0003535290A0028454550524F4D3D00454585
:1047E00050524F4D2076657273696F6E206D6973FC
:1047F0006D6174636820007C3C3E5E2B3D3F2F5B07
:104800005D3B2C2A225C004E6F20436865636B730E
:10481000756D2077697468206C696E65206E756DA2
:104820006265722C204C617374204C696E653A206D
:104830000053544F505045442E20005072696E74FE
:1048400065722073746F7070656420647565207480
:104850006F206572726F72732E20466978207468BB
:1048600065206572726F7220616E642075736520B9
:104870004D39393920746F20726573746172742EEA
:10488000202854656D706572617475726520697356
:104890002072657365742E205365742069742061DD
:1048A000667465722072657374617274696E6729CB
:1048B0000A004E6F20436865636B73756D207769DE
:1048C0007468206C696E65206E756D6265722C204F
:1048D0004C617374204C696E653A200063686563AF
:1048E0006B73756D206D69736D617463682C204CFA
:1048F000617374204C696E653A20004C696E6520C6
:104900004E756D626572206973206E6F74204C6104
:104910007374204C696E65204E756D6265722B3123
:104920002C204C617374204C696E653A20004D3127
:104930003130004D3331005344207265616420658D
:1049400072726F720A00446F6E65207072696E74C5
:10495000696E672066696C650A0020496E76616C35
:10496000696420657874727564657220000000A027
:10497000C10000A0C100000000000091430080972A
:104980004300008743486F6D65205859206669725F
:1049900073740A00486F6D652058592066697273F8
:1049A0007400457874727564657220004D6F766589
:1049B000205A004D6F76652059004D6F766520585E
:1049C000004D6F76656D656E7400436F6F6C646F3C
:1049D000776E0046616E2073706565642031004615
:1049E000616E207370656564203100426564004229
:1049F0006564004E6F7A7A6C65004E6F7A7A6C65EA
:104A0000004D61696E005654726176206D696E00CA
:104A10005654726176206D696E005654726176202C
:104A20006D696E00566D696E00566D696E00566D4B
:104A3000696E00566D6178204500566D617820459D
:104A400000566D6178204500566D6178205A0056F9
:104A50006D6178205A00566D6178205A00566D615C
:104A600078205900566D6178205900566D61782084
:104A70005900566D6178205800566D6178205800B5
:104A8000566D61782058004D6F74696F6E00416DEE
:104A90006178204500416D6178204500416D617865
:104AA000205A00416D6178205A00416D617820598B
:104AB00000416D6178205900416D617820580041B6
:104AC0006D6178205800412D74726176656C0041EB
:104AD0002D74726176656C00412D7265747261632C
:104AE0007400412D72657472616374004163636583
:104AF0006C00416363656C004D6F74696F6E000AF2
:104B00000A426564204C6576656C20436F7272655D
:104B10006374696F6E204D61747269783A00202B5E
:104B2000000A436F72726563746564204265642095
:104B30004865696768742076732E20426564205446
:104B40006F706F6C6F67793A0A00202B000A42651C
:104B5000642048656967687420546F706F6772617C
:104B60007068793A0A2020202B2D2D2D20424143B8
:104B70004B202D2D2B0A2020207C2020202020209F
:104B800020202020207C0A204C207C20202020284F
:104B90002B29202020207C20520A2045207C202008
:104BA0002020202020202020207C20490A20462070
:104BB0007C20282D29204E20282B29207C20470AC4
:104BC0002054207C20202020202020202020207CF9
:104BD00020480A2020207C20202020282D29202049
:104BE00020207C20540A2020207C202020202020EF
:104BF00020202020207C0A2020204F2D2D204652CE
:104C00004F4E54202D2D2B0A2028302C30290A00FD
:104C10004D65616E206F662073616D706C656420F8
:104C2000706F696E74733A200020643A200020622D
:104C30003A200045716E20636F6566666963696539
:104C40006E74733A20613A20003474682070726F79
:104C5000626520706F696E742C2064697374616E74
:104C600063652066726F6D20706C616E653A20001E
:104C7000202844525952554E290047323920417557
:104C8000746F20426564204C6576656C696E6700C0
:104C90003F20284C2C522C462C4229206F75742022
:104CA0006F6620626F756E64732E0A003F50726FDC
:104CB000626520706F696E747320285929206973AA
:104CC00020696D706C61757369626C652028322D86
:104CD00032292E0A003F50726F626520706F696E34
:104CE00074732028582920697320696D706C617570
:104CF0007369626C652028322D32292E0A003F2804
:104D000056296572626F7365206C6576656C2069E3
:104D10007320696D706C61757369626C65202830F1
:104D20002D34292E0A00205A3A200020593A20001A
:104D300042656420583A2000506C656173652072AA
:104D400065736574005052494E5445522048414C99
:104D5000544544005072696E7465722068616C74C9
:104D600065642E206B696C6C28292063616C6C650E
:104D700064210A00656E7175657565696E6720222C
:104D8000000000A0C1008097430000000000004820
:104D9000420000484200004040000000005761729D
:104DA0006E696E673A20486F6D696E672042756D57
:104DB000702044697669736F72203C20310A0002CA
:104DC00002040000A0400000A040000000400000DD
:104DD0009B430080A14300008743FF01FF20643A0A
:104DE0000020693A0020703A00496E7365727420A1
:104DF00066696C616D656E7420616E6420707265A9
:104E0000737320627574746F6E20286F72204D3139
:104E10003038290A002F2F616374696F6E3A72650A
:104E200073756D650A004D3630303A20546F6F202F
:104E3000636F6C6400486F74656E6420746F6F20DC
:104E4000636F6C640A002F2F616374696F6E3A7030
:104E5000617573650A0056652D6A65726B0056654B
:104E60002D6A65726B0056652D6A65726B00567A05
:104E70002D6A65726B00567A2D6A65726B005679E1
:104E80002D6A65726B0056792D6A65726B005679D2
:104E90002D6A65726B0056782D6A65726B005678C4
:104EA0002D6A65726B0056782D6A65726B004D6FC6
:104EB00074696F6E004573746570732F6D6D004576
:104EC00073746570732F6D6D005A73746570732FF2
:104ED0006D6D005A73746570732F6D6D0059737426
:104EE0006570732F6D6D005973746570732F6D6DE0
:104EF000005873746570732F6D6D0058737465700E
:104F0000732F6D6D004D6F74696F6E004F66660094
:104F10004F6E2000456E6473746F702061626F7213
:104F2000740053746570732F6D6D004A65726B0069
:104F3000416363656C65726174696F6E0056656C80
:104F40006F636974790050726F6265205A204F66F2
:104F50006673657400416476616E636564205365B1
:104F60007474696E67730043616E6E6F7420656E52
:104F7000746572207375626469723A2000022E2E85
:104F8000004D61696E0048617264636F64656420FE
:104F900044656661756C742053657474696E6773DB
:104FA000204C6F616465640A0028230000282300F8
:104FB00000640000001027000000009643000096E7
:104FC00043000040400000C8410000C9420000C941
:104FD000420000C84400804F443A0A0020286D6D0A
:104FE000290020204D36303320002055004C00464B
:104FF000696C616D656E74206C6F61642F756E6C89
:105000006F6164206C656E677468733A0A002020D3
:105010004D393030204B004C696E6561722041641F
:1050200076616E63653A0A0020204D383531205A8A
:10503000005A2D50726F6265204F6666736574006A
:1050400020440020490020204D33303420500020DF
:10505000440020490020204D333031205000504979
:10506000442073657474696E67733A0A00204600C1
:1050700020420020480020204D3134352053004D7F
:105080006174657269616C20686561747570207007
:105090006172616D65746572733A0A0020204D3447
:1050A00032302053004175746F20426564204C6596
:1050B00076656C696E673A0A00205A002059002014
:1050C000204D323036205800486F6D65206F66667F
:1050D0007365743A0A00204500205A0020590020C8
:1050E000580020540020530020204D3230352042FB
:1050F0000020453C6D61785F655F6A65726B3E00BC
:1051000020583C6D61785F785F6A65726B3E20590C
:105110003C6D61785F795F6A65726B3E205A3C6DC9
:1051200061785F7A5F6A65726B3E00416476616E9A
:105130006365643A20423C6D696E5F7365676D65B7
:105140006E745F74696D655F75733E20533C6D6965
:105150006E5F66656564726174653E20543C6D697E
:105160006E5F74726176656C5F66656564726174AA
:10517000653E0020540020520020204D3230342063
:105180005000416363656C65726174696F6E2028BD
:10519000756E6974732F7332293A20503C707269AE
:1051A0006E745F616363656C3E20523C726574721D
:1051B0006163745F616363656C3E20543C7472612B
:1051C00076656C5F616363656C3E0A002045002074
:1051D0005A0020590020204D3230312058004D61B6
:1051E00078696D756D20416363656C657261746982
:1051F0006F6E2028756E6974732F7332293A0A0016
:10520000204500205A0020590020204D3230332004
:1052100058004D6178696D756D20666565647261D1
:105220007465732028756E6974732F73293A0A00A8
:10523000204500205A0020590020204D39322058A6
:105240000053746570732070657220756E69743ACE
:105250000A0020204D3230302044300A0020204DFA
:105260003230302044002044697361626C65640A06
:105270000046696C616D656E742073657474696E47
:1052800067733A0020204D3134392043203B2055AC
:105290006E69747320696E2043656C736975730A57
:1052A000002020473231202020203B0052657365CA
:1052B0006E643A20002042002050006F6B0062753F
:1052C00073793A2070617573656420666F72206926
:1052D0006E7075740A00627573793A207061757327
:1052E000656420666F7220757365720A006275735B
:1052F000793A2070726F63657373696E670A004B49
:10530000494C4C45442E20004B494C4C2063617560
:1053100073656420627920746F6F206D75636820F7
:10532000696E6163746976652074696D65202D20EE
:1053300063757272656E7420636F6D6D616E643A31
:1053400020004C756C7A426F742054415A203620EC
:1053500072656164792E005072696E74696E672E91
:105360002E2E005072696E74207061757365640032
:105370004D313235004D3234005072696E74206107
:10538000626F72746564005072696E742066726F29
:105390006D2053440053746F70207072696E7400F6
:1053A000526573756D65207072696E740050617519
:1053B0007365207072696E74004E6F2053442063D1
:1053C0006172640041626F7574205072696E746519
:1053D00072004368616E67652066696C616D656E19
:1053E00074004368616E67652066696C616D656E07
:1053F00074004D36303020423000436F6E6669676E
:1054000075726174696F6E0054656D706572617458
:10541000757265004D6F76656D656E740054756EBE
:105420006500496E666F2073637265656E004D6F2F
:10543000766520617869730044697361626C6520E8
:105440007374657070657273004D38340041757403
:105450006F20686F6D6500473238004D61696E00DE
:10546000556E6B6E6F776E20636F6D6D616E643A13
:10547000202200486F74656E6420746F6F20636F24
:105480006C640A0000000A0B02090C0D0E080703E9
:105490000401000000000000000000000000000007
:1054A00000000000000000000000000000000000FC
:1054B00012111000000000000000000000000000B9
:1054C0000000000000000000000050726F62696E72
:1054D00067206661696C65640A0050726F62696E6C
:1054E00067206661696C656400205A3A2000205983
:1054F0003A200042656420583A2000006CC2F8004F
:1055000011241FBECFEFD1E2DEBFCDBF00E00CBF44
:1055100013E0A0E0B2E0EAECF1E702E00BBF02C06A
:1055200007900D92A03AB107D9F726E1A0EAB3E0BF
:1055300001C01D92AE38B207E1F71AE2CFE7DAE216
:1055400000E006C021970109802FFE010F94563814
:10555000CE37D10780E00807A9F70E9412940D9476
:10556000D4380C9400002F923F924F925F926F922A
:105570007F928F929F92AF92BF92CF92DF92EF92E3
:10558000FF920F931F93CF93DF93CDB7DEB7C8572A
:10559000D1090FB6F894DEBF0FBECDBFE9968FAF2D
:1055A000E99721E02093E7148091CD0A8D3411F41E
:1055B0000C941833843511F40C94CD41873411F0D8
:1055C0000C9411428091CB0A9091CC0A8A319105BA
:1055D00009F49FC79CF4843091053CF48230910516
:1055E0008CF597FF28C00C9414338430910509F48E
:1055F00028C60C9709F464C60C9414338E319105B7
:1056000011F40C9408333CF48C31910509F4B7C7BC
:105610000CF485C7B9C78B35910509F4FDC78C35E6
:10562000910509F4FDC78A35910509F0FDC710926F
:10563000B2030C9413428091170281110C941E4204
:105640000C94134220911702222311F40C9413425C
:1056500011E0029709F010E00E948EE782E50E94B7
:1056600090A4882309F45CC10E9412A46B017C0100
:1056700040900D1250900E1260900F127090101208
:105680008091111290911212A0911312B0911412E4
:1056900024968CAF9DAFAEAFBFAF24972091E81496
:1056A0003091E9144091EA145091EB1428962CAFF4
:1056B0003DAF4EAF5FAF28978091EC149091ED1401
:1056C000A091EE14B091EF1460968CAF9DAFAEAF89
:1056D000BFAF609720E030E0A901C701B6010F9489
:1056E000FD30882309F493C5A301920128966CAD7F
:1056F0007DAD8EAD9FAD28970F94FD30811111C007
:1057000024962CAD3DAD4EAD5FAD249760966CAD4B
:105710007DAD8EAD9FAD60970F94FD30882309F469
:1057200076C520E030E0A901C701B6010F94FD3035
:10573000881F8827881F18130BC020E030E040E83E
:105740005FE36C962CAF3DAF4EAF5FAF6C970AC076
:1057500080E090E0A0E8BFEB6C968CAF9DAFAEAF61
:10576000BFAF6C97A301920128966CAD7DAD8EAD55
:105770009FAD28970F94663564966CAF7DAF8EAF62
:105780009FAF649724962CAD3DAD4EAD5FAD249791
:1057900060966CAD7DAD8EAD9FAD60970F94663514
:1057A00068966CAF7DAF8EAF9FAF689764962CAD57
:1057B0003DAD4EAD5FAD6497CA01B9010F94623142
:1057C0004B015C0168962CAD3DAD4EAD5FAD689769
:1057D000CA01B9010F9462319B01AC01C501B4014A
:1057E0000F9467350F94D2372C966CAF7DAF8EAF88
:1057F0009FAF2C9720E030E040E05FE30F946231F0
:105800004B015C01A7019601C701B6010F946231FB
:105810006B017C01A5019401C501B4010F946231B3
:105820009B01AC01C701B6010F9466350F94D237C6
:105830009B01AC016C966CAD7DAD8EAD9FAD6C9750
:105840000F9462314B015C0128962CAD3DAD4EADFD
:105850005FAD2897C301B2010F94673520E030E0B7
:1058600040E05FE30F9462316B017C0168966CADA0
:105870007DAD8EAD9FAD689790582C962CAD3DAD0B
:105880004EAD5FAD2C970F9443369B01AC01C50123
:10589000B4010F9462319B01AC01C701B6010F94B2
:1058A0006735A30192010F9466356B017C01609608
:1058B0002CAD3DAD4EAD5FAD609724966CAD7DAD2A
:1058C0008EAD9FAD24970F94673520E030E040E027
:1058D0005FE30F9462312B013C012C962CAD3DAD62
:1058E0004EAD5FAD2C9764966CAD7DAD8EAD9FAD2A
:1058F00064970F9443369B01AC01C501B4010F942A
:1059000062319B01AC01C301B2010F94673524964B
:105910002CAD3DAD4EAD5FAD24970F94663514C0F0
:1059200089E40E9490A4882329F00E9412A46B01AC
:105930007C0103C0C12CD12C76018AE40E9490A482
:105940008823F9F00E9412A460966CAF7DAF8EAFF1
:105950009FAF609720E030E0A901C701B6010F9426
:10596000FD3081111EC020E030E0A90160966CADD1
:105970007DAD8EAD9FAD60970F94FD30811111C04C
:1059800046C420E030E0A901C701B6010F94FD3004
:10599000882309F43CC460961CAE1DAE1EAE1FAE3B
:1059A0006097A7019601505824962CAF3DAF4EAF9B
:1059B0005FAF249760968CAD9DADAEADBFAD6097E7
:1059C000B05828968CAF9DAFAEAFBFAF2897CA0135
:1059D000B9010F9462314B015C0128962CAD3DADAD
:1059E0004EAD5FAD2897CA01B9010F9462319B019A
:1059F000AC01C501B4010F9467350F94D237A89656
:105A00006CAF7DAF8EAF9FAFA89720910D123091F4
:105A10000E1240910F12509110122C962CAF3DAFE8
:105A20004EAF5FAF2C97A70196012C966CAD7DAD64
:105A30008EAD9FAD2C970F9467356C966CAF7DAF94
:105A40008EAF9FAF6C978091111290911212A0911E
:105A50001312B091141264968CAF9DAFAEAFBFAF6E
:105A6000649760962CAD3DAD4EAD5FAD6097BC01C7
:105A7000CD010F946735AC966CAF7DAF8EAF9FAF05
:105A8000AC972091E8143091E9144091EA145091B8
:105A9000EB1468962CAF3DAF4EAF5FAF68976C9636
:105AA0002CAD3DAD4EAD5FAD6C9768966CAD7DADE8
:105AB0008EAD9FAD68970F9466356B017C01809128
:105AC000EC149091ED14A091EE14B091EF14A09607
:105AD0008CAF9DAFAEAFBFAFA097AC962CAD3DAD38
