:100000000C94C82D0C94082E0C94082E0C94082ED9
:100010000C94082E0C94082E0C94082E0C94082E88
:100020000C94082E0D94669C0D94669C0D94669C11
:100030000C94082E0C94082E0C94082E0C94082E68
:100040000C94082E0C94AE390C94082E0C94082EA7
:100050000C94082E0D9476660C94082E0D94779EC1
:100060000C94082E0D94C1360D948B360C94082EEA
:100070000C94082E0C94082E0C94082E0C94082E28
:100080000D94F8240C94082E0C94082E0C94082E31
:100090000C94082E0C94082E0C94082E0C94082E08
:1000A0000C94082E0C94082E0D94CA240C94082E3F
:1000B0000C94082E0C94082E0C94082E0C94082EE8
:1000C0000C94082E0C94082E0C94082E0C94082ED8
:1000D0000C94082E0C94082E0C94082E0C94082EC8
:1000E0000C94082E084AD73B3BCE016E84BCBFFD62
:1000F000C12F3D6C74319ABD56833DDA3D00C77FF8
:1001000011BED9E4BB4C3E916BAAAABE0000008090
:100110003F07634236B79BD8A71A39685618AEBA5C
:10012000AB558C1D3CB7CC5763BD6DEDFD753EF6F0
:10013000177231BF000000803F05A84CCDB2D44EED
:10014000B93836A9020C50B9918688083CA6AAAAEB
:100150002ABE000000803F08000000BE9224491221
:100160003EABAAAA2ABECDCCCC4C3E00000080BE3D
:10017000ABAAAAAA3E00000000BF000000803F001A
:1001800000000000084178D3BB4387D1133D190E0E
:100190003CC3BD4282AD2B3E68EC8276BED98FE176
:1001A000A93E4C80EFFFBE01C4FF7F3F000000006E
:1001B00000000C948CF30C941B610C9490C70C946D
:1001C000DAFB0C942C5A0C9414E40D943D4F0C94CF
:1001D0002EC90C945E320C9417320C9476F00C9469
:1001E0005EE00D947E210C9477320C94A6E20D947F
:1001F0004D070C94BFFD0D94E0280C949CC60C9404
:10020000DD380C94FCD10C945B300C9472C70C94C8
:1002100032C90D94AA210D9402370D9416290D941C
:10022000930B0C94D6D40D94A40B0C9466DC0C9414
:1002300002D20C94A5610D94904C0C9414EC0C9487
:100240008CC70D94A54A0D943E4B0D94D09C0D94F3
:10025000CB120C94A1CB0C94CBC90D9488A70D9410
:10026000A44A0C94C8FB0C949EFB0C94C6370C94C7
:10027000E7C80C943EC70C94F8FB0C9467C60C942A
:10028000DDCB0C9466EA0D94E64B0D94F0210C94B2
:10029000ACCB0C944F7B0C94C2CB0C9456DC0C94DE
:1002A0009D370C948ECD0D94CC9C0C9471DC0C94E9
:1002B000193C0D94EE210D94454E0C94BCFB0C940E
:1002C00061FC0D9484370C9430C70D94DA9C0C9427
:1002D000C1C70C9402DF0D94B79C0D9451070C9488
:1002E000F35E0C944DDE0C9497E70D94DE9C0C9419
:1002F000ECCC0D94A09C0D94FB280D94BF9C0C9409
:10030000FFCA0C9487360D94CA210C94D2D40D9454
:10031000954E0C9430350C94DAD40C9490320C94A5
:10032000CD2F0C9455350D94A59C0C94CED40D94E2
:1003300031370D9412220D94D34B0C941CC60D949E
:1003400016220C94BED40C945B370D946C4B0C9419
:100350004C5D0C94BAD40D9482000C94B6D40C94D9
:1003600017C60C9456C60C9463DC0C94CFCE0D9437
:100370000D4C0C94FA7C0C9487CB0C9456370C944F
:100380001EF90C94F2FB0C94A0650C9492310C9421
:1003900031CF0C941CC70D948F370D9497370C9464
:1003A0005FCC0D94DD4B0C946A350C94A6CE0D9465
:1003B00052370C947E370C9490CD0C9440FC0C94E6
:1003C00082C60C9463D50D94C39C0C94AA2F0D94F3
:1003D000774A0D94D69C0D9414220C9483E50C94CA
:1003E000E7380C94EAC60D94F29C0D94D84B0D940A
:1003F000FF080D94DE4E0D9431290C94A42F0C941B
:10040000A72F0D94CC210C94B6C60C948ACD0C94D5
:10041000FE2F0C94B6320C941EF20D945F4F0C9488
:10042000C6D40C9459DC0C9463300C9405C60C941F
:10043000036D0C94B6370C94ECFB0D94074E0C94A2
:100440005CDC0D94E89C0C94FFC50C9432CD0D94AB
:100450006D370C94B7CB0C94F8C60D949A4C0D9450
:10046000B14B0C9460370D9477370C94E22F0D94B8
:1004700059370C94BC320D9461370C94E4CA0C9437
:10048000C2FB0D94B3AF0D945D370C944C680D9482
:1004900057500C9488CD0D94A8210C9412C60C943E
:1004A000DDFD0C94AAC70D9465370C941CCC0C94FC
:1004B0000BC60D9440370D94224F0D948F4C0C9425
:1004C00086CD0C94D8C70C948A690D94EC9C0C943E
:1004D000E2C50C946B300C94C0DB0C9447DC0C949C
:1004E000BECA0C94CAD40C948CCD0D948A210C9461
:1004F00065370C94D4FB0C94495D0C94B6FB0C94BA
:10050000AAFB0D947C370C943CDC0C9451370D9471
:10051000B44A0C94DD330C94A4FB0D94244E0D943A
:10052000BB9C0D9472370C943BC90C9484D20C94F0
:10053000F32F0C940EEF0C94FE310C9402C60C9425
:10054000D0C60D947A040C9484CD0C94CEFB0D94FB
:10055000E49C0C94B0FB0C9426CC0C94CECA0C9466
:100560004ADC0D94F69C0C94F77C0C9474CD0C949E
:100570007F7D0C94465D0C94A9320C9446E80C9453
:10058000E9C70D94064D0D94D1120C944DDC0C94DA
:10059000A4CC0C949CDB0C94E5DC0C9488CE0D94DC
:1005A00069370C9406C70C9473300C9465350D9420
:1005B000364B0D94CE210C9408C60C94F0CC0C94C0
:1005C000E6FB0C94B4320C94C2D40C943ACB0D9448
:1005D000564B0D948F4B0C9453DC0C944F5D0D9443
:1005E0008C4F0C940F3C0C9438C90C94892E0C94AD
:1005F00097CB0C94C8630D9440070D94FB080D94A1
:10060000F04B0D94F2210C9435C90C94E5310C9407
:10061000E0FB0D94C69C0C94BE310C9430320C94CB
:1006200058C70C9450DC4E414E494E495459494EDE
:1006300046CDCCCC3D0AD7233C17B7D13877CC2B4D
:10064000329595E6241FB14F0A000020410000C8F2
:100650004200401C4620BCBE4CCA1B0E5AAEC59D73
:100660007400407A10F35A00A0724E18090010A5C9
:10067000D4E80000E87648170000E40B54020000BC
:10068000CA9A3B000000E1F5050000809698000042
:100690000040420F000000A086010000001027006B
:1006A000000000E803000000006400000000000AF1
:1006B00000000000000100000000002C76D888DC5B
:1006C000674F0823DFC1DFAE59E1B1B796E5E3E438
:1006D00053C63AE651997696E8E6C28426EB898CB1
:1006E0009B62ED407C6FFCEFBC9C9F40F2BAA56F13
:1006F000A5F490055A2AF75C936B6CF9676DC11BE2
:10070000FCE0E40D47FEF520E6B500D0ED902E03A9
:1007100000943577050080841E080000204E0A00F2
:100720000000C80C333333330F986E12831141EF3E
:100730008D2114893BE65516CFFEE6DB18D1844B9C
:10074000381BF77C1D901DA4BBE424203284725E0C
:10075000228100C9F124ECA1E53D2747616D657355
:10076000005374617473005072696E74657220492D
:100770006E666F004D61696E204D656E7500473283
:10078000384F0A4730205831303020593238332022
:100790005A323030004D3839312054380A4D393210
:1007A000453431300A4D3330362041302E30363228
:1007B00032204331352E34342046302E3138343413
:1007C000205035302052302E313132380A4D3930F8
:1007D0003620453835300A4D393030204B302E30F8
:1007E000350A4D3530300A4D313137204D455431C1
:1007F00037357C4E4B4C2D504C20425241535300C8
:100800004D3839312054390A4D3932453433390A9B
:100810004D3330362041302E3036323220433135A0
:100820002E34342046302E313834342050353020A8
:1008300052302E313132380A4D3930362045383574
:10084000300A4D393030204B302E30350A4D35309E
:10085000300A4D313137204D45543238357C4E4BBE
:100860004C2D504C204252415353004D38393120C9
:100870005431300A4D3932453433390A4D3330362C
:100880002041302E30393336204333362E32393240
:10089000352046302E31373434205031303020521C
:1008A000302E313134330A4D393036204538353029
:1008B0000A4D393030204B302E30330A4D35303030
:1008C0000A4D313137204153543238357C474D2061
:1008D000535445454C004153543238357C474D20E4
:1008E000535445454C004D45543238357C4E4B4CA5
:1008F0002D504C204252415353004D455431373511
:100900007C4E4B4C2D504C20425241535300506171
:10091000726B20666F722054482053776170004DCF
:1009200061696E204D656E75003F004261636B002A
:1009300053746F70004E6F204D656469610053659C
:100940006C6563742066726F6D204D65646961002B
:100950004368616E6765204D65646961004D3231A1
:100960000041626F7574205072696E746572005434
:100970006F6F6C20486561647320285448290043D8
:100980006F6E66696775726174696F6E0054656D2C
:100990007065726174757265004368616E67652089
:1009A00046696C616D656E74004D6F74696F6E00A1
:1009B00050726573656E742042656400473238205A
:1009C0004F0A4730205932383520463130303030E8
:1009D0000A47302059323930204631303030300A21
:1009E0004D313137205072696E74657220526561E5
:1009F000647900526573756D65205072696E74007C
:100A000043616E63656C204F626A65637400547560
:100A10006E650053746F70205072696E740050617F
:100A2000757365205072696E7400496E666F20534D
:100A3000637265656E003F0053746172742050727A
:100A4000696E740043616E63656C005072696E7408
:100A50000043616E6E6F7420656E746572207375ED
:100A6000626469723A200002202E2E004D61696E88
:100A7000204D656E75002100486F74656E642074AA
:100A80006F6F20636F6C64004261636B0050726F24
:100A900063656564004D6F76652045787472756492
:100AA0006572004D6F74696F6E0044697361626CAA
:100AB00065205374657070657273004D3834004161
:100AC00075746F2043616C696272617465004D31A9
:100AD0003137205374617274696E67204175746F89
:100AE0002D43616C6962726174696F6E0A473238B6
:100AF0000A4731320A4D31303620533235350A4DEE
:100B00003130342053300A473020583134342059A2
:100B1000333032205A32352046333530300A4D31A9
:100B200031372043616C6962726174696E672E2E81
:100B30002E0A473432350A4D3130370A4D353030C0
:100B40000A4D37370A4D3131372043616C69627283
:100B50006174696F6E20646174612073617665648D
:100B6000004D34382050726F6265205465737400F4
:100B70004732384F0A4D34382050313000417574B7
:100B80006F205A2D416C69676E00473238205A0A2F
:100B90004D3138205A0A473420503330300A47321A
:100BA00038205A004F6666004F6E00426564204C44
:100BB0006576656C696E67004C6576656C2042658C
:100BC00064004732394E005A2050726F62652057D8
:100BD000697A617264004175746F2D5061726B00A7
:100BE000473238204F0A473237004732385A0047D9
:100BF00032385900486F6D65204000473238580040
:100C00004175746F20486F6D65004D61696E204DB0
:100C1000656E750043616E63656C00446F6E6500C0
:100C2000302E30323500302E31004D6F7665202465
:100C30006D6D00312E300050726F6265205A204F6A
:100C40006666736574005A004D6F7665204E6F7A44
:100C50007A6C6520746F20426564004D6F76696E12
:100C60006720746F2050726F62696E6720506F73D7
:100C70000050726F62696E67205A20526566657215
:100C8000656E636500486F6D696E672058595A003C
:100C900047323800507265686561742024204265CF
:100CA000640050726568656174202420456E64009C
:100CB00054656D706572617475726500436F6F6C19
:100CC000646F776E00507265686561742024004619
:100CD000616E205370656564207E00426564004E3D
:100CE0006F7A7A6C65004D61696E204D656E750096
:100CF0004531005A00590058004531005A0059004A
:100D00004F6666004F6E005800544D432044726990
:100D10007665727300537465616C746843686F70B4
:100D200020456E61626C6564005374657070696E15
:100D300067204D6F64650044726976657220437563
:100D40007272656E7400416476616E6365642053EF
:100D5000657474696E67730050726F6265205A2003
:100D60004F666673657400416476616E6365204BFF
:100D700000466C6F77726174650046616E20537037
:100D8000656564207E00426564004E6F7A7A6C650A
:100D9000005370656564004D61696E204D656E7528
:100DA00000486F6D696E67204661696C6564006F0D
:100DB00070656E00545249474745524544003A20F9
:100DC0000066696C616D656E740063616C69627266
:100DD0006174696F6E005A204D6178005A204D6928
:100DE0006E0059204D696E0058204D696E005265A5
:100DF000706F7274696E6720656E6473746F7020B3
:100E00007374617475730A00203A2073796E635F9E
:100E1000706C616E5F706F736974696F6E0A002029
:100E20002063757272656E745F706F736974696F39
:100E30006E3D003E2000646F5F626C6F636B696E95
:100E4000675F6D6F76655F746F00290A002C200064
:100E50002C2000646F5F626C6F636B696E675F6DFF
:100E60006F76655F746F5F78792800290A002C20FF
:100E700000646F5F626C6F636B696E675F6D6F7646
:100E8000655F746F5F7A2800250A00200072656D27
:100E9000656D6265725F66656564726174655F73D6
:100EA00063616C696E675F6F66663A2066723D00CB
:100EB000250A002000726573746F72655F66656550
:100EC00064726174655F616E645F7363616C696EA7
:100ED000673A2066723D0020746F6F206C6F6E67FA
:100EE00020657874727573696F6E207072657665AF
:100EF0006E7465640A0020636F6C64206578747298
:100F00007573696F6E2070726576656E7465640ABC
:100F100000290A003C3C3C207365745F617869736A
:100F20005F69735F61745F686F6D652800203A20A8
:100F30000A00202063757272656E745F706F73694A
:100F400074696F6E3D005D203D20003E20686F6D2E
:100F5000655F6F66667365745B000000C0C000006B
:100F6000A8C100009543290A003E3E3E20736574E7
:100F70005F617869735F69735F61745F686F6D65E6
:100F800028005761726E696E673A20486F6D696E0E
:100F9000672042756D702044697669736F72203CDA
:100FA00020310A00010204290A003C3C3C20686F01
:100FB0006D65617869732800203A203E20414654CF
:100FC0004552207365745F617869735F69735F610F
:100FD000745F686F6D650A00202063757272656EBC
:100FE000745F706F736974696F6E3D006D6D0A0098
:100FF00052652D62756D703A20006D6D0A004D6F5F
:10100000766520417761793A20006D6D0A00486F5E
:101010006D6520466173743A20000000A040000016
:10102000A04000000040290A003E3E3E20686F6D4F
:1010300065617869732800206C696D697465642046
:10104000746F2000204D6178200053544F5050455C
:10105000442E20005072696E7465722073746F7034
:101060007065642064756520746F206572726F729C
:10107000732E2046697820746865206572726F72DD
:1010800020616E6420757365204D39393920746F85
:1010900020726573746172742E202854656D7065BA
:1010A0007261747572652069732072657365742E40
:1010B00020536574206974206166746572207265BE
:1010C0007374617274696E67290A00206572726FA9
:1010D00072202D2072657374617274207769746850
:1010E000204D3939390A00424C546F75636800212C
:1010F000212053544F502063616C6C6564206265FD
:101100006361757365206F66200050726F62653A87
:101110003A70726F62655F73706563696669635F79
:10112000616374696F6E005261697365205A20743F
:101130006F2000206E6F5F72657475726E3D006483
:1011400065706C6F793D00203A2050726F62653A8D
:101150003A7365745F6465706C6F7965640A00202A
:101160002063757272656E745F706F736974696FF6
:101170006E3D00206D61783A00206D696E3A004145
:1011800078697320000000A4430000AA4300009582
:10119000430000C0C00000A8C10000A0C053657497
:1011A00074696E67732053617665642100290A00B3
:1011B0002062797465733B20637263200053657409
:1011C00074696E67732053746F72656420280045DC
:1011D000525200454550524F4D20496E6974696125
:1011E0006C697A65640A0048617264636F6465645F
:1011F0002044656661756C742053657474696E670C
:1012000073204C6F616465640020286D6D29002097
:101210003B204C6576656C696E67200020204D345C
:1012200032302053004175746F20426564204C6554
:1012300076656C696E670020460020480020204DCE
:101240003134352053004D6174657269616C2068DA
:10125000656174757020706172616D65746572731B
:1012600000526574726163742028533C6C656E672C
:1012700074683E20463C66656564726174653E2014
:101280005A3C6C6966743E29005265636F766572DC
:101290002028533C6C656E6774683E20463C66654A
:1012A0006564726174653E29004175746F2D5265E5
:1012B00074726163742028533C656E61626C653E94
:1012C000290020204D39303600205430204500536D
:1012D00074657070657220647269766572206375DA
:1012E0007272656E740020204D35363920533100FE
:1012F00054302045004472697665722073746570BD
:1013000070696E67206D6F64650020204D39303044
:10131000204B004C696E65617220416476616E639A
:10132000650020580020530020204D3432352046DF
:10133000004261636B6C61736820636F6D70656EF2
:10134000736174696F6E00203B2053656E736F721A
:10135000200020204D34313220530046696C616DED
:10136000656E742072756E6F75742073656E736F21
:101370007200204A0020204732392057204900209F
:10138000204D3134392043203B20556E6974732041
:10139000696E2043656C736975730A0054656D70DE
:1013A0006572617475726520556E697473002020D2
:1013B000473231203B004C696E65617220556E6981
:1013C000747300454550524F4D20646174617369D8
:1013D0007A65206572726F722E0A004572723A2029
:1013E000454550524F4D2043524300202863616CC5
:1013F00063756C6174656429210A0020213D200019
:10140000454550524F4D20435243206D69736D61E5
:10141000746368202D202873746F7265642920001E
:10142000454550524F4D20436F72727570740A00DB
:101430002053697A653A2000496E6465783A200045
:1014400053746F7265642073657474696E6773207A
:1014500072657472696576656400290A0020627994
:101460007465733B2063726320002073746F726530
:10147000642073657474696E677320726574726931
:10148000657665642028000000FA430000FA4300F6
:1014900000C841000020420000C8420000C84200CD
:1014A00000FA430080DB43A00F0000A00F0000649F
:1014B00000000028230000204D61726C696E3D56CB
:1014C0003931290A00454550524F4D2076657273D7
:1014D000696F6E206D69736D61746368202845457E
:1014E00050524F4D3D0024F4D43050C38D20C3A240
:1014F0004117828B7011127A900D826CDA0AA86102
:10150000E108C7586607615142061F4B5E05C14599
:10151000A6041B411204093D970372393103413679
:10152000DB0266339202D4305302812E1D02642CFA
:10153000EE01762AC501B128A101102781018F256E
:1015400064012B244A01E1223401AD2120018D20C8
:101550000C01811FFC00851EED00981DDF00B91CE9
:10156000D200E71BC700201BBB00651AB200B319ED
:10157000A9000A19A0006A189800D2179200401713
:101580008A00B616840032167E00B41579003B1529
:101590007400C7146F0058146A00EE1366008813B5
:1015A000620026135E00C8125B006D12570016120F
:1015B0005500C111510070114E0022114C00D6107F
:1015C00049008D1046004710450002104200C00F30
:1015D0004000800F3E00420F3C00060F3A00CC0E48
:1015E0003900930E37005C0E3500270E3400F30DE2
:1015F0003200C10D3100900D2F00610D2F00320D12
:101600002D00050D2C00D90C2A00AF0C2A00850CEA
:1016100028005D0C2800350C27000E0C2500E90B76
:101620002500C40B2400A00B23007D0B22005B0BC4
:1016300021003A0B2100190B2000F90A1F00DA0AD9
:101640001F00BB0A1E009D0A1D00800A1C00640AC0
:101650001C00480A1C002C0A1B00110A1A00F7097A
:101660001A00DD091900C4091900AB091800930913
:1016700018007B091700640917004D091700360987
:101680001600200915000B091500F6081500E108E1
:101690001500CC081400B8081400A4081300910821
:1016A00013007E0813006B08120059081200470847
:1016B0001200350812002308110012081100010859
:1016C0001000F1071100E0071000D0071000C0075C
:1016D0000F00B1071000A1070F0092070F0083074A
:1016E0000F0074070E0066070E0058070E004A0729
:1016F0000E003C070E002E070D0021070D001407F9
:101700000D0007070D00FA060D00ED060C00E106BE
:101710000D00D4060C00C8060C00BC060C00B00678
:101720000B00A5060C0099060B008E060B00830625
:101730000B0078060B006D060B0062060B005706C7
:101740000A004D060A0043060B0038060A002E0662
:101750000A00240609001B060A0011060A000706F3
:101760000900FE050A00F4050900EB050900E20581
:101770000900D9050900D0050900C7050800BF0503
:101780000900B6050900AD050800A50508009D057E
:101790000800950509008C050800840508007C05F3
:1017A0000700750508006D050800650507005E0562
:1017B0000800560507004F050800470507004005CB
:1017C000070039050700320507002B05070024052F
:1017D00007001D050700160507000F05060009058F
:1017E000070002050600FC040700F5040600EF04EC
:1017F0000700E8040600E2040600DC040600D60444
:101800000600D0040700C9040500C4040600BE0495
:101810000600B8040600B2040600AC040600A604E4
:101820000500A10406009B04050096040600900430
:1018300005008B04060085040500800405007B0478
:10184000050076040600700405006B0405006604BC
:101850000500610405005C040500570405005204FE
:1018600005004D04050048040400440405003F043D
:1018700005003A04040036040500310405002C0478
:10188000040028040500230404001F0405001A04B2
:10189000040016040400120405000D0404000904E9
:1018A00004000504040001040500FC030400F8031F
:1018B0000400F4030400F0030400EC030400E80354
:1018C0000400E4030400E0030400DC030400D80384
:1018D0000400D4030300D1030400CD030400C903B2
:1018E0000400C50304000000000000000000000028
:1018F0000000000000000000000000000000D10314
:101900006D6403570D0347C6023B8B023259022B0D
:101910002E0225090221E8011CCC011AB201179BF5
:10192000011487011374011163010F54010E460164
:101930000D39010D2C010B21010A17010A0D0109B6
:10194000040108FC0008F40007ED0007E60007DFCB
:101950000006D90006D30005CE0006C80005C30066
:1019600004BF0005BA0004B60004B20004AE0004CF
:10197000AA0004A60003A300049F00039C0003998F
:1019800000039600039300029100038E00028C0076
:1019900003890002870003840002820002800002A3
:1019A0007E00027C00027A00027800027600017557
:1019B00000027300027100017000026E00016D00F0
:1019C000026B00016A000268000167000265000105
:1019D0006400016300016200026000015F00015EBB
:1019E00000015D00015C00015B00015A000159002B
:1019F0000158000157000156000155000154000133
:101A00005300015200015100005100015000014FEC
:101A100000014E00014D00004D00014C00014B0043
:101A2000014A00004A000149000148000048000145
:101A30004700014600004600014500004500014402
:101A40000001430000430001420000420001410048
:101A5000004100014000004000013F00003F000144
:101A60003E00003E00013D00003D00013C00003C06
:101A700000013B00003B00013A00003A0001390040
:101A8000003900003900013800003800013700003B
:101A900037000037000136000036000036000135FF
:101AA0000000350001340000340000340001330030
:101AB0000033000033000132000032000032000128
:101AC00031000031000031000031000130000030F1
:101AD00000003000012F00002F00002F00002F0019
:101AE000012E00002E00002E00012D00002D000010
:101AF0002D00002D00012C00002C00002C00002CDB
:101B000000012B00002B00002B00002B00012A00FD
:101B1000002A00002A00002A00002A0001290000F3
:101B200029000029000029000128000028000028C1
:101B300000002800002800012700002700002700DF
:101B400000270000270001260000260000260000D4
:101B500026000026000026000125000025000025A3
:101B600000002500002500002500012400002400BD
:101B700000240000240000240000240001230000B1
:101B80002300002300002300002300002300012283
:101B9000000022000022000022000022000022009B
:101BA000002200012100002100002100002100008E
:101BB0002100002100002100012000002000002061
:101BC0000000200000200000200000200000200075
:101BD000011F00001F00001F00001F00001F000069
:101BE0001F00001F000020436F756E7420583A00DC
:101BF0004572723A204D494E54454D50004D494E64
:101C000054454D502074726967676572656400447D
:101C1000455441494C00434F4D4D554E4943415465
:101C2000494F4E0044525952554E004552524F5260
:101C30005300494E464F004543484F005374616E70
:101C40006461726420446576696174696F6E3A20DC
:101C5000002052616E67653A2000204D61783A207D
:101C600000204D696E3A2000205369676D613A206B
:101C7000004D65616E3A200020440020204D323036
:101C800030205300202844697361626C6564293AEE
:101C90000046696C616D656E742073657474696E5D
:101CA00067730020204D3230312058004D6178207C
:101CB000416363656C65726174696F6E2028756E2F
:101CC0006974732F7332290020204D32303320582D
:101CD000004D6178206665656472617465732028C3
:101CE000756E6974732F73290020520020204D32C5
:101CF0003034205000416363656C65726174696FB4
:101D00006E2028756E6974732F7332292028503C19
:101D10007072696E742D616363656C3E20523C7213
:101D20006574726163742D616363656C3E20543C1D
:101D300074726176656C2D616363656C3E29002069
:101D4000540020530020204D3230352042004164A1
:101D500076616E6365642028423C6D696E5F7365D1
:101D6000676D656E745F74696D655F75733E205352
:101D70003C6D696E5F66656564726174653E205492
:101D80003C6D696E5F74726176656C5F66656564F3
:101D9000726174653E20583C6D61785F6A65726B54
:101DA0003E20593C6D61785F6A65726B3E205A3CFB
:101DB0006D61785F6A65726B3E20453C6D61785F4E
:101DC0006A65726B3E2900205500204C0020204D92
:101DD000323831205000536572766F20416E676C47
:101DE00065730020440020490020204D333034200A
:101DF000500042656420504944003A200020536559
:101E000072766F2000206F7574206F662072616E8D
:101E100067650A00536572766F20002E0A0020283D
:101E2000302D313029002076616C7565206F757416
:101E3000206F662072616E676500416476616E6333
:101E400065204B3D004E6F7A7A6C6520746F6F2071
:101E5000436F6C640A00556E6B6E6F776E20466937
:101E60006C616D656E742050757267652050617489
:101E70007465726E0A00556E6B6E6F776E204669E0
:101E80006C616D656E742050757267652050617469
:101E90007465726E0A00556E6B6E6F776E204669C0
:101EA0006C616D656E742050757267652050617449
:101EB0007465726E0A00556E6B6E6F776E204669A0
:101EC0006C616D656E742050757267652050617429
:101ED0007465726E0A004D31313720507572676932
:101EE0006E6720504C412E2E2E0A4739310A4D384C
:101EF000330A4731205931302045302E38350A47D2
:101F000031205831302045302E38350A473120599C
:101F100031302045302E38350A473120582D3130A8
:101F20002045302E38350A47312059313020453090
:101F30002E38350A4731205831302045302E38357B
:101F40000A4731205931302045302E38350A473183
:101F500020582D31302045302E38350A4731205950
:101F600031302045302E38350A4731205831302065
:101F700045302E38350A4731205931302045302E32
:101F800038350A473120582D31302045302E38352C
:101F90000A4731205931302045302E38350A473133
:101FA000205831302045302E38350A4731205931FC
:101FB000302045302E38350A473120582D31302019
:101FC00045302E38350A4731205931302045302EE2
:101FD00038350A4731205831302045302E38350AFF
:101FE0004731205931302045302E38350A473930B5
:101FF0000A4D3832004D3131372050757267696EA5
:102000006720504554672E2E2E0A4739310A4D3825
:10201000330A4731205931302045312E310A4731BA
:1020200020593230205831302045322E320A473183
:10203000582D31302045312E310A47312059323068
:10204000205831302045322E320A4731582D313058
:102050002045312E310A4731205932302058313055
:102060002045322E320A4731582D31302045312E4D
:10207000310A473120593230205831302045322E34
:10208000320A4739300A4D3832004D31313720504D
:10209000757267696E67205450552E2E2E0A473987
:1020A000310A4D38330A4731205831302059313008
:1020B0002045312E370A473120582D3130205931F3
:1020C000302045312E370A473120583130205931E0
:1020D000302045312E370A473120582D31302059D4
:1020E00031302045312E370A4731205831302059C0
:1020F00031302045312E370A473120582D313020DC
:102100005931302045312E370A473120583130209F
:102110005931302045312E370A473120582D313082
:10212000205931302045312E370A4731205831307F
:10213000205931302045312E370A4739300A4D3881
:1021400032004D3131372050757267696E6720411A
:1021500042532E2E2E0A4739310A4D38330A473161
:10216000205931302045312E370A4731205931303E
:10217000205831302045312E370A4731205931302F
:102180002045312E370A47312059313020582D3122
:10219000302045312E370A47312059313020453122
:1021A0002E370A47312059313020583130204531FF
:1021B0002E370A4731205931302045312E370A4712
:1021C000312059313020582D31302045312E370AF9
:1021D0004731205931302045312E370A47312059B7
:1021E0003130205831302045312E370A4739300AF6
:1021F0004D3832004D3131372050757267696E6746
:102200002E2E2E0A4739310A4D38330A47312059CC
:10221000313030204531320A4739300A4D383200EA
:10222000203B0020550020204D363033204C004606
:10223000696C616D656E74206C6F61642F756E6C76
:102240006F616400202E68737472743A2000202E2F
:1022500068656E643A20002063686F707065722054
:102260002E746F66663A2000202E68737472743A7A
:102270002000202E68656E643A20002063686F702D
:10228000706572202E746F66663A2000202E687387
:102290007472743A2000202E68656E643A20002023
:1022A00063686F70706572202E746F66663A2000E6
:1022B000202E68737472743A2000202E68656E6454
:1022C0003A20002063686F70706572202E746F660C
:1022D000663A20003F53206F7574206F662072614C
:1022E0006E67652028312E2E38290A003F50206F56
:1022F0007574206F662072616E676520282D332EFD
:102300002E3132290A003F4F206F7574206F6620EE
:1023100072616E67652028312E2E3135290A003B07
:102320002000536C6565702E2E2E004D657368205D
:10233000706F696E74206F7574206F662072616EA5
:1023400067650A004E6F204D6F76652E00456E64FE
:102350002066696C65206C6973740A004265676960
:102360006E2066696C65206C6973740A004E6F207C
:102370006D656469610A00286E6F2066696C652965
:102380000043757272656E742066696C653A200050
:102390002E0A0044656C6574696F6E206661696C15
:1023A00065642C2046696C653A200046696C65209E
:1023B00064656C657465643A005072696E7420746B
:1023C000696D653A20006F6B004C696E653A2000BC
:1023D0006F666600371C321C2B1C241C161C0F1C3D
:1023E00044454255473A004D3131332053004C7536
:1023F0006C7A426F7420576F726B686F72736520CE
:1024000032204F46462E0020732E0A00496E61632B
:102410007469766974792074696D656F75742000CC
:10242000432E0A003F49646C652054696D656F75E1
:102430007420285429207472696767657220746556
:102440006D70657261747572652073686F756C6408
:10245000206265206F76657220002F2F004D313489
:102460003520533C696E6465783E206F7574206F2B
:10247000662072616E67652028302D31290A00417F
:102480006363656C65726174696F6E00466565644F
:1024900072617465005741524E494E4721204C6F7E
:1024A00077205A204A65726B206D6179206C6561D6
:1024B0006420746F20756E77616E7465642070613E
:1024C000757365732E0A0020204D61783A20002034
:1024D0000020204D696E3A2000203B200020204D36
:1024E000323131205300536F667420656E6473740B
:1024F0006F707300250A0046523A0020466C6F77D1
:102500003A2000424C546F75636820616E676C65B9
:10251000732063616E2774206265206368616E6753
:1025200065642E0A00206F7574206F662072616EDC
:1025300067650A00536572766F200050726F62659E
:10254000204F6666736574205A0050726F62652072
:102550004F6666736574205A0064697300656E0087
:1025600043290061626C656420286D696E20746582
:102570006D702000436F6C642065787472756465BB
:1025800073206172652000424C546F756368204867
:1025900053206D6F646520004F4646004F4E00206B
:1025A0003B20486F73742068616E646C696E6720AD
:1025B0000046696C616D656E742072756E6F75741E
:1025C00020004D34323120696E636F72726563741E
:1025D00020706172616D65746572207573616765E5
:1025E0000A004D65736820706F696E74206F757492
:1025F000206F662072616E67650A00454550524F34
:102600004D204F4B0A00290A0020746F20003F5ACA
:10261000206F7574206F662072616E6765202800D8
:10262000290A0020746F20003F59206F7574206FB5
:10263000662072616E6765202800290A0020746F89
:1026400020003F58206F7574206F662072616E679E
:102650006520280020647269766572206375727245
:10266000656E743A20002064726976657220637525
:102670007272656E743A2000206472697665722009
:1026800063757272656E743A2000206472697665B3
:10269000722063757272656E743A20007370726591
:1026A00061644379636C6500737465616C7468433D
:1026B000686F700020647269766572206D6F646562
:1026C0003A09007370726561644379636C650073E5
:1026D0007465616C746843686F7000206472697619
:1026E0006572206D6F64653A09007370726561648C
:1026F0004379636C6500737465616C746843686FDB
:10270000700020647269766572206D6F64653A09A5
:10271000007370726561644379636C6500737465FE
:10272000616C746843686F700020647269766572CA
:10273000206D6F64653A09002074656D7065726183
:1027400074757265207072657761726E207472693B
:102750006767657265643A20002074656D70657204
:102760006174757265207072657761726E20747223
:10277000696767657265643A20002074656D7065ED
:10278000726174757265207072657761726E207403
:1027900072696767657265643A20002074656D70C0
:1027A00065726174757265207072657761726E20F2
:1027B0007472696767657265643A2000207072659B
:1027C0007761726E20666C616720636C656172650B
:1027D000640A00207072657761726E20666C6167B2
:1027E00020636C65617265640A00207072657761B0
:1027F000726E20666C616720636C65617265640A45
:1028000000207072657761726E20666C616720636C
:102810006C65617265640A00446F6E652070726950
:102820006E74696E672066696C650A004D37370003
:102830004D33310020204D323036205800486F6D26
:1028400065206F6666736574004F666673657473A2
:10285000204170706C696564004D494E2F4D4158A0
:1028600020546F6F2046617200546F6F2066617252
:102870002066726F6D204D494E2F4D41580A00441D
:102880006966663A2020200046726F6D5374703A74
:1028900000537465707065723A00556E4C657665CC
:1028A0006C3A004C6576656C65643A005261773A23
:1028B00020202020000A4C6F676963616C3A004356
:1028C0006F756E7420453A004361703A00434F4E75
:1028D0004649475F4558504F5254004D454154506A
:1028E00041434B00434F4F4C45525F54454D50457B
:1028F000524154555245004348414D4245525F5460
:10290000454D50455241545552450045505F424156
:102910004259535445500042414259535445505036
:10292000494E470041524353004D4F54494F4E5F6B
:102930004D4F44455300544845524D414C5F505211
:102940004F54454354494F4E00455854454E444515
:10295000445F4D323000435553544F4D5F4649520A
:102960004D574152455F55504C4F4144004C464EE7
:102970005F5752495445004C4F4E475F46494C45BE
:102980004E414D45004155544F5245504F52545FB2
:1029900053445F5354415455530053445F57524975
:1029A000544500524550454154004D554C54495FE3
:1029B000564F4C554D4500534443415244005052EC
:1029C0004F4D50545F535550504F525400484F5341
:1029D000545F414354494F4E5F434F4D4D414E4428
:1029E0005300454D455247454E43595F5041525360
:1029F000455200434153455F4C494748545F42525A
:102A0000494748544E45535300544F47474C455F40
:102A10004C494748545300534F4654574152455F21
:102A2000504F574552004255494C445F5045524320
:102A3000454E54004C4556454C494E475F44415421
:102A400041005A5F50524F42450052554E4F555427
:102A5000004155544F4C4556454C005052494E5438
:102A60005F4A4F420050524F475245535300415521
:102A7000544F5245504F52545F54454D50004155AC
:102A8000544F5245504F52545F504F5300564F4C85
:102A9000554D455452494300454550524F4D004213
:102AA000494E4152595F46494C455F5452414E533D
:102AB0004645520053455249414C5F584F4E5F586E
:102AC0004F4646004649524D574152455F4E414D93
:102AD000453A4D61726C696E20204649524D57410E
:102AE00052455F56455253494F4E3A322E312E339E
:102AF0002E302E34382045585452554445525F5498
:102B00005950453A47616C6178792053657269651F
:102B1000732050524F42455F545950453A424C54ED
:102B20006F7563684245445F545950453A20535489
:102B3000414E4441524420284A756C2031352032A0
:102B40003032352031343A34353A33332920534F3B
:102B5000555243455F434F44455F55524C3A676970
:102B6000746875622E636F6D2F4D61726C696E466D
:102B700069726D776172652F4D61726C696E20505C
:102B8000524F544F434F4C5F56455253494F4E3A64
:102B9000312E30204D414348494E455F54595045F0
:102BA0003A4C756C7A426F7420576F726B686F7213
:102BB00073652032204B494E454D41544943533AA9
:102BC00043617274657369616E204558545255446F
:102BD00045525F434F554E543A3120555549443A7A
:102BE00039653734356164372D376531382D3434E4
:102BF00035652D383738382D3730336565316535D3
:102C0000663736340070726F6D70745F006265678E
:102C1000696E004D302053746F70004D3120537435
:102C20006F7000436C69636B20746F20526573751D
:102C30006D652E2E2E0047322F47332062616420AF
:102C4000706172616D65746572730A005A2050720A
:102C50006F626520506173742042656400205A3AA7
:102C60000020593A0042656420583A00203B002079
:102C7000204D3835312058005A2D50726F62652032
:102C80004F666673657400526573756D696E672073
:102C900053440043616E6E6F74206F70656E2073D5
:102CA000756264697220002569730025696D2025AD
:102CB0006973002569682025696D202569730025E1
:102CC0006964202569682025696D202569730025C0
:102CD000697920256964202569682025696D20258A
:102CE0006973000A53746174733A2046696C616DAC
:102CF000656E7420757365643A20002C204C6F6EED
:102D000067657374206A6F623A2000546F74616C57
:102D10002074696D653A200053746174733A200021
:102D20002C204661696C65643A20002C2046696E4F
:102D300069736865643A20005072696E74733A2052
:102D40000053746174733A200020573A0020666182
:102D5000696C6564212042616420686561746572F4
:102D60002069640A00504944204175746F74756E7F
:102D7000650023646566696E652044454641554C8F
:102D8000545F0000626564004B6420004B692000C2
:102D90004B7020005049442074756E696E67206442
:102DA0006F6E65002066696E6973686564212050E6
:102DB000757420746865206C617374204B702C20CE
:102DC0004B6920616E64204B6420636F6E73746185
:102DD0006E74732066726F6D2062656C6F77206908
:102DE0006E746F20436F6E66696775726174696F88
:102DF0006E2E680A00504944204175746F74756ED8
:102E00006500206661696C6564212074696D656F79
:102E100075740A00504944204175746F74756E656D
:102E2000004175746F74756E65206661696C6564C8
:102E3000212054696D656F75742E00206661696C80
:102E40006564212054656D706572617475726520CA
:102E5000746F6F20686967680A00504944204175A3
:102E6000746F74756E6500504944204379636C65D6
:102E7000730025532025692F256900204B643A20D3
:102E800000204B693A2000204B703A2000204E6F02
:102E9000206F76657273686F6F740A002054753AFC
:102EA0002000204B753A2000206D61783A200020E8
:102EB0006D696E3A200020643A20002062696173D7
:102EC0003A20002073746172740A00504944204112
:102ED00075746F74756E65004175746F74756E6589
:102EE000206661696C6564212054656D706572614E
:102EF0007475726520746F6F20686967682E002092
:102F00006661696C6564212054656D7065726174D9
:102F100075726520746F6F20686967680A00504990
:102F200044204175746F74756E65005049442041AA
:102F300075746F74756E6500706F7765725F66612A
:102F40006E3235352000706F7765725F66616E3066
:102F500020003D3D3D3D3D0A004D50435F6175748D
:102F60006F74756E65723A3A6D6561737572655FFF
:102F70007472616E73666572282920436F6D706C80
:102F8000657465640A0054656D706572617475726C
:102F900065206572726F720A0020743320002074FD
:102FA00032200074312000203A200073616D706C73
:102FB00065200073616D706C655F64697374616E28
:102FC0006365200073616D706C655F636F756E740F
:102FD000200074315F74696D6520003D3D3D3D3DCD
:102FE0000A004D50435F6175746F74756E65723A77
:102FF0003A6D6561737572655F6865617475702897
:103000002920436F6D706C657465640A00616D62A0
:1030100069656E745F74656D7020003D3D3D3D3D9A
:103020000A004D50435F6175746F74756E65723A36
:103030003A6D6561737572655F616D6269656E7425
:103040005F74656D70282920436F6D706C657465C1
:10305000640A004D50435F414D4249454E545F580C
:103060004645525F434F4546465F46414E323535F1
:1030700020004D50435F414D4249454E545F5846F4
:1030800045525F434F45464620004D50435F5345F0
:103090004E534F525F524553504F4E534956454E33
:1030A00045535320004D50435F424C4F434B5F48C4
:1030B0004541545F434150414349545920004D50CC
:1030C00043204175746F74756E652066696E69730F
:1030D00068656421205075742074686520636F6E84
:1030E0007374616E74732062656C6F7720696E749F
:1030F0006F20436F6E66696775726174696F6E2EBB
:10310000680A00626C6F636B5F726573706F6E73D9
:103110006976656E65737320006173796D705F7495
:10312000656D702000526566696E696E6720657313
:1031300074696D6174657320666F723A0A00546534
:103140007374696E672068656174206C6F737300B7
:103150004D6561737572696E6720616D6269656E38
:103160007420686561746C6F7373206174200062F1
:103170006C6F636B5F726573706F6E736976656E8B
:1031800065737320006173796D705F74656D702075
:103190000048656174696E6720746F203E3230307C
:1031A000430048656174696E6720746F206F7665AF
:1031B0007220323030430A00436F6F6C696E672EA5
:1031C0002E2E00436F6F6C696E6720746F20616DE7
:1031D0006269656E740A004D5043204175746F74C6
:1031E000756E6520737461727420666F722045007D
:1031F0004D5043204175746F74756E650020480012
:103200002046002041002052002043002050002092
:10321000204D3330362045004D6F64656C20707250
:10322000656469637469766520636F6E74726F6C30
:103230000020540020530020450020204D38362027
:103240004200486F74656E642049646C652054695F
:103250006D656F7574004572723A2075746638201A
:10326000666F6E74206E6F7420696E697469616C2C
:10327000697A65642E004572723A2075746638204A
:10328000666F6E74206E6F7420696E697469616C0C
:10329000697A65642E004572723A2075746638202A
:1032A000666F6E74206E6F7420696E697469616CEC
:1032B000697A65642E006D61726C696E66772E6F37
:1032C000726700322E312E332E302E3438001FFF1D
:1032D000FFFFFFFFFF600000000001FF4000000053
:1032E0000000FF8000000000007F83CF00000C3052
:1032F0003F87FF80000C301F867980000C000F8C08
:1033000030C7838C30E78C30CFC7CC31F38C30DCC6
:10331000ECEC33B98C30D86C6C33198C30D06C0C2D
:1033200033198C30D86C0C33198C30DC6C0E3B1993
:103330008C30CF7C079F198C30C77C038F194000DD
:103340000000000002600000000000061FFFFFFFF9
:10335000FFFFF8200020003A00200020003A003A49
:1033600000000C0F00FE07022503BB017FFE08FED4
:1033700008FE05080806000040F0C8888898781004
:10338000050808060000C0F88888888888F80505C0
:10339000050600012030F83020050808060000204E
:1033A00070F820202020E00509090600FF2070A801
:1033B000A8B888887020070505070001D86C366C0E
:1033C000D80509090600FFF8A88888888888A8F821
:1033D000050A0A0600FE205050505088A8A88870A0
:1033E00003030306000340A040FFFFFFFFFFFFFFB2
:1033F000FFFFFFFFFFFFFFFFFFFFFFFFFFFFFF00DC
:1034000000000605FF01070706020080808080801B
:103410000080030303060105A0A0A0050606060020
:103420000050F85050F8500509090600FF2070A818
:10343000A07028A87020050707060000C8C8102043
:1034400040989805070706000040A0A040A8906893
:103450000103030602058080800309090601FF209D
:1034600040408080804040200309090601FF8040E1
:103470004020202040408005070706000020A8705B
:103480002070A8200505050600012020F820200254
:1034900003030601FFC04080050101060003F80296
:1034A0000202060100C0C005070706000008101050
:1034B00020404080050707060000708898A8C8884B
:1034C0007003070706010040C040404040E0050788
:1034D00007060000708808102040F805070706005E
:1034E00000F8081030088870050707060000103043
:1034F0005090F81010050707060000F880F0080843
:103500008870050707060000304080F08888700545
:103510000707060000F808101020202005070706FE
:1035200000007088887088887005070706000070A2
:10353000888878081060020505060100C0C000C038
:10354000C00206060601FFC0C000C040800305059A
:103550000601012040804020050303060002F80018
:10356000F803050506010180402040800507070695
:10357000000070881020200020050707060000705A
:1035800088B8A8B88070050707060000708888F81A
:10359000888888050707060000F04848704848F00A
:1035A000050707060000708880808088700507077F
:1035B000060000F04848484848F0050707060000A4
:1035C000F88080F08080F8050707060000F880800A
:1035D000F08080800507070600007088808098884A
:1035E00070050707060000888888F8888888030720
:1035F00007060100E04040404040E00507070600A4
:103600000038101010109060050707060000889021
:10361000A0C0A090880507070600008080808080F9
:1036200080F805070706000088D8A88888888805DC
:1036300007070600008888C8A89888880507070635
:10364000000070888888888870050707060000F0E9
:103650008888F080808005070706000070888888C9
:10366000A89068050707060000F08888F0A09088F9
:103670000507070600007088807008887005070736
:10368000060000F820202020202005070706000063
:1036900088888888888870050707060000888888D9
:1036A0008850502005070706000088888888A8A849
:1036B00050050707060000888850205088880507B5
:1036C00007060000888850202020200507070600F4
:1036D00000F80810204080F80309090601FFE08087
:1036E000808080808080E0050707060000804040E1
:1036F000201010080309090601FFE02020202020E7
:103700002020E0050303060005205088050101067E
:1037100000FEF803030306010580402005050506A9
:10372000000070087888780507070600008080F0A0
:10373000888888F00505050600007080808870057F
:1037400007070600000808788888887805050506B8
:1037500000007088F08070050707060000304840C0
:10376000E04040400507070600FE7088888878081A
:10377000700507070600008080F0888888880307A6
:10378000070601004000C0404040E004090906016E
:10379000FE100030101010109060050707060000A2
:1037A00080808890E09088030707060100C04040B1
:1037B000404040E0050505060000D0A8A8A8A805DF
:1037C0000505060000B0C8888888050505060000C4
:1037D00070888888700507070600FEF0888888F0E2
:1037E00080800507070600FE788888887808080525
:1037F0000505060000B0C8808080050505060000AC
:1038000078807008F00507070600002020F82020C7
:1038100020180505050600008888889868050505B4
:103820000600008888885020050505060000888865
:10383000A8A85005050506000088502050880507F7
:10384000070600FE88888850204080050505060090
:1038500000F8102040F80309090601FF204040400D
:1038600080404040200109090602FF80808080805E
:10387000808080800309090601FF8040404020408D
:1038800040408005030306000248A890FF554E4CB7
:103890004F41442046494C414D454E54004C4F4108
:1038A000442046494C414D454E540046494C414DFB
:1038B000454E54204348414E47450042656400450B
:1038C0006E636C6F7375726500200020002000200D
:1038D0000020002500657272001FE02010201020DB
:1038E00010102010202010201030300840048003D9
:1038F000001FE03FF03FF03FF01FE01FE03FF03FD0
:10390000F03FF00FC0078003003FFFF83E00F8399A
:10391000F03831E01831E01821E1E820F3E8207FA9
:10392000E82077E828EE282FDC082FFC082F9E08D7
:103930002F0F08300F18300F18381F383E00F83F8F
:10394000FFF83FFFF83E00F8383F38307E18307CF3
:1039500018287C082C38082F39C82FFFE82FC7E813
:103960002FFFE82739E8203868207C28307C183081
:10397000FC1839F8383E00F83FFFF83FFFF83E00EA
:10398000F8380F38341FD8361F982F1F082F9E087D
:103990002FFC082FDC0827EFC82077E8207FE820DD
:1039A000F3E821F1E833F0D837F05839E0383E0039
:1039B000F83FFFF83FFFF83E80F83980383781D86C
:1039C00037C3D827C7E823C7F821FF88206C082011
:1039D0006C08206C0823FF083FC7882FC7C83787AB
:1039E000D83703D83803383E02F83FFFF8022200E8
:1039F000044400044400022200011100FFFFCE40F5
:103A0000A8A42111101FFFF808040424020273FF68
:103A1000FFFFFFCE4020242010101FFFF8080404F1
:103A200024020273FFFFFFFFC0400020200010109F
:103A3000000808000404000203FFFF0222000444FF
:103A400000044400022200011100FFFFC04088A0D2
:103A500021111012220808000404000203FFFF6372
:103A6000616E63656C005072696E742041626F72A2
:103A70007465640055492041626F72746564004D3D
:103A8000323520500A4D323400526573756D650031
:103A900055492050617573650050617573696E6793
:103AA0002E2E2E00726573756D65005072696E74EE
:103AB00020526573756D6564004D3234006F6F6F11
:103AC00000000047414D45204F56455200107CFEF6
:103AD000FEFE4440248000003180000024804440E9
:103AE00004000E000E007FC0FFE0FFE0FFE0FFE0FB
:103AF0001FC07FF0DDD8FFF87FF006000F001F80A9
:103B000036C03FC009001680294006000F001F8004
:103B100036C03FC0168020401080104008801FC073
:103B200037607FF05FD050500D80104048905FD0DC
:103B300077707FF01FC0104020200F007FE0FFF063
:103B4000E670FFF0198036C0C0300F007FE0FFF054
:103B5000E670FFF0198036C0198000FE0003FF8078
:103B600007C7C00701E00000E00000F0000070049B
:103B700000700E00701F00703F80F00E00E00F011B
:103B8000E007C7C003FF8000FE0000FE0003FF80C7
:103B900007C7C00F01E00E00E03F80F01F00700E6D
:103BA00000700400700000700000F00000E00701E9
:103BB000E007C7C003FF8000FE000E000E000E00ED
:103BC0000E000E000E000E000E007FC03F801F0092
:103BD0000E00040004000E001F003F807FC00E0096
:103BE0000E000E000E000E000E000E000E00FFFF75
:103BF000FF7F80FFC0FFC0FFC07F807F80FFC0FFCE
:103C0000C0FFC03F001E000C0050726F6265205A5A
:103C1000204F6666736574004D3530300A4D313182
:103C200037205A204F666673657420536176656449
:103C3000004C6F6164206D6D00556E6C6F61642087
:103C40006D6D0046696C2E204469612E004F6666DA
:103C5000004F6E004520696E206D6D5E330041643B
:103C600076616E6365204B004D3330332055312033
:103C700045256920532569004D33303620540041D5
:103C800075746F74756E65202A2050494400504940
:103C9000442D44202A005049442D49202A005049EF
:103CA000442D50202A004D5043204175746F747587
:103CB0006E650046616E20636F6566662E202A0081
:103CC000416D6269656E7420436F2E202A00536532
:103CD0006E736F7220526573702E202A00486561E2
:103CE00074204361702E202A00506F776572202A5D
:103CF0000020082046616374002008204D61780090
:103D00002008204D696E004D696E20547261766501
:103D10006C205370656564004D696E2056656C6F4C
:103D200063697479004D6178204020537065656443
:103D3000004D6178204520416363656C004D6178DA
:103D4000204020416363656C0054726176656C208D
:103D5000416363656C0052657472616374204163F2
:103D600063656C00416363656C004D6178204020A1
:103D70004A65726B004D3530300A4D313137205A6B
:103D8000204F6666736574205361766564005A201F
:103D900050726F62652057697A6172640050726F69
:103DA0006265205A204F66667365740050726F62B8
:103DB000652059204F66667365740050726F6265A6
:103DC0002058204F666673657400402073746570D8
:103DD000732F6D6D00416476616E63656420536579
:103DE0007474696E6773003F0043616E63656C00B5
:103DF000496E6974004D34323800496E69746961E6
:103E00006C697A6520454550524F4D0046696C619A
:103E10006D656E740054656D706572617475726560
:103E200000544D43204472697665727300426163A9
:103E30006B6C6173680053746570732F6D6D005007
:103E4000726F6265204F666673657473004A6572AF
:103E50006B00416363656C65726174696F6E004DE0
:103E6000617820537065656420286D6D2F7329007B
:103E700053657420486F6D65204F66667365747373
:103E800000436F6E66696775726174696F6E005387
:103E90006D6F6F7468696E67004000436F72726582
:103EA0006374696F6E004D61696E204D656E7500BB
:103EB0003F0043616E63656C204F626A6563740006
:103EC0004E4F005945530043616E63656C204F624D
:103ED0006A656374207B004D61696E204D656E7567
:103EE000004265642049646C652054656D70004E25
:103EF0006F7A7A6C652049646C652054656D70003A
:103F000054656D70657261747572650054696D6594
:103F10006F75740044697361626C652054696D65E6
:103F20006F7574004D3837004261636B00486967F4
:103F3000682053706565640053572D4D6F646500AC
:103F400053746F77004465706C6F790053656C66CD
:103F50002D5465737400526573657400556E7265F7
:103F60007472616374205600556E726574722E20EF
:103F70006D6D00486F70206D6D00526574726163E5
:103F80007420560052657472616374206D6D004137
:103F900075746F2D526574726163740042656400BC
:103FA0004E6F7A7A6C650046616E20537065656469
:103FB00000436F6E66696775726174696F6E005257
:103FC0006573746F72652044656661756C74730007
:103FD0004C6F61642053657474696E677300537429
:103FE0006F72652053657474696E677300507265F3
:103FF00068656174202420436F6E66004F6666001A
:104000004F6E0052756E6F75742053656E736F72CC
:10401000005265747261637400486F74656E642049
:1040200049646C652054696D656F757400424C5429
:104030006F7563680050726F6265205A204F666624
:1040400073657400416476616E63656420536574C2
:1040500074696E6773004D61696E204D656E750001
:104060004D37303220542564004D363030204230F8
:1040700020542564004D373032203B2564004D37F5
:10408000303120542564004D373032004D37303107
:10409000004D363030204230004D61696E204D6554
:1040A0006E7500436F6E74696E7565004F666600CD
:1040B0004F6E0052756E6F75742053656E736F721C
:1040C000005075726765206D6F72650052455355DB
:1040D0004D45204F5054494F4E533A005052494E8F
:1040E0005420504155534544002F00200020204EBD
:1040F0006F7A7A6C653A20005061726B696E672E38
:104100002E2E0000005761697420666F7200666988
:104110006C616D656E74206368616E676500746FB5
:10412000207374617274005761697420666F720045
:1041300066696C616D656E7420756E6C6F6164008C
:10414000004E6F7A7A6C652068656174696E6700ED
:10415000506C6561736520776169742E2E2E0000A6
:10416000507265737320627574746F6E00746F2083
:1041700068656174206E6F7A7A6C650000496E73B1
:104180006572742066696C616D656E7400616E6441
:1041900020707265737320627574746F6E00746F33
:1041A00020636F6E74696E7565005761697420666F
:1041B0006F720066696C616D656E74206C6F61640E
:1041C0000000507265737320427574746F6E0074D2
:1041D0006F20726573756D65207072696E74000072
:1041E0005761697420666F72207072696E74007412
:1041F0006F20726573756D652E2E2E0000576169F4
:104200007420666F720066696C616D656E742070F3
:10421000757267650000536E346B3300496E7661CA
:104220006465727300427269636B6F7574004162FA
:104230006F7574205072696E74657200256C642EFF
:1042400025696D00457874727564656420546F74D7
:10425000616C004C6F6E67657374204A6F62205406
:10426000696D65005072696E742054696D65004314
:104270006F6D706C65746564003A20005072696EF1
:104280007420436F756E74003A20004572726F722D
:104290002077726974696E6720746F2045455052AB
:1042A0004F4D210A0053544F505045442E2000508A
:1042B00072696E7465722073746F707065642064C7
:1042C000756520746F206572726F72732E20466957
:1042D0007820746865206572726F7220616E642048
:1042E000757365204D39393920746F207265737488
:1042F0006172742E202854656D70657261747572D8
:10430000652069732072657365742E20536574206F
:104310006974206166746572207265737461727469
:10432000696E67290A004E6F20436865636B737579
:104330006D2077697468206C696E65206E756D629A
:1043400065722C204C617374204C696E653A2000B4
:104350004E6F20436865636B73756D207769746871
:10436000206C696E65206E756D6265722C204C61E3
:104370007374204C696E653A2000636865636B73E3
:10438000756D206D69736D617463682C204C617369
:1043900074204C696E653A20004C696E65204E753C
:1043A0006D626572206973206E6F74204C61737446
:1043B000204C696E65204E756D6265722B312C2024
:1043C0004C617374204C696E653A20004D31313078
:1043D0000053657269616C20737461747573206D2C
:1043E00069736D617463680A005344207265616487
:1043F000206572726F720A00486F74656E6420499E
:10440000646C652054696D656F757400486F7465E0
:104410006E642049646C652054696D656F75740A1B
:10442000004265642049646C652054696D656F7550
:1044300074004265642049646C652054696D656F41
:1044400075740A006D4129002064726976657220D6
:104450006F76657274656D706572617475726520D2
:104460007761726E696E67212028003A2000206310
:10447000757272656E7420646563726561736564DC
:1044800020746F20006D4129002064726976657286
:10449000206F76657274656D706572617475726592
:1044A000207761726E696E67212028003A20002013
:1044B00063757272656E742064656372656173659D
:1044C0006420746F20006D41290020647269766554
:1044D00072206F76657274656D7065726174757245
:1044E00065207761726E696E67212028003A20008E
:1044F0002063757272656E742064656372656173A2
:10450000656420746F20006D412900206472697613
:104510006572206F76657274656D70657261747511
:104520007265207761726E696E67212028003A20DB
:10453000004B494C4C20627574746F6E2F70696E1D
:104540000A002121204B494C4C206361757365643E
:104550002062792000746F6F206D75636820696E2A
:104560006163746976652074696D65202D206375BB
:104570007272656E7420636F6D6D616E643A2000B7
:104580002121204B494C4C20636175736564206286
:104590007920007061757365004D313235002066F9
:1045A000696C616D656E745F72756E6F75742000F5
:1045B00066696C616D656E745F72756E6F7574207F
:1045C000540046696C616D656E7452756E6F7574DA
:1045D0002054004D656469612052656D6F76656495
:1045E000004D6564696120496E736572746564008D
:1045F000627573793A2070617573656420666F72B5
:1046000020696E7075740A00627573793A20706162
:104610007573656420666F7220757365720A006237
:104620007573793A2070726F63657373696E670A88
:1046300000506C656173652052657365740050525B
:10464000494E5445522048414C5445440025533A64
:1046500020255300706F7765726F6666004B494C7A
:104660004C45442E20005072696E7465722068615A
:104670006C7465642E206B696C6C28292063616CF6
:104680006C6564210A006563686F3A004572726F59
:10469000723A0066616C736500747275650020285B
:1046A00064697361626C6564290A0041424C20416F
:1046B000646A7573746D656E74205A002028656E87
:1046C00061626C6564290A0041626F76650053611E
:1046D0006D65205A2061730042656C6F77004175EB
:1046E000746F20426564204C6576656C696E673A2C
:1046F0002042494C494E45415200204E6F7A7A6C17
:1047000065290A00202620002D43656E746572001D
:104710002D46726F6E74002D4261636B002028413C
:104720006C69676E656420576974680020284D695C
:1047300064646C650020284C65667400202852690A
:104740006768740050726F6265204F6666736574A7
:1047500020580050726F62653A20424C544F5543C6
:10476000480A004D616368696E6520547970653A46
:104770002043617274657369616E0A0042696C69F5
:104780006E656172204C6576656C696E6720477254
:1047900069643A0A003E3E3E003C3C3C007365744E
:1047A0005F6265645F6C6576656C696E675F656E98
:1047B00061626C65640072657365745F6265645FF5
:1047C0006C6576656C0A00203A204C6576656C69EC
:1047D0006E67204F4E0A00202063757272656E74FA
:1047E0005F706F736974696F6E3D00203A204C658D
:1047F00076656C696E67204F46460A002020637517
:104800007272656E745F706F736974696F6E3D006C
:1048100020746F2000424C546F7563682066726F7D
:104820006D2000424C546F756368204465706C6F56
:1048300079204661696C65640A00626C746F756307
:10484000682E6465706C6F795F70726F63282920C1
:10485000656E640A00424C546F75636820414C4198
:10486000524D206F7220545249474745522061668D
:10487000746572204445504C4F592C207265636F0B
:10488000766572696E670A00424C546F75636820E2
:104890004445504C4F592072657175657374656459
:1048A0000A00424C546F7563682053746F7720463A
:1048B00061696C65640A00626C746F7563682E735D
:1048C000746F775F70726F63282920656E640A00C9
:1048D000424C546F75636820414C41524D206F72B9
:1048E00020545249474745522061667465722053EF
:1048F000544F572C207265636F766572696E670A34
:1049000000424C546F7563682053544F57207265B2
:10491000717565737465640A005072696E74696EAE
:1049200067204F626A6563740020460020570020AC
:10493000204D3230372053002046002057002020E1
:104940004D32303820530020204D32303920530072
:104950006E6F74696669636174696F6E20006E6F53
:1049600074696669636174696F6E20006265676966
:104970006E00656E640073686F7700627574746FA3
:104980006E0053656E64204D31303820746F207294
:104990006573756D650A00496E736572742066698A
:1049A0006C616D656E7420616E642073656E642049
:1049B0004D3130380A0052656865617420446F6E6D
:1049C0006500526568656174696E672E2E2E00520F
:1049D0006568656174004865617465722054696D2D
:1049E000656F75740053656E64204D3130382074E6
:1049F0006F2068656174206E6F7A7A6C650A004872
:104A00006F74656E6420746F6F20636F6C640A004E
:104A100070617573656400486561642063616E6EE2
:104A20006F74206265207061726B656400506175FF
:104A30007365002568753A25303268750025303277
:104A400068753A253032687500253032687527253B
:104A50003032687500256875642025303268753AF3
:104A6000253032687500447269766572206572720D
:104A70006F7200636F696C2073686F727420636972
:104A800072637569740A006F76657274656D70651E
:104A90007261747572650A002064726976657220AD
:104AA0006572726F722064657465637465643A2020
:104AB0003078004C4F570048494748004F4B00455D
:104AC00072726F723A20416C6C200020636F6E6EC0
:104AD000656374696F6E2E2E2E20005465737469A1
:104AE0006E6720004C4F570048494748004F4B0025
:104AF0004572726F723A20416C6C200020636F6EB9
:104B00006E656374696F6E2E2E2E2000546573746B
:104B1000696E6720004C4F570048494748004F4B8B
:104B2000004572726F723A20416C6C200020636FF6
:104B30006E6E656374696F6E2E2E2E200054657341
:104B400074696E6720004C4F570048494748004F32
:104B50004B004572726F723A20416C6C20002063EA
:104B60006F6E6E656374696F6E2E2E2E2000546515
:104B70007374696E672000544D4320434F4E4E4579
:104B80004354494F4E204552524F520042656420D3
:104B90004C6576656C696E6720004661696C65647A
:104BA00020746F20656E61626C6520426564204CE4
:104BB0006576656C696E670A00496E76616C69643A
:104BC000206D6573682E0A006D6F76655F7A5F6190
:104BD000667465725F70726F62696E6700203A205A
:104BE0003E2070726F62696E6720636F6D706C65D6
:104BF00074650A00202063757272656E745F706F51
:104C0000736974696F6E3D002E0A002F0050726F39
:104C100062696E67206D65736820706F696E7420BD
:104C200000202844525952554E290047323920411C
:104C300075746F20426564204C6576656C696E679B
:104C4000003F20284C2C522C462C4229206F757492
:104C5000206F6620626F756E64732E0A002042001A
:104C6000204600205200473239204C003F28562968
:104C70006572626F7365206C6576656C20696D7016
:104C80006C61757369626C652028302D34292E0A99
:104C900000426164205A2076616C75650A004E6F8F
:104CA0002062696C696E65617220677269640A00CE
:104CB0004732384C30003E204175746F2D6C65765C
:104CC000656C206E6F74206E65656465642C20735E
:104CD0006B69700A00473239005261697365205A66
:104CE000206265666F726520686F6D696E673A0A4B
:104CF000005230203D204E6F205A2072616973654A
:104D00000A003E20686F6D696E67206E6F74206EBA
:104D100065656465642C20736B69700A00473238DE
:104D2000002020536D6F6F7468696E6720286D6D69
:104D3000293A202020202020202020202020202050
:104D4000202020530022131B5B185B155B202042A0
:104D500061636B6C6173682044697374616E636531
:104D600020286D6D293A202020202020202000209E
:104D70002846312E30203D2066756C6C2C20463044
:104D80002E30203D206E6F6E65290A002020436F73
:104D90007272656374696F6E20416D6F756E742FEA
:104DA000466164652D6F75743A20202020204600EE
:104DB0006163746976653A0A00696E004261636BEB
:104DC0006C61736820436F7272656374696F6E20E3
:104DD000003A2000446576696174696F6E00466927
:104DE0006E6973686564210A003A207A3A200020CF
:104DF0006F662000476F696E6720746F3A20580015
:104E000043570A00206469723A0020616E676C653E
:104E10003A005374617274207261646975733A0068
:104E20004D343820506F696E740025533A20256444
:104E30002F256400506F736974696F6E696E672007
:104E40007468652070726F62652E2E2E0A004D34D4
:104E500038205A2D50726F626520526570656174FA
:104E60006162696C69747920546573740A003F4CFF
:104E7000656773206F66206D6F76656D656E742053
:104E8000696D706C61757369626C652028302D31B5
:104E900035292E0A003F2028582C5929206F757477
:104EA000206F6620626F756E64732E0A0050726FF9
:104EB0006265206F7574206F6620626F756E647313
:104EC000003F53616D706C652073697A65206E6F69
:104ED0007420706C61757369626C652028342D359F
:104EE00030292E0A003F2856296572626F736520AB
:104EF0006C6576656C20696D706C61757369626C48
:104F0000652028302D34292E0A004D50432041754C
:104F1000746F74756E6520696E74657272757074E5
:104F20006564210A004265640045310062656400E1
:104F30002C2073797374656D2073746F7070656461
:104F400021204865617465725F49443A20004572CA
:104F5000723A204D415854454D50004D41585445EA
:104F60004D502074726967676572656400486561B9
:104F700074696E67204661696C6564004865617498
:104F8000696E67206661696C6564004D3532340076
:104F90004D3131322053687574646F776E001000A4
:104FA000AD0330016A0150022B0170030A01900425
:104FB000F500B005E500D006D800F007CE001009D6
:104FC000C500300ABE00500BB700700CB100900D48
:104FD000AB00B00EA600D00FA200F0109D00101282
:104FE0009900301395005014920070158E009016A1
:104FF0008B00B0178700D0188400F0198100101BB7
:105000007E00301C7B00501D7900701E7600901FC2
:105010007300B0207000D0216E00F0226B001024CD
:1050200069003025660050266300702761009028D3
:105030005E00B0295C00D02A5900F02B5600102DDC
:105040005400302E5100502F4E0070304B009031E4
:105050004800B0324500D0334200F0343E001036F4
:105060003B00303737005038330070392E00903A0B
:105070002900B03B2300D03C1B00F03D1100103F45
:105080000100F03F0000544845524D414C2052551C
:105090004E4157415900546865726D616C205275DC
:1050A0006E6177617900202F0020403A0020573A46
:1050B000007C3C3E5E2B3D3F2F5B5D3B2C2A225CFF
:1050C0000043616E6E6F74206F70656E2073756241
:1050D00064697220005761726E696E673A004D65AF
:1050E00064696120496E6974204661696C005344AB
:1050F0002063617264206F6B0A006F70656E526F7F
:105100006F74206661696C65640A00766F6C756DFA
:10511000652E696E6974206661696C65640A004E6B
:105120006F20534420636172640A0053442063611A
:1051300072642072656C65617365640A000A4D32A1
:1051400034004D3233202573002E0A006F70656ED7
:10515000206661696C65642C2046696C653A2000A4
:1051600046696C652073656C65637465640A00202C
:1051700053697A653A200046696C65206F70656EE8
:1051800065643A2000454E4420535542524F5554D1
:10519000494E450A002220706F7300222070617210
:1051A000656E743A2200535542524F5554494E454C
:1051B0002043414C4C207461726765743A2200535D
:1051C000756263616C6C204F766572666C6F7700F8
:1051D0004578636565646564206D61782053554248
:1051E000524F5554494E452064657074683A0057D3
:1051F000726974696E6720746F2066696C653A2005
:10520000004E6F74205344207072696E74696E672B
:105210000A005344207072696E74696E6720627967
:1052200074652000667265736800646F696E67005C
:105230002066696C653A20004E6F7720002F6175FB
:10524000746F25632E6700000020002300260029CC
:10525000002C002F003200000100000301060109AC
:10526000010000000000000000000000000000003D
:10527000000000000000000000000000000000002E
:10528000000000040000000000000000000E00000C
:10529000000000000000000E000000000000000000
:1052A000001F0000000000000000003B00000000A4
:1052B00000000000003180000000000000000071CC
:1052C000C0000000000000000060C00000000000FE
:1052D000000000E0E00000000000000000C07000DE
:1052E00000000000000001C070000000000000008D
:1052F00003803800000000000000030018000000D8
:105300000000000007FFFC000000000000000FFF8D
:10531000FC000000000000000FFFFE000000000085
:1053200000001C000700000000000000380007001B
:1053300000000000000038030380000000000000AF
:10534000300F8180000000000000660C81C000006A
:1053500000000000EF0D8CC0000000000000E98795
:105360001EE0000000000001CF83927000000000EA
:10537000000387819E7000000000000381B9B838E7
:1053800000000000000301FFB0180000000000064C
:1053900000FFF01C00000000000E30FFE00C0000D9
:1053A0000000000E78FFFC0E00000000001CCCFF87
:1053B000FFC70000000000387CFFF7670000000016
:1053C00000383FFFE32380000000007007FFF3E197
:1053D000800000000070007FF181C000000000F03C
:1053E0001FFFF003E000000000F83FDC3003E000A6
:1053F000000001DC6418380770000000039C6C1882
:105400003C0F30000000038E381C360E38000000C0
:105410000707000E360C180000000607001E1C1CB3
:105420001C0000000E03001208380E0000000C03E0
:10543000801E0038060000001801C00C0070070034
:1054400000003800C00000F0030000003FFFFFFF35
:10545000FFFFFF8000007FFFFFFFFFFFFFC0000096
:10546000000000000000000000000000000000003C
:10547000000000006066607E7E1F1F800000606686
:10548000607E7F3F9F8000006066600E6331860013
:1054900000006066601C7F31860000006066603836
:1054A0007F31860000006066607063318600000016
:1054B0007E7E7E7E7F3F860000007E3C7E7E7E1F5D
:1054C00006000000000000000000000000000000D6
:1054D00000000000000000000000000000000000CC
:1054E00000424C546F75636820536574204D6F649F
:1054F00065202D20004D31313720576F726B686F5A
:105500007273652032205265616479002020506CEE
:10551000616E6E6572427566666572427974657316
:105520003A20002046726565204D656D6F72793AAC
:10553000200020436F6D70696C65643A204A756C79
:1055400020313520323032350A00204C617374200E
:10555000557064617465643A20323032342D3037CE
:105560002D3032207C20417574686F723A204C7562
:105570006C7A426F740A004D61726C696E20322E33
:10558000312E332E302E34380A0020536F66747754
:105590006172652052657365740A002057617463F7
:1055A00068646F672052657365740A002042726FE9
:1055B000776E206F75742052657365740A002045FC
:1055C000787465726E616C2052657365740A005060
:1055D0006F77657255700A0073746172740A004DBA
:1055E00038330A473020452D31340A4D38320A47C6
:1055F000302059333430205A323938204632353051
:10560000300A4739310A4730205A2D320A4739309B
:10561000004D31303031006572726F7220777269DF
:1056200074696E6720746F2066696C650A00446F48
:105630006E6520736176696E672066696C652E0AF7
:10564000004D323900456E6473746F7073002553DA
:1056500020256320256320256320256300205A3AF6
:105660000020593A0020583A00656E6473746F70D8
:1056700073206869743A2000436F6C642050756C25
:105680006C005450550041425300504C410020588A
:105690003A001000C90210012C01400122017001E2
:1056A0001801B0010E01F00104015002FA00B0022D
:1056B000F0003003E600D003DC009004D200700557
:1056C000C800A006BE000008B400B009AA00D00BB4
:1056D000A000600E960060118C0000158200201959
:1056E0007800C01D6E00A0226400B0275A00902CE4
:1056F000500000314600E0343C0010383200903A4F
:105700002800603C1E00A03D1400803E0A00203F9F
:10571000000000002100240027002A002D00300096
:10572000330001010000040107010A01000022000A
:10573000250028002B002E0031003400020100005B
:10574000050108010B0105050505070508080808FE
:10575000020202020A0A0808040404040101010109
:105760000101010103030303030303030407070704
:105770000C0C0C0C0C0C0C0C0202020206060606A9
:10578000060606060B0B0B0B0B0B0B0B0102102076
:105790002008081020401020408002010201080467
:1057A00002010102040810204080804020100804FB
:1057B0000201800402018040201008040201080454
:1057C0000201010204081020408001020408102098
:1057D000408000000A0B02090C0D0E0807030401AB
:1057E00000000000000000000000000000000000B9
:1057F0000000000000000000000000000000121186
:105800001000000000000000000000000000000088
:105810000000000000000000302E30323500302E35
:105820003100312E30004D6F766520246D6D0031D2
:1058300030000000A7430080B443008097434D6FC1
:1058400076652041786973004D6F7665202A004D9A
:105850006F76652040008A56865682567856436891
:10586000616E67652046696C616D656E7400556E8A
:105870006C6F61642046696C616D656E74004C6F7D
:1058800061642046696C616D656E74005072656874
:1058900065617420437573746F6D0050726568653F
:1058A00061742024004261636B00200053656C65C5
:1058B00063742066726F6D204D656469610020001D
:1058C000200020746F6F206C6F6E67206578747293
:1058D0007573696F6E2070726576656E7465640AA3
:1058E0000020636F6C6420657874727573696F6EE5
:1058F0002070726576656E7465640A004469736130
:10590000626C6552756E6F75740050757267654D87
:105910006F72650050617573656400436F6E7469E2
:105920006E7565004C6F61642046696C616D656ED3
:1059300074205400496E736572742066696C616DE1
:10594000656E7420616E642073656E64204D313025
:10595000380A002F2F616374696F6E3A00726573A5
:10596000756D6564004469736D6973730052657386
:10597000756D696E6700290A005D2C200020746F28
:105980002000205B00646F5F7A5F636C6561726109
:105990006E6365280050726F62653A3A70726F628A
:1059A000655F646F776E5F746F5F7A006D6D290A53
:1059B00000547269676765726564206561726C790D
:1059C000202861626F766520004E6F2074726967CF
:1059D0006765722E0A002050726F626520666169E9
:1059E0006C21202D20002C202E2E2E290A002C2068
:1059F000003E207472795F746F5F70726F62652809
:105A00002E2E2E2C2000534C4F5700536C6F7720B6
:105A100050726F62653A0A0050726F6265204C6F77
:105A20007720506F696E743A200050726F62653A49
:105A30003A72756E5F7A5F70726F626500205A3AD3
:105A4000200020593A200042656420583A20005036
:105A5000726F62696E67204661696C65640A005006
:105A6000726F62696E67204661696C6564002070C0
:105A70006F696E740A002D72656C617469766500D9
:105A80004D6F766520746F2070726F6265004E6F87
:105A90007420526561636861626C650A00203A2077
:105AA0000A00202063757272656E745F706F73698F
:105AB00074696F6E3D005F72656C6174697665290B
:105AC0000A002C20002C20002C20002C20002E2E40
:105AD0002E280050726F62653A3A70726F62655F8D
