:100000000C9469110C946D140C9498140C94C314F2
:100010000C94EE140C9419150C9444150C946F1553
:100020000C949A150C9499110C9499110C949911A3
:100030000C9499110C9499110C9499110C94991198
:100040000C9499110C9420350C9499110C949911DD
:100050000C9499110C9499110C940D290C949B11EA
:100060000C9499110C947C1A0C94281B0C949911E3
:100070000C9499110C9499110C9499110C94991158
:100080000C9499110C9499110C9499110C94991148
:100090000C9499110C9499110C9499110C94991138
:1000A0000C9499110C9499110C9499110C94991128
:1000B0000C9499110C9499110C9499110C94991118
:1000C0000C9499110C9499110C9499110C94991108
:1000D0000C9499110C9499110C9499110C949911F8
:1000E0000C949911E312E812ED12F71201137A132E
:1000F0000B1313131B1325132F1339134813521308
:100100007A135C13661370139E13A1139013941348
:100110009A13D813A513A913AF13B313B713BD13B1
:10012000C113C513D813CB13CF13D313B817B617F6
:10013000DA17D717D5170C180918071865183318C8
:1001400030182E18AF1AB51AC61AD11AD91AEE1AC3
:10015000DD1AEE1AE11AE51AEE1AEB1A084AD73B35
:100160003BCE016E84BCBFFDC12F3D6C74319ABD86
:1001700056833DDA3D00C77F11BED9E4BB4C3E91AA
:100180006BAAAABE000000803F05A84CCDB2D44E99
:10019000B93836A9020C50B9918688083CA6AAAA9B
:1001A0002ABE000000803F004E414E494E4954593E
:1001B000494E46CDCCCC3D0AD7233C17B7D1387732
:1001C000CC2B329595E6241FB14F0A000020410048
:1001D00000C84200401C4620BCBE4CCA1B0E5AAE92
:1001E000C59D7400000A0B02090C0D0E08070304DC
:1001F00001000000000000000000000000000000FE
:1002000000000000000000000000000000000012DC
:1002100011100000000000000000000000000000BD
:10022000000000000000000000010210202008086B
:100230001020401020408002010201080402010148
:100240000204081020408080402010080402018031
:100250000402018040201008040201080402010188
:10026000020408102040800102040810204080058C
:10027000050505070508080808020202020A0A081F
:100280000804040404010101010101010103030345
:100290000303030303040707070C0C0C0C0C0C0CE2
:1002A0000C0202020206060606060606060B0B0BE9
:1002B0000B0B0B0B0B000020002300260029002C49
:1002C000002F0032000001000003010601090100B7
:1002D000002200250028002B002E003100340002EF
:1002E000010000050108010B010000210024002786
:1002F000002A002D00300033000101000004010736
:10030000010A014F4646004F4E006563686F3A0090
:100310004572726F723A004572726F72207772691D
:1003200074696E6720746F20454550524F4D210A05
:100330000063616E63656C00706F7765726F6666EF
:10034000002F2F616374696F6E3A0020573A0020C6
:10035000573A00202F002042403A0020403A0054F3
:100360006865726D616C2052756E617761790048C5
:100370006F74656E6420544845524D414C2052556F
:100380004E415741590042454420544845524D4141
:100390004C2052554E4157415900202D20496E7630
:1003A000616C6964206578747275646572206E751D
:1003B0006D62657220210A0048656174696E67206C
:1003C0006661696C65640042656420686561746992
:1003D0006E67206661696C656400546865726D6162
:1003E0006C2052756E617761790042454420544813
:1003F00045524D414C2052554E4157415900486598
:100400006174696E67206661696C656400486F7429
:10041000656E642048656174696E67206661696C09
:10042000656400546865726D616C2052756E617709
:10043000617900486F74656E6420544845524D419F
:100440004C2052554E41574159004D494E54454D4F
:10045000502074726967676572656400486F7465DF
:100460006E64204572723A204D494E54454D5000FD
:100470004572723A204D494E54454D5020424544F4
:10048000004D415854454D5020747269676765723C
:10049000656400486F74656E64204572723A204D41
:1004A000415854454D50004572723A204D415854C0
:1004B000454D502042454400626564002C2073790C
:1004C0007374656D2073746F707065642120486566
:1004D000617465725F49443A200023646566696E01
:1004E000652044454641554C545F004B6420004B09
:1004F0006920004B70200000626564005049442070
:100500004175746F74756E652066696E6973686590
:1005100064212050757420746865206C61737420A8
:100520004B702C204B6920616E64204B6420636FFC
:100530006E7374616E74732066726F6D2062656C89
:100540006F7720696E746F20436F6E66696775728E
:100550006174696F6E2E680A0050494420417574B9
:100560006F74756E65206661696C656421207469BD
:100570006D656F75740A00546865726D616C205208
:10058000756E6177617900486F74656E64205448B8
:1005900045524D414C2052554E415741590042451C
:1005A0004420544845524D414C2052554E415741EC
:1005B000590048656174696E67206661696C65649D
:1005C00000486F74656E642048656174696E6720C9
:1005D0006661696C65640042656420686561746980
:1005E0006E67206661696C656400504944204175FE
:1005F000746F74756E65206661696C656421205442
:10060000656D706572617475726520746F6F2068B6
:100610006967680A00204B643A2000204B693A2041
:1006200000204B703A20000A20436C6173736963A9
:1006300020504944200A002054753A2000204B7570
:100640003A2000206D61783A2000206D696E3A20D2
:100650000020643A200020626961733A200050490A
:1006600044204175746F74756E6520737461727483
:100670000A00504944204175746F74756E65206698
:1006800061696C6564212054656D70657261747573
:10069000726520746F6F20686967680A001000AD8A
:1006A0000330016A0150022B0170030A019004F526
:1006B00000B005E500D006D800F007CE001009C54F
:1006C00000300ABE00500BB700700CB100900DABAB
:1006D00000B00EA600D00FA200F0109D00101299DD
:1006E00000301395005014920070158E0090168BF8
:1006F00000B0178700D0188400F0198100101B7E0D
:1007000000301C7B00501D7900701E7600901F7316
:1007100000B0207000D0216E00F0226B0010246920
:100720000030256600502663007027610090285E27
:1007300000B0295C00D02A5900F02B5600102D542F
:1007400000302E5100502F4E0070304B0090314839
:1007500000B0324500D0334200F0343E0010363B4A
:1007600000303737005038330070392E00903A2966
:1007700000B03B2300D03C1B00F03D1100103F01B6
:1007800000F03F00001000C90210012C01400122BE
:100790000170011801B0010E01F00104015002FACC
:1007A00000B002F0003003E600D003DC009004D279
:1007B000007005C800A006BE000008B400B009AA79
:1007C00000D00BA000600E960060118C0000158216
:1007D0000020197800C01D6E00A0226400B0275AC6
:1007E00000902C500000314600E0343C00103832BC
:1007F00000903A2800603C1E00A03D1400803E0A94
:1008000000203F00006F70656E0054524947474515
:10081000524544003A20007A5F6D6178007A5F6D3E
:10082000696E00795F6D617800795F6D696E00783F
:100830005F6D617800785F6D696E005265706F72F0
:1008400074696E6720656E6473746F702073746171
:100850007475730A00205A3A0020593A0020583A19
:1008600000656E6473746F7073206869743A200059
:10087000486F6D696E67206661696C656400496EDA
:1008800076616C69642065787472756465720A00BB
:1008900045303A20005A3A2000593A20004D533151
:1008A0002C4D53322C4D53332050696E730A583AF5
:1008B00020004D6963726F737465707320756E618B
:1008C0007661696C61626C650A00205A3A002059B1
:1008D0003A0020436F756E7420583A00C231000010
:1008E0001C260000F4190000D80F0000EB080000DF
:1008F000C0040000750200004001000024F4D43060
:1009000050C38E20C2A24017828B7011127A910DB3
:10091000816CD90AA861E108C7586607615143068E
:100920001E4B5D05C145A7041A411104093D9803FA
:10093000713931034036DB0265339102D430540201
:10094000802E1D02632CEE01752AC501B028A0017E
:10095000102781018F2564012B244B01E0223401F3
:10096000AC211F018D200D01801FFC00841EED00B5
:10097000971DDF00B81CD200E61BC600201BBC0080
:10098000641AB200B219A8000A19A0006A189900E6
:10099000D117910040178B00B516840031167E00E8
:1009A000B31579003A157300C7146F0058146A0024
:1009B000EE1366008813630025135E00C7125B0008
:1009C0006C12570015125400C111510070114F00E4
:1009D00021114B00D61049008D10470046104400ED
:1009E00002104200C00F4000800F3E00420F3C004A
:1009F000060F3B00CB0E3800930E37005C0E35001F
:100A0000270E3400F30D3200C10D3100900D30007F
:100A1000600D2E00320D2D00050D2C00D90C2B0081
:100A2000AE0C2900850C29005C0C2700350C270032
:100A30000E0C2600E80B2400C40B2400A00B23009E
:100A40007D0B23005A0B2100390B2100180B2000CD
:100A5000F80A1F00D90A1E00BB0A1E009D0A1D00CD
:100A6000800A1D00630A1C00470A1B002C0A1B0099
:100A7000110A1A00F7091A00DD091900C409190042
:100A8000AB091900920917007B09180063091700C8
:100A90004C09160036091600200916000A0915002F
:100AA000F5081500E0081400CC081400B80814007C
:100AB000A4081400900813007D0812006B081300AE
:100AC00058081200460812003408110023081100CB
:100AD0001208110001081100F0071000E0071000D3
:100AE000D0071000C0071000B0070F00A1071000CA
:100AF00091070E0083070F0074070F0065070E00B3
:100B000057070E0049070E003B070D002E070E0089
:100B100020070D0013070D0006070D00F9060C0055
:100B2000ED060D00E0060C00D4060C00C8060C0013
:100B3000BC060C00B0060C00A4060B0099060C00C5
:100B40008D060B0082060B0077060B006C060B006F
:100B500061060A0057060B004C060A0042060A000E
:100B600038060A002E060A0024060A001A060A00A1
:100B70001006090007060A00FD050900F405090032
:100B8000EB050900E2050900D9050900D0050900B7
:100B9000C7050900BE050900B5050800AD05080038
:100BA000A50509009C050800940508008C050800AF
:100BB000840508007C050800740508006C05070022
:100BC000650508005D050700560508004E0507008D
:100BD00047050700400508003805070031050700F4
:100BE0002A050700230507001C0506001605070057
:100BF0000F0507000805060002050700FB040600B4
:100C0000F5040700EE040600E8040600E20407000D
:100C1000DB040600D5040600CF040600C904060064
:100C2000C3040600BD040600B7040600B1040500B5
:100C3000AC040600A6040600A00405009B04060000
:100C400095040500900406008A040500850405004B
:100C5000800406007A040500750405007004050090
:100C60006B04050066040500610405005C040500D2
:100C700057040500520405004D0405004804050012
:100C8000430405003E0404003A0405003504050051
:100C9000300404002C04050027040400230405008C
:100CA0001E0404001A0404001604050011040400C4
:100CB0000D040400090405000404040000040400F9
:100CC000FC030400F8030400F4030400F003040030
:100CD000EC030400E8030400E4030400E003040060
:100CE000DC030400D8030400D4030400D003040090
:100CF000CC030400C8030300C503030024F404D993
:100D0000201BC40C5C0E9804C4095F0265077101C6
:100D1000F405F900FB04B30048048700C10369002F
:100D20005803550003034500BE023A008402310017
:100D300053022A002902250004022000E4011C00BD
:100D4000C8011900AF0117009801140084011300B5
:100D5000710110006101100051010E0043010D00EE
:100D600036010B002B010B0020010B0015010900BF
:100D70000C01090003010800FB000800F300080053
:100D8000EB000700E4000600DE000600D8000600C5
:100D9000D2000600CC000500C7000500C200050017
:100DA000BD000400B9000400B5000400B100040057
:100DB000AD000400A9000400A5000300A200030088
:100DC0009F0004009B0003009800030095000200B0
:100DD00093000300900003008D0002008B000300CD
:100DE00088000200860002008400030081000200E7
:100DF0007F0002007D0002007B00020079000200FB
:100E00007700010076000200740002007200010009
:100E1000710002006F0002006D0001006C00020012
:100E20006A0001006900020067000100660001001D
:100E30006500010064000200620001006100010021
:100E4000600001005F0002005D0001005C00010025
:100E50005B0001005A000100590001005800010028
:100E60005700010056000100550001005400010028
:100E70005300000053000100520001005100010026
:100E8000500001004F0001004E0000004E00010024
:100E90004D0001004C0001004B0000004B00010020
:100EA0004A0001004900010048000000480001001C
:100EB0004700010046000000460001004500000018
:100EC0004500010044000100430000004300010010
:100ED000420000004200010041000000410001000A
:100EE000400001003F0000003F0001003E00000004
:100EF0003E0001003D0000003D0001003C000000FC
:100F00003C0000003C0001003B0000003B000100F1
:100F10003A0000003A0001003900000039000100E9
:100F200038000000380000003800010037000000E1
:100F300037000100360000003600000036000100D6
:100F400035000000350000003500010034000000CD
:100F500034000000340001003300000033000000C2
:100F600033000100320000003200000032000100B6
:100F700031000000310000003100010030000000AD
:100F800030000000300001002F0000002F000000A2
:100F90002F0000002F0001002E0000002E00000096
:100FA0002E0001002D0000002D0000002D0000008B
:100FB0002D0001002C0000002C0000002C0000007F
:100FC0002C0001002B0000002B0000002B00000073
:100FD0002B0001002A0000002A0000002A00000067
:100FE0002A0001002900000029000000290000005B
:100FF000290000002900010028000000280000004E
:101000002800000028000000280001002700000040
:101010002700000027000000270000002700010033
:101020002600000026000000260000002600000028
:10103000260001002500000025000000250000001A
:10104000250000002500000025000100240000000C
:1010500024000000240000002400000024000100FF
:1010600023000000230000002300000023000000F4
:1010700023000000230000002300010022000000E4
:1010800022000000220000002200000022000000D8
:1010900022000100210000002100000021000000CA
:1010A00021000000210000002100000021000100BB
:1010B00020000000200000002000000020000000B0
:1010C000200000002000000020000000200001009F
:1010D0001F0000001F0000001F0000001F00000094
:1010E0001F0000001F0000001F0001001E00000084
:1010F0001E0000001E0000001E0000003A0A002032
:10110000286D6D2900205300205A002059002058D6
:101110000020204D3432352046004261636B6C6103
:10112000736820636F6D70656E736174696F6E3A7A
:101130000A00204500205A0020204D393037205821
:101140000053746570706572206D6F746F722063E8
:10115000757272656E74733A0A0020204D39303012
:10116000204B004C696E65617220416476616E634C
:10117000653A0A0020204D383531205A005A2D504A
:10118000726F6265204F66667365740020440020AC
:10119000490020204D3330342050002044002049A5
:1011A0000020204D333031205000504944207365D9
:1011B0007474696E67733A0A0020204D343230200F
:1011C00053004175746F20426564204C6576656CF0
:1011D000696E673A0A00204500205A002059002015
:1011E000580020540020530020204D32303520423A
:1011F0000020453C6D61785F655F6A65726B3E00FB
:1012000020583C6D61785F785F6A65726B3E20594B
:101210003C6D61785F795F6A65726B3E205A3C6D08
:1012200061785F7A5F6A65726B3E00416476616ED9
:101230006365643A20423C6D696E5F7365676D65F6
:101240006E745F74696D655F75733E20533C6D69A4
:101250006E5F66656564726174653E20543C6D69BD
:101260006E5F74726176656C5F66656564726174E9
:10127000653E0020540020520020204D32303420A2
:101280005000416363656C65726174696F6E2028FC
:10129000756E6974732F7332293A20503C707269ED
:1012A0006E745F616363656C3E20523C726574725C
:1012B0006163745F616363656C3E20543C7472616A
:1012C00076656C5F616363656C3E0A0020450020B3
:1012D0005A0020590020204D3230312058004D61F5
:1012E00078696D756D20416363656C6572617469C1
:1012F0006F6E2028756E6974732F7332293A0A0055
:10130000204500205A0020590020204D3230332043
:1013100058004D6178696D756D2066656564726110
:101320007465732028756E6974732F73293A0A00E7
:1013300053746570732070657220756E69743A0A13
:10134000002020473231202020203B20556E697438
:101350007320696E206D6D0048617264636F64650F
:10136000642044656661756C742053657474696E9D
:101370006773204C6F616465640A002823000028AD
:1013800023000064000000E8030000000096430012
:1013900000964300000041000020420000C94200C6
:1013A00000C9420000C84400405044454550524FD7
:1013B0004D20496E697469616C697A65640A002917
:1013C0000A002062797465733B20637263200020F9
:1013D00073746F7265642073657474696E677320CB
:1013E00072657472696576656420280020286361DF
:1013F0006C63756C6174656429210A0020213D20AD
:1014000000454550524F4D20435243206D69736D46
:1014100061746368202D202873746F7265642920BD
:10142000002053697A653A2000496E6465783A2055
:1014300000204D61726C696E3D563637290A0045B1
:101440004550524F4D2076657273696F6E206D69FD
:10145000736D617463682028454550524F4D3D00BF
:10146000290A002062797465733B2063726320004F
:1014700053657474696E67732053746F726564206A
:101480002800454550524F4D206461746173697A5C
:1014900065206572726F722E0A004175746F6C65FB
:1014A00076656C206661696C65640A005761726ECE
:1014B000696E673A20486F6D696E672042756D707E
:1014C0002044697669736F72203C20310A00020261
:1014D000042066697273740A00486F6D65200020ED
:1014E000746F6F206C6F6E672065787472757369A6
:1014F0006F6E2070726576656E7465640A00206395
:101500006F6C6420657874727573696F6E20707289
:101510006576656E7465640A0020453A00205A3A83
:101520000020593A00583A000000F0410000F04114
:1015300000000041FF01010000A0400000A04000A9
:101540000000400000254300004543000021430007
:101550000040C000003E4300001F43000022430043
:10156000003E4300001F43000040C00000E0C000F8
:101570000000C020746F6F206C6F6E6720657874F8
:10158000727573696F6E2070726576656E746564CE
:101590000A0020636F6C6420657874727573696FDC
:1015A0006E2070726576656E7465640A006275738C
:1015B000793A2070617573656420666F7220696E78
:1015C0007075740A00627573793A2070617573657D
:1015D0006420666F7220757365720A006275737994
:1015E0003A2070726F63657373696E670A004D31DC
:1015F00031372050726F6265207375636365737352
:1016000066756C0A0020496E76616C6964206578A5
:101610007472756465722000205A3A200020593A8D
:10162000200042656420583A200050726F626520A5
:101630005A204F66667365743A20003F5A206F75D2
:1016400074206F662072616E676520282D322074C9
:101650006F2035290A00220A00556E6B6E6F776E77
:1016600020636F6D6D616E643A20220045455052D3
:101670004F4D204F4B0A004543484F00494E464FBF
:10168000004552524F52530044525952554E004356
:101690004F4D4D554E49434154494F4E006F66667C
:1016A0000077167C16811688168F164445425547DA
:1016B0003A00205A00205900580020204D61783A05
:1016C0002000205A00205900580020204D696E3A11
:1016D0002000536F667420656E6473746F70733A84
:1016E00020002569730025696D202569730025692F
:1016F000682025696D2025697300256964202569A6
:10170000682025696D202569730025697920256980
:1017100064202569682025696D2025697300507251
:10172000696E742074696D653A20004D3131332043
:1017300053002F2F20004361703A004348414D422F
:1017400045525F54454D5045524154555245004D08
:101750004F54494F4E5F4D4F4445530054484552F6
:101760004D414C5F50524F54454354494F4E0041F8
:1017700055544F5245504F52545F53445F53544158
:101780005455530050524F4D50545F535550504F85
:10179000525400454D455247454E43595F504152C2
:1017A00053455200434153455F4C494748545F42BB
:1017B00052494748544E45535300544F47474C45B0
:1017C0005F4C494748545300534F46545741524584
:1017D0005F504F574552004255494C445F50455267
:1017E00043454E54004C4556454C494E475F444195
:1017F0005441005A5F50524F4245004155544F4C9E
:101800004556454C005052494E545F4A4F42005095
:10181000524F4752455353004155544F5245504F34
:1018200052545F54454D5000564F4C554D455452FF
:10183000494300454550524F4D0042494E4152598F
:101840005F46494C455F5452414E53464552005302
:10185000455249414C5F584F4E5F584F46460046EF
:1018600049524D574152455F4E414D453A4D617287
:101870006C696E20204649524D574152455F56458E
:101880005253494F4E3A322E302E302E31343420BE
:1018900045585452554445525F545950453A53693E
:1018A0006E676C65457874727564657220534F5528
:1018B0005243455F434F44455F55524C3A687474F8
:1018C00070733A2F2F636F64652E616C6570686F5B
:1018D000626A656374732E636F6D2F6469666675E3
:1018E00073696F6E2F4D41524C494E2050524F54E8
:1018F0004F434F4C5F56455253494F4E3A312E306D
:10190000204D414348494E455F545950453A4C7526
:101910006C7A426F74204D696E6920455854525557
:101920004445525F434F554E543A31205555494432
:101930003A33353134383762362D636139612D34AD
:101940006331612D383736352D643636386231646F
:1019500061363538350A0020284E6F742079657459
:10196000206D65617375726564290020204176657C
:1019700072616765206D656173757265642062616F
:10198000636B6C61736820286D6D293A00202053C9
:101990006D6F6F7468696E6720286D6D293A20201D
:1019A0002020202020202020202020202020205304
:1019B0000020204261636B6C61736820446973741A
:1019C000616E636520286D6D293A2020202020203B
:1019D000202000202846312E30203D2066756C6C7A
:1019E0002C2046302E30203D206E6F6E65290A0077
:1019F0002020436F7272656374696F6E20416D6F52
:101A0000756E742F466164652D6F75743A202020C1
:101A1000202046006163746976653A0A00696E00A9
:101A20004261636B6C61736820436F7272656374AB
:101A3000696F6E2000205A0020506F736974696FBF
:101A40006E616C204572726F723A0A004E6F7A7A3C
:101A50006C6520546970204F757465722044696DFF
:101A6000656E73696F6E733A0A002020546F703A86
:101A70002000202046726F6E743A200020204C65B2
:101A800066743A20004261636B6C6173683A0A00C5
:101A9000205A0043656E7465723A0A00202046722F
:101AA0006F6E743A200020204C6566743A20002046
:101AB00020546F703A200053696465733A0A0042FB
:101AC0006564204C6576656C696E672000466169C7
:101AD0006C656420746F20656E61626C6520426580
:101AE00064204C6576656C696E670A004265642007
:101AF0004C6576656C20436F7272656374696F6EB6
:101B0000204D61747269783A000A0A426564204C7B
:101B10006576656C20436F7272656374696F6E20C1
:101B20004D61747269783A00202B000A436F72721B
:101B300065637465642042656420486569676874FC
:101B40002076732E2042656420546F706F6C6F672F
:101B5000793A0A00202B000A4265642048656967CB
:101B6000687420546F706F6772617068793A0A20E8
:101B700020202B2D2D2D204241434B202D2D2B0A93
:101B80002020207C20202020202020202020207C9D
:101B90000A204C207C20202020282B2920202020B7
:101BA0007C20520A2045207C20202020202020203C
:101BB0002020207C20490A2046207C20282D292016
:101BC0004E20282B29207C20470A2054207C2020CE
:101BD0002020202020202020207C20480A20202097
:101BE0007C20202020282D29202020207C20540A01
:101BF0002020207C20202020202020202020207C2D
:101C00000A2020204F2D2D2046524F4E54202D2D9E
:101C10002B0A2028302C30290A0034746820707276
:101C20006F626520706F696E742C206469737461D3
:101C30006E63652066726F6D20706C616E653A2010
:101C400000202844525952554E290047323920412C
:101C500075746F20426564204C6576656C696E67AB
:101C6000003F20284C2C522C462C4229206F7574A2
:101C7000206F6620626F756E64732E0A003F50728B
:101C80006F626520706F696E74732028592920690E
:101C90007320696D706C61757369626C65202832A0
:101CA0002D32292E0A003F50726F626520706F69D5
:101CB0006E74732028582920697320696D706C61D7
:101CC000757369626C652028322D32292E0A003F17
:101CD0002856296572626F7365206C6576656C2085
:101CE000697320696D706C61757369626C65202819
:101CF000302D34292E0A00416476616E6365204BD5
:101D00003D003F4B2076616C7565206F7574206FC8
:101D1000662072616E67652028302D3130292E0AC9
:101D2000004D31313720486F7420456E642048657E
:101D30006174696E672E2E2E0A4D31303420533176
:101D400037302054300A473238204F310A4731208B
:101D5000593235205A31302046353030300A4D3135
:101D60003137205265776970696E67206E6F7A7AB5
:101D70006C650A54300A47312058313135205931C9
:101D800037322046353030300A4D3130392052312B
:101D900037302054300A4731205A310A4731205811
:101DA00031313520593137322046343030300A470E
:101DB00031205834352059313732204634303030D4
:101DC0000A473120583131352059313732204634D5
:101DD0003030300A473120583435205931373220DD
:101DE00046343030300A47312058313135205931AE
:101DF00037322046343030300A47312058343520CD
:101E0000593137322046343030300A47312058318A
:101E1000313520593137322046343030300A47319D
:101E20002058343520593137322046343030300A8A
:101E3000473120583131352059313732204634303E
:101E400030300A4731205834352059313732204656
:101E5000343030300A47312058313135205931374C
:101E6000322046343030300A47312058343520593A
:101E70003137322046343030300A4731205A31353C
:101E80000A4D3130362053323535200A473020583C
:101E9000302059300A4D31303920523136302054FB
:101EA000300A4D3130370A0020466C6F773A2000F7
:101EB00020643A0020693A0020703A002045002052
:101EC0005A00205900204D393220580043290A0079
:101ED00061626C656420286D696E2074656D702088
:101EE0000064697300656E00436F6C6420657874EC
:101EF0007275646573206172652000205400205261
:101F000000416363656C65726174696F6E3A20505D
:101F100000496E76616C69642065787472756465D9
:101F2000720A0020643A0020693A0020703A0047A3
:101F3000322F47332062616420706172616D657475
:101F40006572730A005072696E7465722073746FE3
:101F5000707065642064756520746F206572726F9F
:101F600072732E2046697820746865206572726FDE
:101F70007220616E6420757365204D393939207483
:101F80006F20726573746172742E202854656D70B1
:101F9000657261747572652069732072657365740A
:101FA0002E205365742069742061667465722072F6
:101FB000657374617274696E67290A004E6F2043FD
:101FC0006865636B73756D2077697468206C696EE2
:101FD00065206E756D6265722C204C617374204CA7
:101FE000696E653A2000636865636B73756D206D7B
:101FF00069736D617463682C204C617374204C6943
:102000006E653A20004C696E65204E756D62657292
:10201000206973206E6F74204C617374204C696E5C
:1020200065204E756D6265722B312C204C61737486
:10203000204C696E653A20004D3131300052657395
:10204000656E643A20002042002050006F6B005003
:102050004944204175746F74756E65206661696CC2
:1020600065642120426164206578747275646572CC
:10207000206E756D6265720A006F6B002020506CD7
:10208000616E6E65724275666665724279746573DB
:102090003A20002046726565204D656D6F72793A71
:1020A0002000436F6D70696C65643A204A756C203E
:1020B000313220323031390A00207C204175746879
:1020C0006F723A2028416C657068204F626A6563C0
:1020D000747320496E632E2C204C756C7A426F7499
:1020E00020476974205265706F7369746F72792923
:1020F0000A0000204C61737420557064617465643B
:102100003A2000322E302E302E3134340A004D6108
:10211000726C696E0020536F66747761726520522D
:10212000657365740A00205761746368646F672083
:1021300052657365740A002042726F776E206F7566
:10214000742052657365740A002045787465726E58
:10215000616C2052657365740A00506F7765725523
:10216000700A0073746172740A005072696E74654B
:10217000722068616C7465642E206B696C6C282910
:102180002063616C6C6564210A004B494C4C2063F0
:10219000617573656420627920746F6F206D75635B
:1021A0006820696E6163746976652074696D652065
:1021B0002D2063757272656E7420636F6D6D616E34
:1021C000643A20004D3132310A4730205A31300A0A
:1021D0004732382058302059300A4731320A4D31C1
:1021E000303920523136300A4D3131372050726F3C
:1021F00062696E67206265640070726F62655F720B
:102200006577697065004175746F6C6576656C20E3
:102210006661696C6564004D313137204265642028
:102220006C6576656C696E67206661696C65642EA5
:102230000A4730205A31300A47302045300A4D33A2
:1022400030302050323520533838300A4D3330305A
:10225000205035302053300A4D3330302050323545
:1022600020533838300A4D33303020503530205329
:10227000300A4D3330302050323520533838300A50
:1022800047342053310070726F62655F6661696C1C
:1022900065640050726F7465637465642050696E84
:1022A0000A0025301D0C1E282924311C0B18452737
:1022B000232F1B0A174443222B1A4142043803FFE1
:1022C0003604080606000100AC1DCB323D6E2B948F
:1022D0003CA211241FBECFEFD1E2DEBFCDBF00E094
:1022E0000CBF13E0A0E0B2E0E6EAF3E701E00BBFC9
:1022F00002C007900D92AE39B107D9F72EE0AEE9D2
:10230000B3E001C01D92AB3EB207E1F711E1C9E6AF
:10231000D1E100E006C021970109802FFE010E9453
:1023200068B2C436D10780E00807A9F771D40C94CD
:10233000D1B90C9400001F920F920FB60F92112486
:102340002F933F938F939F93AF93BF9380919F035E
:102350009091A003A091A103B091A20330919E039C
:1023600023E0230F2D3720F40196A11DB11D05C0D8
:1023700026E8230F0296A11DB11D20939E03809392
:102380009F039093A003A093A103B093A203809115
:10239000A3039091A403A091A503B091A603019675
:1023A000A11DB11D8093A3039093A403A093A50343
:1023B000B093A603BF91AF919F918F913F912F91C1
:1023C0000F900FBE0F901F9018952FB7F894609143
:1023D0009F037091A0038091A1039091A2032FBF4E
:1023E00008953FB7F8948091A3039091A403A0911E
:1023F000A503B091A60326B5A89B05C02F3F19F0F1
:102400000196A11DB11D3FBFBA2FA92F982F882774
:10241000820F911DA11DB11DBC01CD0142E0660FCF
:10242000771F881F991F4A95D1F708958F929F9221
:10243000AF92BF92CF92DF92EF92FF926B017C013D
:10244000D0DF4B015C01C114D104E104F104F1F0CF
:102450009CD3C7DFDC01CB0188199909AA09BB0904
:10246000883E9340A105B10570F321E0C21AD1085E
:10247000E108F10888EE880E83E0981EA11CB11CCB
:10248000C114D104E104F10421F7DDCFFF90EF90F6
:10249000DF90CF90BF90AF909F908F900895823043
:1024A000910538F0880F991F880F991F059701979C
:1024B000F1F70895789484B5826084BD84B5816015
:1024C00084BD85B5826085BD85B5816085BDEEE63C
:1024D000F0E0808181608083E1E8F0E0108280811B
:1024E00082608083808181608083E0E8F0E0808189
:1024F00081608083E1EBF0E0808184608083E0EBA9
:10250000F0E0808181608083E1E9F0E08081826099
:102510008083808181608083E0E9F0E08081816058
:102520008083E1EAF0E08081826080838081816045
:102530008083E0EAF0E0808181608083E1E2F1E085
:10254000808182608083808181608083E0E2F1E02D
:10255000808181608083EAE7F0E08081846080830D
:1025600080818260808380818160808380818068B7
:1025700080831092C10008951F93CF93DF93182F8B
:10258000EB0161E016D1209711F460E004C0CF3F69
:10259000D10531F461E0812FDF91CF911F9145C1C9
:1025A000E12FF0E0ED51FE4FE4914E2F50E0FA01A3
:1025B0003197E231F10508F09DC08827EE58FF4FB2
:1025C0008F4F0C9468B284B5806884BDC7BD97C036
:1025D00084B5806284BDC8BD92C08091800080684F
:1025E00080938000D0938900C093880088C0809138
:1025F0008000806280938000D0938B00C0938A001B
:102600007EC080918000886080938000D0938D0090
:10261000C0938C0074C08091B00080688093B0003B
:10262000C093B3006CC08091B00080628093B00012
:10263000C093B40064C08091900080688093900043
:10264000D0939900C09398005AC080919000806206
:1026500080939000D0939B00C0939A0050C08091CB
:102660009000886080939000D0939D00C0939C0060
:1026700046C08091A00080688093A0008091A00057
:102680008F7B8093A000D093A900C093A80037C08F
:102690008091A00080628093A000D093AB00C09393
:1026A000AA002DC08091A00088608093A000D093E4
:1026B000AD00C093AC0023C080912001806880935E
:1026C0002001D0932901C093280119C080912001D5
:1026D000806280932001D0932B01C0932A010FC008
:1026E00080912001886080932001D0932D01C093B8
:1026F0002C0105C0C038D1050CF04CCF46CFDF917E
:10270000CF911F91089590E0FC013197E231F105DE
:1027100008F04EC08827EC57FF4F8F4F0C9468B2DB
:10272000809180008F7703C0809180008F7D80939F
:102730008000089580918000877FF9CF84B58F77DE
:1027400002C084B58F7D84BD08958091B0008F77DD
:1027500003C08091B0008F7D8093B0000895809178
:1027600090008F7707C0809190008F7D03C080918B
:102770009000877F8093900008958091A0008F77CC
:1027800007C08091A0008F7D03C08091A000877F4B
:102790008093A0000895809120018F7707C08091D9
:1027A00020018F7D03C080912001877F80932001CD
:1027B0000895CF93DF9390E0FC01E75DFD4F2491F6
:1027C000FC01E159FD4F8491882361F190E0880F6D
:1027D000991FFC01E751FD4FC591D491FC01E153D4
:1027E000FD4FA591B491611109C09FB7F8948881FC
:1027F000209582238883EC912E230BC0623061F4F4
:102800009FB7F8943881822F809583238883EC9139
:102810002E2B2C939FBF06C08FB7F894E8812E2BE8
:1028200028838FBFDF91CF9108951F93CF93DF93BC
:10283000282F30E0F901ED51FE4F8491F901E75D59
:10284000FD4FD491F901E159FD4FC491CC23C1F062
:10285000162F811158DFEC2FF0E0EE0FFF1FE15330
:10286000FD4FA591B4918FB7F894111105C09C91BB
:10287000ED2FE095E92302C0EC91ED2BEC938FBF97
:10288000DF91CF911F910895CF93DF93282F30E0F0
:10289000F901ED51FE4F8491F901E75DFD4FD491AF
:1028A000F901E159FD4FC491CC2389F081112BDF4F
:1028B000EC2FF0E0EE0FFF1FEB54FD4FA591B4910C
:1028C000EC91ED2381E090E021F480E002C080E013
:1028D00090E0DF91CF91089508951F920F920FB667
:1028E0000F9211240BB60F922F933F934F935F9348
:1028F0006F937F938F939F93AF93BF93EF93FF93C8
:10290000E0910402F09105021995FF91EF91BF91BA
:10291000AF919F918F917F916F915F914F913F9177
:102920002F910F900BBE0F900FBE0F901F90189518
:102930001F920F920FB60F9211240BB60F922F9386
:102940003F934F935F936F937F938F939F93AF9337
:10295000BF93EF93FF93E0910602F0910702199560
:10296000FF91EF91BF91AF919F918F917F916F9167
:102970005F914F913F912F910F900BBE0F900FBE23
:102980000F901F9018951F920F920FB60F9211245F
:102990000BB60F922F933F934F935F936F937F9359
:1029A0008F939F93AF93BF93EF93FF93E0910802B0
:1029B000F09109021995FF91EF91BF91AF919F910D
:1029C0008F917F916F915F914F913F912F910F90D8
:1029D0000BBE0F900FBE0F901F9018951F920F9275
:1029E0000FB60F9211240BB60F922F933F934F9374
:1029F0005F936F937F938F939F93AF93BF93EF9367
:102A0000FF93E0910A02F0910B021995FF91EF916B
:102A1000BF91AF919F918F917F916F915F914F91F6
:102A20003F912F910F900BBE0F900FBE0F901F90F4
:102A300018951F920F920FB60F9211240BB60F929A
:102A40002F933F934F935F936F937F938F939F93B6
:102A5000AF93BF93EF93FF93E0910002F0910102D7
:102A60001995FF91EF91BF91AF919F918F917F91B8
:102A70006F915F914F913F912F910F900BBE0F90EF
:102A80000FBE0F901F9018951F920F920FB60F92C6
:102A900011240BB60F922F933F934F935F936F9335
:102AA0007F938F939F93AF93BF93EF93FF93E091A7
:102AB0000202F09103021995FF91EF91BF91AF913E
:102AC0009F918F917F916F915F914F913F912F9146
:102AD0000F900BBE0F900FBE0F901F9018951F9276
:102AE0000F920FB60F9211240BB60F922F933F93B4
:102AF0004F935F936F937F938F939F93AF93BF9306
:102B0000EF93FF93E0910C02F0910D021995FF9164
:102B1000EF91BF91AF919F918F917F916F915F9155
:102B20004F913F912F910F900BBE0F900FBE0F90C2
:102B30001F9018951F920F920FB60F9211240BB68B
:102B40000F922F933F934F935F936F937F938F9346
:102B50009F93AF93BF93EF93FF93E0910E02F09199
:102B60000F021995FF91EF91BF91AF919F918F91B6
:102B70007F916F915F914F913F912F910F900BBE7D
:102B80000F900FBE0F901F90189508954F925F926F
:102B90006F927F92AF92BF92CF92DF92EF92FF92AD
:102BA0000F931F93CF93DF93CDB7DEB729013A017F
:102BB0009B01AC0124193509460957098A899B896B
:102BC000AC89BD89BC01CD016A197B098C099D09BD
:102BD0000E94F4B1A8019701241935094609570943
:102BE0000E944CB2CA01B9016A0D7B1D8C1D9D1D4E
:102BF000DF91CF911F910F91FF90EF90DF90CF90D9
:102C0000BF90AF907F906F905F904F900895089520
:102C100051DCFDDF0E947DADC0E0D0E00E9406AE39
:102C20002097E1F30E940000F9CFCF93C82F0E94B4
:102C30002D33CC2359F024982C9A65E070E080E085
:102C400090E0F4DB0E94AC5E149A03C0249A2C98A6
:102C50001498CF91089580E0E8CFCF92DF92EF9261
:102C6000FF926B017C0183E3C816D104E104F104F7
:102C700068F082E3C81AD108E108F10862E370E065
:102C800080E090E0D3DB0E943227EDCFC701B60190
:102C9000CDDBFF90EF90DF90CF900C943227CF9355
:102CA000DF93FC018491EF012196882319F064D50C
:102CB000FE01F8CFDF91CF9108958AE093E0EFCF46
:102CC00080E193E0ECCF0F931F93CF93DF931F929C
:102CD0001F92CDB7DEB769837A83E1DF6981062F62
:102CE0007A81172FF80181918F01882311F044D543
:102CF000F9CF0F900F90DF91CF911F910F91089511
:102D0000CF93DF93EB01CBDF6AE070E0CE01DF9180
:102D1000CF9125C6CF92DF92EF92FF926A017B019D
:102D2000BEDF4AE050E0C701B601FF90EF90DF90B0
:102D3000CF9004C6CF92DF92EF92FF926A017B019F
:102D4000AEDF42E050E0C701B601FF90EF90DF90A8
:102D5000CF9090C6CF92DF92EF92FF926A017B01F3
:102D60009EDF42E050E0C701B601FF90EF90DF9098
:102D7000CF9080C6CF93DF93EB0191DF6AE070E0E4
:102D8000CE01DF91CF9100C6CF92DF92EF92FF92FA
:102D90006A017B0184DF4AE050E0C701B601FF9081
:102DA000EF90DF90CF90EAC5811103C083E093E0FC
:102DB00002C087E093E073CFF7DF8AE0DDC40895B7
:102DC000CF93DF931F921F92CDB7DEB72091E50E10
:102DD0003091E60ECE0101962115310519F48B5E76
:102DE0009E4002C0821B930B9A83898389819A81BA
:102DF0000F900F90DF91CF91089581E0089581E0C9
:102E000008958F929F92AF92BF92CF92DF92EF92EE
:102E1000FF920F931F93CF93DF931F921F92CDB713
:102E2000DEB76C0159018B017B01E40EF51E0E1516
:102E30001F0569F1F60180809180F80161918F0191
:102E40006983C4016A830E94BBB96A81681779F0FB
:102E5000C4010E94C3B9C4010E94BBB999818917FA
:102E600031F02BDF87E193E01ADF81E011C041E010
:102E700050E0BE016F5F7F4FC5010E948DA9F60132
:102E8000408151814F5F5F4F51834083D0CF80E0BD
:102E90000F900F90DF91CF911F910F91FF90EF90C6
:102EA000DF90CF90BF90AF909F908F9008958F92BA
:102EB0009F92AF92BF92CF92DF92EF92FF920F93C9
:102EC000CF93DF931F92CDB7DEB75C016B017A0120
:102ED0004901F501808191810E94BBB9898300235A
:102EE00011F0F601808341E050E0BE016F5F7F4F3B
:102EF000C4010E948DA9F501408151814F5F5F4F50
:102F000051834083FFEFCF1ADF0A81E0E81AF1080E
:102F100001F780E00F90DF91CF910F91FF90EF903C
:102F2000DF90CF90BF90AF909F908F900895CF93F8
:102F3000DF93CDB7DEB760970FB6F894DEBF0FBE54
:102F4000CDBF9C01E62F660FFF0BED51FE4FE491C4
:102F50008E2F90E0FC013797EC30F10508F0B5C0FA
:102F60008827EA56FF4F8F4F0C9468B291E001C05A
:102F700090E080E1FE013196DF01482F1D924A95D5
:102F8000E9F740EB50E05A83498341EB50E05C8322
:102F90004B8343EB50E058874F8344EB50E05A8714
:102FA000498742E04F87988B98C081E001C080E05C
:102FB0008F5F01C080E040E950E0D90111965C9339
:102FC0004E9341E950E013965C934E93129742E979
:102FD00050E015965C934E93149748E950E017968D
:102FE0005C934E9316974AE950E019965C934E9382
:102FF00018974CE950E01B965C934E931A9746E95C
:1030000050E01D965C934E931C9793E058C081E06E
:1030100001C080E08F5F01C080E040EA50E0F9012C
:103020005183408341EA50E05383428342EA50E0B7
:103030005583448348EA50E0578346834AEA50E088
:10304000518740874CEA50E05387428746EA50E078
:103050005587448794E09687878744C081E001C004
:1030600080E08F5F01C080E040E251E0D90111961D
:103070005C934E9341E251E013965C934E9312970A
:1030800042E251E015965C934E93149748E251E06A
:1030900017965C934E9316974AE251E019965C930B
:1030A0004E9318974CE251E01B965C934E931A97FF
:1030B00046E251E01D965C934E931C9795E01E9658
:1030C0009C931E971F968C930DC080E1FE01319654
:1030D000DF01482F1D924A95E9F7D90101900D9221
:1030E0008A95E1F7C90160960FB6F894DEBF0FBE6E
:1030F000CDBFDF91CF9108952F923F924F925F9273
:103100006F927F928F929F92AF92BF92CF92DF92F7
:10311000EF92FF920F931F93CF93DF93CDB7DEB75C
:10312000AE970FB6F894DEBF0FBECDBF1B01682F60
:10313000CE014196FCDE4B895C895EA34DA35F8D79
:103140005AA3552309F413C1523021F0CC24CA9458
:10315000DC2C03C0CC24CA94D12C2114310409F4F2
:10316000DBC09601322F2227330F330F330F40E09D
:1031700050E060E074E284EF90E00E944CB2C9013C
:1031800001969CA38BA380E1EFE6F2E0DE011196AD
:1031900001900D928A95E1F7FE013196F8A7EFA311
:1031A00001E011E019A2AA24AA94B12C412C84E2D6
:1031B000582E84EF682E712CFAA1F230F1F0033012
:1031C00009F49FC0053009F49CC0EFA1F8A58281E5
:1031D0009381289E9001299E300D389E300D112438
:1031E00040E050E0C301B2010E944CB2C901019716
:1031F00036952795009729F40AC02FEF30E08FEF1E
:1032000090E07C01C816D90628F4760103C0EE24AC
:10321000E394F12C2115310531F04901C216D30692
:1032200028F4460103C088248394912CEFA1F8A5CB
:103230000280F381E02DFEA7EDA7C70101968E9FC6
:1032400090018F9F300D9E9F300D112440E050E083
:10325000C301B2010E944CB229A73AA74BA75CA7B1
:103260008DA59EA5880F991F889D9001899D300D81
:10327000989D300D112440E050E0C301B2010E943E
:103280004CB28BA19CA18219930997FF03C0919521
:103290008195910969A57AA56219730977FF03C021
:1032A000719561957109F901E219F309F7FF03C0FE
:1032B000F195E195F1096817790774F4E617F707B6
:1032C0005CF0FAA1F230A1F449A55AA55CA34BA386
:1032D00009A3570113E015C0E817F90794F48AA170
:1032E0003CA32BA309A35401823051F411E009C07F
:1032F000E9A5FAA5FCA3EBA309A357011EE001C0B1
:103300001AE00F5F4FA158A54E5F5F4F58A74FA31C
:10331000083009F051CF05C011E019A2AA24AA94DF
:10332000B12CE989FA898081912F93708C7F892B48
:103330008083EDA1FEA12081812F90E09595879556
:103340009595879543E0880F991F4A95E1F7122FCD
:10335000177E812B80838081887FC9A0C82AC08284
:10336000FAA1F23021F0ED8DFE8DB182A082AE96F1
:103370000FB6F894DEBF0FBECDBFDF91CF911F9186
:103380000F91FF90EF90DF90CF90BF90AF909F9004
:103390008F907F906F905F904F903F902F90089507
:1033A0004F925F926F927F92AF92BF92CF92DF92D5
:1033B000EF92FF920F931F93CF93DF93CDB7DEB7BA
:1033C00060970FB6F894DEBF0FBECDBF61157105D3
:1033D00011F4622F05C064177507B9F461E0622724
:1033E00060960FB6F894DEBF0FBECDBFDF91CF91D0
:1033F0001F910F91FF90EF90DF90CF90BF90AF9013
:103400007F906F905F904F9010CAD22E8A017B01FF
:10341000682FCE0101968BDD5F85E889552309F47D
:103420004BC0A981BA814C91F0E083E090E0BC01EF
:103430006E1B7F0B660F771F2D2D30E02E5F3F4FE9
:10344000062E01C0220F0A94EAF701C0880F6A9580
:10345000EAF780958423282B2C93523029F0AD85F0
:10346000BE85CD90DC9003C0CC24CA94D12C339679
:10347000EE0FFF1F81E090E08C0F9D1FE80FF91FFA
:10348000A080B180B70180E090E00E948CAF2B015A
:103490003C01C601B8010E9403B280E090E00E94A6
:1034A0008CAF9B01AC01C301B2010E942AB10E9402
:1034B0005BAFF5017183608360960FB6F894DEBF51
:1034C0000FBECDBFDF91CF911F910F91FF90EF9075
:1034D000DF90CF90BF90AF907F906F905F904F90B4
:1034E000089598E288E10FB6F894A895809360005B
:1034F0000FBE9093600008951F920F920FB60F9227
:1035000011240BB60F920F931F932F933F934F935A
:103510005F936F937F938F939F93AF93BF93CF935B
:10352000DF93EF93FF930091CD03D091CC0311E093
:103530001D0F1F77C091C6009091A803492F092E37
:10354000000C550B660B770B4C30510508F046C04C
:10355000FA018827EE55FF4F8F4F0C9468B2CD3497
:1035600041F0CE34B9F481E005C0CA3330F0CD3437
:1035700071F582E08093A8034AC0C03308F047C0C9
:10358000C03209F444C0CD3211F541C0C13329F035
:10359000C43329F0C032D9F43AC083E0EBCF88E0DD
:1035A000E9CFC03321F0C13391F486E0E3CF84E06A
:1035B000E1CFC83361F485E0DDCFC23341F487E069
:1035C000D9CFC13321F489E0D5CFC03311F08BE0DE
:1035D000D1CF8AE0CFCFCA30D1F417C0CA30B9F406
:1035E00080915704882389F0973049F09A3059F038
:1035F000953059F410926D021092E40E06C081E0ED
:103600008093580402C00E9454AC1092A803101773
:1036100031F0ED2FF0E0E453FC4FC283D12FD09373
:10362000CC03FF91EF91DF91CF91BF91AF919F912B
:103630008F917F916F915F914F913F912F911F914A
:103640000F910F900BBE0F900FBE0F901F9018950B
:103650001F920F920FB60F9211240BB60F922F9359
:103660008F939F93EF93FF938091AB032091AA03D5
:10367000281791F0E82FF0E0E655FC4F92818F5F1C
:103680008F719093C6008093AB039091C0009064BB
:103690009093C000281305C08091C1008F7D809356
:1036A000C100FF91EF919F918F912F910F900BBED1
:1036B0000F900FBE0F901F9018959B01AC011092B8
:1036C000C000211581EE380741055105C1F08091F8
:1036D000C00082608093C00060E079E08DE390E0FC
:1036E0000E944CB2CA01B901615071098109910966
:1036F00022E030E040E050E00E944CB202C020E105
:1037000030E03093C5002093C4008091C1008061F7
:103710008093C1008091C10088608093C100809136
:10372000C10080688093C1008091C1008F7D80932B
:10373000C1001092A90308958091CC039091CD030C
:10374000891759F0E92FF0E0E453FC4F82819F5F25
:103750009F779093CD0390E008958FEF9FEF0895AA
:10376000ECECF3E0808181830895ECECF3E0808160
:103770009181891B8F77089591E09093A90390918F
:10378000C10095FD04C09091C00095FD40C02091FE
:10379000AA032F5F2F710FB607FC34C09091AB03C3
:1037A000291322C09091C00095FF1DC09091AB03DA
:1037B0004091AA03491791F0E92FF0E0E655FC4F3C
:1037C00032819F5F9F713093C6009093AB0330911D
:1037D000C00030643093C000491305C09091C1000F
:1037E0009F7D9093C100DACFE091AA03F0E0E65507
:1037F000FC4F82832093AA038091C1008062809352
:10380000C10008959091AB032913EECFFBCF8093B5
:10381000C6008091C00080648093C00008958DE050
:10382000ABDF8AE0A9CFCF93DF93EC0189918823A6
:1038300011F0A2DFFBCFDF91CF91F1CF8F929F925A
:10384000AF92BF92EF92FF921F93CF93DF93CDB7CA
:10385000DEB7A0970FB6F894DEBF0FBECDBF6115DF
:1038600071058105910579F110E0842E912CA12C30
:10387000B12CEE24E394F12CEC0EFD1EE10EF11CB4
:1038800017FDFA94A50194010E942AB2F701608302
:10389000B901CA011F5F611571058105910549F7DD
:1038A000115010F1E1E0F0E0EC0FFD1FE10FF11D10
:1038B00017FDFA9580818A3010F097E301C090E3FC
:1038C000890F5ADFEDCF80E3A0960FB6F894DEBFE4
:1038D0000FBECDBFDF91CF911F91FF90EF90BF90B2
:1038E000AF909F908F9048CFA0960FB6F894DEBF10
:1038F0000FBECDBFDF91CF911F91FF90EF90BF9092
:10390000AF909F908F900895CF92DF92EF92FF92A9
:103910006B017C0197FF0AC08DE22EDFF094E094EA
:10392000D094C094C11CD11CE11CF11C4AE0C70119
:10393000B601FF90EF90DF90CF9080CF41155105F9
:1039400011F4862F19CF4A30510509F4DDCF76CF17
:10395000AB01682F880F770B880B990BEFCFAB016A
:10396000BC01990F880B990BE9CFAB01BC01990FF2
:10397000880B990BE3DF53CFE1DF51CF41155105A0
:1039800011F4862FF9CE5ACFAB01BC0180E090E054
:10399000F5CF8F929F92AF92BF92CF92DF92EF922C
:1039A000FF92CF936B017C01B42E20E030E0A9019F
:1039B0000E94ECAE87FF06C08DE2DEDEF7FAF094DF
:1039C000F7F8F094C0E060E070E080E09FE3CB1592
:1039D00041F02DEC3CEC4CEC5DE30E942AB1CF5F52
:1039E000F6CF9B01AC01C701B6010E9413AE6B017B
:1039F0007C010E9460AF4B015C014AE01FDFCC23D9
:103A000079F1C501B4010E948CAF9B01AC01C701E3
:103A1000B6010E9412AE6B017C018EE2ADDE20E0A9
:103A200030E040E251E4C701B6010E942AB14B01E7
:103A30005C010E945BAF6B01770FEE08FF08C701C6
:103A4000B60162DFC701B6010E948EAF9B01AC01D7
:103A5000C501B4010E9412AE6B017C01C150F9F6A0
:103A6000CF91FF90EF90DF90CF90BF90AF909F905D
:103A70008F9008958ECFCF92DF92EF92FF920F93A7
:103A80001F930E94E511009152041091530420915C
:103A90005404309155046B017C01C01AD10AE20A2A
:103AA000F30AF7FC52C08B019C010C53164F2F4FA9
:103AB0003F4F0093520410935304209354043093C7
:103AC0005504079B39C0069B37C0059B35C0209124
:103AD000DC04211131C0049B2FC000914E041091D1
:103AE0004F04209150043091510401151105210516
:103AF000310571F0DC01CB01801B910BA20BB30BE4
:103B000080569A4EA109B109B7FF02C068E701C00B
:103B100060E0609356048091020161118095887085
:103B20008093000170E086E01F910F91FF90EF906D
:103B3000DF90CF900C94BC1260934E0470934F04AE
:103B40008093500490935104C8CF1F910F91FF9020
:103B5000EF90DF90CF90089581E08093570408950F
:103B6000909130068917D1F00E94AC5E80913006AA
:103B7000882359F04AE552E066E572E082E592E07A
:103B80000E946F5D1092300607C081E0809330067E
:103B900082E592E00E94DD5D0C948552089580E0FC
:103BA000DFDF8CE096E00C949FA72F923F924F921C
:103BB0005F926F927F928F929F92AF92BF92CF92BD
:103BC000DF92EF92FF920F931F93CF93DF93CDB7C6
:103BD000DEB7A2970FB6F894DEBF0FBECDBF8091BF
:103BE0006504102F1827DB018D909D90AD90BC903F
:103BF00089288A288B2809F41E7FFA014081518187
:103C000062817381452B462B472B09F41D7FD90117
:103C10004D915D916D917C91452B462B472B09F47D
:103C20001B7F81278093650460917604662309F4E5
:103C300052C1FC8AEB8A70E080E090E00E948CAF79
:103C400020E030E04FE753E40E94F3AE69837A83CB
:103C50008B839C838091100290911102A09112029B
:103C6000B09113028D879E87AF87B88BA7E7B4E02A
:103C7000BA8BA98BFE82ED82E9E5F4E0FAA3E9A311
:103C800081E696E09C878B87212C312CC12CD12C8E
:103C90007601802F90E0A0E0B0E0898F9A8FAB8F03
:103CA000BC8F812F90E0A0E0B0E08D8F9E8FAF8F12
:103CB000B8A389819A81AB81BC81B0588F839887E2
:103CC000A987BA87A989BA898D909D90AD90BD903A
:103CD000BA8BA98B20E030E0A901C501B4010E9494
:103CE000ECAE882309F4E0C0898D9A8DAB8DBC8D34
:103CF000022C04C0B695A795979587950A94D2F79C
:103D00002C013D01E1E04E225524662477248D8D5F
:103D10009E8DAF8DB8A1022C04C0B695A79597953E
:103D200087950A94D2F780FF3BC0A9A1BAA16D91F3
:103D30007D918D919C910E948EAF6D8B7E8B8F8B30
:103D4000988F411451046104710429F0BF81A88542
:103D5000E9851A8504C0B981AA81EB811C81A5017E
:103D600094016B2F7A2F8E2F912F0E942AB1EB8511
:103D7000FC8524893589468957890E942AB19B018F
:103D8000AC016D897E898F89988D0E9413AE0E9447
:103D90005BAFA9A1BAA16D937D938D939C9313976B
:103DA000E9A1FAA180809180A280B380811491045E
:103DB000A104B10409F478C020E030E0A9016D85C8
:103DC0007E858F8598890E94ECAE882309F447C0D0
:103DD000D501C4018827B7FD83959927AA27BB275A
:103DE0004816590609F060C020E030E0A901C7017B
:103DF000B6010E94ECAE81111EC02D853E854F8517
:103E00005889AB89BC891D966D917D918D919C914E
:103E100050970E94F3AE6B017C0120E030E040E857
:103E20005FE30E94EFB0181634F4C12CD12C80E867
:103E3000E82E8FE3F82EC501B4010E948EAF9B01DE
:103E4000AC01C701B6010E942AB10E94D9AE0E94FE
:103E50005BAF611571058105910519F425C0C50198
:103E6000B4012B013C0197FF07C0442455243201C3
:103E7000461A570A680A790AED81FE810589168972
:103E80002789308D400E511E621E731E458A568A48
:103E9000678A708E861A970AA80AB90AE9A1FAA158
:103EA00080829182A282B382FFEF2F1A3F0A8D8116
:103EB0009E8104969E838D83A9A1BAA11496BAA36C
:103EC000A9A3EB85FC853496FC87EB87F3E02F16DE
:103ED000310409F0F7CEA2960FB6F894DEBF0FBEFC
:103EE000CDBFDF91CF911F910F91FF90EF90DF90A9
:103EF000CF90BF90AF909F908F907F906F905F908A
:103F00004F903F902F9008954F925F926F927F92C3
:103F10008F929F92AF92BF92CF92DF92EF92FF92D9
:103F2000CF93DF93CDB7DEB728970FB6F894DEBFF7
:103F30000FBECDBF809169048F3F09F45FC08090B0
:103F40005A0290905B02A0905C02B0905D02412CFE
:103F5000512C80E8682E8FE3782EC0905A02D090C2
:103F60005B02E0905C02F0905D0220E030E040E017
:103F70005FE3C501B4010E9413AE9B01AC01C70110
:103F8000B6010E94ECAE87FF1AC01C9918C0498286
:103F90005A826B827C822AE037ED43EA5BE3C701F9
:103FA000B6010E9413AE6D837E838F839887BE0116
:103FB0006F5F7F4FCE0105960E941E54CECFA501A4
:103FC0009401C701B6010E9412AE9B01AC01609141
:103FD00072047091730480917404909175040E942E
:103FE00013AE60937204709373048093740490937F
:103FF0007504809169048F5F8093690428960FB6D9
:10400000F894DEBF0FBECDBFDF91CF91FF90EF9050
:10401000DF90CF90BF90AF909F908F907F906F90E8
:104020005F904F9008950F931F93CF93DF931F924C
:10403000CDB7DEB78C0181E493E069830E944F160F
:10404000C8010E944F166981662339F08AE00F90FB
:10405000DF91CF911F910F918FCB0F90DF91CF9177
:104060001F910F91089561E088E393E0DCCF61E058
:1040700081E393E0D8CFFB01DC0112964D915D9175
:104080006D917C911597411551056105710599F068
:1040900080819181A281B381841B950BA60BB70B04
:1040A00080959095A095B0958827B7FD8395992721
:1040B000AA27BB27089580E00895811109C0CB018C
:1040C0006F3F710519F010F08FEF90E08093EF04CF
:1040D00008958F3F49F097E18902F0011124E051E2
:1040E000FB4F828590E008958091DC0490E0089574
:1040F0002F923F924F925F926F927F928F929F92F8
:10410000AF92BF92CF92DF92EF92FF920F931F93E5
:10411000CF93DF93CDB7DEB728970FB6F894DEBF05
:104120000FBECDBF6091F8047091F9044090F40483
:104130005090F5046090F6047090F70461157105D5
:10414000A1F0072E000C880B990B0E948EAFA301E3
:1041500092010E9412AE6B017C0120E030E040E24F
:1041600051EC0E94ECAE87FF07C081E08093B7045A
:10417000C12CD12C760101C120E030E040E251E4B5
:10418000C701B6010E94EFB0181654F481E0809385
:10419000B704C12CD12C9FE7E92E93E4F92EEDC092
:1041A0008091B704882391F01092B3041092B40464
:1041B0001092B5041092B6041092AF041092B0049D
:1041C0001092B1041092B2041092B7048090AF0420
:1041D0009090B004A090B104B090B204A3019201F9
:1041E0006091A3047091A4048091A5049091A60409
:1041F0000E9412AE209103053091040540910505FF
:10420000509106050E942AB1A50194010E9412AEA8
:1042100020ED3CEC4CE45DE30E942AB19B01AC0133
:10422000C501B4010E9413AE4B015C016093AF0461
:104230007093B0048093B1049093B2048091FF0412
:1042400090910005A0910105B091020589839A83A0
:10425000AB83BC832091B3043091B4044091B50486
:104260005091B604C701B6010E9413AE162F78878D
:104270008F83092F20E030E0A9010E94ECAE87FD7A
:104280001DC029813A814B815C8160E070E08FE73D
:1042900093E40E94F3AE1B018D839E839B01AC01CE
:1042A000612F78858F81902F0E94EFB0181654F4FB
:1042B000122D38869D819F830E8104C010E01886E0
:1042C0001F8200E0812F9885AF81B02F8093B304C7
:1042D0009093B404A093B504B093B6042091FB046A
:1042E0003091FC044091FD045091FE04C701B601D9
:1042F0000E942AB16B017C016093A7047093A8040B
:104300008093A9049093AA04212F38854F81502FC0
:1043100069817A818B819C810E942AB19B01AC01C9
:104320006093AB047093AC048093AD049093AE049F
:10433000C701B6010E9413AEA50194010E9413AEFD
:104340006B017C0120E030E0A9010E94ECAE87FD0A
:1043500011C020E030E04FE753E4C701B6010E94EE
:10436000EFB0181654F4C12CD12C8FE7E82E83E45B
:10437000F82E03C0C12CD12C76014092A304509298
:10438000A4046092A5047092A604C701B601289601
:104390000FB6F894DEBF0FBECDBFDF91CF911F9156
:1043A0000F91FF90EF90DF90CF90BF90AF909F90D4
:1043B0008F907F906F905F904F903F902F900895D7
:1043C0002F923F924F925F926F927F928F929F9225
:1043D000AF92BF92CF92DF92EF92FF920F931F9313
:1043E000CF93DF9300D01F92CDB7DEB74090E104AA
:1043F0005090E2046090E3047090E4048091D6044D
:104400009091D704A091D804B091D90489839A835C
:10441000AB83BC836091DA047091DB04072E000C3F
:10442000880B990B0E948EAF29813A814B815C8168
:104430000E9412AE4B015C0120919F043091A004B8
:104440004091A1045091A2040E9413AED62EE72EF3
:10445000F82EC92E20E030E0A9010E94ECAE87FDC5
:104460001BC0A301920160E070E08FE793E40E941B
:10447000F3AE1B01182F092F9B01482F592F6D2DCB
:104480007E2D8F2D9C2D0E94EFB018164CF4D22C4F
:10449000E32CF12EC02E04C0D12CE12CF12CC12C28
:1044A0008D2D9E2DAF2DBC2D80939F049093A00445
:1044B000A093A104B093A2042091DD043091DE0406
:1044C0004091DF045091E004C501B4010E942AB17B
:1044D0004B015C0160939304709394048093950462
:1044E000909396042D2D3E2D4F2D5C2DC301B201CE
:1044F0000E942AB12B013C016093970470939804A9
:104500008093990490939A04C0909B04D0909C044B
:10451000E0909D04F0909E0429813A814B815C815A
:1045200060918F0470919004809191049091920415
:104530000E9412AE2091E5043091E6044091E70418
:104540005091E8040E942AB1A70196010E9412AE80
:1045500020ED3CEC4CE45DE30E942AB19B01AC01F0
:10456000C701B6010E9413AE6B017C0160939B04EE
:1045700070939C0480939D0490939E0489819A81FA
:10458000AB81BC8180938F0490939004A09391049D
:10459000B0939204A3019201C501B4010E9413AE2D
:1045A000A70196010E9413AE6B017C0120E030E070
:1045B000A9010E94ECAE87FD11C020E030E04FE77A
:1045C00053E4C701B6010E94EFB0181654F4C12C91
:1045D000D12C8FE7E82E83E4F82E03C0C12CD12C18
:1045E0007601C701B6010F900F900F900F90DF91E9
:1045F000CF911F910F91FF90EF90DF90CF90BF90E0
:10460000AF909F908F907F906F905F904F903F9072
:104610002F9008954F925F926F927F928F929F9208
:10462000AF92BF92CF92DF92EF92FF920F931F93C0
:10463000CF93DF933C01C62F662399F00E9460164A
:104640006AE070E08C2F90E08AD98AE993E00E94BA
:104650004F1680E090E00E9499AC60E070E0CB01E2
:1046600088C0B0E2A0E06A2F70E0AB014B0F511D93
:10467000559547954115510559F4E7E8F7E06591DF
:104680007491072E000C880B990B0E948EAF71C09D
:104690004A1711F04B130BC0E3E0F8E065917491F9
:1046A000072E000C880B990B0E948EAF62C0CA01C6
:1046B0000197880F991F880F991FFC01EB57F84F3E
:1046C000059114919A01220F331F220F331FF90114
:1046D000EB57F84FC591D4916016710614F4B42FBE
:1046E000C4CFA42FC615D7050CF4BDCF8957984F5A
:1046F000FC01E590F490F901E957F84FC590D4908A
:10470000B7010F2C000C880B990B0E948EAF4B0148
:104710005C01B301601B710B072E000C880B990B19
:104720000E948EAF2B013C01B6016E197F09072E46
:10473000000C880B990B0E948EAF9B01AC01C3014A
:10474000B2010E942AB16B017C01C01BD10BBE01DA
:10475000DD0F880B990B0E948EAF9B01AC01C70146
:10476000B6010E94F3AE9B01AC01C501B4010E94E9
:1047700013AEDF91CF911F910F91FF90EF90DF90DB
:10478000CF90BF90AF909F908F907F906F905F90F1
:104790004F9008954F925F926F927F928F929F9267
:1047A000AF92BF92CF92DF92EF92FF920F931F933F
:1047B000CF93DF933C01BAE3A0E06A2F70E0AB0136
:1047C0004B0F511D559547954115510559F4EFE98A
:1047D000F6E065917491072E000C880B990B0E94EE
:1047E0008EAF71C04A1711F04B130BC0E3E8F7E02E
:1047F00065917491072E000C880B990B0E948EAF67
:1048000062C0CA010197880F991F880F991FFC0188
:10481000E356F94F059114919A01220F331F220F8D
:10482000331FF901E356F94FC591D4916016710613
:1048300014F4B42FC4CFA42FC615D7050CF4BDCFE4
:104840008156994FFC01E590F490F901E156F94F3A
:10485000C590D490B7010F2C000C880B990B0E94C7
:104860008EAF4B015C01B301601B710B072E000C76
:10487000880B990B0E948EAF2B013C01B6016E197B
:104880007F09072E000C880B990B0E948EAF9B01AD
:10489000AC01C301B2010E942AB16B017C01C01BB3
:1048A000D10BBE01DD0F880B990B0E948EAF9B01CF
:1048B000AC01C701B6010E94F3AE9B01AC01C5017A
:1048C000B4010E9413AEDF91CF911F910F91FF9021
:1048D000EF90DF90CF90BF90AF909F908F907F90A0
:1048E0006F905F904F900895CF93DF93C0EFD4E027
:1048F00060E08A819B818EDE6C837D838E839F83C3
:10490000C2EDD4E08A819B8145DF6C837D838E83F9
:104910009F83A8951092C804DF91CF9108956D9A56
:10492000759880910101806180930101809102015D
:104930008071809300018091010188608093010162
:10494000809102018870809300019D9AA5988091C2
:1049500001018062809301016AE770E088E00E94B3
:104960007C18809101018860809301016AE770E002
:1049700086E00E947C1887ED80937A0010927E007A
:1049800010927D0080917E00816080937E008091F6
:104990007E00846080937E0080E888BD80916E00F8
:1049A000846080936E006AEF70E080E090E00E9487
:1049B000161285E090E090931C0280931B0260E049
:1049C000809117029091180225DE20E030E040EA45
:1049D00050E40E94ECAE87FF0AC0809117029091CC
:1049E000180240979093180280931702E8CF81E352
:1049F00091E090931E0280931D0260E08091190265
:104A000090911A0207DE20E030E848E953E40E9462
:104A1000EFB0181654F48091190290911A02409642
:104A200090931A0280931902E8CF8091210290910D
:104A30002202B0DE20E030E040EA50E40E94ECAE1A
:104A400087FF0AC0809121029091220240979093A3
:104A5000220280932102E9CF8091D0049091D10469
:104A600099DE20E030E046E153E40E94EFB01816F2
:104A700054F48091D0049091D10440969093D10445
:104A80008093D004E9CF0895CF92DF92EF92FF9206
:104A90008091F8049091F9040097B9F0C090F40463
:104AA000D090F504E090F604F090F7040D97BC0167
:104AB000990F880B990B0E948EAF9B01AC01C70127
:104AC000B6010E94ECAE87FD09C01092EB04109273
:104AD000EC041092ED041092EE041EC020E030E0D1
:104AE00040E050E4C701B6010E9413AE0E9460AFDF
:104AF0007093EA046093E9040E94E511DC01CB01A4
:104B0000805E914BAF4FBF4F8093EB049093EC04CA
:104B1000A093ED04B093EE04FF90EF90DF90CF9060
:104B20000895CF92DF92EF92FF928091DA049091F4
:104B3000DB040097B9F0C090D604D090D704E09081
:104B4000D804F090D9040897BC01990F880B990BF1
:104B50000E948EAF9B01AC01C701B6010E94ECAE72
:104B600087FD09C01092CC041092CD041092CE049F
:104B70001092CF041EC020E030E040E050E4C701B6
:104B8000B6010E9413AE0E9460AF7093CB04609395
:104B9000CA040E94E511DC01CB01805A9541AF4F58
:104BA000BF4F8093CC049093CD04A093CE04B093D8
:104BB000CF04FF90EF90DF90CF90089580911D0279
:104BC00090911E020F971816190614F480E090E0D9
:104BD0009093F9048093F80480E056DF1092DB0490
:104BE0001092DA049EDF80911D0290911E020F97B1
:104BF0001816190614F480E090E09093F90480935D
:104C0000F80480E041DF1092FA0475981092DB04FA
:104C10001092DA041092DC04A5980895EF92FF92A6
:104C20000F931F93CF93C82F7B018A0180916E024F
:104C30008823D1F00E946016C7010E944F168CEBAA
:104C400094E00E944F16C7FD08C06AE070E08C2F08
:104C5000CC0F990B0E94AF1C04C088EB94E00E941B
:104C60004F168AE00E94BC1BA9DF8091B804811115
:104C70000DC081E08093B80410926E02C801CF91FC
:104C80001F910F91FF90EF900C9499ACCF911F91D1
:104C90000F91FF90EF9008958F3F19F043E954E092
:104CA00002C047EA54E061E874E0B8CF8F3F19F0E2
:104CB0004CE554E002C040E754E06AE474E0AECF53
:104CC0002F923F924F925F926F927F928F929F921C
:104CD000BF92CF92DF92EF92FF920F931F93CF93E9
:104CE000DF936C014B01B22E180127FD04C0C22FC7
:104CF000220FDD0B02C0C1E0D0E0FA0140805180FC
:104D000062807380CC0FDD1FCC0FDD1F8E01095731
:104D10001B4FA3019201F80160817181828193810F
:104D20000E94ECAE882391F0F801408251826282A9
:104D3000738211E020E030E0A901C301B2010E94BA
:104D4000EFB018160CF010E0F6011483F601848120
:104D50008230C9F0833009F456C0813009F070C048
:104D6000FE01E957FB4F2081318142815381F401DB
:104D700060817181828193810E94ECAE87FD60C069
:104D800082E0F6018483C957DB4FB70180E090E0F1
:104D90000E948CAF9B01AC01688179818A819B81E3
:104DA0000E9412AE9B01AC01F4016081718182818D
:104DB00093810E94EFB087FD15C00E94E5112B0181
:104DC0003C019101A8EEB3E00E9470B2DC01CB017E
:104DD000840D951DA61DB71DF60180839183A283C6
:104DE000B3832EC00E94E511F6010081118122815A
:104DF0003381DC01CB01801B910BA20BB30BB7FD00
:104E00001FC083E08483FFEFBF1619F04FE653E025
:104E100002C046E853E06FE573E08B2DDF91CF9140
:104E20001F910F91FF90EF90DF90CF90BF909F90D8
:104E30008F907F906F905F904F903F902F90EECE2D
:104E4000DF91CF911F910F91FF90EF90DF90CF9066
:104E5000BF909F908F907F906F905F904F903F900A
:104E60002F9008958F929F92AF92BF92CF92DF9230
:104E7000EF92FF920F931F93CF93DF93CDB7DEB7DF
:104E800028970FB6F894DEBF0FBECDBF80915804AF
:104E9000811117C08091C804811118C028960FB6DF
:104EA000F894DEBF0FBECDBFDF91CF911F910F9160
:104EB000FF90EF90DF90CF90BF90AF909F908F903A
:104EC000089580E090E00E9499ACE4CF0DDD0E944F
:104ED000E5114B015C016D837E838F839887609120
:104EE0001D0270911E02072E000C880B990B0E9468
:104EF0008EAF9B01AC016091F4047091F504809138
:104F0000F6049091F7040E94EFB0181634F443E3CE
:104F100054E063E274E080E081DE6091F804709117
:104F2000F904072E000C880B990B0E948EAF698341
:104F30007A838B839C833EE1E32EF12C0FE010E01B
:104F400020E0AE014F5F5F4F64EF74E083EC94E0CC
:104F5000B7DEC090F404D090F504E090F604F09031
:104F6000F70480911B0290911C02BC01990F880BE1
:104F7000990B0E948EAF9B01AC01C701B6010E9444
:104F8000EFB01816CCF460911D0270911E02072E2E
:104F9000000C880B990B0E948EAF9B01AC01C701DE
:104FA000B6010E94ECAE87FF07C080E0A1D80E9446
:104FB0005BAF7595679501C060E06093FA048091DE
:104FC000EB049091EC04A091ED04B091EE040097F5
:104FD000A105B10511F1881A990AAA0ABB0AB7FC02
:104FE0001CC06091E9047091EA0480E090E00E94A6
:104FF0008CAF9B01AC016091F4047091F504809139
:10500000F6049091F7040E94ECAE87FF85C04DE056
:1050100054E06EEF73E080E001DE20E030E046E136
:1050200053E46091D6047091D7048091D804909194
:10503000D9040E94EFB018160CF465C0BE016B5F76
:105040007F4F8AEC94E017D88823D9F06091CA0486
:105050007091CB0480E090E00E948CAF2091D60448
:105060003091D7044091D8045091D9040E94EFB0F8
:1050700018160CF04FC047EC53E068EB73E08FEF6D
:10508000CDDD6091DA047091DB04072E000C880BF3
:10509000990B0E948EAF69837A838B839C839AE0FD
:1050A000E92EF12C0FE010E02FEFAE014F5F5F4FC4
:1050B00066ED74E08EEB94E003DE8090D604909071
:1050C000D704A090D804B090D90420E030E040EAA2
:1050D00050E4C501B4010E94EFB087FD0AC020E092
:1050E00030E046E153E4C501B4010E94ECAE18166D
:1050F00024F460E06093DC04D1CE62D90E945BAFFF
:1051000075956795F7CF4AEE53E06AED73E08FEF40
:1051100085DD94CF06DDB5CF80E0B6DC7ECFE0EF55
:10512000F4E08081918193838283E2EDF4E08081D9
:1051300091819383828381E08093C80408951F93B3
:10514000CF93DF938091C804811101C0E8DF1092F2
:10515000F1041092F0041092D3041092D204C09182
:10516000F204D091F304D195C195D1098091F8044E
:105170009091F90411E0181619062CF08091FA04A8
:10518000811101C010E08091190290911A0291954D
:10519000819591098C179D0714F480E07DDD112322
:1051A00061F0809117029091180291958195910973
:1051B000C817D90714F480E079DD8091DA04909162
:1051C000DB04C1E0181619062CF08091DC04811173
:1051D00001C0C0E02091D4043091D5048091D00466
:1051E0009091D1048217930714F08FEF55DDCC23F3
:1051F00081F020912102309122028091D40490917B
:10520000D504821793072CF08FEFDF91CF911F9178
:105210004DCDDF91CF911F9108950F930FB70F934D
:1052200000916E000B7F00936E0078940F930BB784
:105230000F930CB70F921F922F933F934F935F934F
:105240006F937F938F939F93AF93BF93EF93FF934E
:105250001124C7D0FF91EF91BF91AF919F918F9192
:105260007F916F915F914F913F912F911F900F9080
:105270000CBF0F910BBF0F910460F89400936E0068
:105280000F910FBF0F911895CF93809116028F3712
:1052900090F08F579091FA0490938604992311F01F
:1052A000759A01C075989091DC04909385049923B8
:1052B00059F0A59A0AC090918604891708F075984C
:1052C00090918504891708F0A598805F8093160255
:1052D0009091840481E08927809384048091150251
:1052E00085301CF4C1E0C80F01C0C0E08230A1F1DC
:1052F00084F4882329F1813009F062C010927B0088
:1053000080E480937C0080917A00806480937A00AE
:1053100057C0843009F43EC094F1853009F050C084
:1053200090918304911102C080938304809183043F
:10533000815080938304882309F442C0C5E040C0B3
:10534000809114028F5F80311CF48093140238C066
:1053500010921402F4DE34C080917A0086FD2DC0D4
:1053600080917800909179002091F0043091F104BF
:10537000820F931F9093F1048093F00421C0109248
:105380007B0082E480937C0080917A00806480932B
:105390007A0016C080917A0086FD11C08091780055
:1053A000909179002091D2043091D304820F931F01
:1053B0009093D3048093D20403C0C2E001C0C4E040
:1053C000C09315020E947F348091AA069091AB068B
:1053D000009729F001979093AB068093AA06CF918E
:1053E000089552CF8F929F92AF92BF92CF92DF9249
:1053F000EF92FF921F93CF93DF93182FC0EFD4E06B
:1054000068857985072E000C880B990B0E948EAF5A
:105410006B017C018C809D80AE80BF8080E20E9409
:10542000BC1B84E50E94BC1B8AE30E94BC1B42E0BB
:1054300050E0C501B4010E943A1DB701A60183E501
:1054400093E00E949A1662E070E080E090E00E9493
:105450001612C2EDD4E068857985072E000C880B02
:10546000990B0E948EAF6B017C018C809D80AE8079
:10547000BF8080E20E94BC1B82E40E94BC1B8AE3C6
:105480000E94BC1B42E050E0C501B4010E943A1DDD
:10549000B701A60183E593E00E949A1662E070E0EE
:1054A00080E090E00E941612812F0E946920BC01CA
:1054B0008BE593E00E9480166A8570E086E593E0B4
:1054C000DF91CF911F91FF90EF90DF90CF90BF9031
:1054D000AF909F908F900C9480162F923F924F9296
:1054E0005F926F927F928F929F92AF92BF92CF9274
:1054F000DF92EF92FF920F931F93CF93DF93CDB77D
:10550000DEB7CB54D1090FB6F894DEBF0FBECDBFC6
:105510009A8389836B8B4CAB2A962FAF2A970E9474
:10552000E5116E8B7F8B888F998F332433942B8971
:105530002F3F29F0312C54E1E52EF12C03C04CE330
:10554000E42EF12CA981BA818D919D910D90BC9191
:10555000A02D88AB99ABAAABBBAB3110CAC49B8959
:10556000092F990F110BF80183E0EE0FFF1F8A95A9
:10557000E1F7E95EFD4F668177816F507109072E73
:10558000000C880B990B0E948EAF9B01AC0168A99F
:1055900079A98AA99BA90E94EFB01816ECF482E7BA
:1055A00096E0C55BDF4F0FB6F894DEBF0FBECDBFF0
:1055B000DF91CF911F910F91FF90EF90DF90CF90EF
:1055C000BF90AF909F908F907F906F905F904F9023
:1055D0003F902F900C944F168EE596E00E944F1648
:1055E000EDDA27E1209FC001219F900D1124FC01DD
:1055F000E051FB4F2FE7228780E090E0A0E5B1E487
:1056000026968CAF9DAFAEAFBFAF26979701A8EEA1
:10561000B3E00E9470B222966CAF7DAF8EAF9FAFA9
:1056200022979B01AC018E899F89A88DB98D280F87
:10563000391F4A1F5B1F2EAB3FAB48AF59AF81E00C
:1056400080936D02332021F027961FAE279704C068
:105650009B8927969FAF27978E889F88A88CB98CA7
:105660008FA298A6A9A6BAA62FE730E040E050E0A6
:105670002F87388B498B5A8B1A8E1B8E1C8E1D8E52
:10568000C12CD12C7601CF82D886E986FA86212CCE
:1056900030E43B874CE148A356E459A31AA21BA26D
:1056A0001CA21DA21FA6CAAEDBAEECAEFDAE3FE74C
:1056B000432E512C612C712C1BA61CA61DA61EA6C8
:1056C00081E08EA31D8A1C8A00E010E02B961FAE9D
:1056D0002B972C961FAE2C97AB89B7E1AB02C0017C
:1056E0001124FC01E051FB4FFF8FEE8F3A96299673
:1056F000FFAFEEAF29972CA9022E000C330B3DAB68
:105700002CAB80916D02882309F4B2C20E94E5118E
:105710006B837C838D839E838091C804882309F4E6
:1057200006C1E2D8332079F00091D6041091D70455
:105730003091D8042B963FAF2B974091D9042C96EB
:105740004FAF2C9713C0AE8DBF8D14960C9114974C
:1057500015961C9115971696BC912B96BFAF2B975B
:10576000EE8DFF8DF7812C96FFAF2C9798012B962D
:105770004FAD2B972C965FAD2C976AA17BA18CA186
:105780009DA10E94ECAE87FF0AC00AA31BA32B9623
:105790002FAD2B972CA32C963FAD2C973DA39801B2
:1057A0002B964FAD2B972C965FAD2C97622D7B855A
:1057B00088A199A10E94EFB0181654F4202E1B87DF
:1057C0002B964FAD2B9748A32C965FAD2C9759A3E2
:1057D0008EA1882309F455C0A981BA812D913D91EC
:1057E0004D915C91B8012B968FAD2B972C969FAD68
:1057F0002C970E94EFB018160CF099C04B815C8179
:105800006D817E81481959096A097B09DB01CA014A
:1058100088589341A109B109B7FD89C08F8598893E
:10582000A989BA8984199509A609B709B595A795D3
:1058300097958795332019F08093DC0405C029964D
:10584000EEADFFAD299780834BA75CA76DA77EA720
:10585000A981BA81BC91BAA3E981FA81F181FBA344
:10586000A981BA811296BC91BCA3E981FA81F38126
:10587000FDA32B813C814D815E812FA338A749A7D1
:105880005AA7A981BA812D913D914D915C91B801A2
:105890002B968FAD2B972C969FAD2C970E94ECAE3C
:1058A00087FF25C38B819C81AD81BE812FA138A547
:1058B00049A55AA5821B930BA40BB50BAC01BD01E6
:1058C000485853416109710977FD11C34C895D89BD
:1058D000452B09F0E8C18F859889A989BA89840D7B
:1058E000951DA61DB71DB595A7959795879533204E
:1058F00009F4F7C28093DC042C893D892F5F3F4F68
:105900003D8B2C8BA981BA812C901196BC91BB87C1
:10591000E981FA81F281F8A3A981BA811396BC9139
:10592000B9A38B809C80AD80BE80E1E0EEA320E037
:1059300030E040EA51E4A981BA816D917D918D9169
:105940009C910E9413AE9B01AC01B8012B968FADC8
:105950002B972C969FAD2C970E94EFB018162CF425
:105960008AEE95E00E944F1683C18B819C81AD81A8
:10597000BE812E893F89488D598D821B930BA40BC4
:10598000B50BB7FDA5C027968FAD27972BDD8AE015
:105990000E94BC1B8B819C81AD81BE818053984F3E
:1059A000AF4FBF4F8E8B9F8BA88FB98F9FA5911143
:1059B0006BC02AAD3BAD4CAD5DADB8012B968FAD44
:1059C0002B972C969FAD2C970E94EFB018160CF0D9
:1059D00041C020E030E040E050E4B8012B968FADAC
:1059E0002B972C969FAD2C970E9413AE6AAF7BAF7E
:1059F0008CAF9DAF2B813C814D815E8122968CAD19
:105A00009DADAEADBFAD2297280F391F4A1F5B1F5A
:105A10002EAB3FAB48AF59AF26962CAD3DAD4EAD4A
:105A20005FAD269768A979A98AA99BA90E9412AEA1
:105A30009B01AC0191E09FA7B8012B968FAD2B97EE
:105A40002C969FAD2C970E94EFB018160CF440C016
:105A50001FA63EC08B819C81AD81BE812EA93FA92E
:105A600048AD59AD821B930BA40BB50BB7FD30C0ED
:105A7000311003C041EC55E002C047ED55E062EB48
:105A800075E08B89CBD824C020E030E040EA51E4B7
:105A9000A981BA816D917D918D919C910E9412AEE8
:105AA0009B01AC01B8012B968FAD2B972C969FAD27
:105AB0002C970E94ECAE87FF0BC0311003C047E863
:105AC00055E002C04EE955E067E775E08B89A6D83E
:105AD0008B819C81AD81BE81880F991FAA1FBB1F3E
