:100000000C949E2D0C94DE2D0C94DE2D0C94DE2D84
:100010000C94DE2D0C94DE2D0C94DE2D0C94DE2D34
:100020000C94DE2D0D94BA880D94BA880D94BA887C
:100030000C94DE2D0C94DE2D0C94DE2D0C94DE2D14
:100040000C94DE2D0C9461AF0C94DE2D0C94DE2DFF
:100050000C94DE2D0D947B5D0C94DE2D0D94CB8ADB
:100060000C94DE2D0C94E1510C94AB510C94DE2DCC
:100070000C94DE2D0C94DE2D0C94DE2D0C94DE2DD4
:100080000C9459490C94DE2D0C94DE2D0C94DE2D2D
:100090000C94DE2D0C94DE2D0C94DE2D0C94DE2DB4
:1000A0000C94DE2D0C94DE2D0C942B490C94DE2D3B
:1000B0000C94DE2D0C94DE2D0C94DE2D0C94DE2D94
:1000C0000C94DE2D0C94DE2D0C94DE2D0C94DE2D84
:1000D0000C94DE2D0C94DE2D0C94DE2D0C94DE2D74
:1000E0000C94DE2D084AD73B3BCE016E84BCBFFD8D
:1000F000C12F3D6C74319ABD56833DDA3D00C77FF8
:1001000011BED9E4BB4C3E916BAAAABE0000008090
:100110003F05A84CCDB2D44EB93836A9020C50B91F
:10012000918688083CA6AAAA2ABE000000803F0744
:10013000634236B79BD8A71A39685618AEBAAB5582
:100140008C1D3CB7CC5763BD6DEDFD753EF6177247
:1001500031BF000000803F08000000BE9224491219
:100160003EABAAAA2ABECDCCCC4C3E00000080BE3D
:10017000ABAAAAAA3E00000000BF000000803F001A
:1001800000000000084178D3BB4387D1133D190E0E
:100190003CC3BD4282AD2B3E68EC8276BED98FE176
:1001A000A93E4C80EFFFBE01C4FF7F3F000000006E
:1001B00000000C94DF450C94A1A90C9474A70C9436
:1001C0009BA90D94F4880C9465FB0C9474CA0D944F
:1001D000A7460C94C0AC0C941DF70C94619F0D9431
:1001E00020890D94710A0D94220A0C944DFB0D94F4
:1001F0001C0B0D94062F0C9461FC0D942A0B0D948E
:100200002F410C9472520D94DE3F0C94C3A60D94B2
:10021000B3020D94F9450D94BD220C94F6F90C949B
:10022000CEF90D94112D0D94F32C0D94F9880D94A5
:100230002A0A0C94A1F90C94EB450C94519F0D944F
:10024000A7020D94172D0D94FE1B0D94C1350D942E
:10025000FF2C0D94650A0C94E9F80C94A6F80D9403
:10026000740A0D9421440D9472470C94BDA60C940D
:1002700045D30C94A3F90C9405FB0D9455210C94D3
:1002800016550C94C7F80C9461FB0C9489520C948D
:10029000E1F80C9453D30C9420F70C94C5AC0C9457
:1002A00015F50C94579F0D94B5430D94AD400D94E6
:1002B000BF420C947D520C9419AB0C940AFD0D9422
:1002C000443F0C9492520D94260A0D949B020C9478
:1002D0005DFB0D94232D0C949DF50C940B460C9412
:1002E000E0540C9453460C9479A80C947FFC0D9424
:1002F0002F2D0C9409460D94E12C0C9469FB0C9461
:1003000084D50C9489CE0C941BAD0D94870A0D9462
:10031000C9310C9451460C948D520C94B6AC0D948A
:10032000FC0D0D94470D0D943D180D942A890D94E4
:10033000AF020C94C2B10C9490A90D947A0A0C945B
:100340007BF50D94AD1C0C94C0A60C942FF50D9468
:100350005A0A0C94ACD10C94A5A80C94E2EF0C941E
:10036000CCA80D94580F0C94E32D0C945CA70D941D
:1003700038890D945D030C9457F50C949C520D94A0
:1003800032890D9417890C94D5FF0D947D400C94FF
:1003900079520D940B2D0C94C5540C94F3A60C9427
:1003A00016F70C945EA90C94B6F80C9460520D9458
:1003B0003C890C943CCC0D941A890C9439D60C943D
:1003C000E3AC0C94FB540D9411120D9427940C94EF
:1003D000D0F40D9490400D94ED2C0C94F0F20C940C
:1003E000A0F40D942E0A0D94173F0D943C030C9429
:1003F00095DA0C94592F0D942F140C9449F50D9403
:10040000F92C0C94A4520C94549F0D941D2D0C9413
:1004100029AB0D94292D0D943A0A0C94FBF40D94FC
:10042000052D0C942B460D9430410D944A890C9463
:100430003DFB0C945A9F0D948F020D9440890C94AF
:10044000B3F70D9497020C944F460D94543F0C94BF
:10045000BDFA0D943D9C0C94CFF60D94AB020D9417
:100460006B0A0C9402AD0C94A6D10D9458460C94D2
:1004700073460C943FF90D9460150D94B0450C949F
:10048000C92F0C94A8FC0C9477460D945D000D9434
:10049000352D0D94A3020D943C2A0C94CAAC0C94F7
:1004A0002F460C94E1F40D9493020D946E0A0D9472
:1004B00073400C9478FA0D9486400C943FFA0C9497
:1004C000F4AA0C9465F50C9404F90C94FEA80C9411
:1004D000DDF80D942F400D9451400C9475460D9409
:1004E0000F890C9414D80C94DBFF0C94A3D10C94BA
:1004F00017A90C94319F0C94E6A60D94360A0C941F
:1005000045A90C945FFB0C94E5A80D9446890C94C6
:10051000F02F0C94AF520C9422520C94A9D10C944D
:1005200035A60D9496090C9438A70D940B890D945B
:100530008C240D947D2D0D94D63F0D942E890C9412
:1005400063FB0D9413890C94D3DB0D94770A0C9400
:10055000669F0D94511A0C94E02D0C9471CA0D9461
:10056000CE160D94810A0C944E9F0C94B7520C94A5
:10057000CCF90D945B1E0C9497520C946B9F0D94C8
:100580009F020C9423AD0C9464A70C944BAC0D9477
:10059000E72C0C9470F90D943F450C94B7F50C942E
:1005A00051520C9477A90D947A460D94A82D0D9470
:1005B000DF0B0C94EAA60D94E80A0D94242F0C94FA
:1005C00072F90C94BBF50C9481520D940C400C9470
:1005D00085520C941AF70C942EAB0D9424890D942B
:1005E0009E2D0D94E50A0D9460450D94840A0C949B
:1005F0006CA70C948FF50C9435FA0C942D460D9441
:100600003D460C94BBAC0D94680A0D94453F0D9487
:10061000F63F0C94E5F80D94BA090C94B5F40D94DA
:10062000320A0D9478400C9467FB0C9423F70D94D8
:10063000FA250D9422450C943EA70C949AD34E4172
:100640004E494E495459494E46CDCCCC3D0AD7234C
:100650003C17B7D13877CC2B329595E6241FB14F94
:100660000A000020410000C84200401C4620BCBED9
:100670004CCA1B0E5AAEC59D7400407A10F35A0046
:10068000A0724E18090010A5D4E80000E8764817BB
:100690000000E40B54020000CA9A3B000000E1F5A0
:1006A00005000080969800000040420F000000A066
:1006B0008601000000102700000000E80300000091
:1006C000006400000000000A0000000000010000BB
:1006D0000000002C76D888DC674F0823DFC1DFAE2E
:1006E00059E1B1B796E5E3E453C63AE651997696F7
:1006F000E8E6C28426EB898C9B62ED407C6FFCEFC0
:10070000BC9C9F40F2BAA56FA5F490055A2AF75CED
:10071000936B6CF9676DC11BFCE0E40D47FEF5209F
:10072000E6B500D0ED902E03009435770500808467
:100730001E080000204E0A000000C80C333333337B
:100740000F986E12831141EF8D2114893BE65516E7
:10075000CFFEE6DB18D1844B381BF77C1D901DA41F
:10076000BBE424203284725E228100C9F124ECA112
:10077000E53D2744455441494C00434F4D4D554EAE
:1007800049434154494F4E0044525952554E004539
:1007900052524F525300494E464F004543484F0076
:1007A0004572726F722077726974696E6720746F18
:1007B00020454550524F4D210A0053544F5050454B
:1007C000442E20005072696E7465722073746F70CD
:1007D0007065642064756520746F206572726F7235
:1007E000732E2046697820746865206572726F7276
:1007F00020616E6420757365204D39393920746F1E
:1008000020726573746172742E202854656D706552
:100810007261747572652069732072657365742ED8
:100820002053657420697420616674657220726556
:100830007374617274696E67290A004E6F20436891
:1008400065636B73756D2077697468206C696E657C
:10085000206E756D6265722C204C617374204C693A
:100860006E653A20004E6F20436865636B73756D4B
:100870002077697468206C696E65206E756D62659D
:10088000722C204C617374204C696E653A200063B1
:100890006865636B73756D206D69736D61746368F2
:1008A0002C204C617374204C696E653A20004C69B1
:1008B0006E65204E756D626572206973206E6F746F
:1008C000204C617374204C696E65204E756D6265B5
:1008D000722B312C204C617374204C696E653A2068
:1008E000004D3131300053657269616C2073746161
:1008F000747573206D69736D617463680A00534485
:100900002072656164206572726F720A00486F74AC
:10091000656E642049646C652054696D656F7574FB
:1009200000486F74656E642049646C652054696D7D
:10093000656F75740A004265642049646C652054D3
:10094000696D656F7574004265642049646C65204B
:1009500054696D656F75740A006D412900206472D9
:1009600069766572206F76657274656D7065726107
:1009700074757265207761726E696E672120280038
:100980003A20002063757272656E7420646563722C
:10099000656173656420746F20006D4129002064D7
:1009A0007269766572206F76657274656D706572B6
:1009B0006174757265207761726E696E6721202897
:1009C000003A20002063757272656E74206465635E
:1009D00072656173656420746F20006D4129002089
:1009E000647269766572206F76657274656D706584
:1009F000726174757265207761726E696E6721200D
:100A000028003A20002063757272656E7420646558
:100A10006372656173656420746F20006D41290005
:100A200020647269766572206F76657274656D7088
:100A300065726174757265207761726E696E672187
:100A40002028003A20004B494C4C20627574746F8A
:100A50006E2F70696E0A002121204B494C4C206397
:100A600061757365642062792000746F6F206D7505
:100A7000636820696E6163746976652074696D6569
:100A8000202D2063757272656E7420636F6D6D61C9
:100A90006E643A20002121204B494C4C2063617543
:100AA00073656420627920007061757365004D3153
:100AB0003235002066696C616D656E745F72756EAB
:100AC0006F7574200066696C616D656E745F727518
:100AD0006E6F757420540046696C616D656E74525A
:100AE000756E6F75742054004D65646961205265A0
:100AF0006D6F766564004D6564696120496E73654C
:100B00007274656400627573793A207061757365FB
:100B10006420666F7220696E7075740A0062757366
:100B2000793A2070617573656420666F7220757301
:100B300065720A00627573793A2070726F6365732B
:100B400073696E670A00506C656173652052657346
:100B50006574005052494E5445522048414C54450A
:100B6000440025533A20255300706F7765726F66F5
:100B700066004B494C4C45442E20005072696E74FF
:100B800065722068616C7465642E206B696C6C28DA
:100B9000292063616C6C6564210A006563686F3AA3
:100BA000004572726F723A0066616C736500747210
:100BB000756500202864697361626C6564290A00A8
:100BC00041424C2041646A7573746D656E74205A9D
:100BD000002028656E61626C6564290A0041626FBD
:100BE00076650053616D65205A2061730042656C23
:100BF0006F77004175746F20426564204C6576659F
:100C00006C696E673A2042494C494E45415200207A
:100C10004E6F7A7A6C65290A00202620002D4365E4
:100C20006E746572002D46726F6E74002D426163A2
:100C30006B002028416C69676E6564205769746891
:100C40000020284D6964646C650020284C6566743A
:100C500000202852696768740050726F6265204FE7
:100C6000666673657420580050726F62653A204260
:100C70004C544F5543480A004D616368696E6520C6
:100C8000547970653A2043617274657369616E0AC4
:100C90000042696C696E656172204C6576656C69AD
:100CA0006E6720477269643A0A003E3E3E003C3C53
:100CB0003C007365745F6265645F6C6576656C6942
:100CC0006E675F656E61626C656400726573657402
:100CD0005F6265645F6C6576656C0A00203A204C43
:100CE0006576656C696E67204F4E0A00202063753B
:100CF0007272656E745F706F736974696F6E3D00B8
:100D0000203A204C6576656C696E67204F46460A2E
:100D100000202063757272656E745F706F73697402
:100D2000696F6E3D0020746F2000424C546F7563F4
:100D3000682066726F6D2000424C546F75636820A6
:100D40004465706C6F79204661696C65640A006265
:100D50006C746F7563682E6465706C6F795F707208
:100D60006F63282920656E640A00424C546F7563D6
:100D70006820414C41524D206F72205452494747E0
:100D80004552206166746572204445504C4F592C81
:100D9000207265636F766572696E670A00424C5413
:100DA0006F756368204445504C4F592072657175CA
:100DB00065737465640A00424C546F756368205310
:100DC000746F77204661696C65640A00626C746FA9
:100DD0007563682E73746F775F70726F6328292054
:100DE000656E640A00424C546F75636820414C4143
:100DF000524D206F72205452494747455220616638
:100E00007465722053544F572C207265636F76655A
:100E100072696E670A00424C546F756368205354C0
:100E20004F57207265717565737465640A0050725E
:100E3000696E74696E67204F626A6563740020464C
:100E40000020570020204D3230372053002046002C
:100E500020570020204D32303820530020204D32C2
:100E600030392053006E6F74696669636174696F0D
:100E70006E20006E6F74696669636174696F6E20BD
:100E800000626567696E00656E640073686F770065
:100E9000627574746F6E0053656E64204D31303826
:100EA00020746F20726573756D650A00496E7365F5
:100EB00072742066696C616D656E7420616E642069
:100EC00073656E64204D3130380A00526568656183
:100ED0007420446F6E6500526568656174696E6761
:100EE0002E2E2E0052656865617400486561746538
:100EF000722054696D656F75740053656E64204D82
:100F000031303820746F2068656174206E6F7A7A92
:100F10006C650A00486F74656E6420746F6F20639F
:100F20006F6C640A00706175736564004865616484
:100F30002063616E6E6F74206265207061726B65F4
:100F400064005061757365002568753A2530326814
:100F5000750025303268753A2530326875002530C5
:100F6000326875272530326875002568756420253C
:100F7000303268753A25303268750044726976659A
:100F800072206572726F7200636F696C2073686F94
:100F9000727420636972637569740A006F76657292
:100FA00074656D70657261747572650A0020647293
:100FB00069766572206572726F722064657465630C
:100FC0007465643A203078004C4F570048494748D0
:100FD000004F4B004572726F723A20416C6C2000DA
:100FE00020636F6E6E656374696F6E2E2E2E200007
:100FF00054657374696E6720004C4F570048494729
:1010000048004F4B004572726F723A20416C6C2061
:101010000020636F6E6E656374696F6E2E2E2E20D6
:101020000054657374696E6720004C4F570048493F
:101030004748004F4B004572726F723A20416C6C0A
:10104000200020636F6E6E656374696F6E2E2E2EA6
:10105000200054657374696E6720004C4F57004838
:10106000494748004F4B004572726F723A20416CFD
:101070006C200020636F6E6E656374696F6E2E2E38
:101080002E200054657374696E672000544D432010
:10109000434F4E4E454354494F4E204552524F52B6
:1010A00000426564204C6576656C696E6720004679
:1010B00061696C656420746F20656E61626C652087
:1010C000426564204C6576656C696E670A00496EFE
:1010D00076616C6964206D6573682E0A006D6F76A9
:1010E000655F7A5F61667465725F70726F62696E68
:1010F0006700203A203E2070726F62696E6720633D
:101100006F6D706C6574650A00202063757272657E
:101110006E745F706F736974696F6E3D0050726FAB
:1011200062696E6720506F696E74002553202569CF
:101130002F2569002E0A002F0050726F62696E67BA
:10114000206D65736820706F696E742000202844DC
:10115000525952554E2900473239204175746F203B
:10116000426564204C6576656C696E67003F202897
:101170004C2C522C462C4229206F7574206F66200F
:10118000626F756E64732E0A0020420020460020B4
:101190005200473239204C003F2856296572626F51
:1011A0007365206C6576656C20696D706C61757314
:1011B00069626C652028302D34292E0A0042616452
:1011C000205A2076616C75650A004E6F2062696C4A
:1011D000696E65617220677269640A004732384C33
:1011E00030003E204175746F2D6C6576656C206E05
:1011F0006F74206E65656465642C20736B69700A7A
:1012000000473239005A2050726F62652050617376
:1012100074204265640A005A2050726F6265205043
:101220006173742042656400203A20686F6D655FC9
:101230007A5F736166656C790A0020206465737457
:10124000696E6174696F6E3D00686F6D655F7A5F8E
:10125000736166656C7900646F5F6D6F76655F6161
:10126000667465725F7A5F686F6D696E6700526160
:10127000697365205A206265666F726520686F6DBC
:10128000696E673A0A005230203D204E6F205A2086
:1012900072616973650A003E20686F6D696E672030
:1012A0006E6F74206E65656465642C20736B697065
:1012B0000A00473238003A20004465766961746953
:1012C0006F6E0046696E6973686564210A003A2092
:1012D0007A3A2000206F662000476F696E6720749D
:1012E0006F3A20580043570A00206469723A002080
:1012F000616E676C653A0053746172742072616448
:101300006975733A004D343820506F696E7400254A
:10131000533A2025642F256400506F736974696FF8
:101320006E696E67207468652070726F62652E2E1C
:101330002E0A004D3438205A2D50726F62652052AB
:1013400065706561746162696C6974792054657354
:10135000740A003F4C656773206F66206D6F766579
:101360006D656E7420696D706C61757369626C6512
:101370002028302D3135292E0A003F2028582C599D
:1013800029206F7574206F6620626F756E64732EEE
:101390000A0050726F6265206F7574206F6620625C
:1013A0006F756E6473003F53616D706C6520736977
:1013B0007A65206E6F7420706C61757369626C65FC
:1013C0002028342D3530292E0A003F2856296572F1
:1013D000626F7365206C6576656C20696D706C61F9
:1013E000757369626C652028302D34292E0A0053EC
:1013F00074616E6461726420446576696174696FBA
:101400006E3A20002052616E67653A2000204D61DF
:10141000783A2000204D696E3A2000205369676DAC
:10142000613A20004D65616E3A2000204400202082
:101430004D323030205300202844697361626C655E
:1014400064293A0046696C616D656E742073657439
:1014500074696E67730020204D3230312058004D82
:10146000617820416363656C65726174696F6E2099
:1014700028756E6974732F7332290020204D323025
:10148000332058004D61782066656564726174652B
:10149000732028756E6974732F7329002052002001
:1014A000204D323034205000416363656C657261B9
:1014B00074696F6E2028756E6974732F73322920DA
:1014C00028503C7072696E742D616363656C3E20B8
:1014D000523C726574726163742D616363656C3E26
:1014E00020543C74726176656C2D616363656C3E5B
:1014F00029005741524E494E4721204C6F77205AC0
:10150000204A65726B206D6179206C65616420747E
:101510006F20756E77616E74656420706175736598
:10152000732E0A0020540020530020204D32303505
:10153000204200416476616E6365642028423C6D00
:10154000696E5F7365676D656E745F74696D655F05
:1015500075733E20533C6D696E5F666565647261AC
:1015600074653E20543C6D696E5F74726176656C83
:101570005F66656564726174653E20583C6D617894
:101580005F6A65726B3E20593C6D61785F6A657277
:101590006B3E205A3C6D61785F6A65726B3E2045F8
:1015A0003C6D61785F6A65726B3E290020550020B2
:1015B0004C0020204D323831205000536572766F38
:1015C00020416E676C657300204400204900202094
:1015D0004D333031205000486F74656E642050499F
:1015E000440020440020490020204D333034205056
:1015F0000042656420504944003A2000205365723F
:10160000766F2000206F7574206F662072616E67A0
:10161000650A00536572766F20002E0A002028307C
:101620002D313029002076616C7565206F7574202E
:101630006F662072616E676500416476616E6365F6
:10164000204B3D0025290A00252000203B202800B2
:1016500020440020410020490020204D3731302017
:101660005300436F6E74726F6C6C65722046616ECE
:10167000004E6F7A7A6C6520746F6F20436F6C64D4
:101680000A00556E6B6E6F776E2046696C616D65F2
:101690006E74205075726765205061747465726E47
:1016A0000A00556E6B6E6F776E2046696C616D65D2
:1016B0006E74205075726765205061747465726E27
:1016C0000A00556E6B6E6F776E2046696C616D65B2
:1016D0006E74205075726765205061747465726E07
:1016E0000A00556E6B6E6F776E2046696C616D6592
:1016F0006E74205075726765205061747465726EE7
:101700000A004D3131372050757267696E6720507D
:101710004C412E2E2E0A4739310A4D38330A4731B3
:10172000205931302045302E38350A473120583184
:10173000302045302E38350A473120593130204588
:10174000302E38350A473120582D31302045302E83
:1017500038350A4731205931302045302E38350A86
:101760004731205831302045302E38350A47312056
:101770005931302045302E38350A473120582D3127
:10178000302045302E38350A473120593130204538
:10179000302E38350A4731205831302045302E3828
:1017A000350A4731205931302045302E38350A4727
:1017B0003120582D31302045302E38350A47312020
:1017C0005931302045302E38350A473120583130D4
:1017D0002045302E38350A473120593130204530E8
:1017E0002E38350A473120582D31302045302E38DB
:1017F000350A4731205931302045302E38350A47D7
:1018000031205831302045302E38350A47312059A3
:1018100031302045302E38350A4739300A4D3832BC
:10182000004D3131372050757267696E6720504521
:1018300054672E2E2E0A4739310A4D38330A473164
:10184000205931302045312E310A4731205932306C
:10185000205831302045322E320A4731582D313050
:101860002045312E310A473120593230205831304D
:101870002045322E320A4731582D31302045312E45
:10188000310A473120593230205831302045322E2C
:10189000320A4731582D31302045312E310A473137
:1018A00020593230205831302045322E320A473903
:1018B000300A4D3832004D3131372050757267692A
:1018C0006E67205450552E2E2E0A4739310A4D3856
:1018D000330A473120583130205931302045312EDC
:1018E000370A473120582D313020593130204531C9
:1018F0002E370A47312058313020593130204531B8
:101900002E370A473120582D3130205931302045AB
:10191000312E370A47312058313020593130204597
:10192000312E370A473120582D313020593130209F
:1019300045312E370A473120583130205931302077
:1019400045312E370A473120582D3130205931305A
:101950002045312E370A4731205831302059313057
:101960002045312E370A4739300A4D3832004D3183
:1019700031372050757267696E67204142532E2EB1
:101980002E0A4739310A4D38330A47312059313050
:101990002045312E370A4731205931302058313017
:1019A0002045312E370A4731205931302045312E1C
:1019B000370A47312059313020582D3130204531F8
:1019C0002E370A4731205931302045312E370A470A
:1019D0003120593130205831302045312E370A47D7
:1019E00031205931302045312E370A4731205931C5
:1019F0003020582D31302045312E370A47312059BB
:101A000031302045312E370A4731205931302058A6
:101A100031302045312E370A4739300A4D383200EF
:101A20004D3131372050757267696E672E2E2E0A40
:101A30004739310A4D38330A473120593130302087
:101A40004531320A4739300A4D383200203B0020F8
:101A5000550020204D363033204C0046696C616DB6
:101A6000656E74206C6F61642F756E6C6F616400BD
:101A70007370726561644379636C6500737465614A
:101A80006C746843686F70002064726976657220B8
:101A90006D6F64653A0900737072656164437963C0
:101AA0006C6500737465616C746843686F700020C6
:101AB000647269766572206D6F64653A09007370AF
:101AC000726561644379636C6500737465616C74FD
:101AD0006843686F700020647269766572206D6F6C
:101AE00064653A09007370726561644379636C657B
:101AF00000737465616C746843686F700020647271
:101B000069766572206D6F64653A0900202E6873EE
:101B10007472743A2000202E68656E643A200020AA
:101B200063686F70706572202E746F66663A20006D
:101B3000202E68737472743A2000202E68656E64DB
:101B40003A20002063686F70706572202E746F6693
:101B5000663A2000202E68737472743A2000202E9A
:101B600068656E643A20002063686F70706572204B
:101B70002E746F66663A2000202E68737472743A71
:101B80002000202E68656E643A20002063686F7024
:101B9000706572202E746F66663A20003F53206F86
:101BA0007574206F662072616E67652028312E2E55
:101BB00038290A003F50206F7574206F66207261CB
:101BC0006E676520282D332E2E3132290A003F4FB3
:101BD000206F7574206F662072616E6765202831F2
:101BE0002E2E3135290A003B2000536C6565702E7E
:101BF0002E2E004732380052756E6E696E67205087
:101C00006F737420436F6D6D616E64730A005A20A8
:101C10004261636B6F66660A00526573746F72652A
:101C20002043757272656E740A0046696E616C209D
:101C30005A204D6F76650A005265647563696E6758
:101C40002043757272656E740A0053657474696E10
:101C500067205A20506F756E63650A005061726B81
:101C6000696E672058590A004D65736820706F6966
:101C70006E74206F7574206F662072616E67650ADE
:101C8000004E6F204D6F76652E00456E64206669AC
:101C90006C65206C6973740A00426567696E206622
:101CA000696C65206C6973740A004E6F206D656401
:101CB00069610A00286E6F2066696C6529004375AA
:101CC0007272656E742066696C653A20002E0A0097
:101CD00044656C6574696F6E206661696C65642C1F
:101CE0002046696C653A200046696C652064656C25
:101CF000657465643A005072696E742074696D652C
:101D00003A20006F6B004C696E653A20006F666682
:101D1000009B0796078F0788077A07730744454299
:101D200055473A004D313133205300536964654BB8
:101D300069636B20373437204F46462E0020732EC0
:101D40000A00496E61637469766974792074696DFB
:101D5000656F75742000432E0A003F49646C65204E
:101D600054696D656F7574202854292074726967F1
:101D70006765722074656D70657261747572652037
:101D800073686F756C64206265206F7665722000E1
:101D90002F2F004D31343520533C696E6465783EF9
:101DA000206F7574206F662072616E676520283021
:101DB0002D31290A00416363656C65726174696F36
:101DC0006E0046656564726174650020204D61781F
:101DD0003A2000200020204D696E3A2000203B2050
:101DE0000020204D323131205300536F667420653E
:101DF0006E6473746F707300250A0046523A0020B7
:101E0000466C6F773A2000424C546F7563682061CE
:101E10006E676C65732063616E2774206265206352
:101E200068616E6765642E0A00206F7574206F66A6
:101E30002072616E67650A00536572766F200050EC
:101E4000726F6265204F6666736574205A00507227
:101E50006F6265204F6666736574205A006469730B
:101E600000656E0043290061626C656420286D691D
:101E70006E2074656D702000436F6C64206578740B
:101E80007275646573206172652000424C546F75F1
:101E90006368204853206D6F646520004F464600FC
:101EA0004F4E00203B20486F73742068616E646C55
:101EB000696E67200046696C616D656E742072758D
:101EC0006E6F757420004D34323120696E636F720D
:101ED0007265637420706172616D657465722075DE
:101EE000736167650A004D65736820706F696E7471
:101EF000206F7574206F662072616E67650A0045F9
:101F00004550524F4D204F4B0A00290A0020746F54
:101F100020003F5A206F7574206F662072616E67D3
:101F200065202800290A0020746F20003F59206F87
:101F30007574206F662072616E6765202800290A1B
:101F40000020746F20003F58206F7574206F66204A
:101F500072616E6765202800206472697665722060
:101F600063757272656E743A2000206472697665DA
:101F7000722063757272656E743A20002064726913
:101F80007665722063757272656E743A2000206403
:101F900072697665722063757272656E743A20009C
:101FA0002074656D706572617475726520707265FC
:101FB0007761726E207472696767657265643A2032
:101FC000002074656D706572617475726520707241
:101FD000657761726E207472696767657265643ACD
:101FE00020002074656D7065726174757265207073
:101FF00072657761726E2074726967676572656475
:102000003A20002074656D70657261747572652088
:102010007072657761726E20747269676765726548
:10202000643A2000207072657761726E20666C6180
:102030006720636C65617265640A00207072657761
:1020400061726E20666C616720636C6561726564A5
:102050000A00207072657761726E20666C6167207D
:10206000636C65617265640A0020707265776172E5
:102070006E20666C616720636C65617265640A003E
:1020800020686F6D696E672073656E736974697619
:102090006974793A200020686F6D696E67207365F6
:1020A0006E73697469766974793A2000446F6E655D
:1020B000207072696E74696E672066696C650A00CB
:1020C0004D3737004D33310020204D323036205807
:1020D00000486F6D65206F6666736574004F6666B5
:1020E00073657473204170706C696564004D494E6E
:1020F0002F4D415820546F6F2046617200546F6F0E
:10210000206661722066726F6D204D494E2F4D41E1
:10211000580A00446966663A2020200046726F6DB6
:102120005374703A00537465707065723A00556E5E
:102130004C6576656C3A004C6576656C65643A0072
:102140005261773A20202020000A4C6F6769636152
:102150006C3A00436F756E7420453A004361703AE3
:1021600000434F4E4649475F4558504F5254004D2B
:102170004541545041434B00434F4F4C45525F54EF
:10218000454D5045524154555245004348414D42FA
:1021900045525F54454D50455241545552450045B6
:1021A000505F4241425953544550004241425953B5
:1021B00054455050494E470041524353004D4F54EF
:1021C000494F4E5F4D4F44455300544845524D4191
:1021D0004C5F50524F54454354494F4E004558545C
:1021E000454E4445445F4D323000435553544F4DA6
:1021F0005F4649524D574152455F55504C4F4144FF
:10220000004C464E5F5752495445004C4F4E475F75
:1022100046494C454E414D45004155544F5245505D
:102220004F52545F53445F535441545553005344E9
:102230005F575249544500524550454154004D5551
:102240004C54495F564F4C554D4500534443415201
:10225000440050524F4D50545F535550504F5254BC
:1022600000484F53545F414354494F4E5F434F4DD5
:102270004D414E445300454D455247454E43595FED
:1022800050415253455200434153455F4C494748E2
:10229000545F4252494748544E45535300544F47A8
:1022A000474C455F4C494748545300534F46545799
:1022B0004152455F504F574552004255494C445F8B
:1022C00050455243454E54004C4556454C494E47A7
:1022D0005F44415441005A5F50524F4245005255AD
:1022E0004E4F5554004155544F4C4556454C0050A7
:1022F00052494E545F4A4F420050524F4752455345
:1023000053004155544F5245504F52545F54454D20
:1023100050004155544F5245504F52545F504F5307
:1023200000564F4C554D4554524943004545505277
:102330004F4D0042494E4152595F46494C455F540A
:1023400052414E534645520053455249414C5F5805
:102350004F4E5F584F4646004649524D57415245F1
:102360005F4E414D453A4D61726C696E2020464981
:10237000524D574152455F56455253494F4E3A329E
:102380002E312E332E302E34382045585452554499
:1023900045525F545950453A4C6567616379205501
:1023A0006E6976657273616C2050524F42455F547E
:1023B0005950453A424C546F7563684245445F54E6
:1023C0005950453A205354414E4441524420284AE2
:1023D000756C20313520323032352031343A343486
:1023E0003A33362920534F555243455F434F4445B6
:1023F0005F55524C3A6769746875622E636F6D2F32
:102400004D61726C696E4669726D776172652F4DB0
:1024100061726C696E2050524F544F434F4C5F565F
:10242000455253494F4E3A312E30204D4143484991
:102430004E455F545950453A536964654B69636B27
:1024400020373437204B494E454D41544943533A88
:1024500043617274657369616E20455854525544E6
:1024600045525F434F554E543A3120555549443AF1
:1024700035623364363164362D383066382D343168
:1024800065642D626438612D39633736356638648A
:10249000353233640070726F6D70745F006265670F
:1024A000696E004D302053746F70004D31205374AD
:1024B0006F7000436C69636B20746F205265737595
:1024C0006D652E2E2E0047322F4733206261642027
:1024D000706172616D65746572730A005A20507282
:1024E0006F626520506173742042656400205A3A1F
:1024F0000020593A0042656420583A00203B0020F1
:10250000204D3835312058005A2D50726F626520A9
:102510004F666673657400526573756D696E6720EA
:1025200053440043616E6E6F74206F70656E20734C
:10253000756264697220002569730025696D202524
:102540006973002569682025696D20256973002558
:102550006964202569682025696D20256973002537
:10256000697920256964202569682025696D202501
:102570006973000A53746174733A2046696C616D23
:10258000656E7420757365643A20002C204C6F6E64
:1025900067657374206A6F623A2000546F74616CCF
:1025A0002074696D653A200053746174733A200099
:1025B0002C204661696C65643A20002C2046696EC7
:1025C00069736865643A20005072696E74733A20CA
:1025D0000053746174733A2000436F6F6C696E67C7
:1025E0002E2E2E0045312025530020573A004265FB
:1025F0006420436F6F6C696E672E2E2E00426564F7
:102600002048656174696E672E2E2E00236465660E
:10261000696E652044454641554C545F0000626533
:1026200064004B6420004B6920004B70200050492F
:10263000442074756E696E6720646F6E6500206655
:10264000696E6973686564212050757420746865CB
:10265000206C617374204B702C204B6920616E6478
:10266000204B6420636F6E7374616E7473206672A6
:102670006F6D2062656C6F7720696E746F20436F99
:102680006E66696775726174696F6E2E680A0050B4
:102690004944204175746F74756E650020666169E8
:1026A0006C6564212074696D656F75740A0050490A
:1026B00044204175746F74756E65004175746F7454
:1026C000756E65206661696C6564212054696D656D
:1026D0006F75742E00206661696C656421205465F5
:1026E0006D706572617475726520746F6F206869B2
:1026F00067680A00504944204175746F74756E65AF
:1027000000504944204379636C65730025532025AC
:10271000692F256900204B643A2000204B693A203C
:1027200000204B703A200020436C61737369632072
:10273000504944200A00204E6F206F7665727368FE
:102740006F6F740A002054753A2000204B753A20B0
:1027500000206D61783A2000206D696E3A200020DB
:10276000643A200020626961733A20004865617410
:10277000696E672E2E2E002073746172740A0050E9
:102780004944204175746F74756E65004175746FAE
:1027900074756E65206661696C6564212054656D91
:1027A000706572617475726520746F6F20686967F7
:1027B000682E00206661696C6564212054656D7027
:1027C0006572617475726520746F6F2068696768DF
:1027D0000A00504944204175746F74756E6500504D
:1027E0004944204175746F74756E65002066616997
:1027F0006C656421204261642068656174657220A3
:1028000069640A00504944204175746F74756E659F
:102810000020540020530020450020204D38362051
:102820004200486F74656E642049646C6520546989
:102830006D656F7574004572723A20757466382044
:10284000666F6E74206E6F7420696E697469616C56
:10285000697A65642E004572723A20757466382074
:10286000666F6E74206E6F7420696E697469616C36
:10287000697A65642E004572723A20757466382054
:10288000666F6E74206E6F7420696E697469616C16
:10289000697A65642E006D61726C696E66772E6F61
:1028A000726700322E312E332E302E3438001FFF47
:1028B000FFFFFFFFFF600000000001FF400000007D
:1028C0000000FF8000000000007F83CF00000C307C
:1028D0003F87FF80000C301F867980000C000F8C32
:1028E00030C7838C30E78C30CFC7CC31F38C30DCF1
:1028F000ECEC33B98C30D86C6C33198C30D06C0C58
:1029000033198C30D86C0C33198C30DC6C0E3B19BD
:102910008C30CF7C079F198C30C77C038F19400007
:102920000000000002600000000000061FFFFFFF23
:10293000FFFFF8200020003A00200020003A003A73
:1029400000000C0F00FE07022503BB017FFE08FEFE
:1029500008FE05080806000040F0C888889878102E
:10296000050808060000C0F88888888888F80505EA
:10297000050600012030F830200508080600002078
:1029800070F820202020E00509090600FF2070A82B
:10299000A8B888887020070505070001D86C366C38
:1029A000D80509090600FFF8A88888888888A8F84B
:1029B000050A0A0600FE205050505088A8A88870CA
:1029C00003030306000340A040FFFFFFFFFFFFFFDC
:1029D000FFFFFFFFFFFFFFFFFFFFFFFFFFFFFF0006
:1029E00000000605FF010707060200808080808046
:1029F0000080030303060105A0A0A005060606004B
:102A00000050F85050F8500509090600FF2070A842
:102A1000A07028A87020050707060000C8C810206D
:102A200040989805070706000040A0A040A89068BD
:102A30000103030602058080800309090601FF20C7
:102A400040408080804040200309090601FF80400B
:102A50004020202040408005070706000020A87085
:102A60002070A8200505050600012020F82020027E
:102A700003030601FFC04080050101060003F802C0
:102A80000202060100C0C00507070600000810107A
:102A900020404080050707060000708898A8C88875
:102AA0007003070706010040C040404040E00507B2
:102AB00007060000708808102040F8050707060088
:102AC00000F808103008887005070706000010306D
:102AD0005090F81010050707060000F880F008086D
:102AE0008870050707060000304080F08888700570
:102AF0000707060000F80810102020200507070629
:102B000000007088887088887005070706000070CC
:102B1000888878081060020505060100C0C000C062
:102B2000C00206060601FFC0C000C04080030505C4
:102B30000601012040804020050303060002F80042
:102B4000F8030505060101804020408005070706BF
:102B50000000708810202000200507070600007084
:102B600088B8A8B88070050707060000708888F844
:102B7000888888050707060000F04848704848F034
:102B800005070706000070888080808870050707A9
:102B9000060000F04848484848F0050707060000CE
:102BA000F88080F08080F8050707060000F8808034
:102BB000F080808005070706000070888080988874
:102BC00070050707060000888888F888888803074A
:102BD00007060100E04040404040E00507070600CE
:102BE000003810101010906005070706000088904C
:102BF000A0C0A09088050707060000808080808024
:102C000080F805070706000088D8A8888888880506
:102C100007070600008888C8A8988888050707065F
:102C2000000070888888888870050707060000F013
:102C30008888F080808005070706000070888888F3
:102C4000A89068050707060000F08888F0A0908823
:102C50000507070600007088807008887005070760
:102C6000060000F82020202020200507070600008D
:102C70008888888888887005070706000088888803
:102C80008850502005070706000088888888A8A873
:102C900050050707060000888850205088880507DF
:102CA000070600008888502020202005070706001E
:102CB00000F80810204080F80309090601FFE080B1
:102CC000808080808080E00507070600008040400B
:102CD000201010080309090601FFE0202020202011
:102CE0002020E005030306000520508805010106A9
:102CF00000FEF803030306010580402005050506D4
:102D0000000070087888780507070600008080F0CA
:102D1000888888F0050505060000708080887005A9
:102D200007070600000808788888887805050506E2
:102D300000007088F08070050707060000304840EA
:102D4000E04040400507070600FE70888888780844
:102D5000700507070600008080F0888888880307D0
:102D6000070601004000C0404040E0040909060198
:102D7000FE100030101010109060050707060000CC
:102D800080808890E09088030707060100C04040DB
:102D9000404040E0050505060000D0A8A8A8A80509
:102DA0000505060000B0C8888888050505060000EE
:102DB00070888888700507070600FEF0888888F00C
:102DC00080800507070600FE78888888780808054F
:102DD0000505060000B0C8808080050505060000D6
:102DE00078807008F00507070600002020F82020F2
:102DF00020180505050600008888889868050505DF
:102E0000060000888888502005050506000088888F
:102E1000A8A8500505050600008850205088050721
:102E2000070600FE888888502040800505050600BA
:102E300000F8102040F80309090601FF2040404037
:102E400080404040200109090602FF808080808088
:102E5000808080800309090601FF804040402040B7
:102E600040408005030306000248A890FF4732381F
:102E70004F0A473020583130302059323833205AE9
:102E8000323030004D3932453432300A4D33303132
:102E90005032362E343749322E33324437352E35C0
:102EA000360A4D39303620453936300A4D39303002
:102EB000204B302E30350A4D3530300A4D31313708
:102EC00020534B3137357C302E35306D6D7C42527E
:102ED000415353004D3932453432300A4D3330318D
:102EE0005032362E393049322E34314437352E3176
:102EF000390A4D39303620453936300A4D393030AF
:102F0000204B302E30350A4D3530300A4D313137B7
:102F100020534B3238357C302E35306D6D7C42522B
:102F2000415353004D3839312054310A4D3932451F
:102F30003431350A4D3330315032322E313249314D
:102F40002E39344436332E35390A4D393036204542
:102F50003936300A4D393030204B302E30350A4D5D
:102F60003530300A4D313137204D31373576327CAE
:102F7000302E35306D6D7C435242204355004D3824
:102F800039312054320A4D3932453432300A4D330A
:102F900030315032312E3049312E37384436312ECF
:102FA00039330A4D39303620453936300A4D3930FB
:102FB00030204B302E30350A4D3530300A4D31310E
:102FC0003720534C7C302E32356D6D7C4E4B4C2D62
:102FD000504C204355004D3839312054330A4D3977
:102FE00032453432300A4D3330315032312E30498F
:102FF000312E37384436312E39330A4D39303620A8
:10300000453936300A4D393030204B302E30350AB4
:103010004D3530300A4D3131372053457C302E3517
:10302000306D6D7C4E4B4C2D504C204355004D382F
:1030300039312054340A4D3932453432300A4D3357
:1030400030315032312E3049312E37384436312E1E
:1030500039330A4D39303620453936300A4D39304A
:1030600030204B302E30350A4D3530300A4D31315D
:10307000372048457C302E35306D6D7C48524420D9
:10308000535445454C004D3839312054350A4D399B
:1030900032453432300A4D3330315033372E3535E6
:1030A00049352E33394436352E33360A4D393036CC
:1030B00020453936300A4D393030204B302E3034EF
:1030C0000A4D3530300A4D3131372048537C302E8F
:1030D00038306D6D7C48524420535445454C004D6A
:1030E0003839312054360A4D3932453432300A4DA0
:1030F0003330315033372E353549352E3339443658
:10310000352E33360A4D39303620453936300A4DA2
:10311000393030204B302E30330A4D3530300A4DA7
:103120003131372048532B7C312E32306D6D7C4845
:10313000524420535445454C004D383931205437C2
:103140000A4D3932453430390A4D33303150323737
:103150002E353849332E32324436352E36360A4D26
:1031600039303620453936300A4D393030204B3031
:103170002E30350A4D3530300A4D31313720483147
:1031800037357C302E35306D6D7C4E4B4C2D504C90
:1031900020435500483137357C302E35306D6D7CFD
:1031A0004E4B4C2D504C2043550048532B7C312E18
:1031B00032306D6D7C48524420535445454C004894
:1031C000537C302E38306D6D7C485244205354452A
:1031D000454C0048457C302E35306D6D7C4852445E
:1031E00020535445454C0053457C302E35306D6D91
:1031F0007C4E4B4C2D504C20435500534C7C302E74
:1032000032356D6D7C4E4B4C2D504C204355004D4E
:1032100031373576327C302E35306D6D7C435242FD
:1032200020435500534B3238357C302E35306D6D90
:103230007C425241535300534B3137357C302E354D
:10324000306D6D7C4252415353005061726B206669
:103250006F722054482053776170004D61696E2071
:103260004D656E75003F004261636B0053746F7073
:10327000004E6F204D656469610053656C65637431
:103280002066726F6D204D65646961004368616EF0
:103290006765204D65646961004D32310041626FA0
:1032A0007574205072696E74657200546F6F6C2073
:1032B0004865616473202854482900436F6E66692D
:1032C0006775726174696F6E0054656D70657261C7
:1032D00074757265004368616E67652046696C614C
:1032E0006D656E74004D6F74696F6E00507265731A
:1032F000656E742042656400473238204F0A4730BB
:103300002059323238204631303030300A473020B0
:1033100059323333204631303030300A4D31313775
:10332000205072696E746572205265616479005232
:103330006573756D65205072696E740043616E63CC
:10334000656C204F626A6563740054756E65005346
:10335000746F70205072696E7400506175736520CF
:103360005072696E7400496E666F205363726565B2
:103370006E003F005374617274205072696E740065
:1033800043616E63656C005072696E740043616ED8
:103390006E6F7420656E74657220737562646972F5
:1033A0003A200002202E2E004D61696E204D656E80
:1033B00075002100486F74656E6420746F6F206320
:1033C0006F6C64004261636B0050726F636565648B
:1033D000004D6F7665204578747275646572004D96
:1033E0006F74696F6E0044697361626C6520537419
:1033F000657070657273004D3834004D343820505C
:10340000726F62652054657374004732384F0A4DFD
:10341000343820503130004175746F205A2D416C82
:1034200069676E00473334004F6666004F6E004296
:103430006564204C6576656C696E67004C657665E1
:103440006C20426564004732394E005A2050726F3A
:1034500062652057697A617264004175746F2D50FE
:1034600061726B00473238204F0A473237004732CB
:10347000385A004732385900486F6D652040004780
:10348000323858004175746F20486F6D65004D618A
:10349000696E204D656E750043616E63656C004416
:1034A0006F6E6500302E30323500302E31004D6F9A
:1034B000766520246D6D00312E300050726F62658C
:1034C000205A204F6666736574005A004D6F76650A
:1034D000204E6F7A7A6C6520746F20426564004DCF
:1034E0006F76696E6720746F2050726F62696E67C5
:1034F00020506F7300486F6D696E672058595A00ED
:1035000050726568656174202420426564005072C1
:103510006568656174202420456E640054656D7093
:103520006572617475726500436F6F6C646F776E5E
:10353000005072656865617420240046616E2053F6
:103540007065656400426564004E6F7A7A6C650050
:103550004D61696E204D656E75004531005A005908
:10356000005800590058004531005A0059004F6674
:1035700066004F6E005800544D43204472697665D2
:10358000727300537465616C746843686F70204592
:103590006E61626C6564005374657070696E67205B
:1035A0004D6F64650053656E736F726C6573732045
:1035B000486F6D696E670044726976657220437565
:1035C0007272656E7400416476616E636564205347
:1035D000657474696E67730050726F6265205A205B
:1035E0004F666673657400416476616E6365204B57
:1035F00000466C6F77726174650046616E2053708F
:1036000065656400426564004E6F7A7A6C650053AC
:1036100070656564004D61696E204D656E75006F63
:1036200070656E00545249474745524544003A2060
:103630000066696C616D656E74005A204D696E009C
:1036400059204D696E0058204D696E005265706FAB
:103650007274696E6720656E6473746F7020737422
:10366000617475730A00203A2073796E635F706C21
:10367000616E5F706F736974696F6E0A00202063FA
:10368000757272656E745F706F736974696F6E3D89
:10369000003E2000646F5F626C6F636B696E675FF2
:1036A0006D6F76655F746F00290A002C20002C2056
:1036B00000646F5F626C6F636B696E675F6D6F76DE
:1036C000655F746F5F78792800290A002C200064F8
:1036D0006F5F626C6F636B696E675F6D6F76655F5E
:1036E000746F5F7A2800290A005D2C200020746F17
:1036F0002000205B00646F5F7A5F636C65617261BC
:103700006E63652800250A00200072656D656D6294
:1037100065725F66656564726174655F7363616C31
:10372000696E675F6F66663A2066723D00250A0023
:103730002000726573746F72655F6665656472619F
:1037400074655F616E645F7363616C696E673A2074
:1037500066723D0020746F6F206C6F6E6720657815
:1037600074727573696F6E2070726576656E7465BC
:10377000640A0020636F6C642065787472757369E5
:103780006F6E2070726576656E7465640A00486FAE
:103790006D65202573204669727374005761726EDF
:1037A000696E673A20486F6D696E672042756D706B
:1037B0002044697669736F72203C20310A0001024F
:1037C00004290A003C3C3C207365745F617869738E
:1037D0005F69735F61745F686F6D652800203A20D0
:1037E0000A00202063757272656E745F706F736972
:1037F00074696F6E3D005D203D20003E20686F6D56
:10380000655F6F66667365745B00290A002A2A2A61
:10381000205A20686F6D6564207769746820505263
:103820004F424520285A5F4D494E5F50524F424506
:103830005F555345535F5A5F4D494E5F454E445364
:10384000544F505F50494E29202A2A2A0A3E2028E8
:103850004D383531205A000000C0BF0000B8C1000B
:10386000000000290A003E3E3E207365745F6178C7
:1038700069735F69735F61745F686F6D65280029A4
:103880000A003C3C3C20686F6D65617869732800D4
:10389000203A203E204146544552207365745F61B2
:1038A0007869735F69735F61745F686F6D650A0043
:1038B000202063757272656E745F706F73697469CE
:1038C0006F6E3D006D6D0A0052652D62756D703A28
:1038D00020006D6D0A004D6F766520417761793A61
:1038E00020006D6D0A00486F6D6520466173743A63
:1038F00020000000A0400000A040000000406D6DCE
:103900000A0053656E736F726C6573732062616336
:103910006B6F66663A2000290A003E3E3E20686FC3
:103920006D65617869732800206C696D69746564E0
:1039300020746F2000204D6178200053544F505068
:1039400045442E20005072696E7465722073746F46
:10395000707065642064756520746F206572726F85
:1039600072732E2046697820746865206572726FC4
:103970007220616E6420757365204D393939207469
:103980006F20726573746172742E202854656D7097
:1039900065726174757265206973207265736574F0
:1039A0002E205365742069742061667465722072DC
:1039B000657374617274696E67290A00206572729A
:1039C0006F72202D20726573746172742077697430
:1039D00068204D3939390A00424C546F75636800CC
:1039E00021212053544F502063616C6C6564206228
:1039F000656361757365206F66200050726F626544
:103A00003A3A70726F62655F737065636966696385
:103A10005F616374696F6E005261697365205A203B
:103A2000746F2000206E6F5F72657475726E3D005A
:103A30006465706C6F793D00203A2050726F62654A
:103A40003A3A7365745F6465706C6F7965640A00F7
:103A5000202063757272656E745F706F736974692C
:103A60006F6E3D00206D61783A00206D696E3A00FE
:103A700041786973200000006643000069430080BC
:103A800074430000C0BF0000B8C1000000005365CF
:103A90007474696E67732053617665642100290A26
:103AA000002062797465733B206372632000536564
:103AB0007474696E67732053746F72656420280094
:103AC00045525200454550524F4D20496E69746928
:103AD000616C697A65640A0048617264636F646549
:103AE000642044656661756C742053657474696EF6
:103AF0006773204C6F616465640020286D6D290038
:103B0000203B204C6576656C696E67200020204D57
:103B10003432302053004175746F20426564204C6C
:103B20006576656C696E670020460020480020209D
:103B30004D3134352053004D6174657269616C20DC
:103B400068656174757020706172616D657465720D
:103B50007300526574726163742028533C6C656E07
:103B60006774683E20463C66656564726174653EB4
:103B7000205A3C6C6966743E29005265636F766515
:103B8000722028533C6C656E6774683E20463C6624
:103B9000656564726174653E29004175746F2D52CC
:103BA0006574726163742028533C656E61626C6554
:103BB0003E290020204D3930360020543020450069
:103BC00053746570706572206472697665722063E3
:103BD000757272656E740020204D39313400537453
:103BE000616C6C4775617264207468726573686F8C
:103BF0006C640020204D353639205331005430207C
:103C000045002058004472697665722073746570AF
:103C100070696E67206D6F64650020204D3930300B
:103C2000204B004C696E65617220416476616E6361
:103C30006500203B2053656E736F72200020204D7D
:103C400034313220530046696C616D656E742072A8
:103C5000756E6F75742073656E736F7200204A0005
:103C60002020473239205720490020204D31343957
:103C70002043203B20556E69747320696E20436594
:103C80006C736975730A0054656D70657261747543
:103C9000726520556E697473002020473231203BD5
:103CA000004C696E65617220556E697473004545FC
:103CB00050524F4D206461746173697A652065725A
:103CC000726F722E0A004572723A20454550524F6B
:103CD0004D2043524300202863616C63756C61740E
:103CE000656429210A0020213D2000454550524F9E
:103CF0004D20435243206D69736D61746368202DBC
:103D0000202873746F726564292000454550524F16
:103D10004D20436F72727570740A002053697A6582
:103D20003A2000496E6465783A200053746F7265DA
:103D3000642073657474696E677320726574726948
:103D40006576656400290A002062797465733B20FA
:103D500063726320002073746F72656420736574EE
:103D600074696E6773207265747269657665642024
:103D700028000000FA430000FA43000096430000C8
:103D800020420000C8420000C84200004843000032
:103D9000D2438E1200008E1200006400000028231F
:103DA0000000204D61726C696E3D563931290A0060
:103DB000454550524F4D2076657273696F6E206D88
:103DC00069736D617463682028454550524F4D3DBD
:103DD0000024F4D43050C38D20C3A24117828B70CD
:103DE00011127A900D826CDA0AA861E108C7586650
:103DF00007615142061F4B5E05C145A6041B4112D7
:103E000004093D9703723931034136DB0266339270
:103E100002D4305302812E1D02642CEE01762AC595
:103E200001B128A101102781018F2564012B244AAB
:103E300001E1223401AD2120018D200C01811FFC04
:103E400000851EED00981DDF00B91CD200E71BC7DE
:103E500000201BBB00651AB200B319A9000A19A003
:103E6000006A189800D217920040178A00B616848C
:103E70000032167E00B41579003B157400C7146F2C
:103E80000058146A00EE1366008813620026135E61
:103E900000C8125B006D12570016125500C1115177
:103EA0000070114E0022114C00D61049008D1046B2
:103EB000004710450002104200C00F4000800F3E36
:103EC00000420F3C00060F3A00CC0E3900930E372B
:103ED000005C0E3500270E3400F30D3200C10D31A9
:103EE00000900D2F00610D2F00320D2D00050D2CBF
:103EF00000D90C2A00AF0C2A00850C28005D0C2884
:103F000000350C27000E0C2500E90B2500C40B24FE
:103F100000A00B23007D0B22005B0B21003A0B213C
:103F200000190B2000F90A1F00DA0A1F00BB0A1E45
:103F3000009D0A1D00800A1C00640A1C00480A1C1F
:103F4000002C0A1B00110A1A00F7091A00DD0919D2
:103F500000C4091900AB091800930918007B091760
:103F600000640917004D09170036091600200915CD
:103F7000000B091500F6081500E1081500CC08141F
:103F800000B8081400A4081300910813007E081359
:103F9000006B081200590812004708120035081279
:103FA00000230811001208110001081000F1071188
:103FB00000E0071000D0071000C0070F00B1071085
:103FC00000A1070F0092070F0083070F0074070E70
:103FD0000066070E0058070E004A070E003C070E49
:103FE000002E070D0021070D0014070D0007070D17
:103FF00000FA060D00ED060C00E1060D00D4060CDB
:1040000000C8060C00BC060C00B0060B00A5060C90
:104010000099060B008E060B0083060B0078060B3A
:10402000006D060B0062060B0057060A004D060ADB
:104030000043060B0038060A002E060A0024060973
:10404000001B060A0011060A0007060900FE050A01
:1040500000F4050900EB050900E2050900D905098E
:1040600000D0050900C7050800BF050900B605090D
:1040700000AD050800A50508009D05080095050987
:10408000008C050800840508007C050700750508FC
:10409000006D050800650507005E05080056050768
:1040A000004F0508004705070040050700390507D0
:1040B00000320507002B050700240507001D050732
:1040C00000160507000F0506000905070002050692
:1040D00000FC040700F5040600EF040700E80406EE
:1040E00000E2040600DC040600D6040600D0040743
:1040F00000C9040500C4040600BE040600B8040696
:1041000000B2040600AC040600A6040500A10406E3
:10411000009B04050096040600900405008B04062D
:104120000085040500800405007B04050076040674
:1041300000700405006B04050066040500610405B9
:10414000005C04050057040500520405004D0405F9
:104150000048040400440405003F0405003A040438
:104160000036040500310405002C04040028040571
:1041700000230404001F0405001A040400160404AC
:1041800000120405000D04040009040400050404E1
:104190000001040500FC030400F8030400F4030418
:1041A00000F0030400EC030400E8030400E403044B
:1041B00000E0030400DC030400D8030400D403037C
:1041C00000D1030400CD030400C9030400C50304A7
:1041D00000000000000000000000000000000000DF
:1041E000000000000000000000D1036D6403570DC3
:1041F0000347C6023B8B023259022B2E02250902CD
:1042000021E8011CCC011AB201179B01148701138C
:1042100074011163010F54010E46010D39010D2C7B
:10422000010B21010A17010A0D0109040108FC0014
:1042300008F40007ED0007E60007DF0006D90006D6
:10424000D30005CE0006C80005C30004BF0005BAB0
:104250000004B60004B20004AE0004AA0004A600E4
:1042600003A300049F00039C00039900039600032E
:104270009300029100038E00028C000389000287E4
:1042800000038400028200028000027E00027C00A3
:10429000027A0002780002760001750002730002C3
:1042A0007100017000026E00016D00026B00016A76
:1042B00000026800016700026500016400016300FC
:1042C000016200026000015F00015E00015D00010B
:1042D0005C00015B00015A000159000158000157C0
:1042E0000001560001550001540001530001520025
:1042F000015100005100015000014F00014E00012A
:104300004D00004D00014C00014B00014A00004AE5
:104310000001490001480000480001470001460033
:104320000046000145000045000144000143000033
:1043300043000142000042000141000041000140F1
:1043400000004000013F00003F00013E00003E0031
:10435000013D00003D00013C00003C00013B00002D
:104360003B00013A00003A000139000039000039F1
:104370000001380000380001370000370000370026
:10438000013600003600003600013500003500011E
:1043900034000034000034000133000033000033E7
:1043A0000001320000320000320001310000310013
:1043B0000031000031000130000030000030000109
:1043C0002F00002F00002F00002F00012E00002ED4
:1043D00000002E00012D00002D00002D00002D00FA
:1043E000012C00002C00002C00002C00012B0000F0
:1043F0002B00002B00002B00012A00002A00002ABD
:1044000000002A00002A00012900002900002900DC
:1044100000290001280000280000280000280000D2
:1044200028000127000027000027000027000027A0
:1044300000012600002600002600002600002600BD
:1044400000260001250000250000250000250000B1
:104450002500002500012400002400002400002481
:10446000000024000024000123000023000023009A
:10447000002300002300002300012200002200008E
:104480002200002200002200002200002200012160
:104490000000210000210000210000210000210077
:1044A000002100012000002000002000002000006A
:1044B0002000002000002000002000011F00001F3D
:1044C00000001F00001F00001F00001F00001F0051
:1044D0000020436F756E7420583A00554E4C4F4182
:1044E000442046494C414D454E54004C4F414420D8
:1044F00046494C414D454E540046494C414D454E70
:1045000054204348414E47450042656400456E6370
:104510006C6F737572650020002000200020002061
:10452000002500657272001FE0201020102010107E
:104530002010202010201030300840048003001F7D
:10454000E03FF03FF03FF01FE01FE03FF03FF03F63
:10455000F00FC0078003003FFFF83E00F839F03845
:1045600031E01831E01821E1E820F3E8207FE8206D
:1045700077E828EE282FDC082FFC082F9E082F0F45
:1045800008300F18300F18381F383E00F83FFFF87A
:104590003FFFF83E00F8383F38307E18307C18284E
:1045A0007C082C38082F39C82FFFE82FC7E82FFFC9
:1045B000E82739E8203868207C28307C1830FC183F
:1045C00039F8383E00F83FFFF83FFFF83E00F83872
:1045D0000F38341FD8361F982F1F082F9E082FFC26
:1045E000082FDC0827EFC82077E8207FE820F3E8D1
:1045F00021F1E833F0D837F05839E0383E00F83F81
:10460000FFF83FFFF83E80F83980383781D837C34C
:10461000D827C7E823C7F821FF88206C08206C083A
:10462000206C0823FF083FC7882FC7C83787D837B3
:1046300003D83803383E02F83FFFF8022200044452
:1046400000044400022200011100FFFFCE40A8A494
:104650002111101FFFF808040424020273FFFFFF5A
:10466000FFCE4020242010101FFFF808040424026D
:104670000273FFFFFFFFC040002020001010000861
:1046800008000404000203FFFF02220004440004A7
:104690004400022200011100FFFFC04088A0211148
:1046A0001012220808000404000203FFFF63616E79
:1046B00063656C005072696E742041626F7274653C
:1046C000640055492041626F72746564004D323553
:1046D00020500A4D323400526573756D650055499E
:1046E0002050617573650050617573696E672E2E79
:1046F0002E00726573756D65005072696E7420527C
:104700006573756D6564004D3234006F6F6F000026
:104710000047414D45204F56455200107CFEFEFE9D
:104720004440248000003180000024804440040084
:104730000E000E007FC0FFE0FFE0FFE0FFE01FC0C3
:104740007FF0DDD8FFF87FF006000F001F8036C035
:104750003FC009001680294006000F001F8036C0A8
:104760003FC0168020401080104008801FC0376076
:104770007FF05FD050500D80104048905FD0777030
:104780007FF01FC0104020200F007FE0FFF0E67098
:10479000FFF0198036C0C0300F007FE0FFF0E670F8
:1047A000FFF0198036C0198000FE0003FF8007C7A4
:1047B000C00701E00000E00000F00000700400709D
:1047C0000E00701F00703F80F00E00E00F01E00748
:1047D000C7C003FF8000FE0000FE0003FF8007C784
:1047E000C00F01E00E00E03F80F01F00700E00706F
:1047F0000400700000700000F00000E00701E00716
:10480000C7C003FF8000FE000E000E000E000E0069
:104810000E000E000E000E007FC03F801F000E0035
:10482000040004000E001F003F807FC00E000E0039
:104830000E000E000E000E000E000E00FFFFFF7FA8
:1048400080FFC0FFC0FFC07F807F80FFC0FFC0FF30
:10485000C03F001E000C0050726F6265205A204F4E
:104860006666736574004D3530300A4D313137203E
:104870005A204F6666736574205361766564004CF8
:104880006F6164206D6D00556E6C6F6164206D6D9D
:104890000046696C2E204469612E004F6666004F09
:1048A0006E004520696E206D6D5E33004164766157
:1048B0006E6365204B004D33303320553120452544
:1048C0006920532569004175746F74756E65202ADF
:1048D00020504944005049442D44202A0050494466
:1048E0002D49202A005049442D50202A002008201C
:1048F00046616374002008204D6178002008204D37
:10490000696E004D696E2054726176656C2053703B
:10491000656564004D696E2056656C6F63697479D6
:10492000004D61782040205370656564004D6178CA
:10493000204520416363656C004D61782040204133
:104940006363656C0054726176656C2041636365D6
:104950006C005265747261637420416363656C001E
:10496000416363656C004D61782040204A65726B3D
:10497000004D3530300A4D313137205A204F6666B0
:10498000736574205361766564005A2050726F62BB
:10499000652057697A6172640050726F6265205AAF
:1049A000204F66667365740050726F6265205920EF
:1049B0004F66667365740050726F62652058204FB1
:1049C000666673657400402073746570732F6D6D37
:1049D00000416476616E6365642053657474696E2A
:1049E0006773003F0043616E63656C00496E6974D4
:1049F000004D34323800496E697469616C697A65BA
:104A000020454550524F4D0046696C616D656E748E
:104A10000054656D706572617475726500544D4324
:104A200020447269766572730053746570732F6DDC
:104A30006D0050726F6265204F6666736574730017
:104A40004A65726B00416363656C65726174696F7E
:104A50006E004D617820537065656420286D6D2F60
:104A600073290053657420486F6D65204F66667327
:104A700065747300436F6E66696775726174696F00
:104A80006E003F0043616E63656C204F626A656330
:104A900074004E4F005945530043616E63656C20AE
:104AA0004F626A656374207B004D61696E204D65BD
:104AB0006E75004265642049646C652054656D70B4
:104AC000004E6F7A7A6C652049646C652054656D80
:104AD000700054656D70657261747572650054691B
:104AE0006D656F75740044697361626C652054690B
:104AF0006D656F7574004D3837004261636B004817
:104B00006967682053706565640053572D4D6F6465
:104B1000650053746F77004465706C6F790053655E
:104B20006C662D5465737400526573657400496436
:104B30006C6520506572696F6400416374697665C5
:104B4000205370656564004175746F204D6F646516
:104B50000049646C6520537065656400556E72652C
:104B60007472616374205600556E726574722E20E3
:104B70006D6D00486F70206D6D00526574726163D9
:104B80007420560052657472616374206D6D00412B
:104B900075746F2D526574726163740042656400B0
:104BA0004E6F7A7A6C650046616E2053706565645D
:104BB00000436F6E66696775726174696F6E00524B
:104BC0006573746F72652044656661756C747300FB
:104BD0004C6F61642053657474696E67730053741D
:104BE0006F72652053657474696E677300507265E7
:104BF00068656174202420436F6E66004F6666000E
:104C00004F6E0052756E6F75742053656E736F72C0
:104C1000005265747261637400486F74656E64203D
:104C200049646C652054696D656F757400424C541D
:104C30006F75636800436F6E74726F6C6C65722081
:104C400046616E0050726F6265205A204F6666732F
:104C5000657400416476616E6365642053657474A5
:104C6000696E6773004D61696E204D656E75004D0C
:104C700037303220542564004D3630302042302009
:104C8000542564004D373032203B2564004D3730C9
:104C90003120542564004D373032004D373031001B
:104CA0004D363030204230004D61696E204D656ECA
:104CB0007500436F6E74696E7565004F6666004FD0
:104CC0006E0052756E6F75742053656E736F72004F
:104CD0005075726765206D6F726500524553554D72
:104CE00045204F5054494F4E533A005052494E546C
:104CF00020504155534544002F00200020204E6F86
:104D00007A7A6C653A20005061726B696E672E2E5C
:104D10002E0000005761697420666F720066696C2E
:104D2000616D656E74206368616E676500746F20E5
:104D30007374617274005761697420666F720066E3
:104D4000696C616D656E7420756E6C6F61640000D6
:104D50004E6F7A7A6C652068656174696E67005081
:104D60006C6561736520776169742E2E2E0000508A
:104D70007265737320627574746F6E00746F20684F
:104D8000656174206E6F7A7A6C650000496E736598
:104D900072742066696C616D656E7400616E64206A
:104DA000707265737320627574746F6E00746F2017
:104DB000636F6E74696E7565005761697420666F04
:104DC000720066696C616D656E74206C6F61640061
:104DD00000507265737320427574746F6E00746F47
:104DE00020726573756D65207072696E740000576E
:104DF00061697420666F72207072696E7400746FDE
:104E000020726573756D652E2E2E000057616974D2
:104E100020666F720066696C616D656E74207075D6
:104E20007267650000536E346B3300496E766164BF
:104E300065727300427269636B6F75740041626FD3
:104E40007574205072696E74657200256C642E252D
:104E5000696D00457874727564656420546F74617F
:104E60006C004C6F6E67657374204A6F62205469E2
:104E70006D65005072696E742054696D6500436FF2
:104E80006D706C65746564003A20005072696E74D0
:104E900020436F756E74003A200047616D657300A2
:104EA0005374617473005072696E74657220496E38
:104EB000666F004D61696E204D656E7500426564D8
:104EC00000453100626564002C2073797374656D50
:104ED0002073746F70706564212048656174657219
:104EE0005F49443A20004572723A204D415854457A
:104EF0004D50004D415854454D50207472696767BC
:104F0000657265640048656174696E672046616911
:104F10006C65640048656174696E67206661696CE0
:104F20006564004D353234004D313132205368759F
:104F300074646F776E001000AD0330016A01500297
:104F40002B0170030A019004F500B005E500D006BE
:104F5000D800F007CE001009C500300ABE00500B83
:104F6000B700700CB100900DAB00B00EA600D00FD2
:104F7000A200F0109D0010129900301395005014FB
:104F8000920070158E0090168B00B0178700D01815
:104F90008400F0198100101B7E00301C7B00501D26
:104FA0007900701E7600901F7300B0207000D02131
:104FB0006E00F0226B001024690030256600502638
:104FC00063007027610090285E00B0295C00D02A41
:104FD0005900F02B5600102D5400302E5100502F48
:104FE0004E0070304B0090314800B0324500D03355
:104FF0004200F0343E0010363B0030373700503866
:10500000330070392E00903A2900B03B2300D03C89
:105010001B00F03D1100103F0100F03F0000457201
:10502000723A204D494E54454D50004D494E54451D
:105030004D50207472696767657265640054484515
:10504000524D414C2052554E4157415900546865CC
:10505000726D616C2052756E6177617900202F004E
:1050600020403A0020573A007C3C3E5E2B3D3F2FCB
:105070005B5D3B2C2A225C0043616E6E6F74206F77
:1050800070656E2073756264697220005761726E7C
:10509000696E673A004D6564696120496E697420E4
:1050A0004661696C0053442063617264206F6B0A2F
:1050B000006F70656E526F6F74206661696C656415
:1050C0000A00766F6C756D652E696E697420666175
:1050D000696C65640A004E6F2053442063617264FA
:1050E0000A00534420636172642072656C656173C9
:1050F00065640A000A4D3234004D323320257300B6
:105100002E0A006F70656E206661696C65642C20E4
:1051100046696C653A200046696C652073656C656C
:10512000637465640A002053697A653A2000466911
:105130006C65206F70656E65643A2000454E4420B2
:10514000535542524F5554494E450A002220706F24
:1051500073002220706172656E743A2200535542CA
:10516000524F5554494E452043414C4C2074617276
:105170006765743A220053756263616C6C204F76E8
:105180006572666C6F770045786365656465642059
:105190006D617820535542524F5554494E45206415
:1051A000657074683A0057726974696E6720746F2D
:1051B0002066696C653A20004E6F7420534420705D
:1051C00072696E74696E670A005344207072696E6A
:1051D00074696E6720627974652000667265736811
:1051E00000646F696E67002066696C653A20004E46
:1051F0006F7720002F6175746F25632E67000000A4
:1052000020002300260029002C002F00320000017E
:105210000000030106010901000000000000000079
:10522000000000000000000000000000000000007E
:10523000000000000000000000000400000000006A
:10524000000000000E0000000000000000000E0042
:1052500000000000000000001F000000000000002F
:1052600000003B0000000000000000003180000052
:1052700000000000000071C00000000000000000FD
:1052800060C00000000000000000E0E0000000003E
:1052900000000000C0700000000000000001C070AD
:1052A0000000000000000003803800000000000043
:1052B000000300180000000000000007FFFC0000D1
:1052C00000000000000FFFFC000000000000000FC5
:1052D000FFFE000000000000001C000700000000AE
:1052E0000000003800070000000000000038030341
:1052F00080000000000000300F81800000000000EE
:1053000000660C81C0000000000000EF0D8CC000A2
:105310000000000000E9871EE0000000000001CF4F
:1053200083927000000000000387819E70000000DF
:1053300000000381B9B83800000000000301FFB08D
:105340001800000000000600FFF01C000000000034
:105350000E30FFE00C00000000000E78FFFC0E0095
:10536000000000001CCCFFFFC70000000000387CDC
:10537000FFF7670000000000383FFFE323800000D4
:1053800000007007FFF3E1800000000070007FF173
:1053900081C000000000F01FFFF003E000000000EB
:1053A000F83FDC3003E000000001DC6418380770CF
:1053B000000000039C6C183C0F30000000038E3886
:1053C0001C360E380000000707000E360C180000CF
:1053D000000607001E1C1C1C0000000E0300120823
:1053E000380E0000000C03801E0038060000001874
:1053F00001C00C0070070000003800C00000F0037E
:105400000000003FFFFFFFFFFFFF8000007FFFFF66
:10541000FFFFFFFFC00000000000000000000000D0
:1054200000000000000000000000006066607E7E5A
:105430001F1F8000006066607E7F3F9F80000060CD
:1054400066600E6331860000006066601C7F3186F6
:10545000000000606660387F318600000060666092
:10546000706331860000007E7E7E7E7F3F86000076
:10547000007E3C7E7E7E1F060000000000000000D3
:10548000000000000000000000000000000000001C
:105490000000000000000000424C546F756368205B
:1054A000536574204D6F6465202D20004D313720E9
:1054B0005A0A4D31313720536964654B69636B205B
:1054C0005265616479002020506C616E6E65724295
:1054D000756666657242797465733A20002046727B
:1054E0006565204D656D6F72793A200020436F6DC0
:1054F00070696C65643A204A756C20313520323011
:1055000032350A00204C61737420557064617465F3
:10551000643A20323032342D30372D3032207C2026
:10552000417574686F723A204C756C7A426F740AD8
:10553000004D61726C696E20322E312E332E302E6A
:1055400034380A0020536F667477617265205265A3
:105550007365740A00205761746368646F67205232
:10556000657365740A002042726F776E206F7574E0
:105570002052657365740A002045787465726E6107
:105580006C2052657365740A00506F7765725570B0
:105590000A0073746172740A004D38330A47302070
:1055A000452D31340A4D38320A47302059323333D1
:1055B000205A3234342E352046323530300A4739BD
:1055C000310A4730205A2D320A473930004D3130E8
:1055D0003031006572726F722077726974696E671C
:1055E00020746F2066696C650A00446F6E652073D5
:1055F0006176696E672066696C652E0A004D3239E6
:1056000000456E6473746F7073002553202563200A
:10561000256320256320256300205A3A0020593A4B
:105620000020583A00656E6473746F707320686967
:10563000743A2000436F6C642050756C6C005450B9
:10564000550041425300504C410020583A00100090
:10565000C90210012C014001220170011801B001A2
:105660000E01F00104015002FA00B002F000300314
:10567000E600D003DC009004D2007005C800A0064C
:10568000BE000008B400B009AA00D00BA000600E54
:10569000960060118C000015820020197800C01D52
:1056A0006E00A0226400B0275A00902C50000031F8
:1056B0004600E0343C0010383200903A2800603C4C
:1056C0001E00A03D1400803E0A00203F00000000A4
:1056D0002100240027002A002D00300033000101A2
:1056E0000000040107010A01000022002500280033
:1056F0002B002E00310034000201000005010801DA
:105700000B01050505050705080808080202020245
:105710000A0A08080404040401010101010101014D
:105720000303030303030303040707070C0C0C0C18
:105730000C0C0C0C02020202060606060606060601
:105740000B0B0B0B0B0B0B0B01021020200808108E
:1057500020401020408002010201080402010102E1
:1057600004081020408080402010080402018004BA
:105770000201804020100804020108040201010215
:10578000040810204080010204081020408000001E
:105790000A0B02090C0D0E080703040100000000AB
:1057A00000000000000000000000000000000000F9
:1057B00000000000000000000000121110000000B6
:1057C00000000000000000000000000000000000D9
:1057D00000000000302E30323500302E3100312EE6
:1057E00030004D6F766520246D6D003130000080F3
:1057F000674300008043008074434D6F766520410D
:10580000786973004D6F7665202A004D6F766520AC
:105810004000465642563E5634564368616E6765B0
:105820002046696C616D656E7400556E6C6F6164C5
:105830002046696C616D656E74004C6F6164204632
:10584000696C616D656E7400507265686561742085
:10585000437573746F6D00507265686561742024C0
:10586000004261636B00200053656C6563742066C1
:10587000726F6D204D656469610020002000207406
:105880006F6F206C6F6E6720657874727573696FC7
:105890006E2070726576656E7465640A0020636FB1
:1058A0006C6420657874727573696F6E20707265B0
:1058B00076656E7465640A00473238004469736126
:1058C000626C6552756E6F75740050757267654DC8
:1058D0006F72650050617573656400436F6E746923
:1058E0006E7565004C6F61642046696C616D656E14
:1058F00074205400496E736572742066696C616D22
:10590000656E7420616E642073656E64204D313065
:10591000380A002F2F616374696F6E3A00726573E5
:10592000756D6564004469736D69737300526573C6
:10593000756D696E670050726F62653A3A70726F8A
:1059400062655F646F776E5F746F5F7A006D6D295B
:105950000A00547269676765726564206561726CDC
:1059600079202861626F766520004E6F207472691D
:10597000676765722E0A002050726F62652066614B
:10598000696C21202D20002C202E2E2E290A002C7F
:1059900020003E207472795F746F5F70726F626571
:1059A000282E2E2E2C2000534C4F5700536C6F770F
:1059B0002050726F62653A0A0050726F6265204C27
:1059C0006F7720506F696E743A200050726F626575
:1059D0003A3A72756E5F7A5F70726F626500205A34
:1059E0003A200020593A200042656420583A2000AD
:1059F00050726F62696E67204661696C65640A0067
:105A000050726F62696E67204661696C6564002040
:105A1000706F696E740A002D72656C6174697665C9
:105A2000004D6F766520746F2070726F6265004E56
:105A30006F7420526561636861626C650A00203A88
:105A4000200A00202063757272656E745F706F7338
:105A50006974696F6E3D005F72656C61746976652B
:105A6000290A002C20002C20002C20002C20002EA5
:105A70002E2E280050726F62653A3A70726F62651E
:105A80005F61745F706F696E7400486F6D696E67F7
:105A9000204661696C656400FFFFFF290A005D0014
:105AA0005B002C20002C20002E2E2E2800646F5F1F
:105AB000686F6D696E675F6D6F7665004A560B5B48
:105AC000075B035B204500205A0020590020204D31
:105AD00039322058005374657073207065722075D8
