:100000000C94292B0C945A2B0C945A2B0C945A2B8D
:100010000C945A2B0C945A2B0C945A2B0C945A2B4C
:100020000C945A2B0D94E2880D94E2880D94E2888A
:100030000C945A2B0C945A2B0C945A2B0C945A2B2C
:100040000C945A2B0C94F7990C945A2B0C945A2B11
:100050000C945A2B0C945A2B0C94DA970D94058C13
:100060000C945A2B0D94351D0D94FF1C0C945A2B97
:100070000C945A2B0C945A2B0C945A2B0C945A2BEC
:100080000C9436E00C945A2B0C945A2B0C945A2B4B
:100090000C945A2B0C945A2B0C945A2B0C945A2BCC
:1000A0000C945A2B0C945A2B0C9408E00C945A2B59
:1000B0000C945A2B0C945A2B0C945A2B0C945A2BAC
:1000C0000C945A2B0C945A2B0C945A2B0C945A2B9C
:1000D0000C945A2B0C945A2B0C945A2B0C945A2B8C
:1000E0000C945A2B084AD73B3BCE016E84BCBFFD13
:1000F000C12F3D6C74319ABD56833DDA3D00C77FF8
:1001000011BED9E4BB4C3E916BAAAABE0000008090
:100110003F05A84CCDB2D44EB93836A9020C50B91F
:10012000918688083CA6AAAA2ABE000000803F004B
:100130000C94A3EC0D9496210D94BE1D0C9468E7CD
:100140000C94DDE10D94D5470C948AE20D949E61E8
:100150000C945D810D948D630C943AEF0C94AEE792
:100160000C9497DE0C94BBEC0D94EC240D9434238A
:100170000D9494230D9496630C94D1E70D94C32BA6
:100180000C94E4D10C9472E10C94D7E60C94E6E65E
:100190000D947C460C94FBED0C94BCDE0C94A62DC7
:1001A0000C945C300D94F0240C943BDE0D945F367F
:1001B0000D9421410D94CE2C0C94543A0C94B8E13A
:1001C0000D94E8200C94BE300C9476880C948AF23E
:1001D0000D94E0370C94D3EB0D94C1210D94B263D0
:1001E0000C94A6E20C9485ED0C94EDE10D94A58998
:1001F0000D9493370C940DDE0D944C310C945CE20D
:100200000C945DEC0C9444ED0C947B3B0D94816359
:100210000C94E3ED0D940A290D942C210D946B227E
:100220000D94AE630D94152A0C941AEE0D942D6363
:100230000D94F2280D9464230D9444630C9497EE6E
:100240000C9456500C945DED0C9439DE0D94E963DA
:100250000C94BBEE0C94AD810C9472EB0C949AE26E
:100260000D9482460D946C390D94F64C0D946A23CE
:100270000D949A630D94FF1D0C9420ED0C94A3EE45
:100280000C946EEE0D9456210C9498E60C9457E263
:100290000D94B61D0C9448E10C9490EB0D94CF5F37
:1002A0000D94BB630C94C0E60C94062D0C94FC7C5E
:1002B0000C9438ED0D94AD2D0C9469420C946F8321
:1002C0000D94C1890D94D4200D948D220C9448E690
:1002D0000C941F810C949FE70D949A230D947E46F5
:1002E0000C9432EE0C943FEC0C9443E10C94C8E176
:1002F0000C94FCE70C9409E70D94875D0D948563DD
:100300000D94008A0D9419310D9421310C9492EEC4
:100310000C94D4E10C9455EE0C948B2D0C94E7E1E5
:100320000C94FCEB0C94BADE0D947F2D0C9446EEED
:100330000C9460DE0C943DE20C94DC7C0D94E9346A
:100340000C94E47C0D94A0230D94D6370D94EC28E6
:100350000C94C44F0D9423260C94C0F20C94E0ED41
:100360000C949CEB0C94A8EB0C9495DE0D949C1DC6
:100370000D943E1E0C94003C0C94B2E10C940E457E
:100380000D94842D0D9488460D949D4A0C9466EB33
:100390000C94C3E10C944EEC0D9457630D94DB3B2D
:1003A0000C9449E20D94C61D0D94F2200D945E1F2D
:1003B0000C9456EB0C94C0EE0C942CED0D944C4F19
:1003C0000D948D1D0D9410970C9414490C94BDE15F
:1003D0000D940A8A0C94B4EB0C94E0E80C945C2B1A
:1003E0000C9476E80C9446EB0C9449ED0C944EEB8F
:1003F0000D941E210C94CCED0C947AEE0D94642196
:100400000C9431E10C94583A0C9427E20D948E89A7
:100410000C9403E10D940E330C94CFE60C944AE750
:100420000D94B21D0C941F7E0C94127E0C948AE6DF
:100430000D942F480D94C9470D94A4630D94B66391
:100440000C943A820C94577D0D94E6280D948C27D9
:100450000D94288A0C9489EB0D94C8560D94692E3E
:100460000D94C1470C94ABEC0C947CE70D943B636A
:100470000C9432E20C94CAD20C94F4EC0C94F681F5
:100480000C94DBEC0C94D63C0D94FA280C9486EE7C
:100490000D94D73B0D94D8220C94B1E60C94033CF8
:1004A0000C9489880D94DD470C945FE60D945E23CF
:1004B0000D94221E0D94A93D0C94357D0C94EFED06
:1004C0000C94CCE70D9488230D948A460D945F2EEE
:1004D0000D94BE2B0D94C0320D94A6220C945AE1BB
:1004E0000C9452E80D940D2E0D949C610C94BBEB72
:1004F0000C947D7F0C9468E10D947B630D944763AD
:100500000D94C1300D9444360D9476230C94A6E1DD
:100510000D9406210C94B1ED0D948C210D949B89C2
:100520000D94CD470D94301E0D94A6230C94B4E287
:100530000D943C1F0D9402290C944EE10C943DE166
:100540000C945DEB0C9464EE0D94B9890C94A1E2CB
:100550000D947D570D94C5470C94CFE10D943F2326
:100560000C94BCE80C948BE70D94F6890C94D6EDB2
:100570000C94A5F20D9410210D94545B0C94FE5232
:100580000D9470230D94AA210D94B9470C94CBECD3
:100590000D94CD3B0C9478E20C942AE10D94AF8934
:1005A0000D9452420C94BDED0D948C460D9438235D
:1005B0000D94D1470D94BE5A0C942E7C0D94804618
:1005C0000D94AE1D0C941BE20D940B330C946DE74F
:1005D0000C94AFE20D9482230C9495E20D94E153B8
:1005E0000D94C6300D943E630C9450E60C9426EEA8
:1005F0000C9453E10D94AC230C9459E70C946FF2D6
:100600000D94892D0C9433300C9444E20C945F2BA0
:100610000D94BD470C9437EE0C9452E20C9499ED76
:100620000D942D520C9499E80D94BC630C942DE21A
:100630000C946CEC0D9416640D94C0200C94262D33
:100640000D944D630D9443220C9414EC0D941233CD
:100650000C9462DE0D94BA1D0C9436E70D948E2D29
:100660000D9484460D94B82B0D9489630C9499DEF7
:100670000C946CE60C9485EC0C942CEC0D945823A3
:100680000D94471E0D9486460C9404ED0C9484E260
:100690000D9438630C9455820C946C880C9407EE7E
:1006A0000C943C810C94137E0C9437D10D94A06370
:1006B0000D9454630C9408D20C9427E70D94DD89B3
:1006C0000C9404E70C946DE10D94C3320C94E4EBAC
:1006D0000D944F270C9414E20D94A8630C9418E722
:1006E0000D9457220C94FDEE0D9442210D94392265
:1006F0000D949D370C94DFEB0C94BEDE0C942E3CD5
:100700000D94B4610C94A4820D9412290C945FE1B1
:100710000D94D3890D94F1220D9435480D94661DE6
:100720000D94C0630C9478E10C94BDE70D94E789B7
:100730000D94BC300C94C57F0D94148A0C947BE608
:100740000C9438E20C9476EC0D94002D0D942B3122
:100750000C9471ED0C9471880D9452230D947A2DA4
:100760000C944D3B0C94F5D10D947C480D9432586B
:100770000C945EDE0D94524B0D9417640C940EEEA7
:100780000D94C9890D94B3230C94B9E20C9471E2D1
:100790000C94127D0C94BE3C0D944A630C947EEB39
:1007A0000D94501F0D9478210C94907D0D94D821B8
:1007B0000D9496890D94BF220C94503A0C947F8826
:1007C0000D94903B0C9414ED0D94FD240C9475EF56
:1007D0000C9494EC0D94EF210C9458E60D94BD32DA
:1007E0000C9477820D94CC2D0C94AFEE0C94C2ED4A
:1007F0000D942A970D94B7300C9427E80D948E230E
:100800000D9490630D94D9470C948FE20D944D5143
:100810000C94E2E10D9441630C94F5E60C94C7EB63
:100820000C949FE10C9462E20C94E4EC0D947C2314
:100830000D94A71D0C949AE70C943BE70C94A2E648
:100840000C94A5ED0D941E8A0D9452634E414E49B1
:100850004E495459494E46CDCCCC3D0AD7233C177E
:10086000B7D13877CC2B329595E6241FB14F0A00CB
:100870000020410000C84200401C4620BCBE4CCABB
:100880001B0E5AAEC59D7400407A10F35A00A07238
:100890004E18090010A5D4E80000E87648170000BB
:1008A000E40B54020000CA9A3B000000E1F5050089
:1008B0000080969800000040420F000000A08601D2
:1008C000000000102700000000E8030000000064A2
:1008D00000000000000A000000000001000000000D
:1008E000002C76D888DC674F0823DFC1DFAE59E1E2
:1008F000B1B796E5E3E453C63AE651997696E8E651
:10090000C28426EB898C9B62ED407C6FFCEFBC9C23
:100910009F40F2BAA56FA5F490055A2AF75C936B35
:100920006CF9676DC11BFCE0E40D47FEF520E6B5F0
:1009300000D0ED902E0300943577050080841E08CA
:100940000000204E0A000000C80C333333330F98E8
:100950006E12831141EF8D2114893BE65516CFFEAF
:10096000E6DB18D1844B381BF77C1D901DA4BBE43B
:1009700024203284725E228100C9F124ECA1E53D7D
:10098000274C4556454C494E4700434F4D4D554E1B
:1009900049434154494F4E0044525952554E004527
:1009A00052524F525300494E464F004543484F0064
:1009B000206472697665722063757272656E743A2E
:1009C0002000206472697665722063757272656EAC
:1009D000743A2000206472697665722063757272C1
:1009E000656E743A200020647269766572206375C2
:1009F0007272656E743A2000207072657761726E53
:100A000020666C616720636C65617265640A002012
:100A10007072657761726E20666C616720636C65C9
:100A2000617265640A00207072657761726E20667B
:100A30006C616720636C65617265640A0020707286
:100A4000657761726E20666C616720636C656172A8
:100A500065640A0020496E76616C6964206578746B
:100A600072756465722000536C6565702E2E2E00C1
:100A70005A2050726F626520506173742042656421
:100A80000A005A2050726F626520506173742042D0
:100A9000656400203A20686F6D655F7A5F736166F8
:100AA000656C790A00202064657374696E617469ED
:100AB0006F6E3D00686F6D655F7A5F736166656C30
:100AC00079005261697365205A20286265666F72E9
:100AD0006520686F6D696E672920627920003E206D
:100AE000686F6D696E67206E6F74206E65656465F2
:100AF000642C20736B69700A0047323800205A3A20
:100B0000200020593A200042656420583A20004DC8
:100B100065736820706F696E74206F7574206F66DE
:100B20002072616E67650A00436C69636B20746FA5
:100B300020526573756D652E2E2E004E6F204D6F01
:100B400076652E00456E642066696C65206C69735D
:100B5000740A00426567696E2066696C65206C697D
:100B600073740A004E6F206D656469610A00286E17
:100B70006F2066696C65290043757272656E74201A
:100B800066696C653A20002E0A0044656C657469DC
:100B90006F6E206661696C65642C2046696C653AED
:100BA000200046696C652064656C657465643A0074
:100BB0005072696E742074696D653A20006F6B0025
:100BC0006F666600AB09A6099F0998098A09810921
:100BD00044454255473A004D31313320530054616A
:100BE0007A20536964654B69636B20323839204F32
:100BF00046462E002F2F004D31343520533C696E70
:100C00006465783E206F7574206F662072616E6730
:100C1000652028302D31290A00416363656C6572B7
:100C20006174696F6E004665656472617465004D3C
:100C300032303620580020204D61783A20002000C4
:100C400020204D696E3A2000536F667420656E64F3
:100C500073746F70733A200046523A0020466C6FEE
:100C6000773A200050726F74656374656420506930
:100C70006E0A003A200020536572766F2000206FC4
:100C80007574206F662072616E67650A0053657225
:100C9000766F200020643A0020693A0020703A0004
:100CA00064697300656E0043290A0061626C6564C3
:100CB00020286D696E2074656D702000436F6C6430
:100CC0002065787472756465732061726520004FC9
:100CD0004646004F4E0046696C616D656E74207229
:100CE000756E6F757420004D34323120696E636FFC
:100CF000727265637420706172616D6574657220D3
:100D000075736167650A004D65736820706F696E61
:100D100074206F7574206F662072616E67650A00BB
:100D20004F666673657473204170706C696564000A
:100D30004572723A20546F6F206661722100546FC1
:100D40006F206661722066726F6D207265666572D3
:100D5000656E636520706F696E740A004545505278
:100D60004F4D204F4B0A002E0A002028302D3130E5
:100D700029002076616C7565206F7574206F662080
:100D800072616E676500416476616E6365204B3DFC
:100D9000002074656D706572617475726520707283
:100DA000657761726E207472696767657265643A0F
:100DB00020002074656D70657261747572652070B5
:100DC00072657761726E20747269676765726564B7
:100DD0003A20002074656D706572617475726520CB
:100DE0007072657761726E2074726967676572658B
:100DF000643A20002074656D706572617475726567
:100E0000207072657761726E2074726967676572AF
:100E100065643A200020686F6D696E672073656EA7
:100E200073697469766974793A200020686F6D6916
:100E30006E672073656E73697469766974793A2098
:100E400000446F6E65207072696E74696E6720660B
:100E5000696C650A004D3737004D333100496E76B5
:100E6000616C69642065787472756465720A002922
:100E70000A002E2E2E280054004361703A004D4582
:100E800041545041434B00434F4F4C45525F5445F2
:100E90004D5045524154555245004348414D4245FD
:100EA000525F54454D5045524154555245004241C0
:100EB00042595354455050494E4700415243530004
:100EC0004D4F54494F4E5F4D4F4445530054484594
:100ED000524D414C5F50524F54454354494F4E0080
:100EE0004C4F4E475F46494C454E414D450041559C
:100EF000544F5245504F52545F53445F53544154E2
:100F000055530053445F575249544500524550458C
:100F10004154005344434152440050524F4D5054A9
:100F20005F535550504F525400484F53545F414304
:100F300054494F4E5F434F4D4D414E445300454D34
:100F4000455247454E43595F504152534552004325
:100F50004153455F4C494748545F425249474854C2
:100F60004E45535300544F47474C455F4C49474803
:100F7000545300534F4654574152455F504F5745C5
:100F800052004255494C445F50455243454E54002F
:100F90004C4556454C494E475F44415441005A5FC9
:100FA00050524F42450052554E4F555400415554F2
:100FB0004F4C4556454C005052494E545F4A4F42A3
:100FC0000050524F4752455353004155544F5245DC
:100FD000504F52545F54454D50004155544F524567
:100FE000504F52545F504F5300564F4C554D45543F
:100FF00052494300454550524F4D0042494E4152DF
:10100000595F46494C455F5452414E534645520044
:1010100053455249414C5F584F4E5F584F4646002A
:101020004649524D574152455F4E414D453A4D61FB
:10103000726C696E20204649524D574152455F56A9
:10104000455253494F4E3A322E302E392E302E31E2
:10105000362045585452554445525F545950453AEC
:101060004D313735763220284175672031372032AF
:101070003032332031343A31353A35342920534F28
:10108000555243455F434F44455F55524C3A68744F
:101090007470733A2F2F6769746C61622E636F6D81
:1010A0002F6C756C7A626F7433642F6D61726C692A
:1010B0006E2050524F544F434F4C5F564552534948
:1010C0004F4E3A312E30204D414348494E455F54F2
:1010D0005950453A54617A20536964654B69636B92
:1010E000203238392045585452554445525F434FB9
:1010F000554E543A3120555549443A32633662626E
:101100003730652D323065662D346662312D3936C3
:1011100032642D6337316434306531373662360AD4
:101120000047322F47332062616420706172616D25
:1011300065746572730A0050726F6265204F66664F
:10114000736574205A0050726F6265204F66667333
:101150006574205A00290A0020746F20003F5A202D
:101160006F7574206F662072616E67652028002994
:101170000A0020746F20003F59206F7574206F663D
:101180002072616E676520282D00290A0020746F87
:1011900020003F58206F7574206F662072616E6763
:1011A0006520282D0050726F6265204F666673655A
:1011B0007420580043616E6E6F74206F70656E20EE
:1011C00073756264697220002569730025696D205A
:1011D000256973002569682025696D2025697300DC
:1011E000256964202569682025696D2025697300BB
:1011F00025697920256964202569682025696D2085
:10120000256973000A53746174733A2046696C61EE
:101210006D656E7420757365643A20002C204C6FE8
:101220006E67657374206A6F623A2000546F746150
:101230006C2074696D653A200053746174733A20B0
:10124000002C204661696C65643A20002C204669B8
:101250006E69736865643A20005072696E74733AFF
:10126000200053746174733A200020573A002364BD
:101270006566696E652044454641554C545F006281
:101280006564004B6420004B6920004B70200050C7
:101290004944204175746F74756E652066696E6986
:1012A00073686564212050757420746865206C61D2
:1012B0007374204B702C204B6920616E64204B644A
:1012C00020636F6E7374616E74732066726F6D202D
:1012D00062656C6F7720696E746F20436F6E66690C
:1012E0006775726174696F6E2E680A0050494420F8
:1012F0004175746F74756E65206661696C656421F3
:101300002074696D656F75740A00504944204175F9
:10131000746F74756E65206661696C656421205414
:10132000656D706572617475726520746F6F206889
:101330006967680A00204B643A2000204B693A2014
:1013400000204B703A200020436C61737369632066
:10135000504944200A00204E6F206F7665727368F2
:101360006F6F740A002054753A2000204B753A20A4
:1013700000206D61783A2000206D696E3A200020CF
:10138000643A200020626961733A20005049442089
:101390004175746F74756E652073746172740A00A0
:1013A000504944204175746F74756E65206661699B
:1013B0006C6564212054656D706572617475726529
:1013C00020746F6F20686967680A005049442041A3
:1013D00075746F74756E6500504944204175746F63
:1013E00074756E65206661696C6564212042616474
:1013F000206865617465722069640A004572723AFA
:10140000207574663820666F6E74206E6F74206964
:101410006E697469616C697A65642E004572723A0E
:10142000207574663820666F6E74206E6F74206944
:101430006E697469616C697A65642E004572723AEE
:10144000207574663820666F6E74206E6F74206924
:101450006E697469616C697A65642E006D61726C85
:10146000696E66772E6F726700322E302E392E30FD
:101470002E3136001FFFFFFFFFFFFF60000000005E
:1014800001FF400000000000FF8000000000007F1E
:1014900083CF00000C303F87FF80000C301F86791F
:1014A00080000C000F8C30C7838C30E78C30CFC7A6
:1014B000CC31F38C30DCECEC33B98C30D86C6C3341
:1014C000198C30D06C0C33198C30D86C0C33198CCF
:1014D00030DC6C0E3B198C30CF7C079F198C30C7E9
:1014E0007C038F1940000000000002600000000033
:1014F00000061FFFFFFFFFFFF842656400456E63B3
:101500006C6F73757265001FE020102010201010A2
:101510002010202010201030300840048003001FCD
:10152000E03FF03FF03FF01FE01FE03FF03FF03FB3
:10153000F00FC0078003003FFFF83E00F839F03895
:1015400031E01831E01821E1E820F3E8207FE820BD
:1015500077E828EE282FDC082FFC082F9E082F0F95
:1015600008300F18300F18381F383E00F83FFFF8CA
:101570003FFFF83E00F8383F38307E18307C18289E
:101580007C082C38082F39C82FFFE82FC7E82FFF19
:10159000E82739E8203868207C28307C1830FC188F
:1015A00039F8383E00F83FFFF83FFFF83E00F838C2
:1015B0000F38341FD8361F982F1F082F9E082FFC76
:1015C000082FDC0827EFC82077E8207FE820F3E821
:1015D00021F1E833F0D837F05839E0383E00F83FD1
:1015E000FFF83FFFF83E80F83980383781D837C39D
:1015F000D827C7E823C7F821FF88206C08206C088B
:10160000206C0823FF083FC7882FC7C83787D83703
:1016100003D83803383E02F83FFFF8FFFFC0400010
:101620002020001010000808000404000203FFFF3F
:10163000022200044400044400022200011100FFC1
:10164000FFC04088A02111101222080800040400E5
:101650000203FFFF63616E63656C005072696E7414
:101660002041626F72746564004D323520500A4D1E
:1016700032340050617573696E672E2E2E007265CC
:1016800073756D65004D3234006F6F6F0000004759
:10169000414D45204F56455200107CFEFEFE444011
:1016A00024800000318000002480444004000E00AB
:1016B0000E007FC0FFE0FFE0FFE0FFE01FC07FF013
:1016C000DDD8FFF87FF006000F001F8036C03FC056
:1016D00009001680294006000F001F8036C03FC059
:1016E000168020401080104008801FC037607FF0B7
:1016F0005FD050500D80104048905FD077707FF0E1
:101700001FC0104020200F007FE0FFF0E670FFF0C8
:10171000198036C0C0300F007FE0FFF0E670FFF0A8
:10172000198036C0198000FE0003FF8007C7C0077C
:1017300001E00000E00000F00000700400700E0006
:10174000701F00703F80F00E00E00F01E007C7C07F
:1017500003FF8000FE0000FE0003FF8007C7C00FEC
:1017600001E00E00E03F80F01F00700E00700400EA
:10177000700000700000F00000E00701E007C7C043
:1017800003FF8000FE000E000E000E000E000E0093
:101790000E000E000E007FC03F801F000E000400F0
:1017A00004000E001F003F807FC00E000E000E00E0
:1017B0000E000E000E000E000E00FFFFFF7F80FFE8
:1017C000C0FFC0FFC07F807F80FFC0FFC0FFC03F61
:1017D000001E000C0050726F6265205A204F666632
:1017E000736574004D3530300A4D313137205A2041
:1017F0004F666673657420536176656400000C0F54
:1018000000FE07022503BB017FFE08FE08FE050857
:101810000806000040F0C888889878100508080677
:101820000000C0F88888888888F80505050600014A
:101830002030F830200508080600002070F820202D
:101840002020E00509090600FF2070A8A8B88888B4
:101850007020070505070001D86C366CD80509090A
:101860000600FFF8A88888888888A8F8050A0A066C
:1018700000FE205050505088A8A88870030303062B
:10188000000340A040FFFFFFFFFFFFFFFFFFFFFF40
:10189000FFFFFFFFFFFFFFFFFFFFFF000000060548
:1018A000FF0107070602008080808080008003031C
:1018B00003060105A0A0A005060606000050F8508A
:1018C00050F8500509090600FF2070A8A07028A84C
:1018D0007020050707060000C8C81020409898052A
:1018E000070706000040A0A040A890680103030677
:1018F00002058080800309090601FF2040408080A6
:10190000804040200309090601FF8040402020203C
:1019100040408005070706000020A8702070A8201E
:101920000505050600012020F8202002030306011A
:10193000FFC04080050101060003F8020202060113
:1019400000C0C005070706000008101020404080B6
:10195000050707060000708898A8C8887003070765
:1019600006010040C040404040E005070706000077
:10197000708808102040F8050707060000F80810D6
:101980003008887005070706000010305090F810E6
:1019900010050707060000F880F0080888700507A2
:1019A00007060000304080F08888700507070600B1
:1019B00000F8081010202020050707060000708896
:1019C0008870888870050707060000708888780886
:1019D0001060020505060100C0C000C0C002060676
:1019E0000601FFC0C000C0408003050506010120BC
:1019F00040804020050303060002F800F8030505B7
:101A0000060101804020408005070706000070881D
:101A100010202000200507070600007088B8A8B82D
:101A20008070050707060000708888F88888880598
:101A30000707060000F04848704848F00507070609
:101A4000000070888080808870050707060000F01D
:101A50004848484848F0050707060000F88080F02D
:101A60008080F8050707060000F88080F0808080FD
:101A700005070706000070888080988870050707B2
:101A8000060000888888F888888803070706010010
:101A9000E04040404040E0050707060000381010D5
:101AA000101090600507070600008890A0C0A09065
:101AB00088050707060000808080808080F8050781
:101AC0000706000088D8A8888888880507070600C8
:101AD000008888C8A89888880507070600007088CD
:101AE0008888888870050707060000F08888F080DD
:101AF000808005070706000070888888A890680520
:101B00000707060000F08888F0A090880507070600
:101B1000000070888070088870050707060000F8CC
:101B200020202020202005070706000088888888BC
:101B3000888870050707060000888888885050202C
:101B400005070706000088888888A8A850050707A9
:101B50000600008888502050888805070706000086
:101B600088885020202020050707060000F808106C
:101B7000204080F80309090601FFE0808080808012
:101B80008080E00507070600008040402010100814
:101B90000309090601FFE020202020202020E00585
:101BA00003030600052050880501010600FEF80326
:101BB00003030601058040200505050600007008A6
:101BC0007888780507070600008080F0888888F00C
:101BD000050505060000708080887005070706006F
:101BE0000008087888888878050505060000708850
:101BF000F08070050707060000304840E040404094
:101C00000507070600FE70888888780870050707B2
:101C10000600008080F08888888803070706010096
:101C20004000C0404040E00409090601FE100030B9
:101C30001010101090600507070600008080889043
:101C4000E09088030707060100C04040404040E0A4
:101C5000050505060000D0A8A8A8A80505050600EA
:101C600000B0C88888880505050600007088888847
:101C7000700507070600FEF0888888F08080050759
:101C8000070600FE7888888878080805050506009C
:101C900000B0C880808005050506000078807008C7
:101CA000F00507070600002020F820202018050571
:101CB00005060000888888986805050506000088E4
:101CC000888850200505050600008888A8A85005CA
:101CD000050506000088502050880507070600FE0D
:101CE00088888850204080050505060000F81020EF
:101CF00040F80309090601FF204040408040404071
:101D0000200109090602FF80808080808080808019
:101D10000309090601FF8040404020404040800503
:101D2000030306000248A890FF6F70656E005452CE
:101D300049474745524544003A200066696C616D49
:101D4000656E74007A5F6D696E00795F6D696E0013
:101D5000785F6D696E005265706F7274696E67208E
:101D6000656E6473746F70207374617475730A00A8
:101D7000203A2073796E635F706C616E5F706F7371
:101D80006974696F6E0A00202063757272656E74E3
:101D90005F706F736974696F6E3D003E2000646F01
:101DA0005F626C6F636B696E675F6D6F76655F74A2
:101DB0006F0020746F6F206C6F6E6720657874728F
:101DC0007573696F6E2070726576656E7465640AEE
:101DD0000020636F6C6420657874727573696F6E30
:101DE0002070726576656E7465640A00486F6D6573
:101DF000202573257325732046697273740057611B
:101E0000726E696E673A20486F6D696E6720427521
:101E10006D702044697669736F72203C20310A002E
:101E2000020204290A003C3C3C207365745F61781F
:101E300069735F69735F61745F686F6D6528002007
:101E40003A200A00202063757272656E745F706FAD
:101E5000736974696F6E3D005D203D20003E20680F
:101E60006F6D655F6F66667365745B002A2A2A2052
:101E70005A20484F4D454420574954482050524F0E
:101E8000424520285A5F4D494E5F50524F42455FB0
:101E9000555345535F5A5F4D494E5F454E44535429
:101EA0004F505F50494E29202A2A2A0A3E2070723C
:101EB0006F62652E6F66667365742E7A203D200012
:101EC0000000B0C0000008C200000000290A003E67
:101ED0003E3E207365745F617869735F69735F610B
:101EE000745F686F6D652800290A003C3C3C2068DF
:101EF0006F6D65617869732800203A203E20414665
:101F0000544552207365745F617869735F69735FCC
:101F100061745F686F6D650A002020637572726579
:101F20006E745F706F736974696F6E3D006D6D0ADA
:101F30000052652D62756D703A20006D6D0A004D7E
:101F40006F766520417761793A20006D6D0A00480F
:101F50006F6D6520466173743A200000802943004C
:101F6000004A43008035430000A0400000A040002C
:101F70000000406D6D0A0053656E736F726C65737F
:101F800073206261636B6F66663A2000290A003E27
:101F90003E3E20686F6D6561786973280020706F20
:101FA000736974696F6E5F7368696674203D2000A1
:101FB00020686F6D655F6F6666736574203D2000F5
:101FC000417869732000206C696D697465642074C0
:101FD0006F2000204D61782000290A0050726F6246
:101FE000653A3A646F5F7A5F72616973652800646D
:101FF00065706C6F793A2000203A2050726F6265EC
:102000003A3A7365745F6465706C6F7965640A0051
:10201000202063757272656E745F706F7369746986
:102020006F6E3D00206D61783A00206D696E3A0058
:102030004178697320000000244300002843008099
:1020400035430000B0C0000008C200000000536526
:102050007474696E67732053746F72656400290A23
:10206000002062797465733B2063726320005365BE
:102070007474696E67732053746F726564202800EE
:10208000454550524F4D20496E697469616C697ABB
:1020900065640A0048617264636F64656420446526
:1020A0006661756C742053657474696E6773204C37
:1020B0006F616465640A003B20003A0A0020204DED
:1020C0003930360020204D3931340020204D35364E
:1020D000392053310020204D363033200020204D50
:1020E00034313220530046696C616D656E74207224
:1020F000756E6F75742073656E736F723A0020533E
:102100000020204D3432352046004261636B6C6103
:10211000736820636F6D70656E736174696F6E3A7A
:10212000002055004C0046696C616D656E74206C32
:102130006F61642F756E6C6F6164206C656E67747F
:1021400068733A0020204D393030204B004C696EC6
:1021500065617220416476616E63653A0054302097
:102160004500447269766572207374657070696E9B
:1021700067206D6F64653A005374616C6C477561DC
:102180007264207468726573686F6C643A002054DE
:1021900030204500537465707065722064726976F2
:1021A00065722063757272656E743A0020204D3836
:1021B00035312058005A2D50726F6265204F666687
:1021C0007365740020440020490020204D333034D2
:1021D00020500020440020490020204D3330312081
:1021E00050005049442073657474696E67733A00F7
:1021F00020460020480020204D3134352053004D2A
:102200006174657269616C206865617475702070B5
:102210006172616D65746572733A00204A00202016
:10222000473239205720490020204D343230205386
:10223000004175746F20426564204C6576656C6959
:102240006E673A0020204D323036205800486F6DBE
:1022500065206F66667365743A002058002053004D
:1022600020204D323035204200416476616E636536
:10227000643A20423C6D696E5F7365676D656E748C
:102280005F74696D655F75733E20533C6D696E5F69
:1022900066656564726174653E20543C6D696E5F6D
:1022A00074726176656C5F66656564726174653EC3
:1022B00020583C6D61785F785F6A65726B3E20598B
:1022C0003C6D61785F795F6A65726B3E205A3C6D48
:1022D00061785F7A5F6A65726B3E20453C6D61781C
:1022E0005F655F6A65726B3E0020540020520020DB
:1022F000204D323034205000416363656C6572615B
:1023000074696F6E2028756E6974732F7332293A61
:1023100020503C7072696E745F616363656C3E202F
:10232000523C726574726163745F616363656C3E95
:1023300020543C74726176656C5F616363656C3ECA
:102340000020204D3230312058004D6178696D7584
:102350006D20416363656C65726174696F6E2028DE
:10236000756E6974732F7332293A0020204D323014
:10237000332058004D6178696D756D206665656420
:1023800072617465732028756E6974732F73293AAE
:102390000053746570732070657220756E69743AAD
:1023A0000020440020204D3230302053002044696A
:1023B0007361626C65640A0046696C616D656E7478
:1023C0002073657474696E67733A0020204D313450
:1023D000392043203B20556E69747320696E204379
:1023E000656C736975730A0020286D6D29002020C3
:1023F000473231202020203B20556E6974732069BC
:102400006E206D6D00454550524F4D2064617461E2
:1024100073697A65206572726F722E0A00290A004C
:102420002062797465733B206372632000207374AB
:102430006F7265642073657474696E67732072656A
:1024400074726965766564202800202863616C6376
:10245000756C6174656429210A0020213D200045C6
:102460004550524F4D20435243206D69736D617446
:102470006368202D202873746F7265642920002002
:1024800053697A653A2000496E6465783A20000005
:10249000009643000096430000964300002042004F
:1024A00000C8420000C842000048430000D2432850
:1024B00023000028230000640000002823000020DF
:1024C0004D61726C696E3D563833290A004545509E
:1024D000524F4D2076657273696F6E206D69736D12
:1024E000617463682028454550524F4D3D0024F4E7
:1024F000D43050C38E20C2A24017828B7011127A42
:10250000910D816CD90AA861E108C758660761512D
:1025100043061E4B5D05C145A7041A411104093D40
:102520009803713931034036DB0265339102D430B0
:102530005402802E1D02632CEE01752AC501B028BD
:10254000A001102781018F2564012B244B01E0227B
:102550003401AC211F018D200D01801FFC00841E61
:10256000ED00971DDF00B81CD200E61BC600201B43
:10257000BC00641AB200B219A8000A19A0006A18B7
:102580009900D117910040178B00B51684003116C1
:102590007E00B31579003A157300C7146F00581404
:1025A0006A00EE1366008813630025135E00C712ED
:1025B0005B006C12570015125400C11151007011CC
:1025C0004F0021114B00D61049008D1047004610D6
:1025D000440002104200C00F4000800F3E00420F36
:1025E0003C00060F3B00CB0E3800930E37005C0E0C
:1025F0003500270E3400F30D3200C10D3100900D6F
:102600003000600D2E00320D2D00050D2C00D90C70
:102610002B00AE0C2900850C29005C0C2700350C22
:1026200027000E0C2600E80B2400C40B2400A00B8E
:1026300023007D0B23005A0B2100390B2100180BBE
:102640002000F80A1F00D90A1E00BB0A1E009D0ABE
:102650001D00800A1D00630A1C00470A1B002C0A8B
:102660001B00110A1A00F7091A00DD091900C40934
:102670001900AB091900920917007B0918006309BA
:1026800017004C09160036091600200916000A0921
:102690001500F5081500E0081400CC081400B8086F
:1026A0001400A4081400900813007D0812006B08A1
:1026B00013005808120046081200340811002308BD
:1026C00011001208110001081100F0071000E007C6
:1026D0001000D0071000C0071000B0070F00A107BE
:1026E000100091070E0083070F0074070F006507A5
:1026F0000E0057070E0049070E003B070D002E077E
:102700000E0020070D0013070D0006070D00F90647
:102710000C00ED060D00E0060C00D4060C00C80607
:102720000C00BC060C00B0060C00A4060B009906B9
:102730000C008D060B0082060B0077060B006C0662
:102740000B0061060A0057060B004C060A00420601
:102750000A0038060A002E060A0024060A001A0695
:102760000A001006090007060A00FD050900F40525
:102770000900EB050900E2050900D9050900D005AB
:102780000900C7050900BE050900B5050800AD052B
:102790000800A50509009C050800940508008C05A3
:1027A0000800840508007C050800740508006C0515
:1027B0000700650508005D050700560508004E0581
:1027C00007004705070040050800380507003105E8
:1027D00007002A050700230507001C05060016054B
:1027E00007000F0507000805060002050700FB04A7
:1027F0000600F5040700EE040600E8040600E20403
:102800000700DB040600D5040600CF040600C90457
:102810000600C3040600BD040600B7040600B104A8
:102820000500AC040600A6040600A00405009B04F5
:10283000060095040500900406008A04050085043E
:102840000500800406007A04050075040500700484
:1028500005006B04050066040500610405005C04C6
:10286000050057040500520405004D040500480406
:102870000500430405003E0404003A040500350445
:102880000500300404002C04050027040400230480
:1028900005001E0404001A040400160405001104B7
:1028A00004000D04040009040500040404000004ED
:1028B0000400FC030400F8030400F4030400F00324
:1028C0000400EC030400E8030400E4030400E00354
:1028D0000400DC030400D8030400D4030400D00384
:1028E0000400CC030400C8030300C503030024F460
:1028F00004D9201BC40C5C0E9804C4095F02650750
:102900007101F405F900FB04B30048048700C1031A
:1029100069005803550003034500BE023A008402D3
:10292000310053022A002902250004022000E4019C
:102930001C00C8011900AF011700980114008401A0
:102940001300710110006101100051010E004301DC
:102950000D0036010B002B010B0020010B001501AF
:1029600009000C01090003010800FB000800F30046
:102970000800EB000700E4000600DE000600D800B7
:102980000600D2000600CC000500C7000500C2000A
:102990000500BD000400B9000400B5000400B1004A
:1029A0000400AD000400A9000400A5000300A2007B
:1029B00003009F0004009B000300980003009500A3
:1029C000020093000300900003008D0002008B00C2
:1029D00003008800020086000200840003008100DA
:1029E00002007F0002007D0002007B0002007900EF
:1029F00002007700010076000200740002007200FD
:102A00000100710002006F0002006D0001006C0007
:102A100002006A0001006900020067000100660010
:102A20000100650001006400020062000100610015
:102A30000100600001005F0002005D0001005C0019
:102A400001005B0001005A0001005900010058001C
:102A5000010057000100560001005500010054001C
:102A6000010053000000530001005200010051001A
:102A70000100500001004F0001004E0000004E0018
:102A800001004D0001004C0001004B0000004B0014
:102A900001004A0001004900010048000000480010
:102AA000010047000100460000004600010045000B
:102AB0000000450001004400010043000000430005
:102AC00001004200000042000100410000004100FE
:102AD0000100400001003F0000003F0001003E00F7
:102AE00000003E0001003D0000003D0001003C00F0
:102AF00000003C0000003C0001003B0000003B00E7
:102B000001003A0000003A000100390000003900DD
:102B100001003800000038000000380001003700D4
:102B200000003700010036000000360000003600CB
:102B300001003500000035000000350001003400C0
:102B400000003400000034000100330000003300B6
:102B500000003300010032000000320000003200AB
:102B600001003100000031000000310001003000A0
:102B7000000030000000300001002F0000002F0096
:102B800000002F0000002F0001002E0000002E008A
:102B900000002E0001002D0000002D0000002D007F
:102BA00000002D0001002C0000002C0000002C0073
:102BB00000002C0001002B0000002B0000002B0067
:102BC00000002B0001002A0000002A0000002A005B
:102BD00000002A000100290000002900000029004F
:102BE0000000290000002900010028000000280042
:102BF0000000280000002800000028000100270035
:102C00000000270000002700000027000000270028
:102C1000010026000000260000002600000026001B
:102C2000000026000100250000002500000025000E
:102C30000000250000002500000025000100240000
:102C400000002400000024000000240000002400F4
:102C500001002300000023000000230000002300E7
:102C600000002300000023000000230001002200D8
:102C700000002200000022000000220000002200CC
:102C800000002200010021000000210000002100BE
:102C900000002100000021000000210000002100B0
:102CA00001002000000020000000200000002000A3
:102CB0000000200000002000000020000000200094
:102CC00001001F0000001F0000001F0000001F0087
:102CD00000001F0000001F0000001F0001001E0078
:102CE00000001E0000001E0000001E000000C23197
:102CF00000001C260000F4190000D80F0000EB08AB
:102D00000000C004000075020000400100002043E4
:102D10006F756E7420583A00426564004531006258
:102D20006564002C2073797374656D2073746F7003
:102D300070656421204865617465725F49443A207A
:102D40000048656174696E67204661696C6564005E
:102D500048656174696E67206661696C6564004DE1
:102D60003131322053687574646F776E001000AD96
:102D70000330016A0150022B0170030A019004F52F
:102D800000B005E500D006D800F007CE001009C558
:102D900000300ABE00500BB700700CB100900DABB4
:102DA00000B00EA600D00FA200F0109D00101299E6
:102DB00000301395005014920070158E0090168B01
:102DC00000B0178700D0188400F0198100101B7E16
:102DD00000301C7B00501D7900701E7600901F7320
:102DE00000B0207000D0216E00F0226B001024692A
:102DF0000030256600502663007027610090285E31
:102E000000B0295C00D02A5900F02B5600102D5438
:102E100000302E5100502F4E0070304B0090314842
:102E200000B0324500D0334200F0343E0010363B53
:102E300000303737005038330070392E00903A296F
:102E400000B03B2300D03C1B00F03D1100103F01BF
:102E500000F03F00004572723A204D415854454DF4
:102E600050004D415854454D502074726967676554
:102E7000726564004572723A204D494E54454D507A
:102E8000004D494E54454D50207472696767657214
:102E9000656400202F002042403A0020403A002084
:102EA000573A007C3C3E5E2B3D3F2F5B5D3B2C2A1E
:102EB000225C0043616E6E6F74206F70656E2073CC
:102EC00075626469722000534420496E697420461B
:102ED00061696C0053442063617264206F6B0A0067
:102EE0006F70656E526F6F74206661696C65640AFD
:102EF00000766F6C756D652E696E69742066616908
:102F00006C65640A004E6F20534420636172640A4A
:102F1000000A4D3234004D3233202573002E0A0052
:102F20006F70656E206661696C65642C2046696C03
:102F3000653A200046696C652073656C656374654D
:102F4000640A002053697A653A200046696C65205E
:102F50006F70656E65643A2000454E4420535542BB
:102F6000524F5554494E450A002220706F7300227B
:102F700020706172656E743A2200535542524F556B
:102F800054494E452043414C4C207461726765742E
:102F90003A220053756263616C6C204F76657266ED
:102FA0006C6F77004578636565646564206D617852
:102FB00020535542524F5554494E45206465707414
:102FC000683A0057726974696E6720746F20666989
:102FD0006C653A20005344207072696E74696E67A4
:102FE000206279746520004E6F7420534420707203
:102FF000696E74696E670A00667265736800646F53
:10300000696E67002066696C653A20004E6F772014
:10301000002F6175746F25632E67004572726F72A1
:103020002077726974696E6720746F20454550522D
:103030004F4D210A0025311D402924301C452723EE
:103040002F1B0B43222B1A420336080606043800B6
:103050000153544F505045442E20005072696E74F5
:1030600065722073746F7070656420647565207478
:103070006F206572726F72732E20466978207468B3
:1030800065206572726F7220616E642075736520B1
:103090004D39393920746F20726573746172742EE2
:1030A000202854656D70657261747572652069734E
:1030B0002072657365742E205365742069742061D5
:1030C000667465722072657374617274696E6729C3
:1030D0000A004E6F20436865636B73756D207769D6
:1030E0007468206C696E65206E756D6265722C2047
:1030F0004C617374204C696E653A20004E6F20431A
:103100006865636B73756D2077697468206C696E90
:1031100065206E756D6265722C204C617374204C55
:10312000696E653A2000636865636B73756D206D29
:1031300069736D617463682C204C617374204C69F1
:103140006E653A20004C696E65204E756D62657241
:10315000206973206E6F74204C617374204C696E0B
:1031600065204E756D6265722B312C204C61737435
:10317000204C696E653A20004D3131300053657244
:1031800069616C20737461747573206D69736D610E
:103190007463680A0053442072656164206572722A
:1031A0006F720A00486F74656E642049646C652014
:1031B00054696D656F757400486F74656E6420495D
:1031C000646C652054696D656F75740A006D4129E2
:1031D0000A0020647269766572206F766572746584
:1031E0006D7065726174757265207761726E696E5B
:1031F00067212028003A20002063757272656E7482
:103200002064656372656173656420746F20006D6E
:1032100041290A0020647269766572206F766572B2
:1032200074656D7065726174757265207761726E18
:10323000696E67212028003A20002063757272654C
:103240006E742064656372656173656420746F20B9
:10325000006D41290A0020647269766572206F76DC
:10326000657274656D7065726174757265207761E1
:10327000726E696E67212028003A20002063757203
:1032800072656E7420646563726561736564207431
:103290006F20006D41290A002064726976657220F2
:1032A0006F76657274656D70657261747572652094
:1032B0007761726E696E67212028003A2000212113
:1032C000204B494C4C206361757365642062792002
:1032D0004B494C4C20627574746F6E2F70696E0A86
:1032E000002121204B494C4C20636175736564209B
:1032F000627920746F6F206D75636820696E6163F9
:10330000746976652074696D65202D20637572720D
:10331000656E7420636F6D6D616E643A200070613C
:10332000757365004D3131372046696C616D656E8E
:1033300074204572726F720A4D3630300020666913
:103340006C616D656E745F72756E6F75742000666A
:10335000696C616D656E745F72756E6F7574205403
:10336000004D656469612052656D6F766564004D3E
:103370006564696120496E73657274656400627585
:1033800073793A2070617573656420666F72206985
:103390006E7075740A00627573793A207061757386
:1033A000656420666F7220757365720A00627573BA
:1033B000793A2070726F63657373696E670A0050A3
:1033C0006C65617365205265736574005052494E97
:1033D0005445522048414C5445440025533A202539
:1033E0005300706F7765726F6666004B494C4C45B1
:1033F000442E20005072696E7465722068616C748E
:1034000065642E206B696C6C28292063616C6C6587
:1034100064210A0053544F505045442E20005072EE
:10342000696E7465722073746F7070656420647562
:103430006520746F206572726F72732E20466978F2
:1034400020746865206572726F7220616E642075E9
:103450007365204D39393920746F2072657374613A
:1034600072742E202854656D706572617475726572
:103470002069732072657365742E2053657420690A
:103480007420616674657220726573746172746908
:103490006E67290A006563686F3A004572726F7241
:1034A0003A0066616C73650074727565002028646B
:1034B000697361626C6564290A0020280041424CEE
:1034C0002041646A7573746D656E74205A005A20C9
:1034D000466164653A20002028656E61626C65640F
:1034E000290A0041626F76650053616D65205A209C
:1034F00061730042656C6F77004175746F2042659F
:1035000064204C6576656C696E673A2042494C4987
:103510004E45415200204E6F7A7A6C65290A002090
:103520002620002D43656E746572002D46726F6E05
:1035300074002D4261636B002028416C69676E65E1
:103540006420576974680020284D6964646C6500C4
:1035500020284C6566740020285269676874005002
:10356000726F6265204F66667365742058005072F2
:103570006F62653A20424C544F5543480A004D61F2
:103580006368696E6520547970653A20436172748E
:10359000657369616E0A005D0A0045787472617036
:1035A0006F6C617465205B0042696C696E65617265
:1035B000204C6576656C696E6720477269643A0ACB
:1035C000005375626469766964656420776974681C
:1035D000204341544D554C4C20524F4D204C657664
:1035E000656C696E6720477269643A0A00203A2068
:1035F0002E2E2E4E6F77204F4E0A002020637572BC
:1036000072656E745F706F736974696F6E3D0020D0
:103610003A204C6576656C696E67204F46460A0015
:10362000202063757272656E745F706F7369746960
:103630006F6E3D00203A202E2E2E4E6F77204F4683
:10364000460A00202063757272656E745F706F7336
:103650006974696F6E3D00203A204C6576656C692F
:103660006E67204F4E0A00202063757272656E747B
:103670005F706F736974696F6E3D00726573657416
:103680005F6265645F6C6576656C0A00424C546FDE
:1036900075636820436F6D6D616E64203A00424C23
:1036A000546F75636820536574204D6F6465202DD9
:1036B0002000636F6E666967206D6F6465202D2042
:1036C0004F440A006C6173745F7772697474656E3D
:1036D0005F6D6F6465202D200021212053544F50D1
:1036E0002063616C6C65642062656361757365203D
:1036F0006F6620424C546F756368206572726F72FA
:10370000202D20726573746172742077697468204B
:103710004D3939390A00424C546F7563682052653F
:10372000636F76657279204661696C65640A006230
:103730006C746F7563682E6465706C6F795F7072FE
:103740006F63282920656E640A00424C546F7563CC
:103750006820414C41524D206F72205452494747D6
:103760004552206166746572204445504C4F592C77
:10377000207265636F766572696E670A00424C5409
:103780006F756368204445504C4F592072657175C0
:1037900065737465640A0021212053544F502063DF
:1037A000616C6C65642062656361757365206F662A
:1037B00020424C546F756368206572726F72202DC1
:1037C00020726573746172742077697468204D3952
:1037D00039390A00424C546F756368205265636F33
:1037E00076657279204661696C65640A00626C7462
:1037F0006F7563682E73746F775F70726F632829BB
:1038000020656E640A00424C546F75636820414C19
:1038100041524D206F722054524947474552206112
:10382000667465722053544F572C207265636F760F
:103830006572696E670A00424C546F756368205365
:10384000544F57207265717565737465640A005032
:1038500072696E74696E67204F626A6563740025D1
:10386000532025690020460020570020204D32308B
:10387000372053003B20526574726163743A2053C1
:103880003C6C656E6774683E20463C756E69747367
:103890002F6D3E205A3C6C6966743E0A002046003B
:1038A00020570020204D3230382053003B205265F5
:1038B000636F7665723A20533C6C656E6774683E40
:1038C00020463C756E6974732F6D3E0A0020204DB2
:1038D0003230392053003B204175746F2D5265748E
:1038E000726163743A20533D3020746F20646973B1
:1038F00061626C652C203120746F20696E74657272
:103900007072657420452D6F6E6C79206D6F7665D1
:103910007320617320726574726163742F726563C2
:103920006F7665720A002F2F616374696F6E3A00BB
:10393000486F74656E6420746F6F20636F6C640AE7
:103940000053656E64204D31303820746F207265ED
:1039500073756D650A00496E736572742066696CD3
:10396000616D656E7420616E642073656E64204DB8
:103970003130380A0053656E64204D313038207480
:103980006F2068656174206E6F7A7A6C650A0070CA
:10399000617573656400726573756D656400256893
:1039A000753A25303268750025303268753A253011
:1039B00032687500256875642025303268753A25AF
:1039C0003032687500447269766572206572726F74
:1039D0007200636F696C2073686F72742063697220
:1039E000637569740A006F76657274656D706572CF
:1039F00061747572650A002064726976657220656B
:103A000072726F722064657465637465643A203005
:103A10007800303D2E33323500313D2E3138006D87
:103A20006178002F3331002F3331002F33310030D4
:103A30003D2E33323500313D2E3138006D61780036
:103A40002F3331002F3331002F333100303D2E33EF
:103A5000323500313D2E3138006D6178002F333121
:103A6000002F3331002F333100303D2E33323500FB
:103A7000313D2E3138006D6178002F3331002F3306
:103A800031002F3331000920426164207265737068
:103A90006F6E736521000920426164207265737046
:103AA0006F6E736521000920426164207265737036
:103AB0006F6E736521000920426164207265737026
:103AC0006F6E736521004472697665722072656756
:103AD0006973746572733A0A006F7409006F7470C9
:103AE0007709007332676109007332676209006FFA
:103AF0006C6109006F6C620900737473740900666D
:103B000073616374697665007374616C6C67756169
:103B100072640073675F726573756C74004452560B
:103B200053544154555300755374657020636F7539
:103B30006E74005374616C6C677561726420746894
:103B4000727300202D737461727409006879737444
:103B50006572657369730A202D656E640900626C75
:103B6000616E6B2074696D65006F66662074696DA7
:103B700065007472696767657265640A204F545006
:103B800009004F54207072657761726E005B6D6D35
:103B90002F735D090050574D207468726573682E4D
:103BA0000074737465700900696E74657270090041
:103BB0006D73746570730900737465616C74684328
:103BC000686F70007673656E7365090050574D20FD
:103BD0007363616C650043532061637475616C00AD
:103BE000486F6C642063757272656E740052756EF6
:103BF0002063757272656E74004D41582063757252
:103C000072656E7400524D532063757272656E74E6
:103C1000005365742063757272656E7400456E6141
:103C2000626C6564090009004C4F570048494748D9
:103C3000004F4B004572726F723A20416C6C20004D
:103C400020636F6E6E656374696F6E2E2E2E20007A
:103C500054657374696E6720004C4F57004849479C
:103C600048004F4B004572726F723A20416C6C20D5
:103C70000020636F6E6E656374696F6E2E2E2E204A
:103C80000054657374696E6720004C4F57004849B3
:103C90004748004F4B004572726F723A20416C6C7E
:103CA000200020636F6E6E656374696F6E2E2E2E1A
:103CB000200054657374696E6720004C4F570048AC
:103CC000494748004F4B004572726F723A20416C71
:103CD0006C200020636F6E6E656374696F6E2E2EAC
:103CE0002E200054657374696E672000544D432084
:103CF000434F4E4E454354494F4E204552524F522A
:103D0000004F46460A004661646520486569676859
:103D1000742000426564204C6576656C696E67208E
:103D2000004661696C656420746F20656E61626C29
:103D30006520426564204C6576656C696E670A0093
:103D4000496E76616C6964206D6573682E0A003E69
:103D50003E3E003C3C3C0020636F727265637465BC
:103D600064205A3A0047323920756E636F7272656B
:103D700063746564205A3A00203A203E2070726FC6
:103D800062696E6720636F6D706C6574650A0020F0
:103D90002063757272656E745F706F736974696F9A
:103DA0006E3D0050726F62696E6720506F696E746D
:103DB0000025532025692F2569002E0A002F005069
:103DC000726F62696E67206D65736820706F696ECF
:103DD000742000202844525952554E290047323948
:103DE000204175746F20426564204C6576656C696E
:103DF0006E67003F20284C2C522C462C4229206F05
:103E00007574206F6620626F756E64732E0A0020D1
:103E10004200204600205200473239204C003F2803
:103E200056296572626F7365206C6576656C2069D2
:103E30006D706C61757369626C652028302D342952
:103E40002E0A00426164205A2076616C75650A0072
:103E50004E6F2062696C696E656172206772696479
:103E60000A004732384C30003E204175746F2D6C8B
:103E70006576656C206E6F74206E65656465642C74
:103E800020736B69700A004732390047323800529C
:103E9000756E6E696E6720506F737420436F6D6D21
:103EA000616E64730A00526573746F7265204375A6
:103EB0007272656E740A005A204261636B6F6666A7
:103EC0000A0046696E616C205A204D6F76650A00C3
:103ED0005265647563696E672043757272656E74AE
:103EE0000A0053657474696E67205A20506F756EAE
:103EF00063650A005061726B696E672058590A0049
:103F000020284E6F7420796574206D656173757219
:103F100065642900202041766572616765206D65C2
:103F2000617375726564206261636B6C6173682094
:103F3000286D6D293A002020536D6F6F7468696E8B
:103F40006720286D6D293A20202020202020202065
:103F50002020202020202020530020204261636B5D
:103F60006C6173682044697374616E636520286DA9
:103F70006D293A20202020202020200020284631B2
:103F80002E30203D2066756C6C2C2046302E302063
:103F90003D206E6F6E65290A002020436F727265A6
:103FA0006374696F6E20416D6F756E742F46616426
:103FB000652D6F75743A20202020204600616374BF
:103FC0006976653A0A00696E004261636B6C6173E1
:103FD0006820436F7272656374696F6E2000446578
:103FE00076696174696F6E0025533A202573004627
:103FF000696E6973686564210A003A207A3A200084
:10400000206F662000476F696E6720746F3A2058F2
:104010000043570A00206469723A0020616E676CA1
:10402000653A005374617274207261646975733A01
:10403000004D343820506F696E740025533A2025A6
:10404000642F256400506F736974696F6E696E67C1
:10405000207468652070726F62652E2E2E0A003FF4
:104060004C656773206F66206D6F76656D656E7445
:1040700020696D706C61757369626C652028302DE4
:104080003135292E0A003F2028582C5929206F75D8
:1040900074206F6620626F756E64732E0A00507212
:1040A0006F6265206F7574206F6620626F756E6435
:1040B00073004D6F76696E6720746F20736166655B
:1040C00020706F736974696F6E20666F72207072F2
:1040D0006F62652E0A003F53616D706C65207369D5
:1040E0007A65206E6F7420706C61757369626C659F
:1040F0002028342D3530292E0A004D3438205A2DF1
:1041000050726F6265205265706561746162696C9E
:1041100069747920546573740A003F2856296572C2
:10412000626F7365206C6576656C20696D706C617B
:10413000757369626C652028302D34292E0A00536E
:1041400074616E6461726420446576696174696F3C
:104150006E3A20002052616E67653A2000204D6162
:10416000783A2000204D696E3A2000205369676D2F
:10417000613A20004D65616E3A2000205200416393
:1041800063656C65726174696F6E3A2050005741C7
:10419000524E494E4721204C6F77205A204A657273
:1041A0006B206D6179206C65616420746F20756E81
:1041B00077616E746564207061757365732E0A0093
:1041C00020643A0020693A0020703A00496E766116
:1041D0006C69642065787472756465720A00496E52
:1041E00076616C69642050696E204D6F64650A00C9
:1041F00025290A00252000203B20280020440020FB
:10420000410020490020204D3731302053003B2011
:10421000436F6E74726F6C6C65722046616E0A003B
:10422000617869733A70776D5F7363616C652F6352
:104230007572725F7363616C652F6D6563685F6C27
:104240006F61647C666C6167737C7761726E636FAB
:10425000756E740A004452565F53544154555309C5
:104260000050574D5F5343414C45090050574D4353
:104270004F4E460900434F4F4C434F4E46090043B3
:10428000484F50434F4E4609005448494748090992
:104290000054434F4F4C5448525309005450574D0B
:1042A000544852530900545354455009090054507E
:1042B0004F574552444F574E0900494F494E09093F
:1042C00000475354415409090049484F4C445F4941
:1042D00052554E090047434F4E46090900090073E5
:1042E00070726561644379636C6500737465616CB9
:1042F000746843686F700020647269766572206D1F
:104300006F64653A09007370726561644379636C28
:104310006500737465616C746843686F7000206435
:104320007269766572206D6F64653A090073707208
:104330006561644379636C6500737465616C74686E
:1043400043686F700020647269766572206D6F64D7
:10435000653A09007370726561644379636C650046
:10436000737465616C746843686F7000206472696F
:10437000766572206D6F64653A0900554E4C4F4169
:10438000442046494C414D454E54004C4F41442039
:1043900046494C414D454E540046494C414D454ED1
:1043A00054204348414E4745004C6F6164206D6D79
:1043B00000556E6C6F6164206D6D0046696C2E2037
:1043C0004469612E004520696E206D6D5E330041A9
:1043D0006476616E6365204B004D33303320553178
:1043E00020452569205325690050494420417574B2
:1043F0006F74756E65202A005049442D44202A00B0
:104400005049442D49202A005049442D50202A006B
:1044100020082046616374002008204D6178002048
:1044200008204D696E004F6666004F6E004175743E
:104430006F74656D70005654726176204D696E0020
:10444000566D696E00566D6178204500566D617835
:10445000205A00566D6178205900566D61782058B9
:1044600000416D6178204500416D6178205A00411E
:104470006D6178205900416D6178205800412D54BC
:10448000726176656C00412D5265747261637400CF
:10449000416363656C0056652D4A65726B00565A20
:1044A0002D4A65726B0056592D4A65726B0056583D
:1044B0002D4A65726B004D3530300A4D3131372051
:1044C0005A204F6666736574205361766564005A9E
:1044D0002050726F62652057697A61726400507271
:1044E0006F6265205A204F66667365740050726F64
:1044F00062652059204F66667365740050726F6262
:10450000652058204F666673657400452073746596
:1045100070732F6D6D005A2053746570732F6D6D1D
:1045200000592053746570732F6D6D0058205374BB
:104530006570732F6D6D00416476616E63656420F4
:1045400053657474696E6773003F0043616E636501
:104550006C00496E6974004D34323800496E6974DC
:1045600069616C697A6520454550524F4D00466936
:104570006C616D656E740054656D70657261747503
:10458000726500544D43204472697665727300422F
:1045900061636B6C6173680053746570732F6D6D2C
:1045A0000050726F6265204F666673657473004ACF
:1045B00065726B00416363656C65726174696F6EEF
:1045C0000056656C6F636974790053657420486F99
:1045D0006D65204F66667365747300436F6E666920
:1045E0006775726174696F6E00536D6F6F7468697F
:1045F0006E67005A0059005800436F727265637409
:10460000696F6E004D61696E0053746F726520535F
:10461000657474696E6773004C6F616420536574D0
:1046200074696E67730050726F6265205A204F661E
:1046300066736574004661646520486569676874DF
:10464000004F6666004F6E00426564204C657665DB
:104650006C696E67004C6576656C20426564004746
:1046600032394E00473239004175746F20486F6D02
:1046700065004D6F74696F6E003F0043616E636546
:104680006C204F626A656374004E4F0059455300B9
:1046900043616E63656C204F626A656374203D0000
:1046A0004D61696E0053572D4D6F64650053746FF3
:1046B00077004465706C6F790053656C662D5465A6
:1046C00073740052657365740049646C65205065AD
:1046D00072696F6400416374697665205370656523
:1046E00064004175746F204D6F64650049646C65AA
:1046F00020537065656400556E72657472616374F1
:10470000205600556E726574722E206D6D00486FD4
:1047100070206D6D00526574726163742056005292
:10472000657472616374206D6D004175746F2D52F4
:1047300065747261637400426564004E6F7A7A6CCE
:10474000650046616E20537065656400436F6E6658
:10475000696775726174696F6E00526573746F7208
:10476000652044656661756C7473004C6F616420EC
:1047700053657474696E67730053746F7265205368
:10478000657474696E677300507265686561742042
:104790002420436F6E66004F6666004F6E005275B0
:1047A0006E6F75742053656E736F7200526574720C
:1047B00061637400424C546F75636800436F6E749C
:1047C000726F6C6C65722046616E0050726F62652C
:1047D000205A204F666673657400416476616E638B
:1047E00065642053657474696E6773004D61696E0A
:1047F000004D37303220542564004D363030204291
:104800003020542564004D373032203B2564004D64
:1048100037303120542564004D373032004D373069
:1048200031004D363030204230004D61696E00431A
:104830006F6E74696E7565004F6666004F6E00524C
:10484000756E6F75742053656E736F72005075725C
:104850006765206D6F726500524553554D45204F79
:104860005054494F4E533A005052494E54205041F3
:10487000555345440020204E6F7A7A6C653A2000EB
:104880005061726B696E672E2E2E000000576169B1
:104890007420666F720066696C616D656E7420636A
:1048A00068616E676500746F20737461727400577D
:1048B00061697420666F720066696C616D656E7403
:1048C00020756E6C6F616400004E6F7A7A6C6520A3
:1048D00068656174696E6700506C65617365207707
:1048E0006169742E2E2E00005072657373206275FC
:1048F00074746F6E00746F2068656174206E6F7AD7
:104900007A6C650000496E736572742066696C612B
:104910006D656E7400616E642070726573732062E1
:104920007574746F6E00746F20636F6E74696E754A
:1049300065005761697420666F720066696C616D0D
:10494000656E74206C6F6164000050726573732033
:10495000427574746F6E00746F20726573756D6547
:10496000207072696E7400005761697420666F72FE
:10497000207072696E7400746F20726573756D6556
:104980002E2E2E00005761697420666F72006669D2
:104990006C616D656E742070757267650000536E92
:1049A000346B3300496E76616465727300427269DC
:1049B000636B6F75740041626F7574205072696E1D
:1049C000746572003E2000256C642E25696D0045DB
:1049D0007874727564656420546F74616C003E2055
:1049E000004C6F6E67657374204A6F622054696D66
:1049F00065003E2000546F74616C205072696E74C3
:104A00002054696D6500436F6D706C65746564005A
:104A10003A20005072696E7420436F756E74003ACC
:104A2000200047616D6573005072696E7465722075
:104A30005374617473005072696E74657220496EAC
:104A4000666F004D61696E003F004261636B005309
:104A5000746F70004E6F204D65646961005072691B
:104A60006E742066726F6D204D65646961004368E5
:104A7000616E6765204D65646961004D32310043A8
:104A800068616E67652046696C616D656E74004390
:104A90006F6E66696775726174696F6E0054656DDB
:104AA0007065726174757265004D6F74696F6E0028
:104AB000526573756D65205072696E740041626F46
:104AC0007574205072696E7465720043616E63651F
:104AD0006C204F626A6563740054756E6500537490
:104AE0006F70205072696E7400506175736520504C
:104AF00072696E7400496E666F2053637265656EED
:104B0000003F005374617274205072696E740043E8
:104B1000616E63656C005072696E740043616E6E05
:104B20006F7420656E746572207375626469723A81
:104B30002000022E2E004D61696E002100486F7426
:104B4000656E6420746F6F20636F6C6400426163F4
:104B50006B0050726F63656564004D6F74696F6EB2
:104B60000044697361626C6520537465707065728E
:104B700073004D3834004D34382050726F62652018
:104B800054657374004732384F0A4D343820503121
:104B90003000426564204C6576656C696E67005A2A
:104BA0002050726F62652057697A617264004175A6
:104BB000746F205A2D416C69676E00473334005082
:104BC00061726B204E6F7A7A6C6500473238204FE5
:104BD0000A47323700486F6D65205A004732385A0D
:104BE00000486F6D652059004732385900486F6D95
:104BF0006520580047323858004175746F20486F5F
:104C00006D65004D61696E00290A003C3C3C2073D3
:104C100065745F617869735F6E657665725F686FF2
:104C20006D65642800290A003E3E3E207365745F6E
:104C3000617869735F6E657665725F686F6D6564D4
:104C400028004732385A0043616E63656C00446F38
:104C50006E65004D6F76652025736D6D004D6F7626
:104C60006520302E316D6D0050726F6265205A20C4
:104C70004F6666736574005A3D004D6F7665204E31
:104C80006F7A7A6C6520746F20426564004D6F7690
:104C9000696E6720746F2050726F62696E67205072
:104CA0006F730050726F62696E67205A205265669A
:104CB0006572656E636500486F6D696E672058594F
:104CC0005A0050726568656174202420456E640046
:104CD00050726568656174202420426564005465E3
:104CE0006D706572617475726500436F6F6C646F8F
:104CF000776E005072656865617420240046616EAD
:104D000020537065656400426564004E6F7A7A6C6A
:104D100065004D61696E004531005A005900580028
:104D2000590058004531005A0059004F6666004F3F
:104D30006E005800544D43204472697665727300CA
:104D4000537465616C746843686F7020456E61626E
:104D50006C6564005374657070696E67204D6F6494
:104D6000650053656E736F726C65737320486F6D69
:104D7000696E670044726976657220437572726568
:104D80006E7400416476616E63656420536574746B
:104D9000696E67730050726F6265205A204F6666B5
:104DA00073657400416476616E6365204B00466CE8
:104DB0006F770046616E20537065656400426564DC
:104DC000004E6F7A7A6C65005370656564004D61C2
:104DD000696E005450550041425300504C41000050
:104DE00000000000000000000000000000000000C3
:104DF00000000000000000000000000000000000B3
:104E000000000C000000000000000C00000000008A
:104E1000000012000000000000002300000000005D
:104E2000000021000000000000004C800000000095
:104E300000005E80000000000000924000000000C2
:104E40000000A1400000000000012120000000003F
:104E500000027F900000000000020010000000002F
:104E60000007FFF800000000000400080000000038
:104E70000008000400000000000800060000000018
:104E8000001000020000000000301E0100000000C1
:104E900000207F81000000000041FFE08000000052
:104EA0000043FCF08000000000873B7840000000D9
:104EB000018EDBFC60000000010FEBCC2000000045
:104EC000021FEDB610000000021FDEB61000000049
:104ED0000439CD7F080000000436E0FF0800000020
:104EE000087EC0BB84000000187F005D86000000C3
:104EF000107FC0ED82000000203CC0730100000064
:104F0000203B337F01000000701BE77E0380000020
:104F1000C81DEEDE04C00000880FDEDC0440000186
:104F2000240FDF3C092000012607DBF819200002CE
:104F30007203E7F0139000025101FFE02290000499
:104F400089007F802448000904801E004824000B4B
:104F5000FE400000DFF40010004000008002001F4F
:104F6000FFFFFFFFFFFE0000000000000000000048
:104F70000000000000000000000000000000001021
:104F800022103C3C0E1F00102210042211040010BD
:104F900022100822110400102210083C11040010F5
:104FA0002210102211040010221020221104001ED1
:104FB0001C1E3C3C0E04000000000000000000002D
:104FC00000000000000000000000000000000000E1
:104FD00000000000000000000000000000000000D1
:104FE00000000000000000000000000000000000C1
:104FF00000000000000000000000000000000000B1
:1050000000000000000000000000000000000000A0
:10501000000000000000000000000000001000C9B7
:105020000210012C014001220170011801B0010E93
:1050300001F00104015002FA00B002F0003003E672
:1050400000D003DC009004D2007005C800A006BEAA
:10505000000008B400B009AA00D00BA000600E96B2
:105060000060118C000015820020197800C01D6EB0
:1050700000A0226400B0275A00902C500000314656
:1050800000E0343C0010383200903A2800603C1EAA
:1050900000A03D1400803E0A00203F00004D393042
:1050A00036205A3435300A4739310A4730205A32CF
:1050B000300A4739300A47323820580A4D393036DD
:1050C000205A3937350A4D323036582D36592D3859
:1050D0000A4D3530300A4D31313720536964654B04
:1050E00069636B205265616479002020506C616EA9
:1050F0006E657242756666657242797465733A20B0
:10510000002046726565204D656D6F72793A20000A
:10511000436F6D70696C65643A2041756720313763
:1051200020323032330A00204C6173742055706491
:10513000617465643A20323032312D30362D31358C
:10514000207C20417574686F723A204C756C7A62CD
:105150006F740A00322E302E392E302E31360A006E
:105160004D61726C696E0020536F66747761726571
:105170002052657365740A00205761746368646F18
:10518000672052657365740A002042726F776E2043
:105190006F75742052657365740A002045787465D4
:1051A000726E616C2052657365740A00506F77658A
:1051B0007255700A0073746172740A004732370ABC
:1051C0004D353234004D31303031006572726F72BE
:1051D0002077726974696E6720746F2066696C65E8
:1051E0000A00446F6E6520736176696E6720666998
:1051F0006C652E0A004D323900456E6473746F7011
:105200007300255320256320256320256320256313
:1052100000205A3A0020593A0020583A00656E643E
:1052200073746F7073206869743A20000000210065
:10523000240027002A002D00300033000101000067
:10524000040107010A0100002200250028002B00AC
:105250002E003100340002010000050108010B019D
:10526000000020002300260029002C002F0032001F
:1052700000010000030106010901050505050705F8
:1052800008080808020202020A0A080804040404C2
:1052900001010101010101010303030303030303EE
:1052A000040707070C0C0C0C0C0C0C0C020202027D
:1052B00006060606060606060B0B0B0B0B0B0B0B66
:1052C0000102102020080810204010204080020118
:1052D00002010804020101020408102040808040FD
:1052E00020100804020180040201804020100804FC
:1052F000020108040201010204081020408001029A
:1053000004081020408000000A0B02090C0D0E0852
:10531000070304010000000000000000000000007E
:10532000000000000000000000000000000000007D
:10533000000012111000000000000000000000003A
:10534000000000000000000000000000004D6F762B
:10535000652025736D6D004D6F766520302E316DA3
:105360006D004D6F766520316D6D004D6F76652057
:1053700031306D6D004D6F76652041786973004561
:1053800078747275646572004D6F7665205A004DB1
:105390006F76652059004D6F7665205800DB4DD73C
:1053A0004DD34D4368616E67652046696C616D65DC
:1053B0006E7400556E6C6F61642046696C616D653A
:1053C0006E74004C6F61642046696C616D656E742B
:1053D000005072656865617420437573746F6D0069
:1053E000507265686561742024004261636B0050EF
:1053F00072696E742066726F6D204D65646961001C
:1054000047323800486F6D696E67204661696C6588
:105410006400FFFFFF290A005D005B002C20002CC8
:1054200020002E2E2E2800646F5F686F6D696E67F6
:105430005F6D6F7665002044697363726570616E9D
:1054400063793A00326E642050726F6265205A3A76
:1054500000534C4F57003173742050726F626520B7
:105460005A3A00464153540050726F62653A3A729C
:10547000756E5F7A5F70726F62650050726F6269FD
:105480006E67204661696C65640A0050726F6269DC
:105490006E67204661696C656400205A3A200020DE
:1054A000593A200042656420583A2000506F7369D1
:1054B00074696F6E204E6F7420526561636861621B
:1054C0006C650A00203A200A00202063757272651C
:1054D0006E745F706F736974696F6E3D005F7265A3
:1054E0006C6174697665290A002C20002C20002C40
:1054F00020002C20002E2E2E280050726F62653A5C
:105500003A70726F62655F61745F706F696E74008C
:1055100050726F62653A3A70726F62655F646F775E
:105520006E5F746F5F7A0020547269676765726599
:1055300064206561726C792E00204E6F2074726950
:10554000676765722E002050726F62652066616920
:105550006C21202D00496E736572742066696C6140
:105560006D656E7420616E642073656E64204D31CC
:1055700030380A00220A00556E6B6E6F776E20631A
:105580006F6D6D616E643A20220020420020500051
:105590006F6B0054617A20536964654B69636B20BB
:1055A0003238392052656164792E005072696E7408
:1055B000696E672E2E2E005072696E7420506175D0
:1055C00073656400204500205A00205900204D39A1
:1055D0003220580020453A00205A3A0020593A001B
:1055E000583A0020746F6F206C6F6E672065787476
:1055F000727573696F6E2070726576656E7465641E
:105600000A0020636F6C6420657874727573696F2B
:105610006E2070726576656E7465640A006F6B0A41
:1056200000526573656E643A200030780054484536
:10563000524D414C2052554E4157415900546865D6
:10564000726D616C2052756E617761790000F803AC
:10565000E20111241FBECFEFD1E2DEBFCDBF00E0DB
:105660000CBF14E0A0E0B2E0E8E2F0E603E00BBF1C
:1056700002C007900D92A831B107D9F729E1A8E13E
:10568000B4E001C01D92A93FB207E1F71BE2C8E2F6
:10569000DBE200E006C021970109802FFE010F9494
:1056A00065ACC732D10780E00807A9F70F94D398FB
:1056B0000D9402B00C940000FC0184910895FC014B
:1056C000808108959091320A81111CC08FEF980F4C
:1056D00093709093320A80919F0A8F5F80939F0A04
:1056E00090E0FC01EE0FFF1FEE5CF54F20919C0A4D
:1056F0002583880F991FFC01E85CF54F80919E0A75
:105700008083089581E0E3CFCF92DF92EF92FF9202
:105710001F93CF93DF9310915D0AC1E6DAE0E0E0DA
:1057200090E0F0E080E049919F5F4111192F842BB8
:1057300030E020E050E070E060E06A017B01022E82
:1057400004C0F694E794D794C7940A94D2F7C0FEA5
:1057500009C0AF2FB0E0AE5CB54FFE2EF22AD29654
:10576000FC92FF5F2F5F3F4F2530310531F7E05F3F
:105770009330C9F610935D0A50E040E020E090E0DD
:10578000B0E0A0E06C017D01042E04C0F694E79423
:10579000D794C7940A94D2F7C0FC05C02E504F5F2F
:1057A0005F4F2A3B79F720935B0A2AE335E0422FCB
:1057B0003150203811F1225F6C017D01032E04C0AD
:1057C000F694E794D794C7940A94D2F7C0FEEFCF2B
:1057D00040935C0A80915E0A823039F480915A0AC3
:1057E000181674F484E080935A0ADF91CF911F91C8
:1057F000FF90EF90DF90CF90089520935C0AEACF5E
:105800008CEFF1CF80914409882319F082E08093D6
:10581000920584E0809380028091310A882349F0C8
:10582000909192058FEF890F8093920581E0191670
:105830000CF080E0089580E095E29093410A809317
:10584000400A8CE491E09093450A8093440A80ECEE
:105850009EEF9093430A8093420A90913C0A80E223
:10586000890F863740F080EF890F20E431E03093D4
:10587000430A2093420A10923E0A80933F0A8FEF18
:1058800080933D0A0895FC01A081B1811C92A28100
:10589000B3818C918F5F8C930280F381E02D908196
:1058A0008CE0989F800D1124E0E1F8E113AE84AF05
:1058B00008955A98000000000000000087FD98C07D
:1058C0005B9800000000000091E09A950000E9F765
:1058D0005A9A00000000000000005A9800000000E2
:1058E0000000000086FD90C05B98000000000000F2
:1058F00091E09A950000E9F75A9A00000000000034
:1059000000005A98000000000000000085FD7AC0E9
:105910005B9800000000000091E09A950000E9F714
:105920005A9A00000000000000005A980000000091
:105930000000000084FD64C05B98000000000000CF
:1059400091E09A950000E9F75A9A000000000000E3
:1059500000005A98000000000000000083FD4EC0C7
:105960005B9800000000000091E09A950000E9F7C4
:105970005A9A00000000000000005A980000000041
:105980000000000082FD38C05B98000000000000AD
:1059900091E09A950000E9F75A9A00000000000093
:1059A00000005A98000000000000000081FD22C0A5
:1059B0005B9800000000000081E0982F9A9500009D
:1059C000E9F75A9A00000000000000005A98000011
:1059D0000000000000005B980000000000008A95B5
:1059E0000000E9F75A9A0000000000000000089546
:1059F0005B9A67CF5B9ADDCF5B9AC7CF5B9AB1CFDB
:105A00005B9A9BCF5B9A85CF5B9A6FCF90E080E0EB
:105A1000089590E080E00895282F90914A05833002
:105A200021F495FD0FC094FD0FC0892F90E0B0E0E8
:105A3000A0E004C0B695A795979587952A95D2F7CB
:105A40008170089581E0089580E0089590910E0698
:105A500081E089270C9427F51F93CF93DF9368E1AA
:105A600070E080E090E00F944F8C6093330A6AE01E
:105A700070E080E090E00F944F8C6093340A1091B6
:105A80009F0A2091330AA22F022E000CBB0BE2E3E7
:105A9000FAE030E0C62F062E000CDD0B1317B9F12B
:105AA0008581978189131BC0482F082E000C550B48
:105AB00041505109A417B50711F082130DC080851C
:105AC0009681482F98170CF4492F64172CF08917EA
:105AD0000CF4892F86171CF63F5F3296DFCF768154
