:100000000C94C6290C94062A0C94062A0C94062AF1
:100010000C94062A0C94062A0C94062A0C94062AA0
:100020000C94062A0D946B7C0D946B7C0D946B7C68
:100030000C94062A0C94062A0C94062A0C94062A80
:100040000C94062A0C9454A80C94062A0C94062AA4
:100050000C94062A0D94574E0C94062A0D947C7E1F
:100060000C94062A0C94B55E0C947F5E0C94062AC0
:100070000C94062A0C94062A0C94062A0C94062A40
:100080000C94062A0C94062A0C94062A0C94062A30
:100090000C94062A0C94062A0C94062A0C94062A20
:1000A0000C94062A0C94062A0C94062A0C94062A10
:1000B0000C94062A0C94062A0C94062A0C94062A00
:1000C0000C94062A0C94062A0C94062A0C94062AF0
:1000D0000C94062A0C94062A0C94062A0C94062AE0
:1000E0000C94062A084AD73B3BCE016E84BCBFFD68
:1000F000C12F3D6C74319ABD56833DDA3D00C77FF8
:1001000011BED9E4BB4C3E916BAAAABE0000008090
:100110003F05A84CCDB2D44EB93836A9020C50B91F
:10012000918688083CA6AAAA2ABE000000803F0744
:10013000634236B79BD8A71A39685618AEBAAB5582
:100140008C1D3CB7CC5763BD6DEDFD753EF6177247
:1001500031BF000000803F08000000BE9224491219
:100160003EABAAAA2ABECDCCCC4C3E00000080BE3D
:10017000ABAAAAAA3E00000000BF000000803F001A
:1001800000000000084178D3BB4387D1133D190E0E
:100190003CC3BD4282AD2B3E68EC8276BED98FE176
:1001A000A93E4C80EFFFBE01C4FF7F3F000000006E
:1001B00000000C946ACF0C94705F0C9438EE0C9491
:1001C000EAF10C9414F20D94F17C0D94E97C0D94F9
:1001D0008E230C94F5D90C9434A10C94345F0C94B8
:1001E000835F0C946B5F0C944D5F0D94482F0C94BF
:1001F00005DD0C94BDEC0D943E1F0C94FFA70D94EF
:10020000AC0F0C9470FF0C94799F0C9441A30C9448
:1002100029F10C949A430D9439180C9406D20C943D
:100220005BA10C941AF20C946AF10C9452430D9455
:10023000E5190D94302E0C94EE9F0D94962F0C948E
:1002400006D50C942CF30C94665F0D946A2F0D94D4
:1002500095060C948BAA0C94F5EC0C94DAA70C94EC
:10026000A6CC0C94615F0C94DEDC0D94FD170D940C
:10027000FC310C946DEC0D94AA7C0C9416F20C9449
:1002800030430C94465F0D94252F0C94A6A10C943A
:10029000FBA70D946D2E0C942DED0C94F49F0C94F3
:1002A00017A80C9451D10D947C340D94AF360C9456
:1002B000F0C50C9407A80C94F8A00C940BA70D940F
:1002C000FA270D94912F0C945D5F0C9478430C9455
:1002D0000FED0C94C8D30C94FBDC0D94E4350C9416
:1002E0002DC70D94E90E0C9411A70C94C0F00C943A
:1002F000D0A70C9497F00D949D340C94F5DC0D94DC
:1003000001920C949C430D9492230D9444000C9400
:100310008B5F0C94EFDC0D9436350C941FA80D9474
:10032000D57C0C94F8DC0C9430F90C94072C0D94CB
:100330005D2E0C94FEF10D94F77C0C942AA00C9485
:10034000D1EF0C944F2B0C9433F10C94F2DC0D9400
:1003500043250C948DA10D9460080C940B2A0C94E9
:1003600072A40D94D7010C94C2F00C94ACCC0C94F4
:100370009EFF0D94E9270D940F090D9415180D9407
:10038000C87C0D94E37C0C942CA30C9474A10D9464
:10039000991C0C94E2EF0C9408DD0C9445CE0D945E
:1003A000DB7C0C9413A80D9420940D9481230C9461
:1003B000FDF50D94DF7C0C94F65E0C9420C90D9431
:1003C0008C2F0D9445180D94FB7C0D94C47C0D94DA
:1003D00036230D9492300D941B180D94D17C0C94FF
:1003E000EDC50C94D0A10C94E9DC0D94A92F0C94CC
:1003F00012F30C9426EE0C948BA40C94D3EC0D9475
:10040000AC0D0C9408D90D943F250D9427180C942D
:1004100041EC0C943EEE0C9436A50C945EA40C9426
:10042000CAA10C94515F0D94F5030D9482180C949D
:10043000B6F70C9495F00D942D180D9403180C94A8
:10044000B2F10C94255F0D943F180C94FAF10C94C2
:1004500012A00D9452150C9403A80C949C9F0D941B
:100460000F180C94785F0C9474430C9423A30C9491
:1004700066F00C94AAA40C94BFA10C943BEE0C94CF
:10048000EAF00C94AFEC0C94D33D0C94F8EF0C9480
:100490002CEC0D94EF2E0C9454430C94E7EC0C943C
:1004A00012F20D94BC7C0C94739F0C9435EE0C945A
:1004B00068A40C9429ED0C9418F20C9487EC0D941C
:1004C0000F300C94EB9E0C94082A0D945E330C9420
:1004D0007E2B0C94769F0D9426050C9463A40D94AA
:1004E000F7170C94C1EF0D940F2F0C94C3A40C9428
:1004F00076430D94A3180C941AA00D94ED340C942B
:100500000FA80C940BA80C943CA30C9453CE0D9400
:100510009F2F0C94A09F0D94CB7C0C9446A50C941B
:10052000555F0D947B000D94B90A0C94F7F50D946A
:1005300021180C9450430C94A9CC0C940EF20C94FA
:1005400010F20C947CEA0D94F2320C94FEDC0C94C4
:1005500022A00D945F340C94A99F0C94A1EC0C94F0
:1005600053D80D94ED7C0C945CEC0D9433180C94E2
:1005700033F00D94B7350D9441000D94C07C0C946C
:10058000552B0D9418110D9409180C9410430D94CB
:100590005E2E0D9495350D94F72E0D94A57C0C943C
:1005A000595F0C94E02B0D947A350C9404430C9411
:1005B00098430C942E430C94ECDC0C941BA80C94E4
:1005C000CEEE0C946DA40D9491300C9464F04E41D9
:1005D0004E494E495459494E46CDCCCC3D0AD723BD
:1005E0003C17B7D13877CC2B329595E6241FB14F05
:1005F0000A000020410000C84200401C4620BCBE4A
:100600004CCA1B0E5AAEC59D7400407A10F35A00B6
:10061000A0724E18090010A5D4E80000E87648172B
:100620000000E40B54020000CA9A3B000000E1F510
:1006300005000080969800000040420F000000A0D6
:100640008601000000102700000000E80300000001
:10065000006400000000000A00000000000100002B
:100660000000002C76D888DC674F0823DFC1DFAE9E
:1006700059E1B1B796E5E3E453C63AE65199769667
:10068000E8E6C28426EB898C9B62ED407C6FFCEF30
:10069000BC9C9F40F2BAA56FA5F490055A2AF75C5E
:1006A000936B6CF9676DC11BFCE0E40D47FEF52010
:1006B000E6B500D0ED902E030094357705008084D8
:1006C0001E080000204E0A000000C80C33333333EC
:1006D0000F986E12831141EF8D2114893BE6551658
:1006E000CFFEE6DB18D1844B381BF77C1D901DA490
:1006F000BBE424203284725E228100C9F124ECA183
:10070000E53D2744455441494C00434F4D4D554E1E
:1007100049434154494F4E0044525952554E0045A9
:1007200052524F525300494E464F004543484F00E6
:100730004572726F722077726974696E6720746F88
:1007400020454550524F4D210A0053544F505045BB
:10075000442E20005072696E7465722073746F703D
:100760007065642064756520746F206572726F72A5
:10077000732E2046697820746865206572726F72E6
:1007800020616E6420757365204D39393920746F8E
:1007900020726573746172742E202854656D7065C3
:1007A0007261747572652069732072657365742E49
:1007B00020536574206974206166746572207265C7
:1007C0007374617274696E67290A004E6F20436802
:1007D00065636B73756D2077697468206C696E65ED
:1007E000206E756D6265722C204C617374204C69AB
:1007F0006E653A20004E6F20436865636B73756DBC
:100800002077697468206C696E65206E756D62650D
:10081000722C204C617374204C696E653A20006321
:100820006865636B73756D206D69736D6174636862
:100830002C204C617374204C696E653A20004C6921
:100840006E65204E756D626572206973206E6F74DF
:10085000204C617374204C696E65204E756D626525
:10086000722B312C204C617374204C696E653A20D8
:10087000004D3131300053657269616C20737461D1
:10088000747573206D69736D617463680A005344F5
:100890002072656164206572726F720A00486F741D
:1008A000656E642049646C652054696D656F75746C
:1008B00000486F74656E642049646C652054696DEE
:1008C000656F75740A004265642049646C65205444
:1008D000696D656F7574004265642049646C6520BC
:1008E00054696D656F75740A006D4129002064724A
:1008F00069766572206F76657274656D7065726178
:1009000074757265207761726E696E6721202800A8
:100910003A20002063757272656E7420646563729C
:10092000656173656420746F20006D412900206447
:100930007269766572206F76657274656D70657226
:100940006174757265207761726E696E6721202807
:10095000003A20002063757272656E7420646563CE
:1009600072656173656420746F20006D41290020F9
:10097000647269766572206F76657274656D7065F4
:10098000726174757265207761726E696E6721207D
:1009900028003A20002063757272656E74206465C9
:1009A0006372656173656420746F20006D41290076
:1009B00020647269766572206F76657274656D70F9
:1009C00065726174757265207761726E696E6721F8
:1009D0002028003A20004B494C4C20627574746FFB
:1009E0006E2F70696E0A002121204B494C4C206308
:1009F00061757365642062792000746F6F206D7576
:100A0000636820696E6163746976652074696D65D9
:100A1000202D2063757272656E7420636F6D6D6139
:100A20006E643A20002121204B494C4C20636175B3
:100A300073656420627920007061757365004D36BE
:100A40003030204530205530204C30002066696C15
:100A5000616D656E745F72756E6F75742000666986
:100A60006C616D656E745F72756E6F757420540085
:100A700046696C616D656E7452756E6F7574205445
:100A8000004D656469612052656D6F766564004D47
:100A90006564696120496E736572746564004D31E7
:100AA0003030305300627573793A20706175736528
:100AB0006420666F7220696E7075740A00627573C7
:100AC000793A2070617573656420666F7220757362
:100AD00065720A00627573793A2070726F6365738C
:100AE00073696E670A00506C6561736520526573A7
:100AF0006574005052494E5445522048414C54456B
:100B0000440025533A20255300706F7765726F6655
:100B100066004B494C4C45442E20005072696E745F
:100B200065722068616C7465642E206B696C6C283A
:100B3000292063616C6C6564210A006563686F3A03
:100B4000004572726F723A0066616C736500747270
:100B5000756500202864697361626C6564290A0008
:100B600020280041424C2041646A7573746D656EA3
:100B700074205A005A20466164653A200020286596
:100B80006E61626C6564290A0041626F766500538C
:100B9000616D65205A2061730042656C6F7700417A
:100BA00075746F20426564204C6576656C696E676C
:100BB0003A2042494C494E45415200204E6F7A7AC4
:100BC0006C65290A0020280050726F6265204F660C
:100BD00066736574205830205930205A0050726F67
:100BE00062653A204E4F5A5A4C455F41535F50520E
:100BF0004F42450A004D616368696E652054797003
:100C0000653A2043617274657369616E0A004269D6
:100C10006C696E656172204C6576656C696E6720E3
:100C2000477269643A0A003E3E3E003C3C3C007319
:100C300065745F6265645F6C6576656C696E675F3D
:100C4000656E61626C65640072657365745F626590
:100C5000645F6C6576656C0A00203A204C657665A9
:100C60006C696E67204F4E0A0020206375727265B2
:100C70006E745F706F736974696F6E3D00203A2007
:100C80004C6576656C696E67204F46460A002020E9
:100C900063757272656E745F706F736974696F6E7D
:100CA0003D005072696E74696E67204F626A6563B9
:100CB000740020460020570020204D32303720534A
:100CC0000020460020570020204D323038205300AD
:100CD00020204D3230392053006E6F74696669638D
:100CE0006174696F6E20006E6F7469666963617408
:100CF000696F6E2000656E640073686F77006275BF
:100D000074746F6E00486F74656E6420746F6F202A
:100D1000636F6C640A0053656E64204D3130382077
:100D2000746F20726573756D650A00496E73657224
:100D3000742066696C616D656E7420616E642073E9
:100D4000656E64204D3130380A0052656865617403
:100D500020446F6E6500526568656174696E672E28
:100D60002E2E005265686561740048656174657275
:100D70002054696D656F75740053656E64204D3144
:100D8000303820746F2068656174206E6F7A7A6CD9
:100D9000650A004E6F7A7A6C65205061726B6564EB
:100DA0000070617573656400486561642063616EFD
:100DB0006E6F74206265207061726B6564005061B3
:100DC000757365004D323453004D3233200047397E
:100DD000322E394500473146004731463630305AC9
:100DE00000473146333030305800473132004D3102
:100DF000303650004D31303953004D3230304400E0
:100E00004739322E395A004D343230530047323888
:100E100052300A473146313230305A004739322E8B
:100E2000394530004D31303953004D3139305300A0
:100E30004D3432305330002568753A2530326875AC
:100E40000025303268753A25303268750025303219
:100E5000687527253032687500256875642025304F
:100E60003268753A25303268750044726976657269
:100E7000206572726F7200636F696C2073686F72A5
:100E80007420636972637569740A006F76657274A1
:100E9000656D70657261747572650A0020647269AF
:100EA000766572206572726F722064657465637412
:100EB00065643A203078004C4F5700484947480055
:100EC0004F4B004572726F723A20416C6C200020CB
:100ED000636F6E6E656374696F6E2E2E2E200054E4
:100EE000657374696E6720004C4F57004849474846
:100EF000004F4B004572726F723A20416C6C2000BB
:100F000020636F6E6E656374696F6E2E2E2E2000E7
:100F100054657374696E6720004C4F570048494709
:100F200048004F4B004572726F723A20416C6C2042
:100F30000020636F6E6E656374696F6E2E2E2E20B7
:100F40000054657374696E6720004C4F5700484920
:100F50004748004F4B004572726F723A20416C6CEB
:100F6000200020636F6E6E656374696F6E2E2E2E87
:100F7000200054657374696E672000544D4320430C
:100F80004F4E4E454354494F4E204552524F52000A
:100F90004F46460A00466164652048656967687483
:100FA0002000426564204C6576656C696E672000A0
:100FB0004661696C656420746F20656E61626C6562
:100FC00020426564204C6576656C696E670A00494D
:100FD0006E76616C6964206D6573682E0A006D6FB2
:100FE00076655F7A5F61667465725F70726F626961
:100FF0006E6700203A203E2070726F62696E672033
:10100000636F6D706C6574650A0020206375727281
:10101000656E745F706F736974696F6E3D005072B6
:101020006F62696E6720506F696E740025532025CA
:10103000692F2569002E0A002F0050726F62696EB9
:1010400067206D65736820706F696E7420002028BA
:1010500044525952554E2900473239204175746F18
:1010600020426564204C6576656C696E67003F20A0
:10107000284C2C522C462C4229206F7574206F6608
:1010800020626F756E64732E0A00204200204600B5
:10109000205200473239204C003F285629657262A1
:1010A0006F7365206C6576656C20696D706C617519
:1010B0007369626C652028302D34292E0A00426144
:1010C00064205A2076616C75650A004E6F20626953
:1010D0006C696E65617220677269640A0047323814
:1010E0004C30003E204175746F2D6C6576656C2028
:1010F0006E6F74206E65656465642C20736B697017
:101100000A00473239005261697365205A206265CE
:10111000666F726520686F6D696E673A0A005230BB
:10112000203D204E6F205A2072616973650A003E8F
:1011300020686F6D696E67206E6F74206E656564E0
:1011400065642C20736B69700A00473238002044B4
:101150000020204D32303020530020284469736134
:10116000626C6564293A0046696C616D656E742035
:1011700073657474696E67730020204D32303120BE
:1011800058004D617820416363656C6572617469D4
:101190006F6E2028756E6974732F733229002020BA
:1011A0004D3230332058004D617820666565647299
:1011B000617465732028756E6974732F732900201C
:1011C000520020204D323034205000416363656C62
:1011D00065726174696F6E2028756E6974732F7300
:1011E00032292028503C7072696E742D61636365EA
:1011F0006C3E20523C726574726163742D6163634E
:10120000656C3E20543C74726176656C2D6163633D
:10121000656C3E29005741524E494E4721204C6F84
:1012200077205A204A65726B206D6179206C656168
:101230006420746F20756E77616E746564207061D0
:10124000757365732E0A0020540020530020204D32
:10125000323035204200416476616E636564202837
:10126000423C6D696E5F7365676D656E745F74692E
:101270006D655F75733E20533C6D696E5F66656595
:1012800064726174653E20543C6D696E5F74726176
:1012900076656C5F66656564726174653E20583C76
:1012A0006D61785F6A65726B3E20593C6D61785F55
:1012B0006A65726B3E205A3C6D61785F6A65726B3D
:1012C0003E20453C6D61785F6A65726B3E29002067
:1012D000440020490020204D333031205000486F19
:1012E00074656E6420504944002044002049002069
:1012F000204D333034205000426564205049440072
:101300005761726E696E673A20436C65616E204367
:101310006972636C652072657175697265732058B6
:10132000590A005761726E696E673A2052616469AA
:101330007573204F7574206F662052616E67650A61
:10134000004E6F7A7A6C6520746F6F20636F6C64E7
:10135000202D20536B697070696E67207769706506
:101360000A004732384F0A4D3131372057697069CA
:101370006E67206E6F7A7A6C650A4731205831317A
:10138000352059313737205A31302046343030300B
:101390005C6E4731205A2D310A4D3131340A4731C4
:1013A0002058313135200A473120583435200A473A
:1013B000312058313135200A473120583435200A40
:1013C00047312058313135200A47312058343520F3
:1013D0000A47312058313135200A473120583435F9
:1013E000200A47312058313135200A4731205834FE
:1013F00035200A47312058313135200A47312058ED
:101400003435200A4731205A31350A4D3430300AFC
:101410004D313137205769706520436F6D706C65B1
:1014200074650025290A00252000203B2028002083
:10143000440020410020490020204D373130205306
:1014400000436F6E74726F6C6C65722046616E0043
:10145000203B0020550020204D363033204C0046E4
:10146000696C616D656E74206C6F61642F756E6C54
:101470006F61640020204D343133205300506F776A
:1014800065722D6C6F7373207265636F7665727908
:10149000007370726561644379636C650073746591
:1014A000616C746843686F7000206472697665725D
:1014B000206D6F64653A09007370726561644379E9
:1014C000636C6500737465616C746843686F700069
:1014D00020647269766572206D6F64653A090073E5
:1014E00070726561644379636C6500737465616CE7
:1014F000746843686F700020647269766572206D4D
:101500006F64653A09007370726561644379636C56
:101510006500737465616C746843686F7000206463
:101520007269766572206D6F64653A0900202E68D5
:10153000737472743A2000202E68656E643A20003D
:101540002063686F70706572202E746F66663A2033
:1015500000202E68737472743A2000202E68656E25
:10156000643A20002063686F70706572202E746F7B
:1015700066663A2000202E68737472743A20002048
:101580002E68656E643A20002063686F7070657223
:10159000202E746F66663A2000202E687374727471
:1015A0003A2000202E68656E643A20002063686F40
:1015B00070706572202E746F66663A20003F53206B
:1015C0006F7574206F662072616E67652028312EFA
:1015D0002E38290A003F50206F7574206F662072E4
:1015E000616E676520282D332E2E3132290A003F87
:1015F0004F206F7574206F662072616E67652028BA
:10160000312E2E3135290A003B2000536C65657060
:101610002E2E2E0070726F62655F7265776970653D
:10162000004D31303420533137300A4732380A47C1
:1016300030205A352046363030300A473020583175
:1016400035302046393939390A4739310A4D323176
:10165000312053300A4D3430300A4D393036205A5B
:101660003630300A4730205A2D313520463530305B
:101670000A4730205A3520463530300A4D34303054
:101680000A4739300A4D393036205A3936300A4D3A
:101690003231312053310A473238205A300A47322A
:1016A000380A4731320A4D31303920523136300A4A
:1016B0004D3430300A4D3131372050726F62696ECF
:1016C0006720626564004732392052657472796917
:1016D0006E670070726F62655F6661696C65640059
:1016E00050726F62696E67204661696C6564004D77
:1016F00031313720426564206C6576656C696E67B0
:10170000206661696C65642E0A4730205A31300AC0
:1017100047302045300A4D33303020503235205389
:101720003838300A4D333030205035302053300AAD
:101730004D3330302050323520533838300A4D3355
:101740003030205035302053300A4D333030205067
:10175000323520533838300A47342053310000479F
:1017600032380052756E6E696E6720506F73742048
:10177000436F6D6D616E64730A005A204261636B42
:101780006F66660A00526573746F726520437572E6
:1017900072656E740A0046696E616C205A204D6F46
:1017A00076650A005265647563696E6720437572D9
:1017B00072656E740A0053657474696E67205A20EE
:1017C000506F756E63650A005061726B696E6720B9
:1017D00058590A004D65736820706F696E74206FE8
:1017E0007574206F662072616E67650A004E6F2007
:1017F0004D6F76652E00456E642066696C65206CC1
:101800006973740A00426567696E2066696C6520B9
:101810006C6973740A004E6F206D656469610A001B
:10182000286E6F2066696C65290043757272656E5B
:10183000742066696C653A20005072696E74207479
:10184000696D653A20006F6B006F6666002B072696
:10185000071F0718070A07030744454255473A0080
:101860004D3131332053004C756C7A426F74204DEA
:10187000696E692032204F46462E00432E0A003FF3
:1018800049646C652054696D656F7574202854290E
:1018900020747269676765722074656D7065726126
:1018A000747572652073686F756C64206265206F53
:1018B00076657220002F2F004D31343520533C695E
:1018C0006E6465783E206F7574206F662072616E5D
:1018D00067652028302D31290A00416363656C65F6
:1018E000726174696F6E004665656472617465004B
:1018F00020204D61783A2000200020204D696E3A6A
:101900002000203B200020204D3231312053005355
:101910006F667420656E6473746F707300250A00BF
:1019200046523A0020466C6F773A200050726F6240
:1019300065204F6666736574205A0050726F626549
:10194000204F6666736574205A0064697300656E83
:101950000043290061626C656420286D696E207403
:10196000656D702000436F6C6420657874727564D7
:1019700065732061726520004F4646004F4E00207F
:101980003B20486F73742068616E646C696E6720D9
:101990000046696C616D656E742072756E6F75744A
:1019A00020004D34323120696E636F72726563744A
:1019B00020706172616D6574657220757361676511
:1019C0000A004D65736820706F696E74206F7574BE
:1019D000206F662072616E67650A00454550524F60
:1019E0004D204F4B0A00290A0020746F20003F5AF7
:1019F000206F7574206F662072616E676520280005
:101A00003F59206D757374206265203020284E4F39
:101A10005A5A4C455F41535F50524F4245292E0A56
:101A2000003F58206D757374206265203020284E69
:101A30004F5A5A4C455F41535F50524F4245292EF1
:101A40000A002E0A002028302D313029002076612E
:101A50006C7565206F7574206F662072616E6765A6
:101A600000416476616E6365204B3D0020647269BD
:101A70007665722063757272656E743A2000206418
:101A800072697665722063757272656E743A2000B1
:101A9000206472697665722063757272656E743A3D
:101AA0002000206472697665722063757272656EBB
:101AB000743A20002074656D70657261747572658A
:101AC000207072657761726E2074726967676572E3
:101AD00065643A20002074656D706572617475727A
:101AE00065207072657761726E20747269676765D0
:101AF0007265643A20002074656D7065726174755A
:101B00007265207072657761726E207472696767A2
:101B1000657265643A20002074656D706572617449
:101B2000757265207072657761726E207472696774
:101B300067657265643A2000207072657761726E25
:101B400020666C616720636C65617265640A0020C1
:101B50007072657761726E20666C616720636C6578
:101B6000617265640A00207072657761726E20662A
:101B70006C616720636C65617265640A0020707235
:101B8000657761726E20666C616720636C65617257
:101B900065640A0020686F6D696E672073656E73F7
:101BA000697469766974793A200020686F6D696E8E
:101BB000672073656E73697469766974793A200079
:101BC000446F6E65207072696E74696E6720666915
:101BD0006C650A004D3737004D33310020204D32FF
:101BE0003036205800486F6D65206F6666736574E7
:101BF000004F666673657473204170706C6965642C
:101C0000004D494E2F4D415820546F6F2046617250
:101C100000546F6F206661722066726F6D204D49AF
:101C20004E2F4D41580A00446966663A2020200034
:101C300046726F6D5374703A0053746570706572BC
:101C40003A00556E4C6576656C3A004C6576656C6D
:101C500065643A005261773A20202020000A4C6FD8
:101C6000676963616C3A00436F756E7420453A0092
:101C70004361703A00434F4E4649475F4558504FC5
:101C80005254004D4541545041434B00434F4F4C3B
:101C900045525F54454D50455241545552450043BD
:101CA00048414D4245525F54454D5045524154556F
:101CB00052450045505F42414259535445500042FD
:101CC0004142595354455050494E470041524353A5
:101CD000004D4F54494F4E5F4D4F444553005448BB
:101CE00045524D414C5F50524F54454354494F4E1D
:101CF00000455854454E4445445F4D3230004355ED
:101D000053544F4D5F4649524D574152455F5550D0
:101D10004C4F4144004C464E5F5752495445004C8D
:101D20004F4E475F46494C454E414D450041555445
:101D30004F5245504F52545F53445F535441545592
:101D4000530053445F575249544500524550454152
:101D500054004D554C54495F564F4C554D4500531A
:101D600044434152440050524F4D50545F535550DC
:101D7000504F525400484F53545F414354494F4EC3
:101D80005F434F4D4D414E445300454D45524745ED
:101D90004E43595F50415253455200434153455FB2
:101DA0004C494748545F4252494748544E45535363
:101DB00000544F47474C455F4C49474854530053E4
:101DC0004F4654574152455F504F57455200425578
:101DD000494C445F50455243454E54004C4556458E
:101DE0004C494E475F44415441005A5F50524F4264
:101DF000450052554E4F5554004155544F4C455691
:101E0000454C005052494E545F4A4F420050524F89
:101E10004752455353004155544F5245504F525429
:101E20005F54454D50004155544F5245504F525408
:101E30005F504F5300564F4C554D45545249430047
:101E4000454550524F4D0042494E4152595F464917
:101E50004C455F5452414E534645520053455249FA
:101E6000414C5F584F4E5F584F4646004649524DD1
:101E7000574152455F4E414D453A4D61726C696E16
:101E800020204649524D574152455F5645525349CD
:101E90004F4E3A322E312E332E302E3237204558C7
:101EA0005452554445525F545950453A4C65676108
:101EB000637920556E6976657273616C2050524F5C
:101EC00042455F545950453A436F6E647563746977
:101ED000766520576173686572734245445F545953
:101EE00050453A205354414E4441524420284170B9
:101EF0007220203420323032342031313A31373AB6
:101F000031392920534F555243455F434F44455F74
:101F100055524C3A6769746875622E636F6D2F4D28
:101F200061726C696E4669726D776172652F4D6181
:101F3000726C696E2050524F544F434F4C5F564560
:101F40005253494F4E3A312E30204D414348494E6D
:101F5000455F545950453A4C756C7A426F74204D28
:101F6000696E6920322045585452554445525F43AA
:101F70004F554E543A3120555549443A6535353020
:101F8000323431312D643436642D343231642D6273
:101F90006133612D61323031323664373933306626
:101FA00000626567696E004D302053746F70004D9C
:101FB000312053746F7000436C69636B20746F2021
:101FC000526573756D652E2E2E005A2050726F6209
:101FD0006520506173742042656400205A3A0020E5
:101FE000593A0042656420583A00203B0020204DB9
:101FF000383531205830205930205A005A2D50722F
:102000006F6265204F666673657400526573756D07
:10201000696E672053440043616E6E6F74206F7069
:10202000656E2073756264697220002569730025EE
:10203000696D20256973002569682025696D202553
:10204000697300256964202569682025696D20254C
:102050006973002569792025696420256968202530
:10206000696D20256973000A53746174733A2046C0
:10207000696C616D656E7420757365643A20002C1F
:10208000204C6F6E67657374206A6F623A2000544B
:102090006F74616C2074696D653A200053746174CB
:1020A000733A20002C204661696C65643A20002C4C
:1020B0002046696E69736865643A20005072696EE3
:1020C00074733A200053746174733A2000436F6F45
:1020D0006C696E672E2E2E00453120255300205747
:1020E0003A0042656420436F6F6C696E672E2E2E36
:1020F000004265642048656174696E672E2E2E006B
:1021000023646566696E652044454641554C545FBD
:102110000000626564004B6420004B6920004B7036
:1021200020005049442074756E696E6720646F6E9C
:1021300065002066696E6973686564212050757456
:1021400020746865206C617374204B702C204B697F
:1021500020616E64204B6420636F6E7374616E74D3
:10216000732066726F6D2062656C6F7720696E7484
:102170006F20436F6E66696775726174696F6E2E4A
:10218000680A00504944204175746F74756E65008B
:10219000206661696C6564212074696D656F757472
:1021A0000A00504944204175746F74756E65004192
:1021B00075746F74756E65206661696C6564212045
:1021C00054696D656F75742E00206661696C656475
:1021D000212054656D706572617475726520746F2D
:1021E0006F20686967680A00504944204175746F20
:1021F00074756E6500504944204379636C657300C3
:1022000025532025692F256900204B643A200020A2
:102210004B693A2000204B703A200020436C6173D8
:1022200073696320504944200A00204E6F206F7666
:10223000657273686F6F740A002054753A2000202D
:102240004B753A2000206D61783A2000206D696E50
:102250003A200020643A200020626961733A20002D
:1022600048656174696E672E2E2E0020737461724A
:10227000740A00504944204175746F74756E65008E
:102280004175746F74756E65206661696C65642153
:102290002054656D706572617475726520746F6F1E
:1022A00020686967682E00206661696C656421207A
:1022B00054656D706572617475726520746F6F20FE
:1022C000686967680A00504944204175746F7475E5
:1022D0006E6500504944204175746F74756E6500D9
:1022E000206661696C6564212042616420686561D3
:1022F0007465722069640A00504944204175746F06
:1023000074756E6500205400205300204500202085
:102310004D3836204200486F74656E642049646C05
:10232000652054696D656F7574004572723A207549
:1023300074663820666F6E74206E6F7420696E69E3
:102340007469616C697A65642E004572723A207511
:1023500074663820666F6E74206E6F7420696E69C3
:102360007469616C697A65642E004572723A2075F1
:1023700074663820666F6E74206E6F7420696E69A3
:102380007469616C697A65642E006D61726C696E46
:1023900066772E6F726700322E312E332E302E323A
:1023A00037001FFFFFFFFFFFFF600000000001FF7D
:1023B000400000000000FF8000000000007F83CF8D
:1023C00000000C303F87FF80000C301F86798000B2
:1023D0000C000F8C30C7838C30E78C30CFC7CC31EA
:1023E000F38C30DCECEC33B98C30D86C6C33198C5A
:1023F00030D06C0C33198C30D86C0C33198C30DC29
:102400006C0E3B198C30CF7C079F198C30C77C0336
:102410008F1940000000000002600000000000066C
:102420001FFFFFFFFFFFF8200020003A00200020E0
:10243000003A003A00000C0F00FE07022503BB0122
:102440007FFE08FE08FE05080806000040F0C88868
:1024500088987810050808060000C0F888888888E1
:1024600088F80505050600012030F8302005080829
:102470000600002070F820202020E0050909060051
:10248000FF2070A8A8B888887020070505070001FC
:10249000D86C366CD80509090600FFF8A88888882A
:1024A0008888A8F8050A0A0600FE20505050508877
:1024B000A8A8887003030306000340A040FFFFFFA5
:1024C000FFFFFFFFFFFFFFFFFFFFFFFFFFFFFFFF1C
:1024D000FFFFFF0000000605FF010707060200805E
:1024E000808080800080030303060105A0A0A00572
:1024F000060606000050F85050F85005090906007D
:10250000FF2070A8A07028A870200507070600000B
:10251000C8C8102040989805070706000040A0A0F2
:1025200040A8906801030306020580808003090922
:102530000601FF20404080808040402003090906BA
:1025400001FF804040202020404080050707060012
:102550000020A8702070A820050505060001202095
:10256000F820200203030601FFC040800501010698
:102570000003F8020202060100C0C00507070600BA
:1025800000081010204040800507070600007088F2
:1025900098A8C8887003070706010040C040404063
:1025A00040E0050707060000708808102040F80585
:1025B0000707060000F808103008887005070706AE
:1025C000000010305090F81010050707060000F8C2
:1025D00080F008088870050707060000304080F08A
:1025E000888870050707060000F8081010202020D2
:1025F000050707060000708888708888700507073F
:102600000600007088887808106002050506010041
:10261000C0C000C0C00206060601FFC0C000C04026
:1026200080030505060101204080402005030306C4
:102630000002F800F80305050601018040204080F3
:1026400005070706000070881020200020050707F6
:102650000600007088B8A8B880700507070600005B
:10266000708888F8888888050707060000F04848C1
:10267000704848F005070706000070888080808851
:1026800070050707060000F04848484848F005076D
:1026900007060000F88080F08080F8050707060034
:1026A00000F88080F08080800507070600007088B1
:1026B0008080988870050707060000888888F88859
:1026C0008888030707060100E04040404040E005DD
:1026D0000707060000381010101090600507070665
:1026E00000008890A0C0A090880507070600008021
:1026F0008080808080F805070706000088D8A888B9
:102700008888880507070600008888C8A8988888F0
:102710000507070600007088888888887005070705
:10272000060000F08888F08080800507070600001A
:1027300070888888A89068050707060000F08888D8
:10274000F0A0908805070706000070888070088850
:1027500070050707060000F820202020202005072C
:1027600007060000888888888888700507070600A3
:102770000088888888505020050707060000888850
:102780008888A8A8500507070600008888502050B0
:10279000888805070706000088885020202020052B
:1027A0000707060000F80810204080F80309090612
:1027B00001FFE080808080808080E00507070600C0
:1027C00000804040201010080309090601FFE020A6
:1027D000202020202020E00503030600052050884B
:1027E0000501010600FEF8030303060105804020F1
:1027F00005050506000070087888780507070600BB
:10280000008080F0888888F005050506000070804B
:10281000808870050707060000080878888888788F
:102820000505050600007088F080700507070600A2
:1028300000304840E04040400507070600FE708831
:1028400088887808700507070600008080F088886F
:1028500088880307070601004000C0404040E004AC
:1028600009090601FE1000301010101090600507D5
:102870000706000080808890E09088030707060123
:1028800000C04040404040E0050505060000D0A8DB
:10289000A8A8A8050505060000B0C8888888050511
:1028A0000506000070888888700507070600FEF09E
:1028B000888888F080800507070600FE7888888869
:1028C000780808050505060000B0C8808080050569
:1028D0000506000078807008F00507070600002054
:1028E00020F8202020180505050600008888889813
:1028F000680505050600008888885020050505063E
:1029000000008888A8A8500505050600008850200A
:1029100050880507070600FE8888885020408005FB
:102920000505060000F8102040F80309090601FF1C
:102930002040404080404040200109090602FF80BD
:1029400080808080808080800309090601FF8040AC
:102950004040204040408005030306000248A89004
:10296000FF5061726B696E672E2E2E00000057615A
:10297000697420666F720066696C616D656E7420A3
:102980006368616E676500746F20737461727400B0
:102990005761697420666F720066696C616D656E5F
:1029A0007420756E6C6F616400004E6F7A7A6C658E
:1029B0002068656174696E6700506C65617365209D
:1029C000776169742E2E2E00005072657373206239
:1029D0007574746F6E00746F2068656174206E6F1B
:1029E0007A7A6C650000496E736572742066696C52
:1029F000616D656E7400616E642070726573732022
:102A0000627574746F6E00746F20636F6E74696E9C
:102A10007565005761697420666F720066696C6144
:102A20006D656E74206C6F61640000507265737325
:102A300020427574746F6E00746F20726573756DCB
:102A400065207072696E7400005761697420666F4A
:102A500072207072696E7400746F20726573756D88
:102A6000652E2E2E00005761697420666F72006615
:102A7000696C616D656E74207075726765000053D6
:102A80006E346B3300496E76616465727300427216
:102A900069636B6F75740041626F75742050726961
:102AA0006E74657200256C642E25696D004578741E
:102AB000727564656420546F74616C004C6F6E674E
:102AC000657374204A6F622054696D6500507269A5
:102AD0006E742054696D6500436F6D706C6574652C
:102AE00064003A20005072696E7420436F756E74F2
:102AF000003A200047616D65730053746174730080
:102B00005072696E74657220496E666F004D61691E
:102B10006E204D656E75004D313030300053746F4E
:102B200070205072696E7400526573756D65205027
:102B300072696E7400506F776572204F75746167AB
:102B400065004732384F0A4730205831303020591D
:102B5000323833205A323030004D38393120543138
:102B60000A4D3932453431350A4D33303150323225
:102B70002E313249312E39344436332E35390A4D0F
:102B800039303620453936300A4D393030204B3017
:102B90002E30350A4D3530300A4D313137204D3128
:102BA000373576327C302E35306D6D7C4352422085
:102BB0004355004D3839312054320A4D39324534AD
:102BC00032300A4D3330315032312E3049312E37C8
:102BD000384436312E39330A4D39303620453936AE
:102BE000300A4D393030204B302E30350A4D3530DB
:102BF000300A4D31313720534C7C302E32356D6DDB
:102C00007C4E4B4C2D504C204355004D38393120D3
:102C100054330A4D3932453432300A4D3330315055
:102C200032312E3049312E37384436312E39330A7D
:102C30004D39303620453936300A4D393030204B49
:102C4000302E30350A4D3530300A4D313137205372
:102C5000457C302E35306D6D7C4E4B4C2D504C20CC
:102C60004355004D3839312054340A4D39324534FA
:102C700032300A4D3330315032312E3049312E3717
:102C8000384436312E39330A4D39303620453936FD
:102C9000300A4D393030204B302E30350A4D35302A
:102CA000300A4D3131372048457C302E35306D6D3E
:102CB0007C48524420535445454C004D383931200E
:102CC00054350A4D3932453432300A4D33303150A3
:102CD00033372E353549352E33394436352E333694
:102CE0000A4D39303620453936300A4D39303020DA
:102CF0004B302E30340A4D3530300A4D31313720CB
:102D000048537C302E38306D6D7C485244205354EB
:102D100045454C004D3839312054360A4D3932453D
:102D20003432300A4D3330315033372E3535493552
:102D30002E33394436352E33360A4D393036204558
:102D40003936300A4D393030204B302E30330A4D71
:102D50003530300A4D3131372048532B7C312E32FB
:102D6000306D6D7C48524420535445454C004D38DD
:102D700039312054370A4D3932453430390A4D3310
:102D800030315032372E353849332E3232443635D1
:102D90002E36360A4D39303620453936300A4D390F
:102DA0003030204B302E30350A4D3530300A4D3121
:102DB000313720483137357C302E35306D6D7C4EC3
:102DC0004B4C2D504C20435500483137357C302E2C
:102DD00035306D6D7C4E4B4C2D504C20435500488A
:102DE000532B7C312E32306D6D7C4852442053542D
:102DF00045454C0048537C302E38306D6D7C485230
:102E00004420535445454C0048457C302E35306DA8
:102E10006D7C48524420535445454C0053457C300A
:102E20002E35306D6D7C4E4B4C2D504C2043550053
:102E3000534C7C302E32356D6D7C4E4B4C2D504CAE
:102E4000204355004D31373576327C302E35306D8C
:102E50006D7C435242204355005061726B20666F77
:102E6000722054482053776170004D61696E204D87
:102E7000656E75003F004261636B0053746F7000B4
:102E80004E6F204D656469610053656C6563742005
:102E900066726F6D204D65646961004368616E679D
:102EA00065204D65646961004D32310041626F7586
:102EB00074205072696E746572004368616E676554
:102EC0002046696C616D656E7400546F6F6C2048AC
:102ED00065616473202854482900436F6E666967F2
:102EE00075726174696F6E0054656D70657261749E
:102EF000757265004D6F74696F6E00507265736511
:102F00006E742042656400473238204F0A473020F3
:102F100059313838204631303030300A4730205966
:102F2000313930204631303030300A4D31313720A0
:102F30005072696E746572205265616479005265E1
:102F400073756D65205072696E740043616E6365C0
:102F50006C204F626A6563740054756E650053742B
:102F60006F70205072696E740050617573652050E7
:102F700072696E7400496E666F2053637265656E88
:102F8000003F005374617274205072696E74004384
:102F9000616E63656C005072696E740043616E6EA1
:102FA0006F7420656E746572207375626469723A1D
:102FB000200002202E2E004D61696E204D656E7539
:102FC000002100486F74656E6420746F6F20636F1A
:102FD0006C64004261636B0050726F6365656400EE
:102FE0004D6F7665204578747275646572004D6F1B
:102FF00074696F6E0044697361626C652053746517
:103000007070657273004D3834004175746F205ACA
:103010002D416C69676E004733340046616465205A
:10302000486569676874004F6666004F6E004265C8
:1030300064204C6576656C696E67004C6576656CDE
:1030400020426564004732394E004175746F2D503F
:1030500061726B00473238204F0A473237004732DF
:10306000385A004732385900486F6D652040004794
:10307000323858004175746F20486F6D65004732D3
:1030800038004D61696E204D656E7500507265683F
:103090006561742024204265640050726568656132
:1030A00074202420456E640054656D7065726174EF
:1030B00075726500436F6F6C646F776E0050726558
:1030C0006865617420240046616E205370656564F4
:1030D00000426564004E6F7A7A6C65004D61696EDE
:1030E000204D656E75004531005A00590058005951
:1030F0000058004531005A0059004F6666004F6E77
:10310000005800544D432044726976657273005331
:103110007465616C746843686F7020456E61626CA1
:103120006564005374657070696E67204D6F6465E7
:103130000053656E736F726C65737320486F6D69B1
:103140006E67004472697665722043757272656EAF
:103150007400416476616E636564205365747469BC
:103160006E67730050726F6265205A204F666673F7
:10317000657400416476616E6365204B00466C6F38
:1031800077726174650046616E20537065656400F6
:10319000426564004E6F7A7A6C65005370656564B1
:1031A000004D61696E204D656E75006F70656E0033
:1031B000545249474745524544003A200066696CDD
:1031C000616D656E74007A5F6D6178007A5F6D691C
:1031D0006E00795F6D617800785F6D696E00526591
:1031E000706F7274696E6720656E6473746F70209F
:1031F0007374617475730A00203A2073796E635F8B
:10320000706C616E5F706F736974696F6E0A002015
:103210002063757272656E745F706F736974696F25
:103220006E3D003E2000646F5F626C6F636B696E81
:10323000675F6D6F76655F746F00290A002C200050
:10324000646F5F626C6F636B696E675F6D6F7665ED
:103250005F746F5F7A2800290A002C20002C200060
:10326000646F5F626C6F636B696E675F6D6F7665CD
:103270005F746F5F78792800250A00200072656D01
:10328000656D6265725F66656564726174655F73C2
:1032900063616C696E675F6F66663A2066723D00B7
:1032A000250A002000726573746F72655F6665653C
:1032B00064726174655F616E645F7363616C696E93
:1032C000673A2066723D0020746F6F206C6F6E67E6
:1032D00020657874727573696F6E2070726576659B
:1032E0006E7465640A0020636F6C64206578747284
:1032F0007573696F6E2070726576656E7465640AA9
:1033000000290A003C3C3C207365745F6178697356
:103310005F69735F61745F686F6D652800203A2094
:103320000A00202063757272656E745F706F736936
:1033300074696F6E3D005D203D20003E20686F6D1A
:10334000655F6F66667365745B00000088C000008F
:10335000414300003743290A003E3E3E2073657416
:103360005F617869735F69735F61745F686F6D65D2
:1033700028005761726E696E673A20486F6D696EFA
:10338000672042756D702044697669736F72203CC6
:1033900020310A00010204290A003C3C3C20686FED
:1033A0006D65617869732800203A203E20414654BB
:1033B0004552207365745F617869735F69735F61FB
:1033C000745F686F6D650A00202063757272656EA8
:1033D000745F706F736974696F6E3D006D6D0A0084
:1033E00052652D62756D703A20006D6D0A004D6F4B
:1033F000766520417761793A20006D6D0A00486F4B
:103400006D6520466173743A20000000A040000002
:10341000A040000000406D6D0A0053656E736F722E
:103420006C657373206261636B6F66663A20002976
:103430000A003E3E3E20686F6D6561786973280022
:10344000206C696D6974656420746F2000204D6183
:1034500078200050726F62653A3A70726F62655FF1
:1034600073706563696669635F616374696F6E0039
:103470005261697365205A20746F2000206E6F5F5F
:1034800072657475726E3D006465706C6F793D0095
:10349000203A2050726F62653A3A7365745F6465D2
:1034A000706C6F7965640A00202063757272656EB6
:1034B000745F706F736974696F6E3D00206D617821
:1034C0003A00206D696E3A004178697320000080EF
:1034D00021430000414300003743000088C0000042
:1034E000A0C00000000053657474696E67732053B8
:1034F000617665642100290A002062797465733B56
:1035000020637263200053657474696E677320537F
:10351000746F726564202800455252004545505230
:103520004F4D20496E697469616C697A65640A005F
:1035300048617264636F6465642044656661756C9C
:10354000742053657474696E6773204C6F61646591
:10355000640020286D6D2900203B204C6576656C49
:10356000696E67200020204D3432302053004175B1
:10357000746F20426564204C6576656C696E6700E7
:1035800020460020480020204D3134352053004D86
:103590006174657269616C20686561747570207012
:1035A0006172616D657465727300526574726163F6
:1035B000742028533C6C656E6774683E20463C66F8
:1035C000656564726174653E205A3C6C6966743E40
:1035D00029005265636F7665722028533C6C656ED6
:1035E0006774683E20463C66656564726174653E3A
:1035F00029004175746F2D526574726163742028BF
:10360000533C656E61626C653E290020204D393067
:103610003600205430204500537465707065722068
:103620006472697665722063757272656E740020CB
:10363000204D393134005374616C6C47756172648C
:10364000207468726573686F6C640020204D353695
:10365000392053310054302045002058004472690D
:10366000766572207374657070696E67206D6F6423
:10367000650020204D393030204B004C696E65616B
:103680007220416476616E636500203B2053656E55
:10369000736F72200020204D343132205300466970
:1036A0006C616D656E742072756E6F7574207365D4
:1036B0006E736F7200204A00202047323920572055
:1036C000490020204D3134392043203B20556E697C
:1036D000747320696E2043656C736975730A0054B6
:1036E000656D706572617475726520556E6974736D
:1036F000002020473231203B004C696E656172200A
:10370000556E69747300454550524F4D2064617485
:103710006173697A65206572726F722E0A00457254
:10372000723A20454550524F4D20435243002028C5
:1037300063616C63756C6174656429210A002021E2
:103740003D2000454550524F4D20435243206D6966
:10375000736D61746368202D202873746F726564C3
:10376000292000454550524F4D20436F72727570AD
:10377000740A002053697A653A2000496E646578BE
:103780003A200053746F7265642073657474696EB7
:1037900067732072657472696576656400290A0032
:1037A0002062797465733B20637263200020737418
:1037B0006F7265642073657474696E6773207265D7
:1037C000747269657665642028000000FA43000081
:1037D000FA4300009643000020420000C842000067
:1037E000C842000048430000D243941100009411E5
:1037F00000006400000028230000204D61726C6905
:103800006E3D563931290A00454550524F4D2076BC
:10381000657273696F6E206D69736D617463682082
:1038200028454550524F4D3D0024F4D43050C38DAF
:1038300020C3A24117828B7011127A900D826CDA2C
:103840000AA861E108C7586607615142061F4B5E2E
:1038500005C145A6041B411204093D970372393185
:10386000034136DB0266339202D4305302812E1DAF
:1038700002642CEE01762AC501B128A1011027812E
:10388000018F2564012B244A01E1223401AD21205E
:10389000018D200C01811FFC00851EED00981DDFAD
:1038A00000B91CD200E71BC700201BBB00651AB281
:1038B00000B319A9000A19A0006A189800D217923B
:1038C0000040178A00B616840032167E00B41579BF
:1038D000003B157400C7146F0058146A00EE13669D
:1038E000008813620026135E00C8125B006D125739
:1038F0000016125500C111510070114E0022114CDA
:1039000000D61049008D10460047104500021042B5
:1039100000C00F4000800F3E00420F3C00060F3AEF
:1039200000CC0E3900930E37005C0E3500270E34A4
:1039300000F30D3200C10D3100900D2F00610D2FED
:1039400000320D2D00050D2C00D90C2A00AF0C2AD9
:1039500000850C28005D0C2800350C27000E0C2576
:1039600000E90B2500C40B2400A00B23007D0B22D3
:10397000005B0B21003A0B2100190B2000F90A1FF4
:1039800000DA0A1F00BB0A1E009D0A1D00800A1CE7
:1039900000640A1C00480A1C002C0A1B00110A1AA9
:1039A00000F7091A00DD091900C4091900AB09184C
:1039B00000930918007B091700640917004D0917C7
:1039C0000036091600200915000B091500F6081528
:1039D00000E1081500CC081400B8081400A408136E
:1039E00000910813007E0813006B0812005908129A
:1039F00000470812003508120023081100120811B0
:103A00000001081000F1071100E0071000D00710B6
:103A100000C0070F00B1071000A1070F0092070FA9
:103A20000083070F0074070E0066070E0058070E8C
:103A3000004A070E003C070E002E070D0021070D5F
:103A40000014070D0007070D00FA060D00ED060C27
:103A500000E1060D00D4060C00C8060C00BC060CE4
:103A600000B0060B00A5060C0099060B008E060B95
:103A70000083060B0078060B006D060B0062060B38
:103A80000057060A004D060A0043060B0038060AD6
:103A9000002E060A00240609001B060A0011060A69
:103AA0000007060900FE050A00F4050900EB0509F8
:103AB00000E2050900D9050900D0050900C705087D
:103AC00000BF050900B6050900AD050800A50508F9
:103AD000009D050800950509008C0508008405086F
:103AE000007C050700750508006D050800650507E1
:103AF000005E050800560507004F0508004705074A
:103B0000004005070039050700320507002B0507AF
:103B100000240507001D050700160507000F050610
:103B2000000905070002050600FC040700F504066D
:103B300000EF040700E8040600E2040600DC0406C7
:103B400000D6040600D0040700C9040500C404061A
:103B500000BE040600B8040600B2040600AC040669
:103B600000A6040500A10406009B040500960406B7
:103B700000900405008B0406008504050080040500
:103B8000007B04050076040600700405006B040544
:103B90000066040500610405005C04050057040587
:103BA00000520405004D04050048040400440405C7
:103BB000003F0405003A0404003604050031040502
:103BC000002C04040028040500230404001F04053D
:103BD000001A04040016040400120405000D040475
:103BE00000090404000504040001040500FC0304AA
:103BF00000F8030400F4030400F0030400EC0304E1
:103C000000E8030400E4030400E0030400DC030410
:103C100000D8030400D4030300D1030400CD03043F
:103C200000C9030400C503040000000000000000F8
:103C30000000000000000000000000000000000084
:103C400000D1036D6403570D0347C6023B8B02325C
:103C500059022B2E0225090221E8011CCC011AB2BF
:103C600001179B011487011374011163010F5401A3
:103C70000E46010D39010D2C010B21010A17010A15
:103C80000D0109040108FC0008F40007ED0007E637
:103C90000007DF0006D90006D30005CE0006C800E5
:103CA00005C30004BF0005BA0004B60004B2000456
:103CB000AE0004AA0004A60003A300049F00039C16
:103CC00000039900039600039300029100038E0005
:103CD000028C000389000287000384000282000234
:103CE0008000027E00027C00027A000278000276E8
:103CF00000017500027300027100017000026E0085
:103D0000016D00026B00016A000268000167000299
:103D10006500016400016300016200026000015F50
:103D200000015E00015D00015C00015B00015A00C2
:103D300001590001580001570001560001550001CA
:103D40005400015300015200015100005100015084
:103D500000014F00014E00014D00004D00014C00DC
:103D6000014B00014A00004A0001490001480000DF
:103D7000480001470001460000460001450000459B
:103D800000014400014300004300014200004200E2
:103D9000014100004100014000004000013F0000DF
:103DA0003F00013E00003E00013D00003D00013C9F
:103DB00000003C00013B00003B00013A00003A00DB
:103DC00001390000390000390001380000380001D5
:103DD000370000370000370001360000360000369B
:103DE00000013500003500013400003400003400CB
:103DF00001330000330000330001320000320000C4
:103E0000320001310000310000310000310001308A
:103E100000003000003000012F00002F00002F00B4
:103E2000002F00012E00002E00002E00012D0000AA
:103E30002D00002D00002D00012C00002C00002C76
:103E400000002C00012B00002B00002B00002B0099
:103E5000012A00002A00002A00002A00002A00018E
:103E6000290000290000290000290001280000285D
:103E7000000028000028000028000127000027007B
:103E80000027000027000027000126000026000070
:103E9000260000260000260000260001250000253F
:103EA0000000250000250000250000250001240059
:103EB000002400002400002400002400002400014D
:103EC0002300002300002300002300002300002320
:103ED0000001220000220000220000220000220037
:103EE000002200002200012100002100002100002A
:103EF00021000021000021000021000120000020FD
:103F00000000200000200000200000200000200011
:103F1000002000011F00001F00001F00001F000004
:103F20001F00001F00001F000020436F756E7420EB
:103F3000583A00554E4C4F41442046494C414D455E
:103F40004E54004C4F41442046494C414D454E543F
:103F50000046494C414D454E54204348414E47454B
:103F60000042656400456E636C6F73757265002076
:103F70000020002000200020002500657272001F34
:103F8000E0201020102010102010202010201030D1
:103F9000300840048003001FE03FF03FF03FF01F77
:103FA000E01FE03FF03FF03FF00FC0078003003F0D
:103FB000FFF83E00F839F03831E01831E01821E11F
:103FC000E820F3E8207FE82077E828EE282FDC08B7
:103FD0002FFC082F9E082F0F08300F18300F1838AD
:103FE0001F383E00F83FFFF83FFFF83E00F8383F2B
:103FF00038307E18307C18287C082C38082F39C8B7
:104000002FFFE82FC7E82FFFE82739E8203868207E
:104010007C28307C1830FC1839F8383E00F83FFF17
:10402000F83FFFF83E00F8380F38341FD8361F9895
:104030002F1F082F9E082FFC082FDC0827EFC82011
:1040400077E8207FE820F3E821F1E833F0D837F073
:104050005839E0383E00F83FFFF83FFFF83E80F85F
:104060003980383781D837C3D827C7E823C7F82124
:10407000FF88206C08206C08206C0823FF083FC7CD
:10408000882FC7C83787D83703D83803383E02F897
:104090003FFFF80222000444000444000222000111
:1040A0001100FFFFCE40A8A42111101FFFF8080443
:1040B0000424020273FFFFFFFFCE402024201010D3
:1040C0001FFFF808040424020273FFFFFFFFC04033
:1040D000002020001010000808000404000203FF64
:1040E000FF022200044400044400022200011100E7
:1040F000FFFFC04088A0211110122208080004040C
:10410000000203FFFF63616E63656C005072696EAD
:10411000742041626F727465640055492041626F7A
:1041200072746564004D323520500A4D32340052AD
:104130006573756D65005549205061757365005054
:10414000617573696E672E2E2E00726573756D65CD
:10415000004D3234006F6F6F00000047414D452025
:104160004F56455200107CFEFEFE44402480000065
:10417000318000002480444004000E000E007FC007
:10418000FFE0FFE0FFE0FFE01FC07FF0DDD8FFF8B9
:104190007FF006000F001F8036C03FC00900168068
:1041A000294006000F001F8036C03FC01680204007
:1041B0001080104008801FC037607FF05FD05050E3
:1041C0000D80104048905FD077707FF01FC0104086
:1041D00020200F007FE0FFF0E670FFF0198036C06E
:1041E000C0300F007FE0FFF0E670FFF0198036C0AE
:1041F000198000FE0003FF8007C7C00701E0000030
:10420000E00000F00000700400700E00701F0070ED
:104210003F80F00E00E00F01E007C7C003FF800001
:10422000FE0000FE0003FF8007C7C00F01E00E0084
:10423000E03F80F01F00700E0070040070000070FE
:104240000000F00000E00701E007C7C003FF8000A6
:10425000FE000E000E000E000E000E000E000E00FE
:104260000E007FC03F801F000E00040004000E00FF
:104270001F003F807FC00E000E000E000E000E00DB
:104280000E000E000E00FFFFFF7F80FFC0FFC0FF8B
:10429000C07F807F80FFC0FFC0FFC03F001E000CBA
:1042A0000050726F6265205A204F66667365740015
:1042B0004D3530300A4D313137205A204F66667304
:1042C0006574205361766564004C6F6164206D6D88
:1042D00000556E6C6F6164206D6D0046696C2E2018
:1042E0004469612E004F6666004F6E004520696E7E
:1042F000206D6D5E3300416476616E6365204B0016
:104300004D33303320553120452569205325690030
:104310004175746F74756E65202A205049440050B1
:1043200049442D44202A005049442D49202A005058
:1043300049442D50202A0020082046616374002043
:1043400008204D6178002008204D696E004D696E8F
:104350002054726176656C205370656564004D6908
:104360006E2056656C6F63697479004D61782040EA
:10437000205370656564004D61782045204163637A
:10438000656C004D6178204020416363656C00548A
:10439000726176656C20416363656C00526574726E
:1043A00061637420416363656C00416363656C0005
:1043B0004D61782040204A65726B004D3530300ADF
:1043C0004D313137205A204F666673657420536132
:1043D0007665640050726F6265205A204F6666737E
:1043E000657400402073746570732F6D6D004164B7
:1043F00076616E6365642053657474696E677300DB
:104400003F0043616E63656C00496E6974004D3412
:10441000323800496E697469616C697A6520454576
:1044200050524F4D0046696C616D656E7400546565
:104430006D706572617475726500544D43204472ED
:1044400069766572730053746570732F6D6D0050DB
:10445000726F6265204F666673657473004A657299
:104460006B00416363656C65726174696F6E004DCA
:10447000617820537065656420286D6D2F73290065
:1044800053657420486F6D65204F6666736574735D
:1044900000436F6E66696775726174696F6E003F85
:1044A0000043616E63656C204F626A656374004E01
:1044B0004F005945530043616E63656C204F626A3B
:1044C000656374207B004D61696E204D656E7500DB
:1044D0004265642049646C652054656D70004E6FC0
:1044E0007A7A6C652049646C652054656D7000545F
:1044F000656D70657261747572650054696D656F84
:1045000075740044697361626C652054696D656FF0
:104510007574004D3837004261636B0049646C6507
:1045200020506572696F6400416374697665205339
:1045300070656564004175746F204D6F6465004956
:10454000646C6520537065656400556E72657472A5
:10455000616374205600556E726574722E206D6D05
:1045600000486F70206D6D00526574726163742035
:10457000560052657472616374206D6D00417574EC
:104580006F2D5265747261637400426564004E6FF2
:104590007A7A6C650046616E2053706565640043ED
:1045A0006F6E66696775726174696F6E00526573CC
:1045B000746F72652044656661756C7473004C6F2E
:1045C00061642053657474696E67730053746F720D
:1045D000652053657474696E677300507265686511
:1045E0006174202420436F6E6600506F77657220DF
:1045F0004F7574616765004F6666004F6E005275B7
:104600006E6F75742053656E736F720052657472AD
:1046100061637400486F74656E642049646C652042
:1046200054696D656F757400436F6E74726F6C6C56
:1046300065722046616E0050726F6265205A204F8D
:10464000666673657400416476616E6365642053C9
:10465000657474696E6773004D61696E204D656E97
:1046600075004D37303220542564004D36303020EF
:10467000423020542564004D373032203B25640001
:104680004D37303120542564004D373032004D37DE
:104690003031004D363030204230004D61696E209F
:1046A0004D656E7500436F6E74696E7565004F667B
:1046B00066004F6E0052756E6F75742053656E7391
:1046C0006F72005075726765206D6F72650052459C
:1046D00053554D45204F5054494F4E533A00505278
:1046E000494E5420504155534544002F002000208E
:1046F000204E6F7A7A6C653A20004265640045313D
:1047000000626564002C2073797374656D20737486
:104710006F7070656421204865617465725F4944FB
:104720003A20004572723A204D415854454D500090
:104730004D415854454D50207472696767657265E4
:10474000640048656174696E67204661696C6564E0
:104750000048656174696E67206661696C65640014
:104760004D353234004D3131322053687574646FE9
:10477000776E001000AD0330016A0150022B01700A
:10478000030A019004F500B005E500D006D800F05A
:1047900007CE001009C500300ABE00500BB70070EC
:1047A0000CB100900DAB00B00EA600D00FA200F02F
:1047B000109D001012990030139500501492007053
:1047C000158E0090168B00B0178700D0188400F06B
:1047D000198100101B7E00301C7B00501D79007079
:1047E0001E7600901F7300B0207000D0216E00F084
:1047F000226B00102469003025660050266300708B
:1048000027610090285E00B0295C00D02A5900F092
:104810002B5600102D5400302E5100502F4E00709A
:10482000304B0090314800B0324500D0334200F0A8
:10483000343E0010363B00303737005038330070BC
:10484000392E00903A2900B03B2300D03C1B00F0E9
:104850003D1100103F0100F03F00004572723A2008
:104860004D494E54454D50004D494E54454D5020F4
:1048700074726967676572656400544845524D41BA
:104880004C2052554E4157415900546865726D6134
:104890006C2052756E6177617900202F0020403ABC
:1048A0000020573A007C3C3E5E2B3D3F2F5B5D3B3A
:1048B0002C2A225C0043616E6E6F74206F70656EEF
:1048C0002073756264697220005761726E696E6749
:1048D0003A004D6564696120496E697420466169DA
:1048E0006C0053442063617264206F6B0A006F7028
:1048F000656E526F6F74206661696C65640A00763C
:104900006F6C756D652E696E6974206661696C6582
:10491000640A004E6F20534420636172640A00539E
:104920004420636172642072656C65617365640A1A
:10493000000A4D3234004D3233202573002E0A0018
:104940006F70656E206661696C65642C2046696CC9
:10495000653A200046696C652073656C6563746513
:10496000640A002053697A653A200046696C652024
:104970006F70656E65643A2000454E442053554281
:10498000524F5554494E450A002220706F73002241
:1049900020706172656E743A2200535542524F5531
:1049A00054494E452043414C4C20746172676574F4
:1049B0003A220053756263616C6C204F76657266B3
:1049C0006C6F77004578636565646564206D617818
:1049D00020535542524F5554494E452064657074DA
:1049E000683A002E0A0044656C6574696F6E206633
:1049F00061696C65642C2046696C653A20004669E3
:104A00006C652064656C657465643A004E6F742053
:104A10005344207072696E74696E670A00534420B3
:104A20007072696E74696E672062797465200057D0
:104A3000726974696E6720746F2066696C653A20CC
:104A400000667265736800646F696E67002066694E
:104A50006C653A20004E6F7720002F6175746F25CA
:104A6000632E6700000020002300260029002C0090
:104A70002F003200000100000301060109010000BF
:104A80000000000000000000000000000000000026
:104A90000000000000000000000000000000000016
:104AA000000C000000000000000C000000000000EE
:104AB00000120000000000000023000000000000C1
:104AC0000021000000000000004C800000000000F9
:104AD000005E800000000000009240000000000026
:104AE00000A14000000000000121200000000000A3
:104AF000027F900000000000020010000000000093
:104B000007FFF8000000000004000800000000009B
:104B1000080004000000000008000600000000007B
:104B20001000020000000000301E01000000000024
:104B3000207F81000000000041FFE08000000000B5
:104B400043FCF08000000000873B7840000000013B
:104B50008EDBFC60000000010FEBCC2000000002A7
:104B60001FEDB610000000021FDEB61000000004AA
:104B700039CD7F080000000436E0FF08000000087F
:104B80007EC0BB84000000187F005D86000000101E
:104B90007FC0ED82000000203CC0730100000020B7
:104BA0003B337F01000000701BE77E03800000C8DC
:104BB0001DEEDE04C00000880FDEDC04400001248E
:104BC0000FDF3C092000012607DBF81920000272E4
:104BD00003E7F0139000025101FFE02290000489E6
:104BE000007F802448000904801E004824000BFE3A
:104BF000400000DFF40010004000008002001FFFB2
:104C0000FFFFFFFFFE0000000000000000000000AA
:104C10000000000000000000000000000000102262
:104C2000103C3C0E1F001022100422110400102220
:104C3000100822110400102210083C110400102258
:104C400010102211040010221020221104001E1C3A
:104C50001E3C3C0E040000000000000000000000AC
:104C60000000000000000000000000000000000044
:104C70000000000000000000000000000000000034
:104C80000000000000000000000000000000000024
:104C90000000000000000000000000000000000014
:104CA0000000000000000000000000000000000004
:104CB0000000000000000000000000002020506CF8
:104CC000616E6E657242756666657242797465736F
:104CD0003A20002046726565204D656D6F72793A05
:104CE000200020436F6D70696C65643A20417072DA
:104CF00020203420323032340A00204C617374207A
:104D0000557064617465643A20323032342D30312C
:104D10002D3137207C20417574686F723A204C75B4
:104D20006C7A626F740A004D61726C696E20322E6B
:104D3000312E332E302E32370A0020536F667477AF
:104D40006172652052657365740A0020576174634F
:104D500068646F672052657365740A002042726F41
:104D6000776E206F75742052657365740A00204554
:104D7000787465726E616C2052657365740A0050B8
:104D80006F77657255700A0073746172740A004718
:104D900030205A28313833202B2030294632353004
:104DA000300A4732370A4D3532340A4D313034201B
:104DB0005330004D31303031006572726F722077A0
:104DC000726974696E6720746F2066696C650A0089
:104DD000446F6E6520736176696E672066696C65E5
:104DE0002E0A004D323900456E6473746F70730083
:104DF000255320256320256320256320256300207B
:104E00005A3A0020593A0020583A00656E6473748B
:104E10006F7073206869743A2000436F6C6420508F
:104E2000756C6C005450550041425300504C410089
:104E300020583A001000C90210012C014001220143
:104E400070011801B0010E01F00104015002FA00D6
:104E5000B002F0003003E600D003DC009004D20082
:104E60007005C800A006BE000008B400B009AA0082
:104E7000D00BA000600E960060118C00001582001F
:104E800020197800C01D6E00A0226400B0275A00CF
:104E9000902C500000314600E0343C0010383200C5
:104EA000903A2800603C1E00A03D1400803E0A009D
:104EB000203F000000002100240027002A002D00D0
:104EC0003000330001010000040107010A01000065
:104ED0002200250028002B002E00310034000201A2
:104EE0000000050108010B01050505050705080877
:104EF0000808020202020A0A080804040404010164
:104F00000101010101010303030303030303040778
:104F100007070C0C0C0C0C0C0C0C0202020206060F
:104F20000606060606060B0B0B0B0B0B0B0B010202
:104F300010202008081020401020408002010201AB
:104F40000804020101020408102040808040201063
:104F500008040201800402018040201008040201BC
:104F60000804020101020408102040800102040824
:104F70001020408000000A0B02090C0D0E080703E8
:104F8000040100000000000000000000000000001C
:104F90000000000000000000000000000000000011
:104FA00012111000000000000000000000000000CE
:104FB00000000000000000000000302E30323500FC
:104FC000302E3100312E30004D6F766520246D6D0E
:104FD0000031300000C02543000046430000374345
:104FE0004D6F76652041786973004D6F7665202A94
:104FF000004D6F76652040002C4E284E244E1A4EF0
:105000004368616E67652046696C616D656E74000A
:10501000556E6C6F61642046696C616D656E7400DD
:105020004C6F61642046696C616D656E74005072EE
:10503000656865617420437573746F6D00507265A7
:10504000686561742024004261636B002000536531
:105050006C6563742066726F6D204D6564696100D4
:105060002000200020746F6F206C6F6E67206578C1
:1050700074727573696F6E2070726576656E746593
:10508000640A0020636F6C642065787472757369BC
:105090006F6E2070726576656E7465640A0070725A
:1050A0006F6D70745F00626567696E00446973615B
:1050B000626C6552756E6F75740050757267654DE0
:1050C0006F72650050617573656400436F6E74693B
:1050D0006E7565004C6F61642046696C616D656E2C
:1050E00074205400496E736572742066696C616D3A
:1050F000656E7420616E642073656E64204D31307E
:10510000380A002F2F616374696F6E3A00726573FD
:10511000756D6564004469736D69737300526573DE
:10512000756D696E6700290A005D2C200020746F80
:105130002000205B00646F5F7A5F636C6561726161
:105140006E636528002044697363726570616E63E5
:10515000793A00326E642050726F6265205A3A00CC
:10516000534C4F5700536C6F772050726F62653A03
:105170000A003173742050726F6265205A3A0046FB
:105180004153540050726F6265204C6F7720506F0E
:10519000696E743A200050726F62653A3A72756EA9
:1051A0005F7A5F70726F626500205A3A2000205962
:1051B0003A200042656420583A200050726F6269BC
:1051C0006E67204661696C65640020706F696E745B
:1051D0000A002D72656C6174697665004D6F7665A5
:1051E00020746F2070726F6265004E6F742052657C
:1051F00061636861626C650A00203A200A00202021
:1052000063757272656E745F706F736974696F6EC7
:105210003D005F72656C6174697665290A002C2017
:10522000002C20002C20002C20002E2E2E28005098
:10523000726F62653A3A70726F62655F61745F7037
:105240006F696E740050726F62653A3A70726F6285
:10525000655F646F776E5F746F5F7A006D6D290AAA
:1052600000547269676765726564206561726C7964
:10527000202861626F766520004E6F207472696726
:105280006765722E0A002050726F62652066616940
:105290006C21202D20002C202E2E2E290A002C20BF
:1052A000003E207472795F746F5F70726F62652860
:1052B0002E2E2E2C2000486F6D696E672046616986
:1052C0006C656400FF0101290A005D005B002C2071
:1052D000002C20002E2E2E2800646F5F686F6D69F1
:1052E0006E675F6D6F766500304E455341533D5399
:1052F000204500205A0020590020204D39322058E6
:105300000053746570732070657220756E69740047
:10531000220A00556E6B6E6F776E20636F6D6D6144
:105320006E643A2022002042002050006F6B00483B
:105330006F6D652025732046697273740020453AAD
:1053400000205A3A0020593A00583A006F6B0A0080
:10535000526573656E643A20004C756C7A426F74C6
:10536000204D696E6920322052656164792E0050AB
:1053700072696E74696E672E2E2E005072696E749B
:1053800020506175736564007F01D30111241FBE35
:10539000CFEFD1E2DEBFCDBF00E00CBF84B780937A
:1053A000AE1C14BE0FB6F894A89580916000886179
:1053B00080936000109260000FBE14E0A0E0B2E0A5
:1053C000E8E8FBE403E00BBF02C007900D92AE34A7
:1053D000B107D9F72CE1AEE4B4E001C01D92AE3ABA
:1053E000B207E1F719E2C5ECD9E200E006C0219767
:1053F0000109802FFE010F94A4A0C43CD10780E0D6
:105400000807A9F70F94E48B0D94B2A50C94000043
:1054100090E080E00895CF93DF93C091DD11D091AB
:10542000DE1181E0CE31D105E4F020E030E040E053
:105430005FE36091D9117091DA118091DB11909145
:10544000DC110F94C0A00F942CA26C1B7D0B77FF76
:1054500003C071956195710981E0633071050CF0AD
:1054600080E0DF91CF910895CF93DF93DB01F901C5
:105470009C919130C1F0943080F094509C9388308E
:10548000D1F480819181009771F00197918380839D
:10549000480F591FEA01188206C08C3539F49C5F09
:1054A0009C93943041F4DF91CF9108958B3339F779
:1054B00081E08C93F8CF20813181B9016F5F7F4FFC
:1054C00071836083420F531FEA0188838081918139
:1054D0008F3591056CF7E7CF0F931F9381E0009113
:1054E0008C1A10918D1A20918E1A30918F1A40913A
:1054F000881A5091891A60918A1A70918B1A041730
:1055000015072607370708F480E01F910F910895CB
:1055100090E080E008952091831A833021F425FDE6
:105520000CC024FD0CC030E0A90102C05595479580
:105530008A95E2F7CA018170089581E0089580E0BC
:10554000089580911C0684FD0BC080911E0687FD86
:1055500007C090911F06937081E019F480E00895D0
:1055600081E00895CF92DF92EF92FF92CF93DF9385
:1055700000D01F921F92CDB7DEB7DC01ED91FC91F8
:105580000084F185E02D1995C92EDD24EE24FF2439
:1055900069837A838B839C832D81C2FA20F9C1FAB7
:1055A00021F92D83D701C60188719927AA27BB2726
:1055B00021E0892B8A2B8B2B09F420E06D8120FBC5
:1055C00062F929813A814B815C8170E080E090E052
:1055D0000F900F900F900F900F90DF91CF91FF9051
:1055E000EF90DF90CF9008952FEB280F2A3108F02D
:1055F00047C0E22FF0E080911C0690911D06A0911B
:105600001E06B0911F0604C0B695A795979587957D
:105610002A95D2F780FD02C081700895EE5FF94FA0
:10562000E081EE2341F180913C0B90913D0BE80F1E
:10563000F92FF11D808190ED980F9A3030F08E3265
:1056400051F4818180538A3098F4F093F105E0930E
:10565000F00581E008958D3211F08B3249F481819B
:1056600090ED980F9A3088F38E3211F48281EACF50
:10567000F0E0E0E0EACF1092F1051092F005E9CFFA
:1056800080E008950E94F42A882341F081E020916F
:10569000F0053091F105232B09F480E00895109274
:1056A000B90985E08093A1050895EF92FF920F93C9
:1056B0001F93CF93DF93EC018B017A018A859B8541
:1056C0008617970731F0888199810F94BD371B8722
:1056D0000A87B701888199810F946A752E813F816D
:1056E000820F932F911D9F838E8390E080E0DF9146
:1056F000CF911F910F91FF90EF9008959F92AF92DD
:10570000BF92CF92DF92EF92FF920F931F93CF93AE
:10571000DF93EC018B01942EA52E8A859B8586173D
:10572000970731F0888199810F94BD371B870A87CD
:1057300088859985019649F5BC800A818E81080F7C
:10574000C880D980D6015596ED91FC91C601199576
:10575000B80EE92CFA2C10E0F70121917F012111FC
:1057600027C08E819F81810F911D9F838E8390E042
:1057700080E0DF91CF911F910F91FF90EF90DF902C
:10578000CF90BF90AF909F9008950E811F81692D9B
:105790007A2D888199810F946A75800F912F911DC0
:1057A000288539852817390738F681E090E0E1CF60
:1057B0004B2D602FC6010F941839080F180FCCCF4E
:1057C000DF92EF92FF920F931F93CF93DF93EC0141
:1057D000D62E1CAD0BAD7C0184E0E80EF11CE98DEA
:1057E000FA8DC7011995412F480F2D2D602FC70144
:1057F0000F9418399BAD890F8BAF81E090E0DF915A
:10580000CF911F910F91FF90EF90DF900895CF936C
:10581000DF93C091DD11D091DE11209729F16091C5
:10582000D9117091DA118091DB119091DC110F94F4
:105830002CA26E5F7F4F24976C177D07ACF470939A
:10584000C9076093C8070F94137E605A75418F4F44
:105850009F4F6093CA077093CB078093CC079093B8
:10586000CD07DF91CF9108951092CA071092CB0710
:105870001092CC071092CD07F4CFFC0101900020CC
:10588000E9F79F0121503109281B390B2F333105CE
:1058900040F4FC01E20FF31F60832E33310509F061
:1058A00011820895CF93DF93EC01FC010190002059
:1058B000E9F7CF0101978C1B9D0B8F33910540F4C5
:1058C00040E450E0481B590B8C0F9D1F0F940D991D
:1058D000CE01DF91CF910895EF92FF920F931F9326
:1058E000CF93DF93CDB7DEB72C970FB6F894DEBF1A
:1058F0000FBECDBF7C017F936F9385E194E09F93B2
:105900008F938E010F5F1F4F1F930F930F9482A5EC
:10591000B801C7010E94522C0F900F900F900F906A
:105920000F900F902C960FB6F894DEBF0FBECDBF30
:10593000DF91CF911F910F91FF90EF900895CF923B
:10594000DF92EF92FF920F931F93CF93DF9300D0DC
:1059500000D000D01F921F92CDB7DEB78C01D42E9D
:10596000C52E790143E350E00F94BE98CF92DF92A9
:1059700088E194E09F938F93CE0101966C019F93F1
:105980008F930F9482A5F80101900020E9F7CF01D1
:105990000197801B910B0F900F900F900F900F901D
:1059A0000F908233910548F443E350E0481B590BB4
:1059B000B601800F911F0F940D99F80101900020FE
:1059C000E9F7CF010197801B910B8233910548F4D1
:1059D00043E350E0481B590BB701800F911F0F9410
:1059E000BE982B960FB6F894DEBF0FBECDBFDF91E9
:1059F000CF911F910F91FF90EF90DF90CF9008957E
:105A0000AB01BC0140938C1A50938D1A60938E1A8F
:105A100070938F1A85EF9BE10D94AA41EF92FF924C
:105A20000F931F93CF93DF93CDB7DEB764970FB675
:105A3000F894DEBF0FBECDBF7C01FB016081718198
:105A4000828193818E010F5F1F4F248141E00F946B
:105A50003E94F70101900020E9F79F0121503109A0
:105A60002E193F092E31310550F44FE150E0421B11
:105A7000530BBC01C701820F931F0F940D99C701EF
:105A800064960FB6F894DEBF0FBECDBFDF91CF9105
:105A90001F910F91FF90EF900895EF92FF920F9357
:105AA0001F93CF93DF93CDB7DEB764970FB6F8940B
:105AB000DEBF0FBECDBF7C01FB01608171818281A1
:105AC00093818E010F5F1F4F248141E00F943E941C
:105AD000BC01C7010E94522C64960FB6F894DEBF39
