:100000000C940B2C0C944B2C0C944B2C0C944B2CD4
:100010000C944B2C0C944B2C0C944B2C0C944B2C84
:100020000C944B2C0D943A820D943A820D943A82A2
:100030000C944B2C0C944B2C0C944B2C0C944B2C64
:100040000C944B2C0C94D0AB0C944B2C0C944B2C50
:100050000C944B2C0D9429510C944B2C0D944B84E7
:100060000C944B2C0C94094D0C94D34C0C944B2CAD
:100070000C944B2C0C944B2C0C944B2C0C944B2C24
:100080000C944B2C0C944B2C0C944B2C0C944B2C14
:100090000C944B2C0C944B2C0C944B2C0C944B2C04
:1000A0000C944B2C0C944B2C0C944B2C0C944B2CF4
:1000B0000C944B2C0C944B2C0C944B2C0C944B2CE4
:1000C0000C944B2C0C944B2C0C944B2C0C944B2CD4
:1000D0000C944B2C0C944B2C0C944B2C0C944B2CC4
:1000E0000C944B2C084AD73B3BCE016E84BCBFFD21
:1000F000C12F3D6C74319ABD56833DDA3D00C77FF8
:1001000011BED9E4BB4C3E916BAAAABE0000008090
:100110003F07634236B79BD8A71A39685618AEBA5C
:10012000AB558C1D3CB7CC5763BD6DEDFD753EF6F0
:10013000177231BF000000803F05A84CCDB2D44EED
:10014000B93836A9020C50B9918688083CA6AAAAEB
:100150002ABE000000803F08000000BE9224491221
:100160003EABAAAA2ABECDCCCC4C3E00000080BE3D
:10017000ABAAAAAA3E00000000BF000000803F001A
:1001800000000000084178D3BB4387D1133D190E0E
:100190003CC3BD4282AD2B3E68EC8276BED98FE176
:1001A000A93E4C80EFFFBE01C4FF7F3F000000006E
:1001B00000000C9436D50C944D2C0D94EA1D0C9433
:1001C0000BA50C94502C0C945E430C947DA90C94BC
:1001D000C44D0D941C350C94A7AB0C9417EF0C94E4
:1001E0000A990D9464380C941C430C9486A60D94C3
:1001F00083350C9400990C944CF00D9444290D9483
:1002000016140C945BF40C94F32D0C9492C90C947A
:1002100010430C944AE00C9439A50D949F390D9429
:1002200054340D9446370C9450E00C94D0980D94AF
:10023000CC390D94E84D0C948AF30C94DEA60C9402
:10024000F9980C9484430C942CF50C9456E00C947F
:100250006DF70D94200F0C946AAB0D9495030C94DC
:100260008FAB0C9471FD0C940FAE0C9465F40C9450
:1002700066F00C94A3F10C9402A40C94D8D00D94C5
:1002800047380C94794D0C9405A50C94B7A40D94A3
:10029000BC820C94B0F50C94B14D0D9440360C9486
:1002A000A6430C949BAB0D94F92A0C94EAF10C94A0
:1002B0004A4D0C94C8F50D94BA1D0C944CA80C949E
:1002C000BEEF0C94ECF30D9488350D94BD350D9470
:1002D00095040C94F1F10D94F1050D94F52A0C940C
:1002E00037A80D9474820D9437290C943EFA0C941F
:1002F000B3A40C94E0EF0C94B1F30C9431A50D94DD
:1003000084150C942CEF0C94C5CC0C9441AA0C943D
:1003100094F00C9453E00D941E390C940BF70D944B
:1003200062390C94DF4D0D949B1F0C94D2D00C9429
:1003300087F20D949A820C94EEF10C9460E00D9487
:10034000A0350C94C4F50C94CC4D0C94EBD50C94C6
:10035000D74D0C9446A60C94F0980D948F820C9473
:10036000A94D0D94AE1D0D9493820C94F5FB0C9445
:100370009AEF0D94720D0C947DF00C94FAEF0C949E
:1003800014F00C9444E00C94DCA60C9495C90C94E5
:10039000E4F40D94D81D0C94ABAB0C94F3980C942E
:1003A00047A80D94C6820C94F6980C9496A90C94C8
:1003B000AADE0C9493AB0C94A8EF0C9429A50C9492
:1003C0009FAB0C94B5A90D948D350D9438260C94E3
:1003D000C6D70D943F350C94B54D0C94D2CA0C94ED
:1003E00082430C944DE00C94D5D00C9497AB0C94B4
:1003F0005C430D9482130C94AFAB0C94C0A40C948A
:1004000073A90C94A4430C94AD4D0C94CCF50C94AE
:1004100080430C949CF40C943A430C9448F00D9453
:10042000B41D0C942EF00C9449AA0D94C30C0C949A
:100430001CF40D94AF0A0C94F3D90D94CC1D0C94BC
:100440005DE00D9497820C94C6F50C94F7F10D9431
:100450001A120D9496350C945FDF0D9464340D944C
:10046000D5380C94D1A60D94FF8D0D94692D0C9464
:100470008CEF0D94AE820C947AF30D943F360C946D
:100480006EA90D94DE1D0C94C2F50D94EC280D940C
:100490000F080D94A0820D9440090D94591E0C94E0
:1004A00058EF0C94E4A60C9405990C9472EF0C94FC
:1004B00047E00D94A21D0C94A54D0C9431DB0C94D7
:1004C000C0F50C94A8430D94B2820D948B820C94C9
:1004D00060AB0C9478A90D949C1D0D94D21D0C94C6
:1004E000F4F10C9467ED0D9461350D94A81D0C94F6
:1004F000B8A60C9490A40C949A4D0D94961D0C944F
:100500006DA60C949FA60C94C4F60C9460430D94B5
:10051000A4820D94C3030D94EE340C94BA4D0C9444
:100520006EF50D9455340D94C01D0C94CAF50C94C1
:10053000E2F60D94C61D0C94C62D0D947A2D0C94E4
:100540001CF50C949BF30D94DA360C948BAB0C9445
:100550008DA40C9436E00C9447EF0C944CD30C947F
:10056000CC2D0D94B8820C94D2EF0D94381E0C94BF
:10057000A3AB0C94ED980D94E6340D9479820D9410
:10058000E41D0D949B950C948AA40C94A14D0D949C
:1005900093230C943C430D94AA820D94CA820C942C
:1005A00041E00D94C0820C9441A50D9421040D945A
:1005B00006350C9469A90C94A5F00D94F01D0D94CA
:1005C0007D390C9438FA0C94CEA90C94884D0C9477
:1005D00019AE0D9485380C94BF4D0D9448290D9497
:1005E000161B0D94973A0D9427344E414E494E49AF
:1005F0005459494E46CDCCCC3D0AD7233C17B7D1F0
:100600003877CC2B329595E6241FB14F0A00002095
:10061000410000C84200401C4620BCBE4CCA1B0E14
:100620005AAEC59D7400407A10F35A00A0724E185D
:10063000090010A5D4E80000E87648170000E40B94
:1006400054020000CA9A3B000000E1F5050000805A
:10065000969800000040420F000000A086010000B4
:1006600000102700000000E8030000000064000004
:100670000000000A00000000000100000000002C43
:1006800076D888DC674F0823DFC1DFAE59E1B1B708
:1006900096E5E3E453C63AE651997696E8E6C284D5
:1006A00026EB898C9B62ED407C6FFCEFBC9C9F40ED
:1006B000F2BAA56FA5F490055A2AF75C936B6CF912
:1006C000676DC11BFCE0E40D47FEF520E6B500D0E8
:1006D000ED902E0300943577050080841E080000FD
:1006E000204E0A000000C80C333333330F986E12CB
:1006F000831141EF8D2114893BE65516CFFEE6DBD1
:1007000018D1844B381BF77C1D901DA4BBE424201A
:100710003284725E228100C9F124ECA1E53D2744B8
:10072000455441494C00434F4D4D554E494341546A
:10073000494F4E0044525952554E004552524F5265
:100740005300494E464F004543484F004572726F73
:10075000722077726974696E6720746F2045455006
:10076000524F4D210A0053544F505045442E200003
:100770005072696E7465722073746F707065642056
:1007800064756520746F206572726F72732E2046D7
:10079000697820746865206572726F7220616E647A
:1007A00020757365204D39393920746F2072657357
:1007B000746172742E202854656D70657261747551
:1007C00072652069732072657365742E2053657499
:1007D0002069742061667465722072657374617239
:1007E00074696E67290A004E6F20436865636B73F6
:1007F000756D2077697468206C696E65206E756D03
:100800006265722C204C617374204C696E653A20CD
:10081000004E6F20436865636B73756D2077697454
:1008200068206C696E65206E756D6265722C204C57
:10083000617374204C696E653A2000636865636B70
:1008400073756D206D69736D617463682C204C61E4
:100850007374204C696E653A20004C696E65204EB9
:10086000756D626572206973206E6F74204C6173C0
:1008700074204C696E65204E756D6265722B312C4B
:10088000204C617374204C696E653A20004D313103
:10089000300053657269616C2073746174757320E4
:1008A0006D69736D617463680A00534420726561F9
:1008B00064206572726F720A00486F74656E6420FE
:1008C00049646C652054696D656F757400486F7478
:1008D000656E642049646C652054696D656F75743C
:1008E0000A004265642049646C652054696D656F37
:1008F0007574004265642049646C652054696D65B7
:100900006F75740A006D4129002064726976657202
:10091000206F76657274656D70657261747572654D
:10092000207761726E696E67212028003A200020CE
:1009300063757272656E7420646563726561736558
:100940006420746F20006D4129002064726976650F
:1009500072206F76657274656D7065726174757200
:1009600065207761726E696E67212028003A200049
:100970002063757272656E7420646563726561735D
:10098000656420746F20006D4129002064726976CF
:100990006572206F76657274656D706572617475CD
:1009A0007265207761726E696E67212028003A2097
:1009B000002063757272656E742064656372656190
:1009C00073656420746F20006D4129002064726992
:1009D000766572206F76657274656D70657261748C
:1009E000757265207761726E696E67212028003A02
:1009F00020004B494C4C20627574746F6E2F7069E7
:100A00006E0A002121204B494C4C206361757365AF
:100A1000642062792000746F6F206D7563682069AF
:100A20006E6163746976652074696D65202D20633D
:100A3000757272656E7420636F6D6D616E643A20BD
:100A4000002121204B494C4C206361757365642063
:100A5000627920007061757365004D313235002078
:100A600066696C616D656E745F72756E6F7574200A
:100A70000066696C616D656E745F72756E6F75741A
:100A800020540046696C616D656E7452756E6F75A9
:100A9000742054004D656469612052656D6F766500
:100AA00064004D6564696120496E736572746564A4
:100AB00000627573793A2070617573656420666FA2
:100AC0007220696E7075740A00627573793A2070CD
:100AD000617573656420666F7220757365720A00B4
:100AE000627573793A2070726F63657373696E67AC
:100AF0000A00506C6561736520526573657400501F
:100B000052494E5445522048414C544544002553C7
:100B10003A20255300706F7765726F6666004B4907
:100B20004C4C45442E20005072696E7465722068EA
:100B3000616C7465642E206B696C6C28292063617C
:100B40006C6C6564210A006563686F3A00457272D7
:100B50006F723A0066616C7365007472756500208F
:100B60002864697361626C6564290A0041424C2003
:100B700041646A7573746D656E74205A002028652F
:100B80006E61626C6564290A0041626F766500538C
:100B9000616D65205A2061730042656C6F7700417A
:100BA00075746F20426564204C6576656C696E676C
:100BB0003A2042494C494E45415200204E6F7A7AC4
:100BC0006C65290A0020280050726F6265204F660C
:100BD00066736574205830205930205A0050726F67
:100BE00062653A204E4F5A5A4C455F41535F50520E
:100BF0004F42450A004D616368696E652054797003
:100C0000653A2043617274657369616E0A004269D6
:100C10006C696E656172204C6576656C696E6720E3
:100C2000477269643A0A003E3E3E003C3C3C007319
:100C300065745F6265645F6C6576656C696E675F3D
:100C4000656E61626C65640072657365745F626590
:100C5000645F6C6576656C0A00203A204C657665A9
:100C60006C696E67204F4E0A0020206375727265B2
:100C70006E745F706F736974696F6E3D00203A2007
:100C80004C6576656C696E67204F46460A002020E9
:100C900063757272656E745F706F736974696F6E7D
:100CA0003D005072696E74696E67204F626A6563B9
:100CB000740020460020570020204D32303720534A
:100CC0000020460020570020204D323038205300AD
:100CD00020204D3230392053006E6F74696669638D
:100CE0006174696F6E20006E6F7469666963617408
:100CF000696F6E2000656E640073686F77006275BF
:100D000074746F6E0053656E64204D3130382074FA
:100D10006F20726573756D650A00496E7365727434
:100D20002066696C616D656E7420616E6420736508
:100D30006E64204D3130380A005265686561742058
:100D4000446F6E6500526568656174696E672E2E2A
:100D50002E00526568656174004865617465722093
:100D600054696D656F75740053656E64204D313044
:100D70003820746F2068656174206E6F7A7A6C65B4
:100D80000A00486F74656E6420746F6F20636F6C27
:100D9000640A00706175736564004865616420636E
:100DA000616E6E6F74206265207061726B656400A5
:100DB0005061757365002568753A25303268750095
:100DC00025303268753A2530326875002530326832
:100DD0007527253032687500256875642025303206
:100DE00068753A25303268750044726976657220FC
:100DF0006572726F7200636F696C2073686F7274D2
:100E000020636972637569740A006F766572746530
:100E10006D70657261747572650A0020647269761E
:100E20006572206572726F722064657465637465A3
:100E3000643A203078004C4F570048494748004FEB
:100E40004B004572726F723A20416C6C2000206337
:100E50006F6E6E656374696F6E2E2E2E2000546562
:100E60007374696E6720004C4F570048494748002B
:100E70004F4B004572726F723A20416C6C2000201B
:100E8000636F6E6E656374696F6E2E2E2E20005434
:100E9000657374696E6720004C4F57004849474896
:100EA000004F4B004572726F723A20416C6C20000B
:100EB00020636F6E6E656374696F6E2E2E2E200038
:100EC00054657374696E6720004C4F57004849475A
:100ED00048004F4B004572726F723A20416C6C2093
:100EE0000020636F6E6E656374696F6E2E2E2E2008
:100EF0000054657374696E672000544D4320434F5E
:100F00004E4E454354494F4E204552524F52004297
:100F10006564204C6576656C696E67200046616982
:100F20006C656420746F20656E61626C652042653B
:100F300064204C6576656C696E670A00496E76615F
:100F40006C6964206D6573682E0A006D6F76655F4D
:100F50007A5F61667465725F70726F62696E670056
:100F6000203A203E2070726F62696E6720636F6D59
:100F7000706C6574650A00202063757272656E740A
:100F80005F706F736974696F6E3D0050726F626954
:100F90006E6720506F696E740025532025692F25D8
:100FA00069002E0A002F0050726F62696E67206D13
:100FB00065736820706F696E742000202844525950
:100FC00052554E2900473239204175746F204265D1
:100FD00064204C6576656C696E67003F20284C2C58
:100FE000522C462C4229206F7574206F6620626F48
:100FF000756E64732E0A00204200204600205200C5
:10100000473239204C003F2856296572626F73655C
:10101000206C6576656C20696D706C6175736962B2
:101020006C652028302D34292E0A00426164205A34
:101030002076616C75650A004E6F2062696C696E7E
:1010400065617220677269640A004732384C30006B
:101050003E204175746F2D6C6576656C206E6F74E3
:10106000206E65656465642C20736B69700A0047A7
:101070003239005261697365205A206265666F7269
:101080006520686F6D696E673A0A005230203D2016
:101090004E6F205A2072616973650A003E20686FA6
:1010A0006D696E67206E6F74206E65656465642C73
:1010B00020736B69700A00473238002044002020FA
:1010C0004D323030205300202844697361626C65D2
:1010D00064293A0046696C616D656E7420736574AD
:1010E00074696E67730020204D3230312058004DF6
:1010F000617820416363656C65726174696F6E200D
:1011000028756E6974732F7332290020204D323098
:10111000332058004D61782066656564726174659E
:10112000732028756E6974732F7329002052002074
:10113000204D323034205000416363656C6572612C
:1011400074696F6E2028756E6974732F733229204D
:1011500028503C7072696E742D616363656C3E202B
:10116000523C726574726163742D616363656C3E99
:1011700020543C74726176656C2D616363656C3ECE
:10118000290020540020530020204D3230352042C9
:1011900000416476616E6365642028423C6D696E2F
:1011A0005F7365676D656E745F74696D655F757398
:1011B0003E20533C6D696E5F66656564726174655F
:1011C0003E20543C6D696E5F74726176656C5F663B
:1011D000656564726174653E20583C6D61785F6A34
:1011E00065726B3E20593C6D61785F6A65726B3E3B
:1011F000205A3C6D61785F6A65726B3E20453C6D9C
:1012000061785F6A65726B3E2900204400204900C6
:1012100020204D3330342050004265642050494432
:10122000002E0A002028302D313029002076616CF4
:101230007565206F7574206F662072616E6765003A
:10124000416476616E6365204B3D005761726E6943
:101250006E673A20436C65616E20436972636C650A
:101260002072657175697265732058590A0057615B
:10127000726E696E673A20526164697573204F75AA
:1012800074206F662052616E67650A004E6F7A7A2D
:101290006C6520746F6F20636F6C64202D20536B1E
:1012A000697070696E6720776970650A0047323827
:1012B0004F0A4D31313720576970696E67206E6F64
:1012C0007A7A6C650A4731205831313520593138E6
:1012D00030205A31302046343030305C6E47312077
:1012E0005A2D310A4D3131340A47312058313135C8
:1012F000200A473120583435200A473120583131EF
:1013000035200A473120583435200A4731205831DA
:101310003135200A473120583435200A47312058CA
:10132000313135200A473120583435200A473120E1
:1013300058313135200A473120583435200A473199
:101340002058313135200A473120583435200A479A
:1013500031205A31350A4D3430300A4D3131372081
:101360005769706520436F6D706C65746500252941
:101370000A00252000203B202800204400204100B6
:1013800020490020204D373130205300436F6E74C8
:10139000726F6C6C65722046616E004E6F7A7A6C6B
:1013A0006520746F6F20436F6C640A00556E6B6E1E
:1013B0006F776E2046696C616D656E742050757232
:1013C0006765205061747465726E0A00556E6B6EAD
:1013D0006F776E2046696C616D656E742050757212
:1013E0006765205061747465726E0A00556E6B6E8D
:1013F0006F776E2046696C616D656E7420507572F2
:101400006765205061747465726E0A00556E6B6E6C
:101410006F776E2046696C616D656E7420507572D1
:101420006765205061747465726E0A004D31313702
:101430002050757267696E6720504C412E2E2E0A1F
:101440004739310A4D38330A473120593130204568
:10145000302E38350A4731205831302045302E386B
:10146000350A4731205931302045302E38350A476A
:101470003120582D31302045302E38350A47312063
:101480005931302045302E38350A47312058313017
:101490002045302E38350A4731205931302045302B
:1014A0002E38350A473120582D31302045302E381E
:1014B000350A4731205931302045302E38350A471A
:1014C00031205831302045302E38350A47312059E7
:1014D00031302045302E38350A473120582D3130F3
:1014E0002045302E38350A473120593130204530DB
:1014F0002E38350A4731205831302045302E3835C6
:101500000A4731205931302045302E38350A4731CD
:1015100020582D31302045302E38350A473120599A
:1015200031302045302E38350A47312058313020AF
:1015300045302E38350A4731205931302045302E7C
:1015400038350A4739300A4D3832004D31313720AD
:1015500050757267696E6720504554672E2E2E0AAB
:101560004739310A4D38330A473120593130204547
:10157000312E310A47312059323020583130204540
:10158000322E320A4731582D31302045312E310A62
:10159000473120593230205831302045322E320A1E
:1015A0004731582D31302045312E310A47312059ED
:1015B0003230205831302045322E320A4731582DF2
:1015C00031302045312E310A4731205932302058F0
:1015D00031302045322E320A4739300A4D38320038
:1015E0004D3131372050757267696E672054505500
:1015F0002E2E2E0A4739310A4D38330A47312058EA
:101600003130205931302045312E370A47312058AA
:101610002D3130205931302045312E370A473120C5
:10162000583130205931302045312E370A4731208A
:10163000582D3130205931302045312E370A47316D
:1016400020583130205931302045312E370A47316A
:1016500020582D3130205931302045312E370A475E
:101660003120583130205931302045312E370A474A
:101670003120582D3130205931302045312E370A54
:10168000473120583130205931302045312E370A2A
:101690004739300A4D3832004D313137205075729C
:1016A00067696E67204142532E2E2E0A4739310A50
:1016B0004D38330A4731205931302045312E370A11
:1016C000473120593130205831302045312E370AEA
:1016D0004731205931302045312E370A47312059C2
:1016E000313020582D31302045312E370A473120F6
:1016F0005931302045312E370A47312059313020B9
:101700005831302045312E370A47312059313020A9
:1017100045312E370A47312059313020582D31308C
:101720002045312E370A4731205931302045312E9E
:10173000370A473120593130205831302045312E79
:10174000370A4739300A4D3832004D313137205091
:10175000757267696E672E2E2E0A4739310A4D3829
:10176000330A47312059313030204531320A473968
:10177000300A4D383200203B0020550020204D36E5
:101780003033204C0046696C616D656E74206C6F5F
:1017900061642F756E6C6F61640073707265616453
:1017A0004379636C6500737465616C746843686F3A
:1017B000700020647269766572206D6F64653A0905
:1017C000007370726561644379636C65007374655E
:1017D000616C746843686F7000206472697665722A
:1017E000206D6F64653A09007370726561644379B6
:1017F000636C6500737465616C746843686F700036
:1018000020647269766572206D6F64653A090073B1
:1018100070726561644379636C6500737465616CB3
:10182000746843686F700020647269766572206D19
:101830006F64653A0900202E68737472743A200050
:10184000202E68656E643A20002063686F707065B2
:1018500072202E746F66663A2000202E68737472B0
:10186000743A2000202E68656E643A200020636878
:101870006F70706572202E746F66663A2000202E9D
:1018800068737472743A2000202E68656E643A2082
:10189000002063686F70706572202E746F66663A00
:1018A0002000202E68737472743A2000202E686520
:1018B0006E643A20002063686F70706572202E7429
:1018C0006F66663A20003F53206F7574206F662064
:1018D00072616E67652028312E2E38290A003F502C
:1018E000206F7574206F662072616E676520282DE9
:1018F000332E2E3132290A003F4F206F7574206F2E
:10190000662072616E67652028312E2E3135290AD6
:10191000003B2000536C6565702E2E2E0070726F98
:1019200062655F726577697065004D3130342053B0
:101930003137300A4732380A4730205A3520463688
:101940003030300A47302058313530204639393967
:10195000390A4739310A4D3231312053300A4D347A
:1019600030300A4D393036205A3630300A47302070
:101970005A2D313520463530300A4730205A35202F
:10198000463530300A4D3430300A4739300A4D3947
:101990003036205A3936300A4D3231312053310A2F
:1019A000473238205A300A4732380A4731320A4D16
:1019B00031303920523136300A4D3430300A4D3111
:1019C00031372050726F62696E672062656400472C
:1019D0003239205265747279696E670070726F6275
:1019E000655F6661696C65640050726F62696E67FD
:1019F000204661696C6564004D3131372042656471
:101A0000206C6576656C696E67206661696C6564DB
:101A10002E0A4730205A31300A47302045300A4DCF
:101A20003330302050323520533838300A4D33307F
:101A300030205035302053300A4D33303020503272
:101A40003520533838300A4D33303020503530206F
:101A500053300A4D3330302050323520533838302F
:101A60000A473420533100004732380052756E6EF9
:101A7000696E6720506F737420436F6D6D616E6483
:101A8000730A005A204261636B6F66660A005265F2
:101A900073746F72652043757272656E740A0046C6
:101AA000696E616C205A204D6F76650A005265643C
:101AB0007563696E672043757272656E740A0053B0
:101AC000657474696E67205A20506F756E63650A7D
:101AD000005061726B696E672058590A004D65733A
:101AE0006820706F696E74206F7574206F66207245
:101AF000616E67650A004E6F204D6F76652E00455A
:101B00006E642066696C65206C6973740A004265B6
:101B100067696E2066696C65206C6973740A004E93
:101B20006F206D656469610A00526573756D696E39
:101B30006720534400286E6F2066696C6529004356
:101B4000757272656E742066696C653A20002E0AA3
:101B50000044656C6574696F6E206661696C6564CC
:101B60002C2046696C653A200046696C65206465E6
:101B70006C657465643A005072696E742074696DA6
:101B8000653A20006F6B004C696E653A20006F6605
:101B90006600470742073B07340726071F074445EF
:101BA0004255473A004D3131332053004C756C7A21
:101BB000426F74204D696E692032204F46462E00D8
:101BC00020732E0A00496E61637469766974792006
:101BD00074696D656F75742000432E0A003F496477
:101BE0006C652054696D656F7574202854292074C4
:101BF0007269676765722074656D7065726174756E
:101C000072652073686F756C64206265206F7665FD
:101C10007220002F2F004D31343520533C696E6403
:101C200065783E206F7574206F662072616E6765FF
:101C30002028302D31290A00416363656C6572618B
:101C400074696F6E00466565647261746500574122
:101C5000524E494E4721204C6F77205A204A6572D8
:101C60006B206D6179206C65616420746F20756EE6
:101C700077616E746564207061757365732E0A00F8
:101C800020204D61783A2000200020204D696E3AD6
:101C90002000203B200020204D32313120530053C2
:101CA0006F667420656E6473746F707300250A002C
:101CB00046523A0020466C6F773A200050726F62AD
:101CC00065204F6666736574205A0050726F6265B6
:101CD000204F6666736574205A0064697300656EF0
:101CE0000043290061626C656420286D696E207470
:101CF000656D702000436F6C642065787472756444
:101D000065732061726520004F4646004F4E0020EB
:101D10003B20486F73742068616E646C696E672045
:101D20000046696C616D656E742072756E6F7574B6
:101D300020004D34323120696E636F7272656374B6
:101D400020706172616D657465722075736167657D
:101D50000A004D65736820706F696E74206F75742A
:101D6000206F662072616E67650A00454550524FCC
:101D70004D204F4B0A00290A0020746F20003F5A63
:101D8000206F7574206F662072616E676520280071
:101D90003F59206D757374206265203020284E4FA6
:101DA0005A5A4C455F41535F50524F4245292E0AC3
:101DB000003F58206D757374206265203020284ED6
:101DC0004F5A5A4C455F41535F50524F4245292E5E
:101DD0000A00206472697665722063757272656E9E
:101DE000743A20002064726976657220637572729D
:101DF000656E743A2000206472697665722063759E
:101E00007272656E743A2000206472697665722081
:101E100063757272656E743A20002074656D70652A
:101E2000726174757265207072657761726E20746C
:101E300072696767657265643A20002074656D7029
:101E400065726174757265207072657761726E205B
:101E50007472696767657265643A20002074656D05
:101E60007065726174757265207072657761726EEB
:101E7000207472696767657265643A200020746532
:101E80006D706572617475726520707265776172CC
:101E90006E207472696767657265643A200020700D
:101EA00072657761726E20666C616720636C656134
:101EB0007265640A00207072657761726E20666CCC
:101EC000616720636C65617265640A0020707265E9
:101ED0007761726E20666C616720636C6561726504
:101EE000640A00207072657761726E20666C6167AB
:101EF00020636C65617265640A0020686F6D696EAD
:101F0000672073656E73697469766974793A200025
:101F100020686F6D696E672073656E73697469768A
:101F20006974793A2000446F6E65207072696E742E
:101F3000696E672066696C650A004D3737004D335E
:101F4000310020204D323036205800486F6D65201A
:101F50006F6666736574004F6666736574732041BF
:101F600070706C696564004D494E2F4D4158205486
:101F70006F6F2046617200546F6F20666172206639
:101F8000726F6D204D494E2F4D41580A00446966CD
:101F9000663A2020200046726F6D5374703A0053E9
:101FA0007465707065723A00556E4C6576656C3A72
:101FB000004C6576656C65643A005261773A202082
:101FC0002020000A4C6F676963616C3A00436F75AB
:101FD0006E7420453A004361703A00434F4E4649C3
:101FE000475F4558504F5254004D4541545041436E
:101FF0004B00434F4F4C45525F54454D5045524165
:1020000054555245004348414D4245525F54454D59
:1020100050455241545552450045505F4241425946
:102020005354455000424142595354455050494E33
:10203000470041524353004D4F54494F4E5F4D4F5F
:1020400044455300544845524D414C5F50524F5403
:10205000454354494F4E00455854454E4445445F0E
:102060004D323000435553544F4D5F4649524D5702
:102070004152455F55504C4F4144004C464E5F57CE
:1020800052495445004C4F4E475F46494C454E41DE
:102090004D45004155544F5245504F52545F5344A3
:1020A0005F5354415455530053445F57524954456C
:1020B00000524550454154004D554C54495F564FD0
:1020C0004C554D45005344434152440050524F4DEE
:1020D00050545F535550504F525400484F53545F23
:1020E000414354494F4E5F434F4D4D414E44530081
:1020F000454D455247454E43595F50415253455215
:1021000000434153455F4C494748545F4252494759
:1021100048544E45535300544F47474C455F4C4934
:102120004748545300534F4654574152455F504F10
:10213000574552004255494C445F50455243454E25
:1021400054004C4556454C494E475F44415441006C
:102150005A5F50524F42450052554E4F5554004120
:1021600055544F4C4556454C005052494E545F4AC9
:102170004F420050524F4752455353004155544F20
:102180005245504F52545F54454D50004155544FA5
:102190005245504F52545F504F5300564F4C554D7F
:1021A000455452494300454550524F4D0042494E17
:1021B0004152595F46494C455F5452414E53464542
:1021C000520053455249414C5F584F4E5F584F465D
:1021D00046004649524D574152455F4E414D453AA2
:1021E0004D61726C696E20204649524D57415245EF
:1021F0005F56455253494F4E3A322E312E332E30D0
:102200002E34372045585452554445525F54595046
:10221000453A47616C61787920536572696573202E
:1022200050524F42455F545950453A436F6E647562
:1022300063746976652057617368657273424544BB
:102240005F545950453A205354414E444152442022
:10225000284A756E20333020323032352031303A02
:1022600034373A34372920534F555243455F434F53
:1022700044455F55524C3A6769746875622E636FC6
:102280006D2F4D61726C696E4669726D7761726512
:102290002F4D61726C696E2050524F544F434F4C1A
:1022A0005F56455253494F4E3A312E30204D4143EF
:1022B00048494E455F545950453A4C756C7A426FC7
:1022C00074204D696E692032204B494E454D415472
:1022D0004943533A43617274657369616E2045588E
:1022E0005452554445525F434F554E543A31205550
:1022F0005549443A65353530323431312D64343600
:10230000642D343231642D626133612D613230319C
:10231000323664373933306600626567696E004D66
:10232000302053746F70004D312053746F70004330
:102330006C69636B20746F20526573756D652E2E0A
:102340002E0047322F473320626164207061726132
:102350006D65746572730A005A2050726F62652051
:10236000506173742042656400205A3A0020593A43
:102370000042656420583A00203B0020204D38354B
:1023800031205830205930205A005A2D50726F6237
:1023900065204F66667365740043616E6E6F7420CE
:1023A0006F70656E207375626469722000256973B1
:1023B0000025696D20256973002569682025696DF0
:1023C0002025697300256964202569682025696DC9
:1023D00020256973002569792025696420256968AD
:1023E0002025696D20256973000A53746174733A5E
:1023F0002046696C616D656E7420757365643A2062
:10240000002C204C6F6E67657374206A6F623A20EF
:1024100000546F74616C2074696D653A20005374C8
:102420006174733A20002C204661696C65643A201F
:10243000002C2046696E69736865643A200050720A
:10244000696E74733A200053746174733A200045C6
:10245000312025530020573A0042656420436F6FB6
:102460006C696E672E2E2E0042656420486561748B
:10247000696E672E2E2E00206661696C65642120CE
:10248000426164206865617465722069640A005065
:102490004944204175746F74756E650023646566E8
:1024A000696E652044454641554C545F00006265A5
:1024B00064004B6420004B6920004B7020005049A1
:1024C000442074756E696E6720646F6E65002066C7
:1024D000696E69736865642120507574207468653D
:1024E000206C617374204B702C204B6920616E64EA
:1024F000204B6420636F6E7374616E747320667218
:102500006F6D2062656C6F7720696E746F20436F0A
:102510006E66696775726174696F6E2E680A005025
:102520004944204175746F74756E65002066616959
:102530006C6564212074696D656F75740A0050497B
:1025400044204175746F74756E65004175746F74C5
:10255000756E65206661696C6564212054696D65DE
:102560006F75742E00206661696C65642120546566
:102570006D706572617475726520746F6F20686923
:1025800067680A00504944204175746F74756E6520
:1025900000504944204379636C657300255320251E
:1025A000692F256900204B643A2000204B693A20AE
:1025B00000204B703A2000204E6F206F76657273BA
:1025C000686F6F740A002054753A2000204B753AEA
:1025D0002000206D61783A2000206D696E3A20005D
:1025E00020643A200020626961733A2000486561E6
:1025F00074696E672E2E2E002073746172740A0047
:10260000504944204175746F74756E65004175744E
:102610006F74756E65206661696C65642120546510
:102620006D706572617475726520746F6F20686972
:1026300067682E00206661696C6564212054656DB1
:10264000706572617475726520746F6F2068696758
:10265000680A00504944204175746F74756E6500B6
:10266000504944204175746F74756E6500706F77C2
:1026700065725F66616E3235352000706F77657206
:102680005F66616E3020003D3D3D3D3D0A004D508E
:10269000435F6175746F74756E65723A3A6D65610A
:1026A000737572655F7472616E7366657228292036
:1026B000436F6D706C657465640A0054656D706578
:1026C000726174757265206572726F720A0020748F
:1026D000332000207432200074312000203A200082
:1026E00073616D706C65200073616D706C655F6403
:1026F000697374616E6365200073616D706C655FF2
:10270000636F756E74200074315F74696D652000AD
:102710003D3D3D3D3D0A004D50435F6175746F7412
:10272000756E65723A3A6D6561737572655F68655D
:1027300061747570282920436F6D706C65746564D1
:102740000A00616D6269656E745F74656D7020006A
:102750003D3D3D3D3D0A004D50435F6175746F74D2
:10276000756E65723A3A6D6561737572655F616D1C
:102770006269656E745F74656D70282920436F6DA2
:10278000706C657465640A004D50435F414D424969
:10279000454E545F584645525F434F4546465F4657
:1027A000414E32353520004D50435F414D42494541
:1027B0004E545F584645525F434F45464620004DB4
:1027C00050435F53454E534F525F524553504F4E07
:1027D000534956454E45535320004D50435F424C9C
:1027E0004F434B5F484541545F4341504143495437
:1027F0005920004D5043204175746F74756E6520EB
:1028000066696E6973686564212050757420746808
:102810006520636F6E7374616E74732062656C6F94
:102820007720696E746F20436F6E66696775726199
:1028300074696F6E2E680A00626C6F636B5F7265FD
:1028400073706F6E736976656E6573732000617364
:10285000796D705F74656D702000526566696E6990
:102860006E6720657374696D6174657320666F723D
:102870003A0A0054657374696E6720686561742054
:102880006C6F7373004D6561737572696E6720615B
:102890006D6269656E7420686561746C6F73732016
:1028A00061742000626C6F636B5F726573706F6E32
:1028B000736976656E65737320006173796D705FFF
:1028C00074656D70200048656174696E6720746F6F
:1028D000203E323030430048656174696E67207471
:1028E0006F206F76657220323030430A00436F6F7D
:1028F0006C696E672E2E2E00436F6F6C696E6720B9
:10290000746F20616D6269656E740A004D504320DA
:102910004175746F74756E6520737461727420668E
:102920006F722045004D5043204175746F74756E71
:10293000650020480020460020410020520020432E
:102940000020500020204D3330362045004D6F646C
:10295000656C207072656469637469766520636F65
:102960006E74726F6C0020540020530020450020CC
:10297000204D3836204200486F74656E64204964EB
:102980006C652054696D656F7574004572723A20EC
:102990007574663820666F6E74206E6F7420696E71
:1029A000697469616C697A65642E004572723A20B7
:1029B0007574663820666F6E74206E6F7420696E51
:1029C000697469616C697A65642E004572723A2097
:1029D0007574663820666F6E74206E6F7420696E31
:1029E000697469616C697A65642E006D61726C69E5
:1029F0006E66772E6F726700322E312E332E302E98
:102A00003437001FFFFFFFFFFFFF600000000001E1
:102A1000FF400000000000FF8000000000007F83F6
:102A2000CF00000C303F87FF80000C301F8679807C
:102A3000000C000F8C30C7838C30E78C30CFC7CCB4
:102A400031F38C30DCECEC33B98C30D86C6C33194E
:102A50008C30D06C0C33198C30D86C0C33198C3012
:102A6000DC6C0E3B198C30CF7C079F198C30C77CF7
:102A7000038F194000000000000260000000000009
:102A8000061FFFFFFFFFFFF8200020003A00200094
:102A900020003A003A00000C0F00FE07022503BB9D
:102AA000017FFE08FE08FE05080806000040F0C889
:102AB0008888987810050808060000C0F88888887B
:102AC0008888F80505050600012030F83020050843
:102AD000080600002070F820202020E005090906E3
:102AE00000FF2070A8A8B888887020070505070097
:102AF00001D86C366CD80509090600FFF8A888884B
:102B0000888888A8F8050A0A0600FE205050505010
:102B100088A8A8887003030306000340A040FFFFB5
:102B2000FFFFFFFFFFFFFFFFFFFFFFFFFFFFFFFFB5
:102B3000FFFFFFFF0000000605FF01070706020078
:102B400080808080800080030303060105A0A0A090
:102B500005060606000050F85050F8500509090611
:102B600000FF2070A8A07028A870200507070600A5
:102B700000C8C8102040989805070706000040A02C
:102B8000A040A89068010303060205808080030925
:102B9000090601FF20404080808040402003090951
:102BA0000601FF80404020202040408005070706A6
:102BB000000020A8702070A820050505060001204F
:102BC00020F820200203030601FFC0408005010118
:102BD000060003F8020202060100C0C0050707064E
:102BE0000000081010204040800507070600007014
:102BF0008898A8C8887003070706010040C04040B5
:102C00004040E0050707060000708808102040F8E3
:102C1000050707060000F808103008887005070748
:102C200006000010305090F810100507070600004D
:102C3000F880F0080888700507070600003040801B
:102C4000F0888870050707060000F808101020209B
:102C500020050707060000708888708888700507BF
:102C600007060000708888780810600205050601D4
:102C700000C0C000C0C00206060601FFC0C000C000
:102C80004080030505060101204080402005030324
:102C9000060002F800F80305050601018040204007
:102CA0008005070706000070881020200020050717
:102CB000070600007088B8A8B880700507070600EE
:102CC00000708888F8888888050707060000F048A3
:102CD00048704848F005070706000070888080802B
:102CE0008870050707060000F04848484848F00586
:102CF0000707060000F88080F08080F805070706C7
:102D00000000F88080F080808005070706000070D2
:102D1000888080988870050707060000888888F8F2
:102D2000888888030707060100E04040404040E0F3
:102D300005070706000038101010109060050707FF
:102D40000600008890A0C0A0908805070706000034
:102D5000808080808080F805070706000088D8A85A
:102D6000888888880507070600008888C8A898888A
:102D7000880507070600007088888888887005071E
:102D800007060000F08888F08080800507070600AD
:102D90000070888888A89068050707060000F088FA
:102DA00088F0A090880507070600007088807008EA
:102DB0008870050707060000F82020202020200545
:102DC0000707060000888888888888700507070636
:102DD0000000888888885050200507070600008872
:102DE000888888A8A8500507070600008888502012
:102DF000508888050707060000888850202020207A
:102E0000050707060000F80810204080F8030909AC
:102E10000601FFE080808080808080E00507070653
:102E20000000804040201010080309090601FFE05F
:102E300020202020202020E005030306000520504C
:102E4000880501010600FEF8030303060105804022
:102E50002005050506000070087888780507070634
:102E600000008080F0888888F00505050600007065
:102E70008080887005070706000008087888888821
:102E8000780505050600007088F0807005070706C4
:102E90000000304840E04040400507070600FE7053
:102EA0008888887808700507070600008080F08809
:102EB0008888880307070601004000C0404040E0C2
:102EC0000409090601FE1000301010101090600572
:102ED000070706000080808890E0908803070706B7
:102EE0000100C04040404040E0050505060000D01C
:102EF000A8A8A8A8050505060000B0C88888880508
:102F0000050506000070888888700507070600FE22
:102F1000F0888888F080800507070600FE7888889A
:102F200088780808050505060000B0C8808080057F
:102F3000050506000078807008F005070706000008
:102F40002020F82020201805050506000088888824
:102F50009868050505060000888888502005050545
:102F60000600008888A8A8500505050600008850BE
:102F70002050880507070600FE888888502040807A
:102F8000050505060000F8102040F80309090601B0
:102F9000FF2040404080404040200109090602FFD8
:102FA0008080808080808080800309090601FF8006
:102FB000404040204040408005030306000248A8EE
:102FC00090FF5061726B696E672E2E2E00000057C5
:102FD00061697420666F720066696C616D656E74FC
:102FE000206368616E676500746F2073746172742A
:102FF000005761697420666F720066696C616D6567
:103000006E7420756E6C6F616400004E6F7A7A6C1E
:10301000652068656174696E6700506C65617365F1
:1030200020776169742E2E2E000050726573732014
:10303000627574746F6E00746F2068656174206EC1
:103040006F7A7A6C650000496E73657274206669E8
:103050006C616D656E7400616E642070726573736F
:1030600020627574746F6E00746F20636F6E746984
:103070006E7565005761697420666F720066696CD1
:10308000616D656E74206C6F6164000050726573D1
:103090007320427574746F6E00746F20726573755F
:1030A0006D65207072696E740000576169742066E6
:1030B0006F72207072696E7400746F207265737520
:1030C0006D652E2E2E00005761697420666F7200A8
:1030D00066696C616D656E7420707572676500005D
:1030E000536E346B3300496E7661646572730042CF
:1030F0007269636B6F75740041626F7574205072F2
:10310000696E74657200256C642E25696D004578C2
:1031100074727564656420546F74616C004C6F6EDA
:1031200067657374204A6F622054696D6500507240
:10313000696E742054696D6500436F6D706C6574C1
:103140006564003A20005072696E7420436F756E9A
:1031500074003A200047616D6573005374617473A5
:10316000005072696E74657220496E666F004D6121
:10317000696E204D656E75004732384F0A47302022
:10318000583130302059323833205A323030004DE7
:103190003839312054380A4D3932453431300A4DEE
:1031A0003330362041302E30363232204331352E06
:1031B00034342046302E31383434205035302052CB
:1031C000302E313132380A4D3930362045383530DD
:1031D0000A4D393030204B302E30350A4D353030E5
:1031E0000A4D313137204D45543137357C4E4B4CEB
:1031F0002D504C204252415353004D383931205408
:10320000390A4D3932453433390A4D33303620418D
:10321000302E30363232204331352E343420463091
:103220002E31383434205035302052302E31313266
:10323000380A4D39303620453835300A4D3930306E
:10324000204B302E30350A4D3530300A4D31313774
:10325000204D45543238357C4E4B4C2D504C20423D
:1032600052415353004D45543238357C4E4B4C2D12
:10327000504C204252415353004D45543137357C18
:103280004E4B4C2D504C20425241535300506172D2
:103290006B20666F722054482053776170004D6137
:1032A000696E204D656E75003F004261636B00538F
:1032B000746F70004E6F204D656469610053656CDA
:1032C0006563742066726F6D204D656469610043AB
:1032D00068616E6765204D65646961004D3231003B
:1032E00041626F7574205072696E74657200546F1C
:1032F0006F6C204865616473202854482900436F2F
:103300006E66696775726174696F6E0054656D7081
:1033100065726174757265004368616E6765204609
:10332000696C616D656E74004D6F74696F6E0050ED
:10333000726573656E742042656400473238204FB1
:103340000A47302059313835204631303030300A84
:1033500047302059313930204631303030300A4D35
:10336000313137205072696E746572205265616424
:103370007900526573756D65205072696E740043F3
:10338000616E63656C204F626A6563740054756E8C
:10339000650053746F70205072696E7400506175CF
:1033A0007365205072696E7400496E666F205363B6
:1033B0007265656E003F00537461727420507269CB
:1033C0006E740043616E63656C005072696E7400C8
:1033D00043616E6E6F7420656E74657220737562E2
:1033E0006469723A200002202E2E004D61696E2021
:1033F0004D656E75002100486F74656E6420746FB2
:103400006F20636F6C64004261636B0050726F6386
:10341000656564004D6F76652045787472756465E6
:1034200072004D6F74696F6E0044697361626C6500
:10343000205374657070657273004D3834004175A7
:10344000746F205A2D416C69676E00473334004F0A
:103450006666004F6E00426564204C6576656C6957
:103460006E67004C6576656C2042656400473239B2
:103470004E004175746F2D5061726B0047323820D9
:103480004F0A473237004732385A0047323859001E
:10349000486F6D6520400047323858004175746FA1
:1034A00020486F6D65004D61696E204D656E750039
:1034B0005072656865617420242042656400507212
:1034C0006568656174202420456E640054656D70E4
:1034D0006572617475726500436F6F6C646F776EAF
:1034E000005072656865617420240046616E205347
:1034F0007065656400426564004E6F7A7A6C6500A1
:103500004D61696E204D656E75004531005A005958
:10351000005800590058004531005A0059004F66C4
:1035200066004F6E005800544D4320447269766522
:10353000727300537465616C746843686F702045E2
:103540006E61626C6564005374657070696E6720AB
:103550004D6F64650053656E736F726C6573732095
:10356000486F6D696E6700447269766572204375B5
:103570007272656E7400416476616E636564205397
:10358000657474696E67730050726F6265205A20AB
:103590004F666673657400416476616E6365204BA7
:1035A00000466C6F77726174650046616E205370DF
:1035B00065656400426564004E6F7A7A6C650053FD
:1035C00070656564004D61696E204D656E75006FB4
:1035D00070656E00545249474745524544003A20B1
:1035E0000066696C616D656E74005A204D617800EB
:1035F0005A204D696E0059204D61780058204D6960
:103600006E005265706F7274696E6720656E6473C8
:10361000746F70207374617475730A00203A20739C
:10362000796E635F706C616E5F706F736974696FE0
:103630006E0A00202063757272656E745F706F731E
:103640006974696F6E3D003E2000646F5F626C6F4D
:10365000636B696E675F6D6F76655F746F00290AD3
:10366000002C20002C2000646F5F626C6F636B691C
:103670006E675F6D6F76655F746F5F78792800297C
:103680000A002C2000646F5F626C6F636B696E6769
:103690005F6D6F76655F746F5F7A2800250A002082
:1036A0000072656D656D6265725F66656564726105
:1036B00074655F7363616C696E675F6F66663A20FD
:1036C00066723D00250A002000726573746F726592
:1036D0005F66656564726174655F616E645F736384
:1036E000616C696E673A2066723D0020746F6F20CE
:1036F0006C6F6E6720657874727573696F6E207079
:10370000726576656E7465640A0020636F6C642070
:10371000657874727573696F6E2070726576656E08
:103720007465640A00290A003C3C3C207365745FA0
:10373000617869735F69735F61745F686F6D652835
:1037400000203A200A00202063757272656E745F53
:10375000706F736974696F6E3D005D203D20003E9F
:1037600020686F6D655F6F66667365745B0000004F
:1037700088C00000414300003743290A003E3E3E16
:10378000207365745F617869735F69735F61745FEB
:10379000686F6D6528005761726E696E673A2048E0
:1037A0006F6D696E672042756D702044697669732C
:1037B0006F72203C20310A00010204290A003C3CBF
:1037C0003C20686F6D65617869732800203A203E5F
:1037D000204146544552207365745F617869735F78
:1037E00069735F61745F686F6D650A00202063759F
:1037F0007272656E745F706F736974696F6E3D008D
:103800006D6D0A0052652D62756D703A20006D6D08
:103810000A004D6F766520417761793A20006D6D21
:103820000A00486F6D6520466173743A20000000FD
:10383000A0400000A040000000406D6D0A005365EC
:103840006E736F726C657373206261636B6F666613
:103850003A2000290A003E3E3E20686F6D6561787F
:1038600069732800206C696D6974656420746F2029
:1038700000204D6178200050726F62653A3A707294
:103880006F62655F73706563696669635F616374C6
:10389000696F6E005261697365205A20746F200051
:1038A000206E6F5F72657475726E3D006465706C3A
:1038B0006F793D00203A2050726F62653A3A736525
:1038C000745F6465706C6F7965640A0020206375AD
:1038D0007272656E745F706F736974696F6E3D00AC
:1038E000206D61783A00206D696E3A004178697305
:1038F00020000080214300004143000037430000C6
:1039000088C00000A0C00000000053657474696E98
:1039100067732053617665642100290A002062796B
:103920007465733B20637263200053657474696E21
:1039300067732053746F72656420280045525200EB
:10394000454550524F4D20496E697469616C697AE2
:1039500065640A0048617264636F6465642044654D
:103960006661756C742053657474696E6773204C5E
:103970006F616465640020286D6D2900203B204C38
:103980006576656C696E67200020204D34323020EA
:1039900053004175746F20426564204C6576656CF8
:1039A000696E670020460020480020204D313435E4
:1039B0002053004D6174657269616C2068656174A3
:1039C000757020706172616D657465727300526507
:1039D00074726163742028533C6C656E6774683E32
:1039E00020463C66656564726174653E205A3C6C95
:1039F0006966743E29005265636F766572202853AC
:103A00003C6C656E6774683E20463C666565647212
:103A10006174653E29004175746F2D526574726141
:103A200063742028533C656E61626C653E290020FA
:103A3000204D3930360020543020450053746570D5
:103A40007065722064726976657220637572726542
:103A50006E740020204D393134005374616C6C4712
:103A600075617264207468726573686F6C6400209D
:103A7000204D353639205331005430204500205830
:103A800000447269766572207374657070696E6740
:103A9000206D6F64650020204D393030204B004C84
:103AA000696E65617220416476616E636500203BDA
:103AB0002053656E736F72200020204D3431322008
:103AC000530046696C616D656E742072756E6F751A
:103AD000742073656E736F7200204A002020473295
:103AE00039205720490020204D3134392043203BD4
:103AF00020556E69747320696E2043656C73697517
:103B0000730A0054656D7065726174757265205535
:103B10006E697473002020473231203B004C696E7F
:103B200065617220556E69747300454550524F4D62
:103B3000206461746173697A65206572726F722E98
:103B40000A004572723A20454550524F4D2043526B
:103B50004300202863616C63756C6174656429217E
:103B60000A0020213D2000454550524F4D20435230
:103B700043206D69736D61746368202D2028737410
:103B80006F726564292000454550524F4D20436FA8
:103B900072727570740A002053697A653A20004980
:103BA0006E6465783A200053746F726564207365A3
:103BB0007474696E67732072657472696576656482
:103BC00000290A002062797465733B2063726320C8
:103BD000002073746F7265642073657474696E6716
:103BE0007320726574726965766564202800000030
:103BF000FA430000FA430000964300002042000010
:103C0000C8420000C842000048430080DB439411D2
:103C10000000941100006400000028230000204DE3
:103C200061726C696E3D563931290A004545505222
:103C30004F4D2076657273696F6E206D69736D618B
:103C40007463682028454550524F4D3D0024F4D4FC
:103C50003050C38D20C3A24117828B7011127A900D
:103C60000D826CDA0AA861E108C758660761514203
:103C7000061F4B5E05C145A6041B411204093D9772
:103C800003723931034136DB0266339202D430537A
:103C900002812E1D02642CEE01762AC501B128A1F5
:103CA00001102781018F2564012B244A01E1223470
:103CB00001AD2120018D200C01811FFC00851EED2E
:103CC00000981DDF00B91CD200E71BC700201BBBFA
:103CD00000651AB200B319A9000A19A0006A189861
:103CE00000D217920040178A00B616840032167E62
:103CF00000B41579003B157400C7146F0058146A9E
:103D000000EE1366008813620026135E00C8125B83
:103D1000006D12570016125500C111510070114E5E
:103D20000022114C00D61049008D10460047104566
:103D30000002104200C00F4000800F3E00420F3CC6
:103D400000060F3A00CC0E3900930E37005C0E359A
:103D500000270E3400F30D3200C10D3100900D2FFD
:103D600000610D2F00320D2D00050D2C00D90C2AFD
:103D700000AF0C2A00850C28005D0C2800350C27AC
:103D8000000E0C2500E90B2500C40B2400A00B231A
:103D9000007D0B22005B0B21003A0B2100190B2048
:103DA00000F90A1F00DA0A1F00BB0A1E009D0A1D47
:103DB00000800A1C00640A1C00480A1C002C0A1B14
:103DC00000110A1A00F7091A00DD091900C40919BF
:103DD00000AB091800930918007B09170064091744
:103DE000004D09170036091600200915000B0915AA
:103DF00000F6081500E1081500CC081400B80814F6
:103E000000A4081300910813007E0813006B081229
:103E10000059081200470812003508120023081143
:103E2000001208110001081000F1071100E007104E
:103E300000D0071000C0070F00B1071000A1070F46
:103E40000092070F0083070F0074070E0066070E2D
:103E50000058070E004A070E003C070E002E070D03
:103E60000021070D0014070D0007070D00FA060DCD
:103E700000ED060C00E1060D00D4060C00C8060C8F
:103E800000BC060C00B0060B00A5060C0099060B42
:103E9000008E060B0083060B0078060B006D060BE8
:103EA0000062060B0057060A004D060A0043060B87
:103EB0000038060A002E060A00240609001B060A1E
:103EC0000011060A0007060900FE050A00F40509AC
:103ED00000EB050900E2050900D9050900D0050934
:103EE00000C7050800BF050900B6050900AD0508B3
:103EF00000A50508009D050800950509008C05082A
:103F000000840508007C050700750508006D05089C
:103F100000650507005E050800560507004F050807
:103F2000004705070040050700390507003205076F
:103F3000002B050700240507001D050700160507CF
:103F4000000F0506000905070002050600FC04072E
:103F500000F5040600EF040700E8040600E204068A
:103F600000DC040600D6040600D0040700C90405DE
:103F700000C4040600BE040600B8040600B204062D
:103F800000AC040600A6040500A10406009B04057D
:103F90000096040600900405008B040600850405C5
:103FA00000800405007B040500760406007004050B
:103FB000006B04050066040500610405005C04054F
:103FC0000057040500520405004D04050048040490
:103FD00000440405003F0405003A040400360405CB
:103FE00000310405002C0404002804050023040407
:103FF000001F0405001A040400160404001204053E
:10400000000D040400090404000504040001040573
:1040100000FC030400F8030400F4030400F00304AC
:1040200000EC030400E8030400E4030400E00304DC
:1040300000DC030400D8030400D4030300D103040C
:1040400000CD030400C9030400C503040000000000
:104050000000000000000000000000000000000060
:104060000000000000D1036D6403570D0347C60232
:104070003B8B023259022B2E0225090221E8011C3A
:10408000CC011AB201179B0114870113740111634B
:10409000010F54010E46010D39010D2C010B2101B8
:1040A0000A17010A0D0109040108FC0008F40007C1
:1040B000ED0007E60007DF0006D90006D30005CEB5
:1040C0000006C80005C30004BF0005BA0004B6001E
:1040D00004B20004AE0004AA0004A60003A3000476
:1040E0009F00039C00039900039600039300029134
:1040F00000038E00028C0003890002870003840005
:10410000028200028000027E00027C00027A00022D
:1041100078000276000175000273000271000170E0
:1041200000026E00016D00026B00016A000268006F
:104130000167000265000164000163000162000282
:104140006000015F00015E00015D00015C00015B39
:1041500000015A00015900015800015700015600A2
:1041600001550001540001530001520001510000AB
:104170005100015000014F00014E00014D00004D63
:1041800000014C00014B00014A00004A00014900B7
:1041900001480000480001470001460000460001B8
:1041A0004500004500014400014300004300014276
:1041B00000004200014100004100014000004000B9
:1041C000013F00003F00013E00003E00013D0000B5
:1041D0003D00013C00003C00013B00003B00013A77
:1041E00000003A00013900003900003900013800B0
:1041F00000380001370000370000370001360000AA
:10420000360000360001350000350001340000346E
:10421000000034000133000033000033000132009D
:104220000032000032000131000031000031000096
:104230003100013000003000003000012F00002F5D
:1042400000002F00002F00012E00002E00002E0085
:10425000012D00002D00002D00002D00012C00007C
:104260002C00002C00002C00012B00002B00002B48
:1042700000002B00012A00002A00002A00002A006A
:10428000002A00012900002900002900002900015E
:10429000280000280000280000280000280001272E
:1042A000000027000027000027000027000126004B
:1042B000002600002600002600002600002600013F
:1042C0002500002500002500002500002500002510
:1042D0000001240000240000240000240000240029
:1042E000002400012300002300002300002300001D
:1042F00023000023000122000022000022000022EF
:104300000000220000220000220001210000210004
:1043100000210000210000210000210000210001F7
:1043200020000020000020000020000020000020CD
:1043300000002000002000011F00001F00001F00DF
:10434000001F00001F00001F00001F000020436F1F
:10435000756E7420583A00554E4C4F4144204649E2
:104360004C414D454E54004C4F41442046494C4130
:104370004D454E540046494C414D454E542043480E
:10438000414E47450042656400456E636C6F73752E
:10439000726500200020002000200020002500651C
:1043A0007272001FE020102010201010201020201A
:1043B00010201030300840048003001FE03FF03F21
:1043C000F03FF01FE01FE03FF03FF03FF00FC0076D
:1043D0008003003FFFF83E00F839F03831E0183133
:1043E000E01821E1E820F3E8207FE82077E828EED4
:1043F000282FDC082FFC082F9E082F0F08300F18DD
:10440000300F18381F383E00F83FFFF83FFFF83EE6
:1044100000F8383F38307E18307C18287C082C385B
:10442000082F39C82FFFE82FC7E82FFFE82739E802
:10443000203868207C28307C1830FC1839F8383E49
:1044400000F83FFFF83FFFF83E00F8380F38341F00
:10445000D8361F982F1F082F9E082FFC082FDC0826
:1044600027EFC82077E8207FE820F3E821F1E83340
:10447000F0D837F05839E0383E00F83FFFF83FFFFA
:10448000F83E80F83980383781D837C3D827C7E855
:1044900023C7F821FF88206C08206C08206C0823B3
:1044A000FF083FC7882FC7C83787D83703D83803D6
:1044B000383E02F83FFFF8022200044400044400A2
:1044C000022200011100FFFFCE40A8A42111101FFD
:1044D000FFF808040424020273FFFFFFFFCE402010
:1044E000242010101FFFF808040424020273FFFFA9
:1044F000FFFFC04000202000101000080800040446
:10450000000203FFFF0222000444000444000222D0
:1045100000011100FFFFC04088A0211110122208E5
:1045200008000404000203FFFF63616E63656C0012
:104530005072696E742041626F72746564005549EF
:104540002041626F72746564004D323520500A4D0F
:10455000323400526573756D6500554920506175A0
:1045600073650050617573696E672E2E2E0072653B
:1045700073756D65005072696E7420526573756D48
:104580006564004D3234006F6F6F00000047414D8D
:1045900045204F56455200107CFEFEFE44402480CC
:1045A0000000318000002480444004000E000E0012
:1045B0007FC0FFE0FFE0FFE0FFE01FC07FF0DDD83D
:1045C000FFF87FF006000F001F8036C03FC00900D3
:1045D0001680294006000F001F8036C03FC016809D
:1045E00020401080104008801FC037607FF05FD0EF
:1045F00050500D80104048905FD077707FF01FC002
:10460000104020200F007FE0FFF0E670FFF01980DF
:1046100036C0C0300F007FE0FFF0E670FFF0198079
:1046200036C0198000FE0003FF8007C7C00701E005
:104630000000E00000F00000700400700E00701F29
:1046400000703F80F00E00E00F01E007C7C003FFDD
:104650008000FE0000FE0003FF8007C7C00F01E0DE
:104660000E00E03F80F01F00700E0070040070002C
:1046700000700000F00000E00701E007C7C003FF82
:104680008000FE000E000E000E000E000E000E0058
:104690000E000E007FC03F801F000E0004000400CB
:1046A0000E001F003F807FC00E000E000E000E00A7
:1046B0000E000E000E000E00FFFFFF7F80FFC0FF08
:1046C000C0FFC07F807F80FFC0FFC0FFC03F001ED3
:1046D000000C0050726F6265205A204F6666736549
:1046E00074004D3530300A4D313137205A204F6635
:1046F00066736574205361766564004C6F61642055
:104700006D6D00556E6C6F6164206D6D0046696C57
:104710002E204469612E004F6666004F6E004520D2
:10472000696E206D6D5E3300416476616E63652055
:104730004B004D333033205531204525692053251A
:1047400069004D3330362054004175746F74756EB6
:1047500065202A20504944005049442D44202A0015
:104760005049442D49202A005049442D50202A0008
:104770004D5043204175746F74756E650046616ECF
:1047800020636F6566662E202A00416D6269656E42
:104790007420436F2E202A0053656E736F7220526F
:1047A0006573702E202A0048656174204361702E65
:1047B000202A00506F776572202A00200820466169
:1047C0006374002008204D6178002008204D696E38
:1047D000004D696E2054726176656C20537065657A
:1047E00064004D696E2056656C6F63697479004D85
:1047F00061782040205370656564004D61782045E4
:1048000020416363656C004D617820402041636303
:10481000656C0054726176656C20416363656C0061
:104820005265747261637420416363656C00416317
:1048300063656C004D61782040204A65726B004DC5
:104840003530300A4D313137205A204F6666736556
:10485000742053617665640050726F6265205A203F
:104860004F666673657400402073746570732F6DB6
:104870006D00416476616E6365642053657474698C
:104880006E6773003F0043616E63656C00496E693B
:1048900074004D34323800496E697469616C697A0C
:1048A0006520454550524F4D0046696C616D656EFF
:1048B000740054656D706572617475726500544D55
:1048C0004320447269766572730053746570732F68
:1048D0006D6D0050726F6265204F6666736574730C
:1048E000004A65726B00416363656C65726174694F
:1048F0006F6E004D617820537065656420286D6D82
:104900002F73290053657420486F6D65204F6666CC
:104910007365747300436F6E66696775726174695D
:104920006F6E003F0043616E63656C204F626A6585
:104930006374004E4F005945530043616E63656CCC
:10494000204F626A656374207B004D61696E204D63
:10495000656E75004265642049646C652054656D20
:1049600070004E6F7A7A6C652049646C65205465DE
:104970006D700054656D7065726174757265005478
:10498000696D656F75740044697361626C6520546C
:10499000696D656F7574004D3837004261636B0057
:1049A00049646C6520506572696F64004163746985
:1049B0007665205370656564004175746F204D6F96
:1049C00064650049646C6520537065656400556ECC
:1049D00072657472616374205600556E72657472EC
:1049E0002E206D6D00486F70206D6D0052657472E1
:1049F00061637420560052657472616374206D6D3A
:104A0000004175746F2D5265747261637400426564
:104A100064004E6F7A7A6C650046616E2053706553
:104A2000656400436F6E66696775726174696F6E65
:104A300000526573746F72652044656661756C74AD
:104A400073004C6F61642053657474696E67730002
:104A500053746F72652053657474696E6773005088
:104A6000726568656174202420436F6E66004F662E
:104A700066004F6E0052756E6F75742053656E73CD
:104A80006F72005265747261637400486F74656E72
:104A9000642049646C652054696D656F75740043CA
:104AA0006F6E74726F6C6C65722046616E0050722E
:104AB0006F6265205A204F666673657400416476A4
:104AC000616E6365642053657474696E6773004D2D
:104AD00061696E204D656E75004D3730322054256A
:104AE00064004D36303020423020542564004D376C
:104AF0003032203B2564004D37303120542564008E
:104B00004D373032004D373031004D363030204295
:104B100030004D61696E204D656E7500436F6E7497
:104B2000696E7565004F6666004F6E0052756E6F58
:104B300075742053656E736F7200507572676520CF
:104B40006D6F726500524553554D45204F50544985
:104B50004F4E533A005052494E5420504155534500
:104B600044002F00200020204E6F7A7A6C653A2096
:104B7000004D5043204175746F74756E6520696EE9
:104B8000746572727570746564210A004265640010
:104B9000453100626564002C2073797374656D2063
:104BA00073746F7070656421204865617465725F0D
:104BB00049443A20004572723A204D415854454DBF
:104BC00050004D415854454D5020747269676765D7
:104BD0007265640048656174696E67204661696C3E
:104BE00065640048656174696E67206661696C651B
:104BF00064004D353234004D3131322053687574C4
:104C0000646F776E001000AD0330016A0150022B13
:104C10000170030A019004F500B005E500D006D844
:104C200000F007CE001009C500300ABE00500BB7D7
:104C300000700CB100900DAB00B00EA600D00FA21A
:104C400000F0109D0010129900301395005014923E
:104C50000070158E0090168B00B0178700D0188456
:104C600000F0198100101B7E00301C7B00501D7964
:104C700000701E7600901F7300B0207000D0216E6F
:104C800000F0226B00102469003025660050266376
:104C9000007027610090285E00B0295C00D02A597E
:104CA00000F02B5600102D5400302E5100502F4E86
:104CB0000070304B0090314800B0324500D0334294
:104CC00000F0343E0010363B0030373700503833A8
:104CD0000070392E00903A2900B03B2300D03C1BD5
:104CE00000F03D1100103F0100F03F0000457272DE
:104CF0003A204D494E54454D50004D494E54454D76
:104D00005020747269676765726564005448455243
:104D10004D414C2052554E415741590054686572DF
:104D20006D616C2052756E6177617900202F0020D3
:104D3000403A0020573A007C3C3E5E2B3D3F2F5BC3
:104D40005D3B2C2A225C0043616E6E6F74206F7095
:104D5000656E2073756264697220005761726E69B6
:104D60006E673A004D6564696120496E697420463A
:104D700061696C0053442063617264206F6B0A00A8
:104D80006F70656E526F6F74206661696C65640A3E
:104D900000766F6C756D652E696E69742066616949
:104DA0006C65640A004E6F20534420636172640A8C
:104DB00000534420636172642072656C65617365A1
:104DC000640A000A4D3234004D3233202573002E20
:104DD0000A006F70656E206661696C65642C204600
:104DE000696C653A200046696C652073656C656383
:104DF0007465640A002053697A653A200046696C3C
:104E000065206F70656E65643A2000454E442053FE
:104E10005542524F5554494E450A002220706F7337
:104E2000002220706172656E743A2200535542521E
:104E30004F5554494E452043414C4C207461726794
:104E400065743A220053756263616C6C204F76651D
:104E500072666C6F77004578636565646564206D84
:104E6000617820535542524F5554494E4520646550
:104E70007074683A0057726974696E6720746F20A5
:104E800066696C653A20004E6F742053442070723E
:104E9000696E74696E670A005344207072696E749B
:104EA000696E6720627974652000667265736800B8
:104EB000646F696E67002066696C653A20004E6F0A
:104EC0007720002F6175746F25632E670000002026
:104ED000002300260029002C002F003200000100D2
:104EE00000030106010901000000000000000000AD
:104EF00000000000000000000000000000000000B2
:104F0000000000000000000000040000000000009D
:104F10000000000E0000000000000000000E000075
:104F2000000000000000001F000000000000000062
:104F3000003B000000000000000000318000000085
:104F4000000000000071C0000000000000000060D0
:104F5000C00000000000000000E0E00000000000D1
:104F6000000000C0700000000000000001C07000E0
:104F70000000000000000380380000000000000076
:104F80000300180000000000000007FFFC00000004
:104F9000000000000FFFFC000000000000000FFFF9
:104FA000FE000000000000001C00070000000000E0
:104FB00000003800070000000000000038030380F4
:104FC000000000000000300F8180000000000000A1
:104FD000660C81C0000000000000EF0D8CC00000D6
:104FE00000000000E9871EE0000000000001CF8300
:104FF000927000000000000387819E700000000096
:10500000000381B9B83800000000000301FFB018A8
:1050100000000000000600FFF01C00000000000E71
:1050200030FFE00C00000000000E78FFFC0E0000D6
:105030000000001CCCFFFFC70000000000387CFF10
:10504000F7670000000000383FFFE3238000000006
:10505000007007FFF3E1800000000070007FF18125
:10506000C000000000F01FFFF003E000000000F8A7
:105070003FDC3003E000000001DC641838077000FA
:105080000000039C6C183C0F30000000038E381C9D
:10509000360E380000000707000E360C180000001E
:1050A0000607001E1C1C1C0000000E03001208381E
:1050B0000E0000000C03801E0038060000001801DE
:1050C000C00C0070070000003800C00000F00300B2
:1050D00000003FFFFFFFFFFFFF8000007FFFFFFF9B
:1050E000FFFFFFC000000000000000000000000003
:1050F000000000000000000000006066607E7E1F6F
:105100001F8000006066607E7F3F9F8000006066B9
:10511000600E6331860000006066601C7F3186008F
:105120000000606660387F31860000006066607055
:105130006331860000007E7E7E7E7F3F8600000019
:105140007E3C7E7E7E1F0600000000000000000006
:10515000000000000000000000000000000000004F
:10516000000000000000002020506C616E6E65722F
:1051700042756666657242797465733A200020460E
:10518000726565204D656D6F72793A200020436F1E
:105190006D70696C65643A204A756E203330203238
:1051A0003032350A00204C6173742055706461748C
:1051B00065643A20323032342D30372D3032207C45
:1051C00020417574686F723A204C756C7A426F7426
:1051D0000A004D61726C696E20322E312E332E30F2
:1051E0002E34370A0020536F66747761726520523F
:1051F000657365740A00205761746368646F672083
:1052000052657365740A002042726F776E206F7565
:10521000742052657365740A002045787465726E57
:10522000616C2052657365740A00506F7765725522
:10523000700A0073746172740A0047302059313962
:1052400033205A3138332046323530300A004D3160
:10525000303031006572726F722077726974696ED6
:105260006720746F2066696C650A00446F6E652064
:10527000736176696E672066696C652E0A004D322F
:105280003900456E6473746F707300255320256375
:1052900020256320256320256300205A3A002059E9
:1052A0003A0020583A00656E6473746F707320681A
:1052B00069743A2000436F6C642050756C6C005424
:1052C00050550041425300504C410020583A0010C4
:1052D00000C90210012C014001220170011801B027
:1052E000010E01F00104015002FA00B002F000309A
:1052F00003E600D003DC009004D2007005C800A0D3
:1053000006BE000008B400B009AA00D00BA00060DF
:105310000E960060118C000015820020197800C0E4
:105320001D6E00A0226400B0275A00902C5000008F
:10533000314600E0343C0010383200903A280060DA
:105340003C1E00A03D1400803E0A00203F000000EB
:10535000002100240027002A002D00300033000126
:10536000010000040107010A0100002200250028B5
:10537000002B002E0031003400020100000501085E
:10538000010B0105050505070508080808020202CA
:10539000020A0A08080404040401010101010101D0
:1053A000010303030303030303040707070C0C0CA7
:1053B0000C0C0C0C0C02020202060606060606067F
:1053C000060B0B0B0B0B0B0B0B010210202008081C
:1053D0001020401020408002010201080402010157
:1053E0000204081020408080402010080402018040
:1053F0000402018040201008040201080402010197
:10540000020408102040800102040810204080009F
:10541000000A0B02090C0D0E08070304010000002E
:10542000000000000000000000000000000000007C
:105430000000000000000000000000121110000039
:10544000000000000000000000000000000000005C
:105450000000000000302E30323500302E31003197
:105460002E30004D6F766520246D6D0031300000C8
:10547000C0254300004643000037434D6F7665204A
:1054800041786973004D6F7665202A004D6F76650F
:10549000204000C752C352BF52B5524368616E6785
:1054A000652046696C616D656E7400556E6C6F6148
:1054B000642046696C616D656E74004C6F61642098
:1054C00046696C616D656E740050726568656174E3
:1054D00020437573746F6D00507265686561742048
:1054E00024004261636B00200053656C6563742087
:1054F00066726F6D204D6564696100200020002098
:10550000746F6F206C6F6E67206578747275736945
:105510006F6E2070726576656E7465640A00206334
:105520006F6C6420657874727573696F6E20707229
:105530006576656E7465640A004732380070726F74
:105540006D70745F00626567696E004469736162C3
:105550006C6552756E6F75740050757267654D6F2E
:1055600072650050617573656400436F6E74696E97
:105570007565004C6F61642046696C616D656E7481
:10558000205400496E736572742066696C616D65A4
:105590006E7420616E642073656E64204D31303806
:1055A0000A002F2F616374696F6E3A00726573751C
:1055B0006D6564004469736D69737300526573753A
:1055C0006D696E6700290A005D2C200020746F2031
:1055D00000205B00646F5F7A5F636C656172616E6F
:1055E000636528002044697363726570616E637936
:1055F0003A00326E642050726F6265205A3A00534E
:105600004C4F5700536C6F772050726F62653A0AA7
:10561000003173742050726F6265205A3A0046411F
:1056200053540050726F6265204C6F7720506F6941
:105630006E743A200050726F62653A3A72756E5F0E
:105640007A5F70726F626500205A3A200020593AE2
:10565000200042656420583A200050726F62696EE3
:1056600067204661696C65640020706F696E740A1A
:10567000002D72656C6174697665004D6F766520EA
:10568000746F2070726F6265004E6F742052656196
:10569000636861626C650A00203A200A002020637A
:1056A000757272656E745F706F736974696F6E3D49
:1056B000005F72656C6174697665290A002C2000B0
:1056C0002C20002C20002C20002E2E2E2800507282
:1056D0006F62653A3A70726F62655F61745F706F96
:1056E000696E740050726F62653A3A70726F6265EB
:1056F0005F646F776E5F746F5F7A006D6D290A006B
:10570000547269676765726564206561726C79209F
:105710002861626F766520004E6F2074726967673A
:1057200065722E0A002050726F6265206661696C96
:1057300021202D20002C202E2E2E290A002C200086
:105740003E207472795F746F5F70726F6265282E8D
:105750002E2E2C2000486F6D696E67204661696CA3
:10576000656400FF0101290A005D005B002C200038
:105770002C20002E2E2E2800646F5F686F6D696EDE
:10578000675F6D6F766500CB52E457E057DC5720BA
:105790004500205A0020590020204D393220580061
:1057A00053746570732070657220756E6974002281
:1057B0000A00556E6B6E6F776E20636F6D6D616E54
:1057C000643A2022002042002050006F6B00486F96
:1057D0006D652025732046697273740020453A0078
:1057E000205A3A0020593A00583A006F6B0A00528A
:1057F0006573656E643A20005072696E74696E67F5
:105800002E2E2E005072696E74205061757365647F
:105810000000C102330211241FBECFEFD1E2DEBF70
:10582000CDBF00E00CBF84B780934B1B14BE0FB6F6
:10583000F894A89580916000886180936000109230
:1058400060000FBE14E0A0E0B2E0EEEEF1E503E090
:105850000BBF02C007900D92AE35B107D9F72BE10F
:10586000AEE5B4E001C01D92AB34B207E1F71CE233
:10587000CAE0DCE200E006C021970109802FFE01AA
:105880000F94D7A3C930D10780E00807A9F70F9478
:10589000198E0D94E5A80C94000090E080E0089526
:1058A000CF93DF93C091EE11D091EF1181E0CE3113
:1058B000D105E4F020E030E040E05FE36091EA11E0
:1058C0007091EB118091EC119091ED110F94F3A375
:1058D0000F9499A56C1B7D0B77FF03C071956195A3
:1058E000710981E0633071050CF080E0DF91CF91A8
:1058F0000895CF93DF93DB01F9019C919130C1F0C2
:10590000943080F094509C938830D1F480819181C0
:10591000009771F0019791838083480F591FEA0126
:10592000188206C08C3539F49C5F9C93943041F406
:10593000DF91CF9108958B3339F781E08C93F8CFC5
:1059400020813181B9016F5F7F4F71836083420F86
:10595000531FEA018883808191818F3591056CF70F
:10596000E7CF0F931F9381E00091BE1A1091BF1AE9
:105970002091C01A3091C11A4091BA1A5091BB1AA5
:105980006091BC1A7091BD1A0417150726073707D6
:1059900008F480E01F910F91089590E080E0089551
:1059A0002091A719833021F425FD0CC024FD0CC0E3
:1059B00030E0A90102C0559547958A95E2F7CA01E2
:1059C0008170089581E0089580E0089580917006C7
:1059D00084FD0BC08091720687FD07C0909173060D
:1059E000937081E019F480E0089581E008950F93A9
:1059F0001F93CF93DF93C82FD0E0FE01EE0FFF1F60
:105A0000ED5DFD4F71836083CC0FDD1FCC0FDD1F7B
:105A10008E0108591D4F072E000C880B990B0F940F
:105A2000019D2AE037ED43E25CE30F94609DC5578A
:105A3000D94F288139814A815B810F94609DF8019B
:105A40006083718382839383DF91CF911F910F9144
:105A50000895CF92DF92EF92FF92CF93DF9300D021
:105A60001F921F92CDB7DEB7DC01ED91FC9100844F
:105A7000F185E02D1995C92EDD24EE24FF246983DC
:105A80007A838B839C832D81C2FA20F9C1FA21F994
:105A90002D83D701C60188719927AA27BB2721E04A
:105AA000892B8A2B8B2B09F420E06D8120FB62F976
:105AB00029813A814B815C8170E080E090E00F9019
:105AC0000F900F900F900F90DF91CF91FF90EF907C
:105AD000DF90CF9008952FEB280F2A3108F047C0B0
