:100000000C9496390C94C7390C94C7390C94C739A1
:100010000C94C7390C94C7390C94C7390C94C73960
:100020000C94C7390D9468690D9468690D946869DA
:100030000C94C7390C94C7390C94C7390C94C73940
:100040000C94C7390C9420530C94C7390C94C739BD
:100050000C94C7390C94C7390C94E14B0D941E696C
:100060000C94C7390C94A9EA0C9473EA0C94C73920
:100070000C94C7390C94C7390C94C7390C94C73900
:100080000C94C7390C94C7390C94C7390C94C739F0
:100090000C94C7390C94C7390C94C7390C94C739E0
:1000A0000C94C7390C94C7390C94C7390C94C739D0
:1000B0000C94C7390C94C7390C94C7390C94C739C0
:1000C0000C94C7390C94C7390C94C7390C94C739B0
:1000D0000C94C7390C94C7390C94C7390C94C739A0
:1000E0000C94C739084AD73B3BCE016E84BCBFFD98
:1000F000C12F3D6C74319ABD56833DDA3D00C77FF8
:1001000011BED9E4BB4C3E916BAAAABE0000008090
:100110003F05A84CCDB2D44EB93836A9020C50B91F
:10012000918688083CA6AAAA2ABE000000803F0843
:10013000000000BE922449123EABAAAA2ABECDCC32
:10014000CC4C3E00000080BEABAAAAAA3E00000034
:1001500000BF000000803F0000000000084178D38D
:10016000BB4387D1133D190E3CC3BD4282AD2B3E2C
:1001700068EC8276BED98FE1A93E4C80EFFFBE01CC
:10018000C4FF7F3F0000000000000C9497920C9485
:100190006AD60D94C2660C94B7D70C94C5D80C944B
:1001A00002D20D9407060C9498950C9492AD0C9481
:1001B000E13A0C943B9A0D9476650D9443060C94A9
:1001C0005BA10C94DECE0C9478CF0C944EAD0C94C5
:1001D000BCCE0C94FDCE0C94718E0C94DE8E0D94DE
:1001E0007D060C9411D20C94473D0C949FAF0D9456
:1001F00029230C94DF3D0C94B3AC0C94FAAD0C9411
:10020000CCAC0C940CAD0C9408B10C9484D20C942E
:10021000ADD10C94C1D10C9488CE0C949ACF0C948F
:10022000D9CE0D9469060C94F58D0C94A7C60C9448
:10023000CD400D94A3650D9480060C94A89F0C945A
:1002400038EB0C942BD90C94878D0D9440060C94AC
:1002500072C00C949DD60D94F4050C949CD80C940B
:1002600025EB0C94EBDA0C947B8F0D944C040D94DD
:1002700010720C94F7AD0C94CACF0C949E9A0C9407
:10028000FEAC0C949AA00C9455AB0C9453D70C94E0
:10029000CFAB0C9447CE0C9486970D946E070C94BC
:1002A0008B8D0C94EAD90D9434050D9475040C943F
:1002B000C9B20C94858D0C94DFD70C942A8E0C94C3
:1002C00071D70C94FFC60C9441DA0C94B4D20C9400
:1002D000EFD70C946CD10D9440050C9432AD0C9476
:1002E000863A0D94B1650C94868D0C943CEB0C947D
:1002F0001AD10C94FFAF0C9478D90C94B0D90C940B
:10030000A8B00C94F5950C941AD90C9434D20C9492
:100310002F5E0C9448C70C942ED30C94E13E0C94A1
:100320005AD60C94BCCF0C9498D30C9424920C9471
:10033000488E0C940EAD0C94BCD10C9434AC0C943F
:1003400071D60D945D660C94B7DA0C94078F0D94FA
:1003500083660C9440D80C94F9D80C94C33D0C944B
:100360001B720C948D8D0C94D0D10C94C8A00C945D
:1003700030EB0C9453CF0C94D7950C94AFA50C9400
:10038000EED10D9458660C941B9E0C9421C70C94CE
:1003900047A10C9495C10C9483CE0D941C080C9429
:1003A0003AAC0D949F660D9471060C946C8F0C946E
:1003B000559D0D948B660C9403CF0C94BBAC0C94A0
:1003C0005DD10C94AAAC0D942E050D9480080C946C
:1003D0006E3A0D948B650D9489060C944BAC0C947D
:1003E0006F900C9451950C9434EB0C94A8D70C940A
:1003F0003CDA0C9470CE0C9441C40D9495660D9427
:1004000099650C94CDA30D9400060C94DB8D0C948F
:100410007A900C94D4D90C9410D70C9441AC0C94D1
:1004200010A60C9420D20D94B7060C94EACE0D942D
:100430001D050C945C900C94A9BC0C94E7D60C940C
:10044000BF960C945ECE0D946B770D94F7050C94CB
:1004500064950D94542A0C94EDA30C94DAC50C9475
:10046000B6900C9430DA0C94A8920C9408D80C94A2
:10047000D9D90C949FC30C94AFB00C948D900C946C
:100480002ACF0C94F5A00D94B82A0C94D7A30C9401
:10049000A0AD0D948F060C942B8A0D9443080C94F8
:1004A00003AD0C9451D30D94F4070C9462950C9405
:1004B000CECE0C94178E0C94A28E0C9429910C9491
:1004C000BCD60C9487D80C94F8D60C9482A00C94CB
:1004D00075D20C9486D60C941EC50C94948F0C94F3
:1004E00003D10C945CAD0C94B1920C940A910C94D1
:1004F000CFD60D94CC660C94D3CE0C94D8920D9498
:1005000063070D940F080D94D9070C942FAD0D942B
:100510003A060D940E060C9424DA0C940CDA0C9422
:1005200000960D947E650C94F19C0D94F2290C9428
:10053000B0D60C9416920C94C79B0C9420A30C94E8
:100540008FD10C94C3400C9428D80D94B4720C94A1
:10055000E5CE0C94243C0C9465A10C9437AD0C941E
:10056000258F0D947A060C94A9D90C940DA10C94A6
:100570003DCF0C9491AC0C947CDA0C946EA00C944E
:10058000F3CE0C940DC30C949C3A0C944EA10C9495
:10059000019B0C9485D90C948F920C9453CE0C949F
:1005A000463E0C9468CF0D943D060D944B060D9479
:1005B00083060C9475990C94BCD90D948C060C94FC
:1005C0009DD90C9463A30C94DFD10C94D8BD0C94EA
:1005D000E19E0C94CB8F0C9413D10C9443D20D94C8
:1005E00027060C945FD90C940BD10C94B89D0C94F5
:1005F000D18D0C946DCF0C94BF3A0C94D08D0C948B
:10060000DFD20C9475CE0C9442EB0C94A0CF0C94DA
:10061000FBD90C9489D20D94EC050C9446BF0D9433
:10062000B8660C942CB10D94AB650C94E2950D94C6
:100630009D650C94AF980C944CC60D94B9050C9420
:1006400058D80C94D55D0C94658A0C94D73D0D94C4
:1006500095650C9445D10C9401B10C94ACA80D9403
:10066000E6070C9480D70C94AB910C942A9C0C94C4
:10067000C0950D94E9050C9482D90C9406AD0C94A8
:10068000F8D70C9427D10C9464CE0C94D8BF0C945A
:100690001DEB0C94CFCF0C9462910D94D7060C9463
:1006A0008AD10C94A7950C94EA3D0C94D9AA0C9489
:1006B0000BA00C94B5CE0D94EA660C94D9D80D9489
:1006C000B7710C94649B0C94F5AB0D9482650C94FB
:1006D00099D70C940FEB0C94C1A30C9452D20D94A7
:1006E00023060D942C060C94448F0C9453D10D9436
:1006F00074060C94C5CF0C9436A10C9462D60C945D
:1007000053D90C94AD8E0C94AB900C948DAD0C948D
:10071000B1D80C9491D90D94F73C0C9418DA0C9440
:1007200019CE0C94FC8E0C948BC40D94E1040C94A3
:100730007ECE0D947A650C9482AB0C947E9E0C94C4
:1007400059CE0D9446060D943E290C94DBD60C949C
:100750003A900D9401080C94DA910D9494040D9440
:10076000C0240D94446D0C94E9AC0C9420900C942E
:100770008AD70C94C4AC0C94E4EA0C94E4A00C94D6
:100780009ED10C940DA80C94ACA00C9409D90D9496
:1007900091060C9436D10C942CAD0D948F650C946D
:1007A000668E0D9451330D94FE050D9486060C94BF
:1007B0009EAB0C946ED90C9424AD0D94A7650C944B
:1007C000B9A30C94E98E0C948ECE0C9448CF0C9463
:1007D00050A10C944CD80C942CEB0C94C08E0D941E
:1007E000B9200C94538E0C94A1B00C941EA10C94BF
:1007F0006CC60C94253C0D9459070D94A9660C9475
:1008000087CF0C94B7CF0C94C8D60C9422970D9434
:1008100070650C9451900C94459F0C946F910C94BE
:10082000A7AD0C944ECF0C9413960C945ACF0C9405
:10083000B0CF0C9457D20D945C080C940C8E0D9490
:10084000E9130C94C8400C947BD10C94CFD70C9432
:10085000CB8E0C942D8D0C94C4BD0C9453AB0D9485
:10086000E4050C9478960C94ABCF0C949E910C9468
:10087000538F0C9440CE0D94AC050C944C980C9472
:10088000C68A0C948ECF0D94B5650C94A2AC0D94D1
:1008900085650C949DAD0C9472D80D946E060C94E5
:1008A000C8CE0D94D6660D9499070C94663A0D94B3
:1008B0007D070C948E8D0C94DDAA0C9434D80C9486
:1008C00031CF0D9471660C94EFC00C94898D0C940B
:1008D00025D20D9477060C9466D20C943BD90D94D6
:1008E000B0650C9440D70D94E6060C941E960D94BA
:1008F00039070D9450660C94358E0C9467C50C9492
:100900007EAD0C9464D90C9457A30C94A5CF0C9491
:10091000BC8F0C945FCF0D9495020C948B8E0C942D
:10092000E7910C94AC930D9465060D9431060C94EC
:1009300016AC0C9498900C94D6400D945C770C9463
:1009400018D80C940AD30D94BD6D0D94E0660C94E8
:100950005DD80D947B330C94EDD80C94D8990C94FD
:10096000A4D60C940FB40C9443CF0D9490050C9422
:1009700074D30C94A38F0D947A280C9469CE0C94A4
:10098000F3D10C94E9970C9413AC0C9462D70C94AB
:10099000F3D60C9466950C9412990C9492D60D94FF
:1009A00043050D94BD070C94E0400D9448220C942F
:1009B0008D9C0D9425050C9423920C9428D70C94AF
:1009C0007AD60C9472CF0C94F8CE0C9465AC0C943F
:1009D000DB3C0D94EF050C9447D90C9420AD0D949D
:1009E000A4060C94C8D90C94BFD70C9423710C9412
:1009F00009AD0C9429AD0C9411AC0D947B660D944B
:100A000067664E414E494E495459494E46CDCCCC6D
:100A10003D0AD7233C17B7D13877CC2B329595E6D2
:100A2000241FB14F0A000020410000C84200401CB2
:100A30004620BCBE4CCA1B0E5AAEC59D7400407AFF
:100A400010F35A00A0724E18090010A5D4E8000057
:100A5000E87648170000E40B54020000CA9A3B00F5
:100A60000000E1F505000080969800000040420F6C
:100A7000000000A08601000000102700000000E830
:100A800003000000006400000000000A00000000F5
:100A9000000100000000002C76D888DC674F082396
:100AA000DFC1DFAE59E1B1B796E5E3E453C63AE6FC
:100AB00051997696E8E6C28426EB898C9B62ED40DC
:100AC0007C6FFCEFBC9C9F40F2BAA56FA5F490052B
:100AD0005A2AF75C936B6CF9676DC11BFCE0E40D5F
:100AE00047FEF520E6B500D0ED902E030094357753
:100AF000050080841E080000204E0A000000C80C7B
:100B0000333333330F986E12831141EF8D211489E3
:100B10003BE65516CFFEE6DB18D1844B381BF77C3D
:100B20001D901DA4BBE424203284725E228100C982
:100B3000F124ECA1E53D2745786974004D3530304E
:100B4000005465737420313A2053747265737320B6
:100B500074657374696E672E2E2E0054657374204D
:100B6000333A205072696E7465722077696C6C201C
:100B7000726573746172742E005465737420323A16
:100B8000205072696E7465722077696C6C20726592
:100B900073746172742E0047302058313030205900
:100BA000313030205A3130302046363030300A541F
:100BB000300A47342053310A47302058313530202D
:100BC00059313530205A31353000473238004265CE
:100BD0006400436F6F6C646F776E2028416C6C20EB
:100BE0004F666629004265642054656D70657261C8
:100BF0007475726500C2B0430052656C65617365BF
:100C000020746F20626567696E2073637265656E1C
:100C10002063616C6962726174696F6E00546F75F4
:100C200063682074686520646F747320746F206338
:100C3000616C696272617465004261636B00307857
:100C40002530386C580030782530386C58003078B2
:100C50002530386C580030782530386C58003078A2
:100C60002530386C580030782530386C580000003A
:100C700000000000544F5543485F58464F524D5FA7
:100C80004600544F5543485F58464F524D5F45000C
:100C9000544F5543485F58464F524D5F4400544FA0
:100CA0005543485F58464F524D5F4300544F55439C
:100CB000485F58464F524D5F4200544F5543485F7E
:100CC00058464F524D5F41004261636B0032003124
:100CD000006E6FFF7965730053686F7720677269E4
:100CE000643A0053616D706C652057696467657480
:100CF000730048003C000200480040000200000071
:100D0000FF0000004D6564696120496E736572746F
:100D1000656400556E61626C6520746F2072656158
:100D200064206D656469612E0045003A000A004543
:100D30000039000A00450038000A00450037001459
:100D4000000000FF00000048004000020048003C96
:100D50000002000000FF0000004D65646961205240
:100D6000656D6F766564004C756C7A426F74204CCB
:100D7000756C7A426F742042696F20726561647984
:100D80002E005072696E74696E672E2E2E0050729E
:100D9000696E7420506175736564000000FF000087
:100DA0000000002D43000040430000374300004096
:100DB000C00000A0C00000000057726974696E672F
:100DC0002073657474696E6720746F2045455052B6
:100DD0004F4D0A00290A002062797465733B206335
:100DE0007263200053657474696E67732053746F67
:100DF0007265642028004C6F6164696E67207365BA
:100E00007474696E672066726F6D20454550524F4D
:100E10004D0A00454550524F4D206461746173691D
:100E20007A65206572726F722E0A00290A002062AC
:100E3000797465733B2063726320002073746F7252
:100E400065642073657474696E677320726574726B
:100E50006965766564202800202863616C63756C81
:100E60006174656429210A0020213D200045455018
:100E7000524F4D20435243206D69736D6174636816
:100E8000202D202873746F72656429200020536917
:100E90007A653A2000496E6465783A2000204D61F9
:100EA000726C696E3D563639290A00454550524FDD
:100EB0004D2076657273696F6E206D69736D617414
:100EC00063682028454550524F4D3D0045455052DE
:100ED0004F4D20496E697469616C697A65640A00D6
:100EE00048617264636F6465642044656661756C13
:100EF000742053657474696E6773204C6F61646508
:100F0000640A002823000028230000C8000000E82D
:100F100003000000009643000096430000F04100EB
:100F20000020420000C8420000C84200007A44335A
:100F3000A3134620204D3930360020204D3931335F
:100F40000020204D3931340020204D3536392053D2
:100F50003100205300205A00205900205800202042
:100F60004D3432352046004261636B6C61736820FA
:100F7000636F6D70656E736174696F6E3A0A0020FD
:100F8000204D393030204B004C696E656172204134
:100F90006476616E63653A0A005430204500205A39
:100FA00000205900205800447269766572207374DD
:100FB000657070696E67206D6F64653A0A0020592C
:100FC000002058005374616C6C4775617264207422
:100FD00068726573686F6C643A0A0020543020456B
:100FE00000205A0020590020580048796272696434
:100FF000205468726573686F6C643A0A002054303C
:10100000204500205A002059002058005374657074
:10101000706572206472697665722063757272659C
:101020006E743A0A0020440020490020204D3330DD
:101030003420500020440020490020204D3330311E
:101040002050005049442073657474696E67733A88
:101050000A00204500205A00205900205800205442
:101060000020530020204D32303520420020453CE6
:101070006D61785F655F6A65726B3E0020583C6DFC
:1010800061785F785F6A65726B3E20593C6D61786C
:101090005F795F6A65726B3E205A3C6D61785F7A5A
:1010A0005F6A65726B3E00416476616E6365643AA7
:1010B00020423C6D696E5F7365676D656E745F7429
:1010C000696D655F75733E20533C6D696E5F666543
:1010D0006564726174653E20543C6D696E5F747224
:1010E0006176656C5F66656564726174653E00205B
:1010F000540020520020204D3230342050004163F3
:1011000063656C65726174696F6E2028756E6974B1
:10111000732F7332293A20503C7072696E745F618C
:101120006363656C3E20523C726574726163745FE8
:10113000616363656C3E20543C74726176656C5FDC
:10114000616363656C3E0A00204500205A00205907
:101150000020204D3230312058004D6178696D7586
:101160006D20416363656C65726174696F6E2028E0
:10117000756E6974732F7332293A0A002045002076
:101180005A0020590020204D3230332058004D6144
:1011900078696D756D20666565647261746573202C
:1011A00028756E6974732F73293A0A005374657039
:1011B000732070657220756E69743A0A0020286D7C
:1011C0006D29002020473231202020203B20556E01
:1011D00069747320696E206D6D006F70656E0054C8
:1011E0005249474745524544003A20007A5F6D61B5
:1011F00078007A5F6D696E00795F6D617800785F65
:101200006D617800785F6D696E005265706F727401
:10121000696E6720656E6473746F70207374617497
:1012200075730A00205A3A0020593A0020436F751E
:101230006E7420583A0020453A00205A3A0020594E
:101240003A00583A0020746F6F206C6F6E6720650B
:101250007874727573696F6E2070726576656E74DE
:1012600065640A0020636F6C64206578747275731E
:10127000696F6E2070726576656E7465640A0048E9
:101280006F6D696E67204661696C6564000000409F
:10129000C000004043000037435761726E696E67BB
:1012A0003A20486F6D696E672042756D7020446901
:1012B0007669736F72203C20310A0002020400003C
:1012C0004842000048420000C84100000000000001
:1012D00000000000004000003043000045430000D3
:1012E0003743FF010124F4D43050C38E20C2A24002
:1012F00017828B7011127A910D816CD90AA861E165
:1013000008C7586607615143061E4B5D05C145A7D6
:10131000041A411104093D9803713931034036DB49
:101320000265339102D4305402802E1D02632CEEEC
:1013300001752AC501B028A001102781018F2564FD
:10134000012B244B01E0223401AC211F018D200D23
:1013500001801FFC00841EED00971DDF00B81CD229
:1013600000E61BC600201BBC00641AB200B219A81C
:10137000000A19A0006A189900D117910040178B34
:1013800000B516840031167E00B31579003A157346
:1013900000C7146F0058146A00EE136600881363C8
:1013A0000025135E00C7125B006C12570015125423
:1013B00000C111510070114F0021114B00D610498E
:1013C000008D1047004610440002104200C00F403C
:1013D00000800F3E00420F3C00060F3B00CB0E3852
:1013E00000930E37005C0E3500270E3400F30D32EB
:1013F00000C10D3100900D3000600D2E00320D2D1A
:1014000000050D2C00D90C2B00AE0C2900850C29F1
:10141000005C0C2700350C27000E0C2600E80B247E
:1014200000C40B2400A00B23007D0B23005A0B21CA
:1014300000390B2100180B2000F80A1F00D90A1EE2
:1014400000BB0A1E009D0A1D00800A1D00630A1CC5
:1014500000470A1B002C0A1B00110A1A00F7091A80
:1014600000DD091900C4091900AB09190092091718
:10147000007B091800630917004C0916003609168D
:1014800000200916000A091500F5081500E00814E7
:1014900000CC081400B8081400A408140090081325
:1014A000007D0812006B081300580812004608124D
:1014B000003408110023081100120811000108115E
:1014C00000F0071000E0071000D0071000C0071060
:1014D00000B0070F00A107100091070E0083070F4F
:1014E0000074070F0065070E0057070E0049070E2E
:1014F000003B070D002E070E0020070D0013070DFF
:101500000006070D00F9060C00ED060D00E0060CC4
:1015100000D4060C00C8060C00BC060C00B0060C7B
:1015200000A4060B0099060C008D060B0082060B2A
:101530000077060B006C060B0061060A0057060BCD
:10154000004C060A0042060A0038060A002E060A67
:101550000024060A001A060A001006090007060AF7
:1015600000FD050900F4050900EB050900E2050985
:1015700000D9050900D0050900C7050900BE050905
:1015800000B5050800AD050800A50509009C050883
:1015900000940508008C050800840508007C0508F7
:1015A00000740508006C050700650508005D050767
:1015B00000560508004E05070047050700400508CE
:1015C0000038050700310507002A05070023050735
:1015D000001C050600160507000F05070008050694
:1015E0000002050700FB040600F5040700EE0406F0
:1015F00000E8040600E2040700DB040600D5040648
:1016000000CF040600C9040600C3040600BD04069A
:1016100000B7040600B1040500AC040600A60406E9
:1016200000A00405009B0406009504050090040634
:10163000008A04050085040500800406007A04057C
:101640000075040500700405006B040500660405C0
:1016500000610405005C0405005704050052040500
:10166000004D04050048040500430405003E040441
:10167000003A04050035040500300404002C04057C
:101680000027040400230405001E0404001A0404B7
:101690000016040500110404000D040400090405EB
:1016A000000404040000040400FC030400F8030424
:1016B00000F4030400F0030400EC030400E8030456
:1016C00000E4030400E0030400DC030400D8030486
:1016D00000D4030400D0030400CC030400C80303B7
:1016E00000C503030024F404D9201BC40C5C0E982D
:1016F00004C4095F0265077101F405F900FB04B336
:101700000048048700C103690058035500030345DE
:1017100000BE023A008402310053022A0029022549
:101720000004022000E4011C00C8011900AF0117E9
:101730000098011400840113007101100061011070
:101740000051010E0043010D0036010B002B010B6F
:101750000020010B00150109000C0109000301081C
:1017600000FB000800F3000800EB000700E400069F
:1017700000DE000600D8000600D2000600CC0005FE
:1017800000C7000500C2000500BD000400B9000448
:1017900000B5000400B1000400AD000400A900047D
:1017A00000A5000300A20003009F0004009B0003AB
:1017B00000980003009500020093000300900003CE
:1017C000008D0002008B00030088000200860002EA
:1017D0000084000300810002007F0002007D0002FF
:1017E000007B000200790002007700010076000211
:1017F000007400020072000100710002006F00021C
:10180000006D0001006C0002006A00010069000226
:10181000006700010066000100650001006400022D
:10182000006200010061000100600001005F000231
:10183000005D0001005C0001005B0001005A000136
:101840000059000100580001005700010056000136
:101850000055000100540001005300000053000136
:10186000005200010051000100500001004F000132
:10187000004E0000004E0001004D0001004C000130
:10188000004B0000004B0001004A0001004900012C
:101890000048000000480001004700010046000029
:1018A0000046000100450000004500010044000121
:1018B000004300000043000100420000004200011C
:1018C000004100000041000100400001003F000015
:1018D000003F0001003E0000003E0001003D00000E
:1018E000003D0001003C0000003C0000003C000105
:1018F000003B0000003B0001003A0000003A0001FC
:1019000000390000003900010038000000380000F4
:1019100000380001003700000037000100360000E9
:1019200000360000003600010035000000350000E0
:1019300000350001003400000034000000340001D4
:1019400000330000003300000033000100320000CB
:1019500000320000003200010031000000310000C0
:1019600000310001003000000030000000300001B4
:10197000002F0000002F0000002F0000002F0001AA
:10198000002E0000002E0000002E0001002D00009F
:10199000002D0000002D0000002D0001002C000093
:1019A000002C0000002C0000002C0001002B000087
:1019B000002B0000002B0000002B0001002A00007B
:1019C000002A0000002A0000002A0001002900006F
:1019D0000029000000290000002900000029000162
:1019E0000028000000280000002800000028000057
:1019F0000028000100270000002700000027000049
:101A0000002700000027000100260000002600003B
:101A1000002600000026000000260001002500002E
:101A20000025000000250000002500000025000022
:101A30000025000100240000002400000024000014
:101A40000024000000240001002300000023000007
:101A500000230000002300000023000000230000FA
:101A600000230001002200000022000000220000EC
:101A700000220000002200000022000100210000DE
:101A800000210000002100000021000000210000D2
:101A900000210000002100010020000000200000C3
:101AA00000200000002000000020000000200000B6
:101AB0000020000000200001001F0000001F0000A7
:101AC000001F0000001F0000001F0000001F00009A
:101AD000001F0001001E0000001E0000001E00008C
:101AE000001E000000C23100001C260000F4190096
:101AF00000D80F0000EB080000C0040000750200D1
:101B00000040010000626564002C207379737465E5
:101B10006D2073746F707065642120486561746511
:101B2000725F49443A2000426564204865617469E7
:101B30006E67204661696C65640048656174696E12
:101B400067206661696C65640042454420544845DD
:101B5000524D414C2052554E4157415900546865F1
:101B6000726D616C2052756E6177617900486F7497
:101B7000656E642048656174696E67204661696CB2
:101B800065640048656174696E67206661696C65AB
:101B90006400486F74656E6420544845524D414C52
:101BA0002052554E4157415900546865726D616C21
:101BB0002052756E61776179001000AD0330016AC3
:101BC0000150022B0170030A019004F500B005E5F5
:101BD00000D006D800F007CE001009C500300ABEBC
:101BE00000500BB700700CB100900DAB00B00EA60A
:101BF00000D00FA200F0109D001012990030139534
:101C0000005014920070158E0090168B00B017874C
:101C100000D0188400F0198100101B7E00301C7B5E
:101C200000501D7900701E7600901F7300B0207068
:101C300000D0216E00F0226B001024690030256670
:101C400000502663007027610090285E00B0295C78
:101C500000D02A5900F02B5600102D5400302E5180
:101C600000502F4E0070304B0090314800B032458C
:101C700000D0334200F0343E0010363B003037379E
:101C8000005038330070392E00903A2900B03B23C1
:101C900000D03C1B00F03D1100103F0100F03F0060
:101CA00000486F74656E64204572723A204D415849
:101CB00054454D50004572723A204D415854454D9F
:101CC0005020424544004D415854454D50207472B7
:101CD0006967676572656400486F74656E64204566
:101CE00072723A204D494E54454D50004572723A39
:101CF000204D494E54454D5020424544004D494EDB
:101D000054454D50207472696767657265640020A0
:101D10002F002042403A0020403A007C3C3E5E2B9F
:101D20003D3F2F5B5D3B2C2A225C0043616E6E6F52
:101D300074206F70656E2073756264697220005341
:101D4000442063617264206F6B0A006F70656E528D
:101D50006F6F74206661696C65640A00766F6C75DC
:101D60006D652E696E6974206661696C65640A0030
:101D7000534420696E6974206661696C0A004D32B3
:101D800034004D32332025730057726974696E67D1
:101D900020746F2066696C653A20002E0A006F700F
:101DA000656E206661696C65642C2046696C653AD5
:101DB00020002E0A006F70656E206661696C656494
:101DC0002C2046696C653A200046696C6520736575
:101DD0006C65637465640A002053697A653A200073
:101DE00046696C65206F70656E65643A20006672A6
:101DF00065736800646F696E67002066696C653A98
:101E000020004E6F772000454E4420535542524FDC
:101E10005554494E450A002220706F7300222070ED
:101E20006172656E743A2200535542524F555449BF
:101E30004E452043414C4C207461726765743A22D0
:101E400000747279696E6720746F2063616C6C2016
:101E50007375622D67636F64652066696C657320B6
:101E60007769746820746F6F206D616E79206C657E
:101E700076656C732E204D4158206C6576656C201C
:101E800069733A310A00000020002300260029006F
:101E90002C002F003200000100000301060109019F
:101EA0004400450002004400430002004400450095
:101EB0002300000000000C00440043000400440024
:101EC0004100040044004000040044003E000400BF
:101ED00044003D00100044003E00200000000000CF
:101EE0002A00440039000200440037000200440088
:101EF00039002300000000000900440034000800FD
:101F00004400350008004400310010004400320055
:101F10001B00000000002A0044002D0002004400C5
:101F20002B00020044002D002300000000000C00E4
:101F300044002B0004004400290004004400280051
:101F40000400440026000400440025001000440062
:101F50002600200000000000340044003100090089
:101F600044003400090044003700090044003A00EE
:101F7000090044003D0009004400400009004400FD
:101F80003E001400000000001E0044003D0004005C
:101F900044003E00020044004000020044003D00B6
:101FA000020044003E0002004400400002004400E1
:101FB0003D00020044003E000200440040000200D8
:101FC00044003D00020044003E0004004400400084
:101FD00004004400410002004400430002004400A9
:101FE000400002004400410002004400430002009F
:101FF000440040000200440041000200440043004D
:10200000020044004000020044004100040044007B
:102010004300040044004500020044004600020062
:102020004400430002004400450002004400460012
:102030000200440043000200440045000200440046
:102040004600020044004300020044004500040032
:1020500000000000240044004900040044004A003D
:10206000020044004C000200440049000200440009
:102070004A00020044004C000200440049000200F3
:1020800044004A00020044004C00020044004900A1
:10209000020044004A00040044004C0004004400D4
:1020A0004D00020044004F00020044004C000200BA
:1020B00044004D00020044004F00020044004C0068
:1020C000020044004D00020044004F0002004400A2
:1020D0004C00020044004D00040044004F00040086
:1020E00044005100020044005200020044004F002E
:1020F000020044005100020044005200020044006B
:102100004F0002004400510002004400520002004F
:1021100044004F0002004400510004000000000091
:10212000200044005100040044004F00020044001D
:102130005200020044004C00020044004F00020024
:1021400044005200020044004C00020044004D00D4
:10215000020044005100020044004A000200440012
:102160004D00020044004F00020044004A000200FB
:1021700044004C00020044005100020044004800AA
:10218000020044004C0002004400510002004400E0
:102190004800020044004A00020044004D000200D2
:1021A00044004600020044004A00020044004C0083
:1021B00002004400460002004400480002004400BF
:1021C0004C0002000000FF000000000000000800BA
:1021D00053003C00080055003C00080054003C003F
:1021E000080052003C0008000000000008005300F6
:1021F0003C00080055003C00080054003C0008006A
:1022000052003C00080000000000080053003C00A1
:10221000080055003C00080054003C000800520033
:102220003C0008000000FF00000008003C004000E7
:102230000000FF00000007003C0040000000FF001D
:10224000000006003C0040000000FF000000050008
:102250003C0040000000FF0000004100410003007E
:1022600041004300030041004100030041003E00E3
:10227000030041003A000300000000000300450095
:1022800041000300450043000300450041000300F6
:1022900045003E00030045003A0003000000000036
:1022A000030042002E00060042002E0006004200FD
:1022B0002E00040042002E00060042002E00060000
:1022C0000000FF0000004700370005004700400005
:1022D000050047003C0005000000FF000000000072
:1022E000FF0000004D383420585900473020453059
:1022F000204631323000BC80D76FAF80D871C87FA4
:10230000D971B77FD86FBC80D76FFFFFCB83F66FD3
:10231000CD840B703E8406725B83F471FFFFA97C51
:10232000F86F1A7DF571377C0772A77B0D70A97C59
:10233000F86FA97CF86FFFFFCD876870C78892702F
:10234000BA877C72DF865872FFFFA8786B70977926
:102350005A72BA787E72AD779570A8786B70A8784B
:102360006B70FFFFA78B2C71958C6A71108B397382
:102370003F8A0373FFFFCE742F7135760773647540
:102380003C73DE736D71CE742F71CE742F71FFFFAD
:10239000478F3F7223908E722D8E3A746B8DF4733B
:1023A000FFFF2D7142720973F77348723D745070CC
:1023B00092722D7142722D714272FFFF9B929A733D
:1023C0005C93FA73009178755A902775FFFFDC6D66
:1023D0009D7322702775746F7C75166DFF73DC6DAD
:1023E0009D73DC6D9D73FFFF899533753496A475DD
:1023F0007E93ED76E8928B76FFFFEB6A39758D6DF3
:102400009076FB6CF076406AA975EB6A3975FFFF30
:102410000B9807779A988477979592781A952578EC
:10242000FFFF6A680C775B6B2A78DF6A9778DD6755
:1024300088776A680C776A680C77FFFF129A0A79C6
:102440007E9A917940975E7AE196E879FFFF64661B
:102450000F799669ED793769637AF96596796466DB
:102460000F7964660F79FFFF919B327BDB9BC17B09
:102470007098487C3198CC7BFFFFE664377B4768D7
:10248000D07B07684C7C9D64C57BE664377BE66443
:10249000377BFFFF829C727DA79C067E2599467E36
:1024A0000399C57DFFFFF763787D7667C97D566721
:1024B000497ED3630A7EF763787DF763787DFFFFFB
:1024C000E09CC07FE09C558057994D805799CB7F09
:1024D000FFFF9D63C57F2667CE7F266751809D6382
:1024E0005A809D63C57FFFFF2799D181AA9C1082E6
:1024F000879CA282079952822799D1812799D181FD
:10250000FFFF5767D58177675682F963A782D46347
:102510001482FFFF7798CF83E29B5584999BE384D5
:1025200038984C847798CF83FFFF0868D383486836
:102530005084E764E8849E645A84FFFF4997B98514
:10254000889A84861D9A0C87EB962E864997B985C2
:102550004997B985FFFF3869BD85976934866566F7
:102560001087F9658986FFFFA2958587A5989288CF
:1025700018980F892795F287A2958587A295858758
:10258000FFFFDF6A8A875B6BF8876A681589DC67FB
:102590009788FFFFF76C30898D6D9189EB6AE98A26
:1025A000406A798AFFFF809332894596728A9995AD
:1025B000E38AF5928D8980933289FFFF1091A18A79
:1025C0006F931F8CAA92808C6490F78A1091A18AD5
:1025D0001091A18AFFFF736FA58A2170FB8AED6DB0
:1025E0008C8C176D238CFFFF3E8EE18B37908B8D8B
:1025F000598FDC8D7C8D278C3E8EE18B3E8EE18B5E
:10260000FFFF5972EB8B1B73318C4071E78D647047
:10261000978DFFFF218BE38CA98CB28EBA8BEF8E46
:10262000518A188D218BE38C218BE38CFFFF76750B
:10263000EB8C4876208DE074F88EF273BB8EFFFF32
:10264000CD87A18DDC888B8FE087B58FF086C68D16
:10265000CD87A18DCD87A18DFFFFCC78A88DA879DE
:10266000CB8DBC78BB8FC077928FFFFF5084198EC3
:10267000E2841490E08329906C832C8E5084198E10
:102680005084198EFFFF487C1C8E2B7D2E8EBD7CC6
:102690002C90BB7B1790FFFFBE80498ED1804A9063
:1026A000CC7F4A90D97F498EBE80498EFFFF7682CB
:1026B000D675AF83FE7536842876AE846176428502
:1026C00006771285BA775784457835838B781883D7
:1026D0008278D88260781E83307853832378E683AB
:1026E000F977648490777A841A771584B776B683FD
:1026F0009176518376767F826276BB81877661811F
:10270000AF762381DA76E5801A77C5804D77B88079
:10271000C177D180EE7707811478CC816B787F8385
:10272000187964848379C084B2792D85FD799D857B
:10273000BC7A8E85797B4585257CD984C57C698466
:102740004D7D3B84CD7D5585A87DD385677D0D87E7
:10275000A07CE087C07B0D885B7B6D88467AB38860
:102760009B79CC8870793A89EA789589A878018A2A
:102770006F78F88A1F78A68BFD770C8CEF77968C94
:10278000FB771D8D1578598D2678408E8978DB8EE4
:102790002579FC8E7B79FF8ED479718E7B7A588D6A
:1027A000D27A238CDE7AFF8A977AF58A817AEF8A49
:1027B0004E7A688B527A968B5F7A398C877A338D12
:1027C0007F7A078E3F7A668ECB79638E8579438ECA
:1027D0003F79C68DC678FA8C76787E8C5F78188CB7
:1027E0005778848B7478228B8F787D8ACA782E8A6A
:1027F000F978F0893079A389A5797989C07A7C89BB
:102800009C7B7289F27BCC88327DB7874C7E658653
:10281000527F60865A7F8F87017FAE88C27EFD8996
:102820009E7E8D8BC67E408C0E7FB68C687F1D8D04
:10283000D77FFA8DBD80A88E6E81348FD4818A8F28
:10284000F981DA8F0A82AB900F822091FF81A591E6
:10285000DC81F491B8812C92988188922B817D92B1
:10286000AB80529268801C9233807491EB7F999078
:10287000EB7FCF8F29805D8F8D80478FA480D48E92
:10288000A480C58E7080658FE67F6D90927FA49145
:10289000907FA892F77FFC92438031939080499378
:1028A0003D81D192E38164922782E5915B825D91C3
:1028B0008082D3909682A08F9A822C8F8682E78E18
:1028C0007382788E4A82A98DD481B98C2781688BD6
:1028D0002C80228B0180C38AE77F508AF47FFD8899
:1028E0006880A4871D819E872D810489F181D48908
:1028F00085827C8A4383948A31844E8AA184E889C4
:102900000E852F89E585B088E586C0885787F288CF
:102910008D872789AD87BF8A21880E8B1E88708B93
:1029200011881B8CD6879B8C7687C48C3D87D38C73
:102930000587A28CA386068C6286398B4F86778AA0
:102940006286F9894D86108A0686668AF785358BF8
:10295000DC85508CFD853C8D6386948D0A877D8D4A
:102960005F873A8DB887B18C2D88C18B8C88308B6E
:10297000A7888D8AAE88EE8998886E897E88698856
:102980002D88EE87EA87A487A8878E8785874D875D
:10299000E3865D873786FD87668405875A83B88618
:1029A0005983A4845883207F1B85137F4D8616800E
:1029B000F9868E81D8873B8269887282C98876823F
:1029C000158966823D89FB81D8899781218A198181
:1029D000628AA7808A8A1680AA8ADC7EAE8AC57D32
:1029E000638A557D298AFA7CE589AD7C39891B7D0E
:1029F0009588007E2588277F0088667F0F88697FFD
:102A00005088497E73889A7DC9884F7D3E898B7D29
:102A1000B289D87DE689367E108A027F408ADB7FC4
:102A2000348A4680168A9180F589A580EB89FE80DC
:102A3000AB8926818189598118894F81E68828814F
:102A4000B88894805688FC7E9687747DE7863D7DA5
:102A5000C586D87C7486987C0586A07C36857C7D6E
:102A6000E683077E5783ED7D5B83CC793E84627974
:102A70004884CB775084F37638843E761E84027582
:102A8000FE836C74FD83E4730A84CE7244849B726B
:102A90005784E671B784B571EB849B713B859B715C
:102AA0005885D471E085B0724286D4736186B37460
:102AB0001686AD74D784B274B384B5749B841E75C6
:102AC00096843B75B884C5756E856D755A86D074CD
:102AD000B886FA73EA865072CF86E7703F867E70BA
:102AE000C8855F7049857570CC84AC707584CD7075
:102AF0005284FF719C83877276836A733A8343742E
:102B000019831E751183AC762783C47741831078AF
:102B100040839F7913832A7AEA82247B8182E47B33
:102B20000C82EC7BB1815E7AC8810978ED815177A6
:102B3000F8816476EF817175B481BB7441818374CF
:102B4000F98008742F80D973EB7F5973507FA0727E
:102B5000C47E9E71897E7470A87E1570CC7ED06F05
:102B6000F87EA36F197F6B6FBB7F936F1780A76F82
:102B70003280D76F5A80DF70928005725A809E72C1
:102B8000CB7FB372BC7F0973A67F3B73DE7FF97284
:102B90004B806D72A780E670FB800D70EC80486FF3
:102BA000A880FC6E7380C16E2680936ECC7FD46E3D
:102BB000D87E546F727ECB6F3A7E0B70257EAB71E0
:102BC000ED7D56733E7E7274F47E3675BD7FDA7588
:102BD00075802876B6807B76D880D976EF80557759
:102BE000FC808178D58031799380007A1E809B7932
:102BF0009B7D9A78D87CC077E57B8377557B8777F8
:102C0000B97AAE77677AE6771D7A1E78CD795E78E5
:102C100009795378C07823788B7808787578497665
:102C2000E877B67469788874B37872740179D2746D
:102C30006F79D8759A79EE7671794A777A79517782
:102C4000B479A076F079E4750A7A5474E179AF73B7
:102C5000867969730979747391789D733C78B6733A
:102C60001E78B77468775D762C77ED77697732795F
:102C7000FC7779793678B8797B78DF791279987929
:102C8000147A6779B47A6A79D87AC579607B9D7A43
:102C9000E97B727B477CBA7ED67B0682A87CFA826F
:102CA0002E7C9183B47BF683407B1384D07ADD83C2
:102CB000717A8A83397A9682B779F380FA781680A6
:102CC0008A78B47F33788D7FDF77927FA977B37F5F
:102CD0001877F67FC27636808A7697804A76DF80CC
:102CE0002A763C8105767582D5759FDB0CAC6FDA50
:102CF0002DAC70D991ACC0D823AD85D8CFADC0D89C
:102D00007AAE70D90CAF6FDA6FAF9FDB8FAFCEDCCE
:102D10006FAFD0DD0CAF7DDE7BAEB9DECFAD7DDE3B
:102D200022ADD0DD91ACCEDC2DACFFFF9FDBC3AB81
:102D3000FEDCEAAB28DE5EACF1DE06AD36DFCFAD01
:102D4000F1DE95AE28DE3EAFFEDCB1AF9FDBD8AF43
:102D50003FDAB1AF16D93EAF49D895AE08D8CFAD5E
:102D600049D806AD16D95EAC3FDAEAABFFFF7DDB92
:102D7000E6ACE4DAE6ACE4DAA9AD7DDBA9AD3BDC98
:102D800094AD71DC48AD3BDCFDACFFFF85DB9EAC58
:102D9000CBDCC8AC37DD47ADF6DCACAD3EDCDEAD40
:102DA00085DCFFADE8DC4EAE92DDEAAEBDDCEAAE1E
:102DB0001EDC58AEA7DB03AE36DBEFADE4DAEFADD9
:102DC000E4DAEAAE26DAEAAE26DA9EACD5D820A559
:102DD000A5D863A52ED87FA548D37FA5D1D298A525
:102DE000A0D2D9A5A0D27AAF74D2BEAF02D2DAAF48
:102DF00037CDDAAFBFCCBEAF8FCC7AAF8FCCD9A5F1
:102E000063CC98A5F1CB7FA50BC77FA594C663A51E
:102E100064C620A564C68CA20BC72CA22ED82CA2F7
:102E2000A5D848A2D5D88CA2FFFF38B18CAC52B936
:102E30008CAC52B97FA538B17FA5FFFF27BF21A475
:102E400057BF76A46DBFD0A46DBF36AD57BF90AD50
:102E500027BFE6ADFABBB2AF60BBCFAFBDBADAAF4A
:102E6000CEAFDAAF30AFCFAF9AAEB2AF6EABE6ADAA
:102E700039AB90AD28AB36AD28ABD0A439AB76A436
:102E80006EAB21A49AAE55A230AF39A2CEAF2CA220
:102E9000BDBA2CA260BB39A2FABB55A2FFFFA49316
:102EA000DCACEA9CDCACEA9C34AAA49334AAA493DC
:102EB000DCACFFFFA49396A7EA9C96A7EA9C25A505
:102EC000A49325A5FFFF27A221A458A278A46EA24F
:102ED000D5A46EA200A74FA257A704A2A5A789A0B8
:102EE000B8A861A003A992A049A9FCA143AA4BA23A
:102EF00091AA6EA2E8AA6EA236AD58A290AD27A202
:102F0000E6ADFC9EB2AF619ECFAFBE9DDAAFD08E74
:102F1000DAAF288E7AAF288E8CA2598E48A2D08E36
:102F20002CA2BE9D2CA2619E39A2FC9E55A2FFFF41
:102F30003C8502A5178557A5C984A2A59479C8AC7C
:102F40009484C8AC0A85E4AC3C8527AD3C857AAF57
:102F50000A85BEAF9484DAAF7173DAAFC9727AAF03
:102F6000C97209ADE872B2AC337364ACA57E3EA5FC
:102F7000A6733EA52F7322A5FE72DFA4FE728CA25B
:102F80002F7348A2A6732CA294842CA20A8548A26F
:102F90003C858CA2FFFF686B87ACDB6BA3AC076C36
:102FA000E6AC076C7AAFDB6BBEAF686BDAAF845C04
:102FB000DAAFDC5B7AAFDC5B8CA2845C2CA246616E
:102FC0002CA2EE618CA2EE612DAC1E626EAC9562FD
:102FD00087ACFFFFC65248A2F7528CA2F75245AD0C
:102FE000EE5245ADDC529BADB152E6AD854FB2AF6E
:102FF000EA4ECFAF474EDAAF5943DAAFBA42CFAF5E
:103000002442B2AFF83EE6ADC33E90ADB23E36AD1F
:10301000B23E8CA2E23E48A25A3F2CA21B442CA2F4
:10302000934448A2C3448CA2C3442DACF44471AC75
:103030006B458CAC3E4C8CACB14C71ACDD4C2DACCA
:10304000DD4C8CA20D4D48A2854D2CA24F522CA2D6
:10305000FFFF483787ACBB37A3ACE737E6ACE737B1
:103060007AAFBB37BEAF4837DAAF6428DAAFBC27D8
:103070007AAFBC278CA264282CA2262D2CA2CD2DA1
:103080008CA2CD2D2DACFE2D6EAC752E87AC48805C
:103090007A52DE8ADE5CB275DE5CFFFF4880F64F56
:1030A000D971205EB88E205E4880F64FFFFF36440F
:1030B0008E8DCC4EF297A039F297FFFF36440A8BE3
:1030C000C8353499A5523499FFFF3DBC8E8DD4C6C6
:1030D000F297A7B1F297FFFF3DBC0A8BCEAD3499B2
:1030E000ACCA3499FFFF458078676D7FA7679D7EE6
:1030F0009F68497DEA69417B816A08793A6A267747
:103100002C69EA755A6805754C684A749968F573B4
:10311000A86945731A6B9371F86B4D6F086CFA6C64
:10312000456B616BA36A7D6AB76AEB691D6B1D6AAB
:10313000346C226AB86DE568CD6EB966336F17647A
:10314000C56E39625C6E6561916E0861096FC1611F
:10315000187082629671CF61D172E55F8473385DB9
:1031600080734B5B6573975AB773745A3874905B6E
:103170002075E85C7176CB5CBB77435BB078B65862
:103180001479D75644794F56AD7967562F7ADA5766
:10319000E37AB759F37B315A377D27595D7EE05684
:1031A0001E7F2955937FD7540D8029558780E0567F
:1031B000FD802659BE81305AE582B5592884D857FA
:1031C00038856456EB854C566D86D456D786B258F2
:1031D00008873F5B6B87C65C6088E35CAA898B5B72
:1031E000FC8A6D5AE38B915A658C445BB78C325DD7
:1031F0009C8CDE5F988CC7614B8D7A62878EB9613B
:103200000590FF6014915C618B912F62C0910E64F8
:103210005891B066EA90DC685091186A6692126A1A
:10322000E993E0690195726A6795566B7B95EE6C40
:10323000D994436F17948871289439730695E9736C
:1032400078963E748797F874D497DD75C6971A7789
:10325000F496FB78E695357BA1953D7D3796917E7A
:103260008297607F7A983880AA980F817B98DF8157
:103270008297338338963B85A1957587E795568964
:10328000F596928AC897788BD697328C8997888CD6
:103290007A96378D0895E98E2A942F911A94839304
:1032A000DD941B957F95FF956B959096059560969F
:1032B000ED9359966A9297975491C399EF90659CB4
:1032C0005D91439EC691179F9191749F1991BB9EEA
:1032D0000A90FA9D8C8EAE9E518D98A09E8C45A32F
:1032E000A28C31A5BE8CE5A56B8C09A6EA8BECA45B
:1032F000028B94A3B189B2A367883AA57287C6A747
:103300000E87A5A9DE862DAA758614AAF285A2A825
:103310003F85C5A62E844BA6EB8255A7C5819CA9E7
:10332000048152AB8F80A6AB158052AB9B7F9CA9CA
:10333000257F55A7647E4CA63E7DC7A6FA7BA5A82F
:10334000EA7A18AA377A31AAB579A9A94B79CAA716
:103350001B793CA5B778B6A3C1779AA37776F1A479
:1033600026750EA63F74EBA5BD7338A56B734BA3F2
:1033700087739EA08A73B49ED672029E9B71C49E70
:103380001D707E9F0E6F209F966E4E9E616E6E9C8E
:10339000CA6ECB99376FA097D26E6496BC6D6B9650
:1033A000386C9B96216B0B96BB6A2695A66A8E930A
:1033B000486B3B910B6CF48EFA6B438D1D6B948CB8
:1033C000AA693F8C9B68858B4D689E8A5C68628980
:1033D0002E6981873C6A4685826A3F83EA69EC816F
:1033E000A0681C81A8674580786745807867FFFFE3
:1033F0004780A06AC881FA6A6882D56BC881AF6CC1
:103400004780096DC67EAF6C277ED56BC67EFA6A93
:103410004780A06A4780A06AFFFF3E80196E7C86C5
:10342000716E658C756FD7911B71AD965B73BC9A8D
:103430002C76A29D4C795F9FA27CF39F11805E9FAA
:103440008083A19DD586BA9AF689AB96C78CD69112
:10345000088F658CAD907C86B1913D800992007A91
:10346000B1911674AD90A66E088FD069C78CD665E1
:103470000A8AEE62F48625619B838960118024614B
:10348000887CED622E79D6651976CF695B73A56E5F
:103490001B711674756F007A716E3E80196E3E80D6
:1034A000196EFFFF3E80B26E5A7A046FB274F86FE5
:1034B0004B6F94718F6AC773A2668176D5638679E4
:1034C0002662BF7C9761118026626383D5639C86E8
:1034D000A266A2898F6A5B8C4B6F8E8EB2742B9022
:1034E0005A7A1E913D8070913E80709121861E9186
:1034F000CA8B2B9030918E8EED955B8CCF99AB89DA
:10350000A79C9C86559E6783E59E1180559EBB7C3B
:10351000A79C8679CF997776ED95C7733091947192
:10352000CA8BF86F2186046F3E80B26E3E80B26E09
:10353000FFFFBC80D76FAF80D871C87FD971B77FCC
:10354000D86FBC80D76FBC80D76FFFFFCB83F66F7F
:10355000CD840B703E8406725B83F471FFFFA97CFF
:10356000F86F1A7DF571377C0772A77B0D70A97C07
:10357000F86FA97CF86FFFFFCD876870C7889270DD
:10358000BA877C72DF865872FFFFA8786B709779D4
:103590005A72BA787E72AD779570A8786B70A878F9
:1035A0006B70FFFF00678A708068E5702069BF71EB
:1035B00080689972FF66F4727F659972E064BF71EA
:1035C0007F65E47000678A7000678A70FFFF8D99DD
:1035D0008C700E9BE670AE9BC0710E9B9B728D999A
:1035E000F6720D989B726E97C1710D98E7708D9968
:1035F0008C708D998C70FFFFA78B2C71958C6A71E4
:10360000108B39733F8A0373A78B2C71FFFFCE7425
:103610002F713576077364753C73DE736D71CE74EC
:103620002F71CE742F71FFFF478F3F7223908E72E0
:103630002D8E3A746B8DF473478F3F72FFFF2D719F
:1036400042720873F77348723D74507092722D7114
:1036500042722D714272FFFF3E80F6721B89F47335
:103660009A90CC769F950B7B5E9711809F951785DE
:103670009A9057891B892E8C3E802B8D61772E8CDA
:10368000E26F5789DD6A17851E691180DD6A0B7B41
:10369000E26FCC766177F4733E80F6723E80F6720C
:1036A000FFFF3E808F73C8778174A0703877D76B27
:1036B000467B2C6A1180D76BDC84A170EA88C977BD
:1036C000A18B3E80938CB488A18BDB8FEA88A59474
:1036D000DD8450961180A594467BDB8F3877B488C3
:1036E00081743E808F733E808F73FFFF9B929A732D
:1036F0005C93FA73009178755A90277575915E7492
:10370000FFFFDC6D9D7322702775746F7C75166DDD
:10371000FF73DC6D9D73DC6D9D73FFFF89953375C1
:103720003496A4757E93ED76E8928B76FFFFEB6A74
:1037300039758D6D9076FB6CF076EC6CFA76ED6BEE
:103740007476406AA975456AA775EB6A3975EB6AA4
:103750003975FFFF0B9807779A9884779795927839
:103760001A952578FFFF6A680C775B6B2A78DF6A09
:103770009778DD6788776A680C776A680C77FFFF4F
:10378000129A0A797E9A917940975E7AE196E87961
:10379000129A0A79FFFF64660F799669ED793769A5
:1037A000637AF965967964660F7964660F79FFFF2D
:1037B000919B327BDB9BC17B7098487C3198CB7BA3
:1037C000FFFFE664377B4768D07B07684C7C9D64CD
:1037D000C57BE664377BE664377BFFFF829C727DA6
:1037E000A79C067E2599467E0399C57DFFFFF7635A
:1037F000787D7667C97D5667497ED3630A7EF76315
:10380000787DF763787DFFFF875CDB7E085E357F20
:10381000A85E0F80085EE980875C4481855C4481F6
:10382000065BE980675A0F80065B357F875CDB7E2D
:10383000875CDB7EFFFF02A4DE7E83A5387F23A6A4
:10384000118023A6138083A5EC8002A4478181A266
:10385000ED80E2A1138081A2387F02A4DE7E02A463
:10386000DE7EFFFFE09CC07FE09C558057994D8035
:103870005799CB7FFFFF9D63C57F2667CE7F266765
:1038800051809D635A809D63C57F9D63C57FFFFF07
:103890002799D181AA9C1082879CA2820799528283
:1038A0002799D1812799D181FFFF5767D581776704
:1038B0005582F963A782D4631482FFFF7798CF8380
:1038C000E29B5584999BE38438984C847798CF8306
:1038D0007798CF83FFFF0868D38348685084E764F4
:1038E000E8849E645A84FFFF4997B985889A848644
:1038F0001D9A0C87EB962E864997B9854997B9850D
:10390000FFFF3869BD859769348665661087F9655C
:103910008986FFFFA2958587A598928818980F89B8
:103920002795F287A2958587A2958587FFFFDF6A95
:103930008A875B6BF8876A681489DC679788DF6A17
:103940008A87FFFFF76C2F898D6D9189EB6AE98A71
:10395000406A798AFFFF809332894596728A3E9643
:10396000778A9995E38AF5928D898093328980933D
:103970003289FFFF1091A18A6F931F8CAA92808CCD
:103980006490F78A1091A18A1091A18AFFFF736F4A
:10399000A58A2170FB8A3570048BED6D8B8CE16DEF
:1039A000878C176D238CFFFF3E8EE18B37908B8DBC
:1039B000598FDC8D7C8D278C3E8EE18B3E8EE18B8A
:1039C000FFFF5972EB8B1B73318C4071E78D647074
:1039D000978DFFFF218BE38CA98CB28EBA8BEF8E73
:1039E000518A188D218BE38C218BE38CFFFF767538
:1039F000EB8C4876208DE074F88EF273BB8EFFFF5F
:103A0000F3662F8D74688A8D7D688F8D8668948D9E
:103A100026696E8E8768488F0567A28F8465498FF7
:103A20007F65458F70653E8F73653E8FD364638E6F
:103A30007365898DF3662F8DF3662F8DFFFF939944
:103A4000318D139B8C8DB49B668E169B408F939902
:103A50009A8F1498408F7497668E12988C8D9399D4
:103A6000318D9399318DFFFFCD87A18DDC888B8FB0
:103A7000E087B58FF086C68DCD87A18DCD87A18DCE
:103A8000FFFFCD78A88DA879CB8DBC78BB8FC1778F
:103A9000928FFFFF5084198EE2841490E083299066
:103AA0006C832C8E5084198E5084198EFFFF487CB5
:103AB0001C8E2B7D2E8EBD7C2C90BB7B1790487C62
:103AC0001C8EFFFFBF80498ED2804A90CC7F4A90E7
:103AD000D97F498EBF80498EBF80498EFFFF4F80BE
:103AE0002193D0817A9371825594D1812F95518001
:103AF0008A95CF7E30952F7E5694CE7E7B934F80D5
:103B000021934F802193FFFF4880D946BC27BA9D5F
:103B1000D3D8BA9DFFFF4880C94B2E954A60626B8F
:103B20004A60FFFFD268CE62BF97CE62BAB92784DF
:103B300039A2369B165E369BB6464684D268CE6264
:103B4000FFFF3EBC9F863BD1369B42A7369BFFFFC3
:103B50003144BE860E59369B542F369B3144BE8667
:103B60004880D946BC27BA9DD3D8BA9D2533642056
:103B70002F20253364255300C2B04300253364252C
:103B8000532028255329004261636B00436F6E74F4
:103B9000696E756F7573004D6F6D656E74617279C6
:103BA000004C6F61642F4578747275646500556EC2
:103BB0006C6F61642F526574726163740048696749
:103BC000680041425300504C410032003100486FC0
:103BD00074210043617574696F6E3A0048656174C1
:103BE000696E670052656D6F76616C2054656D700B
:103BF000000045787472756465722053656C656366
:103C000074696F6E000041726520796F752073755D
:103C1000726520796F752077616E7420746F2063F0
:103C2000616E63656C20746865207072696E743FA4
:103C30000063616E63656C005072696E742041624E
:103C40006F727465640041726520796F75207375B9
:103C500072653F2053504920666C61736820776914
:103C60006C6C206265206572617365642E00535030
:103C70004920666C617368206572617365640045F4
:103C8000726173696E672E2E2E00537461727420F8
:103C90007072696E74696E672025733F0050726997
:103CA0006E74207374617274696E6700536574205A
:103CB0004D6178696D756D005265747261637469E8
:103CC0006F6E0054726176656C005072696E746933
:103CD0006E6700416363656C65726174696F6E0045
:103CE0006D6D2F73C2B2004261636B0045726173E8
:103CF000652053504920466C617368004C6F6164C5
:103D000020566964656F20746F2053504920466CBB
:103D100061736800506C617920566964656F206634
:103D2000726F6D2053504920466C61736800506C6F
:103D3000617920566964656F2066726F6D204D65EC
:103D400064696100506C617920536F6E670053683D
:103D50006F7720546F756368205265676973746567
:103D600072730053747265737320546573740053D7
:103D7000686F7720416C6C205769646765747300C5
:103D8000446576656C6F706572204D656E75005385
:103D900074617274696E6720746F20706C61792031
:103DA000535441525455502E4156490A00535441E0
:103DB000525455502E4156490043616E6E6F742027
:103DC0006F70656E20535441525455502E415649E0
:103DD0000046003700040046003900040046003B5E
:103DE00000040046003E0003000000000001004601
:103DF000003C00030000000000010046003C0004FD
:103E00000046004000030000000000010046003EA4
:103E100000020000000000020046003E00040046D0
:103E200000430003000000000001004600420004BF
:103E30000046004300040046003E0002000000006F
:103E400000020046003B00030000000000010046A5
:103E500000370004004600390002000000000002A4
:103E60000046003B00020000000000020046003C4B
:103E700000040046003E0002000000000002004670
:103E8000004000020000000000020046003E000466
:103E90000046003C00020000000000020046003B1B
:103EA0000002000000000002004600390004004645
:103EB000003B000200000000000200460037000244
:103EC000000000000002004600370008000000FF6C
:103ED000000000506C6561736520646F206E6F7424
:103EE0002072756E20746869732074657374207510
:103EF0006E617474656E64656420617320697420FA
:103F00006D617920636175736520796F75722070BA
:103F100072696E74657220746F206D616C66756E67
:103F20006374696F6E2E004E6F00596573004361B4
:103F30006C69627261746500546F756368205363C5
:103F40007265656E0056204F666673657400482082
:103F50004F666673657400446973706C6179000024
:103F60004261636B00596573004E6F00536F667456
:103F700020456E6473746F7073005A2050726F62C4
:103F8000650052756E6F757420320052756E6F75D4
:103F9000742031005A204D696E0059204D696E0021
:103FA00058204D696E005A204D61780059204D61AE
:103FB000780058204D617800456E6473746F70739B
:103FC000005370656564005072696E7420537065AB
:103FD00065640025004261636B004C696E65617227
:103FE00020416476616E63650052756E6F75742052
:103FF00053656E736F720046696C616D656E740017
:104000003E20005072696E74004F70656E00426110
:10401000636B003E003C0050616765202564206FA3
:104020006620256400436163686564536372656557
:104030006E3A3A73746F72654261636B67726F7543
:104040006E642829206661696C65643A206E6F741D
:1040500020656E6F75676820444C206361636865F6
:104060002073706163650A0043616E6E6F74206532
:104070006E746572207375626469723A20004261E1
:10408000636B00496E7465726661636520536F757A
:104090006E647300596573004E6F00426F6F742039
:1040A00073637265656E0053637265656E206C6F35
:1040B000636B00536F756E6420766F6C756D650071
:1040C0004C4344206272696768746E65737300497B
:1040D0006E746572666163652053657474696E679A
:1040E0007300450039000400000000000100450095
:1040F0003900020000000000010045003900020004
:10410000000000000100450040000A000000FF0020
:1041100000006506DE226D063A427506C6227C0660
:10412000E2408406290D91065A229A064E22A206E2
:104130004222A8063622AF062A22B806CA21BE06A7
:10414000D13DC706A01E4261636B00596573004EE6
:104150006F005072696E74206572726F72005072D7
:10416000696E742066696E6973686564005072696F
:104170006E74207374617274696E6700436C696356
:104180006B20736F756E647300536F756E64207669
:104190006F6C756D6500496E74657266616365204C
:1041A000536F756E64730045005A00590058004AF9
:1041B00065726B006D6D2F73004B004C696E65610D
:1041C0007220416476616E636500456E746572208D
:1041D00050617373636F64653A0053656C65637413
:1041E0002050617373636F64653A00506173736349
:1041F0006F64652061636365707465642100577244
:104200006F6E672070617373636F646521007A78E5
:104210006376626E6D213F3C006173646667686A15
:104220006B6C200071776572747975696F700031FD
:104230003233343536373839300043003C00010022
:104240004300400001004300430010000000FF0055
:104250000000416D617820453100416D6178205A40
:1042600000416D6178205900416D6178205800410E
:104270006363656C65726174696F6E006D6D2F7339
:10428000C2B200566D617820453100566D617820CC
:104290005A00566D6178205900566D61782058009B
:1042A00056656C6F63697479006D6D2F7300446F90
:1042B0006E6520706C6179696E6720766964656FE0
:1042C0000A0054696D656F757420706C6179696E50
:1042D0006720766964656F0A00416C6C005A00596A
:1042E000005800486F6D650045005A00590058009D
:1042F0004D6F76652041786973006D6D00473238E7
:1043000000473238205A00473238205900473238A7
:104310002058005A00590058004E75646765204EB9
:104320006F7A7A6C65006D6D0041726520796F75EA
:1043300020737572653F20437573746F6D697A6180
:1043400074696F6E732077696C6C206265206C6F86
:1043500073742E0053657474696E6773207265738D
:10436000746F72656420746F2064656661756C7427
:10437000004D35303200446F20796F7520776973B6
:104380006820746F2073617665207468657365209A
:1043900073657474696E6773206173206465666108
:1043A000756C74733F0053657474696E6773207322
:1043B0006176656421004D35303000436163686586
:1043C0006453637265656E3A3A73746F72654261E5
:1043D000636B67726F756E642829206661696C650E
:1043E000643A206E6F7420656E6F75676820444C68
:1043F0002063616368652073706163650A00506CB7
:104400006561736520776169742E2E2E00256C64BA
:104410002E25696D004261636B0046696C616D65B4
:104420006E742055736564004C6F6E6765737420FD
:104430005072696E7400546F74616C205072696EB2
:10444000742054696D6500546F74616C20507269FA
:104450006E7473005072696E7420436F756E7400D1
:104460005072696E746572205374617469737469F3
:104470006373005A0059005800486F6D65205365FA
:104480006E73650045005A005900580043757272FA
:10449000656E7473006D410045005A005900580064
:1044A00053746570732F6D6D0073742F6D6D0043C1
:1044B0004F4D4D554E49434154494F4E004452597A
:1044C00052554E004552524F525300494E464F00EE
:1044D0004543484F004572726F7220777269746964
:1044E0006E6720746F20454550524F4D210A00627F
:1044F0007573793A2070617573656420666F7220F8
:10450000696E7075740A00627573793A207061750E
:1045100073656420666F7220757365720A00627538
:1045200073793A2070726F63657373696E670A00FE
:104530006D41290A0020647269766572206F766584
:104540007274656D706572617475726520776172E1
:104550006E696E67212028003A2000206375727210
:10456000656E742064656372656173656420746F41
:1045700020006D41290A0020647269766572206FFF
:1045800076657274656D7065726174757265207799
:1045900061726E696E67212028003A2000206375E1
:1045A0007272656E74206465637265617365642000
:1045B000746F20006D41290A00206472697665726B
:1045C000206F76657274656D706572617475726561
:1045D000207761726E696E67212028003A200020E2
:1045E00063757272656E742064656372656173656C
:1045F0006420746F20006D41290A0020647269767E
:104600006572206F76657274656D70657261747520
:104610007265207761726E696E67212028003A20EA
:10462000002063757272656E7420646563726561E3
:1046300073656420746F200053544F505045442ECE
:1046400020005072696E7465722073746F707065AB
:10465000642064756520746F206572726F72732EAA
:104660002046697820746865206572726F722061D7
:104670006E6420757365204D39393920746F20724E
:104680006573746172742E202854656D7065726153
:10469000747572652069732072657365742E20537A
:1046A0006574206974206166746572207265737424
:1046B000617274696E67290A004E6F2043686563F2
:1046C0006B73756D2077697468206C696E65206EF8
:1046D000756D6265722C204C617374204C696E6537
:1046E0003A20004E6F20436865636B73756D2077C9
:1046F000697468206C696E65206E756D6265722CD8
:10470000204C617374204C696E653A2000636865C3
:10471000636B73756D206D69736D617463682C20B4
:104720004C617374204C696E653A20004C696E656B
:10473000204E756D626572206973206E6F74204C17
:10474000617374204C696E65204E756D6265722BC5
:10475000312C204C617374204C696E653A20004DF9
:104760003131300053442072656164206572726F8C
:10477000720A00446F6E65207072696E74696E67AC
:104780002066696C650A004B494C4C206361757367
:104790006564206279204B494C4C20627574746FBB
:1047A0006E2F70696E0A004B494C4C206361757323
:1047B000656420627920746F6F206D75636820696D
:1047C0006E6163746976652074696D65202D206360
:1047D000757272656E7420636F6D6D616E643A20E0
:1047E000006563686F3A004572726F723A006661E5
:1047F0006C736500747275650025753A25303275E5
:1048000000253032753A2530327500257564202533
:104810003032753A253032750044726976657220FF
:104820006572726F7200636F696C2073686F727467
:1048300020636972637569740A006F7665727465C6
:104840006D70657261747572650A002064726976B4
:104850006572206572726F72206465746563746539
:10486000643A20307800303D2E33323500313D2E11
:104870003138006D6178002F3331002F3331002F34
:10488000333100303D2E33323500313D2E3138008A
:104890006D6178002F3331002F3331002F33310019
:1048A000303D2E33323500313D2E3138006D617888
:1048B000002F3331002F3331002F333100303D2EA4
:1048C00033323500313D2E3138006D6178002F33A1
:1048D00031002F3331002F33310009204261642031
:1048E000726573706F6E73652100092042616420E8
:1048F000726573706F6E73652100092042616420D8
:10490000726573706F6E73652100092042616420C7
:10491000726573706F6E736521004472697665729B
:10492000207265676973746572733A0A006F74095F
:10493000006F747077090073326761090073326722
:104940006209006F6C6109006F6C62090073747317
:104950007409006673616374697665090073675F43
:10496000726573756C74007374616C6C67756172D9
:1049700064090044525653544154555300537461D2
:104980006C6C67756172642074687273002D737447
:104990006172740900687973746572657369730A6A
:1049A0002D656E640900626C616E6B2074696D65C3
:1049B000006F66662074696D65004F5420707265E3
:1049C0007761726E206861730A6265656E20747229
:1049D00069676765726564004F542070726577611E
:1049E000726E005B6D6D2F735D090070776D0A74D8
:1049F00068726573686F6C64007473746570090025
:104A00006D73746570730900737465616C746843C9
:104A1000686F70007673656E7365090050574D209E
:104A20007363616C650043532061637475616C004E
:104A3000486F6C642063757272656E740052756E97
:104A40002063757272656E74004D415820637572F3
:104A500072656E7400524D532063757272656E7488
:104A6000005365742063757272656E7400456E61E3
:104A7000626C6564090009004C4F5700484947487B
:104A8000004F4B004572726F723A20416C6C2000EF
:104A900020636F6E6E656374696F6E2E2E2E20001C
:104AA00054657374696E6720004C4F57004849473E
:104AB00048004F4B004572726F723A20416C6C2077
:104AC0000020636F6E6E656374696F6E2E2E2E20EC
:104AD0000054657374696E6720004C4F5700484955
:104AE0004748004F4B004572726F723A20416C6C20
:104AF000200020636F6E6E656374696F6E2E2E2EBC
:104B0000200054657374696E6720004C4F5700484D
:104B1000494748004F4B004572726F723A20416C12
:104B20006C200020636F6E6E656374696F6E2E2E4D
:104B30002E200054657374696E672000544D432025
:104B4000434F4E4E454354494F4E204552524F52CB
:104B50000020284E6F7420796574206D656173752F
:104B60007265642900202041766572616765206D59
:104B700065617375726564206261636B6C617368F3
:104B800020286D6D293A002020536D6F6F7468697D
:104B90006E6720286D6D293A2020202020202020BB
:104BA000202020202020202020530020204261634C
:104BB0006B6C6173682044697374616E636520284F
:104BC0006D6D293A2020202020202020002028461A
:104BD000312E30203D2066756C6C2C2046302E30F6
:104BE000203D206E6F6E65290A002020436F72728F
:104BF000656374696F6E20416D6F756E742F4661C9
:104C000064652D6F75743A20202020204600616372
:104C1000746976653A0A00696E004261636B6C6183
:104C2000736820436F7272656374696F6E20004D04
:104C30006163726F20746F6F206C6F6E672E0A0055
:104C4000617869733A70776D5F7363616C652F6328
:104C50007572725F7363616C652F6D6563685F6CFD
:104C60006F61647C666C6167737C7761726E636F81
:104C7000756E740A004452565F535441545553099B
:104C80000050574D5F5343414C45090050574D4329
:104C90004F4E460900434F4F4C434F4E4609004389
:104CA000484F50434F4E4609005448494748090968
:104CB0000054434F4F4C5448525309005450574DE1
:104CC0005448525309005453544550090900545054
:104CD0004F574552444F574E0900494F494E090915
:104CE00000475354415409090049484F4C445F4917
:104CF00052554E090047434F4E46090900090073BB
:104D000070726561644379636C6500737465616C8E
:104D1000746843686F700020647269766572206DF4
:104D20006F64653A09007370726561644379636CFE
:104D30006500737465616C746843686F700020640B
:104D40007269766572206D6F64653A0900737072DE
:104D50006561644379636C6500737465616C746844
:104D600043686F700020647269766572206D6F64AD
:104D7000653A09007370726561644379636C65001C
:104D8000737465616C746843686F70002064726945
:104D9000766572206D6F64653A090020496E766110
:104DA0006C6964206578747275646572200047329E
:104DB0002F47332062616420706172616D65746594
:104DC00072730A00536C6565702E2E2E004D302FC5
:104DD0003120427265616B2043616C6C6564004EEA
:104DE0006F204D6F76652E00456E642066696C6598
:104DF000206C6973740A00426567696E2066696C8D
:104E000065206C6973740A00726573756D65007056
:104E10006175736500286E6F2066696C65290043B3
:104E2000757272656E742066696C653A2000534431
:104E3000207072696E74696E6720627974652000F3
:104E40004E6F74205344207072696E74696E670AE5
:104E5000002E0A0044656C6574696F6E2066616996
:104E60006C65642C2046696C653A200046696C6567
:104E70002064656C657465643A005072696E7420D4
:104E800074696D653A200050726F7465637465646F
:104E90002050696E0A0025311D40512924301C45DF
:104EA00027232F1B0A0743222B1A42043803FF36FD
:104EB00004060600010A53746174733A2046696C53
:104EC000616D656E7420757365643A20002C204C0A
:104ED0006F6E67657374206A6F623A2000546F7456
:104EE000616C2074696D653A200053746174733A83
:104EF00020002C204661696C65643A20002C204615
:104F0000696E69736865643A20005072696E7473E3
:104F10003A200053746174733A20006F6B006F661F
:104F20006600D044CB44C444BD44AF4444454255DC
:104F3000473A004D3131332053004348414D4245FB
:104F4000525F54454D5045524154555245004D4FC6
:104F500054494F4E5F4D4F44455300544845524DC0
:104F6000414C5F50524F54454354494F4E004155B8
:104F7000544F5245504F52545F53445F5354415421
:104F800055530050524F4D50545F535550504F524F
:104F90005400454D455247454E43595F5041525389
:104FA000455200434153455F4C494748545F425284
:104FB000494748544E45535300544F47474C455F6B
:104FC0004C494748545300534F4654574152455F4C
:104FD000504F574552004255494C445F504552434B
:104FE000454E54004C4556454C494E475F4441544C
:104FF00041005A5F50524F4245004155544F4C4575
:1050000056454C005052494E545F4A4F4200505250
:105010004F4752455353004155544F5245504F52FC
:10502000545F54454D5000564F4C554D45545249D0
:105030004300454550524F4D0042494E4152595F41
:1050400046494C455F5452414E53464552005345E4
:105050005249414C5F584F4E5F584F4646004649B3
:10506000524D574152455F4E414D453A4D61726C2C
:10507000696E20204649524D574152455F56455270
:1050800053494F4E3A322E302E302E31373620458E
:10509000585452554445525F545950453A53696EDD
:1050A000676C65457874727564657220534F55520C
:1050B00043455F434F44455F55524C3A68747470A2
:1050C000733A2F2F636F64652E616C6570686F6231
:1050D0006A656374732E636F6D2F6469666675739A
:1050E000696F6E2F4D41524C494E2050524F544FD4
:1050F000434F4C5F56455253494F4E3A312E302064
:105100004D414348494E455F545950453A4C756CA2
:105110007A426F742042696F204558545255444575
:10512000525F434F554E543A3120555549443A3910
:10513000613164386565652D373131382D34306122
:10514000372D393432642D393534316633353636BE
:105150003764640A002F2F200020540020520041A1
:105160006363656C65726174696F6E3A2050004FBD
:105170004646004F4E00205A00205900580020207B
:105180004D61783A2000205A002059005800202014
:105190004D696E3A2000536F667420656E647374B7
:1051A0006F70733A200020466C6F773A20002064BD
:1051B0003A0020693A0020703A00496E76616C69C5
:1051C000642065787472756465720A0020643A0020
:1051D00020693A0020703A0064697300656E0043EC
:1051E000290A0061626C656420286D696E2074650F
:1051F0006D702000436F6C6420657874727564650F
:1052000073206172652000454550524F4D204F4B31
:105210000A003F4B2076616C7565206F7574206FB6
:10522000662072616E67652028302D3130292E0A84
:1052300000416476616E6365204B3D0020647269B5
:105240007665722063757272656E743A2000206410
:1052500072697665722063757272656E743A2000A9
:10526000206472697665722063757272656E743A35
:105270002000206472697665722063757272656EB3
:10528000743A20002074656D706572617475726582
:10529000207072657761726E2074726967676572DB
:1052A00065643A20002074656D7065726174757272
:1052B00065207072657761726E20747269676765C8
:1052C0007265643A20002074656D70657261747552
:1052D0007265207072657761726E2074726967679B
:1052E000657265643A20002074656D706572617442
:1052F000757265207072657761726E20747269676D
:1053000067657265643A2000207072657761726E1D
:1053100020666C616720636C65617265640A0020B9
:105320007072657761726E20666C616720636C6570
:10533000617265640A00207072657761726E206622
:105340006C616720636C65617265640A002070722D
:10535000657761726E20666C616720636C6561724F
:1053600065640A0020737465616C746843686F70CB
:10537000206D61782073706565643A200020737435
:1053800065616C746843686F70206D61782073701C
:105390006565643A200020737465616C74684368C5
:1053A0006F70206D61782073706565643A2000200D
:1053B000737465616C746843686F70206D617820E8
:1053C00073706565643A200020686F6D696E6720B0
:1053D00073656E73697469766974793A2000206820
:1053E0006F6D696E672073656E7369746976697431
:1053F000793A2000496E76616C6964206578747230
:10540000756465720A00220A00656E7175657565BE
:10541000696E672022002042002050006F6B00520E
:105420006573656E643A20004361703A00256973C4
:105430000025696D20256973002569682025696D3F
:105440002025697300256964202569682025696D18
:1054500020256973002569792025696420256968FC
:105460002025696D202569730020573A0042656444
:1054700020436F6F6C696E672E2E2E00426564208C
:1054800048656174696E672E2E2E00236465666917
:105490006E652044454641554C545F00006265648A
:1054A000004B6420004B6920004B702000504944A1
:1054B000204175746F74756E652066696E697368D6
:1054C0006564212050757420746865206C61737464
:1054D000204B702C204B6920616E64204B6420634C
:1054E0006F6E7374616E74732066726F6D20626587
:1054F0006C6F7720696E746F20436F6E6669677595
:10550000726174696F6E2E680A00504944204175BB
:10551000746F74756E65206661696C6564212074B2
:10552000696D656F75740A00486F74656E64205408
:105530004845524D414C2052554E41574159004229
:10554000454420544845524D414C2052554E4157F8
:10555000415900546865726D616C2052756E6177B7
:10556000617900486F74656E642048656174696E86
:1055700067204661696C6564004265642048656126
:1055800074696E67204661696C6564004865617482
:10559000696E67206661696C65640050494420410A
:1055A00075746F74756E65206661696C6564212021
:1055B00054656D706572617475726520746F6F20CB
:1055C000686967680A00204B643A2000204B693AFA
:1055D0002000204B703A20000A20436C61737369ED
:1055E0006320504944200A00204B643A2000204B9D
:1055F000693A2000204B703A20000A204E6F206F3D
:1056000076657273686F6F740A002054753A2000D3
:10561000204B753A2000206D61783A2000206D699A
:105620006E3A200020643A200020626961733A20BB
:1056300000504944204175746F74756E6520737411
:105640006172740A00504944204175746F74756E1C
:1056500065206661696C6564212054656D706572B2
:10566000617475726520746F6F20686967680A00DD
:10567000504944204175746F74756E652066616988
:105680006C6564212042616420657874727564657C
:1056900072206E756D6265720A0054696D656F7572
:1056A00074206F6E20444C5F43616368653A3A57DB
:1056B0006169745F556E74696C5F49646C65282913
:1056C0000A00080810100D1114161D261014191CBC
:1056D00024313F536C0A0B0F1A191F1A0A0F0E12AE
:1056E0001809120B11181818181818181818180A71
:1056F0000A15171614251B1B1A1C17161C1D0C1730
:105700001A16231D1C1A1D1B1A1A1C1B241B1A19DE
:105710000C120C12150D17181618160F18180A0B64
:10572000160A24181818180F160E18152015151615
:105730000F0A0F1D0A4D61726C696E20322E302ED9
:10574000302E313736004F6B617900C2A9203230DC
:1057500032312046414D452033440A0A7777772E6F
:105760006C756C7A626F742E636F6D004669726D32
:105770007761726520666F7220746F6F6C68656107
:10578000643A0A25730A0A004C756C7A426F7420D9
:1057900042696F00004F6B61790043616368656423
:1057A00053637265656E3A3A73746F7265426163F2
:1057B0006B67726F756E642829206661696C656419
:1057C0003A206E6F7420656E6F75676820444C20B8
:1057D00063616368652073706163650A00436F727B
:1057E00072656374696F6E002500536D6F6F746826
:1057F000696E67005A00590058004261636B6C6122
:105800007368006D6D00004261636B00496E6372E6
:10581000656D656E74002B002D00002000426163F1
:105820006B00526573746F72652044656661756CB8
:10583000747300496E7465726661636520536574A4
:1058400074696E6773004C696E656172204164769D
:10585000616E6365004261636B6C617368004A65E9
:10586000726B00416363656C65726174696F6E0091
:1058700056656C6F636974790053746570732F6D2E
:105880006D00546F6F6C204F6666736574730045CE
:105890006E6473746F707300486F6D652053656E2E
:1058A00073650043757272656E747300446973703A
:1058B0006C61790041626F757420746F206175743A
:1058C0006F2D6C6576656C20616E642072652D6845
:1058D0006F6D6520706C756E6765722E2052656DF8
:1058E0006F766520737972696E6765207072696F73
:1058F0007220746F2070726F63656564696E672EC5
:105900000A0A436F6E74696E75653F004731313224
:105910000A4D313137204C6576656C696E672058C9
:1059200020417869730A4730205831373020463992
:105930003939390A4730205A352046363030300A56
:105940004739310A4D3231312053300A4D3430302D
:105950000A4D393036205A3135300A4730205A2D19
:10596000313520463530300A4730205A352046350B
:1059700030300A4D3430300A4739300A4D3930362C
:10598000205A3936300A4D3231312053310A4732EC
:1059900038205A300A4D313137204C6576656C69B4
:1059A0006E6720646F6E652E0A473020583131359E
:1059B000205A35302046363030300A4D3430300AE7
:1059C0004D3138205820590041626F757420746F32
:1059D000206D6F766520746F20686F6D6520706F25
:1059E000736974696F6E2E20456E737572652074CD
:1059F000686520746F7020616E6420746865206231
:105A00006564206F6620746865207072696E7465C5
:105A1000722061726520636C6561722E0A0A436FA1
:105A20006E74696E75653F004732380A47302058FA
:105A3000313135205A35302046363030300A4D3439
:105A400030300A4D313820582059004261636B00D4
:105A500041626F7574205072696E746572004164A2
:105A600076616E6365642053657474696E67730054
:105A7000496E746572666163652053657474696EFE
:105A80006773004265642054656D7065726174755A
:105A90007265004175746F2D6C6576656C205820B9
:105AA000417869730052656C6561736520582061A7
:105AB0006E642059204178697300526169736520D2
:105AC000506C756E676572004D6F766520746F203F
:105AD000486F6D65004D61696E204D656E75004DB6
